{
  "_format": "hh-sol-artifact-1",
  "contractName": "ProgressiveEscrowV3",
  "sourceName": "contracts/ProgressiveEscrowV3.sol",
  "abi": [
    {
      "inputs": [
        {
          "internalType": "address",
          "name": "_platformWallet",
          "type": "address"
        }
      ],
      "stateMutability": "nonpayable",
      "type": "constructor"
    },
    {
      "inputs": [],
      "name": "EnforcedPause",
      "type": "error"
    },
    {
      "inputs": [],
      "name": "ExpectedPause",
      "type": "error"
    },
    {
      "inputs": [
        {
          "internalType": "address",
          "name": "owner",
          "type": "address"
        }
      ],
      "name": "OwnableInvalidOwner",
      "type": "error"
    },
    {
      "inputs": [
        {
          "internalType": "address",
          "name": "account",
          "type": "address"
        }
      ],
      "name": "OwnableUnauthorizedAccount",
      "type": "error"
    },
    {
      "inputs": [],
      "name": "ReentrancyGuardReentrantCall",
      "type": "error"
    },
    {
      "inputs": [
        {
          "internalType": "address",
          "name": "token",
          "type": "address"
        }
      ],
      "name": "SafeERC20FailedOperation",
      "type": "error"
    },
    {
      "anonymous": false,
      "inputs": [
        {
          "indexed": true,
          "internalType": "bytes32",
          "name": "sessionId",
          "type": "bytes32"
        },
        {
          "indexed": false,
          "internalType": "uint256",
          "name": "amount",
          "type": "uint256"
        },
        {
          "indexed": false,
          "internalType": "string",
          "name": "reason",
          "type": "string"
        }
      ],
      "name": "EmergencyRelease",
      "type": "event"
    },
    {
      "anonymous": false,
      "inputs": [
        {
          "indexed": true,
          "internalType": "bytes32",
          "name": "sessionId",
          "type": "bytes32"
        },
        {
          "indexed": false,
          "internalType": "uint256",
          "name": "timestamp",
          "type": "uint256"
        }
      ],
      "name": "HeartbeatReceived",
      "type": "event"
    },
    {
      "anonymous": false,
      "inputs": [
        {
          "indexed": true,
          "internalType": "address",
          "name": "previousOwner",
          "type": "address"
        },
        {
          "indexed": true,
          "internalType": "address",
          "name": "newOwner",
          "type": "address"
        }
      ],
      "name": "OwnershipTransferred",
      "type": "event"
    },
    {
      "anonymous": false,
      "inputs": [
        {
          "indexed": false,
          "internalType": "address",
          "name": "account",
          "type": "address"
        }
      ],
      "name": "Paused",
      "type": "event"
    },
    {
      "anonymous": false,
      "inputs": [
        {
          "indexed": true,
          "internalType": "bytes32",
          "name": "sessionId",
          "type": "bytes32"
        },
        {
          "indexed": false,
          "internalType": "uint256",
          "name": "releasedAmount",
          "type": "uint256"
        },
        {
          "indexed": false,
          "internalType": "uint256",
          "name": "totalReleased",
          "type": "uint256"
        },
        {
          "indexed": false,
          "internalType": "uint256",
          "name": "timestamp",
          "type": "uint256"
        }
      ],
      "name": "ProgressivePaymentReleased",
      "type": "event"
    },
    {
      "anonymous": false,
      "inputs": [
        {
          "indexed": true,
          "internalType": "bytes32",
          "name": "sessionId",
          "type": "bytes32"
        },
        {
          "indexed": false,
          "internalType": "uint256",
          "name": "refundAmount",
          "type": "uint256"
        },
        {
          "indexed": false,
          "internalType": "uint256",
          "name": "timestamp",
          "type": "uint256"
        }
      ],
      "name": "SessionCancelled",
      "type": "event"
    },
    {
      "anonymous": false,
      "inputs": [
        {
          "indexed": true,
          "internalType": "bytes32",
          "name": "sessionId",
          "type": "bytes32"
        },
        {
          "indexed": false,
          "internalType": "uint256",
          "name": "finalAmount",
          "type": "uint256"
        },
        {
          "indexed": false,
          "internalType": "uint256",
          "name": "platformFee",
          "type": "uint256"
        },
        {
          "indexed": false,
          "internalType": "uint256",
          "name": "timestamp",
          "type": "uint256"
        }
      ],
      "name": "SessionCompleted",
      "type": "event"
    },
    {
      "anonymous": false,
      "inputs": [
        {
          "indexed": true,
          "internalType": "bytes32",
          "name": "sessionId",
          "type": "bytes32"
        },
        {
          "indexed": true,
          "internalType": "address",
          "name": "student",
          "type": "address"
        },
        {
          "indexed": true,
          "internalType": "address",
          "name": "mentor",
          "type": "address"
        },
        {
          "indexed": false,
          "internalType": "uint256",
          "name": "amount",
          "type": "uint256"
        },
        {
          "indexed": false,
          "internalType": "address",
          "name": "token",
          "type": "address"
        }
      ],
      "name": "SessionCreated",
      "type": "event"
    },
    {
      "anonymous": false,
      "inputs": [
        {
          "indexed": true,
          "internalType": "bytes32",
          "name": "sessionId",
          "type": "bytes32"
        },
        {
          "indexed": false,
          "internalType": "uint256",
          "name": "timestamp",
          "type": "uint256"
        },
        {
          "indexed": false,
          "internalType": "string",
          "name": "reason",
          "type": "string"
        }
      ],
      "name": "SessionPaused",
      "type": "event"
    },
    {
      "anonymous": false,
      "inputs": [
        {
          "indexed": true,
          "internalType": "bytes32",
          "name": "sessionId",
          "type": "bytes32"
        },
        {
          "indexed": false,
          "internalType": "uint256",
          "name": "timestamp",
          "type": "uint256"
        }
      ],
      "name": "SessionResumed",
      "type": "event"
    },
    {
      "anonymous": false,
      "inputs": [
        {
          "indexed": true,
          "internalType": "bytes32",
          "name": "sessionId",
          "type": "bytes32"
        },
        {
          "indexed": false,
          "internalType": "uint256",
          "name": "timestamp",
          "type": "uint256"
        }
      ],
      "name": "SessionStarted",
      "type": "event"
    },
    {
      "anonymous": false,
      "inputs": [
        {
          "indexed": false,
          "internalType": "address",
          "name": "account",
          "type": "address"
        }
      ],
      "name": "Unpaused",
      "type": "event"
    },
    {
      "inputs": [],
      "name": "AUTO_RELEASE_DELAY",
      "outputs": [
        {
          "internalType": "uint256",
          "name": "",
          "type": "uint256"
        }
      ],
      "stateMutability": "view",
      "type": "function"
    },
    {
      "inputs": [],
      "name": "GRACE_PERIOD",
      "outputs": [
        {
          "internalType": "uint256",
          "name": "",
          "type": "uint256"
        }
      ],
      "stateMutability": "view",
      "type": "function"
    },
    {
      "inputs": [],
      "name": "HEARTBEAT_INTERVAL",
      "outputs": [
        {
          "internalType": "uint256",
          "name": "",
          "type": "uint256"
        }
      ],
      "stateMutability": "view",
      "type": "function"
    },
    {
      "inputs": [],
      "name": "PLATFORM_FEE_PERCENT",
      "outputs": [
        {
          "internalType": "uint256",
          "name": "",
          "type": "uint256"
        }
      ],
      "stateMutability": "view",
      "type": "function"
    },
    {
      "inputs": [],
      "name": "PROGRESSIVE_RELEASE_INTERVAL",
      "outputs": [
        {
          "internalType": "uint256",
          "name": "",
          "type": "uint256"
        }
      ],
      "stateMutability": "view",
      "type": "function"
    },
    {
      "inputs": [
        {
          "internalType": "address",
          "name": "token",
          "type": "address"
        }
      ],
      "name": "addSupportedToken",
      "outputs": [],
      "stateMutability": "nonpayable",
      "type": "function"
    },
    {
      "inputs": [
        {
          "internalType": "bytes32",
          "name": "sessionId",
          "type": "bytes32"
        }
      ],
      "name": "autoCompleteSession",
      "outputs": [],
      "stateMutability": "nonpayable",
      "type": "function"
    },
    {
      "inputs": [
        {
          "internalType": "uint256",
          "name": "totalAmount",
          "type": "uint256"
        },
        {
          "internalType": "uint256",
          "name": "elapsedMinutes",
          "type": "uint256"
        },
        {
          "internalType": "uint256",
          "name": "durationMinutes",
          "type": "uint256"
        }
      ],
      "name": "calculateMaxRelease",
      "outputs": [
        {
          "internalType": "uint256",
          "name": "",
          "type": "uint256"
        }
      ],
      "stateMutability": "pure",
      "type": "function"
    },
    {
      "inputs": [
        {
          "internalType": "bytes32",
          "name": "sessionId",
          "type": "bytes32"
        }
      ],
      "name": "cancelSession",
      "outputs": [],
      "stateMutability": "nonpayable",
      "type": "function"
    },
    {
      "inputs": [
        {
          "internalType": "bytes32",
          "name": "sessionId",
          "type": "bytes32"
        },
        {
          "internalType": "uint256",
          "name": "rating",
          "type": "uint256"
        },
        {
          "internalType": "string",
          "name": "feedback",
          "type": "string"
        }
      ],
      "name": "completeSession",
      "outputs": [],
      "stateMutability": "nonpayable",
      "type": "function"
    },
    {
      "inputs": [
        {
          "internalType": "bytes32",
          "name": "sessionId",
          "type": "bytes32"
        },
        {
          "internalType": "address",
          "name": "mentor",
          "type": "address"
        },
        {
          "internalType": "address",
          "name": "paymentToken",
          "type": "address"
        },
        {
          "internalType": "uint256",
          "name": "amount",
          "type": "uint256"
        },
        {
          "internalType": "uint256",
          "name": "durationMinutes",
          "type": "uint256"
        },
        {
          "internalType": "uint256",
          "name": "nonce",
          "type": "uint256"
        }
      ],
      "name": "createProgressiveSession",
      "outputs": [],
      "stateMutability": "nonpayable",
      "type": "function"
    },
    {
      "inputs": [
        {
          "internalType": "bytes32",
          "name": "sessionId",
          "type": "bytes32"
        },
        {
          "internalType": "address",
          "name": "recipient",
          "type": "address"
        },
        {
          "internalType": "uint256",
          "name": "amount",
          "type": "uint256"
        },
        {
          "internalType": "string",
          "name": "reason",
          "type": "string"
        }
      ],
      "name": "emergencyRelease",
      "outputs": [],
      "stateMutability": "nonpayable",
      "type": "function"
    },
    {
      "inputs": [
        {
          "internalType": "bytes32",
          "name": "sessionId",
          "type": "bytes32"
        }
      ],
      "name": "getAvailablePayment",
      "outputs": [
        {
          "internalType": "uint256",
          "name": "",
          "type": "uint256"
        }
      ],
      "stateMutability": "view",
      "type": "function"
    },
    {
      "inputs": [
        {
          "internalType": "bytes32",
          "name": "sessionId",
          "type": "bytes32"
        }
      ],
      "name": "getEffectiveElapsedTime",
      "outputs": [
        {
          "internalType": "uint256",
          "name": "",
          "type": "uint256"
        }
      ],
      "stateMutability": "view",
      "type": "function"
    },
    {
      "inputs": [
        {
          "internalType": "bytes32",
          "name": "sessionId",
          "type": "bytes32"
        }
      ],
      "name": "getSession",
      "outputs": [
        {
          "components": [
            {
              "internalType": "bytes32",
              "name": "sessionId",
              "type": "bytes32"
            },
            {
              "internalType": "address",
              "name": "student",
              "type": "address"
            },
            {
              "internalType": "address",
              "name": "mentor",
              "type": "address"
            },
            {
              "internalType": "address",
              "name": "paymentToken",
              "type": "address"
            },
            {
              "internalType": "uint256",
              "name": "totalAmount",
              "type": "uint256"
            },
            {
              "internalType": "uint256",
              "name": "releasedAmount",
              "type": "uint256"
            },
            {
              "internalType": "uint256",
              "name": "sessionDuration",
              "type": "uint256"
            },
            {
              "internalType": "uint256",
              "name": "startTime",
              "type": "uint256"
            },
            {
              "internalType": "uint256",
              "name": "lastHeartbeat",
              "type": "uint256"
            },
            {
              "internalType": "uint256",
              "name": "pausedTime",
              "type": "uint256"
            },
            {
              "internalType": "uint256",
              "name": "createdAt",
              "type": "uint256"
            },
            {
              "internalType": "enum ProgressiveEscrowV3.SessionStatus",
              "name": "status",
              "type": "uint8"
            },
            {
              "internalType": "bool",
              "name": "isActive",
              "type": "bool"
            },
            {
              "internalType": "bool",
              "name": "isPaused",
              "type": "bool"
            },
            {
              "internalType": "bool",
              "name": "surveyCompleted",
              "type": "bool"
            }
          ],
          "internalType": "struct ProgressiveEscrowV3.ProgressiveSession",
          "name": "",
          "type": "tuple"
        }
      ],
      "stateMutability": "view",
      "type": "function"
    },
    {
      "inputs": [
        {
          "internalType": "address",
          "name": "user",
          "type": "address"
        }
      ],
      "name": "getUserNonce",
      "outputs": [
        {
          "internalType": "uint256",
          "name": "",
          "type": "uint256"
        }
      ],
      "stateMutability": "view",
      "type": "function"
    },
    {
      "inputs": [
        {
          "internalType": "bytes32",
          "name": "sessionId",
          "type": "bytes32"
        }
      ],
      "name": "needsHeartbeat",
      "outputs": [
        {
          "internalType": "bool",
          "name": "",
          "type": "bool"
        }
      ],
      "stateMutability": "view",
      "type": "function"
    },
    {
      "inputs": [],
      "name": "owner",
      "outputs": [
        {
          "internalType": "address",
          "name": "",
          "type": "address"
        }
      ],
      "stateMutability": "view",
      "type": "function"
    },
    {
      "inputs": [],
      "name": "pause",
      "outputs": [],
      "stateMutability": "nonpayable",
      "type": "function"
    },
    {
      "inputs": [
        {
          "internalType": "bytes32",
          "name": "sessionId",
          "type": "bytes32"
        }
      ],
      "name": "pauseSession",
      "outputs": [],
      "stateMutability": "nonpayable",
      "type": "function"
    },
    {
      "inputs": [],
      "name": "paused",
      "outputs": [
        {
          "internalType": "bool",
          "name": "",
          "type": "bool"
        }
      ],
      "stateMutability": "view",
      "type": "function"
    },
    {
      "inputs": [],
      "name": "platformWallet",
      "outputs": [
        {
          "internalType": "address",
          "name": "",
          "type": "address"
        }
      ],
      "stateMutability": "view",
      "type": "function"
    },
    {
      "inputs": [
        {
          "internalType": "bytes32",
          "name": "sessionId",
          "type": "bytes32"
        }
      ],
      "name": "releaseProgressivePayment",
      "outputs": [],
      "stateMutability": "nonpayable",
      "type": "function"
    },
    {
      "inputs": [
        {
          "internalType": "address",
          "name": "token",
          "type": "address"
        }
      ],
      "name": "removeSupportedToken",
      "outputs": [],
      "stateMutability": "nonpayable",
      "type": "function"
    },
    {
      "inputs": [],
      "name": "renounceOwnership",
      "outputs": [],
      "stateMutability": "nonpayable",
      "type": "function"
    },
    {
      "inputs": [
        {
          "internalType": "bytes32",
          "name": "sessionId",
          "type": "bytes32"
        }
      ],
      "name": "resumeSession",
      "outputs": [],
      "stateMutability": "nonpayable",
      "type": "function"
    },
    {
      "inputs": [
        {
          "internalType": "bytes32",
          "name": "",
          "type": "bytes32"
        }
      ],
      "name": "sessions",
      "outputs": [
        {
          "internalType": "bytes32",
          "name": "sessionId",
          "type": "bytes32"
        },
        {
          "internalType": "address",
          "name": "student",
          "type": "address"
        },
        {
          "internalType": "address",
          "name": "mentor",
          "type": "address"
        },
        {
          "internalType": "address",
          "name": "paymentToken",
          "type": "address"
        },
        {
          "internalType": "uint256",
          "name": "totalAmount",
          "type": "uint256"
        },
        {
          "internalType": "uint256",
          "name": "releasedAmount",
          "type": "uint256"
        },
        {
          "internalType": "uint256",
          "name": "sessionDuration",
          "type": "uint256"
        },
        {
          "internalType": "uint256",
          "name": "startTime",
          "type": "uint256"
        },
        {
          "internalType": "uint256",
          "name": "lastHeartbeat",
          "type": "uint256"
        },
        {
          "internalType": "uint256",
          "name": "pausedTime",
          "type": "uint256"
        },
        {
          "internalType": "uint256",
          "name": "createdAt",
          "type": "uint256"
        },
        {
          "internalType": "enum ProgressiveEscrowV3.SessionStatus",
          "name": "status",
          "type": "uint8"
        },
        {
          "internalType": "bool",
          "name": "isActive",
          "type": "bool"
        },
        {
          "internalType": "bool",
          "name": "isPaused",
          "type": "bool"
        },
        {
          "internalType": "bool",
          "name": "surveyCompleted",
          "type": "bool"
        }
      ],
      "stateMutability": "view",
      "type": "function"
    },
    {
      "inputs": [
        {
          "internalType": "bytes32",
          "name": "sessionId",
          "type": "bytes32"
        }
      ],
      "name": "shouldAutoPause",
      "outputs": [
        {
          "internalType": "bool",
          "name": "",
          "type": "bool"
        }
      ],
      "stateMutability": "view",
      "type": "function"
    },
    {
      "inputs": [
        {
          "internalType": "bytes32",
          "name": "sessionId",
          "type": "bytes32"
        }
      ],
      "name": "startProgressiveSession",
      "outputs": [],
      "stateMutability": "nonpayable",
      "type": "function"
    },
    {
      "inputs": [
        {
          "internalType": "address",
          "name": "",
          "type": "address"
        }
      ],
      "name": "supportedTokens",
      "outputs": [
        {
          "internalType": "bool",
          "name": "",
          "type": "bool"
        }
      ],
      "stateMutability": "view",
      "type": "function"
    },
    {
      "inputs": [
        {
          "internalType": "address",
          "name": "newOwner",
          "type": "address"
        }
      ],
      "name": "transferOwnership",
      "outputs": [],
      "stateMutability": "nonpayable",
      "type": "function"
    },
    {
      "inputs": [],
      "name": "unpause",
      "outputs": [],
      "stateMutability": "nonpayable",
      "type": "function"
    },
    {
      "inputs": [
        {
          "internalType": "bytes32",
          "name": "sessionId",
          "type": "bytes32"
        }
      ],
      "name": "updateHeartbeat",
      "outputs": [],
      "stateMutability": "nonpayable",
      "type": "function"
    },
    {
      "inputs": [
        {
          "internalType": "address",
          "name": "newWallet",
          "type": "address"
        }
      ],
      "name": "updatePlatformWallet",
      "outputs": [],
      "stateMutability": "nonpayable",
      "type": "function"
    },
    {
      "inputs": [
        {
          "internalType": "bytes32",
          "name": "",
          "type": "bytes32"
        }
      ],
      "name": "usedSessionIds",
      "outputs": [
        {
          "internalType": "bool",
          "name": "",
          "type": "bool"
        }
      ],
      "stateMutability": "view",
      "type": "function"
    },
    {
      "inputs": [
        {
          "internalType": "address",
          "name": "",
          "type": "address"
        }
      ],
      "name": "userNonces",
      "outputs": [
        {
          "internalType": "uint256",
          "name": "",
          "type": "uint256"
        }
      ],
      "stateMutability": "view",
      "type": "function"
    }
  ],
  "bytecode": "0x6080346200013e57601f62002af838819003918201601f19168301916001600160401b0383118484101762000143578084926020946040528339810103126200013e57516001600160a01b03808216918290036200013e5760016000553315620001255760018054610100600160a81b0319811633600881811b610100600160a81b0316929092179093556040519391901c167f8be0079c531659141344cd1fd0a4f28419497f9722a3daafe3b4186f6b6457e0600080a38115620000e35750600480546001600160a01b03191691909117905560405161299e90816200015a8239f35b62461bcd60e51b815260206004820152601760248201527f496e76616c696420706c6174666f726d2077616c6c65740000000000000000006044820152606490fd5b604051631e4fbdf760e01b815260006004820152602490fd5b600080fd5b634e487b7160e01b600052604160045260246000fdfe6080604052600436101561001257600080fd5b60003560e01c806302ceb40614611ea157806309499aa614611e835780631ac6af0314611e5f5780631c8b14a014611e2e5780632b8a5f3b14611c9f5780632f7801f41461153357806334d1c8fe14611c83578063363ec29814611c6757806339b240bd14611a4c5780633a17ba64146117b15780633f4ba83a146117475780634d213982146115ca578063560d52d4146115ae578063590a2cc1146115905780635c975abb1461156d5780636834e3a81461153357806368c4ac26146114f45780636baae9cc146114cc5780636d69fcaf14611444578063715018a6146113e357806376319190146113a157806379d55e771461120b5780637ac1b46914610fd65780637dbd283214610eed5780638456cb5914610e945780638da5cb5b14610e67578063962db93b14610e4957806399173d6b14610cdc578063ada4ef3014610c51578063b817be4c14610ae6578063c1a287e214610aca578063ccb868dd146107d8578063e906826c146107b2578063f2fde38b14610719578063f400272b146101d65763fa2af9da146101a857600080fd5b346101d15760003660031901126101d1576004546040516001600160a01b039091168152602090f35b600080fd5b346101d15760c03660031901126101d1576101ef612142565b604480356001600160a01b038116908190036101d1576064928335926084359161021761228d565b61021f61226f565b6001600160a01b03169485156106de573386146106a35783600052600360205260ff604060002054161561066157841561061f5782156105dd576004356000908152600260205260409020600101546001600160a01b03166105a25733600052600560205260406000205460a4350361057057600435600052600660205260ff6040600020541661052e5733600052600560205260406000208054600019811461051857600101905560043560005260066020526040600020600160ff19825416179055604051916323b872dd60e01b602084015233602484015230908301528481830152815260a081019080821067ffffffffffffffff8311176105025761032b9160405283612207565b60405190610338826121c2565b6004358252336020830152846040830152826060830152836080830152600060a083015260c0820152600060e082015260006101008201526000610120820152426101408201526000610160820152600061018082015260006101a082015260006101c08201526004356000526002602052600b6040600020825181556001810160018060a01b03602085015116906bffffffffffffffffffffffff60a01b91828254161790556002820160018060a01b0360408601511682825416179055600382019060018060a01b03606086015116908254161790556080830151600482015560a0830151600582015560c0830151600682015560e0830151600782015561010083015160088201556101208301516009820155610140830151600a82015501906101608101519060058210156104ec57825461ff00610180830151151560081b169060ff63ff0000006101c062ff00006101a0870151151560101b16950151151560181b1694169063ffffffff1916171717179055604051918252602082015233907fa5d7a3cf3954591f1af3cd96f79210169bbaf7e3b3a3e60de11886bc773649e0604060043592a46001600055005b634e487b7160e01b600052602160045260246000fd5b634e487b7160e01b600052604160045260246000fd5b634e487b7160e01b600052601160045260246000fd5b907f53657373696f6e20494420616c726561647920757365640000000000000000006040519162461bcd60e51b83526020600484015260176024840152820152fd5b906c496e76616c6964206e6f6e636560981b6040519162461bcd60e51b835260206004840152600d6024840152820152fd5b907553657373696f6e20616c72656164792065786973747360501b6040519162461bcd60e51b83526020600484015260166024840152820152fd5b907f4475726174696f6e206d7573742062652067726561746572207468616e2030006040519162461bcd60e51b835260206004840152601f6024840152820152fd5b907f416d6f756e74206d7573742062652067726561746572207468616e20300000006040519162461bcd60e51b835260206004840152601d6024840152820152fd5b907f556e737570706f72746564207061796d656e7420746f6b656e000000000000006040519162461bcd60e51b83526020600484015260196024840152820152fd5b907521b0b73737ba1036b2b73a37b9103cb7bab939b2b63360511b6040519162461bcd60e51b83526020600484015260166024840152820152fd5b9075496e76616c6964206d656e746f72206164647265737360501b6040519162461bcd60e51b83526020600484015260166024840152820152fd5b346101d15760203660031901126101d15761073261212c565b61073a612193565b6001600160a01b038181169182156107995760018054610100600160a81b03198116600893841b610100600160a81b031617909155901c167f8be0079c531659141344cd1fd0a4f28419497f9722a3daafe3b4186f6b6457e0600080a3005b604051631e4fbdf760e01b815260006004820152602490fd5b346101d15760203660031901126101d15760206107d0600435612827565b604051908152f35b346101d1576020806003193601126101d1576004356107f561228d565b60008181526002835260409020600181015490926001600160a01b0391821661081f8115156122b0565b600b85015460ff811660058110156104ec57600161083d91146122f5565b60ff8160081c169081610abb575b5015610a8057600785015415610a3b5733148015610a2c575b156109d25761087283612418565b91610888600486015493600687015490856123a2565b60058601928354918281111561098f57826108a291612336565b94605a810290808204605a14901517156105185760649004806108c58785612343565b1161097b575b50841561093f57507ff2446e1f418253f1b6b8f9b8ebf603fd78b61d59024e68b0d687d1ecc22b8a40949561091a92610905868094612343565b85556002816003840154169201541690612350565b54604080519283526020830191909152429082015280606081015b0390a26001600055005b6064906040519062461bcd60e51b8252600482015260156024820152744e6f207061796d656e7420746f2072656c6561736560581b6044820152fd5b6109889195508290612336565b93876108cb565b6064826040519062461bcd60e51b825280600483015260248201527f4e6f207061796d656e7420617661696c61626c6520666f722072656c656173656044820152fd5b6084906040519062461bcd60e51b82526004820152602d60248201527f4f6e6c792073657373696f6e207061727469636970616e74732063616e20726560448201526c1b19585cd9481c185e5b595b9d609a1b6064820152fd5b50816002850154163314610864565b60405162461bcd60e51b815260048101839052601a60248201527f53657373696f6e2073746172742074696d65206e6f74207365740000000000006044820152606490fd5b60405162461bcd60e51b815260048101839052601360248201527253657373696f6e206e6f742072756e6e696e6760681b6044820152606490fd5b60ff915060101c16158661084b565b346101d15760003660031901126101d157602060405160788152f35b346101d15760203660031901126101d157600435610b0261228d565b600081815260026020526040902060018101546001600160a01b0391908216610b2c8115156122b0565b600b82019283549160ff831660058110156104ec57610c00573314908115610bf0575b5015610b9f576101019142600782015560084291015562ffffff19161790557fd010adb8a640e9a6a134ce407a4e27deb32fab5b64ea5847c55101907d9c25786020604051428152a26001600055005b60405162461bcd60e51b815260206004820152602360248201527f4f6e6c792073657373696f6e207061727469636970616e74732063616e207374604482015262185c9d60ea1b6064820152608490fd5b9050600283015416331485610b4f565b60405162461bcd60e51b8152602060048201526024808201527f53657373696f6e20616c72656164792073746172746564206f7220636f6d706c604482015263195d195960e21b6064820152608490fd5b346101d15760203660031901126101d157610c6a61212c565b610c72612193565b6001600160a01b03168015610c9e576bffffffffffffffffffffffff60a01b6004541617600455600080f35b60405162461bcd60e51b8152602060048201526016602482015275496e76616c69642077616c6c6574206164647265737360501b6044820152606490fd5b346101d15760203660031901126101d157600435610cf861228d565b600081815260026020526040902060018101546001600160a01b03908116610d218115156122b0565b600b83019182549160ff831660058110156104ec57600203610e0f573314908115610dff575b5015610dae576001906008840193610d6f6009610d65875442612336565b9201918254612343565b905562ff00ff19161790554290557f3dd443712f1bb154053901f56ef4a45320caeee475fc1b8f448abb8a5abd7ec16020604051428152a26001600055005b60405162461bcd60e51b8152602060048201526024808201527f4f6e6c792073657373696f6e207061727469636970616e74732063616e20726560448201526373756d6560e01b6064820152608490fd5b9050600284015416331485610d47565b60405162461bcd60e51b815260206004820152601260248201527114d95cdcda5bdb881b9bdd081c185d5cd95960721b6044820152606490fd5b346101d15760203660031901126101d15760206107d0600435612418565b346101d15760003660031901126101d15760015460405160089190911c6001600160a01b03168152602090f35b346101d15760003660031901126101d157610ead612193565b610eb561226f565b600160ff19815416176001557f62e78cea01bee320cd4e420270b5ea74000d11b0c9f74754ebdbfc544b05a2586020604051338152a1005b346101d15760203660031901126101d15760043560005260026020526101e0604060002060ff81549160018060a01b03908160018201541691806002830154169060038301541660048301546005840154600685015490600786015492600887015494600988015496600b600a8a0154990154996040519c8d5260208d015260408c015260608b015260808a015260a089015260c088015260e0870152610100860152610120850152610140840152610fac6101608401838316612158565b818160081c161515610180840152818160101c1615156101a084015260181c1615156101c0820152f35b346101d1576020806003193601126101d157600435610ff361228d565b6000818152600283526040902060018101546001600160a01b03908116919061101d8315156122b0565b600b82019182549360ff851660058110156104ec57600161103e91146122f5565b60ff8560101c166111cd5733149182156111bc575b50600801918254601e81019081811161051857609601809111610518574211938283156111b5575b1561117b5762ff00ff19166201000217905580611173575b61116a575b5015611140576040516110aa816121df565b60118152701219585c9d1899585d081d1a5b595bdd5d607a1b83820152915b6040519042825260408183015283519384604084015260005b85811061112c57847fec452bb0b82c12deb4f139fa1dfc53d2e3606e8bf03ca6a3f007d0dd6fd53507856060818a6000838284010152601f80199101168101030190a26001600055005b8181018301518482016060015282016110e2565b60405161114c816121df565b600c81526b4d616e75616c20706175736560a01b83820152916110c9565b42905583611098565b508115611093565b60405162461bcd60e51b8152600481018890526012602482015271556e617574686f72697a656420706175736560701b6044820152606490fd5b508461107b565b600282015416331491506008611053565b60405162461bcd60e51b815260048101889052601660248201527514d95cdcda5bdb88185b1c9958591e481c185d5cd95960521b6044820152606490fd5b346101d15760803660031901126101d157600435611227612142565b60443560643567ffffffffffffffff81116101d15761124a903690600401612165565b929091611255612193565b61125d61228d565b600085815260026020526040902060018101546001600160a01b0395919061128890871615156122b0565b858416156113685760048101549360058201906112a782548097612336565b8511611323577f482a5548da3675089cf6763340cbd789090e2187c64b37c814c5340111636c479760036112ed9487946112e38660609b612343565b9055015416612350565b80604051948593845260406020850152816040850152848401376000828201840152601f01601f19168101030190a26001600055005b60405162461bcd60e51b815260206004820152601860248201527f416d6f756e74206578636565647320617661696c61626c6500000000000000006044820152606490fd5b60405162461bcd60e51b8152602060048201526011602482015270125b9d985b1a59081c9958da5c1a595b9d607a1b6044820152606490fd5b346101d15760203660031901126101d1576113ba61212c565b6113c2612193565b6001600160a01b03166000908152600360205260409020805460ff19169055005b346101d15760003660031901126101d1576113fc612193565b60018054610100600160a81b0319811690915560009060081c6001600160a01b03167f8be0079c531659141344cd1fd0a4f28419497f9722a3daafe3b4186f6b6457e08280a3005b346101d15760203660031901126101d15761145d61212c565b611465612193565b6001600160a01b0316801561148f576000908152600360205260409020805460ff19166001179055005b60405162461bcd60e51b8152602060048201526015602482015274496e76616c696420746f6b656e206164647265737360581b6044820152606490fd5b346101d15760203660031901126101d15760206114ea6004356126cf565b6040519015158152f35b346101d15760203660031901126101d1576001600160a01b0361151561212c565b166000526003602052602060ff604060002054166040519015158152f35b346101d15760203660031901126101d1576001600160a01b0361155461212c565b1660005260056020526020604060002054604051908152f35b346101d15760003660031901126101d157602060ff600154166040519015158152f35b346101d15760203660031901126101d15760206114ea600435612599565b346101d15760003660031901126101d1576020604051600a8152f35b346101d15760203660031901126101d1576004356115e661228d565b600081815260026020526040902060018101546001600160a01b0390811691906116118315156122b0565b600b82019182549060ff821660058110156104ec576117025784331480156116f3575b156116a2577f1d74c88fc8a136a8fb434db3561e44ecbc5b4577d1f1ea7e30d97250ead2cf2d94604094600461168f9460ff191617905560048201549360036005840193611683855488612336565b96879555015416612350565b8151908152426020820152a26001600055005b60405162461bcd60e51b8152602060048201526024808201527f4f6e6c792073657373696f6e207061727469636970616e74732063616e2063616044820152631b98d95b60e21b6064820152608490fd5b50826002820154163314611634565b60405162461bcd60e51b815260206004820152601760248201527f53657373696f6e20616c726561647920737461727465640000000000000000006044820152606490fd5b346101d15760003660031901126101d157611760612193565b60015460ff81161561179f5760ff19166001557f5db9ee0a495bf2e6ff9c91a7834c1ba4fdd244a5e8aa4e537bd38aeae4b073aa6020604051338152a1005b604051638dfc202b60e01b8152600490fd5b346101d15760603660031901126101d157600435602480359060443567ffffffffffffffff81116101d1576117ea903690600401612165565b50506117f461228d565b82600052600260205260406000209060018060a01b03928360018401541661181d8115156122b0565b33036119fe57600b83019081549060ff821660058110156119e957600181149081156119de575b501561199a576001811015908161198e575b501561194a5763010000039063ff00ffff19161790556004820154926005830193611882855482612336565b92600a840290848204600a14851517156119365750916118cd939160647f556195694fc082ad19415eaec58c1584ec20066f6e655be3034932c454d38a239796940494858094612336565b955584611919575b816118fc575b50506040805193845260208401929092525042908201528060608101610935565b80600361191194015416906004541690612350565b8481816118db565b61193185826003860154168360028701541690612350565b6118d5565b634e487b7160e01b60009081526011600452fd5b60405162461bcd60e51b815260206004820152601e818501527f526174696e67206d757374206265206265747765656e203120616e64203500006044820152606490fd5b60059150111587611856565b60405162461bcd60e51b8152602060048201819052818601527f53657373696f6e206e6f7420726561647920666f7220636f6d706c6574696f6e6044820152606490fd5b600291501488611844565b84634e487b7160e01b60005260216004526000fd5b60405162461bcd60e51b8152602060048201526021818401527f4f6e6c792073747564656e742063616e20636f6d706c6574652073657373696f6044820152603760f91b6064820152608490fd5b346101d15760203660031901126101d15760006101c0604051611a6e816121c2565b8281528260208201528260408201528260608201528260808201528260a08201528260c08201528260e08201528261010082015282610120820152826101408201528261016082015282610180820152826101a0820152015260043560005260026020526101e0604060002060ff600b60405192611aeb846121c2565b8054845260018101546001600160a01b039081166020860152600282015481166040860152600382015416606085015260048101546080850152600581015460a0850152600681015460c0850152600781015460e085015260088101546101008501526009810154610120850152600a8101546101408501520154611b7682821661016085016121fb565b818160081c161515610180840152818160101c1615156101a084015260181c1615156101c08201526101c0604051918051835260018060a01b03602082015116602084015260018060a01b03604082015116604084015260018060a01b0360608201511660608401526080810151608084015260a081015160a084015260c081015160c084015260e081015160e0840152610100810151610100840152610120810151610120840152610140810151610140840152611c3f610160820151610160850190612158565b61018081015115156101808401526101a081015115156101a0840152015115156101c0820152f35b346101d15760003660031901126101d157602060405160b48152f35b346101d15760003660031901126101d1576020604051601e8152f35b346101d15760203660031901126101d157600435611cbb61228d565b600081815260026020526040902060018101546001600160a01b039190611ce590831615156122b0565b600b8101805460ff811660058110156104ec5760018114908115611e23575b5015611dcd57600a83015462093a808101809111610518574210611d885760039061ffff19161790556004810154916005820191611d43835485612336565b600a810292818404600a1482151715610518577f556195694fc082ad19415eaec58c1584ec20066f6e655be3034932c454d38a239560646118cd950494858094612336565b60405162461bcd60e51b815260206004820152601e60248201527f4175746f2d72656c656173652064656c6179206e6f74207265616368656400006044820152606490fd5b60405162461bcd60e51b815260206004820152602860248201527f53657373696f6e206e6f7420656c696769626c6520666f72206175746f2d636f60448201526736b83632ba34b7b760c11b6064820152608490fd5b600291501486611d04565b346101d15760203660031901126101d1576004356000526006602052602060ff604060002054166040519015158152f35b346101d15760603660031901126101d15760206107d06044356024356004356123a2565b346101d15760003660031901126101d157602060405162093a808152f35b346101d1576020806003193601126101d157600435611ebe61228d565b6000818152600283526040902060018101546001600160a01b03939190841690611ee98215156122b0565b600b8101549160ff831660058110156104ec576001611f0891146122f5565b3314801561211d575b156120c1574260089091015560101c60ff16611f58575b7f3cf0bf7708060bf073b6ddb921eef0485b3eb9da828e0ed751fa6582ef337f5790604051428152a26001600055005b611f6061228d565b816000526002815260406000208360018201541693611f808515156122b0565b600b82019081549560ff871660058110156104ec57600203612087573314908115612077575b50156120265760017f3cf0bf7708060bf073b6ddb921eef0485b3eb9da828e0ed751fa6582ef337f5794956008840193611fe66009610d65875442612336565b905562ff00ff1916179055429055827f3dd443712f1bb154053901f56ef4a45320caeee475fc1b8f448abb8a5abd7ec182604051428152a2829150611f28565b60405162461bcd60e51b8152600481018490526024808201527f4f6e6c792073657373696f6e207061727469636970616e74732063616e20726560448201526373756d6560e01b6064820152608490fd5b9050600283015416331486611fa6565b60405162461bcd60e51b815260048101869052601260248201527114d95cdcda5bdb881b9bdd081c185d5cd95960721b6044820152606490fd5b60405162461bcd60e51b815260048101849052602e60248201527f4f6e6c792073657373696f6e207061727469636970616e74732063616e20757060448201526d19185d19481a19585c9d1899585d60921b6064820152608490fd5b50846002820154163314611f11565b600435906001600160a01b03821682036101d157565b602435906001600160a01b03821682036101d157565b9060058210156104ec5752565b9181601f840112156101d15782359167ffffffffffffffff83116101d157602083818601950101116101d157565b60015460081c6001600160a01b031633036121aa57565b60405163118cdaa760e01b8152336004820152602490fd5b6101e0810190811067ffffffffffffffff82111761050257604052565b6040810190811067ffffffffffffffff82111761050257604052565b60058210156104ec5752565b906000602091828151910182855af115612263576000513d61225a57506001600160a01b0381163b155b6122385750565b604051635274afe760e01b81526001600160a01b039091166004820152602490fd5b60011415612231565b6040513d6000823e3d90fd5b60ff6001541661227b57565b60405163d93c066560e01b8152600490fd5b60026000541461229e576002600055565b604051633ee5aeb560e01b8152600490fd5b156122b757565b60405162461bcd60e51b815260206004820152601660248201527514d95cdcda5bdb88191bd95cc81b9bdd08195e1a5cdd60521b6044820152606490fd5b156122fc57565b60405162461bcd60e51b815260206004820152601260248201527153657373696f6e206e6f742061637469766560701b6044820152606490fd5b9190820391821161051857565b9190820180921161051857565b60405163a9059cbb60e01b60208201526001600160a01b039092166024830152604480830193909352918152608081019167ffffffffffffffff831182841017610502576123a092604052612207565b565b91909182158015612410575b61240857605a810290808204605a14901517156105185760649004918083029083820414831517156105185781156123f25704908082116123ed575090565b905090565b634e487b7160e01b600052601260045260246000fd5b505050600090565b5081156123ae565b6000526002602052604060002060405190612432826121c2565b8054825260018060a01b03806001830154166020840152806002830154166040840152600382015416606083015260048101546080830152600581015460a0830152600681015460c0830152600781015460e083019081526008820154906101008401918252600b6009840154936101208601948552600a8101546101408701520154936124c760ff861661016083016121fb565b60ff8560081c1615156101808201526101c060ff6101a0830196818160101c161515885260181c16151591015280511561255e57612506905142612336565b91519251151580612554575b612537575b508181111561253057603c9161252c91612336565b0490565b5050600090565b9161254761254d92935142612336565b90612343565b9038612517565b5080511515612512565b60405162461bcd60e51b815260206004820152601360248201527214d95cdcda5bdb881b9bdd081cdd185c9d1959606a1b6044820152606490fd5b60009081526002602052604081206040516125b3816121c2565b8154815260018060a01b03806001840154166020830152806002840154166040830152600383015416606082015260048201546080820152600582015460a0820152600682015460c0820152600782015460e0820152600b60088301549261010083019384526009810154610120840152600a8101546101408401520154906101c060ff610160830193612649828216866121fb565b818160081c161515610180850152818160101c1615156101a085015260181c1615159101525160058110156126bb576001148015906126b2575b6126ae575190601e820180921161269a5750421190565b634e487b7160e01b81526011600452602490fd5b5090565b50805115612683565b634e487b7160e01b83526021600452602483fd5b60009081526002602052604081206040516126e9816121c2565b8154815260018201546001600160a01b039081166020830152600283015481166040830152600383015416606082015260048201546080820152600582015460a0820152600682015460c0820152600782015460e0820152600882015461010082019081526009830154610120830152600a830154610140830152600b909201549061016081019061277e60ff8416836121fb565b60ff8360081c1615156101808201526101c060ff6101a0830194818160101c161515865260181c1615159101525160058110156128135760011490811591612808575b5080156127ff575b6126ae575190601e8201918281116127eb5760960180921161269a5750421190565b634e487b7160e01b82526011600452602482fd5b508051156127c9565b9050511515386127c1565b634e487b7160e01b84526021600452602484fd5b6000908082526002602052604082209060405191612844836121c2565b8054835260018060a01b03806001830154166020850152806002830154166040850152600382015416606084015260048101546080840190815260058201549360a0810194855260068301549260c08201938452600b60078201549160e0840192835260088101546101008501526009810154610120850152600a8101546101408501520154916101608101906128de60ff8516836121fb565b60ff8460081c1615156101808201526101c060ff6101a0830195818160101c161515875260181c16151591015251600581101561297d5760011491821592612972575b508115612968575b506129615761293a61294493612418565b90519151916123a2565b9051908181111561295c576129599250612336565b90565b505090565b5050505090565b9050511538612929565b511515915038612921565b634e487b7160e01b88526021600452602488fdfea164736f6c6343000814000a",
  "linkReferences": {},
  "deployedLinkReferences": {}
}