{
  "_format": "hh-sol-artifact-1",
  "contractName": "ProgressiveEscrowV3",
  "sourceName": "contracts/ProgressiveEscrowV3.sol",
  "abi": [
    {
      "inputs": [
        {
          "internalType": "address",
          "name": "_platformWallet",
          "type": "address"
        }
      ],
      "stateMutability": "nonpayable",
      "type": "constructor"
    },
    {
      "inputs": [],
      "name": "EnforcedPause",
      "type": "error"
    },
    {
      "inputs": [],
      "name": "ExpectedPause",
      "type": "error"
    },
    {
      "inputs": [
        {
          "internalType": "address",
          "name": "owner",
          "type": "address"
        }
      ],
      "name": "OwnableInvalidOwner",
      "type": "error"
    },
    {
      "inputs": [
        {
          "internalType": "address",
          "name": "account",
          "type": "address"
        }
      ],
      "name": "OwnableUnauthorizedAccount",
      "type": "error"
    },
    {
      "inputs": [],
      "name": "ReentrancyGuardReentrantCall",
      "type": "error"
    },
    {
      "inputs": [
        {
          "internalType": "address",
          "name": "token",
          "type": "address"
        }
      ],
      "name": "SafeERC20FailedOperation",
      "type": "error"
    },
    {
      "anonymous": false,
      "inputs": [
        {
          "indexed": true,
          "internalType": "bytes32",
          "name": "sessionId",
          "type": "bytes32"
        },
        {
          "indexed": false,
          "internalType": "uint256",
          "name": "amount",
          "type": "uint256"
        },
        {
          "indexed": false,
          "internalType": "string",
          "name": "reason",
          "type": "string"
        }
      ],
      "name": "EmergencyRelease",
      "type": "event"
    },
    {
      "anonymous": false,
      "inputs": [
        {
          "indexed": true,
          "internalType": "bytes32",
          "name": "sessionId",
          "type": "bytes32"
        },
        {
          "indexed": false,
          "internalType": "uint256",
          "name": "timestamp",
          "type": "uint256"
        }
      ],
      "name": "HeartbeatReceived",
      "type": "event"
    },
    {
      "anonymous": false,
      "inputs": [
        {
          "indexed": true,
          "internalType": "address",
          "name": "previousOwner",
          "type": "address"
        },
        {
          "indexed": true,
          "internalType": "address",
          "name": "newOwner",
          "type": "address"
        }
      ],
      "name": "OwnershipTransferred",
      "type": "event"
    },
    {
      "anonymous": false,
      "inputs": [
        {
          "indexed": false,
          "internalType": "address",
          "name": "account",
          "type": "address"
        }
      ],
      "name": "Paused",
      "type": "event"
    },
    {
      "anonymous": false,
      "inputs": [
        {
          "indexed": true,
          "internalType": "bytes32",
          "name": "sessionId",
          "type": "bytes32"
        },
        {
          "indexed": false,
          "internalType": "uint256",
          "name": "releasedAmount",
          "type": "uint256"
        },
        {
          "indexed": false,
          "internalType": "uint256",
          "name": "totalReleased",
          "type": "uint256"
        },
        {
          "indexed": false,
          "internalType": "uint256",
          "name": "timestamp",
          "type": "uint256"
        }
      ],
      "name": "ProgressivePaymentReleased",
      "type": "event"
    },
    {
      "anonymous": false,
      "inputs": [
        {
          "indexed": true,
          "internalType": "bytes32",
          "name": "sessionId",
          "type": "bytes32"
        },
        {
          "indexed": false,
          "internalType": "uint256",
          "name": "refundAmount",
          "type": "uint256"
        },
        {
          "indexed": false,
          "internalType": "uint256",
          "name": "timestamp",
          "type": "uint256"
        }
      ],
      "name": "SessionCancelled",
      "type": "event"
    },
    {
      "anonymous": false,
      "inputs": [
        {
          "indexed": true,
          "internalType": "bytes32",
          "name": "sessionId",
          "type": "bytes32"
        },
        {
          "indexed": false,
          "internalType": "uint256",
          "name": "finalAmount",
          "type": "uint256"
        },
        {
          "indexed": false,
          "internalType": "uint256",
          "name": "platformFee",
          "type": "uint256"
        },
        {
          "indexed": false,
          "internalType": "uint256",
          "name": "timestamp",
          "type": "uint256"
        }
      ],
      "name": "SessionCompleted",
      "type": "event"
    },
    {
      "anonymous": false,
      "inputs": [
        {
          "indexed": true,
          "internalType": "bytes32",
          "name": "sessionId",
          "type": "bytes32"
        },
        {
          "indexed": true,
          "internalType": "address",
          "name": "student",
          "type": "address"
        },
        {
          "indexed": true,
          "internalType": "address",
          "name": "mentor",
          "type": "address"
        },
        {
          "indexed": false,
          "internalType": "uint256",
          "name": "amount",
          "type": "uint256"
        },
        {
          "indexed": false,
          "internalType": "address",
          "name": "token",
          "type": "address"
        }
      ],
      "name": "SessionCreated",
      "type": "event"
    },
    {
      "anonymous": false,
      "inputs": [
        {
          "indexed": true,
          "internalType": "bytes32",
          "name": "sessionId",
          "type": "bytes32"
        },
        {
          "indexed": false,
          "internalType": "uint256",
          "name": "timestamp",
          "type": "uint256"
        },
        {
          "indexed": false,
          "internalType": "string",
          "name": "reason",
          "type": "string"
        }
      ],
      "name": "SessionPaused",
      "type": "event"
    },
    {
      "anonymous": false,
      "inputs": [
        {
          "indexed": true,
          "internalType": "bytes32",
          "name": "sessionId",
          "type": "bytes32"
        },
        {
          "indexed": false,
          "internalType": "uint256",
          "name": "timestamp",
          "type": "uint256"
        }
      ],
      "name": "SessionResumed",
      "type": "event"
    },
    {
      "anonymous": false,
      "inputs": [
        {
          "indexed": true,
          "internalType": "bytes32",
          "name": "sessionId",
          "type": "bytes32"
        },
        {
          "indexed": false,
          "internalType": "uint256",
          "name": "timestamp",
          "type": "uint256"
        }
      ],
      "name": "SessionStarted",
      "type": "event"
    },
    {
      "anonymous": false,
      "inputs": [
        {
          "indexed": false,
          "internalType": "address",
          "name": "account",
          "type": "address"
        }
      ],
      "name": "Unpaused",
      "type": "event"
    },
    {
      "inputs": [],
      "name": "AUTO_RELEASE_DELAY",
      "outputs": [
        {
          "internalType": "uint256",
          "name": "",
          "type": "uint256"
        }
      ],
      "stateMutability": "view",
      "type": "function"
    },
    {
      "inputs": [],
      "name": "GRACE_PERIOD",
      "outputs": [
        {
          "internalType": "uint256",
          "name": "",
          "type": "uint256"
        }
      ],
      "stateMutability": "view",
      "type": "function"
    },
    {
      "inputs": [],
      "name": "HEARTBEAT_INTERVAL",
      "outputs": [
        {
          "internalType": "uint256",
          "name": "",
          "type": "uint256"
        }
      ],
      "stateMutability": "view",
      "type": "function"
    },
    {
      "inputs": [],
      "name": "PLATFORM_FEE_PERCENT",
      "outputs": [
        {
          "internalType": "uint256",
          "name": "",
          "type": "uint256"
        }
      ],
      "stateMutability": "view",
      "type": "function"
    },
    {
      "inputs": [],
      "name": "PROGRESSIVE_RELEASE_INTERVAL",
      "outputs": [
        {
          "internalType": "uint256",
          "name": "",
          "type": "uint256"
        }
      ],
      "stateMutability": "view",
      "type": "function"
    },
    {
      "inputs": [
        {
          "internalType": "address",
          "name": "token",
          "type": "address"
        }
      ],
      "name": "addSupportedToken",
      "outputs": [],
      "stateMutability": "nonpayable",
      "type": "function"
    },
    {
      "inputs": [
        {
          "internalType": "bytes32",
          "name": "sessionId",
          "type": "bytes32"
        }
      ],
      "name": "autoCompleteSession",
      "outputs": [],
      "stateMutability": "nonpayable",
      "type": "function"
    },
    {
      "inputs": [
        {
          "internalType": "uint256",
          "name": "totalAmount",
          "type": "uint256"
        },
        {
          "internalType": "uint256",
          "name": "elapsedMinutes",
          "type": "uint256"
        },
        {
          "internalType": "uint256",
          "name": "durationMinutes",
          "type": "uint256"
        }
      ],
      "name": "calculateMaxRelease",
      "outputs": [
        {
          "internalType": "uint256",
          "name": "",
          "type": "uint256"
        }
      ],
      "stateMutability": "pure",
      "type": "function"
    },
    {
      "inputs": [
        {
          "internalType": "bytes32",
          "name": "sessionId",
          "type": "bytes32"
        }
      ],
      "name": "cancelSession",
      "outputs": [],
      "stateMutability": "nonpayable",
      "type": "function"
    },
    {
      "inputs": [
        {
          "internalType": "bytes32",
          "name": "sessionId",
          "type": "bytes32"
        },
        {
          "internalType": "uint256",
          "name": "rating",
          "type": "uint256"
        },
        {
          "internalType": "string",
          "name": "feedback",
          "type": "string"
        }
      ],
      "name": "completeSession",
      "outputs": [],
      "stateMutability": "nonpayable",
      "type": "function"
    },
    {
      "inputs": [
        {
          "internalType": "bytes32",
          "name": "sessionId",
          "type": "bytes32"
        },
        {
          "internalType": "address",
          "name": "mentor",
          "type": "address"
        },
        {
          "internalType": "address",
          "name": "paymentToken",
          "type": "address"
        },
        {
          "internalType": "uint256",
          "name": "amount",
          "type": "uint256"
        },
        {
          "internalType": "uint256",
          "name": "durationMinutes",
          "type": "uint256"
        },
        {
          "internalType": "uint256",
          "name": "nonce",
          "type": "uint256"
        }
      ],
      "name": "createProgressiveSession",
      "outputs": [],
      "stateMutability": "nonpayable",
      "type": "function"
    },
    {
      "inputs": [
        {
          "internalType": "bytes32",
          "name": "sessionId",
          "type": "bytes32"
        },
        {
          "internalType": "address",
          "name": "recipient",
          "type": "address"
        },
        {
          "internalType": "uint256",
          "name": "amount",
          "type": "uint256"
        },
        {
          "internalType": "string",
          "name": "reason",
          "type": "string"
        }
      ],
      "name": "emergencyRelease",
      "outputs": [],
      "stateMutability": "nonpayable",
      "type": "function"
    },
    {
      "inputs": [
        {
          "internalType": "bytes32",
          "name": "sessionId",
          "type": "bytes32"
        }
      ],
      "name": "getAvailablePayment",
      "outputs": [
        {
          "internalType": "uint256",
          "name": "",
          "type": "uint256"
        }
      ],
      "stateMutability": "view",
      "type": "function"
    },
    {
      "inputs": [
        {
          "internalType": "bytes32",
          "name": "sessionId",
          "type": "bytes32"
        }
      ],
      "name": "getEffectiveElapsedTime",
      "outputs": [
        {
          "internalType": "uint256",
          "name": "",
          "type": "uint256"
        }
      ],
      "stateMutability": "view",
      "type": "function"
    },
    {
      "inputs": [
        {
          "internalType": "bytes32",
          "name": "sessionId",
          "type": "bytes32"
        }
      ],
      "name": "getSession",
      "outputs": [
        {
          "components": [
            {
              "internalType": "bytes32",
              "name": "sessionId",
              "type": "bytes32"
            },
            {
              "internalType": "address",
              "name": "student",
              "type": "address"
            },
            {
              "internalType": "address",
              "name": "mentor",
              "type": "address"
            },
            {
              "internalType": "address",
              "name": "paymentToken",
              "type": "address"
            },
            {
              "internalType": "uint256",
              "name": "totalAmount",
              "type": "uint256"
            },
            {
              "internalType": "uint256",
              "name": "releasedAmount",
              "type": "uint256"
            },
            {
              "internalType": "uint256",
              "name": "sessionDuration",
              "type": "uint256"
            },
            {
              "internalType": "uint256",
              "name": "startTime",
              "type": "uint256"
            },
            {
              "internalType": "uint256",
              "name": "lastHeartbeat",
              "type": "uint256"
            },
            {
              "internalType": "uint256",
              "name": "pausedTime",
              "type": "uint256"
            },
            {
              "internalType": "uint256",
              "name": "createdAt",
              "type": "uint256"
            },
            {
              "internalType": "enum ProgressiveEscrowV3.SessionStatus",
              "name": "status",
              "type": "uint8"
            },
            {
              "internalType": "bool",
              "name": "isActive",
              "type": "bool"
            },
            {
              "internalType": "bool",
              "name": "isPaused",
              "type": "bool"
            },
            {
              "internalType": "bool",
              "name": "surveyCompleted",
              "type": "bool"
            }
          ],
          "internalType": "struct ProgressiveEscrowV3.ProgressiveSession",
          "name": "",
          "type": "tuple"
        }
      ],
      "stateMutability": "view",
      "type": "function"
    },
    {
      "inputs": [
        {
          "internalType": "address",
          "name": "user",
          "type": "address"
        }
      ],
      "name": "getUserNonce",
      "outputs": [
        {
          "internalType": "uint256",
          "name": "",
          "type": "uint256"
        }
      ],
      "stateMutability": "view",
      "type": "function"
    },
    {
      "inputs": [
        {
          "internalType": "bytes32",
          "name": "sessionId",
          "type": "bytes32"
        }
      ],
      "name": "needsHeartbeat",
      "outputs": [
        {
          "internalType": "bool",
          "name": "",
          "type": "bool"
        }
      ],
      "stateMutability": "view",
      "type": "function"
    },
    {
      "inputs": [],
      "name": "owner",
      "outputs": [
        {
          "internalType": "address",
          "name": "",
          "type": "address"
        }
      ],
      "stateMutability": "view",
      "type": "function"
    },
    {
      "inputs": [],
      "name": "pause",
      "outputs": [],
      "stateMutability": "nonpayable",
      "type": "function"
    },
    {
      "inputs": [
        {
          "internalType": "bytes32",
          "name": "sessionId",
          "type": "bytes32"
        }
      ],
      "name": "pauseSession",
      "outputs": [],
      "stateMutability": "nonpayable",
      "type": "function"
    },
    {
      "inputs": [],
      "name": "paused",
      "outputs": [
        {
          "internalType": "bool",
          "name": "",
          "type": "bool"
        }
      ],
      "stateMutability": "view",
      "type": "function"
    },
    {
      "inputs": [],
      "name": "platformWallet",
      "outputs": [
        {
          "internalType": "address",
          "name": "",
          "type": "address"
        }
      ],
      "stateMutability": "view",
      "type": "function"
    },
    {
      "inputs": [
        {
          "internalType": "bytes32",
          "name": "sessionId",
          "type": "bytes32"
        }
      ],
      "name": "releaseProgressivePayment",
      "outputs": [],
      "stateMutability": "nonpayable",
      "type": "function"
    },
    {
      "inputs": [
        {
          "internalType": "address",
          "name": "token",
          "type": "address"
        }
      ],
      "name": "removeSupportedToken",
      "outputs": [],
      "stateMutability": "nonpayable",
      "type": "function"
    },
    {
      "inputs": [],
      "name": "renounceOwnership",
      "outputs": [],
      "stateMutability": "nonpayable",
      "type": "function"
    },
    {
      "inputs": [
        {
          "internalType": "bytes32",
          "name": "sessionId",
          "type": "bytes32"
        }
      ],
      "name": "resumeSession",
      "outputs": [],
      "stateMutability": "nonpayable",
      "type": "function"
    },
    {
      "inputs": [
        {
          "internalType": "bytes32",
          "name": "",
          "type": "bytes32"
        }
      ],
      "name": "sessions",
      "outputs": [
        {
          "internalType": "bytes32",
          "name": "sessionId",
          "type": "bytes32"
        },
        {
          "internalType": "address",
          "name": "student",
          "type": "address"
        },
        {
          "internalType": "address",
          "name": "mentor",
          "type": "address"
        },
        {
          "internalType": "address",
          "name": "paymentToken",
          "type": "address"
        },
        {
          "internalType": "uint256",
          "name": "totalAmount",
          "type": "uint256"
        },
        {
          "internalType": "uint256",
          "name": "releasedAmount",
          "type": "uint256"
        },
        {
          "internalType": "uint256",
          "name": "sessionDuration",
          "type": "uint256"
        },
        {
          "internalType": "uint256",
          "name": "startTime",
          "type": "uint256"
        },
        {
          "internalType": "uint256",
          "name": "lastHeartbeat",
          "type": "uint256"
        },
        {
          "internalType": "uint256",
          "name": "pausedTime",
          "type": "uint256"
        },
        {
          "internalType": "uint256",
          "name": "createdAt",
          "type": "uint256"
        },
        {
          "internalType": "enum ProgressiveEscrowV3.SessionStatus",
          "name": "status",
          "type": "uint8"
        },
        {
          "internalType": "bool",
          "name": "isActive",
          "type": "bool"
        },
        {
          "internalType": "bool",
          "name": "isPaused",
          "type": "bool"
        },
        {
          "internalType": "bool",
          "name": "surveyCompleted",
          "type": "bool"
        }
      ],
      "stateMutability": "view",
      "type": "function"
    },
    {
      "inputs": [
        {
          "internalType": "bytes32",
          "name": "sessionId",
          "type": "bytes32"
        }
      ],
      "name": "shouldAutoPause",
      "outputs": [
        {
          "internalType": "bool",
          "name": "",
          "type": "bool"
        }
      ],
      "stateMutability": "view",
      "type": "function"
    },
    {
      "inputs": [
        {
          "internalType": "bytes32",
          "name": "sessionId",
          "type": "bytes32"
        }
      ],
      "name": "startProgressiveSession",
      "outputs": [],
      "stateMutability": "nonpayable",
      "type": "function"
    },
    {
      "inputs": [
        {
          "internalType": "address",
          "name": "",
          "type": "address"
        }
      ],
      "name": "supportedTokens",
      "outputs": [
        {
          "internalType": "bool",
          "name": "",
          "type": "bool"
        }
      ],
      "stateMutability": "view",
      "type": "function"
    },
    {
      "inputs": [
        {
          "internalType": "address",
          "name": "newOwner",
          "type": "address"
        }
      ],
      "name": "transferOwnership",
      "outputs": [],
      "stateMutability": "nonpayable",
      "type": "function"
    },
    {
      "inputs": [],
      "name": "unpause",
      "outputs": [],
      "stateMutability": "nonpayable",
      "type": "function"
    },
    {
      "inputs": [
        {
          "internalType": "bytes32",
          "name": "sessionId",
          "type": "bytes32"
        }
      ],
      "name": "updateHeartbeat",
      "outputs": [],
      "stateMutability": "nonpayable",
      "type": "function"
    },
    {
      "inputs": [
        {
          "internalType": "address",
          "name": "newWallet",
          "type": "address"
        }
      ],
      "name": "updatePlatformWallet",
      "outputs": [],
      "stateMutability": "nonpayable",
      "type": "function"
    },
    {
      "inputs": [
        {
          "internalType": "bytes32",
          "name": "",
          "type": "bytes32"
        }
      ],
      "name": "usedSessionIds",
      "outputs": [
        {
          "internalType": "bool",
          "name": "",
          "type": "bool"
        }
      ],
      "stateMutability": "view",
      "type": "function"
    },
    {
      "inputs": [
        {
          "internalType": "address",
          "name": "",
          "type": "address"
        }
      ],
      "name": "userNonces",
      "outputs": [
        {
          "internalType": "uint256",
          "name": "",
          "type": "uint256"
        }
      ],
      "stateMutability": "view",
      "type": "function"
    }
  ],
  "bytecode": "0x60803461013a57601f612a3438819003918201601f19168301916001600160401b0383118484101761013f5780849260209460405283398101031261013a57516001600160a01b0381169081900361013a57600160005533156101245760018054610100600160a81b0319811633600881811b610100600160a81b0316929092179093556040519291901c6001600160a01b03167f8be0079c531659141344cd1fd0a4f28419497f9722a3daafe3b4186f6b6457e0600080a381156100e25750600480546001600160a01b0319169190911790556040516128de90816101568239f35b62461bcd60e51b815260206004820152601760248201527f496e76616c696420706c6174666f726d2077616c6c65740000000000000000006044820152606490fd5b631e4fbdf760e01b600052600060045260246000fd5b600080fd5b634e487b7160e01b600052604160045260246000fdfe6080604052600436101561001257600080fd5b60003560e01c806302ceb40614611e9f57806309499aa614611e815780631ac6af0314611e5d5780631c8b14a014611e2c5780632b8a5f3b14611ce25780632f7801f41461156757806334d1c8fe14611cc6578063363ec29814611caa57806339b240bd14611a755780633a17ba64146117f45780633f4ba83a1461178b5780634d213982146115fe578063560d52d4146115e2578063590a2cc1146115c45780635c975abb146115a15780636834e3a81461156757806368c4ac26146115285780636baae9cc146115005780636d69fcaf14611478578063715018a61461141757806376319190146113d557806379d55e771461123c5780637ac1b46914610ff85780637dbd283214610f055780638456cb5914610eac5780638da5cb5b14610e7f578063962db93b14610e6157806399173d6b14610cef578063ada4ef3014610c6b578063b817be4c14610af4578063c1a287e214610ad8578063ccb868dd146107d8578063e906826c146107b2578063f2fde38b14610715578063f400272b146101d65763fa2af9da146101a857600080fd5b346101d15760003660031901126101d1576004546040516001600160a01b039091168152602090f35b600080fd5b346101d15760c03660031901126101d1576004356101f26120a8565b906044356001600160a01b03811691908290036101d15760643591608435936102196127bd565b61022161284d565b6001600160a01b03169384156106d7573385146106995781600052600360205260ff60406000205416156106585783156106135780156105ce576000838152600260205260409020600101546001600160a01b03166105905733600052600560205260406000205460a4350361055b5782600052600660205260ff6040600020541661051c57336000526005602052604060002080546000198114610506576001019055826000526006602052604060002060ff1981541660011790556040516323b872dd60e01b60208201523360248201523060448201528460648201526064815261030f608482612242565b610319908361286a565b826040516103268161220f565b818152602081019033825260408101908882526060810194868652608082019089825260a08301906000825260c0840190815260e0840160008152610100850191600083526101208601936000855261014087019542875261016088019b60008d5261018089019960008b526101a08a019b60008d526101c08b019d60008f52600052600260205260406000209a518b55600160a01b6001900390511660018b0190600160a01b6001900316600160a01b6001900319825416179055600160a01b6001900390511660028a0190600160a01b6001900316600160a01b6001900319825416179055600160a01b600190039051166003890190600160a01b6001900316600160a01b600190031982541617905551600488015551600587015551600686015551600785015551600884015551600983015551600a820155600b01935160058110156104f057845491519251935163ffffffff1990921660ff919091161791151560081b61ff00169190911791151560101b62ff0000169190911790151560181b63ff0000001617905560408051938452602084019190915233927fa5d7a3cf3954591f1af3cd96f79210169bbaf7e3b3a3e60de11886bc773649e09190a46001600055005b634e487b7160e01b600052602160045260246000fd5b634e487b7160e01b600052601160045260246000fd5b60405162461bcd60e51b815260206004820152601760248201527614d95cdcda5bdb88125108185b1c9958591e481d5cd959604a1b6044820152606490fd5b60405162461bcd60e51b815260206004820152600d60248201526c496e76616c6964206e6f6e636560981b6044820152606490fd5b60405162461bcd60e51b815260206004820152601660248201527553657373696f6e20616c72656164792065786973747360501b6044820152606490fd5b60405162461bcd60e51b815260206004820152601f60248201527f4475726174696f6e206d7573742062652067726561746572207468616e2030006044820152606490fd5b60405162461bcd60e51b815260206004820152601d60248201527f416d6f756e74206d7573742062652067726561746572207468616e20300000006044820152606490fd5b60405162461bcd60e51b81526020600482015260196024820152782ab739bab83837b93a32b2103830bcb6b2b73a103a37b5b2b760391b6044820152606490fd5b60405162461bcd60e51b815260206004820152601660248201527521b0b73737ba1036b2b73a37b9103cb7bab939b2b63360511b6044820152606490fd5b60405162461bcd60e51b8152602060048201526016602482015275496e76616c6964206d656e746f72206164647265737360501b6044820152606490fd5b346101d15760203660031901126101d15761072e612092565b610736612821565b6001600160a01b03811690811561079c5760018054610100600160a81b03198116600893841b610100600160a81b031617909155901c6001600160a01b03167f8be0079c531659141344cd1fd0a4f28419497f9722a3daafe3b4186f6b6457e0600080a3005b631e4fbdf760e01b600052600060045260246000fd5b346101d15760203660031901126101d15760206107d0600435612668565b604051908152f35b346101d15760203660031901126101d1576004356107f46127bd565b600081815260026020526040902060018101546001600160a01b031661081b8115156120f9565b600b82015460ff811660058110156104f0576001610839911461213e565b60ff8160081c169081610ac9575b5015610a8e57600782015415610a495733148015610a33575b156109d85761086e826124e2565b6108836004830154916006840154908361217f565b91600581019081549384811115610994578461089e91612202565b92605a810290808204605a1490151715610506576064859104806108c286846121f5565b11610981575b50508215610944578261091f91610900827ff2446e1f418253f1b6b8f9b8ebf603fd78b61d59024e68b0d687d1ecc22b8a40976121f5565b845560038101546002909101546001600160a01b0390811691166127df565b54604080519283526020830191909152429082015280606081015b0390a26001600055005b60405162461bcd60e51b81526020600482015260156024820152744e6f207061796d656e7420746f2072656c6561736560581b6044820152606490fd5b61098c929450612202565b9183866108c8565b606460405162461bcd60e51b815260206004820152602060248201527f4e6f207061796d656e7420617661696c61626c6520666f722072656c656173656044820152fd5b60405162461bcd60e51b815260206004820152602d60248201527f4f6e6c792073657373696f6e207061727469636970616e74732063616e20726560448201526c1b19585cd9481c185e5b595b9d609a1b6064820152608490fd5b5060028101546001600160a01b03163314610860565b60405162461bcd60e51b815260206004820152601a60248201527f53657373696f6e2073746172742074696d65206e6f74207365740000000000006044820152606490fd5b60405162461bcd60e51b815260206004820152601360248201527253657373696f6e206e6f742072756e6e696e6760681b6044820152606490fd5b60ff915060101c161584610847565b346101d15760003660031901126101d157602060405160788152f35b346101d15760203660031901126101d157600435610b106127bd565b600081815260026020526040902060018101546001600160a01b031690610b388215156120f9565b600b81019160ff83541660058110156104f057610c1a5733148015610c04575b15610bb357600160ff1983541617825542600782015560084291015561010062ffff00198254161790557fd010adb8a640e9a6a134ce407a4e27deb32fab5b64ea5847c55101907d9c25786020604051428152a26001600055005b60405162461bcd60e51b815260206004820152602360248201527f4f6e6c792073657373696f6e207061727469636970616e74732063616e207374604482015262185c9d60ea1b6064820152608490fd5b5060028101546001600160a01b03163314610b58565b60405162461bcd60e51b8152602060048201526024808201527f53657373696f6e20616c72656164792073746172746564206f7220636f6d706c604482015263195d195960e21b6064820152608490fd5b346101d15760203660031901126101d157610c84612092565b610c8c612821565b6001600160a01b03168015610cb157600480546001600160a01b031916919091179055005b60405162461bcd60e51b8152602060048201526016602482015275496e76616c69642077616c6c6574206164647265737360501b6044820152606490fd5b346101d15760203660031901126101d157600435610d0b6127bd565b600081815260026020526040902060018101546001600160a01b0316610d328115156120f9565b600b82019081549060ff821660058110156104f057600203610e275733148015610e11575b15610dc0576008830192610d7b6009610d71865442612202565b92019182546121f5565b905562ff00ff1916600117905542908190556040519081527f3dd443712f1bb154053901f56ef4a45320caeee475fc1b8f448abb8a5abd7ec190602090a26001600055005b60405162461bcd60e51b8152602060048201526024808201527f4f6e6c792073657373696f6e207061727469636970616e74732063616e20726560448201526373756d6560e01b6064820152608490fd5b5060028301546001600160a01b03163314610d57565b60405162461bcd60e51b815260206004820152601260248201527114d95cdcda5bdb881b9bdd081c185d5cd95960721b6044820152606490fd5b346101d15760203660031901126101d15760206107d06004356124e2565b346101d15760003660031901126101d15760015460405160089190911c6001600160a01b03168152602090f35b346101d15760003660031901126101d157610ec5612821565b610ecd61284d565b600160ff19815416176001557f62e78cea01bee320cd4e420270b5ea74000d11b0c9f74754ebdbfc544b05a2586020604051338152a1005b346101d15760203660031901126101d15760043560005260026020526101e0604060002060ff81549160018060a01b036001820154169060018060a01b0360028201541660018060a01b0360038301541660048301546005840154600685015490600786015492600887015494600988015496600b600a8a0154990154996040519c8d5260208d015260408c015260608b015260808a015260a089015260c088015260e0870152610100860152610120850152610140840152610fce61016084018383166120be565b818160081c161515610180840152818160101c1615156101a084015260181c1615156101c0820152f35b346101d15760203660031901126101d1576004356110146127bd565b600081815260026020526040902060018101546001600160a01b03169061103c8215156120f9565b600b81019081549260ff841660058110156104f057600161105d911461213e565b60ff8460101c166111fe5733149081156111e7575b600801918254601e81019081811161050657609601809111610506574211938283156111e0575b156111a65762ff00ff1916620100021790558061119e575b611195575b506000901561116757506040516110ce604082612242565b60118152701219585c9d1899585d081d1a5b595bdd5d607a1b6020820152905b6040514281526040602082015282519283604083015260005b84811061115157837fec452bb0b82c12deb4f139fa1dfc53d2e3606e8bf03ca6a3f007d0dd6fd5350784606081896000838284010152601f80199101168101030190a26001600055005b8060208092840101516060828601015201611107565b50604051611176604082612242565b600c81526b4d616e75616c20706175736560a01b6020820152906110ee565b429055826110b6565b5081156110b1565b60405162461bcd60e51b8152602060048201526012602482015271556e617574686f72697a656420706175736560701b6044820152606490fd5b5084611099565b60028101546001600160a01b031633149150611072565b60405162461bcd60e51b815260206004820152601660248201527514d95cdcda5bdb88185b1c9958591e481c185d5cd95960521b6044820152606490fd5b346101d15760803660031901126101d1576004356112586120a8565b60443560643567ffffffffffffffff81116101d15761127b9036906004016120cb565b9091611285612821565b61128d6127bd565b8460005260026020526040600020916112b360018060a01b0360018501541615156120f9565b6001600160a01b0385161561139c57600483015460058401906112d882548092612202565b841161135c577f482a5548da3675089cf6763340cbd789090e2187c64b37c814c5340111636c4796606095611326936113128780956121f5565b9055600301546001600160a01b03166127df565b80604051948593845260406020850152816040850152848401376000828201840152601f01601f19168101030190a26001600055005b60405162461bcd60e51b8152602060048201526018602482015277416d6f756e74206578636565647320617661696c61626c6560401b6044820152606490fd5b60405162461bcd60e51b8152602060048201526011602482015270125b9d985b1a59081c9958da5c1a595b9d607a1b6044820152606490fd5b346101d15760203660031901126101d1576113ee612092565b6113f6612821565b6001600160a01b03166000908152600360205260409020805460ff19169055005b346101d15760003660031901126101d157611430612821565b60018054610100600160a81b0319811690915560009060081c6001600160a01b03167f8be0079c531659141344cd1fd0a4f28419497f9722a3daafe3b4186f6b6457e08280a3005b346101d15760203660031901126101d157611491612092565b611499612821565b6001600160a01b031680156114c3576000908152600360205260409020805460ff19166001179055005b60405162461bcd60e51b8152602060048201526015602482015274496e76616c696420746f6b656e206164647265737360581b6044820152606490fd5b346101d15760203660031901126101d157602061151e600435612382565b6040519015158152f35b346101d15760203660031901126101d1576001600160a01b03611549612092565b166000526003602052602060ff604060002054166040519015158152f35b346101d15760203660031901126101d1576001600160a01b03611588612092565b1660005260056020526020604060002054604051908152f35b346101d15760003660031901126101d157602060ff600154166040519015158152f35b346101d15760203660031901126101d157602061151e600435612270565b346101d15760003660031901126101d1576020604051600a8152f35b346101d15760203660031901126101d15760043561161a6127bd565b60008181526002602052604090206001810180546001600160a01b031691906116448315156120f9565b600b82019260ff84541660058110156104f05761174c5733148015611736575b156116e5576116d26040927f1d74c88fc8a136a8fb434db3561e44ecbc5b4577d1f1ea7e30d97250ead2cf2d94600460ff1982541617905560048101549260058201916116b2835486612202565b94909255600390910154905483916001600160a01b0391821691166127df565b8151908152426020820152a26001600055005b60405162461bcd60e51b8152602060048201526024808201527f4f6e6c792073657373696f6e207061727469636970616e74732063616e2063616044820152631b98d95b60e21b6064820152608490fd5b5060028201546001600160a01b03163314611664565b60405162461bcd60e51b815260206004820152601760248201527614d95cdcda5bdb88185b1c9958591e481cdd185c9d1959604a1b6044820152606490fd5b346101d15760003660031901126101d1576117a4612821565b60015460ff8116156117e35760ff19166001557f5db9ee0a495bf2e6ff9c91a7834c1ba4fdd244a5e8aa4e537bd38aeae4b073aa6020604051338152a1005b638dfc202b60e01b60005260046000fd5b346101d15760603660031901126101d15760043560243560443567ffffffffffffffff81116101d15761182b9036906004016120cb565b50506118356127bd565b600082815260026020526040902060018101549091906001600160a01b031661185f8115156120f9565b3303611a2657600b82019060ff82541660058110156104f05760018114908115611a1b575b50156119d757600181101590816119cb575b501561198657805463ff00ffff191663010000031790556004810154600582018054919290916118c69084612202565b90600a820293828504600a14831517156105065761190960647f556195694fc082ad19415eaec58c1584ec20066f6e655be3034932c454d38a2396048094612202565b93558261195f575b8180611938575b50506040805192835260208301919091524290820152806060810161093a565b60039091015460045461195892916001600160a01b0391821691166127df565b8481611918565b600381015460028201546119819185916001600160a01b0390811691166127df565b611911565b60405162461bcd60e51b815260206004820152601e60248201527f526174696e67206d757374206265206265747765656e203120616e64203500006044820152606490fd5b60059150111584611896565b606460405162461bcd60e51b815260206004820152602060248201527f53657373696f6e206e6f7420726561647920666f7220636f6d706c6574696f6e6044820152fd5b600291501485611884565b60405162461bcd60e51b815260206004820152602160248201527f4f6e6c792073747564656e742063616e20636f6d706c6574652073657373696f6044820152603760f91b6064820152608490fd5b346101d15760203660031901126101d157604051611a928161220f565b60008152602081016000905260408101600090526060810160009052608081016000905260a081016000905260c081016000905260e08101600090526101008101600090526101208101600090526101408101600090526101608101600090526101808101600090526101a08101600090526101c001600090526004356000526002602052604060002060405190611b298261220f565b8054825260018101546001600160a01b03908116602084019081526002830154821660408501908152600384015490921660608501908152600484015460808601908152600585015460a08701908152600686015460c08801908152600787015460e0890190815260088801546101008a0190815260098901546101208b01908152600a8a01546101408c01908152600b909a0154979a9799610160890197909691959294929190611bde60ff8d168a612264565b6101808a01998c60081c60ff1615158b526101a081019b8d60101c60ff1615158d526101c08201809e60181c60ff16151590526040519e8f92518352600160a01b600190039051166020830152600160a01b600190039051169060400152600160a01b6001900390511660608d01525160808c01525160a08b01525160c08a01525160e0890152516101008801525161012087015251610140860152516101608501611c89916120be565b5115156101808401525115156101a08301525115156101c08201526101e090f35b346101d15760003660031901126101d157602060405160b48152f35b346101d15760003660031901126101d1576020604051601e8152f35b346101d15760203660031901126101d157600435611cfe6127bd565b60008181526002602052604090206001810154611d25906001600160a01b031615156120f9565b600b810160ff81541660058110156104f05760018114908115611e21575b5015611dcb57600a82015462093a808101809111610506574210611d8657805461ffff191660031790556004810154600582018054919290916118c69084612202565b60405162461bcd60e51b815260206004820152601e60248201527f4175746f2d72656c656173652064656c6179206e6f74207265616368656400006044820152606490fd5b60405162461bcd60e51b815260206004820152602860248201527f53657373696f6e206e6f7420656c696769626c6520666f72206175746f2d636f60448201526736b83632ba34b7b760c11b6064820152608490fd5b600291501484611d43565b346101d15760203660031901126101d1576004356000526006602052602060ff604060002054166040519015158152f35b346101d15760603660031901126101d15760206107d060443560243560043561217f565b346101d15760003660031901126101d157602060405162093a808152f35b346101d15760203660031901126101d157600435611ebb6127bd565b600081815260026020526040902060018101546001600160a01b0316611ee28115156120f9565b600b8201549060ff821660058110156104f0576001611f01911461213e565b3314801561207c575b156120205760ff9160084291015560101c16611f52575b7f3cf0bf7708060bf073b6ddb921eef0485b3eb9da828e0ed751fa6582ef337f576020604051428152a26001600055005b611f5a6127bd565b600081815260026020526040902060018101546001600160a01b0316611f818115156120f9565b600b82019081549060ff821660058110156104f057600203610e27573314801561200a575b15610dc0576008830192611fc06009610d71865442612202565b905562ff00ff19166001179055429081905560405190815281907f3dd443712f1bb154053901f56ef4a45320caeee475fc1b8f448abb8a5abd7ec190602090a26001600055611f21565b5060028301546001600160a01b03163314611fa6565b60405162461bcd60e51b815260206004820152602e60248201527f4f6e6c792073657373696f6e207061727469636970616e74732063616e20757060448201526d19185d19481a19585c9d1899585d60921b6064820152608490fd5b5060028201546001600160a01b03163314611f0a565b600435906001600160a01b03821682036101d157565b602435906001600160a01b03821682036101d157565b9060058210156104f05752565b9181601f840112156101d15782359167ffffffffffffffff83116101d157602083818601950101116101d157565b1561210057565b60405162461bcd60e51b815260206004820152601660248201527514d95cdcda5bdb88191bd95cc81b9bdd08195e1a5cdd60521b6044820152606490fd5b1561214557565b60405162461bcd60e51b815260206004820152601260248201527153657373696f6e206e6f742061637469766560701b6044820152606490fd5b919091821580156121ed575b6121e557605a810290808204605a14901517156105065760649004918083029083820414831517156105065781156121cf5704908082116121ca575090565b905090565b634e487b7160e01b600052601260045260246000fd5b505050600090565b50811561218b565b9190820180921161050657565b9190820391821161050657565b6101e0810190811067ffffffffffffffff82111761222c57604052565b634e487b7160e01b600052604160045260246000fd5b90601f8019910116810190811067ffffffffffffffff82111761222c57604052565b60058210156104f05752565b600052600260205260406000206040516122898161220f565b8154815260018201546001600160a01b039081166020830152600283015481166040830152600383015416606082015260048201546080820152600582015460a0820152600682015460c0820152600782015460e0820152600882015461010082019081526009830154610120830152600a830154610140830152600b90920154610160820191906101c09060ff9061232482821686612264565b818160081c161515610180850152818160101c1615156101a085015260181c1615159101525160058110156104f057600114801590612379575b6123735751601e810180911161050657421190565b50600090565b5080511561235e565b600052600260205260406000206040519061239c8261220f565b8054825260018101546001600160a01b039081166020840152600282015481166040840152600382015416606083015260048101546080830152600581015460a0830152600681015460c0830152600781015460e0830152600881015461010083019081526009820154610120840152600a820154610140840152600b909101549161016081019061243160ff851683612264565b60ff8460081c1615156101808201526101c060ff6101a0830195818160101c161515875260181c161515910152519160058310156104f057600160009314908115916124d7575b5080156124ce575b6124ca575190601e8201918281116124b6576096018092116124a25750421190565b634e487b7160e01b81526011600452602490fd5b634e487b7160e01b82526011600452602482fd5b5090565b50805115612480565b905051151538612478565b60005260026020526040600020604051906124fc8261220f565b8054825260018101546001600160a01b039081166020840152600282015481166040840152600382015416606083015260048101546080830152600581015460a0830152600681015460c0830152600781015460e083019081526008820154610100840190815260098301546101208501908152600a840154610140860152600b909301549390919061259660ff86166101608301612264565b60ff8560081c1615156101808201526101c060ff6101a0830196818160101c161515885260181c16151591015280511561262d576125d5905142612202565b91519251151580612623575b612606575b50818111156125ff57603c916125fb91612202565b0490565b5050600090565b9161261661261c92935142612202565b906121f5565b90386125e6565b50805115156125e1565b60405162461bcd60e51b815260206004820152601360248201527214d95cdcda5bdb881b9bdd081cdd185c9d1959606a1b6044820152606490fd5b806000526002602052604060002090604051916126848361220f565b8054835260018101546001600160a01b0390811660208501526002820154811660408501526003820154166060840152600481015460808401908152600582015460a08501908152600683015460c08601908152600784015460e0870190815260088501546101008801526009850154610120880152600a850154610140880152600b90940154919590939061016081019061272360ff851683612264565b60ff8460081c1615156101808201526101c060ff6101a0830195818160101c161515875260181c1615159101525160058110156104f057600114918215926127b2575b5081156127a8575b5061279f5761277f612789936124e2565b905191519161217f565b9051808211156125ff5761279c91612202565b90565b50505050600090565b905051153861276e565b511515915038612766565b6002600054146127ce576002600055565b633ee5aeb560e01b60005260046000fd5b60405163a9059cbb60e01b60208201526001600160a01b03909216602483015260448083019390935291815261281f9161281a606483612242565b61286a565b565b60015460081c6001600160a01b0316330361283857565b63118cdaa760e01b6000523360045260246000fd5b60ff6001541661285957565b63d93c066560e01b60005260046000fd5b906000602091828151910182855af1156128c5576000513d6128bc57506001600160a01b0381163b155b61289b5750565b635274afe760e01b60009081526001600160a01b0391909116600452602490fd5b60011415612894565b6040513d6000823e3d90fdfea164736f6c634300081e000a",
  "linkReferences": {},
  "deployedLinkReferences": {}
}