{
  "_format": "hh-sol-artifact-1",
  "contractName": "MentorshipFactory",
  "sourceName": "contracts/MentorshipFactory.sol",
  "abi": [
    {
      "inputs": [],
      "stateMutability": "nonpayable",
      "type": "constructor"
    },
    {
      "inputs": [
        {
          "internalType": "address",
          "name": "owner",
          "type": "address"
        }
      ],
      "name": "OwnableInvalidOwner",
      "type": "error"
    },
    {
      "inputs": [
        {
          "internalType": "address",
          "name": "account",
          "type": "address"
        }
      ],
      "name": "OwnableUnauthorizedAccount",
      "type": "error"
    },
    {
      "anonymous": false,
      "inputs": [
        {
          "indexed": true,
          "internalType": "address",
          "name": "mentorshipContract",
          "type": "address"
        },
        {
          "indexed": true,
          "internalType": "address",
          "name": "platformFeeRecipient",
          "type": "address"
        },
        {
          "indexed": false,
          "internalType": "uint256",
          "name": "timestamp",
          "type": "uint256"
        }
      ],
      "name": "MentorshipDeployed",
      "type": "event"
    },
    {
      "anonymous": false,
      "inputs": [
        {
          "indexed": true,
          "internalType": "address",
          "name": "previousOwner",
          "type": "address"
        },
        {
          "indexed": true,
          "internalType": "address",
          "name": "newOwner",
          "type": "address"
        }
      ],
      "name": "OwnershipTransferred",
      "type": "event"
    },
    {
      "inputs": [
        {
          "internalType": "address",
          "name": "platformFeeRecipient",
          "type": "address"
        }
      ],
      "name": "deployMentorship",
      "outputs": [
        {
          "internalType": "address",
          "name": "mentorshipAddress",
          "type": "address"
        }
      ],
      "stateMutability": "nonpayable",
      "type": "function"
    },
    {
      "inputs": [
        {
          "internalType": "uint256",
          "name": "",
          "type": "uint256"
        }
      ],
      "name": "deployedContracts",
      "outputs": [
        {
          "internalType": "address",
          "name": "",
          "type": "address"
        }
      ],
      "stateMutability": "view",
      "type": "function"
    },
    {
      "inputs": [
        {
          "internalType": "address",
          "name": "mentorshipAddress",
          "type": "address"
        }
      ],
      "name": "emergencyPause",
      "outputs": [],
      "stateMutability": "nonpayable",
      "type": "function"
    },
    {
      "inputs": [
        {
          "internalType": "address",
          "name": "mentorshipAddress",
          "type": "address"
        }
      ],
      "name": "emergencyUnpause",
      "outputs": [],
      "stateMutability": "nonpayable",
      "type": "function"
    },
    {
      "inputs": [],
      "name": "getDeployedContracts",
      "outputs": [
        {
          "internalType": "address[]",
          "name": "",
          "type": "address[]"
        }
      ],
      "stateMutability": "view",
      "type": "function"
    },
    {
      "inputs": [],
      "name": "getDeployedContractsCount",
      "outputs": [
        {
          "internalType": "uint256",
          "name": "",
          "type": "uint256"
        }
      ],
      "stateMutability": "view",
      "type": "function"
    },
    {
      "inputs": [],
      "name": "getLatestContract",
      "outputs": [
        {
          "internalType": "address",
          "name": "",
          "type": "address"
        }
      ],
      "stateMutability": "view",
      "type": "function"
    },
    {
      "inputs": [
        {
          "internalType": "address",
          "name": "",
          "type": "address"
        }
      ],
      "name": "isValidContract",
      "outputs": [
        {
          "internalType": "bool",
          "name": "",
          "type": "bool"
        }
      ],
      "stateMutability": "view",
      "type": "function"
    },
    {
      "inputs": [],
      "name": "owner",
      "outputs": [
        {
          "internalType": "address",
          "name": "",
          "type": "address"
        }
      ],
      "stateMutability": "view",
      "type": "function"
    },
    {
      "inputs": [],
      "name": "renounceOwnership",
      "outputs": [],
      "stateMutability": "nonpayable",
      "type": "function"
    },
    {
      "inputs": [
        {
          "internalType": "address",
          "name": "mentorshipAddress",
          "type": "address"
        },
        {
          "internalType": "address[]",
          "name": "supportedTokens",
          "type": "address[]"
        }
      ],
      "name": "setupMentorship",
      "outputs": [],
      "stateMutability": "nonpayable",
      "type": "function"
    },
    {
      "inputs": [
        {
          "internalType": "address",
          "name": "newOwner",
          "type": "address"
        }
      ],
      "name": "transferOwnership",
      "outputs": [],
      "stateMutability": "nonpayable",
      "type": "function"
    }
  ],
  "bytecode": "0x608080604052346075573315605f5760008054336001600160a01b0319821681178355916001600160a01b03909116907f8be0079c531659141344cd1fd0a4f28419497f9722a3daafe3b4186f6b6457e09080a3611b65908161007b8239f35b631e4fbdf760e01b600052600060045260246000fd5b600080fdfe6080604052600436101561001257600080fd5b6000803560e01c80630b972e53146105d15780630eaad489146105925780635fc7f334146105745780636fd368b0146104e85780637041b48a14610458578063715018a6146103fe5780638b8033df146102df5780638da5cb5b146102b85780639ad1ee101461028d578063aa9a068f146101c5578063f2fde38b1461013f5763ff5446f0146100a157600080fd5b3461013c578060031936011261013c576001549081156100ff5760001982019182116100eb5760206100d283610747565b905460405160039290921b1c6001600160a01b03168152f35b634e487b7160e01b81526011600452602490fd5b60405162461bcd60e51b8152602060048201526015602482015274139bc818dbdb9d1c9858dd1cc819195c1b1bde5959605a1b6044820152606490fd5b80fd5b503461013c57602036600319011261013c5761015961072c565b6101616107f7565b6001600160a01b031680156101b15781546001600160a01b03198116821783556001600160a01b03167f8be0079c531659141344cd1fd0a4f28419497f9722a3daafe3b4186f6b6457e08380a380f35b631e4fbdf760e01b82526004829052602482fd5b503461013c578060031936011261013c5760405160018054808352908352602082019081907fb10e2d527612073b26eecdfd717e6a320cf44b4afac2b0732d9fcbe2b7fa0cf690855b81811061026e57505050826102249103836107bf565b604051928392602084019060208552518091526040840192915b81811061024c575050500390f35b82516001600160a01b031684528594506020938401939092019160010161023e565b82546001600160a01b031684526020909301926001928301920161020e565b503461013c57602036600319011261013c576004359060015482101561013c5760206100d283610747565b503461013c578060031936011261013c57546040516001600160a01b039091168152602090f35b503461013c57604036600319011261013c576102f961072c565b8160243567ffffffffffffffff81116103fa57366023820112156103fa5780600401359267ffffffffffffffff84116103f6573660248560051b840101116103f6576103436107f7565b6001600160a01b0316808352600260205260408320549091906103689060ff16610778565b825b848110156103f2576024600582901b830101356001600160a01b038116908190036103ee57833b156103ee5760405190636d69fcaf60e01b82526004820152848160248183885af19081156103e35785916103ca575b505060010161036a565b816103d4916107bf565b6103df5783386103c0565b8380fd5b6040513d87823e3d90fd5b8480fd5b8380f35b8280fd5b5080fd5b503461013c578060031936011261013c576104176107f7565b80546001600160a01b03198116825581906001600160a01b03167f8be0079c531659141344cd1fd0a4f28419497f9722a3daafe3b4186f6b6457e08280a380f35b503461013c57602036600319011261013c578061047361072c565b61047b6107f7565b6001600160a01b03168082526002602052604082205461049d9060ff16610778565b803b156104e557818091600460405180948193638456cb5960e01b83525af180156104da576104c95750f35b816104d3916107bf565b61013c5780f35b6040513d84823e3d90fd5b50fd5b503461013c57602036600319011261013c578061050361072c565b61050b6107f7565b6001600160a01b03168082526002602052604082205461052d9060ff16610778565b803b156104e557818091600460405180958193631fa5d41d60e11b83525af18015610567576105595780f35b610562916107bf565b388180f35b50604051903d90823e3d90fd5b503461013c578060031936011261013c576020600154604051908152f35b503461013c57602036600319011261013c5760209060ff906040906001600160a01b036105bd61072c565b168152600284522054166040519015158152f35b503461013c57602036600319011261013c576105eb61072c565b6105f36107f7565b6001600160a01b031680156106ef576040516113388082019082821067ffffffffffffffff8311176106db576020918391610821833984815203019083f080156104da576001546001600160a01b03919091169190600160401b8110156106c75760209361066982600160409401600155610747565b81549060031b9086821b9160018060a01b03901b19161790558381526002855220600160ff19825416179055817f9dc8a15aa69177b31086196188b6d3a918149d4c21631667b6eba1206fe4caeb84604051428152a3604051908152f35b634e487b7160e01b84526041600452602484fd5b634e487b7160e01b85526041600452602485fd5b60405162461bcd60e51b8152602060048201526015602482015274125b9d985b1a5908199959481c9958da5c1a595b9d605a1b6044820152606490fd5b600435906001600160a01b038216820361074257565b600080fd5b60015481101561076257600160005260206000200190600090565b634e487b7160e01b600052603260045260246000fd5b1561077f57565b60405162461bcd60e51b8152602060048201526018602482015277496e76616c696420636f6e7472616374206164647265737360401b6044820152606490fd5b90601f8019910116810190811067ffffffffffffffff8211176107e157604052565b634e487b7160e01b600052604160045260246000fd5b6000546001600160a01b0316330361080b57565b63118cdaa760e01b6000523360045260246000fdfe60803461013a57601f61133838819003918201601f19168301916001600160401b0383118484101761013f5780849260209460405283398101031261013a57516001600160a01b0381169081900361013a57600160005533156101245760018054610100600160a81b0319811633600881811b610100600160a81b0316929092179093556040519291901c6001600160a01b03167f8be0079c531659141344cd1fd0a4f28419497f9722a3daafe3b4186f6b6457e0600080a381156100e25750600380546001600160a01b0319169190911790556040516111e290816101568239f35b62461bcd60e51b815260206004820152601560248201527f496e76616c69642066656520726563697069656e7400000000000000000000006044820152606490fd5b631e4fbdf760e01b600052600060045260246000fd5b600080fd5b634e487b7160e01b600052604160045260246000fdfe608080604052600436101561001357600080fd5b60003560e01c9081631554823214610f08575080631f5754c014610d9a5780633f4ba83a14610d31578063402ff0db14610c0f57806349bbf7da14610bf157806357520d2014610b7a5780635c975abb14610b57578063664ba84b14610b0d57806367b3fcb014610af157806368c4ac2614610ab25780636d69fcaf14610a05578063715018a6146109a4578063763191901461093e57806383c4b7a3146108ae5780638456cb591461085557806387c13943146108395780638da5cb5b1461080c578063ab3dd949146107b3578063cd2bf12414610468578063e27f93701461031b578063eb13554f146102f2578063ec59877e1461026b578063f2fde38b146101ce5763f5fe7f711461012757600080fd5b346101c95760203660031901126101c957610140610f2f565b610148611125565b6001600160a01b0316801561019057600380546001600160a01b031916821790557fba887708e7d4436dd36b62187bdced03e0b9abe66caf392a66dd84386641b209600080a2005b60405162461bcd60e51b8152602060048201526011602482015270125b9d985b1a59081c9958da5c1a595b9d607a1b6044820152606490fd5b600080fd5b346101c95760203660031901126101c9576101e7610f2f565b6101ef611125565b6001600160a01b0381169081156102555760018054610100600160a81b03198116600893841b610100600160a81b031617909155901c6001600160a01b03167f8be0079c531659141344cd1fd0a4f28419497f9722a3daafe3b4186f6b6457e0600080a3005b631e4fbdf760e01b600052600060045260246000fd5b346101c95760203660031901126101c9576001600160a01b0361028c610f2f565b166000526007602052604060002060405190816020825491828152019160005260206000209060005b8181106102dc576102d8856102cc8187038261106a565b60405191829182610f45565b0390f35b82548452602090930192600192830192016102b5565b346101c95760003660031901126101c9576003546040516001600160a01b039091168152602090f35b346101c95760203660031901126101c9576004356103376110c1565b806000526005602052610362604060002060018060a01b038154163314908115610451575b50610fad565b8060005260056020526040600020600681019060ff825416600581101561043b57600161038f9114610ff3565b60048101544210156103fc57815460ff191660039081179092556002810154600182015491909201546103d09290916001600160a01b0390811691166110e3565b7f83db11557caa3518e394ee3589033b042b4f03f0ed0495a829208e71bfa37f05600080a26001600055005b60405162461bcd60e51b815260206004820152601760248201527614d95cdcda5bdb88185b1c9958591e481cdd185c9d1959604a1b6044820152606490fd5b634e487b7160e01b600052602160045260246000fd5b600101546001600160a01b0316331490508361035c565b346101c95760a03660031901126101c957610481610f2f565b6024356001600160a01b038116908190036101c95760443591606435608435916104a96110c1565b6104b1611151565b83600052600260205260ff6040600020541615610778576001600160a01b0316928315158061076e575b1561073857841561070257428211156106c85782156106905760045493600019851461067a57600185016004556040519361051585611038565b8185523360208087019182526040808801868152606089018b815260808a0189815260a08b01878152600160c08d0181815260008f8152600598899052969096209c518d546001600160a01b03199081166001600160a01b03928316178f559851918e0180548a1692821692909217909155935160028d0180549098169416939093179095555160038a015592516004890155915187820155905160069690960195949085101561043b5760209760019660009660ff80198354169116179055838652600689526105e9886040882061108c565b338652600789526105fd886040882061108c565b6106366040516323b872dd60e01b8b8201523360248201523060448201528260648201526064815261063060848261106a565b8661116e565b6040519485528885015260408401526060830152847fafb30f2fb7b1a22d2c1ebce5ade2b90ae0f6d539e804ce2e60f6a900ac3a4b4960803394a455604051908152f35b634e487b7160e01b600052601160045260246000fd5b60405162461bcd60e51b815260206004820152601060248201526f24b73b30b634b210323ab930ba34b7b760811b6044820152606490fd5b60405162461bcd60e51b8152602060048201526012602482015271496e76616c69642073746172742074696d6560701b6044820152606490fd5b60405162461bcd60e51b815260206004820152600e60248201526d125b9d985b1a5908185b5bdd5b9d60921b6044820152606490fd5b60405162461bcd60e51b815260206004820152600e60248201526d24b73b30b634b21036b2b73a37b960911b6044820152606490fd5b50338414156104db565b60405162461bcd60e51b8152602060048201526013602482015272151bdad95b881b9bdd081cdd5c1c1bdc9d1959606a1b6044820152606490fd5b346101c95760403660031901126101c9576107cc610f2f565b6001600160a01b03166000908152600660205260409020805460243591908210156101c9576020916107fd91610f7f565b90549060031b1c604051908152f35b346101c95760003660031901126101c95760015460405160089190911c6001600160a01b03168152602090f35b346101c95760003660031901126101c957602060405160648152f35b346101c95760003660031901126101c95761086e611125565b610876611151565b600160ff19815416176001557f62e78cea01bee320cd4e420270b5ea74000d11b0c9f74754ebdbfc544b05a2586020604051338152a1005b346101c95760203660031901126101c957600435600052600560205260e0604060002061093c60018060a01b038254169160018060a01b036001820154169060018060a01b03600282015416600382015460048301549160ff600660058601549501541694604051978852602088015260408701526060860152608085015260a084015260c0830190610f22565bf35b346101c95760203660031901126101c957610957610f2f565b61095f611125565b6001600160a01b03166000818152600260205260408120805460ff191690557f4c910b69fe65a61f7531b9c5042b2329ca7179c77290aa7e2eb3afa3c8511fd39080a2005b346101c95760003660031901126101c9576109bd611125565b60018054610100600160a81b0319811690915560009060081c6001600160a01b03167f8be0079c531659141344cd1fd0a4f28419497f9722a3daafe3b4186f6b6457e08280a3005b346101c95760203660031901126101c957610a1e610f2f565b610a26611125565b6001600160a01b03168015610a75578060005260026020526040600020600160ff198254161790557f784c8f4dbf0ffedd6e72c76501c545a70f8b203b30a26ce542bf92ba87c248a4600080a2005b60405162461bcd60e51b8152602060048201526015602482015274496e76616c696420746f6b656e206164647265737360581b6044820152606490fd5b346101c95760203660031901126101c9576001600160a01b03610ad3610f2f565b166000526002602052602060ff604060002054166040519015158152f35b346101c95760003660031901126101c9576020604051605a8152f35b346101c95760403660031901126101c957610b26610f2f565b6001600160a01b03166000908152600760205260409020805460243591908210156101c9576020916107fd91610f7f565b346101c95760003660031901126101c957602060ff600154166040519015158152f35b346101c95760203660031901126101c9576001600160a01b03610b9b610f2f565b166000526006602052604060002060405190816020825491828152019160005260206000209060005b818110610bdb576102d8856102cc8187038261106a565b8254845260209093019260019283019201610bc4565b346101c95760003660031901126101c9576020600454604051908152f35b346101c95760203660031901126101c957600060c0604051610c3081611038565b8281528260208201528260408201528260608201528260808201528260a0820152015260043560005260056020526040600020604051610c6f81611038565b81546001600160a01b039081168252600183015481166020830190815260028401549091166040830190815260038401546060840190815260048501546080850190815260058087015460a08701908152600690970154949660ff9095169460c087019490939186101561043b5760e09761093c9686526040519760018060a01b03905116885260018060a01b03905116602088015260018060a01b0390511660408701525160608601525160808501525160a08401525160c0830190610f22565b346101c95760003660031901126101c957610d4a611125565b60015460ff811615610d895760ff19166001557f5db9ee0a495bf2e6ff9c91a7834c1ba4fdd244a5e8aa4e537bd38aeae4b073aa6020604051338152a1005b638dfc202b60e01b60005260046000fd5b346101c95760203660031901126101c957600435610db66110c1565b806000526005602052610de0604060002060018060a01b0381541633149081156104515750610fad565b80600052600560205260406000206006810160ff815416600581101561043b576001610e0c9114610ff3565b60048201546005830154810180911161067a574210610ecc57600260ff19825416179055600381015490600a8202828104600a148315171561067a57606490049182810390811161067a5760028201805492547fdd106c9c3f24f80fe23b63d807dbc109af232921a35b6df85d12be9877f8ab35946040949092610eba928492610ea49187916001600160a01b0391821691166110e3565b546003546001600160a01b0390811691166110e3565b82519182526020820152a26001600055005b60405162461bcd60e51b815260206004820152601460248201527314d95cdcda5bdb881b9bdd08199a5b9a5cda195960621b6044820152606490fd5b346101c95760003660031901126101c95780600a60209252f35b90600582101561043b5752565b600435906001600160a01b03821682036101c957565b602060408183019282815284518094520192019060005b818110610f695750505090565b8251845260209384019390920191600101610f5c565b8054821015610f975760005260206000200190600090565b634e487b7160e01b600052603260045260246000fd5b15610fb457565b60405162461bcd60e51b8152602060048201526017602482015276139bdd081cd95cdcda5bdb881c185c9d1a58da5c185b9d604a1b6044820152606490fd5b15610ffa57565b60405162461bcd60e51b8152602060048201526016602482015275496e76616c69642073657373696f6e2073746174757360501b6044820152606490fd5b60e0810190811067ffffffffffffffff82111761105457604052565b634e487b7160e01b600052604160045260246000fd5b90601f8019910116810190811067ffffffffffffffff82111761105457604052565b8054600160401b811015611054576110a991600182018155610f7f565b819291549060031b91821b91600019901b1916179055565b6002600054146110d2576002600055565b633ee5aeb560e01b60005260046000fd5b60405163a9059cbb60e01b60208201526001600160a01b0390921660248301526044808301939093529181526111239161111e60648361106a565b61116e565b565b60015460081c6001600160a01b0316330361113c57565b63118cdaa760e01b6000523360045260246000fd5b60ff6001541661115d57565b63d93c066560e01b60005260046000fd5b906000602091828151910182855af1156111c9576000513d6111c057506001600160a01b0381163b155b61119f5750565b635274afe760e01b60009081526001600160a01b0391909116600452602490fd5b60011415611198565b6040513d6000823e3d90fdfea164736f6c634300081e000aa164736f6c634300081e000a",
  "linkReferences": {},
  "deployedLinkReferences": {}
}