{
  "_format": "hh-sol-artifact-1",
  "contractName": "MentorshipFactory",
  "sourceName": "contracts/MentorshipFactory.sol",
  "abi": [
    {
      "inputs": [],
      "stateMutability": "nonpayable",
      "type": "constructor"
    },
    {
      "inputs": [
        {
          "internalType": "address",
          "name": "owner",
          "type": "address"
        }
      ],
      "name": "OwnableInvalidOwner",
      "type": "error"
    },
    {
      "inputs": [
        {
          "internalType": "address",
          "name": "account",
          "type": "address"
        }
      ],
      "name": "OwnableUnauthorizedAccount",
      "type": "error"
    },
    {
      "anonymous": false,
      "inputs": [
        {
          "indexed": true,
          "internalType": "address",
          "name": "mentorshipContract",
          "type": "address"
        },
        {
          "indexed": true,
          "internalType": "address",
          "name": "platformFeeRecipient",
          "type": "address"
        },
        {
          "indexed": false,
          "internalType": "uint256",
          "name": "timestamp",
          "type": "uint256"
        }
      ],
      "name": "MentorshipDeployed",
      "type": "event"
    },
    {
      "anonymous": false,
      "inputs": [
        {
          "indexed": true,
          "internalType": "address",
          "name": "previousOwner",
          "type": "address"
        },
        {
          "indexed": true,
          "internalType": "address",
          "name": "newOwner",
          "type": "address"
        }
      ],
      "name": "OwnershipTransferred",
      "type": "event"
    },
    {
      "inputs": [
        {
          "internalType": "address",
          "name": "platformFeeRecipient",
          "type": "address"
        }
      ],
      "name": "deployMentorship",
      "outputs": [
        {
          "internalType": "address",
          "name": "mentorshipAddress",
          "type": "address"
        }
      ],
      "stateMutability": "nonpayable",
      "type": "function"
    },
    {
      "inputs": [
        {
          "internalType": "uint256",
          "name": "",
          "type": "uint256"
        }
      ],
      "name": "deployedContracts",
      "outputs": [
        {
          "internalType": "address",
          "name": "",
          "type": "address"
        }
      ],
      "stateMutability": "view",
      "type": "function"
    },
    {
      "inputs": [
        {
          "internalType": "address",
          "name": "mentorshipAddress",
          "type": "address"
        }
      ],
      "name": "emergencyPause",
      "outputs": [],
      "stateMutability": "nonpayable",
      "type": "function"
    },
    {
      "inputs": [
        {
          "internalType": "address",
          "name": "mentorshipAddress",
          "type": "address"
        }
      ],
      "name": "emergencyUnpause",
      "outputs": [],
      "stateMutability": "nonpayable",
      "type": "function"
    },
    {
      "inputs": [],
      "name": "getDeployedContracts",
      "outputs": [
        {
          "internalType": "address[]",
          "name": "",
          "type": "address[]"
        }
      ],
      "stateMutability": "view",
      "type": "function"
    },
    {
      "inputs": [],
      "name": "getDeployedContractsCount",
      "outputs": [
        {
          "internalType": "uint256",
          "name": "",
          "type": "uint256"
        }
      ],
      "stateMutability": "view",
      "type": "function"
    },
    {
      "inputs": [],
      "name": "getLatestContract",
      "outputs": [
        {
          "internalType": "address",
          "name": "",
          "type": "address"
        }
      ],
      "stateMutability": "view",
      "type": "function"
    },
    {
      "inputs": [
        {
          "internalType": "address",
          "name": "",
          "type": "address"
        }
      ],
      "name": "isValidContract",
      "outputs": [
        {
          "internalType": "bool",
          "name": "",
          "type": "bool"
        }
      ],
      "stateMutability": "view",
      "type": "function"
    },
    {
      "inputs": [],
      "name": "owner",
      "outputs": [
        {
          "internalType": "address",
          "name": "",
          "type": "address"
        }
      ],
      "stateMutability": "view",
      "type": "function"
    },
    {
      "inputs": [],
      "name": "renounceOwnership",
      "outputs": [],
      "stateMutability": "nonpayable",
      "type": "function"
    },
    {
      "inputs": [
        {
          "internalType": "address",
          "name": "mentorshipAddress",
          "type": "address"
        },
        {
          "internalType": "address[]",
          "name": "supportedTokens",
          "type": "address[]"
        }
      ],
      "name": "setupMentorship",
      "outputs": [],
      "stateMutability": "nonpayable",
      "type": "function"
    },
    {
      "inputs": [
        {
          "internalType": "address",
          "name": "newOwner",
          "type": "address"
        }
      ],
      "name": "transferOwnership",
      "outputs": [],
      "stateMutability": "nonpayable",
      "type": "function"
    }
  ],
  "bytecode": "0x6080806040523461007a5733156100645760008054336001600160a01b03198216811783556040519290916001600160a01b0316907f8be0079c531659141344cd1fd0a4f28419497f9722a3daafe3b4186f6b6457e09080a3611c0b90816100808239f35b631e4fbdf760e01b815260006004820152602490fd5b600080fdfe6040608081526004908136101561001557600080fd5b6000803560e01c80630b972e53146106055780630eaad489146105c75780635fc7f334146105a85780636fd368b01461052b5780637041b48a14610493578063715018a6146104395780638b8033df1461031a5780638da5cb5b146102ee5780639ad1ee10146102c3578063aa9a068f146101d2578063f2fde38b1461013d5763ff5446f0146100a457600080fd5b3461013a578060031936011261013a576001549283156100ff5760001984019384116100ec576020836100d686610778565b905491519160018060a01b039160031b1c168152f35b634e487b7160e01b825260119052602490fd5b606490602084519162461bcd60e51b83528201526015602482015274139bc818dbdb9d1c9858dd1cc819195c1b1bde5959605a1b6044820152fd5b80fd5b5091346101ce5760203660031901126101ce5761015861075d565b906101616107c5565b6001600160a01b039182169283156101b8575050600054826bffffffffffffffffffffffff60a01b821617600055167f8be0079c531659141344cd1fd0a4f28419497f9722a3daafe3b4186f6b6457e0600080a380f35b51631e4fbdf760e01b8152908101849052602490fd5b8280fd5b509190346101ce57826003193601126101ce5780518060019485549384835260208080940180968985527fb10e2d527612073b26eecdfd717e6a320cf44b4afac2b0732d9fcbe2b7fa0cf6908a865b8281106102a55750505050859003601f01601f1916850196905067ffffffffffffffff871185881017610290575092869284878096528186019282875251809352850195925b8281106102745785870386f35b83516001600160a01b0316875295810195928101928401610267565b604190634e487b7160e01b6000525260246000fd5b83546001600160a01b03168552889590940193928101928101610221565b5091346101ce5760203660031901126101ce57359160015483101561013a57506100d6602092610778565b509034610316578160031936011261031657905490516001600160a01b039091168152602090f35b5080fd5b5091346101ce57816003193601126101ce5761033461075d565b90602492833567ffffffffffffffff938482116104355736602383011215610435578184013594851161043557600591368787851b83010111610431576103796107c5565b6001600160a01b0391821680895260026020528489205490939061039f9060ff1661081b565b885b8781106103ac578980f35b898982841b8501013585811680910361031657863b1561031657875190636d69fcaf60e01b82528982015281818c81838b5af180156104275761040f575b505060001981146103fd576001016103a1565b634e487b7160e01b8a5260118752888afd5b610418906107f1565b6104235789386103ea565b8980fd5b88513d84823e3d90fd5b8780fd5b8680fd5b503461013a578060031936011261013a576104526107c5565b600080546001600160a01b0319811682556001600160a01b03167f8be0079c531659141344cd1fd0a4f28419497f9722a3daafe3b4186f6b6457e08280a380f35b5091829134610527576020366003190112610527576104b061075d565b6104b86107c5565b6001600160a01b03168084526002602052818420549092906104dc9060ff1661081b565b823b15610522578151638456cb5960e01b81529284918491829084905af190811561051957506105095750f35b610512906107f1565b61013a5780f35b513d84823e3d90fd5b505050fd5b5050fd5b50809183346105275760203660031901126105275761054861075d565b6105506107c5565b6001600160a01b03168084526002602052828420546105719060ff1661081b565b803b15610522578391835180958193631fa5d41d60e11b83525af1908115610519575061059c575080f35b6105a5906107f1565b80f35b5090346103165781600319360112610316576020906001549051908152f35b5090346103165760203660031901126103165760209160ff9082906001600160a01b036105f261075d565b1681526002855220541690519015158152f35b509190346101ce576020928360031936011261013a5761062361075d565b9061062c6107c5565b6001600160a01b039182169182156107225783516113978082019082821067ffffffffffffffff83111761070f5788918391610868833986815203019083f080156107055781169460015490680100000000000000008210156106f257509061069d82600187959401600155610778565b819291549060031b9188831b921b19161790558481526002865220600160ff19825416179055827f9dc8a15aa69177b31086196188b6d3a918149d4c21631667b6eba1206fe4caeb858451428152a351908152f35b634e487b7160e01b845260419052602483fd5b84513d84823e3d90fd5b634e487b7160e01b855260418852602485fd5b835162461bcd60e51b81528086018790526015602482015274125b9d985b1a5908199959481c9958da5c1a595b9d605a1b6044820152606490fd5b600435906001600160a01b038216820361077357565b600080fd5b6001548110156107af5760016000527fb10e2d527612073b26eecdfd717e6a320cf44b4afac2b0732d9fcbe2b7fa0cf60190600090565b634e487b7160e01b600052603260045260246000fd5b6000546001600160a01b031633036107d957565b60405163118cdaa760e01b8152336004820152602490fd5b67ffffffffffffffff811161080557604052565b634e487b7160e01b600052604160045260246000fd5b1561082257565b60405162461bcd60e51b815260206004820152601860248201527f496e76616c696420636f6e7472616374206164647265737300000000000000006044820152606490fdfe60803461013657601f61139738819003918201601f19168301916001600160401b0383118484101761013b5780849260209460405283398101031261013657516001600160a01b0380821691829003610136576001600055331561011d5760018054610100600160a81b0319811633600881811b610100600160a81b0316929092179093556040519391901c167f8be0079c531659141344cd1fd0a4f28419497f9722a3daafe3b4186f6b6457e0600080a381156100db5750600380546001600160a01b03191691909117905560405161124590816101528239f35b62461bcd60e51b815260206004820152601560248201527f496e76616c69642066656520726563697069656e7400000000000000000000006044820152606490fd5b604051631e4fbdf760e01b815260006004820152602490fd5b600080fd5b634e487b7160e01b600052604160045260246000fdfe6080604081815260048036101561001557600080fd5b600092833560e01c9081631554823214610f2d575080631f5754c014610d885780633f4ba83a14610d1f578063402ff0db14610c0857806349bbf7da14610beb57806357520d2014610b775780635c975abb14610b53578063664ba84b14610b0b57806367b3fcb014610aef57806368c4ac2614610ab15780636d69fcaf14610a07578063715018a6146109a6578063763191901461094057806383c4b7a3146108c05780638456cb591461086657806387c139431461084a5780638da5cb5b1461081d578063ab3dd949146107c4578063cd2bf12414610460578063e27f93701461031d578063eb13554f146102f4578063ec59877e1461026e578063f2fde38b146101d25763f5fe7f711461012b57600080fd5b346101ce5760203660031901126101ce57610144610f6b565b61014c610fef565b6001600160a01b0316918215610197575050600380546001600160a01b031916821790557fba887708e7d4436dd36b62187bdced03e0b9abe66caf392a66dd84386641b2098280a280f35b906020606492519162461bcd60e51b83528201526011602482015270125b9d985b1a59081c9958da5c1a595b9d607a1b6044820152fd5b8280fd5b50346101ce5760203660031901126101ce576101ec610f6b565b6101f4610fef565b6001600160a01b0381811693909290841561025857505060018054610100600160a81b03198116600893841b610100600160a81b031617909155901c167f8be0079c531659141344cd1fd0a4f28419497f9722a3daafe3b4186f6b6457e08380a380f35b51631e4fbdf760e01b8152908101859052602490fd5b5050346102f057602090816003193601126101ce576001600160a01b03610293610f6b565b168352600782528083209281518093808654928381520195835280832092905b8282106102d9576102d586866102cb828b0383611050565b5191829182610f86565b0390f35b8354875295860195600193840193909101906102b3565b5080fd5b5050346102f057816003193601126102f05760035490516001600160a01b039091168152602090f35b508290346102f05760203660031901126102f05780359061033c611132565b818352600560205283832080546001600160a01b03929161036c9184163314908490821561044f575b5050611155565b828452600560205284842090600682019081549060ff8216600581101561043c57600161039991146111a1565b808401544210156103f957509060036103ce94939260ff191617905560038260028301541692600183015416910154916111e6565b7f83db11557caa3518e394ee3589033b042b4f03f0ed0495a829208e71bfa37f058280a26001815580f35b606490602089519162461bcd60e51b8352820152601760248201527f53657373696f6e20616c726561647920737461727465640000000000000000006044820152fd5b634e487b7160e01b885260218252602488fd5b600191925001541633148388610365565b50346101ce5760a03660031901126101ce5761047a610f6b565b6001600160a01b03939092906024803586811691908290036101ce5760443594606495863590608435926104ac611132565b6104b4611114565b85875260209960028b5260ff89892054161561078d578b169485151580610783575b1561075157821561071f57428411156106e95784156106b5578154996000198b146106a3578888888f8f968f96988f969160059a8c9360018f96888f8f8f8f8f918f9196808f96988f96958f969a8f9b60069c8e8801905583519b61053a8d61101e565b8c52808c0196338852848d0198895260608d01998a5260808d019a8b5260a08d019b8c5260c08d019e8f5283525220975116916bffffffffffffffffffffffff60a01b9283895416178855816001890191511683825416179055600287019251169082541617905551600384015551878301555160058201550190519d8e1015610691578c9d60ff8019835416911617905586895260068c526105df8b8b8b20611072565b33895260078c526105f28b8b8b20611072565b83818b519e8f906323b872dd60e01b90820152338582015230604482015201528c5260a08c01918c831067ffffffffffffffff8411176106805750508798999a6106409160019952866110ac565b875194855289850152868401526060830152857fafb30f2fb7b1a22d2c1ebce5ade2b90ae0f6d539e804ce2e60f6a900ac3a4b4960803394a45551908152f35b634e487b7160e01b89526041905287fd5b634e487b7160e01b8a5260218452828afd5b50634e487b7160e01b88526011825287fd5b885162461bcd60e51b81529182018b90526010908201526f24b73b30b634b210323ab930ba34b7b760811b60448201528890fd5b885162461bcd60e51b81529182018b905260129082015271496e76616c69642073746172742074696d6560701b60448201528890fd5b885162461bcd60e51b81529182018b9052600e908201526d125b9d985b1a5908185b5bdd5b9d60921b60448201528890fd5b885162461bcd60e51b81529182018b9052600e908201526d24b73b30b634b21036b2b73a37b960911b60448201528890fd5b50338614156104d6565b885162461bcd60e51b81528083018c905260138188015272151bdad95b881b9bdd081cdd5c1c1bdc9d1959606a1b60448201528a90fd5b5050346102f057806003193601126102f0576107de610f6b565b6001600160a01b0316825260066020528082208054602435939084101561081a575060209261080c91610fc1565b91905490519160031b1c8152f35b80fd5b5050346102f057816003193601126102f057600154905160089190911c6001600160a01b03168152602090f35b5050346102f057816003193601126102f0576020905160648152f35b5050346102f057816003193601126102f05760207f62e78cea01bee320cd4e420270b5ea74000d11b0c9f74754ebdbfc544b05a258916108a4610fef565b6108ac611114565b600160ff198154161760015551338152a180f35b5090346101ce5760203660031901126101ce578061093e9160e0948435815260056020522060018060a01b0391828254169483600184015416936002840154166003840154918401549260ff600660058701549601541695815198895260208901528701526060860152608085015260a084015260c0830190610f48565bf35b5050346102f05760203660031901126102f05761095b610f6b565b610963610fef565b6001600160a01b03168083526002602052908220805460ff191690557f4c910b69fe65a61f7531b9c5042b2329ca7179c77290aa7e2eb3afa3c8511fd38280a280f35b833461081a578060031936011261081a576109bf610fef565b60018054610100600160a81b03198116909155819060081c6001600160a01b03167f8be0079c531659141344cd1fd0a4f28419497f9722a3daafe3b4186f6b6457e08280a380f35b5090346101ce5760203660031901126101ce57610a22610f6b565b610a2a610fef565b6001600160a01b0316918215610a77575081835260026020528220805460ff191660011790557f784c8f4dbf0ffedd6e72c76501c545a70f8b203b30a26ce542bf92ba87c248a48280a280f35b6020606492519162461bcd60e51b83528201526015602482015274496e76616c696420746f6b656e206164647265737360581b6044820152fd5b5050346102f05760203660031901126102f05760209160ff9082906001600160a01b03610adc610f6b565b1681526002855220541690519015158152f35b5050346102f057816003193601126102f05760209051605a8152f35b5050346102f057806003193601126102f057610b25610f6b565b6001600160a01b0316825260076020528082208054602435939084101561081a575060209261080c91610fc1565b5050346102f057816003193601126102f05760209060ff6001541690519015158152f35b5050346102f057602090816003193601126101ce576001600160a01b03610b9c610f6b565b168352600682528083209281518093808654928381520195835280832092905b828210610bd4576102d586866102cb828b0383611050565b835487529586019560019384019390910190610bbc565b50346101ce57826003193601126101ce5760209250549051908152f35b50913461081a57602036600319011261081a578060c08351610c298161101e565b82815282602082015282858201528260608201528260808201528260a08201520152823581526005602052818120825192610c638461101e565b60018060a01b0380835416855280600184015416916020860192835281600285015416918187019283526003850154926060880193845288860154946080890195865260ff600660058901549860a08c01998a5201541660c08a01986005821015610d0c5760e08b61093e8c8c8c8c8c8c8c818d8d89528185519b51168b52511660208a01525116908701525160608601525160808501525160a08401525160c0830190610f48565b634e487b7160e01b815260218c52602490fd5b50346101ce57826003193601126101ce57610d38610fef565b6001549060ff821615610d7a575060ff1916600155513381527f5db9ee0a495bf2e6ff9c91a7834c1ba4fdd244a5e8aa4e537bd38aeae4b073aa90602090a180f35b8251638dfc202b60e01b8152fd5b509190346102f05760203660031901126102f057823590610da7611132565b818352600560205280832080546001600160a01b0391610dd591831633149083908215610f1c575050611155565b828452600560205281842060068101805460ff81166005811015610f09576001610dff91146111a1565b8783015460058401548101809111610ef6574210610ebc5760029060ff1916179055600381015491600a8302838104600a1484151715610ea9576064900491828403938411610ea957828285949383610e8a7fdd106c9c3f24f80fe23b63d807dbc109af232921a35b6df85d12be9877f8ab3599986002610e979701928480855416915416906111e6565b54169060035416906111e6565b82519182526020820152a26001815580f35b634e487b7160e01b875260118852602487fd5b845162461bcd60e51b81526020818a0152601460248201527314d95cdcda5bdb881b9bdd08199a5b9a5cda195960621b6044820152606490fd5b634e487b7160e01b885260118952602488fd5b634e487b7160e01b885260218952602488fd5b600191925001541633148238610365565b8490346102f057816003193601126102f05780600a60209252f35b906005821015610f555752565b634e487b7160e01b600052602160045260246000fd5b600435906001600160a01b0382168203610f8157565b600080fd5b6020908160408183019282815285518094520193019160005b828110610fad575050505090565b835185529381019392810192600101610f9f565b8054821015610fd95760005260206000200190600090565b634e487b7160e01b600052603260045260246000fd5b60015460081c6001600160a01b0316330361100657565b60405163118cdaa760e01b8152336004820152602490fd5b60e0810190811067ffffffffffffffff82111761103a57604052565b634e487b7160e01b600052604160045260246000fd5b90601f8019910116810190811067ffffffffffffffff82111761103a57604052565b80546801000000000000000081101561103a5761109491600182018155610fc1565b819291549060031b91821b91600019901b1916179055565b906000602091828151910182855af115611108576000513d6110ff57506001600160a01b0381163b155b6110dd5750565b604051635274afe760e01b81526001600160a01b039091166004820152602490fd5b600114156110d6565b6040513d6000823e3d90fd5b60ff6001541661112057565b60405163d93c066560e01b8152600490fd5b600260005414611143576002600055565b604051633ee5aeb560e01b8152600490fd5b1561115c57565b60405162461bcd60e51b815260206004820152601760248201527f4e6f742073657373696f6e207061727469636970616e740000000000000000006044820152606490fd5b156111a857565b60405162461bcd60e51b8152602060048201526016602482015275496e76616c69642073657373696f6e2073746174757360501b6044820152606490fd5b60405163a9059cbb60e01b60208201526001600160a01b039092166024830152604480830193909352918152608081019167ffffffffffffffff83118284101761103a57611236926040526110ac565b56fea164736f6c6343000814000aa164736f6c6343000814000a",
  "linkReferences": {},
  "deployedLinkReferences": {}
}