{
  "_format": "hh-sol-artifact-1",
  "contractName": "ProgressiveEscrowV4_Final",
  "sourceName": "contracts/ProgressiveEscrowV4_Final.sol",
  "abi": [
    {
      "inputs": [
        {
          "internalType": "address",
          "name": "_platformWallet",
          "type": "address"
        }
      ],
      "stateMutability": "nonpayable",
      "type": "constructor"
    },
    {
      "inputs": [],
      "name": "EnforcedPause",
      "type": "error"
    },
    {
      "inputs": [],
      "name": "ExpectedPause",
      "type": "error"
    },
    {
      "inputs": [
        {
          "internalType": "address",
          "name": "owner",
          "type": "address"
        }
      ],
      "name": "OwnableInvalidOwner",
      "type": "error"
    },
    {
      "inputs": [
        {
          "internalType": "address",
          "name": "account",
          "type": "address"
        }
      ],
      "name": "OwnableUnauthorizedAccount",
      "type": "error"
    },
    {
      "inputs": [],
      "name": "ReentrancyGuardReentrantCall",
      "type": "error"
    },
    {
      "inputs": [
        {
          "internalType": "address",
          "name": "token",
          "type": "address"
        }
      ],
      "name": "SafeERC20FailedOperation",
      "type": "error"
    },
    {
      "anonymous": false,
      "inputs": [
        {
          "indexed": true,
          "internalType": "bytes32",
          "name": "sessionId",
          "type": "bytes32"
        },
        {
          "indexed": false,
          "internalType": "uint256",
          "name": "timestamp",
          "type": "uint256"
        }
      ],
      "name": "HeartbeatReceived",
      "type": "event"
    },
    {
      "anonymous": false,
      "inputs": [
        {
          "indexed": true,
          "internalType": "address",
          "name": "previousOwner",
          "type": "address"
        },
        {
          "indexed": true,
          "internalType": "address",
          "name": "newOwner",
          "type": "address"
        }
      ],
      "name": "OwnershipTransferred",
      "type": "event"
    },
    {
      "anonymous": false,
      "inputs": [
        {
          "indexed": false,
          "internalType": "address",
          "name": "account",
          "type": "address"
        }
      ],
      "name": "Paused",
      "type": "event"
    },
    {
      "anonymous": false,
      "inputs": [
        {
          "indexed": true,
          "internalType": "bytes32",
          "name": "sessionId",
          "type": "bytes32"
        },
        {
          "indexed": false,
          "internalType": "uint256",
          "name": "amount",
          "type": "uint256"
        },
        {
          "indexed": false,
          "internalType": "uint256",
          "name": "totalReleased",
          "type": "uint256"
        },
        {
          "indexed": false,
          "internalType": "uint256",
          "name": "timestamp",
          "type": "uint256"
        }
      ],
      "name": "ProgressivePaymentReleased",
      "type": "event"
    },
    {
      "anonymous": false,
      "inputs": [
        {
          "indexed": true,
          "internalType": "bytes32",
          "name": "sessionId",
          "type": "bytes32"
        },
        {
          "indexed": false,
          "internalType": "uint256",
          "name": "mentorAmount",
          "type": "uint256"
        },
        {
          "indexed": false,
          "internalType": "uint256",
          "name": "platformFee",
          "type": "uint256"
        },
        {
          "indexed": false,
          "internalType": "uint256",
          "name": "completedAt",
          "type": "uint256"
        }
      ],
      "name": "SessionCompleted",
      "type": "event"
    },
    {
      "anonymous": false,
      "inputs": [
        {
          "indexed": true,
          "internalType": "bytes32",
          "name": "sessionId",
          "type": "bytes32"
        },
        {
          "indexed": true,
          "internalType": "address",
          "name": "student",
          "type": "address"
        },
        {
          "indexed": true,
          "internalType": "address",
          "name": "mentor",
          "type": "address"
        },
        {
          "indexed": false,
          "internalType": "uint256",
          "name": "amount",
          "type": "uint256"
        },
        {
          "indexed": false,
          "internalType": "address",
          "name": "token",
          "type": "address"
        }
      ],
      "name": "SessionCreated",
      "type": "event"
    },
    {
      "anonymous": false,
      "inputs": [
        {
          "indexed": true,
          "internalType": "bytes32",
          "name": "sessionId",
          "type": "bytes32"
        },
        {
          "indexed": false,
          "internalType": "uint256",
          "name": "pausedAt",
          "type": "uint256"
        },
        {
          "indexed": false,
          "internalType": "string",
          "name": "reason",
          "type": "string"
        }
      ],
      "name": "SessionPaused",
      "type": "event"
    },
    {
      "anonymous": false,
      "inputs": [
        {
          "indexed": true,
          "internalType": "bytes32",
          "name": "sessionId",
          "type": "bytes32"
        },
        {
          "indexed": false,
          "internalType": "uint256",
          "name": "resumedAt",
          "type": "uint256"
        }
      ],
      "name": "SessionResumed",
      "type": "event"
    },
    {
      "anonymous": false,
      "inputs": [
        {
          "indexed": true,
          "internalType": "bytes32",
          "name": "sessionId",
          "type": "bytes32"
        },
        {
          "indexed": false,
          "internalType": "uint256",
          "name": "startTime",
          "type": "uint256"
        }
      ],
      "name": "SessionStarted",
      "type": "event"
    },
    {
      "anonymous": false,
      "inputs": [
        {
          "indexed": false,
          "internalType": "address",
          "name": "token",
          "type": "address"
        },
        {
          "indexed": false,
          "internalType": "bool",
          "name": "supported",
          "type": "bool"
        }
      ],
      "name": "TokenSupportUpdated",
      "type": "event"
    },
    {
      "anonymous": false,
      "inputs": [
        {
          "indexed": false,
          "internalType": "address",
          "name": "account",
          "type": "address"
        }
      ],
      "name": "Unpaused",
      "type": "event"
    },
    {
      "stateMutability": "payable",
      "type": "fallback"
    },
    {
      "inputs": [],
      "name": "ETH_TOKEN",
      "outputs": [
        {
          "internalType": "address",
          "name": "",
          "type": "address"
        }
      ],
      "stateMutability": "view",
      "type": "function"
    },
    {
      "inputs": [],
      "name": "GRACE_PERIOD",
      "outputs": [
        {
          "internalType": "uint256",
          "name": "",
          "type": "uint256"
        }
      ],
      "stateMutability": "view",
      "type": "function"
    },
    {
      "inputs": [],
      "name": "HEARTBEAT_INTERVAL",
      "outputs": [
        {
          "internalType": "uint256",
          "name": "",
          "type": "uint256"
        }
      ],
      "stateMutability": "view",
      "type": "function"
    },
    {
      "inputs": [],
      "name": "PLATFORM_FEE_PERCENT",
      "outputs": [
        {
          "internalType": "uint256",
          "name": "",
          "type": "uint256"
        }
      ],
      "stateMutability": "view",
      "type": "function"
    },
    {
      "inputs": [],
      "name": "SESSION_START_TIMEOUT",
      "outputs": [
        {
          "internalType": "uint256",
          "name": "",
          "type": "uint256"
        }
      ],
      "stateMutability": "view",
      "type": "function"
    },
    {
      "inputs": [
        {
          "internalType": "address",
          "name": "token",
          "type": "address"
        }
      ],
      "name": "addSupportedToken",
      "outputs": [],
      "stateMutability": "nonpayable",
      "type": "function"
    },
    {
      "inputs": [
        {
          "internalType": "bytes32",
          "name": "sessionId",
          "type": "bytes32"
        }
      ],
      "name": "cancelSession",
      "outputs": [],
      "stateMutability": "nonpayable",
      "type": "function"
    },
    {
      "inputs": [
        {
          "internalType": "bytes32",
          "name": "sessionId",
          "type": "bytes32"
        },
        {
          "internalType": "uint256",
          "name": "rating",
          "type": "uint256"
        },
        {
          "internalType": "string",
          "name": "",
          "type": "string"
        }
      ],
      "name": "completeSession",
      "outputs": [],
      "stateMutability": "nonpayable",
      "type": "function"
    },
    {
      "inputs": [
        {
          "internalType": "bytes32",
          "name": "sessionId",
          "type": "bytes32"
        },
        {
          "internalType": "address",
          "name": "mentor",
          "type": "address"
        },
        {
          "internalType": "address",
          "name": "paymentToken",
          "type": "address"
        },
        {
          "internalType": "uint256",
          "name": "amount",
          "type": "uint256"
        },
        {
          "internalType": "uint256",
          "name": "durationMinutes",
          "type": "uint256"
        },
        {
          "internalType": "uint256",
          "name": "nonce",
          "type": "uint256"
        }
      ],
      "name": "createProgressiveSession",
      "outputs": [],
      "stateMutability": "payable",
      "type": "function"
    },
    {
      "inputs": [
        {
          "internalType": "bytes32",
          "name": "sessionId",
          "type": "bytes32"
        }
      ],
      "name": "getAvailablePayment",
      "outputs": [
        {
          "internalType": "uint256",
          "name": "",
          "type": "uint256"
        }
      ],
      "stateMutability": "view",
      "type": "function"
    },
    {
      "inputs": [
        {
          "internalType": "bytes32",
          "name": "sessionId",
          "type": "bytes32"
        }
      ],
      "name": "getSession",
      "outputs": [
        {
          "components": [
            {
              "internalType": "bytes32",
              "name": "sessionId",
              "type": "bytes32"
            },
            {
              "internalType": "address",
              "name": "student",
              "type": "address"
            },
            {
              "internalType": "address",
              "name": "mentor",
              "type": "address"
            },
            {
              "internalType": "address",
              "name": "paymentToken",
              "type": "address"
            },
            {
              "internalType": "uint256",
              "name": "totalAmount",
              "type": "uint256"
            },
            {
              "internalType": "uint256",
              "name": "releasedAmount",
              "type": "uint256"
            },
            {
              "internalType": "uint256",
              "name": "sessionDuration",
              "type": "uint256"
            },
            {
              "internalType": "uint256",
              "name": "startTime",
              "type": "uint256"
            },
            {
              "internalType": "uint256",
              "name": "lastHeartbeat",
              "type": "uint256"
            },
            {
              "internalType": "uint256",
              "name": "pausedTime",
              "type": "uint256"
            },
            {
              "internalType": "uint256",
              "name": "createdAt",
              "type": "uint256"
            },
            {
              "internalType": "enum ProgressiveEscrowV4_Final.SessionStatus",
              "name": "status",
              "type": "uint8"
            },
            {
              "internalType": "bool",
              "name": "isActive",
              "type": "bool"
            },
            {
              "internalType": "bool",
              "name": "isPaused",
              "type": "bool"
            },
            {
              "internalType": "bool",
              "name": "surveyCompleted",
              "type": "bool"
            }
          ],
          "internalType": "struct ProgressiveEscrowV4_Final.ProgressiveSession",
          "name": "",
          "type": "tuple"
        }
      ],
      "stateMutability": "view",
      "type": "function"
    },
    {
      "inputs": [
        {
          "internalType": "address",
          "name": "user",
          "type": "address"
        }
      ],
      "name": "getUserNonce",
      "outputs": [
        {
          "internalType": "uint256",
          "name": "",
          "type": "uint256"
        }
      ],
      "stateMutability": "view",
      "type": "function"
    },
    {
      "inputs": [
        {
          "internalType": "bytes32",
          "name": "sessionId",
          "type": "bytes32"
        }
      ],
      "name": "needsHeartbeat",
      "outputs": [
        {
          "internalType": "bool",
          "name": "",
          "type": "bool"
        }
      ],
      "stateMutability": "view",
      "type": "function"
    },
    {
      "inputs": [],
      "name": "owner",
      "outputs": [
        {
          "internalType": "address",
          "name": "",
          "type": "address"
        }
      ],
      "stateMutability": "view",
      "type": "function"
    },
    {
      "inputs": [],
      "name": "pause",
      "outputs": [],
      "stateMutability": "nonpayable",
      "type": "function"
    },
    {
      "inputs": [
        {
          "internalType": "bytes32",
          "name": "sessionId",
          "type": "bytes32"
        }
      ],
      "name": "pauseSession",
      "outputs": [],
      "stateMutability": "nonpayable",
      "type": "function"
    },
    {
      "inputs": [],
      "name": "paused",
      "outputs": [
        {
          "internalType": "bool",
          "name": "",
          "type": "bool"
        }
      ],
      "stateMutability": "view",
      "type": "function"
    },
    {
      "inputs": [],
      "name": "platformWallet",
      "outputs": [
        {
          "internalType": "address",
          "name": "",
          "type": "address"
        }
      ],
      "stateMutability": "view",
      "type": "function"
    },
    {
      "inputs": [
        {
          "internalType": "bytes32",
          "name": "sessionId",
          "type": "bytes32"
        }
      ],
      "name": "releaseProgressivePayment",
      "outputs": [],
      "stateMutability": "nonpayable",
      "type": "function"
    },
    {
      "inputs": [],
      "name": "renounceOwnership",
      "outputs": [],
      "stateMutability": "nonpayable",
      "type": "function"
    },
    {
      "inputs": [
        {
          "internalType": "bytes32",
          "name": "sessionId",
          "type": "bytes32"
        }
      ],
      "name": "resumeSession",
      "outputs": [],
      "stateMutability": "nonpayable",
      "type": "function"
    },
    {
      "inputs": [
        {
          "internalType": "bytes32",
          "name": "",
          "type": "bytes32"
        }
      ],
      "name": "sessions",
      "outputs": [
        {
          "internalType": "bytes32",
          "name": "sessionId",
          "type": "bytes32"
        },
        {
          "internalType": "address",
          "name": "student",
          "type": "address"
        },
        {
          "internalType": "address",
          "name": "mentor",
          "type": "address"
        },
        {
          "internalType": "address",
          "name": "paymentToken",
          "type": "address"
        },
        {
          "internalType": "uint256",
          "name": "totalAmount",
          "type": "uint256"
        },
        {
          "internalType": "uint256",
          "name": "releasedAmount",
          "type": "uint256"
        },
        {
          "internalType": "uint256",
          "name": "sessionDuration",
          "type": "uint256"
        },
        {
          "internalType": "uint256",
          "name": "startTime",
          "type": "uint256"
        },
        {
          "internalType": "uint256",
          "name": "lastHeartbeat",
          "type": "uint256"
        },
        {
          "internalType": "uint256",
          "name": "pausedTime",
          "type": "uint256"
        },
        {
          "internalType": "uint256",
          "name": "createdAt",
          "type": "uint256"
        },
        {
          "internalType": "enum ProgressiveEscrowV4_Final.SessionStatus",
          "name": "status",
          "type": "uint8"
        },
        {
          "internalType": "bool",
          "name": "isActive",
          "type": "bool"
        },
        {
          "internalType": "bool",
          "name": "isPaused",
          "type": "bool"
        },
        {
          "internalType": "bool",
          "name": "surveyCompleted",
          "type": "bool"
        }
      ],
      "stateMutability": "view",
      "type": "function"
    },
    {
      "inputs": [
        {
          "internalType": "bytes32",
          "name": "sessionId",
          "type": "bytes32"
        }
      ],
      "name": "shouldAutoPause",
      "outputs": [
        {
          "internalType": "bool",
          "name": "",
          "type": "bool"
        }
      ],
      "stateMutability": "view",
      "type": "function"
    },
    {
      "inputs": [
        {
          "internalType": "bytes32",
          "name": "sessionId",
          "type": "bytes32"
        }
      ],
      "name": "startProgressiveSession",
      "outputs": [],
      "stateMutability": "nonpayable",
      "type": "function"
    },
    {
      "inputs": [
        {
          "internalType": "address",
          "name": "",
          "type": "address"
        }
      ],
      "name": "supportedTokens",
      "outputs": [
        {
          "internalType": "bool",
          "name": "",
          "type": "bool"
        }
      ],
      "stateMutability": "view",
      "type": "function"
    },
    {
      "inputs": [
        {
          "internalType": "address",
          "name": "newOwner",
          "type": "address"
        }
      ],
      "name": "transferOwnership",
      "outputs": [],
      "stateMutability": "nonpayable",
      "type": "function"
    },
    {
      "inputs": [],
      "name": "unpause",
      "outputs": [],
      "stateMutability": "nonpayable",
      "type": "function"
    },
    {
      "inputs": [
        {
          "internalType": "bytes32",
          "name": "sessionId",
          "type": "bytes32"
        }
      ],
      "name": "updateHeartbeat",
      "outputs": [],
      "stateMutability": "nonpayable",
      "type": "function"
    },
    {
      "inputs": [
        {
          "internalType": "address",
          "name": "newWallet",
          "type": "address"
        }
      ],
      "name": "updatePlatformWallet",
      "outputs": [],
      "stateMutability": "nonpayable",
      "type": "function"
    },
    {
      "inputs": [
        {
          "internalType": "address",
          "name": "",
          "type": "address"
        }
      ],
      "name": "userNonces",
      "outputs": [
        {
          "internalType": "uint256",
          "name": "",
          "type": "uint256"
        }
      ],
      "stateMutability": "view",
      "type": "function"
    },
    {
      "stateMutability": "payable",
      "type": "receive"
    }
  ],
  "bytecode": "0x608034620002c957601f620020de38819003918201601f1916830192916001600160401b03841183851017620002ce5780839260409586528339602092839181010312620002c957516001600160a01b03808216929091839003620002c9573315620002b157600092835460018060a01b031990338282161786558651943391167f8be0079c531659141344cd1fd0a4f28419497f9722a3daafe3b4186f6b6457e08780a360019384805582156200026f5750918593917fbbe72b7d9dcb594ee398a4a617885aba53d833e2aad601c813ce9df99fdeb49b959360025416176002558280526003815283832060ff1990838282541617905561a4b14614600014620001645773af88d065e77c8cc2239327c5edb3a432268e5831845260038252848420838282541617905573fd086bc7cd5c481dcc9c85ebe478a1c0b69fcbb9845282858520918254161790555b8351928352820152a151611df99081620002e58239f35b4661210503620001bc5773833589fcd6edb6e08f4c7c32d4f71b54bda02913845260038252848420838282541617905573fde4c96c8593536e31f229ea8f37b2ada2699bb2845282858520918254161790556200014d565b46600a036200021357730b2c639c533813f4aa9d7837caf62653d097ff8584526003825284842083828254161790557394b008aa00579c1307b0ef2c499ad98a8ce58e58845282858520918254161790556200014d565b6089461462000224575b506200014d565b732791bca1f2de4661ed88a30c99a7a9449aa841748452848420838282541617905573c2132d05d31c914a87c6611c10748aeb04b58e8f84528285852091825416179055386200021d565b62461bcd60e51b815260048101849052601760248201527f496e76616c696420706c6174666f726d2077616c6c65740000000000000000006044820152606490fd5b8351631e4fbdf760e01b815260006004820152602490fd5b600080fd5b634e487b7160e01b600052604160045260246000fdfe60806040526004361015610050575b361561004e5760405162461bcd60e51b8152602060048201526012602482015271119d5b98dd1a5bdb881b9bdd08199bdd5b9960721b6044820152606490fd5b005b60003560e01c806302ceb406146118635780632f7801f41461112657806334d1c8fe1461184757806339b240bd146116245780633a17ba64146113935780633f4ba83a146113215780634d21398214611234578063560d52d41461121857806358bc8337146111fc578063590a2cc1146111865780635c975abb146111605780636834e3a81461112657806368c4ac26146110e75780636baae9cc1461104e5780636d69fcaf14610fdb578063715018a614610f825780637ac1b46914610d515780637dbd283214610c685780638456cb5914610c065780638da5cb5b14610bdd57806399173d6b14610ab1578063ada4ef3014610a33578063b817be4c146108b9578063c1a287e21461089d578063ccb868dd146105d1578063e906826c146105ab578063f13430651461058e578063f2fde38b14610505578063f400272b146101cd5763fa2af9da0361000e57346101c85760003660031901126101c8576002546040516001600160a01b039091168152602090f35b600080fd5b60c03660031901126101c8576001600160a01b03602480358281169291600435918490036101c8576044928335918183168093036101c857606480359560843592610216611a4d565b61021e611a2c565b881515806104fb575b156104c957856000526020946003865260ff60406000205416806104c0575b806104b7575b1561048557876000526004865260016040600020015416158061046d575b1561042d5733600052600585526040600020805460001981146104185760010190558561037e5787340361034f575050505b8360005260048252604060002090600182016002830160038401906001600160601b0360a01b9187838254161790558982825416179055339082541617905584825560006007830155600682015560006005820155846004820155600b8101906000600883549242600a820155826009820155015563ffffffff191690556040519384528301527fa5d7a3cf3954591f1af3cd96f79210169bbaf7e3b3a3e60de11886bc773649e060403393a460018055005b8491600c6b08aa89040dad2e6dac2e8c6d60a31b926040519462461bcd60e51b86526004860152840152820152fd5b9091346103e557604051926323b872dd60e01b86850152338385015230908401528781840152825260a082019082821067ffffffffffffffff8311176103d157506040526103cc9084611abf565b61029c565b634e487b7160e01b60009081526041600452fd5b60405162461bcd60e51b8152600481018690526010818401526f04e6f2045544820666f722045524332360841b81850152fd5b82634e487b7160e01b60005260116004526000fd5b849160177f53657373696f6e20657869737473206f72206e6f6e6365000000000000000000926040519462461bcd60e51b86526004860152840152820152fd5b50336000526005855260406000205460a4351461026a565b508491600e6d496e76616c696420706172616d7360901b926040519462461bcd60e51b86526004860152840152820152fd5b5084151561024c565b50881515610246565b906d24b73b30b634b21036b2b73a37b960911b90600e6040519362461bcd60e51b855260206004860152840152820152fd5b5033891415610227565b346101c85760203660031901126101c85761051e6119dd565b610526611a00565b6001600160a01b0390811690811561057557600054826001600160601b0360a01b821617600055167f8be0079c531659141344cd1fd0a4f28419497f9722a3daafe3b4186f6b6457e0600080a3005b604051631e4fbdf760e01b815260006004820152602490fd5b346101c85760003660031901126101c85760206040516103848152f35b346101c85760203660031901126101c85760206105c9600435611c86565b604051908152f35b346101c8576020806003193601126101c8576004356105ee611a4d565b806000526004825260406000209160018060a01b03806001850154168015158061086d575b8061085c575b8061084a575b8061083d575b1561080657331480156107f7575b156107c057610646600785015442611b34565b90603c82018092116107aa57600485015491605a830292808404605a14901517156107aa57603c610678910483611b61565b6006860154906064820291808304606414901517156107aa5760649161069d91611b41565b92048083116107a2575b5060058501918254908181111561076657816106c291611b34565b93841561073557507ff2446e1f418253f1b6b8f9b8ebf603fd78b61d59024e68b0d687d1ecc22b8a409495610711926106fc868094611b27565b85556002816003840154169201541690611b74565b54604080519283526020830191909152429082015280606081015b0390a260018055005b6064906040519062461bcd60e51b82526004820152600a602482015269139bc81c185e5b595b9d60b21b6044820152fd5b60405162461bcd60e51b81526004810186905260146024820152734e6f207061796d656e7420617661696c61626c6560601b6044820152606490fd5b9150856106a7565b634e487b7160e01b600052601160045260246000fd5b60405162461bcd60e51b815260048101839052600f60248201526e139bdd081c185c9d1a58da5c185b9d608a1b6044820152606490fd5b50806002850154163314610633565b60405162461bcd60e51b815260048101849052600f60248201526e496e76616c69642072656c6561736560881b6044820152606490fd5b5060078501541515610625565b5060ff600b86015460101c161561061f565b5060ff600b86015460081c16610619565b5060ff600b86015416600681101561088757600114610613565b634e487b7160e01b600052602160045260246000fd5b346101c85760003660031901126101c8576020604051603c8152f35b346101c85760203660031901126101c8576004356108d5611a4d565b600081815260046020526040902060018101546001600160a01b0390811680151580610a1b575b156109d65733149081156109c6575b50806109ac575b1561096757610101600b82019182549042600882015560074291015562ffffff19161790557fd010adb8a640e9a6a134ce407a4e27deb32fab5b64ea5847c55101907d9c25786020604051428152a260018055005b60405162461bcd60e51b815260206004820152601a60248201527f4e6f74207061727469636970616e74206f722074696d656f75740000000000006044820152606490fd5b50600a81015461038481018091116107aa57421115610912565b905060028201541633148361090b565b60405162461bcd60e51b815260206004820152601a60248201527f53657373696f6e206d697373696e67206f7220737461727465640000000000006044820152606490fd5b5060ff600b84015416600681101561088757156108fc565b346101c85760203660031901126101c857610a4c6119dd565b610a54611a00565b6001600160a01b03168015610a7b576001600160601b0360a01b6002541617600255600080f35b60405162461bcd60e51b815260206004820152600e60248201526d125b9d985b1a59081dd85b1b195d60921b6044820152606490fd5b346101c85760203660031901126101c857600435610acd611a4d565b600081815260046020526040902060018101546001600160a01b03908116801515919082610bc1575b82610b9e575b505015610b6857600b6008820191610b15835442611b34565b610b2460098301918254611b27565b90550190429055600162ff00ff198254161790557f3dd443712f1bb154053901f56ef4a45320caeee475fc1b8f448abb8a5abd7ec16020604051428152a260018055005b60405162461bcd60e51b815260206004820152600e60248201526d496e76616c696420726573756d6560901b6044820152606490fd5b331491508115610bb1575b508380610afc565b9050600282015416331483610ba9565b915060ff600b8401541660068110156108875760021491610af6565b346101c85760003660031901126101c8576000546040516001600160a01b039091168152602090f35b346101c85760003660031901126101c857610c1f611a00565b610c27611a2c565b6000805460ff60a01b1916600160a01b1790556040513381527f62e78cea01bee320cd4e420270b5ea74000d11b0c9f74754ebdbfc544b05a25890602090a1005b346101c85760203660031901126101c85760043560005260046020526101e0604060002060ff81549160018060a01b03908160018201541691806002830154169060038301541660048301546005840154600685015490600786015492600887015494600988015496600b600a8a0154990154996040519c8d5260208d015260408c015260608b015260808a015260a089015260c088015260e0870152610100860152610120850152610140840152610d2761016084018383166119f3565b818160081c161515610180840152818160101c1615156101a084015260181c1615156101c0820152f35b346101c8576020806003193601126101c857600435610d6e611a4d565b6000818152600483526040902060018101546001600160a01b0390811680151580610f68575b80610f56575b15610f21573314908115610f11575b5060088201908154601e8101908181116107aa57605a018091116107aa57421192818215610f0a575b15610ed657600b01805462ff00ff19166201000217905580610ece575b610ec5575b5015610e9b57604051610e0681611aa3565b60118152701219585c9d1899585d081d1a5b595bdd5d607a1b83820152915b6040519042825260408183015283519384604084015260005b858110610e8757847fec452bb0b82c12deb4f139fa1dfc53d2e3606e8bf03ca6a3f007d0dd6fd53507856060818a6000838284010152601f80199101168101030190a260018055005b818101830151848201606001528201610e3e565b604051610ea781611aa3565b600c81526b4d616e75616c20706175736560a01b8382015291610e25565b42905583610df4565b508115610def565b60405162461bcd60e51b815260048101879052600c60248201526b155b985d5d1a1bdc9a5e995960a21b6044820152606490fd5b5083610dd2565b9050600282015416331484610da9565b60405162461bcd60e51b815260048101869052600d60248201526c496e76616c696420706175736560981b6044820152606490fd5b5060ff600b84015460101c1615610d9a565b5060ff600b84015416600681101561088757600114610d94565b346101c85760003660031901126101c857610f9b611a00565b600080546001600160a01b0319811682556001600160a01b03167f8be0079c531659141344cd1fd0a4f28419497f9722a3daafe3b4186f6b6457e08280a3005b346101c85760203660031901126101c8577fbbe72b7d9dcb594ee398a4a617885aba53d833e2aad601c813ce9df99fdeb49b60406110176119dd565b61101f611a00565b60018060a01b031680600052600360205281600020600160ff19825416179055815190815260016020820152a1005b346101c85760203660031901126101c85760043560005260046020526040600020600b8101549060ff821660068110156108875760011491826110d8575b50816110ca575b816110a6575b6020826040519015158152f35b60080154601e810191508181116107aa57605a018091116107aa5742116020611099565b600881015415159150611093565b60101c60ff161591508261108c565b346101c85760203660031901126101c8576001600160a01b036111086119dd565b166000526003602052602060ff604060002054166040519015158152f35b346101c85760203660031901126101c8576001600160a01b036111476119dd565b1660005260056020526020604060002054604051908152f35b346101c85760003660031901126101c857602060ff60005460a01c166040519015158152f35b346101c85760203660031901126101c8576004356000526004602052604060002060ff600b8201541660068110156108875760011490816111ee575b816111d4576020826040519015158152f35b600891500154601e81018091116107aa5742116020611099565b6008810154151591506111c2565b346101c85760003660031901126101c857602060405160008152f35b346101c85760003660031901126101c8576020604051600a8152f35b346101c85760203660031901126101c85761124d611a4d565b6004356000526004602052604060002060018060a01b03908160018201541680151580611309575b806112f1575b156112bb576112b592600b8301600460ff19825416179055600360048401549360058101946112ab865482611b34565b9555015416611b74565b60018055005b60405162461bcd60e51b815260206004820152600e60248201526d125b9d985b1a590818d85b98d95b60921b6044820152606490fd5b508033148061127b575082600283015416331461127b565b5060ff600b8301541660068110156108875715611275565b346101c85760003660031901126101c85761133a611a00565b60005460ff8160a01c16156113815760ff60a01b19166000556040513381527f5db9ee0a495bf2e6ff9c91a7834c1ba4fdd244a5e8aa4e537bd38aeae4b073aa90602090a1005b604051638dfc202b60e01b8152600490fd5b346101c85760603660031901126101c8576024600435813560443567ffffffffffffffff8082116101c857366023830112156101c85781600401359081116101c8573691018401116101c8576113e7611a4d565b600082815260046020526040902060018101546001600160a01b039290831680151591908261161a575b508161160e575b81611602575b50156115c957600b8101805460ff811660068110156115b457600181149081156115a9575b50156115795763010000039063ff00ffff1916179055600481018054916005810193611470855485611b34565b90600a820294828604600a14831517156115645761149560646114bb97048094611b34565b90875580611546575b5081611529575b5050505491546114b58184611b34565b92611b34565b90600a820291808304600a149015171561151457604080519182526064909204602082015242918101919091527f556195694fc082ad19415eaec58c1584ec20066f6e655be3034932c454d38a2390806060810161072c565b83634e487b7160e01b60005260116004526000fd5b80600361153e94015416906002541690611b74565b8580806114a5565b61155e90826003860154168360028701541690611b74565b8861149e565b88634e487b7160e01b60005260116004526000fd5b60405162461bcd60e51b815260206004820152600981880152684e6f7420726561647960b81b6044820152606490fd5b600291501487611443565b86634e487b7160e01b60005260216004526000fd5b60405162461bcd60e51b8152602060048201526012818601527124b73b30b634b21031b7b6b83632ba34b7b760711b6044820152606490fd5b6005915011158561141e565b60018110159150611418565b3314915086611411565b346101c85760203660031901126101c85760006101c060405161164681611a70565b8281528260208201528260408201528260608201528260808201528260a08201528260c08201528260e08201528261010082015282610120820152826101408201528261016082015282610180820152826101a0820152015260043560005260046020526040600020600b604051916116be83611a70565b8054835260018101546001600160a01b039081166020850152600282015481166040850152600382015416606084015260048101546080840152600581015460a084015260068082015460c0850152600782015460e085015260088201546101008501526009820154610120850152600a820154610140850152910154919060ff831610156108875760ff82816101e09416610160840152818160081c161515610180840152818160101c1615156101a084015260181c1615156101c08201526101c0604051918051835260018060a01b03602082015116602084015260018060a01b03604082015116604084015260018060a01b0360608201511660608401526080810151608084015260a081015160a084015260c081015160c084015260e081015160e084015261010081015161010084015261012081015161012084015261014081015161014084015261181f6101608201516101608501906119f3565b61018081015115156101808401526101a081015115156101a0840152015115156101c0820152f35b346101c85760003660031901126101c8576020604051601e8152f35b346101c85760203660031901126101c85760043561187f611a4d565b600081815260046020526040902060018101546001600160a01b039081168015159190826119c1575b8261199e575b50501561195957426008820155600b810190815460ff8160101c166118ff575b837f3cf0bf7708060bf073b6ddb921eef0485b3eb9da828e0ed751fa6582ef337f576020604051428152a260018055005b60019161191b60096119114242611b34565b9201918254611b27565b905562ff00ff1916179055807f3dd443712f1bb154053901f56ef4a45320caeee475fc1b8f448abb8a5abd7ec16020604051428152a28180806118ce565b60405162461bcd60e51b815260206004820152601e60248201527f496e76616c69642073657373696f6e206f72207061727469636970616e7400006044820152606490fd5b3314915081156119b1575b5083806118ae565b90506002820154163314836119a9565b915060ff600b84015416600681101561088757600114916118a8565b600435906001600160a01b03821682036101c857565b9060068210156108875752565b6000546001600160a01b03163303611a1457565b60405163118cdaa760e01b8152336004820152602490fd5b60ff60005460a01c16611a3b57565b60405163d93c066560e01b8152600490fd5b600260015414611a5e576002600155565b604051633ee5aeb560e01b8152600490fd5b6101e0810190811067ffffffffffffffff821117611a8d57604052565b634e487b7160e01b600052604160045260246000fd5b6040810190811067ffffffffffffffff821117611a8d57604052565b906000602091828151910182855af115611b1b576000513d611b1257506001600160a01b0381163b155b611af05750565b604051635274afe760e01b81526001600160a01b039091166004820152602490fd5b60011415611ae9565b6040513d6000823e3d90fd5b919082018092116107aa57565b919082039182116107aa57565b8115611b4b570490565b634e487b7160e01b600052601260045260246000fd5b818102929181159184041417156107aa57565b6001600160a01b039190821680611c3d5750600080809481948294165af1903d15611c375767ffffffffffffffff903d828111611c235760405192601f8201601f19908116603f0116840190811184821017611c0f57604052825260203d92013e5b15611bdd57565b60405162461bcd60e51b815260206004820152600a6024820152691155120819985a5b195960b21b6044820152606490fd5b634e487b7160e01b83526041600452602483fd5b634e487b7160e01b82526041600452602482fd5b50611bd6565b9290916040519263a9059cbb60e01b6020850152166024830152604482015260448152608081019181831067ffffffffffffffff841117611a8d57611c8492604052611abf565b565b600090815260048060205260408220611ca3600782015442611b34565b603c8101809111611dd957603c90049182158015611dab575b8015611d99575b8015611d88575b8015611d7c575b611d76578082015492605a840293808504605a1490151715611d6357611cf79084611b61565b600683015491606483029280840460641490151715611d505750606491611d1d91611b41565b9204808311611d47575b50600501549081811115611d4257611d3f9250611b34565b90565b505090565b91506005611d27565b634e487b7160e01b865260119052602485fd5b634e487b7160e01b855260118252602485fd5b50505090565b50600682015415611cd1565b5060ff600b83015460101c16611cca565b5060ff600b83015460081c1615611cc3565b5060ff600b830154166006811015611dc65760011415611cbc565b634e487b7160e01b855260218252602485fd5b634e487b7160e01b845260118352602484fdfea164736f6c6343000814000a",
  "linkReferences": {},
  "deployedLinkReferences": {}
}