{
  "address": "0x5FbDB2315678afecb367f032d93F642f64180aa3",
  "abi": [
    {
      "inputs": [
        {
          "internalType": "address",
          "name": "_platformFeeRecipient",
          "type": "address"
        }
      ],
      "stateMutability": "nonpayable",
      "type": "constructor"
    },
    {
      "inputs": [],
      "name": "EnforcedPause",
      "type": "error"
    },
    {
      "inputs": [],
      "name": "ExpectedPause",
      "type": "error"
    },
    {
      "inputs": [
        {
          "internalType": "address",
          "name": "owner",
          "type": "address"
        }
      ],
      "name": "OwnableInvalidOwner",
      "type": "error"
    },
    {
      "inputs": [
        {
          "internalType": "address",
          "name": "account",
          "type": "address"
        }
      ],
      "name": "OwnableUnauthorizedAccount",
      "type": "error"
    },
    {
      "inputs": [],
      "name": "ReentrancyGuardReentrantCall",
      "type": "error"
    },
    {
      "inputs": [
        {
          "internalType": "address",
          "name": "token",
          "type": "address"
        }
      ],
      "name": "SafeERC20FailedOperation",
      "type": "error"
    },
    {
      "anonymous": false,
      "inputs": [
        {
          "indexed": true,
          "internalType": "address",
          "name": "previousOwner",
          "type": "address"
        },
        {
          "indexed": true,
          "internalType": "address",
          "name": "newOwner",
          "type": "address"
        }
      ],
      "name": "OwnershipTransferred",
      "type": "event"
    },
    {
      "anonymous": false,
      "inputs": [
        {
          "indexed": false,
          "internalType": "address",
          "name": "account",
          "type": "address"
        }
      ],
      "name": "Paused",
      "type": "event"
    },
    {
      "anonymous": false,
      "inputs": [
        {
          "indexed": true,
          "internalType": "address",
          "name": "newRecipient",
          "type": "address"
        }
      ],
      "name": "PlatformFeeRecipientUpdated",
      "type": "event"
    },
    {
      "anonymous": false,
      "inputs": [
        {
          "indexed": true,
          "internalType": "uint256",
          "name": "sessionId",
          "type": "uint256"
        }
      ],
      "name": "SessionCancelled",
      "type": "event"
    },
    {
      "anonymous": false,
      "inputs": [
        {
          "indexed": true,
          "internalType": "uint256",
          "name": "sessionId",
          "type": "uint256"
        },
        {
          "indexed": false,
          "internalType": "uint256",
          "name": "mentorAmount",
          "type": "uint256"
        },
        {
          "indexed": false,
          "internalType": "uint256",
          "name": "platformAmount",
          "type": "uint256"
        }
      ],
      "name": "SessionCompleted",
      "type": "event"
    },
    {
      "anonymous": false,
      "inputs": [
        {
          "indexed": true,
          "internalType": "uint256",
          "name": "sessionId",
          "type": "uint256"
        },
        {
          "indexed": true,
          "internalType": "address",
          "name": "mentor",
          "type": "address"
        },
        {
          "indexed": true,
          "internalType": "address",
          "name": "mentee",
          "type": "address"
        },
        {
          "indexed": false,
          "internalType": "address",
          "name": "paymentToken",
          "type": "address"
        },
        {
          "indexed": false,
          "internalType": "uint256",
          "name": "amount",
          "type": "uint256"
        },
        {
          "indexed": false,
          "internalType": "uint256",
          "name": "startTime",
          "type": "uint256"
        },
        {
          "indexed": false,
          "internalType": "uint256",
          "name": "duration",
          "type": "uint256"
        }
      ],
      "name": "SessionCreated",
      "type": "event"
    },
    {
      "anonymous": false,
      "inputs": [
        {
          "indexed": true,
          "internalType": "address",
          "name": "token",
          "type": "address"
        }
      ],
      "name": "TokenAdded",
      "type": "event"
    },
    {
      "anonymous": false,
      "inputs": [
        {
          "indexed": true,
          "internalType": "address",
          "name": "token",
          "type": "address"
        }
      ],
      "name": "TokenRemoved",
      "type": "event"
    },
    {
      "anonymous": false,
      "inputs": [
        {
          "indexed": false,
          "internalType": "address",
          "name": "account",
          "type": "address"
        }
      ],
      "name": "Unpaused",
      "type": "event"
    },
    {
      "inputs": [],
      "name": "MENTOR_PERCENTAGE",
      "outputs": [
        {
          "internalType": "uint256",
          "name": "",
          "type": "uint256"
        }
      ],
      "stateMutability": "view",
      "type": "function"
    },
    {
      "inputs": [],
      "name": "PERCENTAGE_BASE",
      "outputs": [
        {
          "internalType": "uint256",
          "name": "",
          "type": "uint256"
        }
      ],
      "stateMutability": "view",
      "type": "function"
    },
    {
      "inputs": [],
      "name": "PLATFORM_FEE_PERCENTAGE",
      "outputs": [
        {
          "internalType": "uint256",
          "name": "",
          "type": "uint256"
        }
      ],
      "stateMutability": "view",
      "type": "function"
    },
    {
      "inputs": [
        {
          "internalType": "address",
          "name": "token",
          "type": "address"
        }
      ],
      "name": "addSupportedToken",
      "outputs": [],
      "stateMutability": "nonpayable",
      "type": "function"
    },
    {
      "inputs": [
        {
          "internalType": "uint256",
          "name": "sessionId",
          "type": "uint256"
        }
      ],
      "name": "cancelSession",
      "outputs": [],
      "stateMutability": "nonpayable",
      "type": "function"
    },
    {
      "inputs": [
        {
          "internalType": "uint256",
          "name": "sessionId",
          "type": "uint256"
        }
      ],
      "name": "completeSession",
      "outputs": [],
      "stateMutability": "nonpayable",
      "type": "function"
    },
    {
      "inputs": [
        {
          "internalType": "address",
          "name": "mentor",
          "type": "address"
        },
        {
          "internalType": "address",
          "name": "paymentToken",
          "type": "address"
        },
        {
          "internalType": "uint256",
          "name": "amount",
          "type": "uint256"
        },
        {
          "internalType": "uint256",
          "name": "startTime",
          "type": "uint256"
        },
        {
          "internalType": "uint256",
          "name": "duration",
          "type": "uint256"
        }
      ],
      "name": "createSession",
      "outputs": [
        {
          "internalType": "uint256",
          "name": "",
          "type": "uint256"
        }
      ],
      "stateMutability": "nonpayable",
      "type": "function"
    },
    {
      "inputs": [
        {
          "internalType": "address",
          "name": "mentee",
          "type": "address"
        }
      ],
      "name": "getMenteeSessions",
      "outputs": [
        {
          "internalType": "uint256[]",
          "name": "",
          "type": "uint256[]"
        }
      ],
      "stateMutability": "view",
      "type": "function"
    },
    {
      "inputs": [
        {
          "internalType": "address",
          "name": "mentor",
          "type": "address"
        }
      ],
      "name": "getMentorSessions",
      "outputs": [
        {
          "internalType": "uint256[]",
          "name": "",
          "type": "uint256[]"
        }
      ],
      "stateMutability": "view",
      "type": "function"
    },
    {
      "inputs": [
        {
          "internalType": "uint256",
          "name": "sessionId",
          "type": "uint256"
        }
      ],
      "name": "getSession",
      "outputs": [
        {
          "components": [
            {
              "internalType": "address",
              "name": "mentor",
              "type": "address"
            },
            {
              "internalType": "address",
              "name": "mentee",
              "type": "address"
            },
            {
              "internalType": "address",
              "name": "paymentToken",
              "type": "address"
            },
            {
              "internalType": "uint256",
              "name": "amount",
              "type": "uint256"
            },
            {
              "internalType": "uint256",
              "name": "startTime",
              "type": "uint256"
            },
            {
              "internalType": "uint256",
              "name": "duration",
              "type": "uint256"
            },
            {
              "internalType": "enum Mentorship.SessionStatus",
              "name": "status",
              "type": "uint8"
            }
          ],
          "internalType": "struct Mentorship.MentorshipSession",
          "name": "",
          "type": "tuple"
        }
      ],
      "stateMutability": "view",
      "type": "function"
    },
    {
      "inputs": [
        {
          "internalType": "address",
          "name": "",
          "type": "address"
        },
        {
          "internalType": "uint256",
          "name": "",
          "type": "uint256"
        }
      ],
      "name": "menteeSessions",
      "outputs": [
        {
          "internalType": "uint256",
          "name": "",
          "type": "uint256"
        }
      ],
      "stateMutability": "view",
      "type": "function"
    },
    {
      "inputs": [
        {
          "internalType": "address",
          "name": "",
          "type": "address"
        },
        {
          "internalType": "uint256",
          "name": "",
          "type": "uint256"
        }
      ],
      "name": "mentorSessions",
      "outputs": [
        {
          "internalType": "uint256",
          "name": "",
          "type": "uint256"
        }
      ],
      "stateMutability": "view",
      "type": "function"
    },
    {
      "inputs": [],
      "name": "nextSessionId",
      "outputs": [
        {
          "internalType": "uint256",
          "name": "",
          "type": "uint256"
        }
      ],
      "stateMutability": "view",
      "type": "function"
    },
    {
      "inputs": [],
      "name": "owner",
      "outputs": [
        {
          "internalType": "address",
          "name": "",
          "type": "address"
        }
      ],
      "stateMutability": "view",
      "type": "function"
    },
    {
      "inputs": [],
      "name": "pause",
      "outputs": [],
      "stateMutability": "nonpayable",
      "type": "function"
    },
    {
      "inputs": [],
      "name": "paused",
      "outputs": [
        {
          "internalType": "bool",
          "name": "",
          "type": "bool"
        }
      ],
      "stateMutability": "view",
      "type": "function"
    },
    {
      "inputs": [],
      "name": "platformFeeRecipient",
      "outputs": [
        {
          "internalType": "address",
          "name": "",
          "type": "address"
        }
      ],
      "stateMutability": "view",
      "type": "function"
    },
    {
      "inputs": [
        {
          "internalType": "address",
          "name": "token",
          "type": "address"
        }
      ],
      "name": "removeSupportedToken",
      "outputs": [],
      "stateMutability": "nonpayable",
      "type": "function"
    },
    {
      "inputs": [],
      "name": "renounceOwnership",
      "outputs": [],
      "stateMutability": "nonpayable",
      "type": "function"
    },
    {
      "inputs": [
        {
          "internalType": "uint256",
          "name": "",
          "type": "uint256"
        }
      ],
      "name": "sessions",
      "outputs": [
        {
          "internalType": "address",
          "name": "mentor",
          "type": "address"
        },
        {
          "internalType": "address",
          "name": "mentee",
          "type": "address"
        },
        {
          "internalType": "address",
          "name": "paymentToken",
          "type": "address"
        },
        {
          "internalType": "uint256",
          "name": "amount",
          "type": "uint256"
        },
        {
          "internalType": "uint256",
          "name": "startTime",
          "type": "uint256"
        },
        {
          "internalType": "uint256",
          "name": "duration",
          "type": "uint256"
        },
        {
          "internalType": "enum Mentorship.SessionStatus",
          "name": "status",
          "type": "uint8"
        }
      ],
      "stateMutability": "view",
      "type": "function"
    },
    {
      "inputs": [
        {
          "internalType": "address",
          "name": "",
          "type": "address"
        }
      ],
      "name": "supportedTokens",
      "outputs": [
        {
          "internalType": "bool",
          "name": "",
          "type": "bool"
        }
      ],
      "stateMutability": "view",
      "type": "function"
    },
    {
      "inputs": [
        {
          "internalType": "address",
          "name": "newOwner",
          "type": "address"
        }
      ],
      "name": "transferOwnership",
      "outputs": [],
      "stateMutability": "nonpayable",
      "type": "function"
    },
    {
      "inputs": [],
      "name": "unpause",
      "outputs": [],
      "stateMutability": "nonpayable",
      "type": "function"
    },
    {
      "inputs": [
        {
          "internalType": "address",
          "name": "newRecipient",
          "type": "address"
        }
      ],
      "name": "updatePlatformFeeRecipient",
      "outputs": [],
      "stateMutability": "nonpayable",
      "type": "function"
    }
  ],
  "transactionHash": "0x7fdeb5a755b1f9d7b50646424d9e3fa1d673ecebe4aa799dc3073c03411a9a2e",
  "args": [
    "0x85Fa7c0482F3e965099B8B564511c1D0f5e2b20c"
  ],
  "numDeployments": 1,
  "solcInputHash": "a485aa0f5bd4c04a3aa02b83b2636432",
  "bytecode": "0x60803461013657601f61139738819003918201601f19168301916001600160401b0383118484101761013b5780849260209460405283398101031261013657516001600160a01b0380821691829003610136576001600055331561011d5760018054610100600160a81b0319811633600881811b610100600160a81b0316929092179093556040519391901c167f8be0079c531659141344cd1fd0a4f28419497f9722a3daafe3b4186f6b6457e0600080a381156100db5750600380546001600160a01b03191691909117905560405161124590816101528239f35b62461bcd60e51b815260206004820152601560248201527f496e76616c69642066656520726563697069656e7400000000000000000000006044820152606490fd5b604051631e4fbdf760e01b815260006004820152602490fd5b600080fd5b634e487b7160e01b600052604160045260246000fdfe6080604081815260048036101561001557600080fd5b600092833560e01c9081631554823214610f2d575080631f5754c014610d885780633f4ba83a14610d1f578063402ff0db14610c0857806349bbf7da14610beb57806357520d2014610b775780635c975abb14610b53578063664ba84b14610b0b57806367b3fcb014610aef57806368c4ac2614610ab15780636d69fcaf14610a07578063715018a6146109a6578063763191901461094057806383c4b7a3146108c05780638456cb591461086657806387c139431461084a5780638da5cb5b1461081d578063ab3dd949146107c4578063cd2bf12414610460578063e27f93701461031d578063eb13554f146102f4578063ec59877e1461026e578063f2fde38b146101d25763f5fe7f711461012b57600080fd5b346101ce5760203660031901126101ce57610144610f6b565b61014c610fef565b6001600160a01b0316918215610197575050600380546001600160a01b031916821790557fba887708e7d4436dd36b62187bdced03e0b9abe66caf392a66dd84386641b2098280a280f35b906020606492519162461bcd60e51b83528201526011602482015270125b9d985b1a59081c9958da5c1a595b9d607a1b6044820152fd5b8280fd5b50346101ce5760203660031901126101ce576101ec610f6b565b6101f4610fef565b6001600160a01b0381811693909290841561025857505060018054610100600160a81b03198116600893841b610100600160a81b031617909155901c167f8be0079c531659141344cd1fd0a4f28419497f9722a3daafe3b4186f6b6457e08380a380f35b51631e4fbdf760e01b8152908101859052602490fd5b5050346102f057602090816003193601126101ce576001600160a01b03610293610f6b565b168352600782528083209281518093808654928381520195835280832092905b8282106102d9576102d586866102cb828b0383611050565b5191829182610f86565b0390f35b8354875295860195600193840193909101906102b3565b5080fd5b5050346102f057816003193601126102f05760035490516001600160a01b039091168152602090f35b508290346102f05760203660031901126102f05780359061033c611132565b818352600560205283832080546001600160a01b03929161036c9184163314908490821561044f575b5050611155565b828452600560205284842090600682019081549060ff8216600581101561043c57600161039991146111a1565b808401544210156103f957509060036103ce94939260ff191617905560038260028301541692600183015416910154916111e6565b7f83db11557caa3518e394ee3589033b042b4f03f0ed0495a829208e71bfa37f058280a26001815580f35b606490602089519162461bcd60e51b8352820152601760248201527f53657373696f6e20616c726561647920737461727465640000000000000000006044820152fd5b634e487b7160e01b885260218252602488fd5b600191925001541633148388610365565b50346101ce5760a03660031901126101ce5761047a610f6b565b6001600160a01b03939092906024803586811691908290036101ce5760443594606495863590608435926104ac611132565b6104b4611114565b85875260209960028b5260ff89892054161561078d578b169485151580610783575b1561075157821561071f57428411156106e95784156106b5578154996000198b146106a3578888888f8f968f96988f969160059a8c9360018f96888f8f8f8f8f918f9196808f96988f96958f969a8f9b60069c8e8801905583519b61053a8d61101e565b8c52808c0196338852848d0198895260608d01998a5260808d019a8b5260a08d019b8c5260c08d019e8f5283525220975116916bffffffffffffffffffffffff60a01b9283895416178855816001890191511683825416179055600287019251169082541617905551600384015551878301555160058201550190519d8e1015610691578c9d60ff8019835416911617905586895260068c526105df8b8b8b20611072565b33895260078c526105f28b8b8b20611072565b83818b519e8f906323b872dd60e01b90820152338582015230604482015201528c5260a08c01918c831067ffffffffffffffff8411176106805750508798999a6106409160019952866110ac565b875194855289850152868401526060830152857fafb30f2fb7b1a22d2c1ebce5ade2b90ae0f6d539e804ce2e60f6a900ac3a4b4960803394a45551908152f35b634e487b7160e01b89526041905287fd5b634e487b7160e01b8a5260218452828afd5b50634e487b7160e01b88526011825287fd5b885162461bcd60e51b81529182018b90526010908201526f24b73b30b634b210323ab930ba34b7b760811b60448201528890fd5b885162461bcd60e51b81529182018b905260129082015271496e76616c69642073746172742074696d6560701b60448201528890fd5b885162461bcd60e51b81529182018b9052600e908201526d125b9d985b1a5908185b5bdd5b9d60921b60448201528890fd5b885162461bcd60e51b81529182018b9052600e908201526d24b73b30b634b21036b2b73a37b960911b60448201528890fd5b50338614156104d6565b885162461bcd60e51b81528083018c905260138188015272151bdad95b881b9bdd081cdd5c1c1bdc9d1959606a1b60448201528a90fd5b5050346102f057806003193601126102f0576107de610f6b565b6001600160a01b0316825260066020528082208054602435939084101561081a575060209261080c91610fc1565b91905490519160031b1c8152f35b80fd5b5050346102f057816003193601126102f057600154905160089190911c6001600160a01b03168152602090f35b5050346102f057816003193601126102f0576020905160648152f35b5050346102f057816003193601126102f05760207f62e78cea01bee320cd4e420270b5ea74000d11b0c9f74754ebdbfc544b05a258916108a4610fef565b6108ac611114565b600160ff198154161760015551338152a180f35b5090346101ce5760203660031901126101ce578061093e9160e0948435815260056020522060018060a01b0391828254169483600184015416936002840154166003840154918401549260ff600660058701549601541695815198895260208901528701526060860152608085015260a084015260c0830190610f48565bf35b5050346102f05760203660031901126102f05761095b610f6b565b610963610fef565b6001600160a01b03168083526002602052908220805460ff191690557f4c910b69fe65a61f7531b9c5042b2329ca7179c77290aa7e2eb3afa3c8511fd38280a280f35b833461081a578060031936011261081a576109bf610fef565b60018054610100600160a81b03198116909155819060081c6001600160a01b03167f8be0079c531659141344cd1fd0a4f28419497f9722a3daafe3b4186f6b6457e08280a380f35b5090346101ce5760203660031901126101ce57610a22610f6b565b610a2a610fef565b6001600160a01b0316918215610a77575081835260026020528220805460ff191660011790557f784c8f4dbf0ffedd6e72c76501c545a70f8b203b30a26ce542bf92ba87c248a48280a280f35b6020606492519162461bcd60e51b83528201526015602482015274496e76616c696420746f6b656e206164647265737360581b6044820152fd5b5050346102f05760203660031901126102f05760209160ff9082906001600160a01b03610adc610f6b565b1681526002855220541690519015158152f35b5050346102f057816003193601126102f05760209051605a8152f35b5050346102f057806003193601126102f057610b25610f6b565b6001600160a01b0316825260076020528082208054602435939084101561081a575060209261080c91610fc1565b5050346102f057816003193601126102f05760209060ff6001541690519015158152f35b5050346102f057602090816003193601126101ce576001600160a01b03610b9c610f6b565b168352600682528083209281518093808654928381520195835280832092905b828210610bd4576102d586866102cb828b0383611050565b835487529586019560019384019390910190610bbc565b50346101ce57826003193601126101ce5760209250549051908152f35b50913461081a57602036600319011261081a578060c08351610c298161101e565b82815282602082015282858201528260608201528260808201528260a08201520152823581526005602052818120825192610c638461101e565b60018060a01b0380835416855280600184015416916020860192835281600285015416918187019283526003850154926060880193845288860154946080890195865260ff600660058901549860a08c01998a5201541660c08a01986005821015610d0c5760e08b61093e8c8c8c8c8c8c8c818d8d89528185519b51168b52511660208a01525116908701525160608601525160808501525160a08401525160c0830190610f48565b634e487b7160e01b815260218c52602490fd5b50346101ce57826003193601126101ce57610d38610fef565b6001549060ff821615610d7a575060ff1916600155513381527f5db9ee0a495bf2e6ff9c91a7834c1ba4fdd244a5e8aa4e537bd38aeae4b073aa90602090a180f35b8251638dfc202b60e01b8152fd5b509190346102f05760203660031901126102f057823590610da7611132565b818352600560205280832080546001600160a01b0391610dd591831633149083908215610f1c575050611155565b828452600560205281842060068101805460ff81166005811015610f09576001610dff91146111a1565b8783015460058401548101809111610ef6574210610ebc5760029060ff1916179055600381015491600a8302838104600a1484151715610ea9576064900491828403938411610ea957828285949383610e8a7fdd106c9c3f24f80fe23b63d807dbc109af232921a35b6df85d12be9877f8ab3599986002610e979701928480855416915416906111e6565b54169060035416906111e6565b82519182526020820152a26001815580f35b634e487b7160e01b875260118852602487fd5b845162461bcd60e51b81526020818a0152601460248201527314d95cdcda5bdb881b9bdd08199a5b9a5cda195960621b6044820152606490fd5b634e487b7160e01b885260118952602488fd5b634e487b7160e01b885260218952602488fd5b600191925001541633148238610365565b8490346102f057816003193601126102f05780600a60209252f35b906005821015610f555752565b634e487b7160e01b600052602160045260246000fd5b600435906001600160a01b0382168203610f8157565b600080fd5b6020908160408183019282815285518094520193019160005b828110610fad575050505090565b835185529381019392810192600101610f9f565b8054821015610fd95760005260206000200190600090565b634e487b7160e01b600052603260045260246000fd5b60015460081c6001600160a01b0316330361100657565b60405163118cdaa760e01b8152336004820152602490fd5b60e0810190811067ffffffffffffffff82111761103a57604052565b634e487b7160e01b600052604160045260246000fd5b90601f8019910116810190811067ffffffffffffffff82111761103a57604052565b80546801000000000000000081101561103a5761109491600182018155610fc1565b819291549060031b91821b91600019901b1916179055565b906000602091828151910182855af115611108576000513d6110ff57506001600160a01b0381163b155b6110dd5750565b604051635274afe760e01b81526001600160a01b039091166004820152602490fd5b600114156110d6565b6040513d6000823e3d90fd5b60ff6001541661112057565b60405163d93c066560e01b8152600490fd5b600260005414611143576002600055565b604051633ee5aeb560e01b8152600490fd5b1561115c57565b60405162461bcd60e51b815260206004820152601760248201527f4e6f742073657373696f6e207061727469636970616e740000000000000000006044820152606490fd5b156111a857565b60405162461bcd60e51b8152602060048201526016602482015275496e76616c69642073657373696f6e2073746174757360501b6044820152606490fd5b60405163a9059cbb60e01b60208201526001600160a01b039092166024830152604480830193909352918152608081019167ffffffffffffffff83118284101761103a57611236926040526110ac565b56fea164736f6c6343000814000a",
  "devdoc": {
    "details": "Smart contract for Chain Academy V2 mentorship platform Handles escrow, payment distribution, and multi-token support",
    "errors": {
      "EnforcedPause()": [
        {
          "details": "The operation failed because the contract is paused."
        }
      ],
      "ExpectedPause()": [
        {
          "details": "The operation failed because the contract is not paused."
        }
      ],
      "OwnableInvalidOwner(address)": [
        {
          "details": "The owner is not a valid owner account. (eg. `address(0)`)"
        }
      ],
      "OwnableUnauthorizedAccount(address)": [
        {
          "details": "The caller account is not authorized to perform an operation."
        }
      ],
      "ReentrancyGuardReentrantCall()": [
        {
          "details": "Unauthorized reentrant call."
        }
      ],
      "SafeERC20FailedOperation(address)": [
        {
          "details": "An operation with an ERC-20 token failed."
        }
      ]
    },
    "events": {
      "Paused(address)": {
        "details": "Emitted when the pause is triggered by `account`."
      },
      "Unpaused(address)": {
        "details": "Emitted when the pause is lifted by `account`."
      }
    },
    "kind": "dev",
    "methods": {
      "addSupportedToken(address)": {
        "details": "Add a supported payment token",
        "params": {
          "token": "Address of the token to add"
        }
      },
      "cancelSession(uint256)": {
        "details": "Cancel a mentorship session before it starts",
        "params": {
          "sessionId": "ID of the session to cancel"
        }
      },
      "completeSession(uint256)": {
        "details": "Complete a mentorship session and distribute payments",
        "params": {
          "sessionId": "ID of the session to complete"
        }
      },
      "constructor": {
        "details": "Constructor",
        "params": {
          "_platformFeeRecipient": "Address to receive platform fees"
        }
      },
      "createSession(address,address,uint256,uint256,uint256)": {
        "details": "Create a new mentorship session with escrow",
        "params": {
          "amount": "Payment amount",
          "duration": "Session duration in seconds",
          "mentor": "Address of the mentor",
          "paymentToken": "Address of the payment token (USDT/USDC)",
          "startTime": "Session start time"
        }
      },
      "getMenteeSessions(address)": {
        "details": "Get mentee's session IDs",
        "params": {
          "mentee": "Address of the mentee"
        }
      },
      "getMentorSessions(address)": {
        "details": "Get mentor's session IDs",
        "params": {
          "mentor": "Address of the mentor"
        }
      },
      "getSession(uint256)": {
        "details": "Get session details",
        "params": {
          "sessionId": "ID of the session"
        }
      },
      "owner()": {
        "details": "Returns the address of the current owner."
      },
      "pause()": {
        "details": "Pause the contract"
      },
      "paused()": {
        "details": "Returns true if the contract is paused, and false otherwise."
      },
      "removeSupportedToken(address)": {
        "details": "Remove a supported payment token",
        "params": {
          "token": "Address of the token to remove"
        }
      },
      "renounceOwnership()": {
        "details": "Leaves the contract without owner. It will not be possible to call `onlyOwner` functions. Can only be called by the current owner. NOTE: Renouncing ownership will leave the contract without an owner, thereby disabling any functionality that is only available to the owner."
      },
      "transferOwnership(address)": {
        "details": "Transfers ownership of the contract to a new account (`newOwner`). Can only be called by the current owner."
      },
      "unpause()": {
        "details": "Unpause the contract"
      },
      "updatePlatformFeeRecipient(address)": {
        "details": "Update platform fee recipient",
        "params": {
          "newRecipient": "New recipient address"
        }
      }
    },
    "title": "Mentorship",
    "version": 1
  },
  "userdoc": {
    "kind": "user",
    "methods": {},
    "version": 1
  },
  "storageLayout": {
    "storage": [
      {
        "astId": 1606,
        "contract": "contracts/Mentorship.sol:Mentorship",
        "label": "_status",
        "offset": 0,
        "slot": "0",
        "type": "t_uint256"
      },
      {
        "astId": 1496,
        "contract": "contracts/Mentorship.sol:Mentorship",
        "label": "_paused",
        "offset": 0,
        "slot": "1",
        "type": "t_bool"
      },
      {
        "astId": 8,
        "contract": "contracts/Mentorship.sol:Mentorship",
        "label": "_owner",
        "offset": 1,
        "slot": "1",
        "type": "t_address"
      },
      {
        "astId": 1707,
        "contract": "contracts/Mentorship.sol:Mentorship",
        "label": "supportedTokens",
        "offset": 0,
        "slot": "2",
        "type": "t_mapping(t_address,t_bool)"
      },
      {
        "astId": 1709,
        "contract": "contracts/Mentorship.sol:Mentorship",
        "label": "platformFeeRecipient",
        "offset": 0,
        "slot": "3",
        "type": "t_address"
      },
      {
        "astId": 1733,
        "contract": "contracts/Mentorship.sol:Mentorship",
        "label": "nextSessionId",
        "offset": 0,
        "slot": "4",
        "type": "t_uint256"
      },
      {
        "astId": 1738,
        "contract": "contracts/Mentorship.sol:Mentorship",
        "label": "sessions",
        "offset": 0,
        "slot": "5",
        "type": "t_mapping(t_uint256,t_struct(MentorshipSession)1725_storage)"
      },
      {
        "astId": 1743,
        "contract": "contracts/Mentorship.sol:Mentorship",
        "label": "mentorSessions",
        "offset": 0,
        "slot": "6",
        "type": "t_mapping(t_address,t_array(t_uint256)dyn_storage)"
      },
      {
        "astId": 1748,
        "contract": "contracts/Mentorship.sol:Mentorship",
        "label": "menteeSessions",
        "offset": 0,
        "slot": "7",
        "type": "t_mapping(t_address,t_array(t_uint256)dyn_storage)"
      }
    ],
    "types": {
      "t_address": {
        "encoding": "inplace",
        "label": "address",
        "numberOfBytes": "20"
      },
      "t_array(t_uint256)dyn_storage": {
        "base": "t_uint256",
        "encoding": "dynamic_array",
        "label": "uint256[]",
        "numberOfBytes": "32"
      },
      "t_bool": {
        "encoding": "inplace",
        "label": "bool",
        "numberOfBytes": "1"
      },
      "t_enum(SessionStatus)1731": {
        "encoding": "inplace",
        "label": "enum Mentorship.SessionStatus",
        "numberOfBytes": "1"
      },
      "t_mapping(t_address,t_array(t_uint256)dyn_storage)": {
        "encoding": "mapping",
        "key": "t_address",
        "label": "mapping(address => uint256[])",
        "numberOfBytes": "32",
        "value": "t_array(t_uint256)dyn_storage"
      },
      "t_mapping(t_address,t_bool)": {
        "encoding": "mapping",
        "key": "t_address",
        "label": "mapping(address => bool)",
        "numberOfBytes": "32",
        "value": "t_bool"
      },
      "t_mapping(t_uint256,t_struct(MentorshipSession)1725_storage)": {
        "encoding": "mapping",
        "key": "t_uint256",
        "label": "mapping(uint256 => struct Mentorship.MentorshipSession)",
        "numberOfBytes": "32",
        "value": "t_struct(MentorshipSession)1725_storage"
      },
      "t_struct(MentorshipSession)1725_storage": {
        "encoding": "inplace",
        "label": "struct Mentorship.MentorshipSession",
        "members": [
          {
            "astId": 1711,
            "contract": "contracts/Mentorship.sol:Mentorship",
            "label": "mentor",
            "offset": 0,
            "slot": "0",
            "type": "t_address"
          },
          {
            "astId": 1713,
            "contract": "contracts/Mentorship.sol:Mentorship",
            "label": "mentee",
            "offset": 0,
            "slot": "1",
            "type": "t_address"
          },
          {
            "astId": 1715,
            "contract": "contracts/Mentorship.sol:Mentorship",
            "label": "paymentToken",
            "offset": 0,
            "slot": "2",
            "type": "t_address"
          },
          {
            "astId": 1717,
            "contract": "contracts/Mentorship.sol:Mentorship",
            "label": "amount",
            "offset": 0,
            "slot": "3",
            "type": "t_uint256"
          },
          {
            "astId": 1719,
            "contract": "contracts/Mentorship.sol:Mentorship",
            "label": "startTime",
            "offset": 0,
            "slot": "4",
            "type": "t_uint256"
          },
          {
            "astId": 1721,
            "contract": "contracts/Mentorship.sol:Mentorship",
            "label": "duration",
            "offset": 0,
            "slot": "5",
            "type": "t_uint256"
          },
          {
            "astId": 1724,
            "contract": "contracts/Mentorship.sol:Mentorship",
            "label": "status",
            "offset": 0,
            "slot": "6",
            "type": "t_enum(SessionStatus)1731"
          }
        ],
        "numberOfBytes": "224"
      },
      "t_uint256": {
        "encoding": "inplace",
        "label": "uint256",
        "numberOfBytes": "32"
      }
    }
  }
}