{"contracts/ProgressiveEscrowV3.sol":{"ProgressiveEscrowV3":{"abi":[{"inputs":[{"internalType":"address","name":"_platformWallet","type":"address"}],"stateMutability":"nonpayable","type":"constructor"},{"inputs":[],"name":"EnforcedPause","type":"error"},{"inputs":[],"name":"ExpectedPause","type":"error"},{"inputs":[{"internalType":"address","name":"owner","type":"address"}],"name":"OwnableInvalidOwner","type":"error"},{"inputs":[{"internalType":"address","name":"account","type":"address"}],"name":"OwnableUnauthorizedAccount","type":"error"},{"inputs":[],"name":"ReentrancyGuardReentrantCall","type":"error"},{"inputs":[{"internalType":"address","name":"token","type":"address"}],"name":"SafeERC20FailedOperation","type":"error"},{"anonymous":false,"inputs":[{"indexed":true,"internalType":"bytes32","name":"sessionId","type":"bytes32"},{"indexed":false,"internalType":"uint256","name":"amount","type":"uint256"},{"indexed":false,"internalType":"string","name":"reason","type":"string"}],"name":"EmergencyRelease","type":"event"},{"anonymous":false,"inputs":[{"indexed":true,"internalType":"bytes32","name":"sessionId","type":"bytes32"},{"indexed":false,"internalType":"uint256","name":"timestamp","type":"uint256"}],"name":"HeartbeatReceived","type":"event"},{"anonymous":false,"inputs":[{"indexed":true,"internalType":"address","name":"previousOwner","type":"address"},{"indexed":true,"internalType":"address","name":"newOwner","type":"address"}],"name":"OwnershipTransferred","type":"event"},{"anonymous":false,"inputs":[{"indexed":false,"internalType":"address","name":"account","type":"address"}],"name":"Paused","type":"event"},{"anonymous":false,"inputs":[{"indexed":true,"internalType":"bytes32","name":"sessionId","type":"bytes32"},{"indexed":false,"internalType":"uint256","name":"releasedAmount","type":"uint256"},{"indexed":false,"internalType":"uint256","name":"totalReleased","type":"uint256"},{"indexed":false,"internalType":"uint256","name":"timestamp","type":"uint256"}],"name":"ProgressivePaymentReleased","type":"event"},{"anonymous":false,"inputs":[{"indexed":true,"internalType":"bytes32","name":"sessionId","type":"bytes32"},{"indexed":false,"internalType":"uint256","name":"refundAmount","type":"uint256"},{"indexed":false,"internalType":"uint256","name":"timestamp","type":"uint256"}],"name":"SessionCancelled","type":"event"},{"anonymous":false,"inputs":[{"indexed":true,"internalType":"bytes32","name":"sessionId","type":"bytes32"},{"indexed":false,"internalType":"uint256","name":"finalAmount","type":"uint256"},{"indexed":false,"internalType":"uint256","name":"platformFee","type":"uint256"},{"indexed":false,"internalType":"uint256","name":"timestamp","type":"uint256"}],"name":"SessionCompleted","type":"event"},{"anonymous":false,"inputs":[{"indexed":true,"internalType":"bytes32","name":"sessionId","type":"bytes32"},{"indexed":true,"internalType":"address","name":"student","type":"address"},{"indexed":true,"internalType":"address","name":"mentor","type":"address"},{"indexed":false,"internalType":"uint256","name":"amount","type":"uint256"},{"indexed":false,"internalType":"address","name":"token","type":"address"}],"name":"SessionCreated","type":"event"},{"anonymous":false,"inputs":[{"indexed":true,"internalType":"bytes32","name":"sessionId","type":"bytes32"},{"indexed":false,"internalType":"uint256","name":"timestamp","type":"uint256"},{"indexed":false,"internalType":"string","name":"reason","type":"string"}],"name":"SessionPaused","type":"event"},{"anonymous":false,"inputs":[{"indexed":true,"internalType":"bytes32","name":"sessionId","type":"bytes32"},{"indexed":false,"internalType":"uint256","name":"timestamp","type":"uint256"}],"name":"SessionResumed","type":"event"},{"anonymous":false,"inputs":[{"indexed":true,"internalType":"bytes32","name":"sessionId","type":"bytes32"},{"indexed":false,"internalType":"uint256","name":"timestamp","type":"uint256"}],"name":"SessionStarted","type":"event"},{"anonymous":false,"inputs":[{"indexed":false,"internalType":"address","name":"account","type":"address"}],"name":"Unpaused","type":"event"},{"inputs":[],"name":"AUTO_RELEASE_DELAY","outputs":[{"internalType":"uint256","name":"","type":"uint256"}],"stateMutability":"view","type":"function"},{"inputs":[],"name":"GRACE_PERIOD","outputs":[{"internalType":"uint256","name":"","type":"uint256"}],"stateMutability":"view","type":"function"},{"inputs":[],"name":"HEARTBEAT_INTERVAL","outputs":[{"internalType":"uint256","name":"","type":"uint256"}],"stateMutability":"view","type":"function"},{"inputs":[],"name":"PLATFORM_FEE_PERCENT","outputs":[{"internalType":"uint256","name":"","type":"uint256"}],"stateMutability":"view","type":"function"},{"inputs":[],"name":"PROGRESSIVE_RELEASE_INTERVAL","outputs":[{"internalType":"uint256","name":"","type":"uint256"}],"stateMutability":"view","type":"function"},{"inputs":[{"internalType":"address","name":"token","type":"address"}],"name":"addSupportedToken","outputs":[],"stateMutability":"nonpayable","type":"function"},{"inputs":[{"internalType":"bytes32","name":"sessionId","type":"bytes32"}],"name":"autoCompleteSession","outputs":[],"stateMutability":"nonpayable","type":"function"},{"inputs":[{"internalType":"uint256","name":"totalAmount","type":"uint256"},{"internalType":"uint256","name":"elapsedMinutes","type":"uint256"},{"internalType":"uint256","name":"durationMinutes","type":"uint256"}],"name":"calculateMaxRelease","outputs":[{"internalType":"uint256","name":"","type":"uint256"}],"stateMutability":"pure","type":"function"},{"inputs":[{"internalType":"bytes32","name":"sessionId","type":"bytes32"}],"name":"cancelSession","outputs":[],"stateMutability":"nonpayable","type":"function"},{"inputs":[{"internalType":"bytes32","name":"sessionId","type":"bytes32"},{"internalType":"uint256","name":"rating","type":"uint256"},{"internalType":"string","name":"feedback","type":"string"}],"name":"completeSession","outputs":[],"stateMutability":"nonpayable","type":"function"},{"inputs":[{"internalType":"bytes32","name":"sessionId","type":"bytes32"},{"internalType":"address","name":"mentor","type":"address"},{"internalType":"address","name":"paymentToken","type":"address"},{"internalType":"uint256","name":"amount","type":"uint256"},{"internalType":"uint256","name":"durationMinutes","type":"uint256"},{"internalType":"uint256","name":"nonce","type":"uint256"}],"name":"createProgressiveSession","outputs":[],"stateMutability":"nonpayable","type":"function"},{"inputs":[{"internalType":"bytes32","name":"sessionId","type":"bytes32"},{"internalType":"address","name":"recipient","type":"address"},{"internalType":"uint256","name":"amount","type":"uint256"},{"internalType":"string","name":"reason","type":"string"}],"name":"emergencyRelease","outputs":[],"stateMutability":"nonpayable","type":"function"},{"inputs":[{"internalType":"bytes32","name":"sessionId","type":"bytes32"}],"name":"getAvailablePayment","outputs":[{"internalType":"uint256","name":"","type":"uint256"}],"stateMutability":"view","type":"function"},{"inputs":[{"internalType":"bytes32","name":"sessionId","type":"bytes32"}],"name":"getEffectiveElapsedTime","outputs":[{"internalType":"uint256","name":"","type":"uint256"}],"stateMutability":"view","type":"function"},{"inputs":[{"internalType":"bytes32","name":"sessionId","type":"bytes32"}],"name":"getSession","outputs":[{"components":[{"internalType":"bytes32","name":"sessionId","type":"bytes32"},{"internalType":"address","name":"student","type":"address"},{"internalType":"address","name":"mentor","type":"address"},{"internalType":"address","name":"paymentToken","type":"address"},{"internalType":"uint256","name":"totalAmount","type":"uint256"},{"internalType":"uint256","name":"releasedAmount","type":"uint256"},{"internalType":"uint256","name":"sessionDuration","type":"uint256"},{"internalType":"uint256","name":"startTime","type":"uint256"},{"internalType":"uint256","name":"lastHeartbeat","type":"uint256"},{"internalType":"uint256","name":"pausedTime","type":"uint256"},{"internalType":"uint256","name":"createdAt","type":"uint256"},{"internalType":"enum ProgressiveEscrowV3.SessionStatus","name":"status","type":"uint8"},{"internalType":"bool","name":"isActive","type":"bool"},{"internalType":"bool","name":"isPaused","type":"bool"},{"internalType":"bool","name":"surveyCompleted","type":"bool"}],"internalType":"struct ProgressiveEscrowV3.ProgressiveSession","name":"","type":"tuple"}],"stateMutability":"view","type":"function"},{"inputs":[{"internalType":"address","name":"user","type":"address"}],"name":"getUserNonce","outputs":[{"internalType":"uint256","name":"","type":"uint256"}],"stateMutability":"view","type":"function"},{"inputs":[{"internalType":"bytes32","name":"sessionId","type":"bytes32"}],"name":"needsHeartbeat","outputs":[{"internalType":"bool","name":"","type":"bool"}],"stateMutability":"view","type":"function"},{"inputs":[],"name":"owner","outputs":[{"internalType":"address","name":"","type":"address"}],"stateMutability":"view","type":"function"},{"inputs":[],"name":"pause","outputs":[],"stateMutability":"nonpayable","type":"function"},{"inputs":[{"internalType":"bytes32","name":"sessionId","type":"bytes32"}],"name":"pauseSession","outputs":[],"stateMutability":"nonpayable","type":"function"},{"inputs":[],"name":"paused","outputs":[{"internalType":"bool","name":"","type":"bool"}],"stateMutability":"view","type":"function"},{"inputs":[],"name":"platformWallet","outputs":[{"internalType":"address","name":"","type":"address"}],"stateMutability":"view","type":"function"},{"inputs":[{"internalType":"bytes32","name":"sessionId","type":"bytes32"}],"name":"releaseProgressivePayment","outputs":[],"stateMutability":"nonpayable","type":"function"},{"inputs":[{"internalType":"address","name":"token","type":"address"}],"name":"removeSupportedToken","outputs":[],"stateMutability":"nonpayable","type":"function"},{"inputs":[],"name":"renounceOwnership","outputs":[],"stateMutability":"nonpayable","type":"function"},{"inputs":[{"internalType":"bytes32","name":"sessionId","type":"bytes32"}],"name":"resumeSession","outputs":[],"stateMutability":"nonpayable","type":"function"},{"inputs":[{"internalType":"bytes32","name":"","type":"bytes32"}],"name":"sessions","outputs":[{"internalType":"bytes32","name":"sessionId","type":"bytes32"},{"internalType":"address","name":"student","type":"address"},{"internalType":"address","name":"mentor","type":"address"},{"internalType":"address","name":"paymentToken","type":"address"},{"internalType":"uint256","name":"totalAmount","type":"uint256"},{"internalType":"uint256","name":"releasedAmount","type":"uint256"},{"internalType":"uint256","name":"sessionDuration","type":"uint256"},{"internalType":"uint256","name":"startTime","type":"uint256"},{"internalType":"uint256","name":"lastHeartbeat","type":"uint256"},{"internalType":"uint256","name":"pausedTime","type":"uint256"},{"internalType":"uint256","name":"createdAt","type":"uint256"},{"internalType":"enum ProgressiveEscrowV3.SessionStatus","name":"status","type":"uint8"},{"internalType":"bool","name":"isActive","type":"bool"},{"internalType":"bool","name":"isPaused","type":"bool"},{"internalType":"bool","name":"surveyCompleted","type":"bool"}],"stateMutability":"view","type":"function"},{"inputs":[{"internalType":"bytes32","name":"sessionId","type":"bytes32"}],"name":"shouldAutoPause","outputs":[{"internalType":"bool","name":"","type":"bool"}],"stateMutability":"view","type":"function"},{"inputs":[{"internalType":"bytes32","name":"sessionId","type":"bytes32"}],"name":"startProgressiveSession","outputs":[],"stateMutability":"nonpayable","type":"function"},{"inputs":[{"internalType":"address","name":"","type":"address"}],"name":"supportedTokens","outputs":[{"internalType":"bool","name":"","type":"bool"}],"stateMutability":"view","type":"function"},{"inputs":[{"internalType":"address","name":"newOwner","type":"address"}],"name":"transferOwnership","outputs":[],"stateMutability":"nonpayable","type":"function"},{"inputs":[],"name":"unpause","outputs":[],"stateMutability":"nonpayable","type":"function"},{"inputs":[{"internalType":"bytes32","name":"sessionId","type":"bytes32"}],"name":"updateHeartbeat","outputs":[],"stateMutability":"nonpayable","type":"function"},{"inputs":[{"internalType":"address","name":"newWallet","type":"address"}],"name":"updatePlatformWallet","outputs":[],"stateMutability":"nonpayable","type":"function"},{"inputs":[{"internalType":"bytes32","name":"","type":"bytes32"}],"name":"usedSessionIds","outputs":[{"internalType":"bool","name":"","type":"bool"}],"stateMutability":"view","type":"function"},{"inputs":[{"internalType":"address","name":"","type":"address"}],"name":"userNonces","outputs":[{"internalType":"uint256","name":"","type":"uint256"}],"stateMutability":"view","type":"function"}],"devdoc":{"details":"Revolutionary progressive payment system for mentorship sessions  Payment Flow: - Continuous release proportional to time elapsed (e.g., $100/hour = $5 every 3 minutes) - Uses blockchain timestamp (block.timestamp) as source of truth - Heartbeat system ensures session is active - Auto-pause payment if WebRTC connection drops - Grace period of 2 minutes for reconnection before pausing","errors":{"EnforcedPause()":[{"details":"The operation failed because the contract is paused."}],"ExpectedPause()":[{"details":"The operation failed because the contract is not paused."}],"OwnableInvalidOwner(address)":[{"details":"The owner is not a valid owner account. (eg. `address(0)`)"}],"OwnableUnauthorizedAccount(address)":[{"details":"The caller account is not authorized to perform an operation."}],"ReentrancyGuardReentrantCall()":[{"details":"Unauthorized reentrant call."}],"SafeERC20FailedOperation(address)":[{"details":"An operation with an ERC-20 token failed."}]},"events":{"Paused(address)":{"details":"Emitted when the pause is triggered by `account`."},"Unpaused(address)":{"details":"Emitted when the pause is lifted by `account`."}},"kind":"dev","methods":{"addSupportedToken(address)":{"details":"Add supported payment token (USDC/USDT)"},"autoCompleteSession(bytes32)":{"details":"Auto-complete session after 7 days timeout"},"calculateMaxRelease(uint256,uint256,uint256)":{"details":"Calculate maximum release amount based on time elapsed"},"cancelSession(bytes32)":{"details":"Cancel session before it starts - full refund to student"},"completeSession(bytes32,uint256,string)":{"details":"Complete session with final payment and platform fee"},"createProgressiveSession(bytes32,address,address,uint256,uint256,uint256)":{"details":"Create new progressive mentorship session with escrowed payment","params":{"nonce":"User nonce for replay protection"}},"emergencyRelease(bytes32,address,uint256,string)":{"details":"Emergency release function (owner only)"},"getAvailablePayment(bytes32)":{"details":"Get available payment amount for release"},"getEffectiveElapsedTime(bytes32)":{"details":"Get effective elapsed time (excluding paused periods)"},"getSession(bytes32)":{"details":"Get session details"},"getUserNonce(address)":{"details":"Get current nonce for user (for frontend to use)"},"needsHeartbeat(bytes32)":{"details":"Check if session needs heartbeat (for auto-pause)"},"owner()":{"details":"Returns the address of the current owner."},"pause()":{"details":"Pause contract (owner only)"},"pauseSession(bytes32)":{"details":"Pause session (internal or external call)"},"paused()":{"details":"Returns true if the contract is paused, and false otherwise."},"releaseProgressivePayment(bytes32)":{"details":"Release progressive payment based on time elapsed Called every 3 minutes during active session"},"removeSupportedToken(address)":{"details":"Remove supported payment token"},"renounceOwnership()":{"details":"Leaves the contract without owner. It will not be possible to call `onlyOwner` functions. Can only be called by the current owner. NOTE: Renouncing ownership will leave the contract without an owner, thereby disabling any functionality that is only available to the owner."},"resumeSession(bytes32)":{"details":"Resume session"},"shouldAutoPause(bytes32)":{"details":"Check if session should be auto-paused"},"startProgressiveSession(bytes32)":{"details":"Start progressive session Called when WebRTC connection is established"},"transferOwnership(address)":{"details":"Transfers ownership of the contract to a new account (`newOwner`). Can only be called by the current owner."},"unpause()":{"details":"Unpause contract (owner only)"},"updateHeartbeat(bytes32)":{"details":"Update heartbeat to keep session active Called every 30 seconds by frontend"},"updatePlatformWallet(address)":{"details":"Update platform wallet (owner only)"}},"title":"ProgressiveEscrowV3","version":1},"evm":{"bytecode":{"linkReferences":{},"object":"6080346200013e57601f62002af838819003918201601f19168301916001600160401b0383118484101762000143578084926020946040528339810103126200013e57516001600160a01b03808216918290036200013e5760016000553315620001255760018054610100600160a81b0319811633600881811b610100600160a81b0316929092179093556040519391901c167f8be0079c531659141344cd1fd0a4f28419497f9722a3daafe3b4186f6b6457e0600080a38115620000e35750600480546001600160a01b03191691909117905560405161299e90816200015a8239f35b62461bcd60e51b815260206004820152601760248201527f496e76616c696420706c6174666f726d2077616c6c65740000000000000000006044820152606490fd5b604051631e4fbdf760e01b815260006004820152602490fd5b600080fd5b634e487b7160e01b600052604160045260246000fdfe6080604052600436101561001257600080fd5b60003560e01c806302ceb40614611ea157806309499aa614611e835780631ac6af0314611e5f5780631c8b14a014611e2e5780632b8a5f3b14611c9f5780632f7801f41461153357806334d1c8fe14611c83578063363ec29814611c6757806339b240bd14611a4c5780633a17ba64146117b15780633f4ba83a146117475780634d213982146115ca578063560d52d4146115ae578063590a2cc1146115905780635c975abb1461156d5780636834e3a81461153357806368c4ac26146114f45780636baae9cc146114cc5780636d69fcaf14611444578063715018a6146113e357806376319190146113a157806379d55e771461120b5780637ac1b46914610fd65780637dbd283214610eed5780638456cb5914610e945780638da5cb5b14610e67578063962db93b14610e4957806399173d6b14610cdc578063ada4ef3014610c51578063b817be4c14610ae6578063c1a287e214610aca578063ccb868dd146107d8578063e906826c146107b2578063f2fde38b14610719578063f400272b146101d65763fa2af9da146101a857600080fd5b346101d15760003660031901126101d1576004546040516001600160a01b039091168152602090f35b600080fd5b346101d15760c03660031901126101d1576101ef612142565b604480356001600160a01b038116908190036101d1576064928335926084359161021761228d565b61021f61226f565b6001600160a01b03169485156106de573386146106a35783600052600360205260ff604060002054161561066157841561061f5782156105dd576004356000908152600260205260409020600101546001600160a01b03166105a25733600052600560205260406000205460a4350361057057600435600052600660205260ff6040600020541661052e5733600052600560205260406000208054600019811461051857600101905560043560005260066020526040600020600160ff19825416179055604051916323b872dd60e01b602084015233602484015230908301528481830152815260a081019080821067ffffffffffffffff8311176105025761032b9160405283612207565b60405190610338826121c2565b6004358252336020830152846040830152826060830152836080830152600060a083015260c0820152600060e082015260006101008201526000610120820152426101408201526000610160820152600061018082015260006101a082015260006101c08201526004356000526002602052600b6040600020825181556001810160018060a01b03602085015116906bffffffffffffffffffffffff60a01b91828254161790556002820160018060a01b0360408601511682825416179055600382019060018060a01b03606086015116908254161790556080830151600482015560a0830151600582015560c0830151600682015560e0830151600782015561010083015160088201556101208301516009820155610140830151600a82015501906101608101519060058210156104ec57825461ff00610180830151151560081b169060ff63ff0000006101c062ff00006101a0870151151560101b16950151151560181b1694169063ffffffff1916171717179055604051918252602082015233907fa5d7a3cf3954591f1af3cd96f79210169bbaf7e3b3a3e60de11886bc773649e0604060043592a46001600055005b634e487b7160e01b600052602160045260246000fd5b634e487b7160e01b600052604160045260246000fd5b634e487b7160e01b600052601160045260246000fd5b907f53657373696f6e20494420616c726561647920757365640000000000000000006040519162461bcd60e51b83526020600484015260176024840152820152fd5b906c496e76616c6964206e6f6e636560981b6040519162461bcd60e51b835260206004840152600d6024840152820152fd5b907553657373696f6e20616c72656164792065786973747360501b6040519162461bcd60e51b83526020600484015260166024840152820152fd5b907f4475726174696f6e206d7573742062652067726561746572207468616e2030006040519162461bcd60e51b835260206004840152601f6024840152820152fd5b907f416d6f756e74206d7573742062652067726561746572207468616e20300000006040519162461bcd60e51b835260206004840152601d6024840152820152fd5b907f556e737570706f72746564207061796d656e7420746f6b656e000000000000006040519162461bcd60e51b83526020600484015260196024840152820152fd5b907521b0b73737ba1036b2b73a37b9103cb7bab939b2b63360511b6040519162461bcd60e51b83526020600484015260166024840152820152fd5b9075496e76616c6964206d656e746f72206164647265737360501b6040519162461bcd60e51b83526020600484015260166024840152820152fd5b346101d15760203660031901126101d15761073261212c565b61073a612193565b6001600160a01b038181169182156107995760018054610100600160a81b03198116600893841b610100600160a81b031617909155901c167f8be0079c531659141344cd1fd0a4f28419497f9722a3daafe3b4186f6b6457e0600080a3005b604051631e4fbdf760e01b815260006004820152602490fd5b346101d15760203660031901126101d15760206107d0600435612827565b604051908152f35b346101d1576020806003193601126101d1576004356107f561228d565b60008181526002835260409020600181015490926001600160a01b0391821661081f8115156122b0565b600b85015460ff811660058110156104ec57600161083d91146122f5565b60ff8160081c169081610abb575b5015610a8057600785015415610a3b5733148015610a2c575b156109d25761087283612418565b91610888600486015493600687015490856123a2565b60058601928354918281111561098f57826108a291612336565b94605a810290808204605a14901517156105185760649004806108c58785612343565b1161097b575b50841561093f57507ff2446e1f418253f1b6b8f9b8ebf603fd78b61d59024e68b0d687d1ecc22b8a40949561091a92610905868094612343565b85556002816003840154169201541690612350565b54604080519283526020830191909152429082015280606081015b0390a26001600055005b6064906040519062461bcd60e51b8252600482015260156024820152744e6f207061796d656e7420746f2072656c6561736560581b6044820152fd5b6109889195508290612336565b93876108cb565b6064826040519062461bcd60e51b825280600483015260248201527f4e6f207061796d656e7420617661696c61626c6520666f722072656c656173656044820152fd5b6084906040519062461bcd60e51b82526004820152602d60248201527f4f6e6c792073657373696f6e207061727469636970616e74732063616e20726560448201526c1b19585cd9481c185e5b595b9d609a1b6064820152fd5b50816002850154163314610864565b60405162461bcd60e51b815260048101839052601a60248201527f53657373696f6e2073746172742074696d65206e6f74207365740000000000006044820152606490fd5b60405162461bcd60e51b815260048101839052601360248201527253657373696f6e206e6f742072756e6e696e6760681b6044820152606490fd5b60ff915060101c16158661084b565b346101d15760003660031901126101d157602060405160788152f35b346101d15760203660031901126101d157600435610b0261228d565b600081815260026020526040902060018101546001600160a01b0391908216610b2c8115156122b0565b600b82019283549160ff831660058110156104ec57610c00573314908115610bf0575b5015610b9f576101019142600782015560084291015562ffffff19161790557fd010adb8a640e9a6a134ce407a4e27deb32fab5b64ea5847c55101907d9c25786020604051428152a26001600055005b60405162461bcd60e51b815260206004820152602360248201527f4f6e6c792073657373696f6e207061727469636970616e74732063616e207374604482015262185c9d60ea1b6064820152608490fd5b9050600283015416331485610b4f565b60405162461bcd60e51b8152602060048201526024808201527f53657373696f6e20616c72656164792073746172746564206f7220636f6d706c604482015263195d195960e21b6064820152608490fd5b346101d15760203660031901126101d157610c6a61212c565b610c72612193565b6001600160a01b03168015610c9e576bffffffffffffffffffffffff60a01b6004541617600455600080f35b60405162461bcd60e51b8152602060048201526016602482015275496e76616c69642077616c6c6574206164647265737360501b6044820152606490fd5b346101d15760203660031901126101d157600435610cf861228d565b600081815260026020526040902060018101546001600160a01b03908116610d218115156122b0565b600b83019182549160ff831660058110156104ec57600203610e0f573314908115610dff575b5015610dae576001906008840193610d6f6009610d65875442612336565b9201918254612343565b905562ff00ff19161790554290557f3dd443712f1bb154053901f56ef4a45320caeee475fc1b8f448abb8a5abd7ec16020604051428152a26001600055005b60405162461bcd60e51b8152602060048201526024808201527f4f6e6c792073657373696f6e207061727469636970616e74732063616e20726560448201526373756d6560e01b6064820152608490fd5b9050600284015416331485610d47565b60405162461bcd60e51b815260206004820152601260248201527114d95cdcda5bdb881b9bdd081c185d5cd95960721b6044820152606490fd5b346101d15760203660031901126101d15760206107d0600435612418565b346101d15760003660031901126101d15760015460405160089190911c6001600160a01b03168152602090f35b346101d15760003660031901126101d157610ead612193565b610eb561226f565b600160ff19815416176001557f62e78cea01bee320cd4e420270b5ea74000d11b0c9f74754ebdbfc544b05a2586020604051338152a1005b346101d15760203660031901126101d15760043560005260026020526101e0604060002060ff81549160018060a01b03908160018201541691806002830154169060038301541660048301546005840154600685015490600786015492600887015494600988015496600b600a8a0154990154996040519c8d5260208d015260408c015260608b015260808a015260a089015260c088015260e0870152610100860152610120850152610140840152610fac6101608401838316612158565b818160081c161515610180840152818160101c1615156101a084015260181c1615156101c0820152f35b346101d1576020806003193601126101d157600435610ff361228d565b6000818152600283526040902060018101546001600160a01b03908116919061101d8315156122b0565b600b82019182549360ff851660058110156104ec57600161103e91146122f5565b60ff8560101c166111cd5733149182156111bc575b50600801918254601e81019081811161051857609601809111610518574211938283156111b5575b1561117b5762ff00ff19166201000217905580611173575b61116a575b5015611140576040516110aa816121df565b60118152701219585c9d1899585d081d1a5b595bdd5d607a1b83820152915b6040519042825260408183015283519384604084015260005b85811061112c57847fec452bb0b82c12deb4f139fa1dfc53d2e3606e8bf03ca6a3f007d0dd6fd53507856060818a6000838284010152601f80199101168101030190a26001600055005b8181018301518482016060015282016110e2565b60405161114c816121df565b600c81526b4d616e75616c20706175736560a01b83820152916110c9565b42905583611098565b508115611093565b60405162461bcd60e51b8152600481018890526012602482015271556e617574686f72697a656420706175736560701b6044820152606490fd5b508461107b565b600282015416331491506008611053565b60405162461bcd60e51b815260048101889052601660248201527514d95cdcda5bdb88185b1c9958591e481c185d5cd95960521b6044820152606490fd5b346101d15760803660031901126101d157600435611227612142565b60443560643567ffffffffffffffff81116101d15761124a903690600401612165565b929091611255612193565b61125d61228d565b600085815260026020526040902060018101546001600160a01b0395919061128890871615156122b0565b858416156113685760048101549360058201906112a782548097612336565b8511611323577f482a5548da3675089cf6763340cbd789090e2187c64b37c814c5340111636c479760036112ed9487946112e38660609b612343565b9055015416612350565b80604051948593845260406020850152816040850152848401376000828201840152601f01601f19168101030190a26001600055005b60405162461bcd60e51b815260206004820152601860248201527f416d6f756e74206578636565647320617661696c61626c6500000000000000006044820152606490fd5b60405162461bcd60e51b8152602060048201526011602482015270125b9d985b1a59081c9958da5c1a595b9d607a1b6044820152606490fd5b346101d15760203660031901126101d1576113ba61212c565b6113c2612193565b6001600160a01b03166000908152600360205260409020805460ff19169055005b346101d15760003660031901126101d1576113fc612193565b60018054610100600160a81b0319811690915560009060081c6001600160a01b03167f8be0079c531659141344cd1fd0a4f28419497f9722a3daafe3b4186f6b6457e08280a3005b346101d15760203660031901126101d15761145d61212c565b611465612193565b6001600160a01b0316801561148f576000908152600360205260409020805460ff19166001179055005b60405162461bcd60e51b8152602060048201526015602482015274496e76616c696420746f6b656e206164647265737360581b6044820152606490fd5b346101d15760203660031901126101d15760206114ea6004356126cf565b6040519015158152f35b346101d15760203660031901126101d1576001600160a01b0361151561212c565b166000526003602052602060ff604060002054166040519015158152f35b346101d15760203660031901126101d1576001600160a01b0361155461212c565b1660005260056020526020604060002054604051908152f35b346101d15760003660031901126101d157602060ff600154166040519015158152f35b346101d15760203660031901126101d15760206114ea600435612599565b346101d15760003660031901126101d1576020604051600a8152f35b346101d15760203660031901126101d1576004356115e661228d565b600081815260026020526040902060018101546001600160a01b0390811691906116118315156122b0565b600b82019182549060ff821660058110156104ec576117025784331480156116f3575b156116a2577f1d74c88fc8a136a8fb434db3561e44ecbc5b4577d1f1ea7e30d97250ead2cf2d94604094600461168f9460ff191617905560048201549360036005840193611683855488612336565b96879555015416612350565b8151908152426020820152a26001600055005b60405162461bcd60e51b8152602060048201526024808201527f4f6e6c792073657373696f6e207061727469636970616e74732063616e2063616044820152631b98d95b60e21b6064820152608490fd5b50826002820154163314611634565b60405162461bcd60e51b815260206004820152601760248201527f53657373696f6e20616c726561647920737461727465640000000000000000006044820152606490fd5b346101d15760003660031901126101d157611760612193565b60015460ff81161561179f5760ff19166001557f5db9ee0a495bf2e6ff9c91a7834c1ba4fdd244a5e8aa4e537bd38aeae4b073aa6020604051338152a1005b604051638dfc202b60e01b8152600490fd5b346101d15760603660031901126101d157600435602480359060443567ffffffffffffffff81116101d1576117ea903690600401612165565b50506117f461228d565b82600052600260205260406000209060018060a01b03928360018401541661181d8115156122b0565b33036119fe57600b83019081549060ff821660058110156119e957600181149081156119de575b501561199a576001811015908161198e575b501561194a5763010000039063ff00ffff19161790556004820154926005830193611882855482612336565b92600a840290848204600a14851517156119365750916118cd939160647f556195694fc082ad19415eaec58c1584ec20066f6e655be3034932c454d38a239796940494858094612336565b955584611919575b816118fc575b50506040805193845260208401929092525042908201528060608101610935565b80600361191194015416906004541690612350565b8481816118db565b61193185826003860154168360028701541690612350565b6118d5565b634e487b7160e01b60009081526011600452fd5b60405162461bcd60e51b815260206004820152601e818501527f526174696e67206d757374206265206265747765656e203120616e64203500006044820152606490fd5b60059150111587611856565b60405162461bcd60e51b8152602060048201819052818601527f53657373696f6e206e6f7420726561647920666f7220636f6d706c6574696f6e6044820152606490fd5b600291501488611844565b84634e487b7160e01b60005260216004526000fd5b60405162461bcd60e51b8152602060048201526021818401527f4f6e6c792073747564656e742063616e20636f6d706c6574652073657373696f6044820152603760f91b6064820152608490fd5b346101d15760203660031901126101d15760006101c0604051611a6e816121c2565b8281528260208201528260408201528260608201528260808201528260a08201528260c08201528260e08201528261010082015282610120820152826101408201528261016082015282610180820152826101a0820152015260043560005260026020526101e0604060002060ff600b60405192611aeb846121c2565b8054845260018101546001600160a01b039081166020860152600282015481166040860152600382015416606085015260048101546080850152600581015460a0850152600681015460c0850152600781015460e085015260088101546101008501526009810154610120850152600a8101546101408501520154611b7682821661016085016121fb565b818160081c161515610180840152818160101c1615156101a084015260181c1615156101c08201526101c0604051918051835260018060a01b03602082015116602084015260018060a01b03604082015116604084015260018060a01b0360608201511660608401526080810151608084015260a081015160a084015260c081015160c084015260e081015160e0840152610100810151610100840152610120810151610120840152610140810151610140840152611c3f610160820151610160850190612158565b61018081015115156101808401526101a081015115156101a0840152015115156101c0820152f35b346101d15760003660031901126101d157602060405160b48152f35b346101d15760003660031901126101d1576020604051601e8152f35b346101d15760203660031901126101d157600435611cbb61228d565b600081815260026020526040902060018101546001600160a01b039190611ce590831615156122b0565b600b8101805460ff811660058110156104ec5760018114908115611e23575b5015611dcd57600a83015462093a808101809111610518574210611d885760039061ffff19161790556004810154916005820191611d43835485612336565b600a810292818404600a1482151715610518577f556195694fc082ad19415eaec58c1584ec20066f6e655be3034932c454d38a239560646118cd950494858094612336565b60405162461bcd60e51b815260206004820152601e60248201527f4175746f2d72656c656173652064656c6179206e6f74207265616368656400006044820152606490fd5b60405162461bcd60e51b815260206004820152602860248201527f53657373696f6e206e6f7420656c696769626c6520666f72206175746f2d636f60448201526736b83632ba34b7b760c11b6064820152608490fd5b600291501486611d04565b346101d15760203660031901126101d1576004356000526006602052602060ff604060002054166040519015158152f35b346101d15760603660031901126101d15760206107d06044356024356004356123a2565b346101d15760003660031901126101d157602060405162093a808152f35b346101d1576020806003193601126101d157600435611ebe61228d565b6000818152600283526040902060018101546001600160a01b03939190841690611ee98215156122b0565b600b8101549160ff831660058110156104ec576001611f0891146122f5565b3314801561211d575b156120c1574260089091015560101c60ff16611f58575b7f3cf0bf7708060bf073b6ddb921eef0485b3eb9da828e0ed751fa6582ef337f5790604051428152a26001600055005b611f6061228d565b816000526002815260406000208360018201541693611f808515156122b0565b600b82019081549560ff871660058110156104ec57600203612087573314908115612077575b50156120265760017f3cf0bf7708060bf073b6ddb921eef0485b3eb9da828e0ed751fa6582ef337f5794956008840193611fe66009610d65875442612336565b905562ff00ff1916179055429055827f3dd443712f1bb154053901f56ef4a45320caeee475fc1b8f448abb8a5abd7ec182604051428152a2829150611f28565b60405162461bcd60e51b8152600481018490526024808201527f4f6e6c792073657373696f6e207061727469636970616e74732063616e20726560448201526373756d6560e01b6064820152608490fd5b9050600283015416331486611fa6565b60405162461bcd60e51b815260048101869052601260248201527114d95cdcda5bdb881b9bdd081c185d5cd95960721b6044820152606490fd5b60405162461bcd60e51b815260048101849052602e60248201527f4f6e6c792073657373696f6e207061727469636970616e74732063616e20757060448201526d19185d19481a19585c9d1899585d60921b6064820152608490fd5b50846002820154163314611f11565b600435906001600160a01b03821682036101d157565b602435906001600160a01b03821682036101d157565b9060058210156104ec5752565b9181601f840112156101d15782359167ffffffffffffffff83116101d157602083818601950101116101d157565b60015460081c6001600160a01b031633036121aa57565b60405163118cdaa760e01b8152336004820152602490fd5b6101e0810190811067ffffffffffffffff82111761050257604052565b6040810190811067ffffffffffffffff82111761050257604052565b60058210156104ec5752565b906000602091828151910182855af115612263576000513d61225a57506001600160a01b0381163b155b6122385750565b604051635274afe760e01b81526001600160a01b039091166004820152602490fd5b60011415612231565b6040513d6000823e3d90fd5b60ff6001541661227b57565b60405163d93c066560e01b8152600490fd5b60026000541461229e576002600055565b604051633ee5aeb560e01b8152600490fd5b156122b757565b60405162461bcd60e51b815260206004820152601660248201527514d95cdcda5bdb88191bd95cc81b9bdd08195e1a5cdd60521b6044820152606490fd5b156122fc57565b60405162461bcd60e51b815260206004820152601260248201527153657373696f6e206e6f742061637469766560701b6044820152606490fd5b9190820391821161051857565b9190820180921161051857565b60405163a9059cbb60e01b60208201526001600160a01b039092166024830152604480830193909352918152608081019167ffffffffffffffff831182841017610502576123a092604052612207565b565b91909182158015612410575b61240857605a810290808204605a14901517156105185760649004918083029083820414831517156105185781156123f25704908082116123ed575090565b905090565b634e487b7160e01b600052601260045260246000fd5b505050600090565b5081156123ae565b6000526002602052604060002060405190612432826121c2565b8054825260018060a01b03806001830154166020840152806002830154166040840152600382015416606083015260048101546080830152600581015460a0830152600681015460c0830152600781015460e083019081526008820154906101008401918252600b6009840154936101208601948552600a8101546101408701520154936124c760ff861661016083016121fb565b60ff8560081c1615156101808201526101c060ff6101a0830196818160101c161515885260181c16151591015280511561255e57612506905142612336565b91519251151580612554575b612537575b508181111561253057603c9161252c91612336565b0490565b5050600090565b9161254761254d92935142612336565b90612343565b9038612517565b5080511515612512565b60405162461bcd60e51b815260206004820152601360248201527214d95cdcda5bdb881b9bdd081cdd185c9d1959606a1b6044820152606490fd5b60009081526002602052604081206040516125b3816121c2565b8154815260018060a01b03806001840154166020830152806002840154166040830152600383015416606082015260048201546080820152600582015460a0820152600682015460c0820152600782015460e0820152600b60088301549261010083019384526009810154610120840152600a8101546101408401520154906101c060ff610160830193612649828216866121fb565b818160081c161515610180850152818160101c1615156101a085015260181c1615159101525160058110156126bb576001148015906126b2575b6126ae575190601e820180921161269a5750421190565b634e487b7160e01b81526011600452602490fd5b5090565b50805115612683565b634e487b7160e01b83526021600452602483fd5b60009081526002602052604081206040516126e9816121c2565b8154815260018201546001600160a01b039081166020830152600283015481166040830152600383015416606082015260048201546080820152600582015460a0820152600682015460c0820152600782015460e0820152600882015461010082019081526009830154610120830152600a830154610140830152600b909201549061016081019061277e60ff8416836121fb565b60ff8360081c1615156101808201526101c060ff6101a0830194818160101c161515865260181c1615159101525160058110156128135760011490811591612808575b5080156127ff575b6126ae575190601e8201918281116127eb5760960180921161269a5750421190565b634e487b7160e01b82526011600452602482fd5b508051156127c9565b9050511515386127c1565b634e487b7160e01b84526021600452602484fd5b6000908082526002602052604082209060405191612844836121c2565b8054835260018060a01b03806001830154166020850152806002830154166040850152600382015416606084015260048101546080840190815260058201549360a0810194855260068301549260c08201938452600b60078201549160e0840192835260088101546101008501526009810154610120850152600a8101546101408501520154916101608101906128de60ff8516836121fb565b60ff8460081c1615156101808201526101c060ff6101a0830195818160101c161515875260181c16151591015251600581101561297d5760011491821592612972575b508115612968575b506129615761293a61294493612418565b90519151916123a2565b9051908181111561295c576129599250612336565b90565b505090565b5050505090565b9050511538612929565b511515915038612921565b634e487b7160e01b88526021600452602488fdfea164736f6c6343000814000a","opcodes":"PUSH1 0x80 CALLVALUE PUSH3 0x13E JUMPI PUSH1 0x1F PUSH3 0x2AF8 CODESIZE DUP2 SWAP1 SUB SWAP2 DUP3 ADD PUSH1 0x1F NOT AND DUP4 ADD SWAP2 PUSH1 0x1 PUSH1 0x1 PUSH1 0x40 SHL SUB DUP4 GT DUP5 DUP5 LT OR PUSH3 0x143 JUMPI DUP1 DUP5 SWAP3 PUSH1 0x20 SWAP5 PUSH1 0x40 MSTORE DUP4 CODECOPY DUP2 ADD SUB SLT PUSH3 0x13E JUMPI MLOAD PUSH1 0x1 PUSH1 0x1 PUSH1 0xA0 SHL SUB DUP1 DUP3 AND SWAP2 DUP3 SWAP1 SUB PUSH3 0x13E JUMPI PUSH1 0x1 PUSH1 0x0 SSTORE CALLER ISZERO PUSH3 0x125 JUMPI PUSH1 0x1 DUP1 SLOAD PUSH2 0x100 PUSH1 0x1 PUSH1 0xA8 SHL SUB NOT DUP2 AND CALLER PUSH1 0x8 DUP2 DUP2 SHL PUSH2 0x100 PUSH1 0x1 PUSH1 0xA8 SHL SUB AND SWAP3 SWAP1 SWAP3 OR SWAP1 SWAP4 SSTORE PUSH1 0x40 MLOAD SWAP4 SWAP2 SWAP1 SHR AND PUSH32 0x8BE0079C531659141344CD1FD0A4F28419497F9722A3DAAFE3B4186F6B6457E0 PUSH1 0x0 DUP1 LOG3 DUP2 ISZERO PUSH3 0xE3 JUMPI POP PUSH1 0x4 DUP1 SLOAD PUSH1 0x1 PUSH1 0x1 PUSH1 0xA0 SHL SUB NOT AND SWAP2 SWAP1 SWAP2 OR SWAP1 SSTORE PUSH1 0x40 MLOAD PUSH2 0x299E SWAP1 DUP2 PUSH3 0x15A DUP3 CODECOPY RETURN JUMPDEST PUSH3 0x461BCD PUSH1 0xE5 SHL DUP2 MSTORE PUSH1 0x20 PUSH1 0x4 DUP3 ADD MSTORE PUSH1 0x17 PUSH1 0x24 DUP3 ADD MSTORE PUSH32 0x496E76616C696420706C6174666F726D2077616C6C6574000000000000000000 PUSH1 0x44 DUP3 ADD MSTORE PUSH1 0x64 SWAP1 REVERT JUMPDEST PUSH1 0x40 MLOAD PUSH4 0x1E4FBDF7 PUSH1 0xE0 SHL DUP2 MSTORE PUSH1 0x0 PUSH1 0x4 DUP3 ADD MSTORE PUSH1 0x24 SWAP1 REVERT JUMPDEST PUSH1 0x0 DUP1 REVERT JUMPDEST PUSH4 0x4E487B71 PUSH1 0xE0 SHL PUSH1 0x0 MSTORE PUSH1 0x41 PUSH1 0x4 MSTORE PUSH1 0x24 PUSH1 0x0 REVERT INVALID PUSH1 0x80 PUSH1 0x40 MSTORE PUSH1 0x4 CALLDATASIZE LT ISZERO PUSH2 0x12 JUMPI PUSH1 0x0 DUP1 REVERT JUMPDEST PUSH1 0x0 CALLDATALOAD PUSH1 0xE0 SHR DUP1 PUSH4 0x2CEB406 EQ PUSH2 0x1EA1 JUMPI DUP1 PUSH4 0x9499AA6 EQ PUSH2 0x1E83 JUMPI DUP1 PUSH4 0x1AC6AF03 EQ PUSH2 0x1E5F JUMPI DUP1 PUSH4 0x1C8B14A0 EQ PUSH2 0x1E2E JUMPI DUP1 PUSH4 0x2B8A5F3B EQ PUSH2 0x1C9F JUMPI DUP1 PUSH4 0x2F7801F4 EQ PUSH2 0x1533 JUMPI DUP1 PUSH4 0x34D1C8FE EQ PUSH2 0x1C83 JUMPI DUP1 PUSH4 0x363EC298 EQ PUSH2 0x1C67 JUMPI DUP1 PUSH4 0x39B240BD EQ PUSH2 0x1A4C JUMPI DUP1 PUSH4 0x3A17BA64 EQ PUSH2 0x17B1 JUMPI DUP1 PUSH4 0x3F4BA83A EQ PUSH2 0x1747 JUMPI DUP1 PUSH4 0x4D213982 EQ PUSH2 0x15CA JUMPI DUP1 PUSH4 0x560D52D4 EQ PUSH2 0x15AE JUMPI DUP1 PUSH4 0x590A2CC1 EQ PUSH2 0x1590 JUMPI DUP1 PUSH4 0x5C975ABB EQ PUSH2 0x156D JUMPI DUP1 PUSH4 0x6834E3A8 EQ PUSH2 0x1533 JUMPI DUP1 PUSH4 0x68C4AC26 EQ PUSH2 0x14F4 JUMPI DUP1 PUSH4 0x6BAAE9CC EQ PUSH2 0x14CC JUMPI DUP1 PUSH4 0x6D69FCAF EQ PUSH2 0x1444 JUMPI DUP1 PUSH4 0x715018A6 EQ PUSH2 0x13E3 JUMPI DUP1 PUSH4 0x76319190 EQ PUSH2 0x13A1 JUMPI DUP1 PUSH4 0x79D55E77 EQ PUSH2 0x120B JUMPI DUP1 PUSH4 0x7AC1B469 EQ PUSH2 0xFD6 JUMPI DUP1 PUSH4 0x7DBD2832 EQ PUSH2 0xEED JUMPI DUP1 PUSH4 0x8456CB59 EQ PUSH2 0xE94 JUMPI DUP1 PUSH4 0x8DA5CB5B EQ PUSH2 0xE67 JUMPI DUP1 PUSH4 0x962DB93B EQ PUSH2 0xE49 JUMPI DUP1 PUSH4 0x99173D6B EQ PUSH2 0xCDC JUMPI DUP1 PUSH4 0xADA4EF30 EQ PUSH2 0xC51 JUMPI DUP1 PUSH4 0xB817BE4C EQ PUSH2 0xAE6 JUMPI DUP1 PUSH4 0xC1A287E2 EQ PUSH2 0xACA JUMPI DUP1 PUSH4 0xCCB868DD EQ PUSH2 0x7D8 JUMPI DUP1 PUSH4 0xE906826C EQ PUSH2 0x7B2 JUMPI DUP1 PUSH4 0xF2FDE38B EQ PUSH2 0x719 JUMPI DUP1 PUSH4 0xF400272B EQ PUSH2 0x1D6 JUMPI PUSH4 0xFA2AF9DA EQ PUSH2 0x1A8 JUMPI PUSH1 0x0 DUP1 REVERT JUMPDEST CALLVALUE PUSH2 0x1D1 JUMPI PUSH1 0x0 CALLDATASIZE PUSH1 0x3 NOT ADD SLT PUSH2 0x1D1 JUMPI PUSH1 0x4 SLOAD PUSH1 0x40 MLOAD PUSH1 0x1 PUSH1 0x1 PUSH1 0xA0 SHL SUB SWAP1 SWAP2 AND DUP2 MSTORE PUSH1 0x20 SWAP1 RETURN JUMPDEST PUSH1 0x0 DUP1 REVERT JUMPDEST CALLVALUE PUSH2 0x1D1 JUMPI PUSH1 0xC0 CALLDATASIZE PUSH1 0x3 NOT ADD SLT PUSH2 0x1D1 JUMPI PUSH2 0x1EF PUSH2 0x2142 JUMP JUMPDEST PUSH1 0x44 DUP1 CALLDATALOAD PUSH1 0x1 PUSH1 0x1 PUSH1 0xA0 SHL SUB DUP2 AND SWAP1 DUP2 SWAP1 SUB PUSH2 0x1D1 JUMPI PUSH1 0x64 SWAP3 DUP4 CALLDATALOAD SWAP3 PUSH1 0x84 CALLDATALOAD SWAP2 PUSH2 0x217 PUSH2 0x228D JUMP JUMPDEST PUSH2 0x21F PUSH2 0x226F JUMP JUMPDEST PUSH1 0x1 PUSH1 0x1 PUSH1 0xA0 SHL SUB AND SWAP5 DUP6 ISZERO PUSH2 0x6DE JUMPI CALLER DUP7 EQ PUSH2 0x6A3 JUMPI DUP4 PUSH1 0x0 MSTORE PUSH1 0x3 PUSH1 0x20 MSTORE PUSH1 0xFF PUSH1 0x40 PUSH1 0x0 KECCAK256 SLOAD AND ISZERO PUSH2 0x661 JUMPI DUP5 ISZERO PUSH2 0x61F JUMPI DUP3 ISZERO PUSH2 0x5DD JUMPI PUSH1 0x4 CALLDATALOAD PUSH1 0x0 SWAP1 DUP2 MSTORE PUSH1 0x2 PUSH1 0x20 MSTORE PUSH1 0x40 SWAP1 KECCAK256 PUSH1 0x1 ADD SLOAD PUSH1 0x1 PUSH1 0x1 PUSH1 0xA0 SHL SUB AND PUSH2 0x5A2 JUMPI CALLER PUSH1 0x0 MSTORE PUSH1 0x5 PUSH1 0x20 MSTORE PUSH1 0x40 PUSH1 0x0 KECCAK256 SLOAD PUSH1 0xA4 CALLDATALOAD SUB PUSH2 0x570 JUMPI PUSH1 0x4 CALLDATALOAD PUSH1 0x0 MSTORE PUSH1 0x6 PUSH1 0x20 MSTORE PUSH1 0xFF PUSH1 0x40 PUSH1 0x0 KECCAK256 SLOAD AND PUSH2 0x52E JUMPI CALLER PUSH1 0x0 MSTORE PUSH1 0x5 PUSH1 0x20 MSTORE PUSH1 0x40 PUSH1 0x0 KECCAK256 DUP1 SLOAD PUSH1 0x0 NOT DUP2 EQ PUSH2 0x518 JUMPI PUSH1 0x1 ADD SWAP1 SSTORE PUSH1 0x4 CALLDATALOAD PUSH1 0x0 MSTORE PUSH1 0x6 PUSH1 0x20 MSTORE PUSH1 0x40 PUSH1 0x0 KECCAK256 PUSH1 0x1 PUSH1 0xFF NOT DUP3 SLOAD AND OR SWAP1 SSTORE PUSH1 0x40 MLOAD SWAP2 PUSH4 0x23B872DD PUSH1 0xE0 SHL PUSH1 0x20 DUP5 ADD MSTORE CALLER PUSH1 0x24 DUP5 ADD MSTORE ADDRESS SWAP1 DUP4 ADD MSTORE DUP5 DUP2 DUP4 ADD MSTORE DUP2 MSTORE PUSH1 0xA0 DUP2 ADD SWAP1 DUP1 DUP3 LT PUSH8 0xFFFFFFFFFFFFFFFF DUP4 GT OR PUSH2 0x502 JUMPI PUSH2 0x32B SWAP2 PUSH1 0x40 MSTORE DUP4 PUSH2 0x2207 JUMP JUMPDEST PUSH1 0x40 MLOAD SWAP1 PUSH2 0x338 DUP3 PUSH2 0x21C2 JUMP JUMPDEST PUSH1 0x4 CALLDATALOAD DUP3 MSTORE CALLER PUSH1 0x20 DUP4 ADD MSTORE DUP5 PUSH1 0x40 DUP4 ADD MSTORE DUP3 PUSH1 0x60 DUP4 ADD MSTORE DUP4 PUSH1 0x80 DUP4 ADD MSTORE PUSH1 0x0 PUSH1 0xA0 DUP4 ADD MSTORE PUSH1 0xC0 DUP3 ADD MSTORE PUSH1 0x0 PUSH1 0xE0 DUP3 ADD MSTORE PUSH1 0x0 PUSH2 0x100 DUP3 ADD MSTORE PUSH1 0x0 PUSH2 0x120 DUP3 ADD MSTORE TIMESTAMP PUSH2 0x140 DUP3 ADD MSTORE PUSH1 0x0 PUSH2 0x160 DUP3 ADD MSTORE PUSH1 0x0 PUSH2 0x180 DUP3 ADD MSTORE PUSH1 0x0 PUSH2 0x1A0 DUP3 ADD MSTORE PUSH1 0x0 PUSH2 0x1C0 DUP3 ADD MSTORE PUSH1 0x4 CALLDATALOAD PUSH1 0x0 MSTORE PUSH1 0x2 PUSH1 0x20 MSTORE PUSH1 0xB PUSH1 0x40 PUSH1 0x0 KECCAK256 DUP3 MLOAD DUP2 SSTORE PUSH1 0x1 DUP2 ADD PUSH1 0x1 DUP1 PUSH1 0xA0 SHL SUB PUSH1 0x20 DUP6 ADD MLOAD AND SWAP1 PUSH12 0xFFFFFFFFFFFFFFFFFFFFFFFF PUSH1 0xA0 SHL SWAP2 DUP3 DUP3 SLOAD AND OR SWAP1 SSTORE PUSH1 0x2 DUP3 ADD PUSH1 0x1 DUP1 PUSH1 0xA0 SHL SUB PUSH1 0x40 DUP7 ADD MLOAD AND DUP3 DUP3 SLOAD AND OR SWAP1 SSTORE PUSH1 0x3 DUP3 ADD SWAP1 PUSH1 0x1 DUP1 PUSH1 0xA0 SHL SUB PUSH1 0x60 DUP7 ADD MLOAD AND SWAP1 DUP3 SLOAD AND OR SWAP1 SSTORE PUSH1 0x80 DUP4 ADD MLOAD PUSH1 0x4 DUP3 ADD SSTORE PUSH1 0xA0 DUP4 ADD MLOAD PUSH1 0x5 DUP3 ADD SSTORE PUSH1 0xC0 DUP4 ADD MLOAD PUSH1 0x6 DUP3 ADD SSTORE PUSH1 0xE0 DUP4 ADD MLOAD PUSH1 0x7 DUP3 ADD SSTORE PUSH2 0x100 DUP4 ADD MLOAD PUSH1 0x8 DUP3 ADD SSTORE PUSH2 0x120 DUP4 ADD MLOAD PUSH1 0x9 DUP3 ADD SSTORE PUSH2 0x140 DUP4 ADD MLOAD PUSH1 0xA DUP3 ADD SSTORE ADD SWAP1 PUSH2 0x160 DUP2 ADD MLOAD SWAP1 PUSH1 0x5 DUP3 LT ISZERO PUSH2 0x4EC JUMPI DUP3 SLOAD PUSH2 0xFF00 PUSH2 0x180 DUP4 ADD MLOAD ISZERO ISZERO PUSH1 0x8 SHL AND SWAP1 PUSH1 0xFF PUSH4 0xFF000000 PUSH2 0x1C0 PUSH3 0xFF0000 PUSH2 0x1A0 DUP8 ADD MLOAD ISZERO ISZERO PUSH1 0x10 SHL AND SWAP6 ADD MLOAD ISZERO ISZERO PUSH1 0x18 SHL AND SWAP5 AND SWAP1 PUSH4 0xFFFFFFFF NOT AND OR OR OR OR SWAP1 SSTORE PUSH1 0x40 MLOAD SWAP2 DUP3 MSTORE PUSH1 0x20 DUP3 ADD MSTORE CALLER SWAP1 PUSH32 0xA5D7A3CF3954591F1AF3CD96F79210169BBAF7E3B3A3E60DE11886BC773649E0 PUSH1 0x40 PUSH1 0x4 CALLDATALOAD SWAP3 LOG4 PUSH1 0x1 PUSH1 0x0 SSTORE STOP JUMPDEST PUSH4 0x4E487B71 PUSH1 0xE0 SHL PUSH1 0x0 MSTORE PUSH1 0x21 PUSH1 0x4 MSTORE PUSH1 0x24 PUSH1 0x0 REVERT JUMPDEST PUSH4 0x4E487B71 PUSH1 0xE0 SHL PUSH1 0x0 MSTORE PUSH1 0x41 PUSH1 0x4 MSTORE PUSH1 0x24 PUSH1 0x0 REVERT JUMPDEST PUSH4 0x4E487B71 PUSH1 0xE0 SHL PUSH1 0x0 MSTORE PUSH1 0x11 PUSH1 0x4 MSTORE PUSH1 0x24 PUSH1 0x0 REVERT JUMPDEST SWAP1 PUSH32 0x53657373696F6E20494420616C72656164792075736564000000000000000000 PUSH1 0x40 MLOAD SWAP2 PUSH3 0x461BCD PUSH1 0xE5 SHL DUP4 MSTORE PUSH1 0x20 PUSH1 0x4 DUP5 ADD MSTORE PUSH1 0x17 PUSH1 0x24 DUP5 ADD MSTORE DUP3 ADD MSTORE REVERT JUMPDEST SWAP1 PUSH13 0x496E76616C6964206E6F6E6365 PUSH1 0x98 SHL PUSH1 0x40 MLOAD SWAP2 PUSH3 0x461BCD PUSH1 0xE5 SHL DUP4 MSTORE PUSH1 0x20 PUSH1 0x4 DUP5 ADD MSTORE PUSH1 0xD PUSH1 0x24 DUP5 ADD MSTORE DUP3 ADD MSTORE REVERT JUMPDEST SWAP1 PUSH22 0x53657373696F6E20616C726561647920657869737473 PUSH1 0x50 SHL PUSH1 0x40 MLOAD SWAP2 PUSH3 0x461BCD PUSH1 0xE5 SHL DUP4 MSTORE PUSH1 0x20 PUSH1 0x4 DUP5 ADD MSTORE PUSH1 0x16 PUSH1 0x24 DUP5 ADD MSTORE DUP3 ADD MSTORE REVERT JUMPDEST SWAP1 PUSH32 0x4475726174696F6E206D7573742062652067726561746572207468616E203000 PUSH1 0x40 MLOAD SWAP2 PUSH3 0x461BCD PUSH1 0xE5 SHL DUP4 MSTORE PUSH1 0x20 PUSH1 0x4 DUP5 ADD MSTORE PUSH1 0x1F PUSH1 0x24 DUP5 ADD MSTORE DUP3 ADD MSTORE REVERT JUMPDEST SWAP1 PUSH32 0x416D6F756E74206D7573742062652067726561746572207468616E2030000000 PUSH1 0x40 MLOAD SWAP2 PUSH3 0x461BCD PUSH1 0xE5 SHL DUP4 MSTORE PUSH1 0x20 PUSH1 0x4 DUP5 ADD MSTORE PUSH1 0x1D PUSH1 0x24 DUP5 ADD MSTORE DUP3 ADD MSTORE REVERT JUMPDEST SWAP1 PUSH32 0x556E737570706F72746564207061796D656E7420746F6B656E00000000000000 PUSH1 0x40 MLOAD SWAP2 PUSH3 0x461BCD PUSH1 0xE5 SHL DUP4 MSTORE PUSH1 0x20 PUSH1 0x4 DUP5 ADD MSTORE PUSH1 0x19 PUSH1 0x24 DUP5 ADD MSTORE DUP3 ADD MSTORE REVERT JUMPDEST SWAP1 PUSH22 0x21B0B73737BA1036B2B73A37B9103CB7BAB939B2B633 PUSH1 0x51 SHL PUSH1 0x40 MLOAD SWAP2 PUSH3 0x461BCD PUSH1 0xE5 SHL DUP4 MSTORE PUSH1 0x20 PUSH1 0x4 DUP5 ADD MSTORE PUSH1 0x16 PUSH1 0x24 DUP5 ADD MSTORE DUP3 ADD MSTORE REVERT JUMPDEST SWAP1 PUSH22 0x496E76616C6964206D656E746F722061646472657373 PUSH1 0x50 SHL PUSH1 0x40 MLOAD SWAP2 PUSH3 0x461BCD PUSH1 0xE5 SHL DUP4 MSTORE PUSH1 0x20 PUSH1 0x4 DUP5 ADD MSTORE PUSH1 0x16 PUSH1 0x24 DUP5 ADD MSTORE DUP3 ADD MSTORE REVERT JUMPDEST CALLVALUE PUSH2 0x1D1 JUMPI PUSH1 0x20 CALLDATASIZE PUSH1 0x3 NOT ADD SLT PUSH2 0x1D1 JUMPI PUSH2 0x732 PUSH2 0x212C JUMP JUMPDEST PUSH2 0x73A PUSH2 0x2193 JUMP JUMPDEST PUSH1 0x1 PUSH1 0x1 PUSH1 0xA0 SHL SUB DUP2 DUP2 AND SWAP2 DUP3 ISZERO PUSH2 0x799 JUMPI PUSH1 0x1 DUP1 SLOAD PUSH2 0x100 PUSH1 0x1 PUSH1 0xA8 SHL SUB NOT DUP2 AND PUSH1 0x8 SWAP4 DUP5 SHL PUSH2 0x100 PUSH1 0x1 PUSH1 0xA8 SHL SUB AND OR SWAP1 SWAP2 SSTORE SWAP1 SHR AND PUSH32 0x8BE0079C531659141344CD1FD0A4F28419497F9722A3DAAFE3B4186F6B6457E0 PUSH1 0x0 DUP1 LOG3 STOP JUMPDEST PUSH1 0x40 MLOAD PUSH4 0x1E4FBDF7 PUSH1 0xE0 SHL DUP2 MSTORE PUSH1 0x0 PUSH1 0x4 DUP3 ADD MSTORE PUSH1 0x24 SWAP1 REVERT JUMPDEST CALLVALUE PUSH2 0x1D1 JUMPI PUSH1 0x20 CALLDATASIZE PUSH1 0x3 NOT ADD SLT PUSH2 0x1D1 JUMPI PUSH1 0x20 PUSH2 0x7D0 PUSH1 0x4 CALLDATALOAD PUSH2 0x2827 JUMP JUMPDEST PUSH1 0x40 MLOAD SWAP1 DUP2 MSTORE RETURN JUMPDEST CALLVALUE PUSH2 0x1D1 JUMPI PUSH1 0x20 DUP1 PUSH1 0x3 NOT CALLDATASIZE ADD SLT PUSH2 0x1D1 JUMPI PUSH1 0x4 CALLDATALOAD PUSH2 0x7F5 PUSH2 0x228D JUMP JUMPDEST PUSH1 0x0 DUP2 DUP2 MSTORE PUSH1 0x2 DUP4 MSTORE PUSH1 0x40 SWAP1 KECCAK256 PUSH1 0x1 DUP2 ADD SLOAD SWAP1 SWAP3 PUSH1 0x1 PUSH1 0x1 PUSH1 0xA0 SHL SUB SWAP2 DUP3 AND PUSH2 0x81F DUP2 ISZERO ISZERO PUSH2 0x22B0 JUMP JUMPDEST PUSH1 0xB DUP6 ADD SLOAD PUSH1 0xFF DUP2 AND PUSH1 0x5 DUP2 LT ISZERO PUSH2 0x4EC JUMPI PUSH1 0x1 PUSH2 0x83D SWAP2 EQ PUSH2 0x22F5 JUMP JUMPDEST PUSH1 0xFF DUP2 PUSH1 0x8 SHR AND SWAP1 DUP2 PUSH2 0xABB JUMPI JUMPDEST POP ISZERO PUSH2 0xA80 JUMPI PUSH1 0x7 DUP6 ADD SLOAD ISZERO PUSH2 0xA3B JUMPI CALLER EQ DUP1 ISZERO PUSH2 0xA2C JUMPI JUMPDEST ISZERO PUSH2 0x9D2 JUMPI PUSH2 0x872 DUP4 PUSH2 0x2418 JUMP JUMPDEST SWAP2 PUSH2 0x888 PUSH1 0x4 DUP7 ADD SLOAD SWAP4 PUSH1 0x6 DUP8 ADD SLOAD SWAP1 DUP6 PUSH2 0x23A2 JUMP JUMPDEST PUSH1 0x5 DUP7 ADD SWAP3 DUP4 SLOAD SWAP2 DUP3 DUP2 GT ISZERO PUSH2 0x98F JUMPI DUP3 PUSH2 0x8A2 SWAP2 PUSH2 0x2336 JUMP JUMPDEST SWAP5 PUSH1 0x5A DUP2 MUL SWAP1 DUP1 DUP3 DIV PUSH1 0x5A EQ SWAP1 ISZERO OR ISZERO PUSH2 0x518 JUMPI PUSH1 0x64 SWAP1 DIV DUP1 PUSH2 0x8C5 DUP8 DUP6 PUSH2 0x2343 JUMP JUMPDEST GT PUSH2 0x97B JUMPI JUMPDEST POP DUP5 ISZERO PUSH2 0x93F JUMPI POP PUSH32 0xF2446E1F418253F1B6B8F9B8EBF603FD78B61D59024E68B0D687D1ECC22B8A40 SWAP5 SWAP6 PUSH2 0x91A SWAP3 PUSH2 0x905 DUP7 DUP1 SWAP5 PUSH2 0x2343 JUMP JUMPDEST DUP6 SSTORE PUSH1 0x2 DUP2 PUSH1 0x3 DUP5 ADD SLOAD AND SWAP3 ADD SLOAD AND SWAP1 PUSH2 0x2350 JUMP JUMPDEST SLOAD PUSH1 0x40 DUP1 MLOAD SWAP3 DUP4 MSTORE PUSH1 0x20 DUP4 ADD SWAP2 SWAP1 SWAP2 MSTORE TIMESTAMP SWAP1 DUP3 ADD MSTORE DUP1 PUSH1 0x60 DUP2 ADD JUMPDEST SUB SWAP1 LOG2 PUSH1 0x1 PUSH1 0x0 SSTORE STOP JUMPDEST PUSH1 0x64 SWAP1 PUSH1 0x40 MLOAD SWAP1 PUSH3 0x461BCD PUSH1 0xE5 SHL DUP3 MSTORE PUSH1 0x4 DUP3 ADD MSTORE PUSH1 0x15 PUSH1 0x24 DUP3 ADD MSTORE PUSH21 0x4E6F207061796D656E7420746F2072656C65617365 PUSH1 0x58 SHL PUSH1 0x44 DUP3 ADD MSTORE REVERT JUMPDEST PUSH2 0x988 SWAP2 SWAP6 POP DUP3 SWAP1 PUSH2 0x2336 JUMP JUMPDEST SWAP4 DUP8 PUSH2 0x8CB JUMP JUMPDEST PUSH1 0x64 DUP3 PUSH1 0x40 MLOAD SWAP1 PUSH3 0x461BCD PUSH1 0xE5 SHL DUP3 MSTORE DUP1 PUSH1 0x4 DUP4 ADD MSTORE PUSH1 0x24 DUP3 ADD MSTORE PUSH32 0x4E6F207061796D656E7420617661696C61626C6520666F722072656C65617365 PUSH1 0x44 DUP3 ADD MSTORE REVERT JUMPDEST PUSH1 0x84 SWAP1 PUSH1 0x40 MLOAD SWAP1 PUSH3 0x461BCD PUSH1 0xE5 SHL DUP3 MSTORE PUSH1 0x4 DUP3 ADD MSTORE PUSH1 0x2D PUSH1 0x24 DUP3 ADD MSTORE PUSH32 0x4F6E6C792073657373696F6E207061727469636970616E74732063616E207265 PUSH1 0x44 DUP3 ADD MSTORE PUSH13 0x1B19585CD9481C185E5B595B9D PUSH1 0x9A SHL PUSH1 0x64 DUP3 ADD MSTORE REVERT JUMPDEST POP DUP2 PUSH1 0x2 DUP6 ADD SLOAD AND CALLER EQ PUSH2 0x864 JUMP JUMPDEST PUSH1 0x40 MLOAD PUSH3 0x461BCD PUSH1 0xE5 SHL DUP2 MSTORE PUSH1 0x4 DUP2 ADD DUP4 SWAP1 MSTORE PUSH1 0x1A PUSH1 0x24 DUP3 ADD MSTORE PUSH32 0x53657373696F6E2073746172742074696D65206E6F7420736574000000000000 PUSH1 0x44 DUP3 ADD MSTORE PUSH1 0x64 SWAP1 REVERT JUMPDEST PUSH1 0x40 MLOAD PUSH3 0x461BCD PUSH1 0xE5 SHL DUP2 MSTORE PUSH1 0x4 DUP2 ADD DUP4 SWAP1 MSTORE PUSH1 0x13 PUSH1 0x24 DUP3 ADD MSTORE PUSH19 0x53657373696F6E206E6F742072756E6E696E67 PUSH1 0x68 SHL PUSH1 0x44 DUP3 ADD MSTORE PUSH1 0x64 SWAP1 REVERT JUMPDEST PUSH1 0xFF SWAP2 POP PUSH1 0x10 SHR AND ISZERO DUP7 PUSH2 0x84B JUMP JUMPDEST CALLVALUE PUSH2 0x1D1 JUMPI PUSH1 0x0 CALLDATASIZE PUSH1 0x3 NOT ADD SLT PUSH2 0x1D1 JUMPI PUSH1 0x20 PUSH1 0x40 MLOAD PUSH1 0x78 DUP2 MSTORE RETURN JUMPDEST CALLVALUE PUSH2 0x1D1 JUMPI PUSH1 0x20 CALLDATASIZE PUSH1 0x3 NOT ADD SLT PUSH2 0x1D1 JUMPI PUSH1 0x4 CALLDATALOAD PUSH2 0xB02 PUSH2 0x228D JUMP JUMPDEST PUSH1 0x0 DUP2 DUP2 MSTORE PUSH1 0x2 PUSH1 0x20 MSTORE PUSH1 0x40 SWAP1 KECCAK256 PUSH1 0x1 DUP2 ADD SLOAD PUSH1 0x1 PUSH1 0x1 PUSH1 0xA0 SHL SUB SWAP2 SWAP1 DUP3 AND PUSH2 0xB2C DUP2 ISZERO ISZERO PUSH2 0x22B0 JUMP JUMPDEST PUSH1 0xB DUP3 ADD SWAP3 DUP4 SLOAD SWAP2 PUSH1 0xFF DUP4 AND PUSH1 0x5 DUP2 LT ISZERO PUSH2 0x4EC JUMPI PUSH2 0xC00 JUMPI CALLER EQ SWAP1 DUP2 ISZERO PUSH2 0xBF0 JUMPI JUMPDEST POP ISZERO PUSH2 0xB9F JUMPI PUSH2 0x101 SWAP2 TIMESTAMP PUSH1 0x7 DUP3 ADD SSTORE PUSH1 0x8 TIMESTAMP SWAP2 ADD SSTORE PUSH3 0xFFFFFF NOT AND OR SWAP1 SSTORE PUSH32 0xD010ADB8A640E9A6A134CE407A4E27DEB32FAB5B64EA5847C55101907D9C2578 PUSH1 0x20 PUSH1 0x40 MLOAD TIMESTAMP DUP2 MSTORE LOG2 PUSH1 0x1 PUSH1 0x0 SSTORE STOP JUMPDEST PUSH1 0x40 MLOAD PUSH3 0x461BCD PUSH1 0xE5 SHL DUP2 MSTORE PUSH1 0x20 PUSH1 0x4 DUP3 ADD MSTORE PUSH1 0x23 PUSH1 0x24 DUP3 ADD MSTORE PUSH32 0x4F6E6C792073657373696F6E207061727469636970616E74732063616E207374 PUSH1 0x44 DUP3 ADD MSTORE PUSH3 0x185C9D PUSH1 0xEA SHL PUSH1 0x64 DUP3 ADD MSTORE PUSH1 0x84 SWAP1 REVERT JUMPDEST SWAP1 POP PUSH1 0x2 DUP4 ADD SLOAD AND CALLER EQ DUP6 PUSH2 0xB4F JUMP JUMPDEST PUSH1 0x40 MLOAD PUSH3 0x461BCD PUSH1 0xE5 SHL DUP2 MSTORE PUSH1 0x20 PUSH1 0x4 DUP3 ADD MSTORE PUSH1 0x24 DUP1 DUP3 ADD MSTORE PUSH32 0x53657373696F6E20616C72656164792073746172746564206F7220636F6D706C PUSH1 0x44 DUP3 ADD MSTORE PUSH4 0x195D1959 PUSH1 0xE2 SHL PUSH1 0x64 DUP3 ADD MSTORE PUSH1 0x84 SWAP1 REVERT JUMPDEST CALLVALUE PUSH2 0x1D1 JUMPI PUSH1 0x20 CALLDATASIZE PUSH1 0x3 NOT ADD SLT PUSH2 0x1D1 JUMPI PUSH2 0xC6A PUSH2 0x212C JUMP JUMPDEST PUSH2 0xC72 PUSH2 0x2193 JUMP JUMPDEST PUSH1 0x1 PUSH1 0x1 PUSH1 0xA0 SHL SUB AND DUP1 ISZERO PUSH2 0xC9E JUMPI PUSH12 0xFFFFFFFFFFFFFFFFFFFFFFFF PUSH1 0xA0 SHL PUSH1 0x4 SLOAD AND OR PUSH1 0x4 SSTORE PUSH1 0x0 DUP1 RETURN JUMPDEST PUSH1 0x40 MLOAD PUSH3 0x461BCD PUSH1 0xE5 SHL DUP2 MSTORE PUSH1 0x20 PUSH1 0x4 DUP3 ADD MSTORE PUSH1 0x16 PUSH1 0x24 DUP3 ADD MSTORE PUSH22 0x496E76616C69642077616C6C65742061646472657373 PUSH1 0x50 SHL PUSH1 0x44 DUP3 ADD MSTORE PUSH1 0x64 SWAP1 REVERT JUMPDEST CALLVALUE PUSH2 0x1D1 JUMPI PUSH1 0x20 CALLDATASIZE PUSH1 0x3 NOT ADD SLT PUSH2 0x1D1 JUMPI PUSH1 0x4 CALLDATALOAD PUSH2 0xCF8 PUSH2 0x228D JUMP JUMPDEST PUSH1 0x0 DUP2 DUP2 MSTORE PUSH1 0x2 PUSH1 0x20 MSTORE PUSH1 0x40 SWAP1 KECCAK256 PUSH1 0x1 DUP2 ADD SLOAD PUSH1 0x1 PUSH1 0x1 PUSH1 0xA0 SHL SUB SWAP1 DUP2 AND PUSH2 0xD21 DUP2 ISZERO ISZERO PUSH2 0x22B0 JUMP JUMPDEST PUSH1 0xB DUP4 ADD SWAP2 DUP3 SLOAD SWAP2 PUSH1 0xFF DUP4 AND PUSH1 0x5 DUP2 LT ISZERO PUSH2 0x4EC JUMPI PUSH1 0x2 SUB PUSH2 0xE0F JUMPI CALLER EQ SWAP1 DUP2 ISZERO PUSH2 0xDFF JUMPI JUMPDEST POP ISZERO PUSH2 0xDAE JUMPI PUSH1 0x1 SWAP1 PUSH1 0x8 DUP5 ADD SWAP4 PUSH2 0xD6F PUSH1 0x9 PUSH2 0xD65 DUP8 SLOAD TIMESTAMP PUSH2 0x2336 JUMP JUMPDEST SWAP3 ADD SWAP2 DUP3 SLOAD PUSH2 0x2343 JUMP JUMPDEST SWAP1 SSTORE PUSH3 0xFF00FF NOT AND OR SWAP1 SSTORE TIMESTAMP SWAP1 SSTORE PUSH32 0x3DD443712F1BB154053901F56EF4A45320CAEEE475FC1B8F448ABB8A5ABD7EC1 PUSH1 0x20 PUSH1 0x40 MLOAD TIMESTAMP DUP2 MSTORE LOG2 PUSH1 0x1 PUSH1 0x0 SSTORE STOP JUMPDEST PUSH1 0x40 MLOAD PUSH3 0x461BCD PUSH1 0xE5 SHL DUP2 MSTORE PUSH1 0x20 PUSH1 0x4 DUP3 ADD MSTORE PUSH1 0x24 DUP1 DUP3 ADD MSTORE PUSH32 0x4F6E6C792073657373696F6E207061727469636970616E74732063616E207265 PUSH1 0x44 DUP3 ADD MSTORE PUSH4 0x73756D65 PUSH1 0xE0 SHL PUSH1 0x64 DUP3 ADD MSTORE PUSH1 0x84 SWAP1 REVERT JUMPDEST SWAP1 POP PUSH1 0x2 DUP5 ADD SLOAD AND CALLER EQ DUP6 PUSH2 0xD47 JUMP JUMPDEST PUSH1 0x40 MLOAD PUSH3 0x461BCD PUSH1 0xE5 SHL DUP2 MSTORE PUSH1 0x20 PUSH1 0x4 DUP3 ADD MSTORE PUSH1 0x12 PUSH1 0x24 DUP3 ADD MSTORE PUSH18 0x14D95CDCDA5BDB881B9BDD081C185D5CD959 PUSH1 0x72 SHL PUSH1 0x44 DUP3 ADD MSTORE PUSH1 0x64 SWAP1 REVERT JUMPDEST CALLVALUE PUSH2 0x1D1 JUMPI PUSH1 0x20 CALLDATASIZE PUSH1 0x3 NOT ADD SLT PUSH2 0x1D1 JUMPI PUSH1 0x20 PUSH2 0x7D0 PUSH1 0x4 CALLDATALOAD PUSH2 0x2418 JUMP JUMPDEST CALLVALUE PUSH2 0x1D1 JUMPI PUSH1 0x0 CALLDATASIZE PUSH1 0x3 NOT ADD SLT PUSH2 0x1D1 JUMPI PUSH1 0x1 SLOAD PUSH1 0x40 MLOAD PUSH1 0x8 SWAP2 SWAP1 SWAP2 SHR PUSH1 0x1 PUSH1 0x1 PUSH1 0xA0 SHL SUB AND DUP2 MSTORE PUSH1 0x20 SWAP1 RETURN JUMPDEST CALLVALUE PUSH2 0x1D1 JUMPI PUSH1 0x0 CALLDATASIZE PUSH1 0x3 NOT ADD SLT PUSH2 0x1D1 JUMPI PUSH2 0xEAD PUSH2 0x2193 JUMP JUMPDEST PUSH2 0xEB5 PUSH2 0x226F JUMP JUMPDEST PUSH1 0x1 PUSH1 0xFF NOT DUP2 SLOAD AND OR PUSH1 0x1 SSTORE PUSH32 0x62E78CEA01BEE320CD4E420270B5EA74000D11B0C9F74754EBDBFC544B05A258 PUSH1 0x20 PUSH1 0x40 MLOAD CALLER DUP2 MSTORE LOG1 STOP JUMPDEST CALLVALUE PUSH2 0x1D1 JUMPI PUSH1 0x20 CALLDATASIZE PUSH1 0x3 NOT ADD SLT PUSH2 0x1D1 JUMPI PUSH1 0x4 CALLDATALOAD PUSH1 0x0 MSTORE PUSH1 0x2 PUSH1 0x20 MSTORE PUSH2 0x1E0 PUSH1 0x40 PUSH1 0x0 KECCAK256 PUSH1 0xFF DUP2 SLOAD SWAP2 PUSH1 0x1 DUP1 PUSH1 0xA0 SHL SUB SWAP1 DUP2 PUSH1 0x1 DUP3 ADD SLOAD AND SWAP2 DUP1 PUSH1 0x2 DUP4 ADD SLOAD AND SWAP1 PUSH1 0x3 DUP4 ADD SLOAD AND PUSH1 0x4 DUP4 ADD SLOAD PUSH1 0x5 DUP5 ADD SLOAD PUSH1 0x6 DUP6 ADD SLOAD SWAP1 PUSH1 0x7 DUP7 ADD SLOAD SWAP3 PUSH1 0x8 DUP8 ADD SLOAD SWAP5 PUSH1 0x9 DUP9 ADD SLOAD SWAP7 PUSH1 0xB PUSH1 0xA DUP11 ADD SLOAD SWAP10 ADD SLOAD SWAP10 PUSH1 0x40 MLOAD SWAP13 DUP14 MSTORE PUSH1 0x20 DUP14 ADD MSTORE PUSH1 0x40 DUP13 ADD MSTORE PUSH1 0x60 DUP12 ADD MSTORE PUSH1 0x80 DUP11 ADD MSTORE PUSH1 0xA0 DUP10 ADD MSTORE PUSH1 0xC0 DUP9 ADD MSTORE PUSH1 0xE0 DUP8 ADD MSTORE PUSH2 0x100 DUP7 ADD MSTORE PUSH2 0x120 DUP6 ADD MSTORE PUSH2 0x140 DUP5 ADD MSTORE PUSH2 0xFAC PUSH2 0x160 DUP5 ADD DUP4 DUP4 AND PUSH2 0x2158 JUMP JUMPDEST DUP2 DUP2 PUSH1 0x8 SHR AND ISZERO ISZERO PUSH2 0x180 DUP5 ADD MSTORE DUP2 DUP2 PUSH1 0x10 SHR AND ISZERO ISZERO PUSH2 0x1A0 DUP5 ADD MSTORE PUSH1 0x18 SHR AND ISZERO ISZERO PUSH2 0x1C0 DUP3 ADD MSTORE RETURN JUMPDEST CALLVALUE PUSH2 0x1D1 JUMPI PUSH1 0x20 DUP1 PUSH1 0x3 NOT CALLDATASIZE ADD SLT PUSH2 0x1D1 JUMPI PUSH1 0x4 CALLDATALOAD PUSH2 0xFF3 PUSH2 0x228D JUMP JUMPDEST PUSH1 0x0 DUP2 DUP2 MSTORE PUSH1 0x2 DUP4 MSTORE PUSH1 0x40 SWAP1 KECCAK256 PUSH1 0x1 DUP2 ADD SLOAD PUSH1 0x1 PUSH1 0x1 PUSH1 0xA0 SHL SUB SWAP1 DUP2 AND SWAP2 SWAP1 PUSH2 0x101D DUP4 ISZERO ISZERO PUSH2 0x22B0 JUMP JUMPDEST PUSH1 0xB DUP3 ADD SWAP2 DUP3 SLOAD SWAP4 PUSH1 0xFF DUP6 AND PUSH1 0x5 DUP2 LT ISZERO PUSH2 0x4EC JUMPI PUSH1 0x1 PUSH2 0x103E SWAP2 EQ PUSH2 0x22F5 JUMP JUMPDEST PUSH1 0xFF DUP6 PUSH1 0x10 SHR AND PUSH2 0x11CD JUMPI CALLER EQ SWAP2 DUP3 ISZERO PUSH2 0x11BC JUMPI JUMPDEST POP PUSH1 0x8 ADD SWAP2 DUP3 SLOAD PUSH1 0x1E DUP2 ADD SWAP1 DUP2 DUP2 GT PUSH2 0x518 JUMPI PUSH1 0x96 ADD DUP1 SWAP2 GT PUSH2 0x518 JUMPI TIMESTAMP GT SWAP4 DUP3 DUP4 ISZERO PUSH2 0x11B5 JUMPI JUMPDEST ISZERO PUSH2 0x117B JUMPI PUSH3 0xFF00FF NOT AND PUSH3 0x10002 OR SWAP1 SSTORE DUP1 PUSH2 0x1173 JUMPI JUMPDEST PUSH2 0x116A JUMPI JUMPDEST POP ISZERO PUSH2 0x1140 JUMPI PUSH1 0x40 MLOAD PUSH2 0x10AA DUP2 PUSH2 0x21DF JUMP JUMPDEST PUSH1 0x11 DUP2 MSTORE PUSH17 0x1219585C9D1899585D081D1A5B595BDD5D PUSH1 0x7A SHL DUP4 DUP3 ADD MSTORE SWAP2 JUMPDEST PUSH1 0x40 MLOAD SWAP1 TIMESTAMP DUP3 MSTORE PUSH1 0x40 DUP2 DUP4 ADD MSTORE DUP4 MLOAD SWAP4 DUP5 PUSH1 0x40 DUP5 ADD MSTORE PUSH1 0x0 JUMPDEST DUP6 DUP2 LT PUSH2 0x112C JUMPI DUP5 PUSH32 0xEC452BB0B82C12DEB4F139FA1DFC53D2E3606E8BF03CA6A3F007D0DD6FD53507 DUP6 PUSH1 0x60 DUP2 DUP11 PUSH1 0x0 DUP4 DUP3 DUP5 ADD ADD MSTORE PUSH1 0x1F DUP1 NOT SWAP2 ADD AND DUP2 ADD SUB ADD SWAP1 LOG2 PUSH1 0x1 PUSH1 0x0 SSTORE STOP JUMPDEST DUP2 DUP2 ADD DUP4 ADD MLOAD DUP5 DUP3 ADD PUSH1 0x60 ADD MSTORE DUP3 ADD PUSH2 0x10E2 JUMP JUMPDEST PUSH1 0x40 MLOAD PUSH2 0x114C DUP2 PUSH2 0x21DF JUMP JUMPDEST PUSH1 0xC DUP2 MSTORE PUSH12 0x4D616E75616C207061757365 PUSH1 0xA0 SHL DUP4 DUP3 ADD MSTORE SWAP2 PUSH2 0x10C9 JUMP JUMPDEST TIMESTAMP SWAP1 SSTORE DUP4 PUSH2 0x1098 JUMP JUMPDEST POP DUP2 ISZERO PUSH2 0x1093 JUMP JUMPDEST PUSH1 0x40 MLOAD PUSH3 0x461BCD PUSH1 0xE5 SHL DUP2 MSTORE PUSH1 0x4 DUP2 ADD DUP9 SWAP1 MSTORE PUSH1 0x12 PUSH1 0x24 DUP3 ADD MSTORE PUSH18 0x556E617574686F72697A6564207061757365 PUSH1 0x70 SHL PUSH1 0x44 DUP3 ADD MSTORE PUSH1 0x64 SWAP1 REVERT JUMPDEST POP DUP5 PUSH2 0x107B JUMP JUMPDEST PUSH1 0x2 DUP3 ADD SLOAD AND CALLER EQ SWAP2 POP PUSH1 0x8 PUSH2 0x1053 JUMP JUMPDEST PUSH1 0x40 MLOAD PUSH3 0x461BCD PUSH1 0xE5 SHL DUP2 MSTORE PUSH1 0x4 DUP2 ADD DUP9 SWAP1 MSTORE PUSH1 0x16 PUSH1 0x24 DUP3 ADD MSTORE PUSH22 0x14D95CDCDA5BDB88185B1C9958591E481C185D5CD959 PUSH1 0x52 SHL PUSH1 0x44 DUP3 ADD MSTORE PUSH1 0x64 SWAP1 REVERT JUMPDEST CALLVALUE PUSH2 0x1D1 JUMPI PUSH1 0x80 CALLDATASIZE PUSH1 0x3 NOT ADD SLT PUSH2 0x1D1 JUMPI PUSH1 0x4 CALLDATALOAD PUSH2 0x1227 PUSH2 0x2142 JUMP JUMPDEST PUSH1 0x44 CALLDATALOAD PUSH1 0x64 CALLDATALOAD PUSH8 0xFFFFFFFFFFFFFFFF DUP2 GT PUSH2 0x1D1 JUMPI PUSH2 0x124A SWAP1 CALLDATASIZE SWAP1 PUSH1 0x4 ADD PUSH2 0x2165 JUMP JUMPDEST SWAP3 SWAP1 SWAP2 PUSH2 0x1255 PUSH2 0x2193 JUMP JUMPDEST PUSH2 0x125D PUSH2 0x228D JUMP JUMPDEST PUSH1 0x0 DUP6 DUP2 MSTORE PUSH1 0x2 PUSH1 0x20 MSTORE PUSH1 0x40 SWAP1 KECCAK256 PUSH1 0x1 DUP2 ADD SLOAD PUSH1 0x1 PUSH1 0x1 PUSH1 0xA0 SHL SUB SWAP6 SWAP2 SWAP1 PUSH2 0x1288 SWAP1 DUP8 AND ISZERO ISZERO PUSH2 0x22B0 JUMP JUMPDEST DUP6 DUP5 AND ISZERO PUSH2 0x1368 JUMPI PUSH1 0x4 DUP2 ADD SLOAD SWAP4 PUSH1 0x5 DUP3 ADD SWAP1 PUSH2 0x12A7 DUP3 SLOAD DUP1 SWAP8 PUSH2 0x2336 JUMP JUMPDEST DUP6 GT PUSH2 0x1323 JUMPI PUSH32 0x482A5548DA3675089CF6763340CBD789090E2187C64B37C814C5340111636C47 SWAP8 PUSH1 0x3 PUSH2 0x12ED SWAP5 DUP8 SWAP5 PUSH2 0x12E3 DUP7 PUSH1 0x60 SWAP12 PUSH2 0x2343 JUMP JUMPDEST SWAP1 SSTORE ADD SLOAD AND PUSH2 0x2350 JUMP JUMPDEST DUP1 PUSH1 0x40 MLOAD SWAP5 DUP6 SWAP4 DUP5 MSTORE PUSH1 0x40 PUSH1 0x20 DUP6 ADD MSTORE DUP2 PUSH1 0x40 DUP6 ADD MSTORE DUP5 DUP5 ADD CALLDATACOPY PUSH1 0x0 DUP3 DUP3 ADD DUP5 ADD MSTORE PUSH1 0x1F ADD PUSH1 0x1F NOT AND DUP2 ADD SUB ADD SWAP1 LOG2 PUSH1 0x1 PUSH1 0x0 SSTORE STOP JUMPDEST PUSH1 0x40 MLOAD PUSH3 0x461BCD PUSH1 0xE5 SHL DUP2 MSTORE PUSH1 0x20 PUSH1 0x4 DUP3 ADD MSTORE PUSH1 0x18 PUSH1 0x24 DUP3 ADD MSTORE PUSH32 0x416D6F756E74206578636565647320617661696C61626C650000000000000000 PUSH1 0x44 DUP3 ADD MSTORE PUSH1 0x64 SWAP1 REVERT JUMPDEST PUSH1 0x40 MLOAD PUSH3 0x461BCD PUSH1 0xE5 SHL DUP2 MSTORE PUSH1 0x20 PUSH1 0x4 DUP3 ADD MSTORE PUSH1 0x11 PUSH1 0x24 DUP3 ADD MSTORE PUSH17 0x125B9D985B1A59081C9958DA5C1A595B9D PUSH1 0x7A SHL PUSH1 0x44 DUP3 ADD MSTORE PUSH1 0x64 SWAP1 REVERT JUMPDEST CALLVALUE PUSH2 0x1D1 JUMPI PUSH1 0x20 CALLDATASIZE PUSH1 0x3 NOT ADD SLT PUSH2 0x1D1 JUMPI PUSH2 0x13BA PUSH2 0x212C JUMP JUMPDEST PUSH2 0x13C2 PUSH2 0x2193 JUMP JUMPDEST PUSH1 0x1 PUSH1 0x1 PUSH1 0xA0 SHL SUB AND PUSH1 0x0 SWAP1 DUP2 MSTORE PUSH1 0x3 PUSH1 0x20 MSTORE PUSH1 0x40 SWAP1 KECCAK256 DUP1 SLOAD PUSH1 0xFF NOT AND SWAP1 SSTORE STOP JUMPDEST CALLVALUE PUSH2 0x1D1 JUMPI PUSH1 0x0 CALLDATASIZE PUSH1 0x3 NOT ADD SLT PUSH2 0x1D1 JUMPI PUSH2 0x13FC PUSH2 0x2193 JUMP JUMPDEST PUSH1 0x1 DUP1 SLOAD PUSH2 0x100 PUSH1 0x1 PUSH1 0xA8 SHL SUB NOT DUP2 AND SWAP1 SWAP2 SSTORE PUSH1 0x0 SWAP1 PUSH1 0x8 SHR PUSH1 0x1 PUSH1 0x1 PUSH1 0xA0 SHL SUB AND PUSH32 0x8BE0079C531659141344CD1FD0A4F28419497F9722A3DAAFE3B4186F6B6457E0 DUP3 DUP1 LOG3 STOP JUMPDEST CALLVALUE PUSH2 0x1D1 JUMPI PUSH1 0x20 CALLDATASIZE PUSH1 0x3 NOT ADD SLT PUSH2 0x1D1 JUMPI PUSH2 0x145D PUSH2 0x212C JUMP JUMPDEST PUSH2 0x1465 PUSH2 0x2193 JUMP JUMPDEST PUSH1 0x1 PUSH1 0x1 PUSH1 0xA0 SHL SUB AND DUP1 ISZERO PUSH2 0x148F JUMPI PUSH1 0x0 SWAP1 DUP2 MSTORE PUSH1 0x3 PUSH1 0x20 MSTORE PUSH1 0x40 SWAP1 KECCAK256 DUP1 SLOAD PUSH1 0xFF NOT AND PUSH1 0x1 OR SWAP1 SSTORE STOP JUMPDEST PUSH1 0x40 MLOAD PUSH3 0x461BCD PUSH1 0xE5 SHL DUP2 MSTORE PUSH1 0x20 PUSH1 0x4 DUP3 ADD MSTORE PUSH1 0x15 PUSH1 0x24 DUP3 ADD MSTORE PUSH21 0x496E76616C696420746F6B656E2061646472657373 PUSH1 0x58 SHL PUSH1 0x44 DUP3 ADD MSTORE PUSH1 0x64 SWAP1 REVERT JUMPDEST CALLVALUE PUSH2 0x1D1 JUMPI PUSH1 0x20 CALLDATASIZE PUSH1 0x3 NOT ADD SLT PUSH2 0x1D1 JUMPI PUSH1 0x20 PUSH2 0x14EA PUSH1 0x4 CALLDATALOAD PUSH2 0x26CF JUMP JUMPDEST PUSH1 0x40 MLOAD SWAP1 ISZERO ISZERO DUP2 MSTORE RETURN JUMPDEST CALLVALUE PUSH2 0x1D1 JUMPI PUSH1 0x20 CALLDATASIZE PUSH1 0x3 NOT ADD SLT PUSH2 0x1D1 JUMPI PUSH1 0x1 PUSH1 0x1 PUSH1 0xA0 SHL SUB PUSH2 0x1515 PUSH2 0x212C JUMP JUMPDEST AND PUSH1 0x0 MSTORE PUSH1 0x3 PUSH1 0x20 MSTORE PUSH1 0x20 PUSH1 0xFF PUSH1 0x40 PUSH1 0x0 KECCAK256 SLOAD AND PUSH1 0x40 MLOAD SWAP1 ISZERO ISZERO DUP2 MSTORE RETURN JUMPDEST CALLVALUE PUSH2 0x1D1 JUMPI PUSH1 0x20 CALLDATASIZE PUSH1 0x3 NOT ADD SLT PUSH2 0x1D1 JUMPI PUSH1 0x1 PUSH1 0x1 PUSH1 0xA0 SHL SUB PUSH2 0x1554 PUSH2 0x212C JUMP JUMPDEST AND PUSH1 0x0 MSTORE PUSH1 0x5 PUSH1 0x20 MSTORE PUSH1 0x20 PUSH1 0x40 PUSH1 0x0 KECCAK256 SLOAD PUSH1 0x40 MLOAD SWAP1 DUP2 MSTORE RETURN JUMPDEST CALLVALUE PUSH2 0x1D1 JUMPI PUSH1 0x0 CALLDATASIZE PUSH1 0x3 NOT ADD SLT PUSH2 0x1D1 JUMPI PUSH1 0x20 PUSH1 0xFF PUSH1 0x1 SLOAD AND PUSH1 0x40 MLOAD SWAP1 ISZERO ISZERO DUP2 MSTORE RETURN JUMPDEST CALLVALUE PUSH2 0x1D1 JUMPI PUSH1 0x20 CALLDATASIZE PUSH1 0x3 NOT ADD SLT PUSH2 0x1D1 JUMPI PUSH1 0x20 PUSH2 0x14EA PUSH1 0x4 CALLDATALOAD PUSH2 0x2599 JUMP JUMPDEST CALLVALUE PUSH2 0x1D1 JUMPI PUSH1 0x0 CALLDATASIZE PUSH1 0x3 NOT ADD SLT PUSH2 0x1D1 JUMPI PUSH1 0x20 PUSH1 0x40 MLOAD PUSH1 0xA DUP2 MSTORE RETURN JUMPDEST CALLVALUE PUSH2 0x1D1 JUMPI PUSH1 0x20 CALLDATASIZE PUSH1 0x3 NOT ADD SLT PUSH2 0x1D1 JUMPI PUSH1 0x4 CALLDATALOAD PUSH2 0x15E6 PUSH2 0x228D JUMP JUMPDEST PUSH1 0x0 DUP2 DUP2 MSTORE PUSH1 0x2 PUSH1 0x20 MSTORE PUSH1 0x40 SWAP1 KECCAK256 PUSH1 0x1 DUP2 ADD SLOAD PUSH1 0x1 PUSH1 0x1 PUSH1 0xA0 SHL SUB SWAP1 DUP2 AND SWAP2 SWAP1 PUSH2 0x1611 DUP4 ISZERO ISZERO PUSH2 0x22B0 JUMP JUMPDEST PUSH1 0xB DUP3 ADD SWAP2 DUP3 SLOAD SWAP1 PUSH1 0xFF DUP3 AND PUSH1 0x5 DUP2 LT ISZERO PUSH2 0x4EC JUMPI PUSH2 0x1702 JUMPI DUP5 CALLER EQ DUP1 ISZERO PUSH2 0x16F3 JUMPI JUMPDEST ISZERO PUSH2 0x16A2 JUMPI PUSH32 0x1D74C88FC8A136A8FB434DB3561E44ECBC5B4577D1F1EA7E30D97250EAD2CF2D SWAP5 PUSH1 0x40 SWAP5 PUSH1 0x4 PUSH2 0x168F SWAP5 PUSH1 0xFF NOT AND OR SWAP1 SSTORE PUSH1 0x4 DUP3 ADD SLOAD SWAP4 PUSH1 0x3 PUSH1 0x5 DUP5 ADD SWAP4 PUSH2 0x1683 DUP6 SLOAD DUP9 PUSH2 0x2336 JUMP JUMPDEST SWAP7 DUP8 SWAP6 SSTORE ADD SLOAD AND PUSH2 0x2350 JUMP JUMPDEST DUP2 MLOAD SWAP1 DUP2 MSTORE TIMESTAMP PUSH1 0x20 DUP3 ADD MSTORE LOG2 PUSH1 0x1 PUSH1 0x0 SSTORE STOP JUMPDEST PUSH1 0x40 MLOAD PUSH3 0x461BCD PUSH1 0xE5 SHL DUP2 MSTORE PUSH1 0x20 PUSH1 0x4 DUP3 ADD MSTORE PUSH1 0x24 DUP1 DUP3 ADD MSTORE PUSH32 0x4F6E6C792073657373696F6E207061727469636970616E74732063616E206361 PUSH1 0x44 DUP3 ADD MSTORE PUSH4 0x1B98D95B PUSH1 0xE2 SHL PUSH1 0x64 DUP3 ADD MSTORE PUSH1 0x84 SWAP1 REVERT JUMPDEST POP DUP3 PUSH1 0x2 DUP3 ADD SLOAD AND CALLER EQ PUSH2 0x1634 JUMP JUMPDEST PUSH1 0x40 MLOAD PUSH3 0x461BCD PUSH1 0xE5 SHL DUP2 MSTORE PUSH1 0x20 PUSH1 0x4 DUP3 ADD MSTORE PUSH1 0x17 PUSH1 0x24 DUP3 ADD MSTORE PUSH32 0x53657373696F6E20616C72656164792073746172746564000000000000000000 PUSH1 0x44 DUP3 ADD MSTORE PUSH1 0x64 SWAP1 REVERT JUMPDEST CALLVALUE PUSH2 0x1D1 JUMPI PUSH1 0x0 CALLDATASIZE PUSH1 0x3 NOT ADD SLT PUSH2 0x1D1 JUMPI PUSH2 0x1760 PUSH2 0x2193 JUMP JUMPDEST PUSH1 0x1 SLOAD PUSH1 0xFF DUP2 AND ISZERO PUSH2 0x179F JUMPI PUSH1 0xFF NOT AND PUSH1 0x1 SSTORE PUSH32 0x5DB9EE0A495BF2E6FF9C91A7834C1BA4FDD244A5E8AA4E537BD38AEAE4B073AA PUSH1 0x20 PUSH1 0x40 MLOAD CALLER DUP2 MSTORE LOG1 STOP JUMPDEST PUSH1 0x40 MLOAD PUSH4 0x8DFC202B PUSH1 0xE0 SHL DUP2 MSTORE PUSH1 0x4 SWAP1 REVERT JUMPDEST CALLVALUE PUSH2 0x1D1 JUMPI PUSH1 0x60 CALLDATASIZE PUSH1 0x3 NOT ADD SLT PUSH2 0x1D1 JUMPI PUSH1 0x4 CALLDATALOAD PUSH1 0x24 DUP1 CALLDATALOAD SWAP1 PUSH1 0x44 CALLDATALOAD PUSH8 0xFFFFFFFFFFFFFFFF DUP2 GT PUSH2 0x1D1 JUMPI PUSH2 0x17EA SWAP1 CALLDATASIZE SWAP1 PUSH1 0x4 ADD PUSH2 0x2165 JUMP JUMPDEST POP POP PUSH2 0x17F4 PUSH2 0x228D JUMP JUMPDEST DUP3 PUSH1 0x0 MSTORE PUSH1 0x2 PUSH1 0x20 MSTORE PUSH1 0x40 PUSH1 0x0 KECCAK256 SWAP1 PUSH1 0x1 DUP1 PUSH1 0xA0 SHL SUB SWAP3 DUP4 PUSH1 0x1 DUP5 ADD SLOAD AND PUSH2 0x181D DUP2 ISZERO ISZERO PUSH2 0x22B0 JUMP JUMPDEST CALLER SUB PUSH2 0x19FE JUMPI PUSH1 0xB DUP4 ADD SWAP1 DUP2 SLOAD SWAP1 PUSH1 0xFF DUP3 AND PUSH1 0x5 DUP2 LT ISZERO PUSH2 0x19E9 JUMPI PUSH1 0x1 DUP2 EQ SWAP1 DUP2 ISZERO PUSH2 0x19DE JUMPI JUMPDEST POP ISZERO PUSH2 0x199A JUMPI PUSH1 0x1 DUP2 LT ISZERO SWAP1 DUP2 PUSH2 0x198E JUMPI JUMPDEST POP ISZERO PUSH2 0x194A JUMPI PUSH4 0x1000003 SWAP1 PUSH4 0xFF00FFFF NOT AND OR SWAP1 SSTORE PUSH1 0x4 DUP3 ADD SLOAD SWAP3 PUSH1 0x5 DUP4 ADD SWAP4 PUSH2 0x1882 DUP6 SLOAD DUP3 PUSH2 0x2336 JUMP JUMPDEST SWAP3 PUSH1 0xA DUP5 MUL SWAP1 DUP5 DUP3 DIV PUSH1 0xA EQ DUP6 ISZERO OR ISZERO PUSH2 0x1936 JUMPI POP SWAP2 PUSH2 0x18CD SWAP4 SWAP2 PUSH1 0x64 PUSH32 0x556195694FC082AD19415EAEC58C1584EC20066F6E655BE3034932C454D38A23 SWAP8 SWAP7 SWAP5 DIV SWAP5 DUP6 DUP1 SWAP5 PUSH2 0x2336 JUMP JUMPDEST SWAP6 SSTORE DUP5 PUSH2 0x1919 JUMPI JUMPDEST DUP2 PUSH2 0x18FC JUMPI JUMPDEST POP POP PUSH1 0x40 DUP1 MLOAD SWAP4 DUP5 MSTORE PUSH1 0x20 DUP5 ADD SWAP3 SWAP1 SWAP3 MSTORE POP TIMESTAMP SWAP1 DUP3 ADD MSTORE DUP1 PUSH1 0x60 DUP2 ADD PUSH2 0x935 JUMP JUMPDEST DUP1 PUSH1 0x3 PUSH2 0x1911 SWAP5 ADD SLOAD AND SWAP1 PUSH1 0x4 SLOAD AND SWAP1 PUSH2 0x2350 JUMP JUMPDEST DUP5 DUP2 DUP2 PUSH2 0x18DB JUMP JUMPDEST PUSH2 0x1931 DUP6 DUP3 PUSH1 0x3 DUP7 ADD SLOAD AND DUP4 PUSH1 0x2 DUP8 ADD SLOAD AND SWAP1 PUSH2 0x2350 JUMP JUMPDEST PUSH2 0x18D5 JUMP JUMPDEST PUSH4 0x4E487B71 PUSH1 0xE0 SHL PUSH1 0x0 SWAP1 DUP2 MSTORE PUSH1 0x11 PUSH1 0x4 MSTORE REVERT JUMPDEST PUSH1 0x40 MLOAD PUSH3 0x461BCD PUSH1 0xE5 SHL DUP2 MSTORE PUSH1 0x20 PUSH1 0x4 DUP3 ADD MSTORE PUSH1 0x1E DUP2 DUP6 ADD MSTORE PUSH32 0x526174696E67206D757374206265206265747765656E203120616E6420350000 PUSH1 0x44 DUP3 ADD MSTORE PUSH1 0x64 SWAP1 REVERT JUMPDEST PUSH1 0x5 SWAP2 POP GT ISZERO DUP8 PUSH2 0x1856 JUMP JUMPDEST PUSH1 0x40 MLOAD PUSH3 0x461BCD PUSH1 0xE5 SHL DUP2 MSTORE PUSH1 0x20 PUSH1 0x4 DUP3 ADD DUP2 SWAP1 MSTORE DUP2 DUP7 ADD MSTORE PUSH32 0x53657373696F6E206E6F7420726561647920666F7220636F6D706C6574696F6E PUSH1 0x44 DUP3 ADD MSTORE PUSH1 0x64 SWAP1 REVERT JUMPDEST PUSH1 0x2 SWAP2 POP EQ DUP9 PUSH2 0x1844 JUMP JUMPDEST DUP5 PUSH4 0x4E487B71 PUSH1 0xE0 SHL PUSH1 0x0 MSTORE PUSH1 0x21 PUSH1 0x4 MSTORE PUSH1 0x0 REVERT JUMPDEST PUSH1 0x40 MLOAD PUSH3 0x461BCD PUSH1 0xE5 SHL DUP2 MSTORE PUSH1 0x20 PUSH1 0x4 DUP3 ADD MSTORE PUSH1 0x21 DUP2 DUP5 ADD MSTORE PUSH32 0x4F6E6C792073747564656E742063616E20636F6D706C6574652073657373696F PUSH1 0x44 DUP3 ADD MSTORE PUSH1 0x37 PUSH1 0xF9 SHL PUSH1 0x64 DUP3 ADD MSTORE PUSH1 0x84 SWAP1 REVERT JUMPDEST CALLVALUE PUSH2 0x1D1 JUMPI PUSH1 0x20 CALLDATASIZE PUSH1 0x3 NOT ADD SLT PUSH2 0x1D1 JUMPI PUSH1 0x0 PUSH2 0x1C0 PUSH1 0x40 MLOAD PUSH2 0x1A6E DUP2 PUSH2 0x21C2 JUMP JUMPDEST DUP3 DUP2 MSTORE DUP3 PUSH1 0x20 DUP3 ADD MSTORE DUP3 PUSH1 0x40 DUP3 ADD MSTORE DUP3 PUSH1 0x60 DUP3 ADD MSTORE DUP3 PUSH1 0x80 DUP3 ADD MSTORE DUP3 PUSH1 0xA0 DUP3 ADD MSTORE DUP3 PUSH1 0xC0 DUP3 ADD MSTORE DUP3 PUSH1 0xE0 DUP3 ADD MSTORE DUP3 PUSH2 0x100 DUP3 ADD MSTORE DUP3 PUSH2 0x120 DUP3 ADD MSTORE DUP3 PUSH2 0x140 DUP3 ADD MSTORE DUP3 PUSH2 0x160 DUP3 ADD MSTORE DUP3 PUSH2 0x180 DUP3 ADD MSTORE DUP3 PUSH2 0x1A0 DUP3 ADD MSTORE ADD MSTORE PUSH1 0x4 CALLDATALOAD PUSH1 0x0 MSTORE PUSH1 0x2 PUSH1 0x20 MSTORE PUSH2 0x1E0 PUSH1 0x40 PUSH1 0x0 KECCAK256 PUSH1 0xFF PUSH1 0xB PUSH1 0x40 MLOAD SWAP3 PUSH2 0x1AEB DUP5 PUSH2 0x21C2 JUMP JUMPDEST DUP1 SLOAD DUP5 MSTORE PUSH1 0x1 DUP2 ADD SLOAD PUSH1 0x1 PUSH1 0x1 PUSH1 0xA0 SHL SUB SWAP1 DUP2 AND PUSH1 0x20 DUP7 ADD MSTORE PUSH1 0x2 DUP3 ADD SLOAD DUP2 AND PUSH1 0x40 DUP7 ADD MSTORE PUSH1 0x3 DUP3 ADD SLOAD AND PUSH1 0x60 DUP6 ADD MSTORE PUSH1 0x4 DUP2 ADD SLOAD PUSH1 0x80 DUP6 ADD MSTORE PUSH1 0x5 DUP2 ADD SLOAD PUSH1 0xA0 DUP6 ADD MSTORE PUSH1 0x6 DUP2 ADD SLOAD PUSH1 0xC0 DUP6 ADD MSTORE PUSH1 0x7 DUP2 ADD SLOAD PUSH1 0xE0 DUP6 ADD MSTORE PUSH1 0x8 DUP2 ADD SLOAD PUSH2 0x100 DUP6 ADD MSTORE PUSH1 0x9 DUP2 ADD SLOAD PUSH2 0x120 DUP6 ADD MSTORE PUSH1 0xA DUP2 ADD SLOAD PUSH2 0x140 DUP6 ADD MSTORE ADD SLOAD PUSH2 0x1B76 DUP3 DUP3 AND PUSH2 0x160 DUP6 ADD PUSH2 0x21FB JUMP JUMPDEST DUP2 DUP2 PUSH1 0x8 SHR AND ISZERO ISZERO PUSH2 0x180 DUP5 ADD MSTORE DUP2 DUP2 PUSH1 0x10 SHR AND ISZERO ISZERO PUSH2 0x1A0 DUP5 ADD MSTORE PUSH1 0x18 SHR AND ISZERO ISZERO PUSH2 0x1C0 DUP3 ADD MSTORE PUSH2 0x1C0 PUSH1 0x40 MLOAD SWAP2 DUP1 MLOAD DUP4 MSTORE PUSH1 0x1 DUP1 PUSH1 0xA0 SHL SUB PUSH1 0x20 DUP3 ADD MLOAD AND PUSH1 0x20 DUP5 ADD MSTORE PUSH1 0x1 DUP1 PUSH1 0xA0 SHL SUB PUSH1 0x40 DUP3 ADD MLOAD AND PUSH1 0x40 DUP5 ADD MSTORE PUSH1 0x1 DUP1 PUSH1 0xA0 SHL SUB PUSH1 0x60 DUP3 ADD MLOAD AND PUSH1 0x60 DUP5 ADD MSTORE PUSH1 0x80 DUP2 ADD MLOAD PUSH1 0x80 DUP5 ADD MSTORE PUSH1 0xA0 DUP2 ADD MLOAD PUSH1 0xA0 DUP5 ADD MSTORE PUSH1 0xC0 DUP2 ADD MLOAD PUSH1 0xC0 DUP5 ADD MSTORE PUSH1 0xE0 DUP2 ADD MLOAD PUSH1 0xE0 DUP5 ADD MSTORE PUSH2 0x100 DUP2 ADD MLOAD PUSH2 0x100 DUP5 ADD MSTORE PUSH2 0x120 DUP2 ADD MLOAD PUSH2 0x120 DUP5 ADD MSTORE PUSH2 0x140 DUP2 ADD MLOAD PUSH2 0x140 DUP5 ADD MSTORE PUSH2 0x1C3F PUSH2 0x160 DUP3 ADD MLOAD PUSH2 0x160 DUP6 ADD SWAP1 PUSH2 0x2158 JUMP JUMPDEST PUSH2 0x180 DUP2 ADD MLOAD ISZERO ISZERO PUSH2 0x180 DUP5 ADD MSTORE PUSH2 0x1A0 DUP2 ADD MLOAD ISZERO ISZERO PUSH2 0x1A0 DUP5 ADD MSTORE ADD MLOAD ISZERO ISZERO PUSH2 0x1C0 DUP3 ADD MSTORE RETURN JUMPDEST CALLVALUE PUSH2 0x1D1 JUMPI PUSH1 0x0 CALLDATASIZE PUSH1 0x3 NOT ADD SLT PUSH2 0x1D1 JUMPI PUSH1 0x20 PUSH1 0x40 MLOAD PUSH1 0xB4 DUP2 MSTORE RETURN JUMPDEST CALLVALUE PUSH2 0x1D1 JUMPI PUSH1 0x0 CALLDATASIZE PUSH1 0x3 NOT ADD SLT PUSH2 0x1D1 JUMPI PUSH1 0x20 PUSH1 0x40 MLOAD PUSH1 0x1E DUP2 MSTORE RETURN JUMPDEST CALLVALUE PUSH2 0x1D1 JUMPI PUSH1 0x20 CALLDATASIZE PUSH1 0x3 NOT ADD SLT PUSH2 0x1D1 JUMPI PUSH1 0x4 CALLDATALOAD PUSH2 0x1CBB PUSH2 0x228D JUMP JUMPDEST PUSH1 0x0 DUP2 DUP2 MSTORE PUSH1 0x2 PUSH1 0x20 MSTORE PUSH1 0x40 SWAP1 KECCAK256 PUSH1 0x1 DUP2 ADD SLOAD PUSH1 0x1 PUSH1 0x1 PUSH1 0xA0 SHL SUB SWAP2 SWAP1 PUSH2 0x1CE5 SWAP1 DUP4 AND ISZERO ISZERO PUSH2 0x22B0 JUMP JUMPDEST PUSH1 0xB DUP2 ADD DUP1 SLOAD PUSH1 0xFF DUP2 AND PUSH1 0x5 DUP2 LT ISZERO PUSH2 0x4EC JUMPI PUSH1 0x1 DUP2 EQ SWAP1 DUP2 ISZERO PUSH2 0x1E23 JUMPI JUMPDEST POP ISZERO PUSH2 0x1DCD JUMPI PUSH1 0xA DUP4 ADD SLOAD PUSH3 0x93A80 DUP2 ADD DUP1 SWAP2 GT PUSH2 0x518 JUMPI TIMESTAMP LT PUSH2 0x1D88 JUMPI PUSH1 0x3 SWAP1 PUSH2 0xFFFF NOT AND OR SWAP1 SSTORE PUSH1 0x4 DUP2 ADD SLOAD SWAP2 PUSH1 0x5 DUP3 ADD SWAP2 PUSH2 0x1D43 DUP4 SLOAD DUP6 PUSH2 0x2336 JUMP JUMPDEST PUSH1 0xA DUP2 MUL SWAP3 DUP2 DUP5 DIV PUSH1 0xA EQ DUP3 ISZERO OR ISZERO PUSH2 0x518 JUMPI PUSH32 0x556195694FC082AD19415EAEC58C1584EC20066F6E655BE3034932C454D38A23 SWAP6 PUSH1 0x64 PUSH2 0x18CD SWAP6 DIV SWAP5 DUP6 DUP1 SWAP5 PUSH2 0x2336 JUMP JUMPDEST PUSH1 0x40 MLOAD PUSH3 0x461BCD PUSH1 0xE5 SHL DUP2 MSTORE PUSH1 0x20 PUSH1 0x4 DUP3 ADD MSTORE PUSH1 0x1E PUSH1 0x24 DUP3 ADD MSTORE PUSH32 0x4175746F2D72656C656173652064656C6179206E6F7420726561636865640000 PUSH1 0x44 DUP3 ADD MSTORE PUSH1 0x64 SWAP1 REVERT JUMPDEST PUSH1 0x40 MLOAD PUSH3 0x461BCD PUSH1 0xE5 SHL DUP2 MSTORE PUSH1 0x20 PUSH1 0x4 DUP3 ADD MSTORE PUSH1 0x28 PUSH1 0x24 DUP3 ADD MSTORE PUSH32 0x53657373696F6E206E6F7420656C696769626C6520666F72206175746F2D636F PUSH1 0x44 DUP3 ADD MSTORE PUSH8 0x36B83632BA34B7B7 PUSH1 0xC1 SHL PUSH1 0x64 DUP3 ADD MSTORE PUSH1 0x84 SWAP1 REVERT JUMPDEST PUSH1 0x2 SWAP2 POP EQ DUP7 PUSH2 0x1D04 JUMP JUMPDEST CALLVALUE PUSH2 0x1D1 JUMPI PUSH1 0x20 CALLDATASIZE PUSH1 0x3 NOT ADD SLT PUSH2 0x1D1 JUMPI PUSH1 0x4 CALLDATALOAD PUSH1 0x0 MSTORE PUSH1 0x6 PUSH1 0x20 MSTORE PUSH1 0x20 PUSH1 0xFF PUSH1 0x40 PUSH1 0x0 KECCAK256 SLOAD AND PUSH1 0x40 MLOAD SWAP1 ISZERO ISZERO DUP2 MSTORE RETURN JUMPDEST CALLVALUE PUSH2 0x1D1 JUMPI PUSH1 0x60 CALLDATASIZE PUSH1 0x3 NOT ADD SLT PUSH2 0x1D1 JUMPI PUSH1 0x20 PUSH2 0x7D0 PUSH1 0x44 CALLDATALOAD PUSH1 0x24 CALLDATALOAD PUSH1 0x4 CALLDATALOAD PUSH2 0x23A2 JUMP JUMPDEST CALLVALUE PUSH2 0x1D1 JUMPI PUSH1 0x0 CALLDATASIZE PUSH1 0x3 NOT ADD SLT PUSH2 0x1D1 JUMPI PUSH1 0x20 PUSH1 0x40 MLOAD PUSH3 0x93A80 DUP2 MSTORE RETURN JUMPDEST CALLVALUE PUSH2 0x1D1 JUMPI PUSH1 0x20 DUP1 PUSH1 0x3 NOT CALLDATASIZE ADD SLT PUSH2 0x1D1 JUMPI PUSH1 0x4 CALLDATALOAD PUSH2 0x1EBE PUSH2 0x228D JUMP JUMPDEST PUSH1 0x0 DUP2 DUP2 MSTORE PUSH1 0x2 DUP4 MSTORE PUSH1 0x40 SWAP1 KECCAK256 PUSH1 0x1 DUP2 ADD SLOAD PUSH1 0x1 PUSH1 0x1 PUSH1 0xA0 SHL SUB SWAP4 SWAP2 SWAP1 DUP5 AND SWAP1 PUSH2 0x1EE9 DUP3 ISZERO ISZERO PUSH2 0x22B0 JUMP JUMPDEST PUSH1 0xB DUP2 ADD SLOAD SWAP2 PUSH1 0xFF DUP4 AND PUSH1 0x5 DUP2 LT ISZERO PUSH2 0x4EC JUMPI PUSH1 0x1 PUSH2 0x1F08 SWAP2 EQ PUSH2 0x22F5 JUMP JUMPDEST CALLER EQ DUP1 ISZERO PUSH2 0x211D JUMPI JUMPDEST ISZERO PUSH2 0x20C1 JUMPI TIMESTAMP PUSH1 0x8 SWAP1 SWAP2 ADD SSTORE PUSH1 0x10 SHR PUSH1 0xFF AND PUSH2 0x1F58 JUMPI JUMPDEST PUSH32 0x3CF0BF7708060BF073B6DDB921EEF0485B3EB9DA828E0ED751FA6582EF337F57 SWAP1 PUSH1 0x40 MLOAD TIMESTAMP DUP2 MSTORE LOG2 PUSH1 0x1 PUSH1 0x0 SSTORE STOP JUMPDEST PUSH2 0x1F60 PUSH2 0x228D JUMP JUMPDEST DUP2 PUSH1 0x0 MSTORE PUSH1 0x2 DUP2 MSTORE PUSH1 0x40 PUSH1 0x0 KECCAK256 DUP4 PUSH1 0x1 DUP3 ADD SLOAD AND SWAP4 PUSH2 0x1F80 DUP6 ISZERO ISZERO PUSH2 0x22B0 JUMP JUMPDEST PUSH1 0xB DUP3 ADD SWAP1 DUP2 SLOAD SWAP6 PUSH1 0xFF DUP8 AND PUSH1 0x5 DUP2 LT ISZERO PUSH2 0x4EC JUMPI PUSH1 0x2 SUB PUSH2 0x2087 JUMPI CALLER EQ SWAP1 DUP2 ISZERO PUSH2 0x2077 JUMPI JUMPDEST POP ISZERO PUSH2 0x2026 JUMPI PUSH1 0x1 PUSH32 0x3CF0BF7708060BF073B6DDB921EEF0485B3EB9DA828E0ED751FA6582EF337F57 SWAP5 SWAP6 PUSH1 0x8 DUP5 ADD SWAP4 PUSH2 0x1FE6 PUSH1 0x9 PUSH2 0xD65 DUP8 SLOAD TIMESTAMP PUSH2 0x2336 JUMP JUMPDEST SWAP1 SSTORE PUSH3 0xFF00FF NOT AND OR SWAP1 SSTORE TIMESTAMP SWAP1 SSTORE DUP3 PUSH32 0x3DD443712F1BB154053901F56EF4A45320CAEEE475FC1B8F448ABB8A5ABD7EC1 DUP3 PUSH1 0x40 MLOAD TIMESTAMP DUP2 MSTORE LOG2 DUP3 SWAP2 POP PUSH2 0x1F28 JUMP JUMPDEST PUSH1 0x40 MLOAD PUSH3 0x461BCD PUSH1 0xE5 SHL DUP2 MSTORE PUSH1 0x4 DUP2 ADD DUP5 SWAP1 MSTORE PUSH1 0x24 DUP1 DUP3 ADD MSTORE PUSH32 0x4F6E6C792073657373696F6E207061727469636970616E74732063616E207265 PUSH1 0x44 DUP3 ADD MSTORE PUSH4 0x73756D65 PUSH1 0xE0 SHL PUSH1 0x64 DUP3 ADD MSTORE PUSH1 0x84 SWAP1 REVERT JUMPDEST SWAP1 POP PUSH1 0x2 DUP4 ADD SLOAD AND CALLER EQ DUP7 PUSH2 0x1FA6 JUMP JUMPDEST PUSH1 0x40 MLOAD PUSH3 0x461BCD PUSH1 0xE5 SHL DUP2 MSTORE PUSH1 0x4 DUP2 ADD DUP7 SWAP1 MSTORE PUSH1 0x12 PUSH1 0x24 DUP3 ADD MSTORE PUSH18 0x14D95CDCDA5BDB881B9BDD081C185D5CD959 PUSH1 0x72 SHL PUSH1 0x44 DUP3 ADD MSTORE PUSH1 0x64 SWAP1 REVERT JUMPDEST PUSH1 0x40 MLOAD PUSH3 0x461BCD PUSH1 0xE5 SHL DUP2 MSTORE PUSH1 0x4 DUP2 ADD DUP5 SWAP1 MSTORE PUSH1 0x2E PUSH1 0x24 DUP3 ADD MSTORE PUSH32 0x4F6E6C792073657373696F6E207061727469636970616E74732063616E207570 PUSH1 0x44 DUP3 ADD MSTORE PUSH14 0x19185D19481A19585C9D1899585D PUSH1 0x92 SHL PUSH1 0x64 DUP3 ADD MSTORE PUSH1 0x84 SWAP1 REVERT JUMPDEST POP DUP5 PUSH1 0x2 DUP3 ADD SLOAD AND CALLER EQ PUSH2 0x1F11 JUMP JUMPDEST PUSH1 0x4 CALLDATALOAD SWAP1 PUSH1 0x1 PUSH1 0x1 PUSH1 0xA0 SHL SUB DUP3 AND DUP3 SUB PUSH2 0x1D1 JUMPI JUMP JUMPDEST PUSH1 0x24 CALLDATALOAD SWAP1 PUSH1 0x1 PUSH1 0x1 PUSH1 0xA0 SHL SUB DUP3 AND DUP3 SUB PUSH2 0x1D1 JUMPI JUMP JUMPDEST SWAP1 PUSH1 0x5 DUP3 LT ISZERO PUSH2 0x4EC JUMPI MSTORE JUMP JUMPDEST SWAP2 DUP2 PUSH1 0x1F DUP5 ADD SLT ISZERO PUSH2 0x1D1 JUMPI DUP3 CALLDATALOAD SWAP2 PUSH8 0xFFFFFFFFFFFFFFFF DUP4 GT PUSH2 0x1D1 JUMPI PUSH1 0x20 DUP4 DUP2 DUP7 ADD SWAP6 ADD ADD GT PUSH2 0x1D1 JUMPI JUMP JUMPDEST PUSH1 0x1 SLOAD PUSH1 0x8 SHR PUSH1 0x1 PUSH1 0x1 PUSH1 0xA0 SHL SUB AND CALLER SUB PUSH2 0x21AA JUMPI JUMP JUMPDEST PUSH1 0x40 MLOAD PUSH4 0x118CDAA7 PUSH1 0xE0 SHL DUP2 MSTORE CALLER PUSH1 0x4 DUP3 ADD MSTORE PUSH1 0x24 SWAP1 REVERT JUMPDEST PUSH2 0x1E0 DUP2 ADD SWAP1 DUP2 LT PUSH8 0xFFFFFFFFFFFFFFFF DUP3 GT OR PUSH2 0x502 JUMPI PUSH1 0x40 MSTORE JUMP JUMPDEST PUSH1 0x40 DUP2 ADD SWAP1 DUP2 LT PUSH8 0xFFFFFFFFFFFFFFFF DUP3 GT OR PUSH2 0x502 JUMPI PUSH1 0x40 MSTORE JUMP JUMPDEST PUSH1 0x5 DUP3 LT ISZERO PUSH2 0x4EC JUMPI MSTORE JUMP JUMPDEST SWAP1 PUSH1 0x0 PUSH1 0x20 SWAP2 DUP3 DUP2 MLOAD SWAP2 ADD DUP3 DUP6 GAS CALL ISZERO PUSH2 0x2263 JUMPI PUSH1 0x0 MLOAD RETURNDATASIZE PUSH2 0x225A JUMPI POP PUSH1 0x1 PUSH1 0x1 PUSH1 0xA0 SHL SUB DUP2 AND EXTCODESIZE ISZERO JUMPDEST PUSH2 0x2238 JUMPI POP JUMP JUMPDEST PUSH1 0x40 MLOAD PUSH4 0x5274AFE7 PUSH1 0xE0 SHL DUP2 MSTORE PUSH1 0x1 PUSH1 0x1 PUSH1 0xA0 SHL SUB SWAP1 SWAP2 AND PUSH1 0x4 DUP3 ADD MSTORE PUSH1 0x24 SWAP1 REVERT JUMPDEST PUSH1 0x1 EQ ISZERO PUSH2 0x2231 JUMP JUMPDEST PUSH1 0x40 MLOAD RETURNDATASIZE PUSH1 0x0 DUP3 RETURNDATACOPY RETURNDATASIZE SWAP1 REVERT JUMPDEST PUSH1 0xFF PUSH1 0x1 SLOAD AND PUSH2 0x227B JUMPI JUMP JUMPDEST PUSH1 0x40 MLOAD PUSH4 0xD93C0665 PUSH1 0xE0 SHL DUP2 MSTORE PUSH1 0x4 SWAP1 REVERT JUMPDEST PUSH1 0x2 PUSH1 0x0 SLOAD EQ PUSH2 0x229E JUMPI PUSH1 0x2 PUSH1 0x0 SSTORE JUMP JUMPDEST PUSH1 0x40 MLOAD PUSH4 0x3EE5AEB5 PUSH1 0xE0 SHL DUP2 MSTORE PUSH1 0x4 SWAP1 REVERT JUMPDEST ISZERO PUSH2 0x22B7 JUMPI JUMP JUMPDEST PUSH1 0x40 MLOAD PUSH3 0x461BCD PUSH1 0xE5 SHL DUP2 MSTORE PUSH1 0x20 PUSH1 0x4 DUP3 ADD MSTORE PUSH1 0x16 PUSH1 0x24 DUP3 ADD MSTORE PUSH22 0x14D95CDCDA5BDB88191BD95CC81B9BDD08195E1A5CDD PUSH1 0x52 SHL PUSH1 0x44 DUP3 ADD MSTORE PUSH1 0x64 SWAP1 REVERT JUMPDEST ISZERO PUSH2 0x22FC JUMPI JUMP JUMPDEST PUSH1 0x40 MLOAD PUSH3 0x461BCD PUSH1 0xE5 SHL DUP2 MSTORE PUSH1 0x20 PUSH1 0x4 DUP3 ADD MSTORE PUSH1 0x12 PUSH1 0x24 DUP3 ADD MSTORE PUSH18 0x53657373696F6E206E6F7420616374697665 PUSH1 0x70 SHL PUSH1 0x44 DUP3 ADD MSTORE PUSH1 0x64 SWAP1 REVERT JUMPDEST SWAP2 SWAP1 DUP3 SUB SWAP2 DUP3 GT PUSH2 0x518 JUMPI JUMP JUMPDEST SWAP2 SWAP1 DUP3 ADD DUP1 SWAP3 GT PUSH2 0x518 JUMPI JUMP JUMPDEST PUSH1 0x40 MLOAD PUSH4 0xA9059CBB PUSH1 0xE0 SHL PUSH1 0x20 DUP3 ADD MSTORE PUSH1 0x1 PUSH1 0x1 PUSH1 0xA0 SHL SUB SWAP1 SWAP3 AND PUSH1 0x24 DUP4 ADD MSTORE PUSH1 0x44 DUP1 DUP4 ADD SWAP4 SWAP1 SWAP4 MSTORE SWAP2 DUP2 MSTORE PUSH1 0x80 DUP2 ADD SWAP2 PUSH8 0xFFFFFFFFFFFFFFFF DUP4 GT DUP3 DUP5 LT OR PUSH2 0x502 JUMPI PUSH2 0x23A0 SWAP3 PUSH1 0x40 MSTORE PUSH2 0x2207 JUMP JUMPDEST JUMP JUMPDEST SWAP2 SWAP1 SWAP2 DUP3 ISZERO DUP1 ISZERO PUSH2 0x2410 JUMPI JUMPDEST PUSH2 0x2408 JUMPI PUSH1 0x5A DUP2 MUL SWAP1 DUP1 DUP3 DIV PUSH1 0x5A EQ SWAP1 ISZERO OR ISZERO PUSH2 0x518 JUMPI PUSH1 0x64 SWAP1 DIV SWAP2 DUP1 DUP4 MUL SWAP1 DUP4 DUP3 DIV EQ DUP4 ISZERO OR ISZERO PUSH2 0x518 JUMPI DUP2 ISZERO PUSH2 0x23F2 JUMPI DIV SWAP1 DUP1 DUP3 GT PUSH2 0x23ED JUMPI POP SWAP1 JUMP JUMPDEST SWAP1 POP SWAP1 JUMP JUMPDEST PUSH4 0x4E487B71 PUSH1 0xE0 SHL PUSH1 0x0 MSTORE PUSH1 0x12 PUSH1 0x4 MSTORE PUSH1 0x24 PUSH1 0x0 REVERT JUMPDEST POP POP POP PUSH1 0x0 SWAP1 JUMP JUMPDEST POP DUP2 ISZERO PUSH2 0x23AE JUMP JUMPDEST PUSH1 0x0 MSTORE PUSH1 0x2 PUSH1 0x20 MSTORE PUSH1 0x40 PUSH1 0x0 KECCAK256 PUSH1 0x40 MLOAD SWAP1 PUSH2 0x2432 DUP3 PUSH2 0x21C2 JUMP JUMPDEST DUP1 SLOAD DUP3 MSTORE PUSH1 0x1 DUP1 PUSH1 0xA0 SHL SUB DUP1 PUSH1 0x1 DUP4 ADD SLOAD AND PUSH1 0x20 DUP5 ADD MSTORE DUP1 PUSH1 0x2 DUP4 ADD SLOAD AND PUSH1 0x40 DUP5 ADD MSTORE PUSH1 0x3 DUP3 ADD SLOAD AND PUSH1 0x60 DUP4 ADD MSTORE PUSH1 0x4 DUP2 ADD SLOAD PUSH1 0x80 DUP4 ADD MSTORE PUSH1 0x5 DUP2 ADD SLOAD PUSH1 0xA0 DUP4 ADD MSTORE PUSH1 0x6 DUP2 ADD SLOAD PUSH1 0xC0 DUP4 ADD MSTORE PUSH1 0x7 DUP2 ADD SLOAD PUSH1 0xE0 DUP4 ADD SWAP1 DUP2 MSTORE PUSH1 0x8 DUP3 ADD SLOAD SWAP1 PUSH2 0x100 DUP5 ADD SWAP2 DUP3 MSTORE PUSH1 0xB PUSH1 0x9 DUP5 ADD SLOAD SWAP4 PUSH2 0x120 DUP7 ADD SWAP5 DUP6 MSTORE PUSH1 0xA DUP2 ADD SLOAD PUSH2 0x140 DUP8 ADD MSTORE ADD SLOAD SWAP4 PUSH2 0x24C7 PUSH1 0xFF DUP7 AND PUSH2 0x160 DUP4 ADD PUSH2 0x21FB JUMP JUMPDEST PUSH1 0xFF DUP6 PUSH1 0x8 SHR AND ISZERO ISZERO PUSH2 0x180 DUP3 ADD MSTORE PUSH2 0x1C0 PUSH1 0xFF PUSH2 0x1A0 DUP4 ADD SWAP7 DUP2 DUP2 PUSH1 0x10 SHR AND ISZERO ISZERO DUP9 MSTORE PUSH1 0x18 SHR AND ISZERO ISZERO SWAP2 ADD MSTORE DUP1 MLOAD ISZERO PUSH2 0x255E JUMPI PUSH2 0x2506 SWAP1 MLOAD TIMESTAMP PUSH2 0x2336 JUMP JUMPDEST SWAP2 MLOAD SWAP3 MLOAD ISZERO ISZERO DUP1 PUSH2 0x2554 JUMPI JUMPDEST PUSH2 0x2537 JUMPI JUMPDEST POP DUP2 DUP2 GT ISZERO PUSH2 0x2530 JUMPI PUSH1 0x3C SWAP2 PUSH2 0x252C SWAP2 PUSH2 0x2336 JUMP JUMPDEST DIV SWAP1 JUMP JUMPDEST POP POP PUSH1 0x0 SWAP1 JUMP JUMPDEST SWAP2 PUSH2 0x2547 PUSH2 0x254D SWAP3 SWAP4 MLOAD TIMESTAMP PUSH2 0x2336 JUMP JUMPDEST SWAP1 PUSH2 0x2343 JUMP JUMPDEST SWAP1 CODESIZE PUSH2 0x2517 JUMP JUMPDEST POP DUP1 MLOAD ISZERO ISZERO PUSH2 0x2512 JUMP JUMPDEST PUSH1 0x40 MLOAD PUSH3 0x461BCD PUSH1 0xE5 SHL DUP2 MSTORE PUSH1 0x20 PUSH1 0x4 DUP3 ADD MSTORE PUSH1 0x13 PUSH1 0x24 DUP3 ADD MSTORE PUSH19 0x14D95CDCDA5BDB881B9BDD081CDD185C9D1959 PUSH1 0x6A SHL PUSH1 0x44 DUP3 ADD MSTORE PUSH1 0x64 SWAP1 REVERT JUMPDEST PUSH1 0x0 SWAP1 DUP2 MSTORE PUSH1 0x2 PUSH1 0x20 MSTORE PUSH1 0x40 DUP2 KECCAK256 PUSH1 0x40 MLOAD PUSH2 0x25B3 DUP2 PUSH2 0x21C2 JUMP JUMPDEST DUP2 SLOAD DUP2 MSTORE PUSH1 0x1 DUP1 PUSH1 0xA0 SHL SUB DUP1 PUSH1 0x1 DUP5 ADD SLOAD AND PUSH1 0x20 DUP4 ADD MSTORE DUP1 PUSH1 0x2 DUP5 ADD SLOAD AND PUSH1 0x40 DUP4 ADD MSTORE PUSH1 0x3 DUP4 ADD SLOAD AND PUSH1 0x60 DUP3 ADD MSTORE PUSH1 0x4 DUP3 ADD SLOAD PUSH1 0x80 DUP3 ADD MSTORE PUSH1 0x5 DUP3 ADD SLOAD PUSH1 0xA0 DUP3 ADD MSTORE PUSH1 0x6 DUP3 ADD SLOAD PUSH1 0xC0 DUP3 ADD MSTORE PUSH1 0x7 DUP3 ADD SLOAD PUSH1 0xE0 DUP3 ADD MSTORE PUSH1 0xB PUSH1 0x8 DUP4 ADD SLOAD SWAP3 PUSH2 0x100 DUP4 ADD SWAP4 DUP5 MSTORE PUSH1 0x9 DUP2 ADD SLOAD PUSH2 0x120 DUP5 ADD MSTORE PUSH1 0xA DUP2 ADD SLOAD PUSH2 0x140 DUP5 ADD MSTORE ADD SLOAD SWAP1 PUSH2 0x1C0 PUSH1 0xFF PUSH2 0x160 DUP4 ADD SWAP4 PUSH2 0x2649 DUP3 DUP3 AND DUP7 PUSH2 0x21FB JUMP JUMPDEST DUP2 DUP2 PUSH1 0x8 SHR AND ISZERO ISZERO PUSH2 0x180 DUP6 ADD MSTORE DUP2 DUP2 PUSH1 0x10 SHR AND ISZERO ISZERO PUSH2 0x1A0 DUP6 ADD MSTORE PUSH1 0x18 SHR AND ISZERO ISZERO SWAP2 ADD MSTORE MLOAD PUSH1 0x5 DUP2 LT ISZERO PUSH2 0x26BB JUMPI PUSH1 0x1 EQ DUP1 ISZERO SWAP1 PUSH2 0x26B2 JUMPI JUMPDEST PUSH2 0x26AE JUMPI MLOAD SWAP1 PUSH1 0x1E DUP3 ADD DUP1 SWAP3 GT PUSH2 0x269A JUMPI POP TIMESTAMP GT SWAP1 JUMP JUMPDEST PUSH4 0x4E487B71 PUSH1 0xE0 SHL DUP2 MSTORE PUSH1 0x11 PUSH1 0x4 MSTORE PUSH1 0x24 SWAP1 REVERT JUMPDEST POP SWAP1 JUMP JUMPDEST POP DUP1 MLOAD ISZERO PUSH2 0x2683 JUMP JUMPDEST PUSH4 0x4E487B71 PUSH1 0xE0 SHL DUP4 MSTORE PUSH1 0x21 PUSH1 0x4 MSTORE PUSH1 0x24 DUP4 REVERT JUMPDEST PUSH1 0x0 SWAP1 DUP2 MSTORE PUSH1 0x2 PUSH1 0x20 MSTORE PUSH1 0x40 DUP2 KECCAK256 PUSH1 0x40 MLOAD PUSH2 0x26E9 DUP2 PUSH2 0x21C2 JUMP JUMPDEST DUP2 SLOAD DUP2 MSTORE PUSH1 0x1 DUP3 ADD SLOAD PUSH1 0x1 PUSH1 0x1 PUSH1 0xA0 SHL SUB SWAP1 DUP2 AND PUSH1 0x20 DUP4 ADD MSTORE PUSH1 0x2 DUP4 ADD SLOAD DUP2 AND PUSH1 0x40 DUP4 ADD MSTORE PUSH1 0x3 DUP4 ADD SLOAD AND PUSH1 0x60 DUP3 ADD MSTORE PUSH1 0x4 DUP3 ADD SLOAD PUSH1 0x80 DUP3 ADD MSTORE PUSH1 0x5 DUP3 ADD SLOAD PUSH1 0xA0 DUP3 ADD MSTORE PUSH1 0x6 DUP3 ADD SLOAD PUSH1 0xC0 DUP3 ADD MSTORE PUSH1 0x7 DUP3 ADD SLOAD PUSH1 0xE0 DUP3 ADD MSTORE PUSH1 0x8 DUP3 ADD SLOAD PUSH2 0x100 DUP3 ADD SWAP1 DUP2 MSTORE PUSH1 0x9 DUP4 ADD SLOAD PUSH2 0x120 DUP4 ADD MSTORE PUSH1 0xA DUP4 ADD SLOAD PUSH2 0x140 DUP4 ADD MSTORE PUSH1 0xB SWAP1 SWAP3 ADD SLOAD SWAP1 PUSH2 0x160 DUP2 ADD SWAP1 PUSH2 0x277E PUSH1 0xFF DUP5 AND DUP4 PUSH2 0x21FB JUMP JUMPDEST PUSH1 0xFF DUP4 PUSH1 0x8 SHR AND ISZERO ISZERO PUSH2 0x180 DUP3 ADD MSTORE PUSH2 0x1C0 PUSH1 0xFF PUSH2 0x1A0 DUP4 ADD SWAP5 DUP2 DUP2 PUSH1 0x10 SHR AND ISZERO ISZERO DUP7 MSTORE PUSH1 0x18 SHR AND ISZERO ISZERO SWAP2 ADD MSTORE MLOAD PUSH1 0x5 DUP2 LT ISZERO PUSH2 0x2813 JUMPI PUSH1 0x1 EQ SWAP1 DUP2 ISZERO SWAP2 PUSH2 0x2808 JUMPI JUMPDEST POP DUP1 ISZERO PUSH2 0x27FF JUMPI JUMPDEST PUSH2 0x26AE JUMPI MLOAD SWAP1 PUSH1 0x1E DUP3 ADD SWAP2 DUP3 DUP2 GT PUSH2 0x27EB JUMPI PUSH1 0x96 ADD DUP1 SWAP3 GT PUSH2 0x269A JUMPI POP TIMESTAMP GT SWAP1 JUMP JUMPDEST PUSH4 0x4E487B71 PUSH1 0xE0 SHL DUP3 MSTORE PUSH1 0x11 PUSH1 0x4 MSTORE PUSH1 0x24 DUP3 REVERT JUMPDEST POP DUP1 MLOAD ISZERO PUSH2 0x27C9 JUMP JUMPDEST SWAP1 POP MLOAD ISZERO ISZERO CODESIZE PUSH2 0x27C1 JUMP JUMPDEST PUSH4 0x4E487B71 PUSH1 0xE0 SHL DUP5 MSTORE PUSH1 0x21 PUSH1 0x4 MSTORE PUSH1 0x24 DUP5 REVERT JUMPDEST PUSH1 0x0 SWAP1 DUP1 DUP3 MSTORE PUSH1 0x2 PUSH1 0x20 MSTORE PUSH1 0x40 DUP3 KECCAK256 SWAP1 PUSH1 0x40 MLOAD SWAP2 PUSH2 0x2844 DUP4 PUSH2 0x21C2 JUMP JUMPDEST DUP1 SLOAD DUP4 MSTORE PUSH1 0x1 DUP1 PUSH1 0xA0 SHL SUB DUP1 PUSH1 0x1 DUP4 ADD SLOAD AND PUSH1 0x20 DUP6 ADD MSTORE DUP1 PUSH1 0x2 DUP4 ADD SLOAD AND PUSH1 0x40 DUP6 ADD MSTORE PUSH1 0x3 DUP3 ADD SLOAD AND PUSH1 0x60 DUP5 ADD MSTORE PUSH1 0x4 DUP2 ADD SLOAD PUSH1 0x80 DUP5 ADD SWAP1 DUP2 MSTORE PUSH1 0x5 DUP3 ADD SLOAD SWAP4 PUSH1 0xA0 DUP2 ADD SWAP5 DUP6 MSTORE PUSH1 0x6 DUP4 ADD SLOAD SWAP3 PUSH1 0xC0 DUP3 ADD SWAP4 DUP5 MSTORE PUSH1 0xB PUSH1 0x7 DUP3 ADD SLOAD SWAP2 PUSH1 0xE0 DUP5 ADD SWAP3 DUP4 MSTORE PUSH1 0x8 DUP2 ADD SLOAD PUSH2 0x100 DUP6 ADD MSTORE PUSH1 0x9 DUP2 ADD SLOAD PUSH2 0x120 DUP6 ADD MSTORE PUSH1 0xA DUP2 ADD SLOAD PUSH2 0x140 DUP6 ADD MSTORE ADD SLOAD SWAP2 PUSH2 0x160 DUP2 ADD SWAP1 PUSH2 0x28DE PUSH1 0xFF DUP6 AND DUP4 PUSH2 0x21FB JUMP JUMPDEST PUSH1 0xFF DUP5 PUSH1 0x8 SHR AND ISZERO ISZERO PUSH2 0x180 DUP3 ADD MSTORE PUSH2 0x1C0 PUSH1 0xFF PUSH2 0x1A0 DUP4 ADD SWAP6 DUP2 DUP2 PUSH1 0x10 SHR AND ISZERO ISZERO DUP8 MSTORE PUSH1 0x18 SHR AND ISZERO ISZERO SWAP2 ADD MSTORE MLOAD PUSH1 0x5 DUP2 LT ISZERO PUSH2 0x297D JUMPI PUSH1 0x1 EQ SWAP2 DUP3 ISZERO SWAP3 PUSH2 0x2972 JUMPI JUMPDEST POP DUP2 ISZERO PUSH2 0x2968 JUMPI JUMPDEST POP PUSH2 0x2961 JUMPI PUSH2 0x293A PUSH2 0x2944 SWAP4 PUSH2 0x2418 JUMP JUMPDEST SWAP1 MLOAD SWAP2 MLOAD SWAP2 PUSH2 0x23A2 JUMP JUMPDEST SWAP1 MLOAD SWAP1 DUP2 DUP2 GT ISZERO PUSH2 0x295C JUMPI PUSH2 0x2959 SWAP3 POP PUSH2 0x2336 JUMP JUMPDEST SWAP1 JUMP JUMPDEST POP POP SWAP1 JUMP JUMPDEST POP POP POP POP SWAP1 JUMP JUMPDEST SWAP1 POP MLOAD ISZERO CODESIZE PUSH2 0x2929 JUMP JUMPDEST MLOAD ISZERO ISZERO SWAP2 POP CODESIZE PUSH2 0x2921 JUMP JUMPDEST PUSH4 0x4E487B71 PUSH1 0xE0 SHL DUP9 MSTORE PUSH1 0x21 PUSH1 0x4 MSTORE PUSH1 0x24 DUP9 REVERT INVALID LOG1 PUSH5 0x736F6C6343 STOP ADDMOD EQ STOP EXP "},"gasEstimates":{"creation":{"codeDepositCost":"2130800","executionCost":"infinite","totalCost":"infinite"},"external":{"AUTO_RELEASE_DELAY()":"169","GRACE_PERIOD()":"807","HEARTBEAT_INTERVAL()":"279","PLATFORM_FEE_PERCENT()":"411","PROGRESSIVE_RELEASE_INTERVAL()":"301","addSupportedToken(address)":"27088","autoCompleteSession(bytes32)":"infinite","calculateMaxRelease(uint256,uint256,uint256)":"482","cancelSession(bytes32)":"infinite","completeSession(bytes32,uint256,string)":"infinite","createProgressiveSession(bytes32,address,address,uint256,uint256,uint256)":"infinite","emergencyRelease(bytes32,address,uint256,string)":"infinite","getAvailablePayment(bytes32)":"infinite","getEffectiveElapsedTime(bytes32)":"infinite","getSession(bytes32)":"infinite","getUserNonce(address)":"2731","needsHeartbeat(bytes32)":"26444","owner()":"2833","pause()":"30219","pauseSession(bytes32)":"infinite","paused()":"2570","platformWallet()":"3041","releaseProgressivePayment(bytes32)":"infinite","removeSupportedToken(address)":"27107","renounceOwnership()":"28485","resumeSession(bytes32)":"125770","sessions(bytes32)":"26412","shouldAutoPause(bytes32)":"26628","startProgressiveSession(bytes32)":"121477","supportedTokens(address)":"2765","transferOwnership(address)":"28924","unpause()":"27784","updateHeartbeat(bytes32)":"infinite","updatePlatformWallet(address)":"27245","usedSessionIds(bytes32)":"2394","userNonces(address)":"2511"}},"methodIdentifiers":{"AUTO_RELEASE_DELAY()":"09499aa6","GRACE_PERIOD()":"c1a287e2","HEARTBEAT_INTERVAL()":"34d1c8fe","PLATFORM_FEE_PERCENT()":"560d52d4","PROGRESSIVE_RELEASE_INTERVAL()":"363ec298","addSupportedToken(address)":"6d69fcaf","autoCompleteSession(bytes32)":"2b8a5f3b","calculateMaxRelease(uint256,uint256,uint256)":"1ac6af03","cancelSession(bytes32)":"4d213982","completeSession(bytes32,uint256,string)":"3a17ba64","createProgressiveSession(bytes32,address,address,uint256,uint256,uint256)":"f400272b","emergencyRelease(bytes32,address,uint256,string)":"79d55e77","getAvailablePayment(bytes32)":"e906826c","getEffectiveElapsedTime(bytes32)":"962db93b","getSession(bytes32)":"39b240bd","getUserNonce(address)":"6834e3a8","needsHeartbeat(bytes32)":"590a2cc1","owner()":"8da5cb5b","pause()":"8456cb59","pauseSession(bytes32)":"7ac1b469","paused()":"5c975abb","platformWallet()":"fa2af9da","releaseProgressivePayment(bytes32)":"ccb868dd","removeSupportedToken(address)":"76319190","renounceOwnership()":"715018a6","resumeSession(bytes32)":"99173d6b","sessions(bytes32)":"7dbd2832","shouldAutoPause(bytes32)":"6baae9cc","startProgressiveSession(bytes32)":"b817be4c","supportedTokens(address)":"68c4ac26","transferOwnership(address)":"f2fde38b","unpause()":"3f4ba83a","updateHeartbeat(bytes32)":"02ceb406","updatePlatformWallet(address)":"ada4ef30","usedSessionIds(bytes32)":"1c8b14a0","userNonces(address)":"2f7801f4"}},"storageLayout":{"storage":[{"astId":1606,"contract":"contracts/ProgressiveEscrowV3.sol:ProgressiveEscrowV3","label":"_status","offset":0,"slot":"0","type":"t_uint256"},{"astId":1496,"contract":"contracts/ProgressiveEscrowV3.sol:ProgressiveEscrowV3","label":"_paused","offset":0,"slot":"1","type":"t_bool"},{"astId":8,"contract":"contracts/ProgressiveEscrowV3.sol:ProgressiveEscrowV3","label":"_owner","offset":1,"slot":"1","type":"t_address"},{"astId":2623,"contract":"contracts/ProgressiveEscrowV3.sol:ProgressiveEscrowV3","label":"sessions","offset":0,"slot":"2","type":"t_mapping(t_bytes32,t_struct(ProgressiveSession)2603_storage)"},{"astId":2627,"contract":"contracts/ProgressiveEscrowV3.sol:ProgressiveEscrowV3","label":"supportedTokens","offset":0,"slot":"3","type":"t_mapping(t_address,t_bool)"},{"astId":2629,"contract":"contracts/ProgressiveEscrowV3.sol:ProgressiveEscrowV3","label":"platformWallet","offset":0,"slot":"4","type":"t_address"},{"astId":2633,"contract":"contracts/ProgressiveEscrowV3.sol:ProgressiveEscrowV3","label":"userNonces","offset":0,"slot":"5","type":"t_mapping(t_address,t_uint256)"},{"astId":2637,"contract":"contracts/ProgressiveEscrowV3.sol:ProgressiveEscrowV3","label":"usedSessionIds","offset":0,"slot":"6","type":"t_mapping(t_bytes32,t_bool)"}],"types":{"t_address":{"encoding":"inplace","label":"address","numberOfBytes":"20"},"t_bool":{"encoding":"inplace","label":"bool","numberOfBytes":"1"},"t_bytes32":{"encoding":"inplace","label":"bytes32","numberOfBytes":"32"},"t_enum(SessionStatus)2571":{"encoding":"inplace","label":"enum ProgressiveEscrowV3.SessionStatus","numberOfBytes":"1"},"t_mapping(t_address,t_bool)":{"encoding":"mapping","key":"t_address","label":"mapping(address => bool)","numberOfBytes":"32","value":"t_bool"},"t_mapping(t_address,t_uint256)":{"encoding":"mapping","key":"t_address","label":"mapping(address => uint256)","numberOfBytes":"32","value":"t_uint256"},"t_mapping(t_bytes32,t_bool)":{"encoding":"mapping","key":"t_bytes32","label":"mapping(bytes32 => bool)","numberOfBytes":"32","value":"t_bool"},"t_mapping(t_bytes32,t_struct(ProgressiveSession)2603_storage)":{"encoding":"mapping","key":"t_bytes32","label":"mapping(bytes32 => struct ProgressiveEscrowV3.ProgressiveSession)","numberOfBytes":"32","value":"t_struct(ProgressiveSession)2603_storage"},"t_struct(ProgressiveSession)2603_storage":{"encoding":"inplace","label":"struct ProgressiveEscrowV3.ProgressiveSession","members":[{"astId":2573,"contract":"contracts/ProgressiveEscrowV3.sol:ProgressiveEscrowV3","label":"sessionId","offset":0,"slot":"0","type":"t_bytes32"},{"astId":2575,"contract":"contracts/ProgressiveEscrowV3.sol:ProgressiveEscrowV3","label":"student","offset":0,"slot":"1","type":"t_address"},{"astId":2577,"contract":"contracts/ProgressiveEscrowV3.sol:ProgressiveEscrowV3","label":"mentor","offset":0,"slot":"2","type":"t_address"},{"astId":2579,"contract":"contracts/ProgressiveEscrowV3.sol:ProgressiveEscrowV3","label":"paymentToken","offset":0,"slot":"3","type":"t_address"},{"astId":2581,"contract":"contracts/ProgressiveEscrowV3.sol:ProgressiveEscrowV3","label":"totalAmount","offset":0,"slot":"4","type":"t_uint256"},{"astId":2583,"contract":"contracts/ProgressiveEscrowV3.sol:ProgressiveEscrowV3","label":"releasedAmount","offset":0,"slot":"5","type":"t_uint256"},{"astId":2585,"contract":"contracts/ProgressiveEscrowV3.sol:ProgressiveEscrowV3","label":"sessionDuration","offset":0,"slot":"6","type":"t_uint256"},{"astId":2587,"contract":"contracts/ProgressiveEscrowV3.sol:ProgressiveEscrowV3","label":"startTime","offset":0,"slot":"7","type":"t_uint256"},{"astId":2589,"contract":"contracts/ProgressiveEscrowV3.sol:ProgressiveEscrowV3","label":"lastHeartbeat","offset":0,"slot":"8","type":"t_uint256"},{"astId":2591,"contract":"contracts/ProgressiveEscrowV3.sol:ProgressiveEscrowV3","label":"pausedTime","offset":0,"slot":"9","type":"t_uint256"},{"astId":2593,"contract":"contracts/ProgressiveEscrowV3.sol:ProgressiveEscrowV3","label":"createdAt","offset":0,"slot":"10","type":"t_uint256"},{"astId":2596,"contract":"contracts/ProgressiveEscrowV3.sol:ProgressiveEscrowV3","label":"status","offset":0,"slot":"11","type":"t_enum(SessionStatus)2571"},{"astId":2598,"contract":"contracts/ProgressiveEscrowV3.sol:ProgressiveEscrowV3","label":"isActive","offset":1,"slot":"11","type":"t_bool"},{"astId":2600,"contract":"contracts/ProgressiveEscrowV3.sol:ProgressiveEscrowV3","label":"isPaused","offset":2,"slot":"11","type":"t_bool"},{"astId":2602,"contract":"contracts/ProgressiveEscrowV3.sol:ProgressiveEscrowV3","label":"surveyCompleted","offset":3,"slot":"11","type":"t_bool"}],"numberOfBytes":"384"},"t_uint256":{"encoding":"inplace","label":"uint256","numberOfBytes":"32"}}},"userdoc":{"kind":"user","methods":{},"version":1}}}}