{"contracts/MentorshipFactory.sol":{"MentorshipFactory":{"abi":[{"inputs":[],"stateMutability":"nonpayable","type":"constructor"},{"inputs":[{"internalType":"address","name":"owner","type":"address"}],"name":"OwnableInvalidOwner","type":"error"},{"inputs":[{"internalType":"address","name":"account","type":"address"}],"name":"OwnableUnauthorizedAccount","type":"error"},{"anonymous":false,"inputs":[{"indexed":true,"internalType":"address","name":"mentorshipContract","type":"address"},{"indexed":true,"internalType":"address","name":"platformFeeRecipient","type":"address"},{"indexed":false,"internalType":"uint256","name":"timestamp","type":"uint256"}],"name":"MentorshipDeployed","type":"event"},{"anonymous":false,"inputs":[{"indexed":true,"internalType":"address","name":"previousOwner","type":"address"},{"indexed":true,"internalType":"address","name":"newOwner","type":"address"}],"name":"OwnershipTransferred","type":"event"},{"inputs":[{"internalType":"address","name":"platformFeeRecipient","type":"address"}],"name":"deployMentorship","outputs":[{"internalType":"address","name":"mentorshipAddress","type":"address"}],"stateMutability":"nonpayable","type":"function"},{"inputs":[{"internalType":"uint256","name":"","type":"uint256"}],"name":"deployedContracts","outputs":[{"internalType":"address","name":"","type":"address"}],"stateMutability":"view","type":"function"},{"inputs":[{"internalType":"address","name":"mentorshipAddress","type":"address"}],"name":"emergencyPause","outputs":[],"stateMutability":"nonpayable","type":"function"},{"inputs":[{"internalType":"address","name":"mentorshipAddress","type":"address"}],"name":"emergencyUnpause","outputs":[],"stateMutability":"nonpayable","type":"function"},{"inputs":[],"name":"getDeployedContracts","outputs":[{"internalType":"address[]","name":"","type":"address[]"}],"stateMutability":"view","type":"function"},{"inputs":[],"name":"getDeployedContractsCount","outputs":[{"internalType":"uint256","name":"","type":"uint256"}],"stateMutability":"view","type":"function"},{"inputs":[],"name":"getLatestContract","outputs":[{"internalType":"address","name":"","type":"address"}],"stateMutability":"view","type":"function"},{"inputs":[{"internalType":"address","name":"","type":"address"}],"name":"isValidContract","outputs":[{"internalType":"bool","name":"","type":"bool"}],"stateMutability":"view","type":"function"},{"inputs":[],"name":"owner","outputs":[{"internalType":"address","name":"","type":"address"}],"stateMutability":"view","type":"function"},{"inputs":[],"name":"renounceOwnership","outputs":[],"stateMutability":"nonpayable","type":"function"},{"inputs":[{"internalType":"address","name":"mentorshipAddress","type":"address"},{"internalType":"address[]","name":"supportedTokens","type":"address[]"}],"name":"setupMentorship","outputs":[],"stateMutability":"nonpayable","type":"function"},{"inputs":[{"internalType":"address","name":"newOwner","type":"address"}],"name":"transferOwnership","outputs":[],"stateMutability":"nonpayable","type":"function"}],"devdoc":{"details":"Factory contract for deploying Mentorship contracts across multiple chains Provides consistent deployment and management across all supported networks","errors":{"OwnableInvalidOwner(address)":[{"details":"The owner is not a valid owner account. (eg. `address(0)`)"}],"OwnableUnauthorizedAccount(address)":[{"details":"The caller account is not authorized to perform an operation."}]},"kind":"dev","methods":{"deployMentorship(address)":{"details":"Deploy a new Mentorship contract","params":{"platformFeeRecipient":"Address to receive platform fees"},"returns":{"mentorshipAddress":"Address of the deployed Mentorship contract"}},"emergencyPause(address)":{"details":"Emergency pause for a specific Mentorship contract","params":{"mentorshipAddress":"Address of the Mentorship contract to pause"}},"emergencyUnpause(address)":{"details":"Emergency unpause for a specific Mentorship contract","params":{"mentorshipAddress":"Address of the Mentorship contract to unpause"}},"getDeployedContracts()":{"details":"Get all deployed Mentorship contracts","returns":{"_0":"Array of deployed contract addresses"}},"getDeployedContractsCount()":{"details":"Get the number of deployed contracts","returns":{"_0":"Number of deployed contracts"}},"getLatestContract()":{"details":"Get the latest deployed contract","returns":{"_0":"Address of the most recently deployed contract"}},"owner()":{"details":"Returns the address of the current owner."},"renounceOwnership()":{"details":"Leaves the contract without owner. It will not be possible to call `onlyOwner` functions. Can only be called by the current owner. NOTE: Renouncing ownership will leave the contract without an owner, thereby disabling any functionality that is only available to the owner."},"setupMentorship(address,address[])":{"details":"Batch setup for newly deployed Mentorship contract","params":{"mentorshipAddress":"Address of the Mentorship contract","supportedTokens":"Array of token addresses to add as supported"}},"transferOwnership(address)":{"details":"Transfers ownership of the contract to a new account (`newOwner`). Can only be called by the current owner."}},"title":"MentorshipFactory","version":1},"evm":{"bytecode":{"linkReferences":{},"object":"6080806040523461007a5733156100645760008054336001600160a01b03198216811783556040519290916001600160a01b0316907f8be0079c531659141344cd1fd0a4f28419497f9722a3daafe3b4186f6b6457e09080a3611c0b90816100808239f35b631e4fbdf760e01b815260006004820152602490fd5b600080fdfe6040608081526004908136101561001557600080fd5b6000803560e01c80630b972e53146106055780630eaad489146105c75780635fc7f334146105a85780636fd368b01461052b5780637041b48a14610493578063715018a6146104395780638b8033df1461031a5780638da5cb5b146102ee5780639ad1ee10146102c3578063aa9a068f146101d2578063f2fde38b1461013d5763ff5446f0146100a457600080fd5b3461013a578060031936011261013a576001549283156100ff5760001984019384116100ec576020836100d686610778565b905491519160018060a01b039160031b1c168152f35b634e487b7160e01b825260119052602490fd5b606490602084519162461bcd60e51b83528201526015602482015274139bc818dbdb9d1c9858dd1cc819195c1b1bde5959605a1b6044820152fd5b80fd5b5091346101ce5760203660031901126101ce5761015861075d565b906101616107c5565b6001600160a01b039182169283156101b8575050600054826bffffffffffffffffffffffff60a01b821617600055167f8be0079c531659141344cd1fd0a4f28419497f9722a3daafe3b4186f6b6457e0600080a380f35b51631e4fbdf760e01b8152908101849052602490fd5b8280fd5b509190346101ce57826003193601126101ce5780518060019485549384835260208080940180968985527fb10e2d527612073b26eecdfd717e6a320cf44b4afac2b0732d9fcbe2b7fa0cf6908a865b8281106102a55750505050859003601f01601f1916850196905067ffffffffffffffff871185881017610290575092869284878096528186019282875251809352850195925b8281106102745785870386f35b83516001600160a01b0316875295810195928101928401610267565b604190634e487b7160e01b6000525260246000fd5b83546001600160a01b03168552889590940193928101928101610221565b5091346101ce5760203660031901126101ce57359160015483101561013a57506100d6602092610778565b509034610316578160031936011261031657905490516001600160a01b039091168152602090f35b5080fd5b5091346101ce57816003193601126101ce5761033461075d565b90602492833567ffffffffffffffff938482116104355736602383011215610435578184013594851161043557600591368787851b83010111610431576103796107c5565b6001600160a01b0391821680895260026020528489205490939061039f9060ff1661081b565b885b8781106103ac578980f35b898982841b8501013585811680910361031657863b1561031657875190636d69fcaf60e01b82528982015281818c81838b5af180156104275761040f575b505060001981146103fd576001016103a1565b634e487b7160e01b8a5260118752888afd5b610418906107f1565b6104235789386103ea565b8980fd5b88513d84823e3d90fd5b8780fd5b8680fd5b503461013a578060031936011261013a576104526107c5565b600080546001600160a01b0319811682556001600160a01b03167f8be0079c531659141344cd1fd0a4f28419497f9722a3daafe3b4186f6b6457e08280a380f35b5091829134610527576020366003190112610527576104b061075d565b6104b86107c5565b6001600160a01b03168084526002602052818420549092906104dc9060ff1661081b565b823b15610522578151638456cb5960e01b81529284918491829084905af190811561051957506105095750f35b610512906107f1565b61013a5780f35b513d84823e3d90fd5b505050fd5b5050fd5b50809183346105275760203660031901126105275761054861075d565b6105506107c5565b6001600160a01b03168084526002602052828420546105719060ff1661081b565b803b15610522578391835180958193631fa5d41d60e11b83525af1908115610519575061059c575080f35b6105a5906107f1565b80f35b5090346103165781600319360112610316576020906001549051908152f35b5090346103165760203660031901126103165760209160ff9082906001600160a01b036105f261075d565b1681526002855220541690519015158152f35b509190346101ce576020928360031936011261013a5761062361075d565b9061062c6107c5565b6001600160a01b039182169182156107225783516113978082019082821067ffffffffffffffff83111761070f5788918391610868833986815203019083f080156107055781169460015490680100000000000000008210156106f257509061069d82600187959401600155610778565b819291549060031b9188831b921b19161790558481526002865220600160ff19825416179055827f9dc8a15aa69177b31086196188b6d3a918149d4c21631667b6eba1206fe4caeb858451428152a351908152f35b634e487b7160e01b845260419052602483fd5b84513d84823e3d90fd5b634e487b7160e01b855260418852602485fd5b835162461bcd60e51b81528086018790526015602482015274125b9d985b1a5908199959481c9958da5c1a595b9d605a1b6044820152606490fd5b600435906001600160a01b038216820361077357565b600080fd5b6001548110156107af5760016000527fb10e2d527612073b26eecdfd717e6a320cf44b4afac2b0732d9fcbe2b7fa0cf60190600090565b634e487b7160e01b600052603260045260246000fd5b6000546001600160a01b031633036107d957565b60405163118cdaa760e01b8152336004820152602490fd5b67ffffffffffffffff811161080557604052565b634e487b7160e01b600052604160045260246000fd5b1561082257565b60405162461bcd60e51b815260206004820152601860248201527f496e76616c696420636f6e7472616374206164647265737300000000000000006044820152606490fdfe60803461013657601f61139738819003918201601f19168301916001600160401b0383118484101761013b5780849260209460405283398101031261013657516001600160a01b0380821691829003610136576001600055331561011d5760018054610100600160a81b0319811633600881811b610100600160a81b0316929092179093556040519391901c167f8be0079c531659141344cd1fd0a4f28419497f9722a3daafe3b4186f6b6457e0600080a381156100db5750600380546001600160a01b03191691909117905560405161124590816101528239f35b62461bcd60e51b815260206004820152601560248201527f496e76616c69642066656520726563697069656e7400000000000000000000006044820152606490fd5b604051631e4fbdf760e01b815260006004820152602490fd5b600080fd5b634e487b7160e01b600052604160045260246000fdfe6080604081815260048036101561001557600080fd5b600092833560e01c9081631554823214610f2d575080631f5754c014610d885780633f4ba83a14610d1f578063402ff0db14610c0857806349bbf7da14610beb57806357520d2014610b775780635c975abb14610b53578063664ba84b14610b0b57806367b3fcb014610aef57806368c4ac2614610ab15780636d69fcaf14610a07578063715018a6146109a6578063763191901461094057806383c4b7a3146108c05780638456cb591461086657806387c139431461084a5780638da5cb5b1461081d578063ab3dd949146107c4578063cd2bf12414610460578063e27f93701461031d578063eb13554f146102f4578063ec59877e1461026e578063f2fde38b146101d25763f5fe7f711461012b57600080fd5b346101ce5760203660031901126101ce57610144610f6b565b61014c610fef565b6001600160a01b0316918215610197575050600380546001600160a01b031916821790557fba887708e7d4436dd36b62187bdced03e0b9abe66caf392a66dd84386641b2098280a280f35b906020606492519162461bcd60e51b83528201526011602482015270125b9d985b1a59081c9958da5c1a595b9d607a1b6044820152fd5b8280fd5b50346101ce5760203660031901126101ce576101ec610f6b565b6101f4610fef565b6001600160a01b0381811693909290841561025857505060018054610100600160a81b03198116600893841b610100600160a81b031617909155901c167f8be0079c531659141344cd1fd0a4f28419497f9722a3daafe3b4186f6b6457e08380a380f35b51631e4fbdf760e01b8152908101859052602490fd5b5050346102f057602090816003193601126101ce576001600160a01b03610293610f6b565b168352600782528083209281518093808654928381520195835280832092905b8282106102d9576102d586866102cb828b0383611050565b5191829182610f86565b0390f35b8354875295860195600193840193909101906102b3565b5080fd5b5050346102f057816003193601126102f05760035490516001600160a01b039091168152602090f35b508290346102f05760203660031901126102f05780359061033c611132565b818352600560205283832080546001600160a01b03929161036c9184163314908490821561044f575b5050611155565b828452600560205284842090600682019081549060ff8216600581101561043c57600161039991146111a1565b808401544210156103f957509060036103ce94939260ff191617905560038260028301541692600183015416910154916111e6565b7f83db11557caa3518e394ee3589033b042b4f03f0ed0495a829208e71bfa37f058280a26001815580f35b606490602089519162461bcd60e51b8352820152601760248201527f53657373696f6e20616c726561647920737461727465640000000000000000006044820152fd5b634e487b7160e01b885260218252602488fd5b600191925001541633148388610365565b50346101ce5760a03660031901126101ce5761047a610f6b565b6001600160a01b03939092906024803586811691908290036101ce5760443594606495863590608435926104ac611132565b6104b4611114565b85875260209960028b5260ff89892054161561078d578b169485151580610783575b1561075157821561071f57428411156106e95784156106b5578154996000198b146106a3578888888f8f968f96988f969160059a8c9360018f96888f8f8f8f8f918f9196808f96988f96958f969a8f9b60069c8e8801905583519b61053a8d61101e565b8c52808c0196338852848d0198895260608d01998a5260808d019a8b5260a08d019b8c5260c08d019e8f5283525220975116916bffffffffffffffffffffffff60a01b9283895416178855816001890191511683825416179055600287019251169082541617905551600384015551878301555160058201550190519d8e1015610691578c9d60ff8019835416911617905586895260068c526105df8b8b8b20611072565b33895260078c526105f28b8b8b20611072565b83818b519e8f906323b872dd60e01b90820152338582015230604482015201528c5260a08c01918c831067ffffffffffffffff8411176106805750508798999a6106409160019952866110ac565b875194855289850152868401526060830152857fafb30f2fb7b1a22d2c1ebce5ade2b90ae0f6d539e804ce2e60f6a900ac3a4b4960803394a45551908152f35b634e487b7160e01b89526041905287fd5b634e487b7160e01b8a5260218452828afd5b50634e487b7160e01b88526011825287fd5b885162461bcd60e51b81529182018b90526010908201526f24b73b30b634b210323ab930ba34b7b760811b60448201528890fd5b885162461bcd60e51b81529182018b905260129082015271496e76616c69642073746172742074696d6560701b60448201528890fd5b885162461bcd60e51b81529182018b9052600e908201526d125b9d985b1a5908185b5bdd5b9d60921b60448201528890fd5b885162461bcd60e51b81529182018b9052600e908201526d24b73b30b634b21036b2b73a37b960911b60448201528890fd5b50338614156104d6565b885162461bcd60e51b81528083018c905260138188015272151bdad95b881b9bdd081cdd5c1c1bdc9d1959606a1b60448201528a90fd5b5050346102f057806003193601126102f0576107de610f6b565b6001600160a01b0316825260066020528082208054602435939084101561081a575060209261080c91610fc1565b91905490519160031b1c8152f35b80fd5b5050346102f057816003193601126102f057600154905160089190911c6001600160a01b03168152602090f35b5050346102f057816003193601126102f0576020905160648152f35b5050346102f057816003193601126102f05760207f62e78cea01bee320cd4e420270b5ea74000d11b0c9f74754ebdbfc544b05a258916108a4610fef565b6108ac611114565b600160ff198154161760015551338152a180f35b5090346101ce5760203660031901126101ce578061093e9160e0948435815260056020522060018060a01b0391828254169483600184015416936002840154166003840154918401549260ff600660058701549601541695815198895260208901528701526060860152608085015260a084015260c0830190610f48565bf35b5050346102f05760203660031901126102f05761095b610f6b565b610963610fef565b6001600160a01b03168083526002602052908220805460ff191690557f4c910b69fe65a61f7531b9c5042b2329ca7179c77290aa7e2eb3afa3c8511fd38280a280f35b833461081a578060031936011261081a576109bf610fef565b60018054610100600160a81b03198116909155819060081c6001600160a01b03167f8be0079c531659141344cd1fd0a4f28419497f9722a3daafe3b4186f6b6457e08280a380f35b5090346101ce5760203660031901126101ce57610a22610f6b565b610a2a610fef565b6001600160a01b0316918215610a77575081835260026020528220805460ff191660011790557f784c8f4dbf0ffedd6e72c76501c545a70f8b203b30a26ce542bf92ba87c248a48280a280f35b6020606492519162461bcd60e51b83528201526015602482015274496e76616c696420746f6b656e206164647265737360581b6044820152fd5b5050346102f05760203660031901126102f05760209160ff9082906001600160a01b03610adc610f6b565b1681526002855220541690519015158152f35b5050346102f057816003193601126102f05760209051605a8152f35b5050346102f057806003193601126102f057610b25610f6b565b6001600160a01b0316825260076020528082208054602435939084101561081a575060209261080c91610fc1565b5050346102f057816003193601126102f05760209060ff6001541690519015158152f35b5050346102f057602090816003193601126101ce576001600160a01b03610b9c610f6b565b168352600682528083209281518093808654928381520195835280832092905b828210610bd4576102d586866102cb828b0383611050565b835487529586019560019384019390910190610bbc565b50346101ce57826003193601126101ce5760209250549051908152f35b50913461081a57602036600319011261081a578060c08351610c298161101e565b82815282602082015282858201528260608201528260808201528260a08201520152823581526005602052818120825192610c638461101e565b60018060a01b0380835416855280600184015416916020860192835281600285015416918187019283526003850154926060880193845288860154946080890195865260ff600660058901549860a08c01998a5201541660c08a01986005821015610d0c5760e08b61093e8c8c8c8c8c8c8c818d8d89528185519b51168b52511660208a01525116908701525160608601525160808501525160a08401525160c0830190610f48565b634e487b7160e01b815260218c52602490fd5b50346101ce57826003193601126101ce57610d38610fef565b6001549060ff821615610d7a575060ff1916600155513381527f5db9ee0a495bf2e6ff9c91a7834c1ba4fdd244a5e8aa4e537bd38aeae4b073aa90602090a180f35b8251638dfc202b60e01b8152fd5b509190346102f05760203660031901126102f057823590610da7611132565b818352600560205280832080546001600160a01b0391610dd591831633149083908215610f1c575050611155565b828452600560205281842060068101805460ff81166005811015610f09576001610dff91146111a1565b8783015460058401548101809111610ef6574210610ebc5760029060ff1916179055600381015491600a8302838104600a1484151715610ea9576064900491828403938411610ea957828285949383610e8a7fdd106c9c3f24f80fe23b63d807dbc109af232921a35b6df85d12be9877f8ab3599986002610e979701928480855416915416906111e6565b54169060035416906111e6565b82519182526020820152a26001815580f35b634e487b7160e01b875260118852602487fd5b845162461bcd60e51b81526020818a0152601460248201527314d95cdcda5bdb881b9bdd08199a5b9a5cda195960621b6044820152606490fd5b634e487b7160e01b885260118952602488fd5b634e487b7160e01b885260218952602488fd5b600191925001541633148238610365565b8490346102f057816003193601126102f05780600a60209252f35b906005821015610f555752565b634e487b7160e01b600052602160045260246000fd5b600435906001600160a01b0382168203610f8157565b600080fd5b6020908160408183019282815285518094520193019160005b828110610fad575050505090565b835185529381019392810192600101610f9f565b8054821015610fd95760005260206000200190600090565b634e487b7160e01b600052603260045260246000fd5b60015460081c6001600160a01b0316330361100657565b60405163118cdaa760e01b8152336004820152602490fd5b60e0810190811067ffffffffffffffff82111761103a57604052565b634e487b7160e01b600052604160045260246000fd5b90601f8019910116810190811067ffffffffffffffff82111761103a57604052565b80546801000000000000000081101561103a5761109491600182018155610fc1565b819291549060031b91821b91600019901b1916179055565b906000602091828151910182855af115611108576000513d6110ff57506001600160a01b0381163b155b6110dd5750565b604051635274afe760e01b81526001600160a01b039091166004820152602490fd5b600114156110d6565b6040513d6000823e3d90fd5b60ff6001541661112057565b60405163d93c066560e01b8152600490fd5b600260005414611143576002600055565b604051633ee5aeb560e01b8152600490fd5b1561115c57565b60405162461bcd60e51b815260206004820152601760248201527f4e6f742073657373696f6e207061727469636970616e740000000000000000006044820152606490fd5b156111a857565b60405162461bcd60e51b8152602060048201526016602482015275496e76616c69642073657373696f6e2073746174757360501b6044820152606490fd5b60405163a9059cbb60e01b60208201526001600160a01b039092166024830152604480830193909352918152608081019167ffffffffffffffff83118284101761103a57611236926040526110ac565b56fea164736f6c6343000814000aa164736f6c6343000814000a","opcodes":"PUSH1 0x80 DUP1 PUSH1 0x40 MSTORE CALLVALUE PUSH2 0x7A JUMPI CALLER ISZERO PUSH2 0x64 JUMPI PUSH1 0x0 DUP1 SLOAD CALLER PUSH1 0x1 PUSH1 0x1 PUSH1 0xA0 SHL SUB NOT DUP3 AND DUP2 OR DUP4 SSTORE PUSH1 0x40 MLOAD SWAP3 SWAP1 SWAP2 PUSH1 0x1 PUSH1 0x1 PUSH1 0xA0 SHL SUB AND SWAP1 PUSH32 0x8BE0079C531659141344CD1FD0A4F28419497F9722A3DAAFE3B4186F6B6457E0 SWAP1 DUP1 LOG3 PUSH2 0x1C0B SWAP1 DUP2 PUSH2 0x80 DUP3 CODECOPY RETURN JUMPDEST PUSH4 0x1E4FBDF7 PUSH1 0xE0 SHL DUP2 MSTORE PUSH1 0x0 PUSH1 0x4 DUP3 ADD MSTORE PUSH1 0x24 SWAP1 REVERT JUMPDEST PUSH1 0x0 DUP1 REVERT INVALID PUSH1 0x40 PUSH1 0x80 DUP2 MSTORE PUSH1 0x4 SWAP1 DUP2 CALLDATASIZE LT ISZERO PUSH2 0x15 JUMPI PUSH1 0x0 DUP1 REVERT JUMPDEST PUSH1 0x0 DUP1 CALLDATALOAD PUSH1 0xE0 SHR DUP1 PUSH4 0xB972E53 EQ PUSH2 0x605 JUMPI DUP1 PUSH4 0xEAAD489 EQ PUSH2 0x5C7 JUMPI DUP1 PUSH4 0x5FC7F334 EQ PUSH2 0x5A8 JUMPI DUP1 PUSH4 0x6FD368B0 EQ PUSH2 0x52B JUMPI DUP1 PUSH4 0x7041B48A EQ PUSH2 0x493 JUMPI DUP1 PUSH4 0x715018A6 EQ PUSH2 0x439 JUMPI DUP1 PUSH4 0x8B8033DF EQ PUSH2 0x31A JUMPI DUP1 PUSH4 0x8DA5CB5B EQ PUSH2 0x2EE JUMPI DUP1 PUSH4 0x9AD1EE10 EQ PUSH2 0x2C3 JUMPI DUP1 PUSH4 0xAA9A068F EQ PUSH2 0x1D2 JUMPI DUP1 PUSH4 0xF2FDE38B EQ PUSH2 0x13D JUMPI PUSH4 0xFF5446F0 EQ PUSH2 0xA4 JUMPI PUSH1 0x0 DUP1 REVERT JUMPDEST CALLVALUE PUSH2 0x13A JUMPI DUP1 PUSH1 0x3 NOT CALLDATASIZE ADD SLT PUSH2 0x13A JUMPI PUSH1 0x1 SLOAD SWAP3 DUP4 ISZERO PUSH2 0xFF JUMPI PUSH1 0x0 NOT DUP5 ADD SWAP4 DUP5 GT PUSH2 0xEC JUMPI PUSH1 0x20 DUP4 PUSH2 0xD6 DUP7 PUSH2 0x778 JUMP JUMPDEST SWAP1 SLOAD SWAP2 MLOAD SWAP2 PUSH1 0x1 DUP1 PUSH1 0xA0 SHL SUB SWAP2 PUSH1 0x3 SHL SHR AND DUP2 MSTORE RETURN JUMPDEST PUSH4 0x4E487B71 PUSH1 0xE0 SHL DUP3 MSTORE PUSH1 0x11 SWAP1 MSTORE PUSH1 0x24 SWAP1 REVERT JUMPDEST PUSH1 0x64 SWAP1 PUSH1 0x20 DUP5 MLOAD SWAP2 PUSH3 0x461BCD PUSH1 0xE5 SHL DUP4 MSTORE DUP3 ADD MSTORE PUSH1 0x15 PUSH1 0x24 DUP3 ADD MSTORE PUSH21 0x139BC818DBDB9D1C9858DD1CC819195C1B1BDE5959 PUSH1 0x5A SHL PUSH1 0x44 DUP3 ADD MSTORE REVERT JUMPDEST DUP1 REVERT JUMPDEST POP SWAP2 CALLVALUE PUSH2 0x1CE JUMPI PUSH1 0x20 CALLDATASIZE PUSH1 0x3 NOT ADD SLT PUSH2 0x1CE JUMPI PUSH2 0x158 PUSH2 0x75D JUMP JUMPDEST SWAP1 PUSH2 0x161 PUSH2 0x7C5 JUMP JUMPDEST PUSH1 0x1 PUSH1 0x1 PUSH1 0xA0 SHL SUB SWAP2 DUP3 AND SWAP3 DUP4 ISZERO PUSH2 0x1B8 JUMPI POP POP PUSH1 0x0 SLOAD DUP3 PUSH12 0xFFFFFFFFFFFFFFFFFFFFFFFF PUSH1 0xA0 SHL DUP3 AND OR PUSH1 0x0 SSTORE AND PUSH32 0x8BE0079C531659141344CD1FD0A4F28419497F9722A3DAAFE3B4186F6B6457E0 PUSH1 0x0 DUP1 LOG3 DUP1 RETURN JUMPDEST MLOAD PUSH4 0x1E4FBDF7 PUSH1 0xE0 SHL DUP2 MSTORE SWAP1 DUP2 ADD DUP5 SWAP1 MSTORE PUSH1 0x24 SWAP1 REVERT JUMPDEST DUP3 DUP1 REVERT JUMPDEST POP SWAP2 SWAP1 CALLVALUE PUSH2 0x1CE JUMPI DUP3 PUSH1 0x3 NOT CALLDATASIZE ADD SLT PUSH2 0x1CE JUMPI DUP1 MLOAD DUP1 PUSH1 0x1 SWAP5 DUP6 SLOAD SWAP4 DUP5 DUP4 MSTORE PUSH1 0x20 DUP1 DUP1 SWAP5 ADD DUP1 SWAP7 DUP10 DUP6 MSTORE PUSH32 0xB10E2D527612073B26EECDFD717E6A320CF44B4AFAC2B0732D9FCBE2B7FA0CF6 SWAP1 DUP11 DUP7 JUMPDEST DUP3 DUP2 LT PUSH2 0x2A5 JUMPI POP POP POP POP DUP6 SWAP1 SUB PUSH1 0x1F ADD PUSH1 0x1F NOT AND DUP6 ADD SWAP7 SWAP1 POP PUSH8 0xFFFFFFFFFFFFFFFF DUP8 GT DUP6 DUP9 LT OR PUSH2 0x290 JUMPI POP SWAP3 DUP7 SWAP3 DUP5 DUP8 DUP1 SWAP7 MSTORE DUP2 DUP7 ADD SWAP3 DUP3 DUP8 MSTORE MLOAD DUP1 SWAP4 MSTORE DUP6 ADD SWAP6 SWAP3 JUMPDEST DUP3 DUP2 LT PUSH2 0x274 JUMPI DUP6 DUP8 SUB DUP7 RETURN JUMPDEST DUP4 MLOAD PUSH1 0x1 PUSH1 0x1 PUSH1 0xA0 SHL SUB AND DUP8 MSTORE SWAP6 DUP2 ADD SWAP6 SWAP3 DUP2 ADD SWAP3 DUP5 ADD PUSH2 0x267 JUMP JUMPDEST PUSH1 0x41 SWAP1 PUSH4 0x4E487B71 PUSH1 0xE0 SHL PUSH1 0x0 MSTORE MSTORE PUSH1 0x24 PUSH1 0x0 REVERT JUMPDEST DUP4 SLOAD PUSH1 0x1 PUSH1 0x1 PUSH1 0xA0 SHL SUB AND DUP6 MSTORE DUP9 SWAP6 SWAP1 SWAP5 ADD SWAP4 SWAP3 DUP2 ADD SWAP3 DUP2 ADD PUSH2 0x221 JUMP JUMPDEST POP SWAP2 CALLVALUE PUSH2 0x1CE JUMPI PUSH1 0x20 CALLDATASIZE PUSH1 0x3 NOT ADD SLT PUSH2 0x1CE JUMPI CALLDATALOAD SWAP2 PUSH1 0x1 SLOAD DUP4 LT ISZERO PUSH2 0x13A JUMPI POP PUSH2 0xD6 PUSH1 0x20 SWAP3 PUSH2 0x778 JUMP JUMPDEST POP SWAP1 CALLVALUE PUSH2 0x316 JUMPI DUP2 PUSH1 0x3 NOT CALLDATASIZE ADD SLT PUSH2 0x316 JUMPI SWAP1 SLOAD SWAP1 MLOAD PUSH1 0x1 PUSH1 0x1 PUSH1 0xA0 SHL SUB SWAP1 SWAP2 AND DUP2 MSTORE PUSH1 0x20 SWAP1 RETURN JUMPDEST POP DUP1 REVERT JUMPDEST POP SWAP2 CALLVALUE PUSH2 0x1CE JUMPI DUP2 PUSH1 0x3 NOT CALLDATASIZE ADD SLT PUSH2 0x1CE JUMPI PUSH2 0x334 PUSH2 0x75D JUMP JUMPDEST SWAP1 PUSH1 0x24 SWAP3 DUP4 CALLDATALOAD PUSH8 0xFFFFFFFFFFFFFFFF SWAP4 DUP5 DUP3 GT PUSH2 0x435 JUMPI CALLDATASIZE PUSH1 0x23 DUP4 ADD SLT ISZERO PUSH2 0x435 JUMPI DUP2 DUP5 ADD CALLDATALOAD SWAP5 DUP6 GT PUSH2 0x435 JUMPI PUSH1 0x5 SWAP2 CALLDATASIZE DUP8 DUP8 DUP6 SHL DUP4 ADD ADD GT PUSH2 0x431 JUMPI PUSH2 0x379 PUSH2 0x7C5 JUMP JUMPDEST PUSH1 0x1 PUSH1 0x1 PUSH1 0xA0 SHL SUB SWAP2 DUP3 AND DUP1 DUP10 MSTORE PUSH1 0x2 PUSH1 0x20 MSTORE DUP5 DUP10 KECCAK256 SLOAD SWAP1 SWAP4 SWAP1 PUSH2 0x39F SWAP1 PUSH1 0xFF AND PUSH2 0x81B JUMP JUMPDEST DUP9 JUMPDEST DUP8 DUP2 LT PUSH2 0x3AC JUMPI DUP10 DUP1 RETURN JUMPDEST DUP10 DUP10 DUP3 DUP5 SHL DUP6 ADD ADD CALLDATALOAD DUP6 DUP2 AND DUP1 SWAP2 SUB PUSH2 0x316 JUMPI DUP7 EXTCODESIZE ISZERO PUSH2 0x316 JUMPI DUP8 MLOAD SWAP1 PUSH4 0x6D69FCAF PUSH1 0xE0 SHL DUP3 MSTORE DUP10 DUP3 ADD MSTORE DUP2 DUP2 DUP13 DUP2 DUP4 DUP12 GAS CALL DUP1 ISZERO PUSH2 0x427 JUMPI PUSH2 0x40F JUMPI JUMPDEST POP POP PUSH1 0x0 NOT DUP2 EQ PUSH2 0x3FD JUMPI PUSH1 0x1 ADD PUSH2 0x3A1 JUMP JUMPDEST PUSH4 0x4E487B71 PUSH1 0xE0 SHL DUP11 MSTORE PUSH1 0x11 DUP8 MSTORE DUP9 DUP11 REVERT JUMPDEST PUSH2 0x418 SWAP1 PUSH2 0x7F1 JUMP JUMPDEST PUSH2 0x423 JUMPI DUP10 CODESIZE PUSH2 0x3EA JUMP JUMPDEST DUP10 DUP1 REVERT JUMPDEST DUP9 MLOAD RETURNDATASIZE DUP5 DUP3 RETURNDATACOPY RETURNDATASIZE SWAP1 REVERT JUMPDEST DUP8 DUP1 REVERT JUMPDEST DUP7 DUP1 REVERT JUMPDEST POP CALLVALUE PUSH2 0x13A JUMPI DUP1 PUSH1 0x3 NOT CALLDATASIZE ADD SLT PUSH2 0x13A JUMPI PUSH2 0x452 PUSH2 0x7C5 JUMP JUMPDEST PUSH1 0x0 DUP1 SLOAD PUSH1 0x1 PUSH1 0x1 PUSH1 0xA0 SHL SUB NOT DUP2 AND DUP3 SSTORE PUSH1 0x1 PUSH1 0x1 PUSH1 0xA0 SHL SUB AND PUSH32 0x8BE0079C531659141344CD1FD0A4F28419497F9722A3DAAFE3B4186F6B6457E0 DUP3 DUP1 LOG3 DUP1 RETURN JUMPDEST POP SWAP2 DUP3 SWAP2 CALLVALUE PUSH2 0x527 JUMPI PUSH1 0x20 CALLDATASIZE PUSH1 0x3 NOT ADD SLT PUSH2 0x527 JUMPI PUSH2 0x4B0 PUSH2 0x75D JUMP JUMPDEST PUSH2 0x4B8 PUSH2 0x7C5 JUMP JUMPDEST PUSH1 0x1 PUSH1 0x1 PUSH1 0xA0 SHL SUB AND DUP1 DUP5 MSTORE PUSH1 0x2 PUSH1 0x20 MSTORE DUP2 DUP5 KECCAK256 SLOAD SWAP1 SWAP3 SWAP1 PUSH2 0x4DC SWAP1 PUSH1 0xFF AND PUSH2 0x81B JUMP JUMPDEST DUP3 EXTCODESIZE ISZERO PUSH2 0x522 JUMPI DUP2 MLOAD PUSH4 0x8456CB59 PUSH1 0xE0 SHL DUP2 MSTORE SWAP3 DUP5 SWAP2 DUP5 SWAP2 DUP3 SWAP1 DUP5 SWAP1 GAS CALL SWAP1 DUP2 ISZERO PUSH2 0x519 JUMPI POP PUSH2 0x509 JUMPI POP RETURN JUMPDEST PUSH2 0x512 SWAP1 PUSH2 0x7F1 JUMP JUMPDEST PUSH2 0x13A JUMPI DUP1 RETURN JUMPDEST MLOAD RETURNDATASIZE DUP5 DUP3 RETURNDATACOPY RETURNDATASIZE SWAP1 REVERT JUMPDEST POP POP POP REVERT JUMPDEST POP POP REVERT JUMPDEST POP DUP1 SWAP2 DUP4 CALLVALUE PUSH2 0x527 JUMPI PUSH1 0x20 CALLDATASIZE PUSH1 0x3 NOT ADD SLT PUSH2 0x527 JUMPI PUSH2 0x548 PUSH2 0x75D JUMP JUMPDEST PUSH2 0x550 PUSH2 0x7C5 JUMP JUMPDEST PUSH1 0x1 PUSH1 0x1 PUSH1 0xA0 SHL SUB AND DUP1 DUP5 MSTORE PUSH1 0x2 PUSH1 0x20 MSTORE DUP3 DUP5 KECCAK256 SLOAD PUSH2 0x571 SWAP1 PUSH1 0xFF AND PUSH2 0x81B JUMP JUMPDEST DUP1 EXTCODESIZE ISZERO PUSH2 0x522 JUMPI DUP4 SWAP2 DUP4 MLOAD DUP1 SWAP6 DUP2 SWAP4 PUSH4 0x1FA5D41D PUSH1 0xE1 SHL DUP4 MSTORE GAS CALL SWAP1 DUP2 ISZERO PUSH2 0x519 JUMPI POP PUSH2 0x59C JUMPI POP DUP1 RETURN JUMPDEST PUSH2 0x5A5 SWAP1 PUSH2 0x7F1 JUMP JUMPDEST DUP1 RETURN JUMPDEST POP SWAP1 CALLVALUE PUSH2 0x316 JUMPI DUP2 PUSH1 0x3 NOT CALLDATASIZE ADD SLT PUSH2 0x316 JUMPI PUSH1 0x20 SWAP1 PUSH1 0x1 SLOAD SWAP1 MLOAD SWAP1 DUP2 MSTORE RETURN JUMPDEST POP SWAP1 CALLVALUE PUSH2 0x316 JUMPI PUSH1 0x20 CALLDATASIZE PUSH1 0x3 NOT ADD SLT PUSH2 0x316 JUMPI PUSH1 0x20 SWAP2 PUSH1 0xFF SWAP1 DUP3 SWAP1 PUSH1 0x1 PUSH1 0x1 PUSH1 0xA0 SHL SUB PUSH2 0x5F2 PUSH2 0x75D JUMP JUMPDEST AND DUP2 MSTORE PUSH1 0x2 DUP6 MSTORE KECCAK256 SLOAD AND SWAP1 MLOAD SWAP1 ISZERO ISZERO DUP2 MSTORE RETURN JUMPDEST POP SWAP2 SWAP1 CALLVALUE PUSH2 0x1CE JUMPI PUSH1 0x20 SWAP3 DUP4 PUSH1 0x3 NOT CALLDATASIZE ADD SLT PUSH2 0x13A JUMPI PUSH2 0x623 PUSH2 0x75D JUMP JUMPDEST SWAP1 PUSH2 0x62C PUSH2 0x7C5 JUMP JUMPDEST PUSH1 0x1 PUSH1 0x1 PUSH1 0xA0 SHL SUB SWAP2 DUP3 AND SWAP2 DUP3 ISZERO PUSH2 0x722 JUMPI DUP4 MLOAD PUSH2 0x1397 DUP1 DUP3 ADD SWAP1 DUP3 DUP3 LT PUSH8 0xFFFFFFFFFFFFFFFF DUP4 GT OR PUSH2 0x70F JUMPI DUP9 SWAP2 DUP4 SWAP2 PUSH2 0x868 DUP4 CODECOPY DUP7 DUP2 MSTORE SUB ADD SWAP1 DUP4 CREATE DUP1 ISZERO PUSH2 0x705 JUMPI DUP2 AND SWAP5 PUSH1 0x1 SLOAD SWAP1 PUSH9 0x10000000000000000 DUP3 LT ISZERO PUSH2 0x6F2 JUMPI POP SWAP1 PUSH2 0x69D DUP3 PUSH1 0x1 DUP8 SWAP6 SWAP5 ADD PUSH1 0x1 SSTORE PUSH2 0x778 JUMP JUMPDEST DUP2 SWAP3 SWAP2 SLOAD SWAP1 PUSH1 0x3 SHL SWAP2 DUP9 DUP4 SHL SWAP3 SHL NOT AND OR SWAP1 SSTORE DUP5 DUP2 MSTORE PUSH1 0x2 DUP7 MSTORE KECCAK256 PUSH1 0x1 PUSH1 0xFF NOT DUP3 SLOAD AND OR SWAP1 SSTORE DUP3 PUSH32 0x9DC8A15AA69177B31086196188B6D3A918149D4C21631667B6EBA1206FE4CAEB DUP6 DUP5 MLOAD TIMESTAMP DUP2 MSTORE LOG3 MLOAD SWAP1 DUP2 MSTORE RETURN JUMPDEST PUSH4 0x4E487B71 PUSH1 0xE0 SHL DUP5 MSTORE PUSH1 0x41 SWAP1 MSTORE PUSH1 0x24 DUP4 REVERT JUMPDEST DUP5 MLOAD RETURNDATASIZE DUP5 DUP3 RETURNDATACOPY RETURNDATASIZE SWAP1 REVERT JUMPDEST PUSH4 0x4E487B71 PUSH1 0xE0 SHL DUP6 MSTORE PUSH1 0x41 DUP9 MSTORE PUSH1 0x24 DUP6 REVERT JUMPDEST DUP4 MLOAD PUSH3 0x461BCD PUSH1 0xE5 SHL DUP2 MSTORE DUP1 DUP7 ADD DUP8 SWAP1 MSTORE PUSH1 0x15 PUSH1 0x24 DUP3 ADD MSTORE PUSH21 0x125B9D985B1A5908199959481C9958DA5C1A595B9D PUSH1 0x5A SHL PUSH1 0x44 DUP3 ADD MSTORE PUSH1 0x64 SWAP1 REVERT JUMPDEST PUSH1 0x4 CALLDATALOAD SWAP1 PUSH1 0x1 PUSH1 0x1 PUSH1 0xA0 SHL SUB DUP3 AND DUP3 SUB PUSH2 0x773 JUMPI JUMP JUMPDEST PUSH1 0x0 DUP1 REVERT JUMPDEST PUSH1 0x1 SLOAD DUP2 LT ISZERO PUSH2 0x7AF JUMPI PUSH1 0x1 PUSH1 0x0 MSTORE PUSH32 0xB10E2D527612073B26EECDFD717E6A320CF44B4AFAC2B0732D9FCBE2B7FA0CF6 ADD SWAP1 PUSH1 0x0 SWAP1 JUMP JUMPDEST PUSH4 0x4E487B71 PUSH1 0xE0 SHL PUSH1 0x0 MSTORE PUSH1 0x32 PUSH1 0x4 MSTORE PUSH1 0x24 PUSH1 0x0 REVERT JUMPDEST PUSH1 0x0 SLOAD PUSH1 0x1 PUSH1 0x1 PUSH1 0xA0 SHL SUB AND CALLER SUB PUSH2 0x7D9 JUMPI JUMP JUMPDEST PUSH1 0x40 MLOAD PUSH4 0x118CDAA7 PUSH1 0xE0 SHL DUP2 MSTORE CALLER PUSH1 0x4 DUP3 ADD MSTORE PUSH1 0x24 SWAP1 REVERT JUMPDEST PUSH8 0xFFFFFFFFFFFFFFFF DUP2 GT PUSH2 0x805 JUMPI PUSH1 0x40 MSTORE JUMP JUMPDEST PUSH4 0x4E487B71 PUSH1 0xE0 SHL PUSH1 0x0 MSTORE PUSH1 0x41 PUSH1 0x4 MSTORE PUSH1 0x24 PUSH1 0x0 REVERT JUMPDEST ISZERO PUSH2 0x822 JUMPI JUMP JUMPDEST PUSH1 0x40 MLOAD PUSH3 0x461BCD PUSH1 0xE5 SHL DUP2 MSTORE PUSH1 0x20 PUSH1 0x4 DUP3 ADD MSTORE PUSH1 0x18 PUSH1 0x24 DUP3 ADD MSTORE PUSH32 0x496E76616C696420636F6E747261637420616464726573730000000000000000 PUSH1 0x44 DUP3 ADD MSTORE PUSH1 0x64 SWAP1 REVERT INVALID PUSH1 0x80 CALLVALUE PUSH2 0x136 JUMPI PUSH1 0x1F PUSH2 0x1397 CODESIZE DUP2 SWAP1 SUB SWAP2 DUP3 ADD PUSH1 0x1F NOT AND DUP4 ADD SWAP2 PUSH1 0x1 PUSH1 0x1 PUSH1 0x40 SHL SUB DUP4 GT DUP5 DUP5 LT OR PUSH2 0x13B JUMPI DUP1 DUP5 SWAP3 PUSH1 0x20 SWAP5 PUSH1 0x40 MSTORE DUP4 CODECOPY DUP2 ADD SUB SLT PUSH2 0x136 JUMPI MLOAD PUSH1 0x1 PUSH1 0x1 PUSH1 0xA0 SHL SUB DUP1 DUP3 AND SWAP2 DUP3 SWAP1 SUB PUSH2 0x136 JUMPI PUSH1 0x1 PUSH1 0x0 SSTORE CALLER ISZERO PUSH2 0x11D JUMPI PUSH1 0x1 DUP1 SLOAD PUSH2 0x100 PUSH1 0x1 PUSH1 0xA8 SHL SUB NOT DUP2 AND CALLER PUSH1 0x8 DUP2 DUP2 SHL PUSH2 0x100 PUSH1 0x1 PUSH1 0xA8 SHL SUB AND SWAP3 SWAP1 SWAP3 OR SWAP1 SWAP4 SSTORE PUSH1 0x40 MLOAD SWAP4 SWAP2 SWAP1 SHR AND PUSH32 0x8BE0079C531659141344CD1FD0A4F28419497F9722A3DAAFE3B4186F6B6457E0 PUSH1 0x0 DUP1 LOG3 DUP2 ISZERO PUSH2 0xDB JUMPI POP PUSH1 0x3 DUP1 SLOAD PUSH1 0x1 PUSH1 0x1 PUSH1 0xA0 SHL SUB NOT AND SWAP2 SWAP1 SWAP2 OR SWAP1 SSTORE PUSH1 0x40 MLOAD PUSH2 0x1245 SWAP1 DUP2 PUSH2 0x152 DUP3 CODECOPY RETURN JUMPDEST PUSH3 0x461BCD PUSH1 0xE5 SHL DUP2 MSTORE PUSH1 0x20 PUSH1 0x4 DUP3 ADD MSTORE PUSH1 0x15 PUSH1 0x24 DUP3 ADD MSTORE PUSH32 0x496E76616C69642066656520726563697069656E740000000000000000000000 PUSH1 0x44 DUP3 ADD MSTORE PUSH1 0x64 SWAP1 REVERT JUMPDEST PUSH1 0x40 MLOAD PUSH4 0x1E4FBDF7 PUSH1 0xE0 SHL DUP2 MSTORE PUSH1 0x0 PUSH1 0x4 DUP3 ADD MSTORE PUSH1 0x24 SWAP1 REVERT JUMPDEST PUSH1 0x0 DUP1 REVERT JUMPDEST PUSH4 0x4E487B71 PUSH1 0xE0 SHL PUSH1 0x0 MSTORE PUSH1 0x41 PUSH1 0x4 MSTORE PUSH1 0x24 PUSH1 0x0 REVERT INVALID PUSH1 0x80 PUSH1 0x40 DUP2 DUP2 MSTORE PUSH1 0x4 DUP1 CALLDATASIZE LT ISZERO PUSH2 0x15 JUMPI PUSH1 0x0 DUP1 REVERT JUMPDEST PUSH1 0x0 SWAP3 DUP4 CALLDATALOAD PUSH1 0xE0 SHR SWAP1 DUP2 PUSH4 0x15548232 EQ PUSH2 0xF2D JUMPI POP DUP1 PUSH4 0x1F5754C0 EQ PUSH2 0xD88 JUMPI DUP1 PUSH4 0x3F4BA83A EQ PUSH2 0xD1F JUMPI DUP1 PUSH4 0x402FF0DB EQ PUSH2 0xC08 JUMPI DUP1 PUSH4 0x49BBF7DA EQ PUSH2 0xBEB JUMPI DUP1 PUSH4 0x57520D20 EQ PUSH2 0xB77 JUMPI DUP1 PUSH4 0x5C975ABB EQ PUSH2 0xB53 JUMPI DUP1 PUSH4 0x664BA84B EQ PUSH2 0xB0B JUMPI DUP1 PUSH4 0x67B3FCB0 EQ PUSH2 0xAEF JUMPI DUP1 PUSH4 0x68C4AC26 EQ PUSH2 0xAB1 JUMPI DUP1 PUSH4 0x6D69FCAF EQ PUSH2 0xA07 JUMPI DUP1 PUSH4 0x715018A6 EQ PUSH2 0x9A6 JUMPI DUP1 PUSH4 0x76319190 EQ PUSH2 0x940 JUMPI DUP1 PUSH4 0x83C4B7A3 EQ PUSH2 0x8C0 JUMPI DUP1 PUSH4 0x8456CB59 EQ PUSH2 0x866 JUMPI DUP1 PUSH4 0x87C13943 EQ PUSH2 0x84A JUMPI DUP1 PUSH4 0x8DA5CB5B EQ PUSH2 0x81D JUMPI DUP1 PUSH4 0xAB3DD949 EQ PUSH2 0x7C4 JUMPI DUP1 PUSH4 0xCD2BF124 EQ PUSH2 0x460 JUMPI DUP1 PUSH4 0xE27F9370 EQ PUSH2 0x31D JUMPI DUP1 PUSH4 0xEB13554F EQ PUSH2 0x2F4 JUMPI DUP1 PUSH4 0xEC59877E EQ PUSH2 0x26E JUMPI DUP1 PUSH4 0xF2FDE38B EQ PUSH2 0x1D2 JUMPI PUSH4 0xF5FE7F71 EQ PUSH2 0x12B JUMPI PUSH1 0x0 DUP1 REVERT JUMPDEST CALLVALUE PUSH2 0x1CE JUMPI PUSH1 0x20 CALLDATASIZE PUSH1 0x3 NOT ADD SLT PUSH2 0x1CE JUMPI PUSH2 0x144 PUSH2 0xF6B JUMP JUMPDEST PUSH2 0x14C PUSH2 0xFEF JUMP JUMPDEST PUSH1 0x1 PUSH1 0x1 PUSH1 0xA0 SHL SUB AND SWAP2 DUP3 ISZERO PUSH2 0x197 JUMPI POP POP PUSH1 0x3 DUP1 SLOAD PUSH1 0x1 PUSH1 0x1 PUSH1 0xA0 SHL SUB NOT AND DUP3 OR SWAP1 SSTORE PUSH32 0xBA887708E7D4436DD36B62187BDCED03E0B9ABE66CAF392A66DD84386641B209 DUP3 DUP1 LOG2 DUP1 RETURN JUMPDEST SWAP1 PUSH1 0x20 PUSH1 0x64 SWAP3 MLOAD SWAP2 PUSH3 0x461BCD PUSH1 0xE5 SHL DUP4 MSTORE DUP3 ADD MSTORE PUSH1 0x11 PUSH1 0x24 DUP3 ADD MSTORE PUSH17 0x125B9D985B1A59081C9958DA5C1A595B9D PUSH1 0x7A SHL PUSH1 0x44 DUP3 ADD MSTORE REVERT JUMPDEST DUP3 DUP1 REVERT JUMPDEST POP CALLVALUE PUSH2 0x1CE JUMPI PUSH1 0x20 CALLDATASIZE PUSH1 0x3 NOT ADD SLT PUSH2 0x1CE JUMPI PUSH2 0x1EC PUSH2 0xF6B JUMP JUMPDEST PUSH2 0x1F4 PUSH2 0xFEF JUMP JUMPDEST PUSH1 0x1 PUSH1 0x1 PUSH1 0xA0 SHL SUB DUP2 DUP2 AND SWAP4 SWAP1 SWAP3 SWAP1 DUP5 ISZERO PUSH2 0x258 JUMPI POP POP PUSH1 0x1 DUP1 SLOAD PUSH2 0x100 PUSH1 0x1 PUSH1 0xA8 SHL SUB NOT DUP2 AND PUSH1 0x8 SWAP4 DUP5 SHL PUSH2 0x100 PUSH1 0x1 PUSH1 0xA8 SHL SUB AND OR SWAP1 SWAP2 SSTORE SWAP1 SHR AND PUSH32 0x8BE0079C531659141344CD1FD0A4F28419497F9722A3DAAFE3B4186F6B6457E0 DUP4 DUP1 LOG3 DUP1 RETURN JUMPDEST MLOAD PUSH4 0x1E4FBDF7 PUSH1 0xE0 SHL DUP2 MSTORE SWAP1 DUP2 ADD DUP6 SWAP1 MSTORE PUSH1 0x24 SWAP1 REVERT JUMPDEST POP POP CALLVALUE PUSH2 0x2F0 JUMPI PUSH1 0x20 SWAP1 DUP2 PUSH1 0x3 NOT CALLDATASIZE ADD SLT PUSH2 0x1CE JUMPI PUSH1 0x1 PUSH1 0x1 PUSH1 0xA0 SHL SUB PUSH2 0x293 PUSH2 0xF6B JUMP JUMPDEST AND DUP4 MSTORE PUSH1 0x7 DUP3 MSTORE DUP1 DUP4 KECCAK256 SWAP3 DUP2 MLOAD DUP1 SWAP4 DUP1 DUP7 SLOAD SWAP3 DUP4 DUP2 MSTORE ADD SWAP6 DUP4 MSTORE DUP1 DUP4 KECCAK256 SWAP3 SWAP1 JUMPDEST DUP3 DUP3 LT PUSH2 0x2D9 JUMPI PUSH2 0x2D5 DUP7 DUP7 PUSH2 0x2CB DUP3 DUP12 SUB DUP4 PUSH2 0x1050 JUMP JUMPDEST MLOAD SWAP2 DUP3 SWAP2 DUP3 PUSH2 0xF86 JUMP JUMPDEST SUB SWAP1 RETURN JUMPDEST DUP4 SLOAD DUP8 MSTORE SWAP6 DUP7 ADD SWAP6 PUSH1 0x1 SWAP4 DUP5 ADD SWAP4 SWAP1 SWAP2 ADD SWAP1 PUSH2 0x2B3 JUMP JUMPDEST POP DUP1 REVERT JUMPDEST POP POP CALLVALUE PUSH2 0x2F0 JUMPI DUP2 PUSH1 0x3 NOT CALLDATASIZE ADD SLT PUSH2 0x2F0 JUMPI PUSH1 0x3 SLOAD SWAP1 MLOAD PUSH1 0x1 PUSH1 0x1 PUSH1 0xA0 SHL SUB SWAP1 SWAP2 AND DUP2 MSTORE PUSH1 0x20 SWAP1 RETURN JUMPDEST POP DUP3 SWAP1 CALLVALUE PUSH2 0x2F0 JUMPI PUSH1 0x20 CALLDATASIZE PUSH1 0x3 NOT ADD SLT PUSH2 0x2F0 JUMPI DUP1 CALLDATALOAD SWAP1 PUSH2 0x33C PUSH2 0x1132 JUMP JUMPDEST DUP2 DUP4 MSTORE PUSH1 0x5 PUSH1 0x20 MSTORE DUP4 DUP4 KECCAK256 DUP1 SLOAD PUSH1 0x1 PUSH1 0x1 PUSH1 0xA0 SHL SUB SWAP3 SWAP2 PUSH2 0x36C SWAP2 DUP5 AND CALLER EQ SWAP1 DUP5 SWAP1 DUP3 ISZERO PUSH2 0x44F JUMPI JUMPDEST POP POP PUSH2 0x1155 JUMP JUMPDEST DUP3 DUP5 MSTORE PUSH1 0x5 PUSH1 0x20 MSTORE DUP5 DUP5 KECCAK256 SWAP1 PUSH1 0x6 DUP3 ADD SWAP1 DUP2 SLOAD SWAP1 PUSH1 0xFF DUP3 AND PUSH1 0x5 DUP2 LT ISZERO PUSH2 0x43C JUMPI PUSH1 0x1 PUSH2 0x399 SWAP2 EQ PUSH2 0x11A1 JUMP JUMPDEST DUP1 DUP5 ADD SLOAD TIMESTAMP LT ISZERO PUSH2 0x3F9 JUMPI POP SWAP1 PUSH1 0x3 PUSH2 0x3CE SWAP5 SWAP4 SWAP3 PUSH1 0xFF NOT AND OR SWAP1 SSTORE PUSH1 0x3 DUP3 PUSH1 0x2 DUP4 ADD SLOAD AND SWAP3 PUSH1 0x1 DUP4 ADD SLOAD AND SWAP2 ADD SLOAD SWAP2 PUSH2 0x11E6 JUMP JUMPDEST PUSH32 0x83DB11557CAA3518E394EE3589033B042B4F03F0ED0495A829208E71BFA37F05 DUP3 DUP1 LOG2 PUSH1 0x1 DUP2 SSTORE DUP1 RETURN JUMPDEST PUSH1 0x64 SWAP1 PUSH1 0x20 DUP10 MLOAD SWAP2 PUSH3 0x461BCD PUSH1 0xE5 SHL DUP4 MSTORE DUP3 ADD MSTORE PUSH1 0x17 PUSH1 0x24 DUP3 ADD MSTORE PUSH32 0x53657373696F6E20616C72656164792073746172746564000000000000000000 PUSH1 0x44 DUP3 ADD MSTORE REVERT JUMPDEST PUSH4 0x4E487B71 PUSH1 0xE0 SHL DUP9 MSTORE PUSH1 0x21 DUP3 MSTORE PUSH1 0x24 DUP9 REVERT JUMPDEST PUSH1 0x1 SWAP2 SWAP3 POP ADD SLOAD AND CALLER EQ DUP4 DUP9 PUSH2 0x365 JUMP JUMPDEST POP CALLVALUE PUSH2 0x1CE JUMPI PUSH1 0xA0 CALLDATASIZE PUSH1 0x3 NOT ADD SLT PUSH2 0x1CE JUMPI PUSH2 0x47A PUSH2 0xF6B JUMP JUMPDEST PUSH1 0x1 PUSH1 0x1 PUSH1 0xA0 SHL SUB SWAP4 SWAP1 SWAP3 SWAP1 PUSH1 0x24 DUP1 CALLDATALOAD DUP7 DUP2 AND SWAP2 SWAP1 DUP3 SWAP1 SUB PUSH2 0x1CE JUMPI PUSH1 0x44 CALLDATALOAD SWAP5 PUSH1 0x64 SWAP6 DUP7 CALLDATALOAD SWAP1 PUSH1 0x84 CALLDATALOAD SWAP3 PUSH2 0x4AC PUSH2 0x1132 JUMP JUMPDEST PUSH2 0x4B4 PUSH2 0x1114 JUMP JUMPDEST DUP6 DUP8 MSTORE PUSH1 0x20 SWAP10 PUSH1 0x2 DUP12 MSTORE PUSH1 0xFF DUP10 DUP10 KECCAK256 SLOAD AND ISZERO PUSH2 0x78D JUMPI DUP12 AND SWAP5 DUP6 ISZERO ISZERO DUP1 PUSH2 0x783 JUMPI JUMPDEST ISZERO PUSH2 0x751 JUMPI DUP3 ISZERO PUSH2 0x71F JUMPI TIMESTAMP DUP5 GT ISZERO PUSH2 0x6E9 JUMPI DUP5 ISZERO PUSH2 0x6B5 JUMPI DUP2 SLOAD SWAP10 PUSH1 0x0 NOT DUP12 EQ PUSH2 0x6A3 JUMPI DUP9 DUP9 DUP9 DUP16 DUP16 SWAP7 DUP16 SWAP7 SWAP9 DUP16 SWAP7 SWAP2 PUSH1 0x5 SWAP11 DUP13 SWAP4 PUSH1 0x1 DUP16 SWAP7 DUP9 DUP16 DUP16 DUP16 DUP16 DUP16 SWAP2 DUP16 SWAP2 SWAP7 DUP1 DUP16 SWAP7 SWAP9 DUP16 SWAP7 SWAP6 DUP16 SWAP7 SWAP11 DUP16 SWAP12 PUSH1 0x6 SWAP13 DUP15 DUP9 ADD SWAP1 SSTORE DUP4 MLOAD SWAP12 PUSH2 0x53A DUP14 PUSH2 0x101E JUMP JUMPDEST DUP13 MSTORE DUP1 DUP13 ADD SWAP7 CALLER DUP9 MSTORE DUP5 DUP14 ADD SWAP9 DUP10 MSTORE PUSH1 0x60 DUP14 ADD SWAP10 DUP11 MSTORE PUSH1 0x80 DUP14 ADD SWAP11 DUP12 MSTORE PUSH1 0xA0 DUP14 ADD SWAP12 DUP13 MSTORE PUSH1 0xC0 DUP14 ADD SWAP15 DUP16 MSTORE DUP4 MSTORE MSTORE KECCAK256 SWAP8 MLOAD AND SWAP2 PUSH12 0xFFFFFFFFFFFFFFFFFFFFFFFF PUSH1 0xA0 SHL SWAP3 DUP4 DUP10 SLOAD AND OR DUP9 SSTORE DUP2 PUSH1 0x1 DUP10 ADD SWAP2 MLOAD AND DUP4 DUP3 SLOAD AND OR SWAP1 SSTORE PUSH1 0x2 DUP8 ADD SWAP3 MLOAD AND SWAP1 DUP3 SLOAD AND OR SWAP1 SSTORE MLOAD PUSH1 0x3 DUP5 ADD SSTORE MLOAD DUP8 DUP4 ADD SSTORE MLOAD PUSH1 0x5 DUP3 ADD SSTORE ADD SWAP1 MLOAD SWAP14 DUP15 LT ISZERO PUSH2 0x691 JUMPI DUP13 SWAP14 PUSH1 0xFF DUP1 NOT DUP4 SLOAD AND SWAP2 AND OR SWAP1 SSTORE DUP7 DUP10 MSTORE PUSH1 0x6 DUP13 MSTORE PUSH2 0x5DF DUP12 DUP12 DUP12 KECCAK256 PUSH2 0x1072 JUMP JUMPDEST CALLER DUP10 MSTORE PUSH1 0x7 DUP13 MSTORE PUSH2 0x5F2 DUP12 DUP12 DUP12 KECCAK256 PUSH2 0x1072 JUMP JUMPDEST DUP4 DUP2 DUP12 MLOAD SWAP15 DUP16 SWAP1 PUSH4 0x23B872DD PUSH1 0xE0 SHL SWAP1 DUP3 ADD MSTORE CALLER DUP6 DUP3 ADD MSTORE ADDRESS PUSH1 0x44 DUP3 ADD MSTORE ADD MSTORE DUP13 MSTORE PUSH1 0xA0 DUP13 ADD SWAP2 DUP13 DUP4 LT PUSH8 0xFFFFFFFFFFFFFFFF DUP5 GT OR PUSH2 0x680 JUMPI POP POP DUP8 SWAP9 SWAP10 SWAP11 PUSH2 0x640 SWAP2 PUSH1 0x1 SWAP10 MSTORE DUP7 PUSH2 0x10AC JUMP JUMPDEST DUP8 MLOAD SWAP5 DUP6 MSTORE DUP10 DUP6 ADD MSTORE DUP7 DUP5 ADD MSTORE PUSH1 0x60 DUP4 ADD MSTORE DUP6 PUSH32 0xAFB30F2FB7B1A22D2C1EBCE5ADE2B90AE0F6D539E804CE2E60F6A900AC3A4B49 PUSH1 0x80 CALLER SWAP5 LOG4 SSTORE MLOAD SWAP1 DUP2 MSTORE RETURN JUMPDEST PUSH4 0x4E487B71 PUSH1 0xE0 SHL DUP10 MSTORE PUSH1 0x41 SWAP1 MSTORE DUP8 REVERT JUMPDEST PUSH4 0x4E487B71 PUSH1 0xE0 SHL DUP11 MSTORE PUSH1 0x21 DUP5 MSTORE DUP3 DUP11 REVERT JUMPDEST POP PUSH4 0x4E487B71 PUSH1 0xE0 SHL DUP9 MSTORE PUSH1 0x11 DUP3 MSTORE DUP8 REVERT JUMPDEST DUP9 MLOAD PUSH3 0x461BCD PUSH1 0xE5 SHL DUP2 MSTORE SWAP2 DUP3 ADD DUP12 SWAP1 MSTORE PUSH1 0x10 SWAP1 DUP3 ADD MSTORE PUSH16 0x24B73B30B634B210323AB930BA34B7B7 PUSH1 0x81 SHL PUSH1 0x44 DUP3 ADD MSTORE DUP9 SWAP1 REVERT JUMPDEST DUP9 MLOAD PUSH3 0x461BCD PUSH1 0xE5 SHL DUP2 MSTORE SWAP2 DUP3 ADD DUP12 SWAP1 MSTORE PUSH1 0x12 SWAP1 DUP3 ADD MSTORE PUSH18 0x496E76616C69642073746172742074696D65 PUSH1 0x70 SHL PUSH1 0x44 DUP3 ADD MSTORE DUP9 SWAP1 REVERT JUMPDEST DUP9 MLOAD PUSH3 0x461BCD PUSH1 0xE5 SHL DUP2 MSTORE SWAP2 DUP3 ADD DUP12 SWAP1 MSTORE PUSH1 0xE SWAP1 DUP3 ADD MSTORE PUSH14 0x125B9D985B1A5908185B5BDD5B9D PUSH1 0x92 SHL PUSH1 0x44 DUP3 ADD MSTORE DUP9 SWAP1 REVERT JUMPDEST DUP9 MLOAD PUSH3 0x461BCD PUSH1 0xE5 SHL DUP2 MSTORE SWAP2 DUP3 ADD DUP12 SWAP1 MSTORE PUSH1 0xE SWAP1 DUP3 ADD MSTORE PUSH14 0x24B73B30B634B21036B2B73A37B9 PUSH1 0x91 SHL PUSH1 0x44 DUP3 ADD MSTORE DUP9 SWAP1 REVERT JUMPDEST POP CALLER DUP7 EQ ISZERO PUSH2 0x4D6 JUMP JUMPDEST DUP9 MLOAD PUSH3 0x461BCD PUSH1 0xE5 SHL DUP2 MSTORE DUP1 DUP4 ADD DUP13 SWAP1 MSTORE PUSH1 0x13 DUP2 DUP9 ADD MSTORE PUSH19 0x151BDAD95B881B9BDD081CDD5C1C1BDC9D1959 PUSH1 0x6A SHL PUSH1 0x44 DUP3 ADD MSTORE DUP11 SWAP1 REVERT JUMPDEST POP POP CALLVALUE PUSH2 0x2F0 JUMPI DUP1 PUSH1 0x3 NOT CALLDATASIZE ADD SLT PUSH2 0x2F0 JUMPI PUSH2 0x7DE PUSH2 0xF6B JUMP JUMPDEST PUSH1 0x1 PUSH1 0x1 PUSH1 0xA0 SHL SUB AND DUP3 MSTORE PUSH1 0x6 PUSH1 0x20 MSTORE DUP1 DUP3 KECCAK256 DUP1 SLOAD PUSH1 0x24 CALLDATALOAD SWAP4 SWAP1 DUP5 LT ISZERO PUSH2 0x81A JUMPI POP PUSH1 0x20 SWAP3 PUSH2 0x80C SWAP2 PUSH2 0xFC1 JUMP JUMPDEST SWAP2 SWAP1 SLOAD SWAP1 MLOAD SWAP2 PUSH1 0x3 SHL SHR DUP2 MSTORE RETURN JUMPDEST DUP1 REVERT JUMPDEST POP POP CALLVALUE PUSH2 0x2F0 JUMPI DUP2 PUSH1 0x3 NOT CALLDATASIZE ADD SLT PUSH2 0x2F0 JUMPI PUSH1 0x1 SLOAD SWAP1 MLOAD PUSH1 0x8 SWAP2 SWAP1 SWAP2 SHR PUSH1 0x1 PUSH1 0x1 PUSH1 0xA0 SHL SUB AND DUP2 MSTORE PUSH1 0x20 SWAP1 RETURN JUMPDEST POP POP CALLVALUE PUSH2 0x2F0 JUMPI DUP2 PUSH1 0x3 NOT CALLDATASIZE ADD SLT PUSH2 0x2F0 JUMPI PUSH1 0x20 SWAP1 MLOAD PUSH1 0x64 DUP2 MSTORE RETURN JUMPDEST POP POP CALLVALUE PUSH2 0x2F0 JUMPI DUP2 PUSH1 0x3 NOT CALLDATASIZE ADD SLT PUSH2 0x2F0 JUMPI PUSH1 0x20 PUSH32 0x62E78CEA01BEE320CD4E420270B5EA74000D11B0C9F74754EBDBFC544B05A258 SWAP2 PUSH2 0x8A4 PUSH2 0xFEF JUMP JUMPDEST PUSH2 0x8AC PUSH2 0x1114 JUMP JUMPDEST PUSH1 0x1 PUSH1 0xFF NOT DUP2 SLOAD AND OR PUSH1 0x1 SSTORE MLOAD CALLER DUP2 MSTORE LOG1 DUP1 RETURN JUMPDEST POP SWAP1 CALLVALUE PUSH2 0x1CE JUMPI PUSH1 0x20 CALLDATASIZE PUSH1 0x3 NOT ADD SLT PUSH2 0x1CE JUMPI DUP1 PUSH2 0x93E SWAP2 PUSH1 0xE0 SWAP5 DUP5 CALLDATALOAD DUP2 MSTORE PUSH1 0x5 PUSH1 0x20 MSTORE KECCAK256 PUSH1 0x1 DUP1 PUSH1 0xA0 SHL SUB SWAP2 DUP3 DUP3 SLOAD AND SWAP5 DUP4 PUSH1 0x1 DUP5 ADD SLOAD AND SWAP4 PUSH1 0x2 DUP5 ADD SLOAD AND PUSH1 0x3 DUP5 ADD SLOAD SWAP2 DUP5 ADD SLOAD SWAP3 PUSH1 0xFF PUSH1 0x6 PUSH1 0x5 DUP8 ADD SLOAD SWAP7 ADD SLOAD AND SWAP6 DUP2 MLOAD SWAP9 DUP10 MSTORE PUSH1 0x20 DUP10 ADD MSTORE DUP8 ADD MSTORE PUSH1 0x60 DUP7 ADD MSTORE PUSH1 0x80 DUP6 ADD MSTORE PUSH1 0xA0 DUP5 ADD MSTORE PUSH1 0xC0 DUP4 ADD SWAP1 PUSH2 0xF48 JUMP JUMPDEST RETURN JUMPDEST POP POP CALLVALUE PUSH2 0x2F0 JUMPI PUSH1 0x20 CALLDATASIZE PUSH1 0x3 NOT ADD SLT PUSH2 0x2F0 JUMPI PUSH2 0x95B PUSH2 0xF6B JUMP JUMPDEST PUSH2 0x963 PUSH2 0xFEF JUMP JUMPDEST PUSH1 0x1 PUSH1 0x1 PUSH1 0xA0 SHL SUB AND DUP1 DUP4 MSTORE PUSH1 0x2 PUSH1 0x20 MSTORE SWAP1 DUP3 KECCAK256 DUP1 SLOAD PUSH1 0xFF NOT AND SWAP1 SSTORE PUSH32 0x4C910B69FE65A61F7531B9C5042B2329CA7179C77290AA7E2EB3AFA3C8511FD3 DUP3 DUP1 LOG2 DUP1 RETURN JUMPDEST DUP4 CALLVALUE PUSH2 0x81A JUMPI DUP1 PUSH1 0x3 NOT CALLDATASIZE ADD SLT PUSH2 0x81A JUMPI PUSH2 0x9BF PUSH2 0xFEF JUMP JUMPDEST PUSH1 0x1 DUP1 SLOAD PUSH2 0x100 PUSH1 0x1 PUSH1 0xA8 SHL SUB NOT DUP2 AND SWAP1 SWAP2 SSTORE DUP2 SWAP1 PUSH1 0x8 SHR PUSH1 0x1 PUSH1 0x1 PUSH1 0xA0 SHL SUB AND PUSH32 0x8BE0079C531659141344CD1FD0A4F28419497F9722A3DAAFE3B4186F6B6457E0 DUP3 DUP1 LOG3 DUP1 RETURN JUMPDEST POP SWAP1 CALLVALUE PUSH2 0x1CE JUMPI PUSH1 0x20 CALLDATASIZE PUSH1 0x3 NOT ADD SLT PUSH2 0x1CE JUMPI PUSH2 0xA22 PUSH2 0xF6B JUMP JUMPDEST PUSH2 0xA2A PUSH2 0xFEF JUMP JUMPDEST PUSH1 0x1 PUSH1 0x1 PUSH1 0xA0 SHL SUB AND SWAP2 DUP3 ISZERO PUSH2 0xA77 JUMPI POP DUP2 DUP4 MSTORE PUSH1 0x2 PUSH1 0x20 MSTORE DUP3 KECCAK256 DUP1 SLOAD PUSH1 0xFF NOT AND PUSH1 0x1 OR SWAP1 SSTORE PUSH32 0x784C8F4DBF0FFEDD6E72C76501C545A70F8B203B30A26CE542BF92BA87C248A4 DUP3 DUP1 LOG2 DUP1 RETURN JUMPDEST PUSH1 0x20 PUSH1 0x64 SWAP3 MLOAD SWAP2 PUSH3 0x461BCD PUSH1 0xE5 SHL DUP4 MSTORE DUP3 ADD MSTORE PUSH1 0x15 PUSH1 0x24 DUP3 ADD MSTORE PUSH21 0x496E76616C696420746F6B656E2061646472657373 PUSH1 0x58 SHL PUSH1 0x44 DUP3 ADD MSTORE REVERT JUMPDEST POP POP CALLVALUE PUSH2 0x2F0 JUMPI PUSH1 0x20 CALLDATASIZE PUSH1 0x3 NOT ADD SLT PUSH2 0x2F0 JUMPI PUSH1 0x20 SWAP2 PUSH1 0xFF SWAP1 DUP3 SWAP1 PUSH1 0x1 PUSH1 0x1 PUSH1 0xA0 SHL SUB PUSH2 0xADC PUSH2 0xF6B JUMP JUMPDEST AND DUP2 MSTORE PUSH1 0x2 DUP6 MSTORE KECCAK256 SLOAD AND SWAP1 MLOAD SWAP1 ISZERO ISZERO DUP2 MSTORE RETURN JUMPDEST POP POP CALLVALUE PUSH2 0x2F0 JUMPI DUP2 PUSH1 0x3 NOT CALLDATASIZE ADD SLT PUSH2 0x2F0 JUMPI PUSH1 0x20 SWAP1 MLOAD PUSH1 0x5A DUP2 MSTORE RETURN JUMPDEST POP POP CALLVALUE PUSH2 0x2F0 JUMPI DUP1 PUSH1 0x3 NOT CALLDATASIZE ADD SLT PUSH2 0x2F0 JUMPI PUSH2 0xB25 PUSH2 0xF6B JUMP JUMPDEST PUSH1 0x1 PUSH1 0x1 PUSH1 0xA0 SHL SUB AND DUP3 MSTORE PUSH1 0x7 PUSH1 0x20 MSTORE DUP1 DUP3 KECCAK256 DUP1 SLOAD PUSH1 0x24 CALLDATALOAD SWAP4 SWAP1 DUP5 LT ISZERO PUSH2 0x81A JUMPI POP PUSH1 0x20 SWAP3 PUSH2 0x80C SWAP2 PUSH2 0xFC1 JUMP JUMPDEST POP POP CALLVALUE PUSH2 0x2F0 JUMPI DUP2 PUSH1 0x3 NOT CALLDATASIZE ADD SLT PUSH2 0x2F0 JUMPI PUSH1 0x20 SWAP1 PUSH1 0xFF PUSH1 0x1 SLOAD AND SWAP1 MLOAD SWAP1 ISZERO ISZERO DUP2 MSTORE RETURN JUMPDEST POP POP CALLVALUE PUSH2 0x2F0 JUMPI PUSH1 0x20 SWAP1 DUP2 PUSH1 0x3 NOT CALLDATASIZE ADD SLT PUSH2 0x1CE JUMPI PUSH1 0x1 PUSH1 0x1 PUSH1 0xA0 SHL SUB PUSH2 0xB9C PUSH2 0xF6B JUMP JUMPDEST AND DUP4 MSTORE PUSH1 0x6 DUP3 MSTORE DUP1 DUP4 KECCAK256 SWAP3 DUP2 MLOAD DUP1 SWAP4 DUP1 DUP7 SLOAD SWAP3 DUP4 DUP2 MSTORE ADD SWAP6 DUP4 MSTORE DUP1 DUP4 KECCAK256 SWAP3 SWAP1 JUMPDEST DUP3 DUP3 LT PUSH2 0xBD4 JUMPI PUSH2 0x2D5 DUP7 DUP7 PUSH2 0x2CB DUP3 DUP12 SUB DUP4 PUSH2 0x1050 JUMP JUMPDEST DUP4 SLOAD DUP8 MSTORE SWAP6 DUP7 ADD SWAP6 PUSH1 0x1 SWAP4 DUP5 ADD SWAP4 SWAP1 SWAP2 ADD SWAP1 PUSH2 0xBBC JUMP JUMPDEST POP CALLVALUE PUSH2 0x1CE JUMPI DUP3 PUSH1 0x3 NOT CALLDATASIZE ADD SLT PUSH2 0x1CE JUMPI PUSH1 0x20 SWAP3 POP SLOAD SWAP1 MLOAD SWAP1 DUP2 MSTORE RETURN JUMPDEST POP SWAP2 CALLVALUE PUSH2 0x81A JUMPI PUSH1 0x20 CALLDATASIZE PUSH1 0x3 NOT ADD SLT PUSH2 0x81A JUMPI DUP1 PUSH1 0xC0 DUP4 MLOAD PUSH2 0xC29 DUP2 PUSH2 0x101E JUMP JUMPDEST DUP3 DUP2 MSTORE DUP3 PUSH1 0x20 DUP3 ADD MSTORE DUP3 DUP6 DUP3 ADD MSTORE DUP3 PUSH1 0x60 DUP3 ADD MSTORE DUP3 PUSH1 0x80 DUP3 ADD MSTORE DUP3 PUSH1 0xA0 DUP3 ADD MSTORE ADD MSTORE DUP3 CALLDATALOAD DUP2 MSTORE PUSH1 0x5 PUSH1 0x20 MSTORE DUP2 DUP2 KECCAK256 DUP3 MLOAD SWAP3 PUSH2 0xC63 DUP5 PUSH2 0x101E JUMP JUMPDEST PUSH1 0x1 DUP1 PUSH1 0xA0 SHL SUB DUP1 DUP4 SLOAD AND DUP6 MSTORE DUP1 PUSH1 0x1 DUP5 ADD SLOAD AND SWAP2 PUSH1 0x20 DUP7 ADD SWAP3 DUP4 MSTORE DUP2 PUSH1 0x2 DUP6 ADD SLOAD AND SWAP2 DUP2 DUP8 ADD SWAP3 DUP4 MSTORE PUSH1 0x3 DUP6 ADD SLOAD SWAP3 PUSH1 0x60 DUP9 ADD SWAP4 DUP5 MSTORE DUP9 DUP7 ADD SLOAD SWAP5 PUSH1 0x80 DUP10 ADD SWAP6 DUP7 MSTORE PUSH1 0xFF PUSH1 0x6 PUSH1 0x5 DUP10 ADD SLOAD SWAP9 PUSH1 0xA0 DUP13 ADD SWAP10 DUP11 MSTORE ADD SLOAD AND PUSH1 0xC0 DUP11 ADD SWAP9 PUSH1 0x5 DUP3 LT ISZERO PUSH2 0xD0C JUMPI PUSH1 0xE0 DUP12 PUSH2 0x93E DUP13 DUP13 DUP13 DUP13 DUP13 DUP13 DUP13 DUP2 DUP14 DUP14 DUP10 MSTORE DUP2 DUP6 MLOAD SWAP12 MLOAD AND DUP12 MSTORE MLOAD AND PUSH1 0x20 DUP11 ADD MSTORE MLOAD AND SWAP1 DUP8 ADD MSTORE MLOAD PUSH1 0x60 DUP7 ADD MSTORE MLOAD PUSH1 0x80 DUP6 ADD MSTORE MLOAD PUSH1 0xA0 DUP5 ADD MSTORE MLOAD PUSH1 0xC0 DUP4 ADD SWAP1 PUSH2 0xF48 JUMP JUMPDEST PUSH4 0x4E487B71 PUSH1 0xE0 SHL DUP2 MSTORE PUSH1 0x21 DUP13 MSTORE PUSH1 0x24 SWAP1 REVERT JUMPDEST POP CALLVALUE PUSH2 0x1CE JUMPI DUP3 PUSH1 0x3 NOT CALLDATASIZE ADD SLT PUSH2 0x1CE JUMPI PUSH2 0xD38 PUSH2 0xFEF JUMP JUMPDEST PUSH1 0x1 SLOAD SWAP1 PUSH1 0xFF DUP3 AND ISZERO PUSH2 0xD7A JUMPI POP PUSH1 0xFF NOT AND PUSH1 0x1 SSTORE MLOAD CALLER DUP2 MSTORE PUSH32 0x5DB9EE0A495BF2E6FF9C91A7834C1BA4FDD244A5E8AA4E537BD38AEAE4B073AA SWAP1 PUSH1 0x20 SWAP1 LOG1 DUP1 RETURN JUMPDEST DUP3 MLOAD PUSH4 0x8DFC202B PUSH1 0xE0 SHL DUP2 MSTORE REVERT JUMPDEST POP SWAP2 SWAP1 CALLVALUE PUSH2 0x2F0 JUMPI PUSH1 0x20 CALLDATASIZE PUSH1 0x3 NOT ADD SLT PUSH2 0x2F0 JUMPI DUP3 CALLDATALOAD SWAP1 PUSH2 0xDA7 PUSH2 0x1132 JUMP JUMPDEST DUP2 DUP4 MSTORE PUSH1 0x5 PUSH1 0x20 MSTORE DUP1 DUP4 KECCAK256 DUP1 SLOAD PUSH1 0x1 PUSH1 0x1 PUSH1 0xA0 SHL SUB SWAP2 PUSH2 0xDD5 SWAP2 DUP4 AND CALLER EQ SWAP1 DUP4 SWAP1 DUP3 ISZERO PUSH2 0xF1C JUMPI POP POP PUSH2 0x1155 JUMP JUMPDEST DUP3 DUP5 MSTORE PUSH1 0x5 PUSH1 0x20 MSTORE DUP2 DUP5 KECCAK256 PUSH1 0x6 DUP2 ADD DUP1 SLOAD PUSH1 0xFF DUP2 AND PUSH1 0x5 DUP2 LT ISZERO PUSH2 0xF09 JUMPI PUSH1 0x1 PUSH2 0xDFF SWAP2 EQ PUSH2 0x11A1 JUMP JUMPDEST DUP8 DUP4 ADD SLOAD PUSH1 0x5 DUP5 ADD SLOAD DUP2 ADD DUP1 SWAP2 GT PUSH2 0xEF6 JUMPI TIMESTAMP LT PUSH2 0xEBC JUMPI PUSH1 0x2 SWAP1 PUSH1 0xFF NOT AND OR SWAP1 SSTORE PUSH1 0x3 DUP2 ADD SLOAD SWAP2 PUSH1 0xA DUP4 MUL DUP4 DUP2 DIV PUSH1 0xA EQ DUP5 ISZERO OR ISZERO PUSH2 0xEA9 JUMPI PUSH1 0x64 SWAP1 DIV SWAP2 DUP3 DUP5 SUB SWAP4 DUP5 GT PUSH2 0xEA9 JUMPI DUP3 DUP3 DUP6 SWAP5 SWAP4 DUP4 PUSH2 0xE8A PUSH32 0xDD106C9C3F24F80FE23B63D807DBC109AF232921A35B6DF85D12BE9877F8AB35 SWAP10 SWAP9 PUSH1 0x2 PUSH2 0xE97 SWAP8 ADD SWAP3 DUP5 DUP1 DUP6 SLOAD AND SWAP2 SLOAD AND SWAP1 PUSH2 0x11E6 JUMP JUMPDEST SLOAD AND SWAP1 PUSH1 0x3 SLOAD AND SWAP1 PUSH2 0x11E6 JUMP JUMPDEST DUP3 MLOAD SWAP2 DUP3 MSTORE PUSH1 0x20 DUP3 ADD MSTORE LOG2 PUSH1 0x1 DUP2 SSTORE DUP1 RETURN JUMPDEST PUSH4 0x4E487B71 PUSH1 0xE0 SHL DUP8 MSTORE PUSH1 0x11 DUP9 MSTORE PUSH1 0x24 DUP8 REVERT JUMPDEST DUP5 MLOAD PUSH3 0x461BCD PUSH1 0xE5 SHL DUP2 MSTORE PUSH1 0x20 DUP2 DUP11 ADD MSTORE PUSH1 0x14 PUSH1 0x24 DUP3 ADD MSTORE PUSH20 0x14D95CDCDA5BDB881B9BDD08199A5B9A5CDA1959 PUSH1 0x62 SHL PUSH1 0x44 DUP3 ADD MSTORE PUSH1 0x64 SWAP1 REVERT JUMPDEST PUSH4 0x4E487B71 PUSH1 0xE0 SHL DUP9 MSTORE PUSH1 0x11 DUP10 MSTORE PUSH1 0x24 DUP9 REVERT JUMPDEST PUSH4 0x4E487B71 PUSH1 0xE0 SHL DUP9 MSTORE PUSH1 0x21 DUP10 MSTORE PUSH1 0x24 DUP9 REVERT JUMPDEST PUSH1 0x1 SWAP2 SWAP3 POP ADD SLOAD AND CALLER EQ DUP3 CODESIZE PUSH2 0x365 JUMP JUMPDEST DUP5 SWAP1 CALLVALUE PUSH2 0x2F0 JUMPI DUP2 PUSH1 0x3 NOT CALLDATASIZE ADD SLT PUSH2 0x2F0 JUMPI DUP1 PUSH1 0xA PUSH1 0x20 SWAP3 MSTORE RETURN JUMPDEST SWAP1 PUSH1 0x5 DUP3 LT ISZERO PUSH2 0xF55 JUMPI MSTORE JUMP JUMPDEST PUSH4 0x4E487B71 PUSH1 0xE0 SHL PUSH1 0x0 MSTORE PUSH1 0x21 PUSH1 0x4 MSTORE PUSH1 0x24 PUSH1 0x0 REVERT JUMPDEST PUSH1 0x4 CALLDATALOAD SWAP1 PUSH1 0x1 PUSH1 0x1 PUSH1 0xA0 SHL SUB DUP3 AND DUP3 SUB PUSH2 0xF81 JUMPI JUMP JUMPDEST PUSH1 0x0 DUP1 REVERT JUMPDEST PUSH1 0x20 SWAP1 DUP2 PUSH1 0x40 DUP2 DUP4 ADD SWAP3 DUP3 DUP2 MSTORE DUP6 MLOAD DUP1 SWAP5 MSTORE ADD SWAP4 ADD SWAP2 PUSH1 0x0 JUMPDEST DUP3 DUP2 LT PUSH2 0xFAD JUMPI POP POP POP POP SWAP1 JUMP JUMPDEST DUP4 MLOAD DUP6 MSTORE SWAP4 DUP2 ADD SWAP4 SWAP3 DUP2 ADD SWAP3 PUSH1 0x1 ADD PUSH2 0xF9F JUMP JUMPDEST DUP1 SLOAD DUP3 LT ISZERO PUSH2 0xFD9 JUMPI PUSH1 0x0 MSTORE PUSH1 0x20 PUSH1 0x0 KECCAK256 ADD SWAP1 PUSH1 0x0 SWAP1 JUMP JUMPDEST PUSH4 0x4E487B71 PUSH1 0xE0 SHL PUSH1 0x0 MSTORE PUSH1 0x32 PUSH1 0x4 MSTORE PUSH1 0x24 PUSH1 0x0 REVERT JUMPDEST PUSH1 0x1 SLOAD PUSH1 0x8 SHR PUSH1 0x1 PUSH1 0x1 PUSH1 0xA0 SHL SUB AND CALLER SUB PUSH2 0x1006 JUMPI JUMP JUMPDEST PUSH1 0x40 MLOAD PUSH4 0x118CDAA7 PUSH1 0xE0 SHL DUP2 MSTORE CALLER PUSH1 0x4 DUP3 ADD MSTORE PUSH1 0x24 SWAP1 REVERT JUMPDEST PUSH1 0xE0 DUP2 ADD SWAP1 DUP2 LT PUSH8 0xFFFFFFFFFFFFFFFF DUP3 GT OR PUSH2 0x103A JUMPI PUSH1 0x40 MSTORE JUMP JUMPDEST PUSH4 0x4E487B71 PUSH1 0xE0 SHL PUSH1 0x0 MSTORE PUSH1 0x41 PUSH1 0x4 MSTORE PUSH1 0x24 PUSH1 0x0 REVERT JUMPDEST SWAP1 PUSH1 0x1F DUP1 NOT SWAP2 ADD AND DUP2 ADD SWAP1 DUP2 LT PUSH8 0xFFFFFFFFFFFFFFFF DUP3 GT OR PUSH2 0x103A JUMPI PUSH1 0x40 MSTORE JUMP JUMPDEST DUP1 SLOAD PUSH9 0x10000000000000000 DUP2 LT ISZERO PUSH2 0x103A JUMPI PUSH2 0x1094 SWAP2 PUSH1 0x1 DUP3 ADD DUP2 SSTORE PUSH2 0xFC1 JUMP JUMPDEST DUP2 SWAP3 SWAP2 SLOAD SWAP1 PUSH1 0x3 SHL SWAP2 DUP3 SHL SWAP2 PUSH1 0x0 NOT SWAP1 SHL NOT AND OR SWAP1 SSTORE JUMP JUMPDEST SWAP1 PUSH1 0x0 PUSH1 0x20 SWAP2 DUP3 DUP2 MLOAD SWAP2 ADD DUP3 DUP6 GAS CALL ISZERO PUSH2 0x1108 JUMPI PUSH1 0x0 MLOAD RETURNDATASIZE PUSH2 0x10FF JUMPI POP PUSH1 0x1 PUSH1 0x1 PUSH1 0xA0 SHL SUB DUP2 AND EXTCODESIZE ISZERO JUMPDEST PUSH2 0x10DD JUMPI POP JUMP JUMPDEST PUSH1 0x40 MLOAD PUSH4 0x5274AFE7 PUSH1 0xE0 SHL DUP2 MSTORE PUSH1 0x1 PUSH1 0x1 PUSH1 0xA0 SHL SUB SWAP1 SWAP2 AND PUSH1 0x4 DUP3 ADD MSTORE PUSH1 0x24 SWAP1 REVERT JUMPDEST PUSH1 0x1 EQ ISZERO PUSH2 0x10D6 JUMP JUMPDEST PUSH1 0x40 MLOAD RETURNDATASIZE PUSH1 0x0 DUP3 RETURNDATACOPY RETURNDATASIZE SWAP1 REVERT JUMPDEST PUSH1 0xFF PUSH1 0x1 SLOAD AND PUSH2 0x1120 JUMPI JUMP JUMPDEST PUSH1 0x40 MLOAD PUSH4 0xD93C0665 PUSH1 0xE0 SHL DUP2 MSTORE PUSH1 0x4 SWAP1 REVERT JUMPDEST PUSH1 0x2 PUSH1 0x0 SLOAD EQ PUSH2 0x1143 JUMPI PUSH1 0x2 PUSH1 0x0 SSTORE JUMP JUMPDEST PUSH1 0x40 MLOAD PUSH4 0x3EE5AEB5 PUSH1 0xE0 SHL DUP2 MSTORE PUSH1 0x4 SWAP1 REVERT JUMPDEST ISZERO PUSH2 0x115C JUMPI JUMP JUMPDEST PUSH1 0x40 MLOAD PUSH3 0x461BCD PUSH1 0xE5 SHL DUP2 MSTORE PUSH1 0x20 PUSH1 0x4 DUP3 ADD MSTORE PUSH1 0x17 PUSH1 0x24 DUP3 ADD MSTORE PUSH32 0x4E6F742073657373696F6E207061727469636970616E74000000000000000000 PUSH1 0x44 DUP3 ADD MSTORE PUSH1 0x64 SWAP1 REVERT JUMPDEST ISZERO PUSH2 0x11A8 JUMPI JUMP JUMPDEST PUSH1 0x40 MLOAD PUSH3 0x461BCD PUSH1 0xE5 SHL DUP2 MSTORE PUSH1 0x20 PUSH1 0x4 DUP3 ADD MSTORE PUSH1 0x16 PUSH1 0x24 DUP3 ADD MSTORE PUSH22 0x496E76616C69642073657373696F6E20737461747573 PUSH1 0x50 SHL PUSH1 0x44 DUP3 ADD MSTORE PUSH1 0x64 SWAP1 REVERT JUMPDEST PUSH1 0x40 MLOAD PUSH4 0xA9059CBB PUSH1 0xE0 SHL PUSH1 0x20 DUP3 ADD MSTORE PUSH1 0x1 PUSH1 0x1 PUSH1 0xA0 SHL SUB SWAP1 SWAP3 AND PUSH1 0x24 DUP4 ADD MSTORE PUSH1 0x44 DUP1 DUP4 ADD SWAP4 SWAP1 SWAP4 MSTORE SWAP2 DUP2 MSTORE PUSH1 0x80 DUP2 ADD SWAP2 PUSH8 0xFFFFFFFFFFFFFFFF DUP4 GT DUP3 DUP5 LT OR PUSH2 0x103A JUMPI PUSH2 0x1236 SWAP3 PUSH1 0x40 MSTORE PUSH2 0x10AC JUMP JUMPDEST JUMP INVALID LOG1 PUSH5 0x736F6C6343 STOP ADDMOD EQ STOP EXP LOG1 PUSH5 0x736F6C6343 STOP ADDMOD EQ STOP EXP "},"gasEstimates":{"creation":{"codeDepositCost":"1435800","executionCost":"27313","totalCost":"1463113"},"external":{"deployMentorship(address)":"infinite","deployedContracts(uint256)":"6782","emergencyPause(address)":"infinite","emergencyUnpause(address)":"infinite","getDeployedContracts()":"infinite","getDeployedContractsCount()":"2314","getLatestContract()":"6869","isValidContract(address)":"2458","owner()":"2445","renounceOwnership()":"28173","setupMentorship(address,address[])":"infinite","transferOwnership(address)":"28391"}},"methodIdentifiers":{"deployMentorship(address)":"0b972e53","deployedContracts(uint256)":"9ad1ee10","emergencyPause(address)":"7041b48a","emergencyUnpause(address)":"6fd368b0","getDeployedContracts()":"aa9a068f","getDeployedContractsCount()":"5fc7f334","getLatestContract()":"ff5446f0","isValidContract(address)":"0eaad489","owner()":"8da5cb5b","renounceOwnership()":"715018a6","setupMentorship(address,address[])":"8b8033df","transferOwnership(address)":"f2fde38b"}},"storageLayout":{"storage":[{"astId":8,"contract":"contracts/MentorshipFactory.sol:MentorshipFactory","label":"_owner","offset":0,"slot":"0","type":"t_address"},{"astId":2281,"contract":"contracts/MentorshipFactory.sol:MentorshipFactory","label":"deployedContracts","offset":0,"slot":"1","type":"t_array(t_address)dyn_storage"},{"astId":2285,"contract":"contracts/MentorshipFactory.sol:MentorshipFactory","label":"isValidContract","offset":0,"slot":"2","type":"t_mapping(t_address,t_bool)"}],"types":{"t_address":{"encoding":"inplace","label":"address","numberOfBytes":"20"},"t_array(t_address)dyn_storage":{"base":"t_address","encoding":"dynamic_array","label":"address[]","numberOfBytes":"32"},"t_bool":{"encoding":"inplace","label":"bool","numberOfBytes":"1"},"t_mapping(t_address,t_bool)":{"encoding":"mapping","key":"t_address","label":"mapping(address => bool)","numberOfBytes":"32","value":"t_bool"}}},"userdoc":{"kind":"user","methods":{},"version":1}}}}