{"contracts/ProgressiveEscrowV4.sol":{"ProgressiveEscrowV4":{"abi":[{"inputs":[{"internalType":"address","name":"_platformWallet","type":"address"}],"stateMutability":"nonpayable","type":"constructor"},{"inputs":[],"name":"EnforcedPause","type":"error"},{"inputs":[],"name":"ExpectedPause","type":"error"},{"inputs":[{"internalType":"address","name":"owner","type":"address"}],"name":"OwnableInvalidOwner","type":"error"},{"inputs":[{"internalType":"address","name":"account","type":"address"}],"name":"OwnableUnauthorizedAccount","type":"error"},{"inputs":[],"name":"ReentrancyGuardReentrantCall","type":"error"},{"inputs":[{"internalType":"address","name":"token","type":"address"}],"name":"SafeERC20FailedOperation","type":"error"},{"anonymous":false,"inputs":[{"indexed":true,"internalType":"bytes32","name":"sessionId","type":"bytes32"},{"indexed":false,"internalType":"uint256","name":"amount","type":"uint256"},{"indexed":false,"internalType":"string","name":"reason","type":"string"}],"name":"EmergencyRelease","type":"event"},{"anonymous":false,"inputs":[{"indexed":true,"internalType":"bytes32","name":"sessionId","type":"bytes32"},{"indexed":false,"internalType":"uint256","name":"timestamp","type":"uint256"}],"name":"HeartbeatReceived","type":"event"},{"anonymous":false,"inputs":[{"indexed":true,"internalType":"address","name":"previousOwner","type":"address"},{"indexed":true,"internalType":"address","name":"newOwner","type":"address"}],"name":"OwnershipTransferred","type":"event"},{"anonymous":false,"inputs":[{"indexed":false,"internalType":"address","name":"account","type":"address"}],"name":"Paused","type":"event"},{"anonymous":false,"inputs":[{"indexed":true,"internalType":"bytes32","name":"sessionId","type":"bytes32"},{"indexed":false,"internalType":"uint256","name":"releasedAmount","type":"uint256"},{"indexed":false,"internalType":"uint256","name":"totalReleased","type":"uint256"},{"indexed":false,"internalType":"uint256","name":"timestamp","type":"uint256"}],"name":"ProgressivePaymentReleased","type":"event"},{"anonymous":false,"inputs":[{"indexed":true,"internalType":"bytes32","name":"sessionId","type":"bytes32"},{"indexed":false,"internalType":"uint256","name":"refundAmount","type":"uint256"},{"indexed":false,"internalType":"uint256","name":"timestamp","type":"uint256"}],"name":"SessionCancelled","type":"event"},{"anonymous":false,"inputs":[{"indexed":true,"internalType":"bytes32","name":"sessionId","type":"bytes32"},{"indexed":false,"internalType":"uint256","name":"finalAmount","type":"uint256"},{"indexed":false,"internalType":"uint256","name":"platformFee","type":"uint256"},{"indexed":false,"internalType":"uint256","name":"timestamp","type":"uint256"}],"name":"SessionCompleted","type":"event"},{"anonymous":false,"inputs":[{"indexed":true,"internalType":"bytes32","name":"sessionId","type":"bytes32"},{"indexed":true,"internalType":"address","name":"student","type":"address"},{"indexed":true,"internalType":"address","name":"mentor","type":"address"},{"indexed":false,"internalType":"uint256","name":"amount","type":"uint256"},{"indexed":false,"internalType":"address","name":"token","type":"address"}],"name":"SessionCreated","type":"event"},{"anonymous":false,"inputs":[{"indexed":true,"internalType":"bytes32","name":"sessionId","type":"bytes32"},{"indexed":false,"internalType":"uint256","name":"timestamp","type":"uint256"},{"indexed":false,"internalType":"string","name":"reason","type":"string"}],"name":"SessionPaused","type":"event"},{"anonymous":false,"inputs":[{"indexed":true,"internalType":"bytes32","name":"sessionId","type":"bytes32"},{"indexed":false,"internalType":"uint256","name":"timestamp","type":"uint256"}],"name":"SessionResumed","type":"event"},{"anonymous":false,"inputs":[{"indexed":true,"internalType":"bytes32","name":"sessionId","type":"bytes32"},{"indexed":false,"internalType":"uint256","name":"timestamp","type":"uint256"}],"name":"SessionStarted","type":"event"},{"anonymous":false,"inputs":[{"indexed":false,"internalType":"address","name":"account","type":"address"}],"name":"Unpaused","type":"event"},{"stateMutability":"payable","type":"fallback"},{"inputs":[],"name":"AUTO_RELEASE_DELAY","outputs":[{"internalType":"uint256","name":"","type":"uint256"}],"stateMutability":"view","type":"function"},{"inputs":[],"name":"ETH_TOKEN","outputs":[{"internalType":"address","name":"","type":"address"}],"stateMutability":"view","type":"function"},{"inputs":[],"name":"GRACE_PERIOD","outputs":[{"internalType":"uint256","name":"","type":"uint256"}],"stateMutability":"view","type":"function"},{"inputs":[],"name":"HEARTBEAT_INTERVAL","outputs":[{"internalType":"uint256","name":"","type":"uint256"}],"stateMutability":"view","type":"function"},{"inputs":[],"name":"PLATFORM_FEE_PERCENT","outputs":[{"internalType":"uint256","name":"","type":"uint256"}],"stateMutability":"view","type":"function"},{"inputs":[],"name":"PROGRESSIVE_RELEASE_INTERVAL","outputs":[{"internalType":"uint256","name":"","type":"uint256"}],"stateMutability":"view","type":"function"},{"inputs":[{"internalType":"address","name":"token","type":"address"}],"name":"addSupportedToken","outputs":[],"stateMutability":"nonpayable","type":"function"},{"inputs":[{"internalType":"bytes32","name":"sessionId","type":"bytes32"}],"name":"autoCompleteSession","outputs":[],"stateMutability":"nonpayable","type":"function"},{"inputs":[{"internalType":"uint256","name":"totalAmount","type":"uint256"},{"internalType":"uint256","name":"elapsedMinutes","type":"uint256"},{"internalType":"uint256","name":"durationMinutes","type":"uint256"}],"name":"calculateMaxRelease","outputs":[{"internalType":"uint256","name":"","type":"uint256"}],"stateMutability":"pure","type":"function"},{"inputs":[{"internalType":"bytes32","name":"sessionId","type":"bytes32"}],"name":"cancelSession","outputs":[],"stateMutability":"nonpayable","type":"function"},{"inputs":[{"internalType":"bytes32","name":"sessionId","type":"bytes32"},{"internalType":"uint256","name":"rating","type":"uint256"},{"internalType":"string","name":"feedback","type":"string"}],"name":"completeSession","outputs":[],"stateMutability":"nonpayable","type":"function"},{"inputs":[{"internalType":"bytes32","name":"sessionId","type":"bytes32"},{"internalType":"address","name":"mentor","type":"address"},{"internalType":"address","name":"paymentToken","type":"address"},{"internalType":"uint256","name":"amount","type":"uint256"},{"internalType":"uint256","name":"durationMinutes","type":"uint256"},{"internalType":"uint256","name":"nonce","type":"uint256"}],"name":"createProgressiveSession","outputs":[],"stateMutability":"payable","type":"function"},{"inputs":[{"internalType":"bytes32","name":"sessionId","type":"bytes32"},{"internalType":"address","name":"recipient","type":"address"},{"internalType":"uint256","name":"amount","type":"uint256"},{"internalType":"string","name":"reason","type":"string"}],"name":"emergencyRelease","outputs":[],"stateMutability":"nonpayable","type":"function"},{"inputs":[{"internalType":"address payable","name":"to","type":"address"},{"internalType":"uint256","name":"amount","type":"uint256"}],"name":"emergencyWithdrawETH","outputs":[],"stateMutability":"nonpayable","type":"function"},{"inputs":[{"internalType":"address","name":"token","type":"address"},{"internalType":"address","name":"to","type":"address"},{"internalType":"uint256","name":"amount","type":"uint256"}],"name":"emergencyWithdrawToken","outputs":[],"stateMutability":"nonpayable","type":"function"},{"inputs":[{"internalType":"bytes32","name":"sessionId","type":"bytes32"}],"name":"getAvailablePayment","outputs":[{"internalType":"uint256","name":"","type":"uint256"}],"stateMutability":"view","type":"function"},{"inputs":[{"internalType":"bytes32","name":"sessionId","type":"bytes32"}],"name":"getEffectiveElapsedTime","outputs":[{"internalType":"uint256","name":"","type":"uint256"}],"stateMutability":"view","type":"function"},{"inputs":[{"internalType":"bytes32","name":"sessionId","type":"bytes32"}],"name":"getSession","outputs":[{"components":[{"internalType":"bytes32","name":"sessionId","type":"bytes32"},{"internalType":"address","name":"student","type":"address"},{"internalType":"address","name":"mentor","type":"address"},{"internalType":"address","name":"paymentToken","type":"address"},{"internalType":"uint256","name":"totalAmount","type":"uint256"},{"internalType":"uint256","name":"releasedAmount","type":"uint256"},{"internalType":"uint256","name":"sessionDuration","type":"uint256"},{"internalType":"uint256","name":"startTime","type":"uint256"},{"internalType":"uint256","name":"lastHeartbeat","type":"uint256"},{"internalType":"uint256","name":"pausedTime","type":"uint256"},{"internalType":"uint256","name":"createdAt","type":"uint256"},{"internalType":"enum ProgressiveEscrowV4.SessionStatus","name":"status","type":"uint8"},{"internalType":"bool","name":"isActive","type":"bool"},{"internalType":"bool","name":"isPaused","type":"bool"},{"internalType":"bool","name":"surveyCompleted","type":"bool"}],"internalType":"struct ProgressiveEscrowV4.ProgressiveSession","name":"","type":"tuple"}],"stateMutability":"view","type":"function"},{"inputs":[{"internalType":"address","name":"user","type":"address"}],"name":"getUserNonce","outputs":[{"internalType":"uint256","name":"","type":"uint256"}],"stateMutability":"view","type":"function"},{"inputs":[{"internalType":"address","name":"token","type":"address"}],"name":"isTokenSupported","outputs":[{"internalType":"bool","name":"","type":"bool"}],"stateMutability":"view","type":"function"},{"inputs":[{"internalType":"bytes32","name":"sessionId","type":"bytes32"}],"name":"needsHeartbeat","outputs":[{"internalType":"bool","name":"","type":"bool"}],"stateMutability":"view","type":"function"},{"inputs":[],"name":"owner","outputs":[{"internalType":"address","name":"","type":"address"}],"stateMutability":"view","type":"function"},{"inputs":[],"name":"pause","outputs":[],"stateMutability":"nonpayable","type":"function"},{"inputs":[{"internalType":"bytes32","name":"sessionId","type":"bytes32"}],"name":"pauseSession","outputs":[],"stateMutability":"nonpayable","type":"function"},{"inputs":[],"name":"paused","outputs":[{"internalType":"bool","name":"","type":"bool"}],"stateMutability":"view","type":"function"},{"inputs":[],"name":"platformWallet","outputs":[{"internalType":"address","name":"","type":"address"}],"stateMutability":"view","type":"function"},{"inputs":[{"internalType":"bytes32","name":"sessionId","type":"bytes32"}],"name":"releaseProgressivePayment","outputs":[],"stateMutability":"nonpayable","type":"function"},{"inputs":[{"internalType":"address","name":"token","type":"address"}],"name":"removeSupportedToken","outputs":[],"stateMutability":"nonpayable","type":"function"},{"inputs":[],"name":"renounceOwnership","outputs":[],"stateMutability":"nonpayable","type":"function"},{"inputs":[{"internalType":"bytes32","name":"sessionId","type":"bytes32"}],"name":"resumeSession","outputs":[],"stateMutability":"nonpayable","type":"function"},{"inputs":[{"internalType":"bytes32","name":"","type":"bytes32"}],"name":"sessions","outputs":[{"internalType":"bytes32","name":"sessionId","type":"bytes32"},{"internalType":"address","name":"student","type":"address"},{"internalType":"address","name":"mentor","type":"address"},{"internalType":"address","name":"paymentToken","type":"address"},{"internalType":"uint256","name":"totalAmount","type":"uint256"},{"internalType":"uint256","name":"releasedAmount","type":"uint256"},{"internalType":"uint256","name":"sessionDuration","type":"uint256"},{"internalType":"uint256","name":"startTime","type":"uint256"},{"internalType":"uint256","name":"lastHeartbeat","type":"uint256"},{"internalType":"uint256","name":"pausedTime","type":"uint256"},{"internalType":"uint256","name":"createdAt","type":"uint256"},{"internalType":"enum ProgressiveEscrowV4.SessionStatus","name":"status","type":"uint8"},{"internalType":"bool","name":"isActive","type":"bool"},{"internalType":"bool","name":"isPaused","type":"bool"},{"internalType":"bool","name":"surveyCompleted","type":"bool"}],"stateMutability":"view","type":"function"},{"inputs":[{"internalType":"bytes32","name":"sessionId","type":"bytes32"}],"name":"shouldAutoPause","outputs":[{"internalType":"bool","name":"","type":"bool"}],"stateMutability":"view","type":"function"},{"inputs":[{"internalType":"bytes32","name":"sessionId","type":"bytes32"}],"name":"startProgressiveSession","outputs":[],"stateMutability":"nonpayable","type":"function"},{"inputs":[{"internalType":"address","name":"","type":"address"}],"name":"supportedTokens","outputs":[{"internalType":"bool","name":"","type":"bool"}],"stateMutability":"view","type":"function"},{"inputs":[{"internalType":"address","name":"newOwner","type":"address"}],"name":"transferOwnership","outputs":[],"stateMutability":"nonpayable","type":"function"},{"inputs":[],"name":"unpause","outputs":[],"stateMutability":"nonpayable","type":"function"},{"inputs":[{"internalType":"bytes32","name":"sessionId","type":"bytes32"}],"name":"updateHeartbeat","outputs":[],"stateMutability":"nonpayable","type":"function"},{"inputs":[{"internalType":"address","name":"newWallet","type":"address"}],"name":"updatePlatformWallet","outputs":[],"stateMutability":"nonpayable","type":"function"},{"inputs":[{"internalType":"bytes32","name":"","type":"bytes32"}],"name":"usedSessionIds","outputs":[{"internalType":"bool","name":"","type":"bool"}],"stateMutability":"view","type":"function"},{"inputs":[{"internalType":"address","name":"","type":"address"}],"name":"userNonces","outputs":[{"internalType":"uint256","name":"","type":"uint256"}],"stateMutability":"view","type":"function"},{"stateMutability":"payable","type":"receive"}],"devdoc":{"details":"Revolutionary progressive payment system for mentorship sessions with native ETH support  Payment Flow: - Continuous release proportional to time elapsed (e.g., $100/hour = $5 every 3 minutes) - Uses blockchain timestamp (block.timestamp) as source of truth - Heartbeat system ensures session is active - Auto-pause payment if WebRTC connection drops - Grace period of 2 minutes for reconnection before pausing - Supports both ERC20 tokens (USDT/USDC) and native ETH payments","errors":{"EnforcedPause()":[{"details":"The operation failed because the contract is paused."}],"ExpectedPause()":[{"details":"The operation failed because the contract is not paused."}],"OwnableInvalidOwner(address)":[{"details":"The owner is not a valid owner account. (eg. `address(0)`)"}],"OwnableUnauthorizedAccount(address)":[{"details":"The caller account is not authorized to perform an operation."}],"ReentrancyGuardReentrantCall()":[{"details":"Unauthorized reentrant call."}],"SafeERC20FailedOperation(address)":[{"details":"An operation with an ERC-20 token failed."}]},"events":{"Paused(address)":{"details":"Emitted when the pause is triggered by `account`."},"Unpaused(address)":{"details":"Emitted when the pause is lifted by `account`."}},"kind":"dev","methods":{"addSupportedToken(address)":{"details":"Add supported payment token (USDC/USDT) or enable ETH"},"autoCompleteSession(bytes32)":{"details":"Auto-complete session after 7 days timeout"},"calculateMaxRelease(uint256,uint256,uint256)":{"details":"Calculate maximum release amount based on time elapsed"},"cancelSession(bytes32)":{"details":"Cancel session before it starts - full refund to student"},"completeSession(bytes32,uint256,string)":{"details":"Complete session with final payment and platform fee"},"createProgressiveSession(bytes32,address,address,uint256,uint256,uint256)":{"details":"Create new progressive mentorship session with escrowed payment","params":{"nonce":"User nonce for replay protection"}},"emergencyRelease(bytes32,address,uint256,string)":{"details":"Emergency release function (owner only)"},"emergencyWithdrawETH(address,uint256)":{"details":"Emergency withdrawal of stuck ETH (owner only)"},"emergencyWithdrawToken(address,address,uint256)":{"details":"Emergency withdrawal of stuck ERC20 tokens (owner only)"},"getAvailablePayment(bytes32)":{"details":"Get available payment amount for release"},"getEffectiveElapsedTime(bytes32)":{"details":"Get effective elapsed time (excluding paused periods)"},"getSession(bytes32)":{"details":"Get session details"},"getUserNonce(address)":{"details":"Get current nonce for user (for frontend to use)"},"isTokenSupported(address)":{"details":"Check if token is supported"},"needsHeartbeat(bytes32)":{"details":"Check if session needs heartbeat (for auto-pause)"},"owner()":{"details":"Returns the address of the current owner."},"pause()":{"details":"Pause contract (owner only)"},"pauseSession(bytes32)":{"details":"Pause session (internal or external call)"},"paused()":{"details":"Returns true if the contract is paused, and false otherwise."},"releaseProgressivePayment(bytes32)":{"details":"Release progressive payment based on time elapsed Called every 3 minutes during active session"},"removeSupportedToken(address)":{"details":"Remove supported payment token"},"renounceOwnership()":{"details":"Leaves the contract without owner. It will not be possible to call `onlyOwner` functions. Can only be called by the current owner. NOTE: Renouncing ownership will leave the contract without an owner, thereby disabling any functionality that is only available to the owner."},"resumeSession(bytes32)":{"details":"Resume session"},"shouldAutoPause(bytes32)":{"details":"Check if session should be auto-paused"},"startProgressiveSession(bytes32)":{"details":"Start progressive session Called when WebRTC connection is established"},"transferOwnership(address)":{"details":"Transfers ownership of the contract to a new account (`newOwner`). Can only be called by the current owner."},"unpause()":{"details":"Unpause contract (owner only)"},"updateHeartbeat(bytes32)":{"details":"Update heartbeat to keep session active Called every 30 seconds by frontend"},"updatePlatformWallet(address)":{"details":"Update platform wallet (owner only)"}},"title":"ProgressiveEscrowV4","version":1},"evm":{"bytecode":{"linkReferences":{},"object":"6080346200015757601f62002e3638819003918201601f19168301916001600160401b038311848410176200015c578084926020946040528339810103126200015757516001600160a01b03908181169081900362000157576000906001825533156200013e5760018054610100600160a81b0319811633600881811b610100600160a81b0316929092179093556040519591901c167f8be0079c531659141344cd1fd0a4f28419497f9722a3daafe3b4186f6b6457e08480a38015620000fc57600480546001600160a01b0319169190911790558080526003602052604090819020805460ff1916600117905551612cc3915081620001738239f35b62461bcd60e51b835260206004840152601760248401527f496e76616c696420706c6174666f726d2077616c6c65740000000000000000006044840152606483fd5b604051631e4fbdf760e01b815260048101839052602490fd5b600080fd5b634e487b7160e01b600052604160045260246000fdfe60806040526004361015610050575b361561004e5760405162461bcd60e51b8152602060048201526012602482015271119d5b98dd1a5bdb881b9bdd08199bdd5b9960721b6044820152606490fd5b005b60003560e01c806302ceb4061461202957806309499aa61461200b5780631ac6af0314611fe75780631c8b14a014611fb6578063277327a514611f2d5780632b8a5f3b14611d9e5780632f7801f41461161657806334d1c8fe14611d82578063363ec29814611d6657806339b240bd14611b4b5780633a17ba64146118b05780633f4ba83a146118465780634d213982146116c9578063560d52d4146116ad57806358bc833714611691578063590a2cc1146116735780635c975abb146116505780636834e3a81461161657806368c4ac26146115095780636baae9cc146115ee5780636d69fcaf146115a9578063715018a61461154857806375151b631461150957806376319190146114c757806379d55e77146113655780637ac1b469146111305780637dbd2832146110475780638456cb5914610fee5780638da5cb5b14610fc1578063962db93b14610fa357806399173d6b14610e36578063ada4ef3014610dab578063b817be4c14610c40578063c1a287e214610c24578063ccb868dd14610932578063d79e856714610899578063e906826c14610873578063f2fde38b146107da578063f400272b1461023b5763fa2af9da0361000e5734610236576000366003190112610236576004546040516001600160a01b039091168152602090f35b600080fd5b60c03660031901126102365761024f6122ca565b60449081356001600160a01b038116908190036102365760649182359260843591610278612461565b610280612443565b6001600160a01b03169485156107a0573386146107665783600052600360205260ff6040600020541615610725576102b985151561234a565b82156106e4576004356000908152600260205260409020600101546001600160a01b03166106aa5733600052600560205260406000205460a4350361067957600435600052600660205260ff604060002054166106385733600052600560205260406000208054600019811461062257600101905560043560005260066020526040600020600160ff19825416179055831560001461056a578434036105335750505b6040519061036982612396565b6004358252336020830152846040830152826060830152836080830152600060a083015260c0820152600060e082015260006101008201526000610120820152426101408201526000610160820152600061018082015260006101a082015260006101c08201526004356000526002602052600b6040600020825181556001810160018060a01b03602085015116906bffffffffffffffffffffffff60a01b91828254161790556002820160018060a01b0360408601511682825416179055600382019060018060a01b03606086015116908254161790556080830151600482015560a0830151600582015560c0830151600682015560e0830151600782015561010083015160088201556101208301516009820155610140830151600a820155019061016081015190600582101561051d57825461ff00610180830151151560081b169060ff63ff0000006101c062ff00006101a0870151151560101b16950151151560181b1694169063ffffffff1916171717179055604051918252602082015233907fa5d7a3cf3954591f1af3cd96f79210169bbaf7e3b3a3e60de11886bc773649e0604060043592a46001600055005b634e487b7160e01b600052602160045260246000fd5b7208aa89040c2dadeeadce840dad2e6dac2e8c6d606b1b6040519162461bcd60e51b83526020600484015260136024840152820152fd5b90346105d357604051916323b872dd60e01b602084015233602484015230908301528481830152815260a081019080821067ffffffffffffffff8311176105bd576105b891604052836123db565b61035c565b634e487b7160e01b600052604160045260246000fd5b90626e747360e81b6084927f455448206e6f7420616363657074656420666f72204552433230207061796d656040519362461bcd60e51b85526020600486015260236024860152840152820152fd5b634e487b7160e01b600052601160045260246000fd5b7f53657373696f6e20494420616c726561647920757365640000000000000000006040519162461bcd60e51b83526020600484015260176024840152820152fd5b6c496e76616c6964206e6f6e636560981b6040519162461bcd60e51b835260206004840152600d6024840152820152fd5b7553657373696f6e20616c72656164792065786973747360501b6040519162461bcd60e51b83526020600484015260166024840152820152fd5b7f4475726174696f6e206d7573742062652067726561746572207468616e2030006040519162461bcd60e51b835260206004840152601f6024840152820152fd5b7f556e737570706f72746564207061796d656e7420746f6b656e000000000000006040519162461bcd60e51b83526020600484015260196024840152820152fd5b7521b0b73737ba1036b2b73a37b9103cb7bab939b2b63360511b6040519162461bcd60e51b83526020600484015260166024840152820152fd5b75496e76616c6964206d656e746f72206164647265737360501b6040519162461bcd60e51b83526020600484015260166024840152820152fd5b34610236576020366003190112610236576107f36122b4565b6107fb61231b565b6001600160a01b0381811691821561085a5760018054610100600160a81b03198116600893841b610100600160a81b031617909155901c167f8be0079c531659141344cd1fd0a4f28419497f9722a3daafe3b4186f6b6457e0600080a3005b604051631e4fbdf760e01b815260006004820152602490fd5b34610236576020366003190112610236576020610891600435612b0e565b604051908152f35b34610236576040366003190112610236576004356001600160a01b03811690819003610236576024356108ca61231b565b6108d5821515612c78565b4781116108f65760008080809361004e955af16108f0612564565b506125af565b60405162461bcd60e51b8152602060048201526014602482015273496e73756666696369656e742062616c616e636560601b6044820152606490fd5b34610236576020806003193601126102365760043561094f612461565b60008181526002835260409020600181015490926001600160a01b03918216610979811515612484565b600b85015460ff8116600581101561051d57600161099791146124c9565b60ff8160081c169081610c15575b5015610bda57600785015415610b955733148015610b86575b15610b2c576109cc836126ff565b916109e260048601549360068701549085612689565b600586019283549182811115610ae957826109fc9161250a565b94605a810290808204605a1490151715610622576064900480610a1f8785612517565b11610ad5575b508415610a9957507ff2446e1f418253f1b6b8f9b8ebf603fd78b61d59024e68b0d687d1ecc22b8a409495610a7492610a5f868094612517565b855560028160038401541692015416906125f1565b54604080519283526020830191909152429082015280606081015b0390a26001600055005b6064906040519062461bcd60e51b8252600482015260156024820152744e6f207061796d656e7420746f2072656c6561736560581b6044820152fd5b610ae2919550829061250a565b9387610a25565b6064826040519062461bcd60e51b825280600483015260248201527f4e6f207061796d656e7420617661696c61626c6520666f722072656c656173656044820152fd5b6084906040519062461bcd60e51b82526004820152602d60248201527f4f6e6c792073657373696f6e207061727469636970616e74732063616e20726560448201526c1b19585cd9481c185e5b595b9d609a1b6064820152fd5b508160028501541633146109be565b60405162461bcd60e51b815260048101839052601a60248201527f53657373696f6e2073746172742074696d65206e6f74207365740000000000006044820152606490fd5b60405162461bcd60e51b815260048101839052601360248201527253657373696f6e206e6f742072756e6e696e6760681b6044820152606490fd5b60ff915060101c1615866109a5565b3461023657600036600319011261023657602060405160788152f35b3461023657602036600319011261023657600435610c5c612461565b600081815260026020526040902060018101546001600160a01b0391908216610c86811515612484565b600b82019283549160ff8316600581101561051d57610d5a573314908115610d4a575b5015610cf9576101019142600782015560084291015562ffffff19161790557fd010adb8a640e9a6a134ce407a4e27deb32fab5b64ea5847c55101907d9c25786020604051428152a26001600055005b60405162461bcd60e51b815260206004820152602360248201527f4f6e6c792073657373696f6e207061727469636970616e74732063616e207374604482015262185c9d60ea1b6064820152608490fd5b9050600283015416331485610ca9565b60405162461bcd60e51b8152602060048201526024808201527f53657373696f6e20616c72656164792073746172746564206f7220636f6d706c604482015263195d195960e21b6064820152608490fd5b3461023657602036600319011261023657610dc46122b4565b610dcc61231b565b6001600160a01b03168015610df8576bffffffffffffffffffffffff60a01b6004541617600455600080f35b60405162461bcd60e51b8152602060048201526016602482015275496e76616c69642077616c6c6574206164647265737360501b6044820152606490fd5b3461023657602036600319011261023657600435610e52612461565b600081815260026020526040902060018101546001600160a01b03908116610e7b811515612484565b600b83019182549160ff8316600581101561051d57600203610f69573314908115610f59575b5015610f08576001906008840193610ec96009610ebf87544261250a565b9201918254612517565b905562ff00ff19161790554290557f3dd443712f1bb154053901f56ef4a45320caeee475fc1b8f448abb8a5abd7ec16020604051428152a26001600055005b60405162461bcd60e51b8152602060048201526024808201527f4f6e6c792073657373696f6e207061727469636970616e74732063616e20726560448201526373756d6560e01b6064820152608490fd5b9050600284015416331485610ea1565b60405162461bcd60e51b815260206004820152601260248201527114d95cdcda5bdb881b9bdd081c185d5cd95960721b6044820152606490fd5b346102365760203660031901126102365760206108916004356126ff565b346102365760003660031901126102365760015460405160089190911c6001600160a01b03168152602090f35b346102365760003660031901126102365761100761231b565b61100f612443565b600160ff19815416176001557f62e78cea01bee320cd4e420270b5ea74000d11b0c9f74754ebdbfc544b05a2586020604051338152a1005b346102365760203660031901126102365760043560005260026020526101e0604060002060ff81549160018060a01b03908160018201541691806002830154169060038301541660048301546005840154600685015490600786015492600887015494600988015496600b600a8a0154990154996040519c8d5260208d015260408c015260608b015260808a015260a089015260c088015260e087015261010086015261012085015261014084015261110661016084018383166122e0565b818160081c161515610180840152818160101c1615156101a084015260181c1615156101c0820152f35b34610236576020806003193601126102365760043561114d612461565b6000818152600283526040902060018101546001600160a01b039081169190611177831515612484565b600b82019182549360ff8516600581101561051d57600161119891146124c9565b60ff8560101c16611327573314918215611316575b50600801918254601e810190818111610622576096018091116106225742119382831561130f575b156112d55762ff00ff191662010002179055806112cd575b6112c4575b501561129a57604051611204816123b3565b60118152701219585c9d1899585d081d1a5b595bdd5d607a1b83820152915b6040519042825260408183015283519384604084015260005b85811061128657847fec452bb0b82c12deb4f139fa1dfc53d2e3606e8bf03ca6a3f007d0dd6fd53507856060818a6000838284010152601f80199101168101030190a26001600055005b81810183015184820160600152820161123c565b6040516112a6816123b3565b600c81526b4d616e75616c20706175736560a01b8382015291611223565b429055836111f2565b5081156111ed565b60405162461bcd60e51b8152600481018890526012602482015271556e617574686f72697a656420706175736560701b6044820152606490fd5b50846111d5565b6002820154163314915060086111ad565b60405162461bcd60e51b815260048101889052601660248201527514d95cdcda5bdb88185b1c9958591e481c185d5cd95960521b6044820152606490fd5b34610236576080366003190112610236576004356113816122ca565b60443560643567ffffffffffffffff8111610236576113a49036906004016122ed565b9290916113af61231b565b6113b7612461565b600085815260026020526040902060018101546001600160a01b039591906113e29087161515612484565b6113ef8685161515612524565b60048101549360058201906114068254809761250a565b8511611482577f482a5548da3675089cf6763340cbd789090e2187c64b37c814c5340111636c4797600361144c9487946114428660609b612517565b90550154166125f1565b80604051948593845260406020850152816040850152848401376000828201840152601f01601f19168101030190a26001600055005b60405162461bcd60e51b815260206004820152601860248201527f416d6f756e74206578636565647320617661696c61626c6500000000000000006044820152606490fd5b34610236576020366003190112610236576114e06122b4565b6114e861231b565b6001600160a01b03166000908152600360205260409020805460ff19169055005b34610236576020366003190112610236576001600160a01b0361152a6122b4565b166000526003602052602060ff604060002054166040519015158152f35b346102365760003660031901126102365761156161231b565b60018054610100600160a81b0319811690915560009060081c6001600160a01b03167f8be0079c531659141344cd1fd0a4f28419497f9722a3daafe3b4186f6b6457e08280a3005b34610236576020366003190112610236576115c26122b4565b6115ca61231b565b6001600160a01b03166000908152600360205260409020805460ff19166001179055005b3461023657602036600319011261023657602061160c6004356129b6565b6040519015158152f35b34610236576020366003190112610236576001600160a01b036116376122b4565b1660005260056020526020604060002054604051908152f35b3461023657600036600319011261023657602060ff600154166040519015158152f35b3461023657602036600319011261023657602061160c600435612880565b3461023657600036600319011261023657602060405160008152f35b34610236576000366003190112610236576020604051600a8152f35b34610236576020366003190112610236576004356116e5612461565b600081815260026020526040902060018101546001600160a01b039081169190611710831515612484565b600b82019182549060ff8216600581101561051d576118015784331480156117f2575b156117a1577f1d74c88fc8a136a8fb434db3561e44ecbc5b4577d1f1ea7e30d97250ead2cf2d94604094600461178e9460ff19161790556004820154936003600584019361178285548861250a565b968795550154166125f1565b8151908152426020820152a26001600055005b60405162461bcd60e51b8152602060048201526024808201527f4f6e6c792073657373696f6e207061727469636970616e74732063616e2063616044820152631b98d95b60e21b6064820152608490fd5b50826002820154163314611733565b60405162461bcd60e51b815260206004820152601760248201527f53657373696f6e20616c726561647920737461727465640000000000000000006044820152606490fd5b346102365760003660031901126102365761185f61231b565b60015460ff81161561189e5760ff19166001557f5db9ee0a495bf2e6ff9c91a7834c1ba4fdd244a5e8aa4e537bd38aeae4b073aa6020604051338152a1005b604051638dfc202b60e01b8152600490fd5b3461023657606036600319011261023657600435602480359060443567ffffffffffffffff8111610236576118e99036906004016122ed565b50506118f3612461565b82600052600260205260406000209060018060a01b03928360018401541661191c811515612484565b3303611afd57600b83019081549060ff82166005811015611ae85760018114908115611add575b5015611a995760018110159081611a8d575b5015611a495763010000039063ff00ffff1916179055600482015492600583019361198185548261250a565b92600a840290848204600a1485151715611a355750916119cc939160647f556195694fc082ad19415eaec58c1584ec20066f6e655be3034932c454d38a23979694049485809461250a565b955584611a18575b816119fb575b50506040805193845260208401929092525042908201528060608101610a8f565b806003611a10940154169060045416906125f1565b8481816119da565b611a30858260038601541683600287015416906125f1565b6119d4565b634e487b7160e01b60009081526011600452fd5b60405162461bcd60e51b815260206004820152601e818501527f526174696e67206d757374206265206265747765656e203120616e64203500006044820152606490fd5b60059150111587611955565b60405162461bcd60e51b8152602060048201819052818601527f53657373696f6e206e6f7420726561647920666f7220636f6d706c6574696f6e6044820152606490fd5b600291501488611943565b84634e487b7160e01b60005260216004526000fd5b60405162461bcd60e51b8152602060048201526021818401527f4f6e6c792073747564656e742063616e20636f6d706c6574652073657373696f6044820152603760f91b6064820152608490fd5b346102365760203660031901126102365760006101c0604051611b6d81612396565b8281528260208201528260408201528260608201528260808201528260a08201528260c08201528260e08201528261010082015282610120820152826101408201528261016082015282610180820152826101a0820152015260043560005260026020526101e0604060002060ff600b60405192611bea84612396565b8054845260018101546001600160a01b039081166020860152600282015481166040860152600382015416606085015260048101546080850152600581015460a0850152600681015460c0850152600781015460e085015260088101546101008501526009810154610120850152600a8101546101408501520154611c7582821661016085016123cf565b818160081c161515610180840152818160101c1615156101a084015260181c1615156101c08201526101c0604051918051835260018060a01b03602082015116602084015260018060a01b03604082015116604084015260018060a01b0360608201511660608401526080810151608084015260a081015160a084015260c081015160c084015260e081015160e0840152610100810151610100840152610120810151610120840152610140810151610140840152611d3e6101608201516101608501906122e0565b61018081015115156101808401526101a081015115156101a0840152015115156101c0820152f35b3461023657600036600319011261023657602060405160b48152f35b34610236576000366003190112610236576020604051601e8152f35b3461023657602036600319011261023657600435611dba612461565b600081815260026020526040902060018101546001600160a01b039190611de49083161515612484565b600b8101805460ff8116600581101561051d5760018114908115611f22575b5015611ecc57600a83015462093a808101809111610622574210611e875760039061ffff19161790556004810154916005820191611e4283548561250a565b600a810292818404600a1482151715610622577f556195694fc082ad19415eaec58c1584ec20066f6e655be3034932c454d38a239560646119cc95049485809461250a565b60405162461bcd60e51b815260206004820152601e60248201527f4175746f2d72656c656173652064656c6179206e6f74207265616368656400006044820152606490fd5b60405162461bcd60e51b815260206004820152602860248201527f53657373696f6e206e6f7420656c696769626c6520666f72206175746f2d636f60448201526736b83632ba34b7b760c11b6064820152608490fd5b600291501486611e03565b3461023657606036600319011261023657611f466122b4565b611f4e6122ca565b90611f5761231b565b6001600160a01b0390611f6d8383161515612c78565b168015611f815761004e9160443591612639565b60405162461bcd60e51b815260206004820152600d60248201526c24b73b30b634b2103a37b5b2b760991b6044820152606490fd5b34610236576020366003190112610236576004356000526006602052602060ff604060002054166040519015158152f35b34610236576060366003190112610236576020610891604435602435600435612689565b3461023657600036600319011261023657602060405162093a808152f35b346102365760208060031936011261023657600435612046612461565b6000818152600283526040902060018101546001600160a01b03939190841690612071821515612484565b600b8101549160ff8316600581101561051d57600161209091146124c9565b331480156122a5575b15612249574260089091015560101c60ff166120e0575b7f3cf0bf7708060bf073b6ddb921eef0485b3eb9da828e0ed751fa6582ef337f5790604051428152a26001600055005b6120e8612461565b816000526002815260406000208360018201541693612108851515612484565b600b82019081549560ff8716600581101561051d5760020361220f5733149081156121ff575b50156121ae5760017f3cf0bf7708060bf073b6ddb921eef0485b3eb9da828e0ed751fa6582ef337f579495600884019361216e6009610ebf87544261250a565b905562ff00ff1916179055429055827f3dd443712f1bb154053901f56ef4a45320caeee475fc1b8f448abb8a5abd7ec182604051428152a28291506120b0565b60405162461bcd60e51b8152600481018490526024808201527f4f6e6c792073657373696f6e207061727469636970616e74732063616e20726560448201526373756d6560e01b6064820152608490fd5b905060028301541633148661212e565b60405162461bcd60e51b815260048101869052601260248201527114d95cdcda5bdb881b9bdd081c185d5cd95960721b6044820152606490fd5b60405162461bcd60e51b815260048101849052602e60248201527f4f6e6c792073657373696f6e207061727469636970616e74732063616e20757060448201526d19185d19481a19585c9d1899585d60921b6064820152608490fd5b50846002820154163314612099565b600435906001600160a01b038216820361023657565b602435906001600160a01b038216820361023657565b90600582101561051d5752565b9181601f840112156102365782359167ffffffffffffffff8311610236576020838186019501011161023657565b60015460081c6001600160a01b0316330361233257565b60405163118cdaa760e01b8152336004820152602490fd5b1561235157565b60405162461bcd60e51b815260206004820152601d60248201527f416d6f756e74206d7573742062652067726561746572207468616e20300000006044820152606490fd5b6101e0810190811067ffffffffffffffff8211176105bd57604052565b6040810190811067ffffffffffffffff8211176105bd57604052565b600582101561051d5752565b906000602091828151910182855af115612437576000513d61242e57506001600160a01b0381163b155b61240c5750565b604051635274afe760e01b81526001600160a01b039091166004820152602490fd5b60011415612405565b6040513d6000823e3d90fd5b60ff6001541661244f57565b60405163d93c066560e01b8152600490fd5b600260005414612472576002600055565b604051633ee5aeb560e01b8152600490fd5b1561248b57565b60405162461bcd60e51b815260206004820152601660248201527514d95cdcda5bdb88191bd95cc81b9bdd08195e1a5cdd60521b6044820152606490fd5b156124d057565b60405162461bcd60e51b815260206004820152601260248201527153657373696f6e206e6f742061637469766560701b6044820152606490fd5b9190820391821161062257565b9190820180921161062257565b1561252b57565b60405162461bcd60e51b8152602060048201526011602482015270125b9d985b1a59081c9958da5c1a595b9d607a1b6044820152606490fd5b3d156125aa5767ffffffffffffffff903d8281116105bd5760405192601f8201601f19908116603f01168401908111848210176105bd5760405282523d6000602084013e565b606090565b156125b657565b60405162461bcd60e51b8152602060048201526013602482015272115512081d1c985b9cd9995c8819985a5b1959606a1b6044820152606490fd5b6001600160a01b0380831693929161260a851515612524565b61261584151561234a565b1680612633575050600080808093612631955af16108f0612564565b565b61263193505b60405163a9059cbb60e01b60208201526001600160a01b039092166024830152604480830193909352918152608081019167ffffffffffffffff8311828410176105bd57612631926040526123db565b919091821580156126f7575b6126ef57605a810290808204605a14901517156106225760649004918083029083820414831517156106225781156126d95704908082116126d4575090565b905090565b634e487b7160e01b600052601260045260246000fd5b505050600090565b508115612695565b600052600260205260406000206040519061271982612396565b8054825260018060a01b03806001830154166020840152806002830154166040840152600382015416606083015260048101546080830152600581015460a0830152600681015460c0830152600781015460e083019081526008820154906101008401918252600b6009840154936101208601948552600a8101546101408701520154936127ae60ff861661016083016123cf565b60ff8560081c1615156101808201526101c060ff6101a0830196818160101c161515885260181c161515910152805115612845576127ed90514261250a565b9151925115158061283b575b61281e575b508181111561281757603c916128139161250a565b0490565b5050600090565b9161282e6128349293514261250a565b90612517565b90386127fe565b50805115156127f9565b60405162461bcd60e51b815260206004820152601360248201527214d95cdcda5bdb881b9bdd081cdd185c9d1959606a1b6044820152606490fd5b600090815260026020526040812060405161289a81612396565b8154815260018060a01b03806001840154166020830152806002840154166040830152600383015416606082015260048201546080820152600582015460a0820152600682015460c0820152600782015460e0820152600b60088301549261010083019384526009810154610120840152600a8101546101408401520154906101c060ff610160830193612930828216866123cf565b818160081c161515610180850152818160101c1615156101a085015260181c1615159101525160058110156129a257600114801590612999575b612995575190601e82018092116129815750421190565b634e487b7160e01b81526011600452602490fd5b5090565b5080511561296a565b634e487b7160e01b83526021600452602483fd5b60009081526002602052604081206040516129d081612396565b8154815260018201546001600160a01b039081166020830152600283015481166040830152600383015416606082015260048201546080820152600582015460a0820152600682015460c0820152600782015460e0820152600882015461010082019081526009830154610120830152600a830154610140830152600b9092015490610160810190612a6560ff8416836123cf565b60ff8360081c1615156101808201526101c060ff6101a0830194818160101c161515865260181c161515910152516005811015612afa5760011490811591612aef575b508015612ae6575b612995575190601e820191828111612ad2576096018092116129815750421190565b634e487b7160e01b82526011600452602482fd5b50805115612ab0565b905051151538612aa8565b634e487b7160e01b84526021600452602484fd5b6000908082526002602052604082209060405191612b2b83612396565b8054835260018060a01b03806001830154166020850152806002830154166040850152600382015416606084015260048101546080840190815260058201549360a0810194855260068301549260c08201938452600b60078201549160e0840192835260088101546101008501526009810154610120850152600a810154610140850152015491610160810190612bc560ff8516836123cf565b60ff8460081c1615156101808201526101c060ff6101a0830195818160101c161515875260181c161515910152516005811015612c645760011491821592612c59575b508115612c4f575b50612c4857612c21612c2b936126ff565b9051915191612689565b90519081811115612c4357612c40925061250a565b90565b505090565b5050505090565b9050511538612c10565b511515915038612c08565b634e487b7160e01b88526021600452602488fd5b15612c7f57565b60405162461bcd60e51b815260206004820152600f60248201526e496e76616c6964206164647265737360881b6044820152606490fdfea164736f6c6343000814000a","opcodes":"PUSH1 0x80 CALLVALUE PUSH3 0x157 JUMPI PUSH1 0x1F PUSH3 0x2E36 CODESIZE DUP2 SWAP1 SUB SWAP2 DUP3 ADD PUSH1 0x1F NOT AND DUP4 ADD SWAP2 PUSH1 0x1 PUSH1 0x1 PUSH1 0x40 SHL SUB DUP4 GT DUP5 DUP5 LT OR PUSH3 0x15C JUMPI DUP1 DUP5 SWAP3 PUSH1 0x20 SWAP5 PUSH1 0x40 MSTORE DUP4 CODECOPY DUP2 ADD SUB SLT PUSH3 0x157 JUMPI MLOAD PUSH1 0x1 PUSH1 0x1 PUSH1 0xA0 SHL SUB SWAP1 DUP2 DUP2 AND SWAP1 DUP2 SWAP1 SUB PUSH3 0x157 JUMPI PUSH1 0x0 SWAP1 PUSH1 0x1 DUP3 SSTORE CALLER ISZERO PUSH3 0x13E JUMPI PUSH1 0x1 DUP1 SLOAD PUSH2 0x100 PUSH1 0x1 PUSH1 0xA8 SHL SUB NOT DUP2 AND CALLER PUSH1 0x8 DUP2 DUP2 SHL PUSH2 0x100 PUSH1 0x1 PUSH1 0xA8 SHL SUB AND SWAP3 SWAP1 SWAP3 OR SWAP1 SWAP4 SSTORE PUSH1 0x40 MLOAD SWAP6 SWAP2 SWAP1 SHR AND PUSH32 0x8BE0079C531659141344CD1FD0A4F28419497F9722A3DAAFE3B4186F6B6457E0 DUP5 DUP1 LOG3 DUP1 ISZERO PUSH3 0xFC JUMPI PUSH1 0x4 DUP1 SLOAD PUSH1 0x1 PUSH1 0x1 PUSH1 0xA0 SHL SUB NOT AND SWAP2 SWAP1 SWAP2 OR SWAP1 SSTORE DUP1 DUP1 MSTORE PUSH1 0x3 PUSH1 0x20 MSTORE PUSH1 0x40 SWAP1 DUP2 SWAP1 KECCAK256 DUP1 SLOAD PUSH1 0xFF NOT AND PUSH1 0x1 OR SWAP1 SSTORE MLOAD PUSH2 0x2CC3 SWAP2 POP DUP2 PUSH3 0x173 DUP3 CODECOPY RETURN JUMPDEST PUSH3 0x461BCD PUSH1 0xE5 SHL DUP4 MSTORE PUSH1 0x20 PUSH1 0x4 DUP5 ADD MSTORE PUSH1 0x17 PUSH1 0x24 DUP5 ADD MSTORE PUSH32 0x496E76616C696420706C6174666F726D2077616C6C6574000000000000000000 PUSH1 0x44 DUP5 ADD MSTORE PUSH1 0x64 DUP4 REVERT JUMPDEST PUSH1 0x40 MLOAD PUSH4 0x1E4FBDF7 PUSH1 0xE0 SHL DUP2 MSTORE PUSH1 0x4 DUP2 ADD DUP4 SWAP1 MSTORE PUSH1 0x24 SWAP1 REVERT JUMPDEST PUSH1 0x0 DUP1 REVERT JUMPDEST PUSH4 0x4E487B71 PUSH1 0xE0 SHL PUSH1 0x0 MSTORE PUSH1 0x41 PUSH1 0x4 MSTORE PUSH1 0x24 PUSH1 0x0 REVERT INVALID PUSH1 0x80 PUSH1 0x40 MSTORE PUSH1 0x4 CALLDATASIZE LT ISZERO PUSH2 0x50 JUMPI JUMPDEST CALLDATASIZE ISZERO PUSH2 0x4E JUMPI PUSH1 0x40 MLOAD PUSH3 0x461BCD PUSH1 0xE5 SHL DUP2 MSTORE PUSH1 0x20 PUSH1 0x4 DUP3 ADD MSTORE PUSH1 0x12 PUSH1 0x24 DUP3 ADD MSTORE PUSH18 0x119D5B98DD1A5BDB881B9BDD08199BDD5B99 PUSH1 0x72 SHL PUSH1 0x44 DUP3 ADD MSTORE PUSH1 0x64 SWAP1 REVERT JUMPDEST STOP JUMPDEST PUSH1 0x0 CALLDATALOAD PUSH1 0xE0 SHR DUP1 PUSH4 0x2CEB406 EQ PUSH2 0x2029 JUMPI DUP1 PUSH4 0x9499AA6 EQ PUSH2 0x200B JUMPI DUP1 PUSH4 0x1AC6AF03 EQ PUSH2 0x1FE7 JUMPI DUP1 PUSH4 0x1C8B14A0 EQ PUSH2 0x1FB6 JUMPI DUP1 PUSH4 0x277327A5 EQ PUSH2 0x1F2D JUMPI DUP1 PUSH4 0x2B8A5F3B EQ PUSH2 0x1D9E JUMPI DUP1 PUSH4 0x2F7801F4 EQ PUSH2 0x1616 JUMPI DUP1 PUSH4 0x34D1C8FE EQ PUSH2 0x1D82 JUMPI DUP1 PUSH4 0x363EC298 EQ PUSH2 0x1D66 JUMPI DUP1 PUSH4 0x39B240BD EQ PUSH2 0x1B4B JUMPI DUP1 PUSH4 0x3A17BA64 EQ PUSH2 0x18B0 JUMPI DUP1 PUSH4 0x3F4BA83A EQ PUSH2 0x1846 JUMPI DUP1 PUSH4 0x4D213982 EQ PUSH2 0x16C9 JUMPI DUP1 PUSH4 0x560D52D4 EQ PUSH2 0x16AD JUMPI DUP1 PUSH4 0x58BC8337 EQ PUSH2 0x1691 JUMPI DUP1 PUSH4 0x590A2CC1 EQ PUSH2 0x1673 JUMPI DUP1 PUSH4 0x5C975ABB EQ PUSH2 0x1650 JUMPI DUP1 PUSH4 0x6834E3A8 EQ PUSH2 0x1616 JUMPI DUP1 PUSH4 0x68C4AC26 EQ PUSH2 0x1509 JUMPI DUP1 PUSH4 0x6BAAE9CC EQ PUSH2 0x15EE JUMPI DUP1 PUSH4 0x6D69FCAF EQ PUSH2 0x15A9 JUMPI DUP1 PUSH4 0x715018A6 EQ PUSH2 0x1548 JUMPI DUP1 PUSH4 0x75151B63 EQ PUSH2 0x1509 JUMPI DUP1 PUSH4 0x76319190 EQ PUSH2 0x14C7 JUMPI DUP1 PUSH4 0x79D55E77 EQ PUSH2 0x1365 JUMPI DUP1 PUSH4 0x7AC1B469 EQ PUSH2 0x1130 JUMPI DUP1 PUSH4 0x7DBD2832 EQ PUSH2 0x1047 JUMPI DUP1 PUSH4 0x8456CB59 EQ PUSH2 0xFEE JUMPI DUP1 PUSH4 0x8DA5CB5B EQ PUSH2 0xFC1 JUMPI DUP1 PUSH4 0x962DB93B EQ PUSH2 0xFA3 JUMPI DUP1 PUSH4 0x99173D6B EQ PUSH2 0xE36 JUMPI DUP1 PUSH4 0xADA4EF30 EQ PUSH2 0xDAB JUMPI DUP1 PUSH4 0xB817BE4C EQ PUSH2 0xC40 JUMPI DUP1 PUSH4 0xC1A287E2 EQ PUSH2 0xC24 JUMPI DUP1 PUSH4 0xCCB868DD EQ PUSH2 0x932 JUMPI DUP1 PUSH4 0xD79E8567 EQ PUSH2 0x899 JUMPI DUP1 PUSH4 0xE906826C EQ PUSH2 0x873 JUMPI DUP1 PUSH4 0xF2FDE38B EQ PUSH2 0x7DA JUMPI DUP1 PUSH4 0xF400272B EQ PUSH2 0x23B JUMPI PUSH4 0xFA2AF9DA SUB PUSH2 0xE JUMPI CALLVALUE PUSH2 0x236 JUMPI PUSH1 0x0 CALLDATASIZE PUSH1 0x3 NOT ADD SLT PUSH2 0x236 JUMPI PUSH1 0x4 SLOAD PUSH1 0x40 MLOAD PUSH1 0x1 PUSH1 0x1 PUSH1 0xA0 SHL SUB SWAP1 SWAP2 AND DUP2 MSTORE PUSH1 0x20 SWAP1 RETURN JUMPDEST PUSH1 0x0 DUP1 REVERT JUMPDEST PUSH1 0xC0 CALLDATASIZE PUSH1 0x3 NOT ADD SLT PUSH2 0x236 JUMPI PUSH2 0x24F PUSH2 0x22CA JUMP JUMPDEST PUSH1 0x44 SWAP1 DUP2 CALLDATALOAD PUSH1 0x1 PUSH1 0x1 PUSH1 0xA0 SHL SUB DUP2 AND SWAP1 DUP2 SWAP1 SUB PUSH2 0x236 JUMPI PUSH1 0x64 SWAP2 DUP3 CALLDATALOAD SWAP3 PUSH1 0x84 CALLDATALOAD SWAP2 PUSH2 0x278 PUSH2 0x2461 JUMP JUMPDEST PUSH2 0x280 PUSH2 0x2443 JUMP JUMPDEST PUSH1 0x1 PUSH1 0x1 PUSH1 0xA0 SHL SUB AND SWAP5 DUP6 ISZERO PUSH2 0x7A0 JUMPI CALLER DUP7 EQ PUSH2 0x766 JUMPI DUP4 PUSH1 0x0 MSTORE PUSH1 0x3 PUSH1 0x20 MSTORE PUSH1 0xFF PUSH1 0x40 PUSH1 0x0 KECCAK256 SLOAD AND ISZERO PUSH2 0x725 JUMPI PUSH2 0x2B9 DUP6 ISZERO ISZERO PUSH2 0x234A JUMP JUMPDEST DUP3 ISZERO PUSH2 0x6E4 JUMPI PUSH1 0x4 CALLDATALOAD PUSH1 0x0 SWAP1 DUP2 MSTORE PUSH1 0x2 PUSH1 0x20 MSTORE PUSH1 0x40 SWAP1 KECCAK256 PUSH1 0x1 ADD SLOAD PUSH1 0x1 PUSH1 0x1 PUSH1 0xA0 SHL SUB AND PUSH2 0x6AA JUMPI CALLER PUSH1 0x0 MSTORE PUSH1 0x5 PUSH1 0x20 MSTORE PUSH1 0x40 PUSH1 0x0 KECCAK256 SLOAD PUSH1 0xA4 CALLDATALOAD SUB PUSH2 0x679 JUMPI PUSH1 0x4 CALLDATALOAD PUSH1 0x0 MSTORE PUSH1 0x6 PUSH1 0x20 MSTORE PUSH1 0xFF PUSH1 0x40 PUSH1 0x0 KECCAK256 SLOAD AND PUSH2 0x638 JUMPI CALLER PUSH1 0x0 MSTORE PUSH1 0x5 PUSH1 0x20 MSTORE PUSH1 0x40 PUSH1 0x0 KECCAK256 DUP1 SLOAD PUSH1 0x0 NOT DUP2 EQ PUSH2 0x622 JUMPI PUSH1 0x1 ADD SWAP1 SSTORE PUSH1 0x4 CALLDATALOAD PUSH1 0x0 MSTORE PUSH1 0x6 PUSH1 0x20 MSTORE PUSH1 0x40 PUSH1 0x0 KECCAK256 PUSH1 0x1 PUSH1 0xFF NOT DUP3 SLOAD AND OR SWAP1 SSTORE DUP4 ISZERO PUSH1 0x0 EQ PUSH2 0x56A JUMPI DUP5 CALLVALUE SUB PUSH2 0x533 JUMPI POP POP JUMPDEST PUSH1 0x40 MLOAD SWAP1 PUSH2 0x369 DUP3 PUSH2 0x2396 JUMP JUMPDEST PUSH1 0x4 CALLDATALOAD DUP3 MSTORE CALLER PUSH1 0x20 DUP4 ADD MSTORE DUP5 PUSH1 0x40 DUP4 ADD MSTORE DUP3 PUSH1 0x60 DUP4 ADD MSTORE DUP4 PUSH1 0x80 DUP4 ADD MSTORE PUSH1 0x0 PUSH1 0xA0 DUP4 ADD MSTORE PUSH1 0xC0 DUP3 ADD MSTORE PUSH1 0x0 PUSH1 0xE0 DUP3 ADD MSTORE PUSH1 0x0 PUSH2 0x100 DUP3 ADD MSTORE PUSH1 0x0 PUSH2 0x120 DUP3 ADD MSTORE TIMESTAMP PUSH2 0x140 DUP3 ADD MSTORE PUSH1 0x0 PUSH2 0x160 DUP3 ADD MSTORE PUSH1 0x0 PUSH2 0x180 DUP3 ADD MSTORE PUSH1 0x0 PUSH2 0x1A0 DUP3 ADD MSTORE PUSH1 0x0 PUSH2 0x1C0 DUP3 ADD MSTORE PUSH1 0x4 CALLDATALOAD PUSH1 0x0 MSTORE PUSH1 0x2 PUSH1 0x20 MSTORE PUSH1 0xB PUSH1 0x40 PUSH1 0x0 KECCAK256 DUP3 MLOAD DUP2 SSTORE PUSH1 0x1 DUP2 ADD PUSH1 0x1 DUP1 PUSH1 0xA0 SHL SUB PUSH1 0x20 DUP6 ADD MLOAD AND SWAP1 PUSH12 0xFFFFFFFFFFFFFFFFFFFFFFFF PUSH1 0xA0 SHL SWAP2 DUP3 DUP3 SLOAD AND OR SWAP1 SSTORE PUSH1 0x2 DUP3 ADD PUSH1 0x1 DUP1 PUSH1 0xA0 SHL SUB PUSH1 0x40 DUP7 ADD MLOAD AND DUP3 DUP3 SLOAD AND OR SWAP1 SSTORE PUSH1 0x3 DUP3 ADD SWAP1 PUSH1 0x1 DUP1 PUSH1 0xA0 SHL SUB PUSH1 0x60 DUP7 ADD MLOAD AND SWAP1 DUP3 SLOAD AND OR SWAP1 SSTORE PUSH1 0x80 DUP4 ADD MLOAD PUSH1 0x4 DUP3 ADD SSTORE PUSH1 0xA0 DUP4 ADD MLOAD PUSH1 0x5 DUP3 ADD SSTORE PUSH1 0xC0 DUP4 ADD MLOAD PUSH1 0x6 DUP3 ADD SSTORE PUSH1 0xE0 DUP4 ADD MLOAD PUSH1 0x7 DUP3 ADD SSTORE PUSH2 0x100 DUP4 ADD MLOAD PUSH1 0x8 DUP3 ADD SSTORE PUSH2 0x120 DUP4 ADD MLOAD PUSH1 0x9 DUP3 ADD SSTORE PUSH2 0x140 DUP4 ADD MLOAD PUSH1 0xA DUP3 ADD SSTORE ADD SWAP1 PUSH2 0x160 DUP2 ADD MLOAD SWAP1 PUSH1 0x5 DUP3 LT ISZERO PUSH2 0x51D JUMPI DUP3 SLOAD PUSH2 0xFF00 PUSH2 0x180 DUP4 ADD MLOAD ISZERO ISZERO PUSH1 0x8 SHL AND SWAP1 PUSH1 0xFF PUSH4 0xFF000000 PUSH2 0x1C0 PUSH3 0xFF0000 PUSH2 0x1A0 DUP8 ADD MLOAD ISZERO ISZERO PUSH1 0x10 SHL AND SWAP6 ADD MLOAD ISZERO ISZERO PUSH1 0x18 SHL AND SWAP5 AND SWAP1 PUSH4 0xFFFFFFFF NOT AND OR OR OR OR SWAP1 SSTORE PUSH1 0x40 MLOAD SWAP2 DUP3 MSTORE PUSH1 0x20 DUP3 ADD MSTORE CALLER SWAP1 PUSH32 0xA5D7A3CF3954591F1AF3CD96F79210169BBAF7E3B3A3E60DE11886BC773649E0 PUSH1 0x40 PUSH1 0x4 CALLDATALOAD SWAP3 LOG4 PUSH1 0x1 PUSH1 0x0 SSTORE STOP JUMPDEST PUSH4 0x4E487B71 PUSH1 0xE0 SHL PUSH1 0x0 MSTORE PUSH1 0x21 PUSH1 0x4 MSTORE PUSH1 0x24 PUSH1 0x0 REVERT JUMPDEST PUSH19 0x8AA89040C2DADEEADCE840DAD2E6DAC2E8C6D PUSH1 0x6B SHL PUSH1 0x40 MLOAD SWAP2 PUSH3 0x461BCD PUSH1 0xE5 SHL DUP4 MSTORE PUSH1 0x20 PUSH1 0x4 DUP5 ADD MSTORE PUSH1 0x13 PUSH1 0x24 DUP5 ADD MSTORE DUP3 ADD MSTORE REVERT JUMPDEST SWAP1 CALLVALUE PUSH2 0x5D3 JUMPI PUSH1 0x40 MLOAD SWAP2 PUSH4 0x23B872DD PUSH1 0xE0 SHL PUSH1 0x20 DUP5 ADD MSTORE CALLER PUSH1 0x24 DUP5 ADD MSTORE ADDRESS SWAP1 DUP4 ADD MSTORE DUP5 DUP2 DUP4 ADD MSTORE DUP2 MSTORE PUSH1 0xA0 DUP2 ADD SWAP1 DUP1 DUP3 LT PUSH8 0xFFFFFFFFFFFFFFFF DUP4 GT OR PUSH2 0x5BD JUMPI PUSH2 0x5B8 SWAP2 PUSH1 0x40 MSTORE DUP4 PUSH2 0x23DB JUMP JUMPDEST PUSH2 0x35C JUMP JUMPDEST PUSH4 0x4E487B71 PUSH1 0xE0 SHL PUSH1 0x0 MSTORE PUSH1 0x41 PUSH1 0x4 MSTORE PUSH1 0x24 PUSH1 0x0 REVERT JUMPDEST SWAP1 PUSH3 0x6E7473 PUSH1 0xE8 SHL PUSH1 0x84 SWAP3 PUSH32 0x455448206E6F7420616363657074656420666F72204552433230207061796D65 PUSH1 0x40 MLOAD SWAP4 PUSH3 0x461BCD PUSH1 0xE5 SHL DUP6 MSTORE PUSH1 0x20 PUSH1 0x4 DUP7 ADD MSTORE PUSH1 0x23 PUSH1 0x24 DUP7 ADD MSTORE DUP5 ADD MSTORE DUP3 ADD MSTORE REVERT JUMPDEST PUSH4 0x4E487B71 PUSH1 0xE0 SHL PUSH1 0x0 MSTORE PUSH1 0x11 PUSH1 0x4 MSTORE PUSH1 0x24 PUSH1 0x0 REVERT JUMPDEST PUSH32 0x53657373696F6E20494420616C72656164792075736564000000000000000000 PUSH1 0x40 MLOAD SWAP2 PUSH3 0x461BCD PUSH1 0xE5 SHL DUP4 MSTORE PUSH1 0x20 PUSH1 0x4 DUP5 ADD MSTORE PUSH1 0x17 PUSH1 0x24 DUP5 ADD MSTORE DUP3 ADD MSTORE REVERT JUMPDEST PUSH13 0x496E76616C6964206E6F6E6365 PUSH1 0x98 SHL PUSH1 0x40 MLOAD SWAP2 PUSH3 0x461BCD PUSH1 0xE5 SHL DUP4 MSTORE PUSH1 0x20 PUSH1 0x4 DUP5 ADD MSTORE PUSH1 0xD PUSH1 0x24 DUP5 ADD MSTORE DUP3 ADD MSTORE REVERT JUMPDEST PUSH22 0x53657373696F6E20616C726561647920657869737473 PUSH1 0x50 SHL PUSH1 0x40 MLOAD SWAP2 PUSH3 0x461BCD PUSH1 0xE5 SHL DUP4 MSTORE PUSH1 0x20 PUSH1 0x4 DUP5 ADD MSTORE PUSH1 0x16 PUSH1 0x24 DUP5 ADD MSTORE DUP3 ADD MSTORE REVERT JUMPDEST PUSH32 0x4475726174696F6E206D7573742062652067726561746572207468616E203000 PUSH1 0x40 MLOAD SWAP2 PUSH3 0x461BCD PUSH1 0xE5 SHL DUP4 MSTORE PUSH1 0x20 PUSH1 0x4 DUP5 ADD MSTORE PUSH1 0x1F PUSH1 0x24 DUP5 ADD MSTORE DUP3 ADD MSTORE REVERT JUMPDEST PUSH32 0x556E737570706F72746564207061796D656E7420746F6B656E00000000000000 PUSH1 0x40 MLOAD SWAP2 PUSH3 0x461BCD PUSH1 0xE5 SHL DUP4 MSTORE PUSH1 0x20 PUSH1 0x4 DUP5 ADD MSTORE PUSH1 0x19 PUSH1 0x24 DUP5 ADD MSTORE DUP3 ADD MSTORE REVERT JUMPDEST PUSH22 0x21B0B73737BA1036B2B73A37B9103CB7BAB939B2B633 PUSH1 0x51 SHL PUSH1 0x40 MLOAD SWAP2 PUSH3 0x461BCD PUSH1 0xE5 SHL DUP4 MSTORE PUSH1 0x20 PUSH1 0x4 DUP5 ADD MSTORE PUSH1 0x16 PUSH1 0x24 DUP5 ADD MSTORE DUP3 ADD MSTORE REVERT JUMPDEST PUSH22 0x496E76616C6964206D656E746F722061646472657373 PUSH1 0x50 SHL PUSH1 0x40 MLOAD SWAP2 PUSH3 0x461BCD PUSH1 0xE5 SHL DUP4 MSTORE PUSH1 0x20 PUSH1 0x4 DUP5 ADD MSTORE PUSH1 0x16 PUSH1 0x24 DUP5 ADD MSTORE DUP3 ADD MSTORE REVERT JUMPDEST CALLVALUE PUSH2 0x236 JUMPI PUSH1 0x20 CALLDATASIZE PUSH1 0x3 NOT ADD SLT PUSH2 0x236 JUMPI PUSH2 0x7F3 PUSH2 0x22B4 JUMP JUMPDEST PUSH2 0x7FB PUSH2 0x231B JUMP JUMPDEST PUSH1 0x1 PUSH1 0x1 PUSH1 0xA0 SHL SUB DUP2 DUP2 AND SWAP2 DUP3 ISZERO PUSH2 0x85A JUMPI PUSH1 0x1 DUP1 SLOAD PUSH2 0x100 PUSH1 0x1 PUSH1 0xA8 SHL SUB NOT DUP2 AND PUSH1 0x8 SWAP4 DUP5 SHL PUSH2 0x100 PUSH1 0x1 PUSH1 0xA8 SHL SUB AND OR SWAP1 SWAP2 SSTORE SWAP1 SHR AND PUSH32 0x8BE0079C531659141344CD1FD0A4F28419497F9722A3DAAFE3B4186F6B6457E0 PUSH1 0x0 DUP1 LOG3 STOP JUMPDEST PUSH1 0x40 MLOAD PUSH4 0x1E4FBDF7 PUSH1 0xE0 SHL DUP2 MSTORE PUSH1 0x0 PUSH1 0x4 DUP3 ADD MSTORE PUSH1 0x24 SWAP1 REVERT JUMPDEST CALLVALUE PUSH2 0x236 JUMPI PUSH1 0x20 CALLDATASIZE PUSH1 0x3 NOT ADD SLT PUSH2 0x236 JUMPI PUSH1 0x20 PUSH2 0x891 PUSH1 0x4 CALLDATALOAD PUSH2 0x2B0E JUMP JUMPDEST PUSH1 0x40 MLOAD SWAP1 DUP2 MSTORE RETURN JUMPDEST CALLVALUE PUSH2 0x236 JUMPI PUSH1 0x40 CALLDATASIZE PUSH1 0x3 NOT ADD SLT PUSH2 0x236 JUMPI PUSH1 0x4 CALLDATALOAD PUSH1 0x1 PUSH1 0x1 PUSH1 0xA0 SHL SUB DUP2 AND SWAP1 DUP2 SWAP1 SUB PUSH2 0x236 JUMPI PUSH1 0x24 CALLDATALOAD PUSH2 0x8CA PUSH2 0x231B JUMP JUMPDEST PUSH2 0x8D5 DUP3 ISZERO ISZERO PUSH2 0x2C78 JUMP JUMPDEST SELFBALANCE DUP2 GT PUSH2 0x8F6 JUMPI PUSH1 0x0 DUP1 DUP1 DUP1 SWAP4 PUSH2 0x4E SWAP6 GAS CALL PUSH2 0x8F0 PUSH2 0x2564 JUMP JUMPDEST POP PUSH2 0x25AF JUMP JUMPDEST PUSH1 0x40 MLOAD PUSH3 0x461BCD PUSH1 0xE5 SHL DUP2 MSTORE PUSH1 0x20 PUSH1 0x4 DUP3 ADD MSTORE PUSH1 0x14 PUSH1 0x24 DUP3 ADD MSTORE PUSH20 0x496E73756666696369656E742062616C616E6365 PUSH1 0x60 SHL PUSH1 0x44 DUP3 ADD MSTORE PUSH1 0x64 SWAP1 REVERT JUMPDEST CALLVALUE PUSH2 0x236 JUMPI PUSH1 0x20 DUP1 PUSH1 0x3 NOT CALLDATASIZE ADD SLT PUSH2 0x236 JUMPI PUSH1 0x4 CALLDATALOAD PUSH2 0x94F PUSH2 0x2461 JUMP JUMPDEST PUSH1 0x0 DUP2 DUP2 MSTORE PUSH1 0x2 DUP4 MSTORE PUSH1 0x40 SWAP1 KECCAK256 PUSH1 0x1 DUP2 ADD SLOAD SWAP1 SWAP3 PUSH1 0x1 PUSH1 0x1 PUSH1 0xA0 SHL SUB SWAP2 DUP3 AND PUSH2 0x979 DUP2 ISZERO ISZERO PUSH2 0x2484 JUMP JUMPDEST PUSH1 0xB DUP6 ADD SLOAD PUSH1 0xFF DUP2 AND PUSH1 0x5 DUP2 LT ISZERO PUSH2 0x51D JUMPI PUSH1 0x1 PUSH2 0x997 SWAP2 EQ PUSH2 0x24C9 JUMP JUMPDEST PUSH1 0xFF DUP2 PUSH1 0x8 SHR AND SWAP1 DUP2 PUSH2 0xC15 JUMPI JUMPDEST POP ISZERO PUSH2 0xBDA JUMPI PUSH1 0x7 DUP6 ADD SLOAD ISZERO PUSH2 0xB95 JUMPI CALLER EQ DUP1 ISZERO PUSH2 0xB86 JUMPI JUMPDEST ISZERO PUSH2 0xB2C JUMPI PUSH2 0x9CC DUP4 PUSH2 0x26FF JUMP JUMPDEST SWAP2 PUSH2 0x9E2 PUSH1 0x4 DUP7 ADD SLOAD SWAP4 PUSH1 0x6 DUP8 ADD SLOAD SWAP1 DUP6 PUSH2 0x2689 JUMP JUMPDEST PUSH1 0x5 DUP7 ADD SWAP3 DUP4 SLOAD SWAP2 DUP3 DUP2 GT ISZERO PUSH2 0xAE9 JUMPI DUP3 PUSH2 0x9FC SWAP2 PUSH2 0x250A JUMP JUMPDEST SWAP5 PUSH1 0x5A DUP2 MUL SWAP1 DUP1 DUP3 DIV PUSH1 0x5A EQ SWAP1 ISZERO OR ISZERO PUSH2 0x622 JUMPI PUSH1 0x64 SWAP1 DIV DUP1 PUSH2 0xA1F DUP8 DUP6 PUSH2 0x2517 JUMP JUMPDEST GT PUSH2 0xAD5 JUMPI JUMPDEST POP DUP5 ISZERO PUSH2 0xA99 JUMPI POP PUSH32 0xF2446E1F418253F1B6B8F9B8EBF603FD78B61D59024E68B0D687D1ECC22B8A40 SWAP5 SWAP6 PUSH2 0xA74 SWAP3 PUSH2 0xA5F DUP7 DUP1 SWAP5 PUSH2 0x2517 JUMP JUMPDEST DUP6 SSTORE PUSH1 0x2 DUP2 PUSH1 0x3 DUP5 ADD SLOAD AND SWAP3 ADD SLOAD AND SWAP1 PUSH2 0x25F1 JUMP JUMPDEST SLOAD PUSH1 0x40 DUP1 MLOAD SWAP3 DUP4 MSTORE PUSH1 0x20 DUP4 ADD SWAP2 SWAP1 SWAP2 MSTORE TIMESTAMP SWAP1 DUP3 ADD MSTORE DUP1 PUSH1 0x60 DUP2 ADD JUMPDEST SUB SWAP1 LOG2 PUSH1 0x1 PUSH1 0x0 SSTORE STOP JUMPDEST PUSH1 0x64 SWAP1 PUSH1 0x40 MLOAD SWAP1 PUSH3 0x461BCD PUSH1 0xE5 SHL DUP3 MSTORE PUSH1 0x4 DUP3 ADD MSTORE PUSH1 0x15 PUSH1 0x24 DUP3 ADD MSTORE PUSH21 0x4E6F207061796D656E7420746F2072656C65617365 PUSH1 0x58 SHL PUSH1 0x44 DUP3 ADD MSTORE REVERT JUMPDEST PUSH2 0xAE2 SWAP2 SWAP6 POP DUP3 SWAP1 PUSH2 0x250A JUMP JUMPDEST SWAP4 DUP8 PUSH2 0xA25 JUMP JUMPDEST PUSH1 0x64 DUP3 PUSH1 0x40 MLOAD SWAP1 PUSH3 0x461BCD PUSH1 0xE5 SHL DUP3 MSTORE DUP1 PUSH1 0x4 DUP4 ADD MSTORE PUSH1 0x24 DUP3 ADD MSTORE PUSH32 0x4E6F207061796D656E7420617661696C61626C6520666F722072656C65617365 PUSH1 0x44 DUP3 ADD MSTORE REVERT JUMPDEST PUSH1 0x84 SWAP1 PUSH1 0x40 MLOAD SWAP1 PUSH3 0x461BCD PUSH1 0xE5 SHL DUP3 MSTORE PUSH1 0x4 DUP3 ADD MSTORE PUSH1 0x2D PUSH1 0x24 DUP3 ADD MSTORE PUSH32 0x4F6E6C792073657373696F6E207061727469636970616E74732063616E207265 PUSH1 0x44 DUP3 ADD MSTORE PUSH13 0x1B19585CD9481C185E5B595B9D PUSH1 0x9A SHL PUSH1 0x64 DUP3 ADD MSTORE REVERT JUMPDEST POP DUP2 PUSH1 0x2 DUP6 ADD SLOAD AND CALLER EQ PUSH2 0x9BE JUMP JUMPDEST PUSH1 0x40 MLOAD PUSH3 0x461BCD PUSH1 0xE5 SHL DUP2 MSTORE PUSH1 0x4 DUP2 ADD DUP4 SWAP1 MSTORE PUSH1 0x1A PUSH1 0x24 DUP3 ADD MSTORE PUSH32 0x53657373696F6E2073746172742074696D65206E6F7420736574000000000000 PUSH1 0x44 DUP3 ADD MSTORE PUSH1 0x64 SWAP1 REVERT JUMPDEST PUSH1 0x40 MLOAD PUSH3 0x461BCD PUSH1 0xE5 SHL DUP2 MSTORE PUSH1 0x4 DUP2 ADD DUP4 SWAP1 MSTORE PUSH1 0x13 PUSH1 0x24 DUP3 ADD MSTORE PUSH19 0x53657373696F6E206E6F742072756E6E696E67 PUSH1 0x68 SHL PUSH1 0x44 DUP3 ADD MSTORE PUSH1 0x64 SWAP1 REVERT JUMPDEST PUSH1 0xFF SWAP2 POP PUSH1 0x10 SHR AND ISZERO DUP7 PUSH2 0x9A5 JUMP JUMPDEST CALLVALUE PUSH2 0x236 JUMPI PUSH1 0x0 CALLDATASIZE PUSH1 0x3 NOT ADD SLT PUSH2 0x236 JUMPI PUSH1 0x20 PUSH1 0x40 MLOAD PUSH1 0x78 DUP2 MSTORE RETURN JUMPDEST CALLVALUE PUSH2 0x236 JUMPI PUSH1 0x20 CALLDATASIZE PUSH1 0x3 NOT ADD SLT PUSH2 0x236 JUMPI PUSH1 0x4 CALLDATALOAD PUSH2 0xC5C PUSH2 0x2461 JUMP JUMPDEST PUSH1 0x0 DUP2 DUP2 MSTORE PUSH1 0x2 PUSH1 0x20 MSTORE PUSH1 0x40 SWAP1 KECCAK256 PUSH1 0x1 DUP2 ADD SLOAD PUSH1 0x1 PUSH1 0x1 PUSH1 0xA0 SHL SUB SWAP2 SWAP1 DUP3 AND PUSH2 0xC86 DUP2 ISZERO ISZERO PUSH2 0x2484 JUMP JUMPDEST PUSH1 0xB DUP3 ADD SWAP3 DUP4 SLOAD SWAP2 PUSH1 0xFF DUP4 AND PUSH1 0x5 DUP2 LT ISZERO PUSH2 0x51D JUMPI PUSH2 0xD5A JUMPI CALLER EQ SWAP1 DUP2 ISZERO PUSH2 0xD4A JUMPI JUMPDEST POP ISZERO PUSH2 0xCF9 JUMPI PUSH2 0x101 SWAP2 TIMESTAMP PUSH1 0x7 DUP3 ADD SSTORE PUSH1 0x8 TIMESTAMP SWAP2 ADD SSTORE PUSH3 0xFFFFFF NOT AND OR SWAP1 SSTORE PUSH32 0xD010ADB8A640E9A6A134CE407A4E27DEB32FAB5B64EA5847C55101907D9C2578 PUSH1 0x20 PUSH1 0x40 MLOAD TIMESTAMP DUP2 MSTORE LOG2 PUSH1 0x1 PUSH1 0x0 SSTORE STOP JUMPDEST PUSH1 0x40 MLOAD PUSH3 0x461BCD PUSH1 0xE5 SHL DUP2 MSTORE PUSH1 0x20 PUSH1 0x4 DUP3 ADD MSTORE PUSH1 0x23 PUSH1 0x24 DUP3 ADD MSTORE PUSH32 0x4F6E6C792073657373696F6E207061727469636970616E74732063616E207374 PUSH1 0x44 DUP3 ADD MSTORE PUSH3 0x185C9D PUSH1 0xEA SHL PUSH1 0x64 DUP3 ADD MSTORE PUSH1 0x84 SWAP1 REVERT JUMPDEST SWAP1 POP PUSH1 0x2 DUP4 ADD SLOAD AND CALLER EQ DUP6 PUSH2 0xCA9 JUMP JUMPDEST PUSH1 0x40 MLOAD PUSH3 0x461BCD PUSH1 0xE5 SHL DUP2 MSTORE PUSH1 0x20 PUSH1 0x4 DUP3 ADD MSTORE PUSH1 0x24 DUP1 DUP3 ADD MSTORE PUSH32 0x53657373696F6E20616C72656164792073746172746564206F7220636F6D706C PUSH1 0x44 DUP3 ADD MSTORE PUSH4 0x195D1959 PUSH1 0xE2 SHL PUSH1 0x64 DUP3 ADD MSTORE PUSH1 0x84 SWAP1 REVERT JUMPDEST CALLVALUE PUSH2 0x236 JUMPI PUSH1 0x20 CALLDATASIZE PUSH1 0x3 NOT ADD SLT PUSH2 0x236 JUMPI PUSH2 0xDC4 PUSH2 0x22B4 JUMP JUMPDEST PUSH2 0xDCC PUSH2 0x231B JUMP JUMPDEST PUSH1 0x1 PUSH1 0x1 PUSH1 0xA0 SHL SUB AND DUP1 ISZERO PUSH2 0xDF8 JUMPI PUSH12 0xFFFFFFFFFFFFFFFFFFFFFFFF PUSH1 0xA0 SHL PUSH1 0x4 SLOAD AND OR PUSH1 0x4 SSTORE PUSH1 0x0 DUP1 RETURN JUMPDEST PUSH1 0x40 MLOAD PUSH3 0x461BCD PUSH1 0xE5 SHL DUP2 MSTORE PUSH1 0x20 PUSH1 0x4 DUP3 ADD MSTORE PUSH1 0x16 PUSH1 0x24 DUP3 ADD MSTORE PUSH22 0x496E76616C69642077616C6C65742061646472657373 PUSH1 0x50 SHL PUSH1 0x44 DUP3 ADD MSTORE PUSH1 0x64 SWAP1 REVERT JUMPDEST CALLVALUE PUSH2 0x236 JUMPI PUSH1 0x20 CALLDATASIZE PUSH1 0x3 NOT ADD SLT PUSH2 0x236 JUMPI PUSH1 0x4 CALLDATALOAD PUSH2 0xE52 PUSH2 0x2461 JUMP JUMPDEST PUSH1 0x0 DUP2 DUP2 MSTORE PUSH1 0x2 PUSH1 0x20 MSTORE PUSH1 0x40 SWAP1 KECCAK256 PUSH1 0x1 DUP2 ADD SLOAD PUSH1 0x1 PUSH1 0x1 PUSH1 0xA0 SHL SUB SWAP1 DUP2 AND PUSH2 0xE7B DUP2 ISZERO ISZERO PUSH2 0x2484 JUMP JUMPDEST PUSH1 0xB DUP4 ADD SWAP2 DUP3 SLOAD SWAP2 PUSH1 0xFF DUP4 AND PUSH1 0x5 DUP2 LT ISZERO PUSH2 0x51D JUMPI PUSH1 0x2 SUB PUSH2 0xF69 JUMPI CALLER EQ SWAP1 DUP2 ISZERO PUSH2 0xF59 JUMPI JUMPDEST POP ISZERO PUSH2 0xF08 JUMPI PUSH1 0x1 SWAP1 PUSH1 0x8 DUP5 ADD SWAP4 PUSH2 0xEC9 PUSH1 0x9 PUSH2 0xEBF DUP8 SLOAD TIMESTAMP PUSH2 0x250A JUMP JUMPDEST SWAP3 ADD SWAP2 DUP3 SLOAD PUSH2 0x2517 JUMP JUMPDEST SWAP1 SSTORE PUSH3 0xFF00FF NOT AND OR SWAP1 SSTORE TIMESTAMP SWAP1 SSTORE PUSH32 0x3DD443712F1BB154053901F56EF4A45320CAEEE475FC1B8F448ABB8A5ABD7EC1 PUSH1 0x20 PUSH1 0x40 MLOAD TIMESTAMP DUP2 MSTORE LOG2 PUSH1 0x1 PUSH1 0x0 SSTORE STOP JUMPDEST PUSH1 0x40 MLOAD PUSH3 0x461BCD PUSH1 0xE5 SHL DUP2 MSTORE PUSH1 0x20 PUSH1 0x4 DUP3 ADD MSTORE PUSH1 0x24 DUP1 DUP3 ADD MSTORE PUSH32 0x4F6E6C792073657373696F6E207061727469636970616E74732063616E207265 PUSH1 0x44 DUP3 ADD MSTORE PUSH4 0x73756D65 PUSH1 0xE0 SHL PUSH1 0x64 DUP3 ADD MSTORE PUSH1 0x84 SWAP1 REVERT JUMPDEST SWAP1 POP PUSH1 0x2 DUP5 ADD SLOAD AND CALLER EQ DUP6 PUSH2 0xEA1 JUMP JUMPDEST PUSH1 0x40 MLOAD PUSH3 0x461BCD PUSH1 0xE5 SHL DUP2 MSTORE PUSH1 0x20 PUSH1 0x4 DUP3 ADD MSTORE PUSH1 0x12 PUSH1 0x24 DUP3 ADD MSTORE PUSH18 0x14D95CDCDA5BDB881B9BDD081C185D5CD959 PUSH1 0x72 SHL PUSH1 0x44 DUP3 ADD MSTORE PUSH1 0x64 SWAP1 REVERT JUMPDEST CALLVALUE PUSH2 0x236 JUMPI PUSH1 0x20 CALLDATASIZE PUSH1 0x3 NOT ADD SLT PUSH2 0x236 JUMPI PUSH1 0x20 PUSH2 0x891 PUSH1 0x4 CALLDATALOAD PUSH2 0x26FF JUMP JUMPDEST CALLVALUE PUSH2 0x236 JUMPI PUSH1 0x0 CALLDATASIZE PUSH1 0x3 NOT ADD SLT PUSH2 0x236 JUMPI PUSH1 0x1 SLOAD PUSH1 0x40 MLOAD PUSH1 0x8 SWAP2 SWAP1 SWAP2 SHR PUSH1 0x1 PUSH1 0x1 PUSH1 0xA0 SHL SUB AND DUP2 MSTORE PUSH1 0x20 SWAP1 RETURN JUMPDEST CALLVALUE PUSH2 0x236 JUMPI PUSH1 0x0 CALLDATASIZE PUSH1 0x3 NOT ADD SLT PUSH2 0x236 JUMPI PUSH2 0x1007 PUSH2 0x231B JUMP JUMPDEST PUSH2 0x100F PUSH2 0x2443 JUMP JUMPDEST PUSH1 0x1 PUSH1 0xFF NOT DUP2 SLOAD AND OR PUSH1 0x1 SSTORE PUSH32 0x62E78CEA01BEE320CD4E420270B5EA74000D11B0C9F74754EBDBFC544B05A258 PUSH1 0x20 PUSH1 0x40 MLOAD CALLER DUP2 MSTORE LOG1 STOP JUMPDEST CALLVALUE PUSH2 0x236 JUMPI PUSH1 0x20 CALLDATASIZE PUSH1 0x3 NOT ADD SLT PUSH2 0x236 JUMPI PUSH1 0x4 CALLDATALOAD PUSH1 0x0 MSTORE PUSH1 0x2 PUSH1 0x20 MSTORE PUSH2 0x1E0 PUSH1 0x40 PUSH1 0x0 KECCAK256 PUSH1 0xFF DUP2 SLOAD SWAP2 PUSH1 0x1 DUP1 PUSH1 0xA0 SHL SUB SWAP1 DUP2 PUSH1 0x1 DUP3 ADD SLOAD AND SWAP2 DUP1 PUSH1 0x2 DUP4 ADD SLOAD AND SWAP1 PUSH1 0x3 DUP4 ADD SLOAD AND PUSH1 0x4 DUP4 ADD SLOAD PUSH1 0x5 DUP5 ADD SLOAD PUSH1 0x6 DUP6 ADD SLOAD SWAP1 PUSH1 0x7 DUP7 ADD SLOAD SWAP3 PUSH1 0x8 DUP8 ADD SLOAD SWAP5 PUSH1 0x9 DUP9 ADD SLOAD SWAP7 PUSH1 0xB PUSH1 0xA DUP11 ADD SLOAD SWAP10 ADD SLOAD SWAP10 PUSH1 0x40 MLOAD SWAP13 DUP14 MSTORE PUSH1 0x20 DUP14 ADD MSTORE PUSH1 0x40 DUP13 ADD MSTORE PUSH1 0x60 DUP12 ADD MSTORE PUSH1 0x80 DUP11 ADD MSTORE PUSH1 0xA0 DUP10 ADD MSTORE PUSH1 0xC0 DUP9 ADD MSTORE PUSH1 0xE0 DUP8 ADD MSTORE PUSH2 0x100 DUP7 ADD MSTORE PUSH2 0x120 DUP6 ADD MSTORE PUSH2 0x140 DUP5 ADD MSTORE PUSH2 0x1106 PUSH2 0x160 DUP5 ADD DUP4 DUP4 AND PUSH2 0x22E0 JUMP JUMPDEST DUP2 DUP2 PUSH1 0x8 SHR AND ISZERO ISZERO PUSH2 0x180 DUP5 ADD MSTORE DUP2 DUP2 PUSH1 0x10 SHR AND ISZERO ISZERO PUSH2 0x1A0 DUP5 ADD MSTORE PUSH1 0x18 SHR AND ISZERO ISZERO PUSH2 0x1C0 DUP3 ADD MSTORE RETURN JUMPDEST CALLVALUE PUSH2 0x236 JUMPI PUSH1 0x20 DUP1 PUSH1 0x3 NOT CALLDATASIZE ADD SLT PUSH2 0x236 JUMPI PUSH1 0x4 CALLDATALOAD PUSH2 0x114D PUSH2 0x2461 JUMP JUMPDEST PUSH1 0x0 DUP2 DUP2 MSTORE PUSH1 0x2 DUP4 MSTORE PUSH1 0x40 SWAP1 KECCAK256 PUSH1 0x1 DUP2 ADD SLOAD PUSH1 0x1 PUSH1 0x1 PUSH1 0xA0 SHL SUB SWAP1 DUP2 AND SWAP2 SWAP1 PUSH2 0x1177 DUP4 ISZERO ISZERO PUSH2 0x2484 JUMP JUMPDEST PUSH1 0xB DUP3 ADD SWAP2 DUP3 SLOAD SWAP4 PUSH1 0xFF DUP6 AND PUSH1 0x5 DUP2 LT ISZERO PUSH2 0x51D JUMPI PUSH1 0x1 PUSH2 0x1198 SWAP2 EQ PUSH2 0x24C9 JUMP JUMPDEST PUSH1 0xFF DUP6 PUSH1 0x10 SHR AND PUSH2 0x1327 JUMPI CALLER EQ SWAP2 DUP3 ISZERO PUSH2 0x1316 JUMPI JUMPDEST POP PUSH1 0x8 ADD SWAP2 DUP3 SLOAD PUSH1 0x1E DUP2 ADD SWAP1 DUP2 DUP2 GT PUSH2 0x622 JUMPI PUSH1 0x96 ADD DUP1 SWAP2 GT PUSH2 0x622 JUMPI TIMESTAMP GT SWAP4 DUP3 DUP4 ISZERO PUSH2 0x130F JUMPI JUMPDEST ISZERO PUSH2 0x12D5 JUMPI PUSH3 0xFF00FF NOT AND PUSH3 0x10002 OR SWAP1 SSTORE DUP1 PUSH2 0x12CD JUMPI JUMPDEST PUSH2 0x12C4 JUMPI JUMPDEST POP ISZERO PUSH2 0x129A JUMPI PUSH1 0x40 MLOAD PUSH2 0x1204 DUP2 PUSH2 0x23B3 JUMP JUMPDEST PUSH1 0x11 DUP2 MSTORE PUSH17 0x1219585C9D1899585D081D1A5B595BDD5D PUSH1 0x7A SHL DUP4 DUP3 ADD MSTORE SWAP2 JUMPDEST PUSH1 0x40 MLOAD SWAP1 TIMESTAMP DUP3 MSTORE PUSH1 0x40 DUP2 DUP4 ADD MSTORE DUP4 MLOAD SWAP4 DUP5 PUSH1 0x40 DUP5 ADD MSTORE PUSH1 0x0 JUMPDEST DUP6 DUP2 LT PUSH2 0x1286 JUMPI DUP5 PUSH32 0xEC452BB0B82C12DEB4F139FA1DFC53D2E3606E8BF03CA6A3F007D0DD6FD53507 DUP6 PUSH1 0x60 DUP2 DUP11 PUSH1 0x0 DUP4 DUP3 DUP5 ADD ADD MSTORE PUSH1 0x1F DUP1 NOT SWAP2 ADD AND DUP2 ADD SUB ADD SWAP1 LOG2 PUSH1 0x1 PUSH1 0x0 SSTORE STOP JUMPDEST DUP2 DUP2 ADD DUP4 ADD MLOAD DUP5 DUP3 ADD PUSH1 0x60 ADD MSTORE DUP3 ADD PUSH2 0x123C JUMP JUMPDEST PUSH1 0x40 MLOAD PUSH2 0x12A6 DUP2 PUSH2 0x23B3 JUMP JUMPDEST PUSH1 0xC DUP2 MSTORE PUSH12 0x4D616E75616C207061757365 PUSH1 0xA0 SHL DUP4 DUP3 ADD MSTORE SWAP2 PUSH2 0x1223 JUMP JUMPDEST TIMESTAMP SWAP1 SSTORE DUP4 PUSH2 0x11F2 JUMP JUMPDEST POP DUP2 ISZERO PUSH2 0x11ED JUMP JUMPDEST PUSH1 0x40 MLOAD PUSH3 0x461BCD PUSH1 0xE5 SHL DUP2 MSTORE PUSH1 0x4 DUP2 ADD DUP9 SWAP1 MSTORE PUSH1 0x12 PUSH1 0x24 DUP3 ADD MSTORE PUSH18 0x556E617574686F72697A6564207061757365 PUSH1 0x70 SHL PUSH1 0x44 DUP3 ADD MSTORE PUSH1 0x64 SWAP1 REVERT JUMPDEST POP DUP5 PUSH2 0x11D5 JUMP JUMPDEST PUSH1 0x2 DUP3 ADD SLOAD AND CALLER EQ SWAP2 POP PUSH1 0x8 PUSH2 0x11AD JUMP JUMPDEST PUSH1 0x40 MLOAD PUSH3 0x461BCD PUSH1 0xE5 SHL DUP2 MSTORE PUSH1 0x4 DUP2 ADD DUP9 SWAP1 MSTORE PUSH1 0x16 PUSH1 0x24 DUP3 ADD MSTORE PUSH22 0x14D95CDCDA5BDB88185B1C9958591E481C185D5CD959 PUSH1 0x52 SHL PUSH1 0x44 DUP3 ADD MSTORE PUSH1 0x64 SWAP1 REVERT JUMPDEST CALLVALUE PUSH2 0x236 JUMPI PUSH1 0x80 CALLDATASIZE PUSH1 0x3 NOT ADD SLT PUSH2 0x236 JUMPI PUSH1 0x4 CALLDATALOAD PUSH2 0x1381 PUSH2 0x22CA JUMP JUMPDEST PUSH1 0x44 CALLDATALOAD PUSH1 0x64 CALLDATALOAD PUSH8 0xFFFFFFFFFFFFFFFF DUP2 GT PUSH2 0x236 JUMPI PUSH2 0x13A4 SWAP1 CALLDATASIZE SWAP1 PUSH1 0x4 ADD PUSH2 0x22ED JUMP JUMPDEST SWAP3 SWAP1 SWAP2 PUSH2 0x13AF PUSH2 0x231B JUMP JUMPDEST PUSH2 0x13B7 PUSH2 0x2461 JUMP JUMPDEST PUSH1 0x0 DUP6 DUP2 MSTORE PUSH1 0x2 PUSH1 0x20 MSTORE PUSH1 0x40 SWAP1 KECCAK256 PUSH1 0x1 DUP2 ADD SLOAD PUSH1 0x1 PUSH1 0x1 PUSH1 0xA0 SHL SUB SWAP6 SWAP2 SWAP1 PUSH2 0x13E2 SWAP1 DUP8 AND ISZERO ISZERO PUSH2 0x2484 JUMP JUMPDEST PUSH2 0x13EF DUP7 DUP6 AND ISZERO ISZERO PUSH2 0x2524 JUMP JUMPDEST PUSH1 0x4 DUP2 ADD SLOAD SWAP4 PUSH1 0x5 DUP3 ADD SWAP1 PUSH2 0x1406 DUP3 SLOAD DUP1 SWAP8 PUSH2 0x250A JUMP JUMPDEST DUP6 GT PUSH2 0x1482 JUMPI PUSH32 0x482A5548DA3675089CF6763340CBD789090E2187C64B37C814C5340111636C47 SWAP8 PUSH1 0x3 PUSH2 0x144C SWAP5 DUP8 SWAP5 PUSH2 0x1442 DUP7 PUSH1 0x60 SWAP12 PUSH2 0x2517 JUMP JUMPDEST SWAP1 SSTORE ADD SLOAD AND PUSH2 0x25F1 JUMP JUMPDEST DUP1 PUSH1 0x40 MLOAD SWAP5 DUP6 SWAP4 DUP5 MSTORE PUSH1 0x40 PUSH1 0x20 DUP6 ADD MSTORE DUP2 PUSH1 0x40 DUP6 ADD MSTORE DUP5 DUP5 ADD CALLDATACOPY PUSH1 0x0 DUP3 DUP3 ADD DUP5 ADD MSTORE PUSH1 0x1F ADD PUSH1 0x1F NOT AND DUP2 ADD SUB ADD SWAP1 LOG2 PUSH1 0x1 PUSH1 0x0 SSTORE STOP JUMPDEST PUSH1 0x40 MLOAD PUSH3 0x461BCD PUSH1 0xE5 SHL DUP2 MSTORE PUSH1 0x20 PUSH1 0x4 DUP3 ADD MSTORE PUSH1 0x18 PUSH1 0x24 DUP3 ADD MSTORE PUSH32 0x416D6F756E74206578636565647320617661696C61626C650000000000000000 PUSH1 0x44 DUP3 ADD MSTORE PUSH1 0x64 SWAP1 REVERT JUMPDEST CALLVALUE PUSH2 0x236 JUMPI PUSH1 0x20 CALLDATASIZE PUSH1 0x3 NOT ADD SLT PUSH2 0x236 JUMPI PUSH2 0x14E0 PUSH2 0x22B4 JUMP JUMPDEST PUSH2 0x14E8 PUSH2 0x231B JUMP JUMPDEST PUSH1 0x1 PUSH1 0x1 PUSH1 0xA0 SHL SUB AND PUSH1 0x0 SWAP1 DUP2 MSTORE PUSH1 0x3 PUSH1 0x20 MSTORE PUSH1 0x40 SWAP1 KECCAK256 DUP1 SLOAD PUSH1 0xFF NOT AND SWAP1 SSTORE STOP JUMPDEST CALLVALUE PUSH2 0x236 JUMPI PUSH1 0x20 CALLDATASIZE PUSH1 0x3 NOT ADD SLT PUSH2 0x236 JUMPI PUSH1 0x1 PUSH1 0x1 PUSH1 0xA0 SHL SUB PUSH2 0x152A PUSH2 0x22B4 JUMP JUMPDEST AND PUSH1 0x0 MSTORE PUSH1 0x3 PUSH1 0x20 MSTORE PUSH1 0x20 PUSH1 0xFF PUSH1 0x40 PUSH1 0x0 KECCAK256 SLOAD AND PUSH1 0x40 MLOAD SWAP1 ISZERO ISZERO DUP2 MSTORE RETURN JUMPDEST CALLVALUE PUSH2 0x236 JUMPI PUSH1 0x0 CALLDATASIZE PUSH1 0x3 NOT ADD SLT PUSH2 0x236 JUMPI PUSH2 0x1561 PUSH2 0x231B JUMP JUMPDEST PUSH1 0x1 DUP1 SLOAD PUSH2 0x100 PUSH1 0x1 PUSH1 0xA8 SHL SUB NOT DUP2 AND SWAP1 SWAP2 SSTORE PUSH1 0x0 SWAP1 PUSH1 0x8 SHR PUSH1 0x1 PUSH1 0x1 PUSH1 0xA0 SHL SUB AND PUSH32 0x8BE0079C531659141344CD1FD0A4F28419497F9722A3DAAFE3B4186F6B6457E0 DUP3 DUP1 LOG3 STOP JUMPDEST CALLVALUE PUSH2 0x236 JUMPI PUSH1 0x20 CALLDATASIZE PUSH1 0x3 NOT ADD SLT PUSH2 0x236 JUMPI PUSH2 0x15C2 PUSH2 0x22B4 JUMP JUMPDEST PUSH2 0x15CA PUSH2 0x231B JUMP JUMPDEST PUSH1 0x1 PUSH1 0x1 PUSH1 0xA0 SHL SUB AND PUSH1 0x0 SWAP1 DUP2 MSTORE PUSH1 0x3 PUSH1 0x20 MSTORE PUSH1 0x40 SWAP1 KECCAK256 DUP1 SLOAD PUSH1 0xFF NOT AND PUSH1 0x1 OR SWAP1 SSTORE STOP JUMPDEST CALLVALUE PUSH2 0x236 JUMPI PUSH1 0x20 CALLDATASIZE PUSH1 0x3 NOT ADD SLT PUSH2 0x236 JUMPI PUSH1 0x20 PUSH2 0x160C PUSH1 0x4 CALLDATALOAD PUSH2 0x29B6 JUMP JUMPDEST PUSH1 0x40 MLOAD SWAP1 ISZERO ISZERO DUP2 MSTORE RETURN JUMPDEST CALLVALUE PUSH2 0x236 JUMPI PUSH1 0x20 CALLDATASIZE PUSH1 0x3 NOT ADD SLT PUSH2 0x236 JUMPI PUSH1 0x1 PUSH1 0x1 PUSH1 0xA0 SHL SUB PUSH2 0x1637 PUSH2 0x22B4 JUMP JUMPDEST AND PUSH1 0x0 MSTORE PUSH1 0x5 PUSH1 0x20 MSTORE PUSH1 0x20 PUSH1 0x40 PUSH1 0x0 KECCAK256 SLOAD PUSH1 0x40 MLOAD SWAP1 DUP2 MSTORE RETURN JUMPDEST CALLVALUE PUSH2 0x236 JUMPI PUSH1 0x0 CALLDATASIZE PUSH1 0x3 NOT ADD SLT PUSH2 0x236 JUMPI PUSH1 0x20 PUSH1 0xFF PUSH1 0x1 SLOAD AND PUSH1 0x40 MLOAD SWAP1 ISZERO ISZERO DUP2 MSTORE RETURN JUMPDEST CALLVALUE PUSH2 0x236 JUMPI PUSH1 0x20 CALLDATASIZE PUSH1 0x3 NOT ADD SLT PUSH2 0x236 JUMPI PUSH1 0x20 PUSH2 0x160C PUSH1 0x4 CALLDATALOAD PUSH2 0x2880 JUMP JUMPDEST CALLVALUE PUSH2 0x236 JUMPI PUSH1 0x0 CALLDATASIZE PUSH1 0x3 NOT ADD SLT PUSH2 0x236 JUMPI PUSH1 0x20 PUSH1 0x40 MLOAD PUSH1 0x0 DUP2 MSTORE RETURN JUMPDEST CALLVALUE PUSH2 0x236 JUMPI PUSH1 0x0 CALLDATASIZE PUSH1 0x3 NOT ADD SLT PUSH2 0x236 JUMPI PUSH1 0x20 PUSH1 0x40 MLOAD PUSH1 0xA DUP2 MSTORE RETURN JUMPDEST CALLVALUE PUSH2 0x236 JUMPI PUSH1 0x20 CALLDATASIZE PUSH1 0x3 NOT ADD SLT PUSH2 0x236 JUMPI PUSH1 0x4 CALLDATALOAD PUSH2 0x16E5 PUSH2 0x2461 JUMP JUMPDEST PUSH1 0x0 DUP2 DUP2 MSTORE PUSH1 0x2 PUSH1 0x20 MSTORE PUSH1 0x40 SWAP1 KECCAK256 PUSH1 0x1 DUP2 ADD SLOAD PUSH1 0x1 PUSH1 0x1 PUSH1 0xA0 SHL SUB SWAP1 DUP2 AND SWAP2 SWAP1 PUSH2 0x1710 DUP4 ISZERO ISZERO PUSH2 0x2484 JUMP JUMPDEST PUSH1 0xB DUP3 ADD SWAP2 DUP3 SLOAD SWAP1 PUSH1 0xFF DUP3 AND PUSH1 0x5 DUP2 LT ISZERO PUSH2 0x51D JUMPI PUSH2 0x1801 JUMPI DUP5 CALLER EQ DUP1 ISZERO PUSH2 0x17F2 JUMPI JUMPDEST ISZERO PUSH2 0x17A1 JUMPI PUSH32 0x1D74C88FC8A136A8FB434DB3561E44ECBC5B4577D1F1EA7E30D97250EAD2CF2D SWAP5 PUSH1 0x40 SWAP5 PUSH1 0x4 PUSH2 0x178E SWAP5 PUSH1 0xFF NOT AND OR SWAP1 SSTORE PUSH1 0x4 DUP3 ADD SLOAD SWAP4 PUSH1 0x3 PUSH1 0x5 DUP5 ADD SWAP4 PUSH2 0x1782 DUP6 SLOAD DUP9 PUSH2 0x250A JUMP JUMPDEST SWAP7 DUP8 SWAP6 SSTORE ADD SLOAD AND PUSH2 0x25F1 JUMP JUMPDEST DUP2 MLOAD SWAP1 DUP2 MSTORE TIMESTAMP PUSH1 0x20 DUP3 ADD MSTORE LOG2 PUSH1 0x1 PUSH1 0x0 SSTORE STOP JUMPDEST PUSH1 0x40 MLOAD PUSH3 0x461BCD PUSH1 0xE5 SHL DUP2 MSTORE PUSH1 0x20 PUSH1 0x4 DUP3 ADD MSTORE PUSH1 0x24 DUP1 DUP3 ADD MSTORE PUSH32 0x4F6E6C792073657373696F6E207061727469636970616E74732063616E206361 PUSH1 0x44 DUP3 ADD MSTORE PUSH4 0x1B98D95B PUSH1 0xE2 SHL PUSH1 0x64 DUP3 ADD MSTORE PUSH1 0x84 SWAP1 REVERT JUMPDEST POP DUP3 PUSH1 0x2 DUP3 ADD SLOAD AND CALLER EQ PUSH2 0x1733 JUMP JUMPDEST PUSH1 0x40 MLOAD PUSH3 0x461BCD PUSH1 0xE5 SHL DUP2 MSTORE PUSH1 0x20 PUSH1 0x4 DUP3 ADD MSTORE PUSH1 0x17 PUSH1 0x24 DUP3 ADD MSTORE PUSH32 0x53657373696F6E20616C72656164792073746172746564000000000000000000 PUSH1 0x44 DUP3 ADD MSTORE PUSH1 0x64 SWAP1 REVERT JUMPDEST CALLVALUE PUSH2 0x236 JUMPI PUSH1 0x0 CALLDATASIZE PUSH1 0x3 NOT ADD SLT PUSH2 0x236 JUMPI PUSH2 0x185F PUSH2 0x231B JUMP JUMPDEST PUSH1 0x1 SLOAD PUSH1 0xFF DUP2 AND ISZERO PUSH2 0x189E JUMPI PUSH1 0xFF NOT AND PUSH1 0x1 SSTORE PUSH32 0x5DB9EE0A495BF2E6FF9C91A7834C1BA4FDD244A5E8AA4E537BD38AEAE4B073AA PUSH1 0x20 PUSH1 0x40 MLOAD CALLER DUP2 MSTORE LOG1 STOP JUMPDEST PUSH1 0x40 MLOAD PUSH4 0x8DFC202B PUSH1 0xE0 SHL DUP2 MSTORE PUSH1 0x4 SWAP1 REVERT JUMPDEST CALLVALUE PUSH2 0x236 JUMPI PUSH1 0x60 CALLDATASIZE PUSH1 0x3 NOT ADD SLT PUSH2 0x236 JUMPI PUSH1 0x4 CALLDATALOAD PUSH1 0x24 DUP1 CALLDATALOAD SWAP1 PUSH1 0x44 CALLDATALOAD PUSH8 0xFFFFFFFFFFFFFFFF DUP2 GT PUSH2 0x236 JUMPI PUSH2 0x18E9 SWAP1 CALLDATASIZE SWAP1 PUSH1 0x4 ADD PUSH2 0x22ED JUMP JUMPDEST POP POP PUSH2 0x18F3 PUSH2 0x2461 JUMP JUMPDEST DUP3 PUSH1 0x0 MSTORE PUSH1 0x2 PUSH1 0x20 MSTORE PUSH1 0x40 PUSH1 0x0 KECCAK256 SWAP1 PUSH1 0x1 DUP1 PUSH1 0xA0 SHL SUB SWAP3 DUP4 PUSH1 0x1 DUP5 ADD SLOAD AND PUSH2 0x191C DUP2 ISZERO ISZERO PUSH2 0x2484 JUMP JUMPDEST CALLER SUB PUSH2 0x1AFD JUMPI PUSH1 0xB DUP4 ADD SWAP1 DUP2 SLOAD SWAP1 PUSH1 0xFF DUP3 AND PUSH1 0x5 DUP2 LT ISZERO PUSH2 0x1AE8 JUMPI PUSH1 0x1 DUP2 EQ SWAP1 DUP2 ISZERO PUSH2 0x1ADD JUMPI JUMPDEST POP ISZERO PUSH2 0x1A99 JUMPI PUSH1 0x1 DUP2 LT ISZERO SWAP1 DUP2 PUSH2 0x1A8D JUMPI JUMPDEST POP ISZERO PUSH2 0x1A49 JUMPI PUSH4 0x1000003 SWAP1 PUSH4 0xFF00FFFF NOT AND OR SWAP1 SSTORE PUSH1 0x4 DUP3 ADD SLOAD SWAP3 PUSH1 0x5 DUP4 ADD SWAP4 PUSH2 0x1981 DUP6 SLOAD DUP3 PUSH2 0x250A JUMP JUMPDEST SWAP3 PUSH1 0xA DUP5 MUL SWAP1 DUP5 DUP3 DIV PUSH1 0xA EQ DUP6 ISZERO OR ISZERO PUSH2 0x1A35 JUMPI POP SWAP2 PUSH2 0x19CC SWAP4 SWAP2 PUSH1 0x64 PUSH32 0x556195694FC082AD19415EAEC58C1584EC20066F6E655BE3034932C454D38A23 SWAP8 SWAP7 SWAP5 DIV SWAP5 DUP6 DUP1 SWAP5 PUSH2 0x250A JUMP JUMPDEST SWAP6 SSTORE DUP5 PUSH2 0x1A18 JUMPI JUMPDEST DUP2 PUSH2 0x19FB JUMPI JUMPDEST POP POP PUSH1 0x40 DUP1 MLOAD SWAP4 DUP5 MSTORE PUSH1 0x20 DUP5 ADD SWAP3 SWAP1 SWAP3 MSTORE POP TIMESTAMP SWAP1 DUP3 ADD MSTORE DUP1 PUSH1 0x60 DUP2 ADD PUSH2 0xA8F JUMP JUMPDEST DUP1 PUSH1 0x3 PUSH2 0x1A10 SWAP5 ADD SLOAD AND SWAP1 PUSH1 0x4 SLOAD AND SWAP1 PUSH2 0x25F1 JUMP JUMPDEST DUP5 DUP2 DUP2 PUSH2 0x19DA JUMP JUMPDEST PUSH2 0x1A30 DUP6 DUP3 PUSH1 0x3 DUP7 ADD SLOAD AND DUP4 PUSH1 0x2 DUP8 ADD SLOAD AND SWAP1 PUSH2 0x25F1 JUMP JUMPDEST PUSH2 0x19D4 JUMP JUMPDEST PUSH4 0x4E487B71 PUSH1 0xE0 SHL PUSH1 0x0 SWAP1 DUP2 MSTORE PUSH1 0x11 PUSH1 0x4 MSTORE REVERT JUMPDEST PUSH1 0x40 MLOAD PUSH3 0x461BCD PUSH1 0xE5 SHL DUP2 MSTORE PUSH1 0x20 PUSH1 0x4 DUP3 ADD MSTORE PUSH1 0x1E DUP2 DUP6 ADD MSTORE PUSH32 0x526174696E67206D757374206265206265747765656E203120616E6420350000 PUSH1 0x44 DUP3 ADD MSTORE PUSH1 0x64 SWAP1 REVERT JUMPDEST PUSH1 0x5 SWAP2 POP GT ISZERO DUP8 PUSH2 0x1955 JUMP JUMPDEST PUSH1 0x40 MLOAD PUSH3 0x461BCD PUSH1 0xE5 SHL DUP2 MSTORE PUSH1 0x20 PUSH1 0x4 DUP3 ADD DUP2 SWAP1 MSTORE DUP2 DUP7 ADD MSTORE PUSH32 0x53657373696F6E206E6F7420726561647920666F7220636F6D706C6574696F6E PUSH1 0x44 DUP3 ADD MSTORE PUSH1 0x64 SWAP1 REVERT JUMPDEST PUSH1 0x2 SWAP2 POP EQ DUP9 PUSH2 0x1943 JUMP JUMPDEST DUP5 PUSH4 0x4E487B71 PUSH1 0xE0 SHL PUSH1 0x0 MSTORE PUSH1 0x21 PUSH1 0x4 MSTORE PUSH1 0x0 REVERT JUMPDEST PUSH1 0x40 MLOAD PUSH3 0x461BCD PUSH1 0xE5 SHL DUP2 MSTORE PUSH1 0x20 PUSH1 0x4 DUP3 ADD MSTORE PUSH1 0x21 DUP2 DUP5 ADD MSTORE PUSH32 0x4F6E6C792073747564656E742063616E20636F6D706C6574652073657373696F PUSH1 0x44 DUP3 ADD MSTORE PUSH1 0x37 PUSH1 0xF9 SHL PUSH1 0x64 DUP3 ADD MSTORE PUSH1 0x84 SWAP1 REVERT JUMPDEST CALLVALUE PUSH2 0x236 JUMPI PUSH1 0x20 CALLDATASIZE PUSH1 0x3 NOT ADD SLT PUSH2 0x236 JUMPI PUSH1 0x0 PUSH2 0x1C0 PUSH1 0x40 MLOAD PUSH2 0x1B6D DUP2 PUSH2 0x2396 JUMP JUMPDEST DUP3 DUP2 MSTORE DUP3 PUSH1 0x20 DUP3 ADD MSTORE DUP3 PUSH1 0x40 DUP3 ADD MSTORE DUP3 PUSH1 0x60 DUP3 ADD MSTORE DUP3 PUSH1 0x80 DUP3 ADD MSTORE DUP3 PUSH1 0xA0 DUP3 ADD MSTORE DUP3 PUSH1 0xC0 DUP3 ADD MSTORE DUP3 PUSH1 0xE0 DUP3 ADD MSTORE DUP3 PUSH2 0x100 DUP3 ADD MSTORE DUP3 PUSH2 0x120 DUP3 ADD MSTORE DUP3 PUSH2 0x140 DUP3 ADD MSTORE DUP3 PUSH2 0x160 DUP3 ADD MSTORE DUP3 PUSH2 0x180 DUP3 ADD MSTORE DUP3 PUSH2 0x1A0 DUP3 ADD MSTORE ADD MSTORE PUSH1 0x4 CALLDATALOAD PUSH1 0x0 MSTORE PUSH1 0x2 PUSH1 0x20 MSTORE PUSH2 0x1E0 PUSH1 0x40 PUSH1 0x0 KECCAK256 PUSH1 0xFF PUSH1 0xB PUSH1 0x40 MLOAD SWAP3 PUSH2 0x1BEA DUP5 PUSH2 0x2396 JUMP JUMPDEST DUP1 SLOAD DUP5 MSTORE PUSH1 0x1 DUP2 ADD SLOAD PUSH1 0x1 PUSH1 0x1 PUSH1 0xA0 SHL SUB SWAP1 DUP2 AND PUSH1 0x20 DUP7 ADD MSTORE PUSH1 0x2 DUP3 ADD SLOAD DUP2 AND PUSH1 0x40 DUP7 ADD MSTORE PUSH1 0x3 DUP3 ADD SLOAD AND PUSH1 0x60 DUP6 ADD MSTORE PUSH1 0x4 DUP2 ADD SLOAD PUSH1 0x80 DUP6 ADD MSTORE PUSH1 0x5 DUP2 ADD SLOAD PUSH1 0xA0 DUP6 ADD MSTORE PUSH1 0x6 DUP2 ADD SLOAD PUSH1 0xC0 DUP6 ADD MSTORE PUSH1 0x7 DUP2 ADD SLOAD PUSH1 0xE0 DUP6 ADD MSTORE PUSH1 0x8 DUP2 ADD SLOAD PUSH2 0x100 DUP6 ADD MSTORE PUSH1 0x9 DUP2 ADD SLOAD PUSH2 0x120 DUP6 ADD MSTORE PUSH1 0xA DUP2 ADD SLOAD PUSH2 0x140 DUP6 ADD MSTORE ADD SLOAD PUSH2 0x1C75 DUP3 DUP3 AND PUSH2 0x160 DUP6 ADD PUSH2 0x23CF JUMP JUMPDEST DUP2 DUP2 PUSH1 0x8 SHR AND ISZERO ISZERO PUSH2 0x180 DUP5 ADD MSTORE DUP2 DUP2 PUSH1 0x10 SHR AND ISZERO ISZERO PUSH2 0x1A0 DUP5 ADD MSTORE PUSH1 0x18 SHR AND ISZERO ISZERO PUSH2 0x1C0 DUP3 ADD MSTORE PUSH2 0x1C0 PUSH1 0x40 MLOAD SWAP2 DUP1 MLOAD DUP4 MSTORE PUSH1 0x1 DUP1 PUSH1 0xA0 SHL SUB PUSH1 0x20 DUP3 ADD MLOAD AND PUSH1 0x20 DUP5 ADD MSTORE PUSH1 0x1 DUP1 PUSH1 0xA0 SHL SUB PUSH1 0x40 DUP3 ADD MLOAD AND PUSH1 0x40 DUP5 ADD MSTORE PUSH1 0x1 DUP1 PUSH1 0xA0 SHL SUB PUSH1 0x60 DUP3 ADD MLOAD AND PUSH1 0x60 DUP5 ADD MSTORE PUSH1 0x80 DUP2 ADD MLOAD PUSH1 0x80 DUP5 ADD MSTORE PUSH1 0xA0 DUP2 ADD MLOAD PUSH1 0xA0 DUP5 ADD MSTORE PUSH1 0xC0 DUP2 ADD MLOAD PUSH1 0xC0 DUP5 ADD MSTORE PUSH1 0xE0 DUP2 ADD MLOAD PUSH1 0xE0 DUP5 ADD MSTORE PUSH2 0x100 DUP2 ADD MLOAD PUSH2 0x100 DUP5 ADD MSTORE PUSH2 0x120 DUP2 ADD MLOAD PUSH2 0x120 DUP5 ADD MSTORE PUSH2 0x140 DUP2 ADD MLOAD PUSH2 0x140 DUP5 ADD MSTORE PUSH2 0x1D3E PUSH2 0x160 DUP3 ADD MLOAD PUSH2 0x160 DUP6 ADD SWAP1 PUSH2 0x22E0 JUMP JUMPDEST PUSH2 0x180 DUP2 ADD MLOAD ISZERO ISZERO PUSH2 0x180 DUP5 ADD MSTORE PUSH2 0x1A0 DUP2 ADD MLOAD ISZERO ISZERO PUSH2 0x1A0 DUP5 ADD MSTORE ADD MLOAD ISZERO ISZERO PUSH2 0x1C0 DUP3 ADD MSTORE RETURN JUMPDEST CALLVALUE PUSH2 0x236 JUMPI PUSH1 0x0 CALLDATASIZE PUSH1 0x3 NOT ADD SLT PUSH2 0x236 JUMPI PUSH1 0x20 PUSH1 0x40 MLOAD PUSH1 0xB4 DUP2 MSTORE RETURN JUMPDEST CALLVALUE PUSH2 0x236 JUMPI PUSH1 0x0 CALLDATASIZE PUSH1 0x3 NOT ADD SLT PUSH2 0x236 JUMPI PUSH1 0x20 PUSH1 0x40 MLOAD PUSH1 0x1E DUP2 MSTORE RETURN JUMPDEST CALLVALUE PUSH2 0x236 JUMPI PUSH1 0x20 CALLDATASIZE PUSH1 0x3 NOT ADD SLT PUSH2 0x236 JUMPI PUSH1 0x4 CALLDATALOAD PUSH2 0x1DBA PUSH2 0x2461 JUMP JUMPDEST PUSH1 0x0 DUP2 DUP2 MSTORE PUSH1 0x2 PUSH1 0x20 MSTORE PUSH1 0x40 SWAP1 KECCAK256 PUSH1 0x1 DUP2 ADD SLOAD PUSH1 0x1 PUSH1 0x1 PUSH1 0xA0 SHL SUB SWAP2 SWAP1 PUSH2 0x1DE4 SWAP1 DUP4 AND ISZERO ISZERO PUSH2 0x2484 JUMP JUMPDEST PUSH1 0xB DUP2 ADD DUP1 SLOAD PUSH1 0xFF DUP2 AND PUSH1 0x5 DUP2 LT ISZERO PUSH2 0x51D JUMPI PUSH1 0x1 DUP2 EQ SWAP1 DUP2 ISZERO PUSH2 0x1F22 JUMPI JUMPDEST POP ISZERO PUSH2 0x1ECC JUMPI PUSH1 0xA DUP4 ADD SLOAD PUSH3 0x93A80 DUP2 ADD DUP1 SWAP2 GT PUSH2 0x622 JUMPI TIMESTAMP LT PUSH2 0x1E87 JUMPI PUSH1 0x3 SWAP1 PUSH2 0xFFFF NOT AND OR SWAP1 SSTORE PUSH1 0x4 DUP2 ADD SLOAD SWAP2 PUSH1 0x5 DUP3 ADD SWAP2 PUSH2 0x1E42 DUP4 SLOAD DUP6 PUSH2 0x250A JUMP JUMPDEST PUSH1 0xA DUP2 MUL SWAP3 DUP2 DUP5 DIV PUSH1 0xA EQ DUP3 ISZERO OR ISZERO PUSH2 0x622 JUMPI PUSH32 0x556195694FC082AD19415EAEC58C1584EC20066F6E655BE3034932C454D38A23 SWAP6 PUSH1 0x64 PUSH2 0x19CC SWAP6 DIV SWAP5 DUP6 DUP1 SWAP5 PUSH2 0x250A JUMP JUMPDEST PUSH1 0x40 MLOAD PUSH3 0x461BCD PUSH1 0xE5 SHL DUP2 MSTORE PUSH1 0x20 PUSH1 0x4 DUP3 ADD MSTORE PUSH1 0x1E PUSH1 0x24 DUP3 ADD MSTORE PUSH32 0x4175746F2D72656C656173652064656C6179206E6F7420726561636865640000 PUSH1 0x44 DUP3 ADD MSTORE PUSH1 0x64 SWAP1 REVERT JUMPDEST PUSH1 0x40 MLOAD PUSH3 0x461BCD PUSH1 0xE5 SHL DUP2 MSTORE PUSH1 0x20 PUSH1 0x4 DUP3 ADD MSTORE PUSH1 0x28 PUSH1 0x24 DUP3 ADD MSTORE PUSH32 0x53657373696F6E206E6F7420656C696769626C6520666F72206175746F2D636F PUSH1 0x44 DUP3 ADD MSTORE PUSH8 0x36B83632BA34B7B7 PUSH1 0xC1 SHL PUSH1 0x64 DUP3 ADD MSTORE PUSH1 0x84 SWAP1 REVERT JUMPDEST PUSH1 0x2 SWAP2 POP EQ DUP7 PUSH2 0x1E03 JUMP JUMPDEST CALLVALUE PUSH2 0x236 JUMPI PUSH1 0x60 CALLDATASIZE PUSH1 0x3 NOT ADD SLT PUSH2 0x236 JUMPI PUSH2 0x1F46 PUSH2 0x22B4 JUMP JUMPDEST PUSH2 0x1F4E PUSH2 0x22CA JUMP JUMPDEST SWAP1 PUSH2 0x1F57 PUSH2 0x231B JUMP JUMPDEST PUSH1 0x1 PUSH1 0x1 PUSH1 0xA0 SHL SUB SWAP1 PUSH2 0x1F6D DUP4 DUP4 AND ISZERO ISZERO PUSH2 0x2C78 JUMP JUMPDEST AND DUP1 ISZERO PUSH2 0x1F81 JUMPI PUSH2 0x4E SWAP2 PUSH1 0x44 CALLDATALOAD SWAP2 PUSH2 0x2639 JUMP JUMPDEST PUSH1 0x40 MLOAD PUSH3 0x461BCD PUSH1 0xE5 SHL DUP2 MSTORE PUSH1 0x20 PUSH1 0x4 DUP3 ADD MSTORE PUSH1 0xD PUSH1 0x24 DUP3 ADD MSTORE PUSH13 0x24B73B30B634B2103A37B5B2B7 PUSH1 0x99 SHL PUSH1 0x44 DUP3 ADD MSTORE PUSH1 0x64 SWAP1 REVERT JUMPDEST CALLVALUE PUSH2 0x236 JUMPI PUSH1 0x20 CALLDATASIZE PUSH1 0x3 NOT ADD SLT PUSH2 0x236 JUMPI PUSH1 0x4 CALLDATALOAD PUSH1 0x0 MSTORE PUSH1 0x6 PUSH1 0x20 MSTORE PUSH1 0x20 PUSH1 0xFF PUSH1 0x40 PUSH1 0x0 KECCAK256 SLOAD AND PUSH1 0x40 MLOAD SWAP1 ISZERO ISZERO DUP2 MSTORE RETURN JUMPDEST CALLVALUE PUSH2 0x236 JUMPI PUSH1 0x60 CALLDATASIZE PUSH1 0x3 NOT ADD SLT PUSH2 0x236 JUMPI PUSH1 0x20 PUSH2 0x891 PUSH1 0x44 CALLDATALOAD PUSH1 0x24 CALLDATALOAD PUSH1 0x4 CALLDATALOAD PUSH2 0x2689 JUMP JUMPDEST CALLVALUE PUSH2 0x236 JUMPI PUSH1 0x0 CALLDATASIZE PUSH1 0x3 NOT ADD SLT PUSH2 0x236 JUMPI PUSH1 0x20 PUSH1 0x40 MLOAD PUSH3 0x93A80 DUP2 MSTORE RETURN JUMPDEST CALLVALUE PUSH2 0x236 JUMPI PUSH1 0x20 DUP1 PUSH1 0x3 NOT CALLDATASIZE ADD SLT PUSH2 0x236 JUMPI PUSH1 0x4 CALLDATALOAD PUSH2 0x2046 PUSH2 0x2461 JUMP JUMPDEST PUSH1 0x0 DUP2 DUP2 MSTORE PUSH1 0x2 DUP4 MSTORE PUSH1 0x40 SWAP1 KECCAK256 PUSH1 0x1 DUP2 ADD SLOAD PUSH1 0x1 PUSH1 0x1 PUSH1 0xA0 SHL SUB SWAP4 SWAP2 SWAP1 DUP5 AND SWAP1 PUSH2 0x2071 DUP3 ISZERO ISZERO PUSH2 0x2484 JUMP JUMPDEST PUSH1 0xB DUP2 ADD SLOAD SWAP2 PUSH1 0xFF DUP4 AND PUSH1 0x5 DUP2 LT ISZERO PUSH2 0x51D JUMPI PUSH1 0x1 PUSH2 0x2090 SWAP2 EQ PUSH2 0x24C9 JUMP JUMPDEST CALLER EQ DUP1 ISZERO PUSH2 0x22A5 JUMPI JUMPDEST ISZERO PUSH2 0x2249 JUMPI TIMESTAMP PUSH1 0x8 SWAP1 SWAP2 ADD SSTORE PUSH1 0x10 SHR PUSH1 0xFF AND PUSH2 0x20E0 JUMPI JUMPDEST PUSH32 0x3CF0BF7708060BF073B6DDB921EEF0485B3EB9DA828E0ED751FA6582EF337F57 SWAP1 PUSH1 0x40 MLOAD TIMESTAMP DUP2 MSTORE LOG2 PUSH1 0x1 PUSH1 0x0 SSTORE STOP JUMPDEST PUSH2 0x20E8 PUSH2 0x2461 JUMP JUMPDEST DUP2 PUSH1 0x0 MSTORE PUSH1 0x2 DUP2 MSTORE PUSH1 0x40 PUSH1 0x0 KECCAK256 DUP4 PUSH1 0x1 DUP3 ADD SLOAD AND SWAP4 PUSH2 0x2108 DUP6 ISZERO ISZERO PUSH2 0x2484 JUMP JUMPDEST PUSH1 0xB DUP3 ADD SWAP1 DUP2 SLOAD SWAP6 PUSH1 0xFF DUP8 AND PUSH1 0x5 DUP2 LT ISZERO PUSH2 0x51D JUMPI PUSH1 0x2 SUB PUSH2 0x220F JUMPI CALLER EQ SWAP1 DUP2 ISZERO PUSH2 0x21FF JUMPI JUMPDEST POP ISZERO PUSH2 0x21AE JUMPI PUSH1 0x1 PUSH32 0x3CF0BF7708060BF073B6DDB921EEF0485B3EB9DA828E0ED751FA6582EF337F57 SWAP5 SWAP6 PUSH1 0x8 DUP5 ADD SWAP4 PUSH2 0x216E PUSH1 0x9 PUSH2 0xEBF DUP8 SLOAD TIMESTAMP PUSH2 0x250A JUMP JUMPDEST SWAP1 SSTORE PUSH3 0xFF00FF NOT AND OR SWAP1 SSTORE TIMESTAMP SWAP1 SSTORE DUP3 PUSH32 0x3DD443712F1BB154053901F56EF4A45320CAEEE475FC1B8F448ABB8A5ABD7EC1 DUP3 PUSH1 0x40 MLOAD TIMESTAMP DUP2 MSTORE LOG2 DUP3 SWAP2 POP PUSH2 0x20B0 JUMP JUMPDEST PUSH1 0x40 MLOAD PUSH3 0x461BCD PUSH1 0xE5 SHL DUP2 MSTORE PUSH1 0x4 DUP2 ADD DUP5 SWAP1 MSTORE PUSH1 0x24 DUP1 DUP3 ADD MSTORE PUSH32 0x4F6E6C792073657373696F6E207061727469636970616E74732063616E207265 PUSH1 0x44 DUP3 ADD MSTORE PUSH4 0x73756D65 PUSH1 0xE0 SHL PUSH1 0x64 DUP3 ADD MSTORE PUSH1 0x84 SWAP1 REVERT JUMPDEST SWAP1 POP PUSH1 0x2 DUP4 ADD SLOAD AND CALLER EQ DUP7 PUSH2 0x212E JUMP JUMPDEST PUSH1 0x40 MLOAD PUSH3 0x461BCD PUSH1 0xE5 SHL DUP2 MSTORE PUSH1 0x4 DUP2 ADD DUP7 SWAP1 MSTORE PUSH1 0x12 PUSH1 0x24 DUP3 ADD MSTORE PUSH18 0x14D95CDCDA5BDB881B9BDD081C185D5CD959 PUSH1 0x72 SHL PUSH1 0x44 DUP3 ADD MSTORE PUSH1 0x64 SWAP1 REVERT JUMPDEST PUSH1 0x40 MLOAD PUSH3 0x461BCD PUSH1 0xE5 SHL DUP2 MSTORE PUSH1 0x4 DUP2 ADD DUP5 SWAP1 MSTORE PUSH1 0x2E PUSH1 0x24 DUP3 ADD MSTORE PUSH32 0x4F6E6C792073657373696F6E207061727469636970616E74732063616E207570 PUSH1 0x44 DUP3 ADD MSTORE PUSH14 0x19185D19481A19585C9D1899585D PUSH1 0x92 SHL PUSH1 0x64 DUP3 ADD MSTORE PUSH1 0x84 SWAP1 REVERT JUMPDEST POP DUP5 PUSH1 0x2 DUP3 ADD SLOAD AND CALLER EQ PUSH2 0x2099 JUMP JUMPDEST PUSH1 0x4 CALLDATALOAD SWAP1 PUSH1 0x1 PUSH1 0x1 PUSH1 0xA0 SHL SUB DUP3 AND DUP3 SUB PUSH2 0x236 JUMPI JUMP JUMPDEST PUSH1 0x24 CALLDATALOAD SWAP1 PUSH1 0x1 PUSH1 0x1 PUSH1 0xA0 SHL SUB DUP3 AND DUP3 SUB PUSH2 0x236 JUMPI JUMP JUMPDEST SWAP1 PUSH1 0x5 DUP3 LT ISZERO PUSH2 0x51D JUMPI MSTORE JUMP JUMPDEST SWAP2 DUP2 PUSH1 0x1F DUP5 ADD SLT ISZERO PUSH2 0x236 JUMPI DUP3 CALLDATALOAD SWAP2 PUSH8 0xFFFFFFFFFFFFFFFF DUP4 GT PUSH2 0x236 JUMPI PUSH1 0x20 DUP4 DUP2 DUP7 ADD SWAP6 ADD ADD GT PUSH2 0x236 JUMPI JUMP JUMPDEST PUSH1 0x1 SLOAD PUSH1 0x8 SHR PUSH1 0x1 PUSH1 0x1 PUSH1 0xA0 SHL SUB AND CALLER SUB PUSH2 0x2332 JUMPI JUMP JUMPDEST PUSH1 0x40 MLOAD PUSH4 0x118CDAA7 PUSH1 0xE0 SHL DUP2 MSTORE CALLER PUSH1 0x4 DUP3 ADD MSTORE PUSH1 0x24 SWAP1 REVERT JUMPDEST ISZERO PUSH2 0x2351 JUMPI JUMP JUMPDEST PUSH1 0x40 MLOAD PUSH3 0x461BCD PUSH1 0xE5 SHL DUP2 MSTORE PUSH1 0x20 PUSH1 0x4 DUP3 ADD MSTORE PUSH1 0x1D PUSH1 0x24 DUP3 ADD MSTORE PUSH32 0x416D6F756E74206D7573742062652067726561746572207468616E2030000000 PUSH1 0x44 DUP3 ADD MSTORE PUSH1 0x64 SWAP1 REVERT JUMPDEST PUSH2 0x1E0 DUP2 ADD SWAP1 DUP2 LT PUSH8 0xFFFFFFFFFFFFFFFF DUP3 GT OR PUSH2 0x5BD JUMPI PUSH1 0x40 MSTORE JUMP JUMPDEST PUSH1 0x40 DUP2 ADD SWAP1 DUP2 LT PUSH8 0xFFFFFFFFFFFFFFFF DUP3 GT OR PUSH2 0x5BD JUMPI PUSH1 0x40 MSTORE JUMP JUMPDEST PUSH1 0x5 DUP3 LT ISZERO PUSH2 0x51D JUMPI MSTORE JUMP JUMPDEST SWAP1 PUSH1 0x0 PUSH1 0x20 SWAP2 DUP3 DUP2 MLOAD SWAP2 ADD DUP3 DUP6 GAS CALL ISZERO PUSH2 0x2437 JUMPI PUSH1 0x0 MLOAD RETURNDATASIZE PUSH2 0x242E JUMPI POP PUSH1 0x1 PUSH1 0x1 PUSH1 0xA0 SHL SUB DUP2 AND EXTCODESIZE ISZERO JUMPDEST PUSH2 0x240C JUMPI POP JUMP JUMPDEST PUSH1 0x40 MLOAD PUSH4 0x5274AFE7 PUSH1 0xE0 SHL DUP2 MSTORE PUSH1 0x1 PUSH1 0x1 PUSH1 0xA0 SHL SUB SWAP1 SWAP2 AND PUSH1 0x4 DUP3 ADD MSTORE PUSH1 0x24 SWAP1 REVERT JUMPDEST PUSH1 0x1 EQ ISZERO PUSH2 0x2405 JUMP JUMPDEST PUSH1 0x40 MLOAD RETURNDATASIZE PUSH1 0x0 DUP3 RETURNDATACOPY RETURNDATASIZE SWAP1 REVERT JUMPDEST PUSH1 0xFF PUSH1 0x1 SLOAD AND PUSH2 0x244F JUMPI JUMP JUMPDEST PUSH1 0x40 MLOAD PUSH4 0xD93C0665 PUSH1 0xE0 SHL DUP2 MSTORE PUSH1 0x4 SWAP1 REVERT JUMPDEST PUSH1 0x2 PUSH1 0x0 SLOAD EQ PUSH2 0x2472 JUMPI PUSH1 0x2 PUSH1 0x0 SSTORE JUMP JUMPDEST PUSH1 0x40 MLOAD PUSH4 0x3EE5AEB5 PUSH1 0xE0 SHL DUP2 MSTORE PUSH1 0x4 SWAP1 REVERT JUMPDEST ISZERO PUSH2 0x248B JUMPI JUMP JUMPDEST PUSH1 0x40 MLOAD PUSH3 0x461BCD PUSH1 0xE5 SHL DUP2 MSTORE PUSH1 0x20 PUSH1 0x4 DUP3 ADD MSTORE PUSH1 0x16 PUSH1 0x24 DUP3 ADD MSTORE PUSH22 0x14D95CDCDA5BDB88191BD95CC81B9BDD08195E1A5CDD PUSH1 0x52 SHL PUSH1 0x44 DUP3 ADD MSTORE PUSH1 0x64 SWAP1 REVERT JUMPDEST ISZERO PUSH2 0x24D0 JUMPI JUMP JUMPDEST PUSH1 0x40 MLOAD PUSH3 0x461BCD PUSH1 0xE5 SHL DUP2 MSTORE PUSH1 0x20 PUSH1 0x4 DUP3 ADD MSTORE PUSH1 0x12 PUSH1 0x24 DUP3 ADD MSTORE PUSH18 0x53657373696F6E206E6F7420616374697665 PUSH1 0x70 SHL PUSH1 0x44 DUP3 ADD MSTORE PUSH1 0x64 SWAP1 REVERT JUMPDEST SWAP2 SWAP1 DUP3 SUB SWAP2 DUP3 GT PUSH2 0x622 JUMPI JUMP JUMPDEST SWAP2 SWAP1 DUP3 ADD DUP1 SWAP3 GT PUSH2 0x622 JUMPI JUMP JUMPDEST ISZERO PUSH2 0x252B JUMPI JUMP JUMPDEST PUSH1 0x40 MLOAD PUSH3 0x461BCD PUSH1 0xE5 SHL DUP2 MSTORE PUSH1 0x20 PUSH1 0x4 DUP3 ADD MSTORE PUSH1 0x11 PUSH1 0x24 DUP3 ADD MSTORE PUSH17 0x125B9D985B1A59081C9958DA5C1A595B9D PUSH1 0x7A SHL PUSH1 0x44 DUP3 ADD MSTORE PUSH1 0x64 SWAP1 REVERT JUMPDEST RETURNDATASIZE ISZERO PUSH2 0x25AA JUMPI PUSH8 0xFFFFFFFFFFFFFFFF SWAP1 RETURNDATASIZE DUP3 DUP2 GT PUSH2 0x5BD JUMPI PUSH1 0x40 MLOAD SWAP3 PUSH1 0x1F DUP3 ADD PUSH1 0x1F NOT SWAP1 DUP2 AND PUSH1 0x3F ADD AND DUP5 ADD SWAP1 DUP2 GT DUP5 DUP3 LT OR PUSH2 0x5BD JUMPI PUSH1 0x40 MSTORE DUP3 MSTORE RETURNDATASIZE PUSH1 0x0 PUSH1 0x20 DUP5 ADD RETURNDATACOPY JUMP JUMPDEST PUSH1 0x60 SWAP1 JUMP JUMPDEST ISZERO PUSH2 0x25B6 JUMPI JUMP JUMPDEST PUSH1 0x40 MLOAD PUSH3 0x461BCD PUSH1 0xE5 SHL DUP2 MSTORE PUSH1 0x20 PUSH1 0x4 DUP3 ADD MSTORE PUSH1 0x13 PUSH1 0x24 DUP3 ADD MSTORE PUSH19 0x115512081D1C985B9CD9995C8819985A5B1959 PUSH1 0x6A SHL PUSH1 0x44 DUP3 ADD MSTORE PUSH1 0x64 SWAP1 REVERT JUMPDEST PUSH1 0x1 PUSH1 0x1 PUSH1 0xA0 SHL SUB DUP1 DUP4 AND SWAP4 SWAP3 SWAP2 PUSH2 0x260A DUP6 ISZERO ISZERO PUSH2 0x2524 JUMP JUMPDEST PUSH2 0x2615 DUP5 ISZERO ISZERO PUSH2 0x234A JUMP JUMPDEST AND DUP1 PUSH2 0x2633 JUMPI POP POP PUSH1 0x0 DUP1 DUP1 DUP1 SWAP4 PUSH2 0x2631 SWAP6 GAS CALL PUSH2 0x8F0 PUSH2 0x2564 JUMP JUMPDEST JUMP JUMPDEST PUSH2 0x2631 SWAP4 POP JUMPDEST PUSH1 0x40 MLOAD PUSH4 0xA9059CBB PUSH1 0xE0 SHL PUSH1 0x20 DUP3 ADD MSTORE PUSH1 0x1 PUSH1 0x1 PUSH1 0xA0 SHL SUB SWAP1 SWAP3 AND PUSH1 0x24 DUP4 ADD MSTORE PUSH1 0x44 DUP1 DUP4 ADD SWAP4 SWAP1 SWAP4 MSTORE SWAP2 DUP2 MSTORE PUSH1 0x80 DUP2 ADD SWAP2 PUSH8 0xFFFFFFFFFFFFFFFF DUP4 GT DUP3 DUP5 LT OR PUSH2 0x5BD JUMPI PUSH2 0x2631 SWAP3 PUSH1 0x40 MSTORE PUSH2 0x23DB JUMP JUMPDEST SWAP2 SWAP1 SWAP2 DUP3 ISZERO DUP1 ISZERO PUSH2 0x26F7 JUMPI JUMPDEST PUSH2 0x26EF JUMPI PUSH1 0x5A DUP2 MUL SWAP1 DUP1 DUP3 DIV PUSH1 0x5A EQ SWAP1 ISZERO OR ISZERO PUSH2 0x622 JUMPI PUSH1 0x64 SWAP1 DIV SWAP2 DUP1 DUP4 MUL SWAP1 DUP4 DUP3 DIV EQ DUP4 ISZERO OR ISZERO PUSH2 0x622 JUMPI DUP2 ISZERO PUSH2 0x26D9 JUMPI DIV SWAP1 DUP1 DUP3 GT PUSH2 0x26D4 JUMPI POP SWAP1 JUMP JUMPDEST SWAP1 POP SWAP1 JUMP JUMPDEST PUSH4 0x4E487B71 PUSH1 0xE0 SHL PUSH1 0x0 MSTORE PUSH1 0x12 PUSH1 0x4 MSTORE PUSH1 0x24 PUSH1 0x0 REVERT JUMPDEST POP POP POP PUSH1 0x0 SWAP1 JUMP JUMPDEST POP DUP2 ISZERO PUSH2 0x2695 JUMP JUMPDEST PUSH1 0x0 MSTORE PUSH1 0x2 PUSH1 0x20 MSTORE PUSH1 0x40 PUSH1 0x0 KECCAK256 PUSH1 0x40 MLOAD SWAP1 PUSH2 0x2719 DUP3 PUSH2 0x2396 JUMP JUMPDEST DUP1 SLOAD DUP3 MSTORE PUSH1 0x1 DUP1 PUSH1 0xA0 SHL SUB DUP1 PUSH1 0x1 DUP4 ADD SLOAD AND PUSH1 0x20 DUP5 ADD MSTORE DUP1 PUSH1 0x2 DUP4 ADD SLOAD AND PUSH1 0x40 DUP5 ADD MSTORE PUSH1 0x3 DUP3 ADD SLOAD AND PUSH1 0x60 DUP4 ADD MSTORE PUSH1 0x4 DUP2 ADD SLOAD PUSH1 0x80 DUP4 ADD MSTORE PUSH1 0x5 DUP2 ADD SLOAD PUSH1 0xA0 DUP4 ADD MSTORE PUSH1 0x6 DUP2 ADD SLOAD PUSH1 0xC0 DUP4 ADD MSTORE PUSH1 0x7 DUP2 ADD SLOAD PUSH1 0xE0 DUP4 ADD SWAP1 DUP2 MSTORE PUSH1 0x8 DUP3 ADD SLOAD SWAP1 PUSH2 0x100 DUP5 ADD SWAP2 DUP3 MSTORE PUSH1 0xB PUSH1 0x9 DUP5 ADD SLOAD SWAP4 PUSH2 0x120 DUP7 ADD SWAP5 DUP6 MSTORE PUSH1 0xA DUP2 ADD SLOAD PUSH2 0x140 DUP8 ADD MSTORE ADD SLOAD SWAP4 PUSH2 0x27AE PUSH1 0xFF DUP7 AND PUSH2 0x160 DUP4 ADD PUSH2 0x23CF JUMP JUMPDEST PUSH1 0xFF DUP6 PUSH1 0x8 SHR AND ISZERO ISZERO PUSH2 0x180 DUP3 ADD MSTORE PUSH2 0x1C0 PUSH1 0xFF PUSH2 0x1A0 DUP4 ADD SWAP7 DUP2 DUP2 PUSH1 0x10 SHR AND ISZERO ISZERO DUP9 MSTORE PUSH1 0x18 SHR AND ISZERO ISZERO SWAP2 ADD MSTORE DUP1 MLOAD ISZERO PUSH2 0x2845 JUMPI PUSH2 0x27ED SWAP1 MLOAD TIMESTAMP PUSH2 0x250A JUMP JUMPDEST SWAP2 MLOAD SWAP3 MLOAD ISZERO ISZERO DUP1 PUSH2 0x283B JUMPI JUMPDEST PUSH2 0x281E JUMPI JUMPDEST POP DUP2 DUP2 GT ISZERO PUSH2 0x2817 JUMPI PUSH1 0x3C SWAP2 PUSH2 0x2813 SWAP2 PUSH2 0x250A JUMP JUMPDEST DIV SWAP1 JUMP JUMPDEST POP POP PUSH1 0x0 SWAP1 JUMP JUMPDEST SWAP2 PUSH2 0x282E PUSH2 0x2834 SWAP3 SWAP4 MLOAD TIMESTAMP PUSH2 0x250A JUMP JUMPDEST SWAP1 PUSH2 0x2517 JUMP JUMPDEST SWAP1 CODESIZE PUSH2 0x27FE JUMP JUMPDEST POP DUP1 MLOAD ISZERO ISZERO PUSH2 0x27F9 JUMP JUMPDEST PUSH1 0x40 MLOAD PUSH3 0x461BCD PUSH1 0xE5 SHL DUP2 MSTORE PUSH1 0x20 PUSH1 0x4 DUP3 ADD MSTORE PUSH1 0x13 PUSH1 0x24 DUP3 ADD MSTORE PUSH19 0x14D95CDCDA5BDB881B9BDD081CDD185C9D1959 PUSH1 0x6A SHL PUSH1 0x44 DUP3 ADD MSTORE PUSH1 0x64 SWAP1 REVERT JUMPDEST PUSH1 0x0 SWAP1 DUP2 MSTORE PUSH1 0x2 PUSH1 0x20 MSTORE PUSH1 0x40 DUP2 KECCAK256 PUSH1 0x40 MLOAD PUSH2 0x289A DUP2 PUSH2 0x2396 JUMP JUMPDEST DUP2 SLOAD DUP2 MSTORE PUSH1 0x1 DUP1 PUSH1 0xA0 SHL SUB DUP1 PUSH1 0x1 DUP5 ADD SLOAD AND PUSH1 0x20 DUP4 ADD MSTORE DUP1 PUSH1 0x2 DUP5 ADD SLOAD AND PUSH1 0x40 DUP4 ADD MSTORE PUSH1 0x3 DUP4 ADD SLOAD AND PUSH1 0x60 DUP3 ADD MSTORE PUSH1 0x4 DUP3 ADD SLOAD PUSH1 0x80 DUP3 ADD MSTORE PUSH1 0x5 DUP3 ADD SLOAD PUSH1 0xA0 DUP3 ADD MSTORE PUSH1 0x6 DUP3 ADD SLOAD PUSH1 0xC0 DUP3 ADD MSTORE PUSH1 0x7 DUP3 ADD SLOAD PUSH1 0xE0 DUP3 ADD MSTORE PUSH1 0xB PUSH1 0x8 DUP4 ADD SLOAD SWAP3 PUSH2 0x100 DUP4 ADD SWAP4 DUP5 MSTORE PUSH1 0x9 DUP2 ADD SLOAD PUSH2 0x120 DUP5 ADD MSTORE PUSH1 0xA DUP2 ADD SLOAD PUSH2 0x140 DUP5 ADD MSTORE ADD SLOAD SWAP1 PUSH2 0x1C0 PUSH1 0xFF PUSH2 0x160 DUP4 ADD SWAP4 PUSH2 0x2930 DUP3 DUP3 AND DUP7 PUSH2 0x23CF JUMP JUMPDEST DUP2 DUP2 PUSH1 0x8 SHR AND ISZERO ISZERO PUSH2 0x180 DUP6 ADD MSTORE DUP2 DUP2 PUSH1 0x10 SHR AND ISZERO ISZERO PUSH2 0x1A0 DUP6 ADD MSTORE PUSH1 0x18 SHR AND ISZERO ISZERO SWAP2 ADD MSTORE MLOAD PUSH1 0x5 DUP2 LT ISZERO PUSH2 0x29A2 JUMPI PUSH1 0x1 EQ DUP1 ISZERO SWAP1 PUSH2 0x2999 JUMPI JUMPDEST PUSH2 0x2995 JUMPI MLOAD SWAP1 PUSH1 0x1E DUP3 ADD DUP1 SWAP3 GT PUSH2 0x2981 JUMPI POP TIMESTAMP GT SWAP1 JUMP JUMPDEST PUSH4 0x4E487B71 PUSH1 0xE0 SHL DUP2 MSTORE PUSH1 0x11 PUSH1 0x4 MSTORE PUSH1 0x24 SWAP1 REVERT JUMPDEST POP SWAP1 JUMP JUMPDEST POP DUP1 MLOAD ISZERO PUSH2 0x296A JUMP JUMPDEST PUSH4 0x4E487B71 PUSH1 0xE0 SHL DUP4 MSTORE PUSH1 0x21 PUSH1 0x4 MSTORE PUSH1 0x24 DUP4 REVERT JUMPDEST PUSH1 0x0 SWAP1 DUP2 MSTORE PUSH1 0x2 PUSH1 0x20 MSTORE PUSH1 0x40 DUP2 KECCAK256 PUSH1 0x40 MLOAD PUSH2 0x29D0 DUP2 PUSH2 0x2396 JUMP JUMPDEST DUP2 SLOAD DUP2 MSTORE PUSH1 0x1 DUP3 ADD SLOAD PUSH1 0x1 PUSH1 0x1 PUSH1 0xA0 SHL SUB SWAP1 DUP2 AND PUSH1 0x20 DUP4 ADD MSTORE PUSH1 0x2 DUP4 ADD SLOAD DUP2 AND PUSH1 0x40 DUP4 ADD MSTORE PUSH1 0x3 DUP4 ADD SLOAD AND PUSH1 0x60 DUP3 ADD MSTORE PUSH1 0x4 DUP3 ADD SLOAD PUSH1 0x80 DUP3 ADD MSTORE PUSH1 0x5 DUP3 ADD SLOAD PUSH1 0xA0 DUP3 ADD MSTORE PUSH1 0x6 DUP3 ADD SLOAD PUSH1 0xC0 DUP3 ADD MSTORE PUSH1 0x7 DUP3 ADD SLOAD PUSH1 0xE0 DUP3 ADD MSTORE PUSH1 0x8 DUP3 ADD SLOAD PUSH2 0x100 DUP3 ADD SWAP1 DUP2 MSTORE PUSH1 0x9 DUP4 ADD SLOAD PUSH2 0x120 DUP4 ADD MSTORE PUSH1 0xA DUP4 ADD SLOAD PUSH2 0x140 DUP4 ADD MSTORE PUSH1 0xB SWAP1 SWAP3 ADD SLOAD SWAP1 PUSH2 0x160 DUP2 ADD SWAP1 PUSH2 0x2A65 PUSH1 0xFF DUP5 AND DUP4 PUSH2 0x23CF JUMP JUMPDEST PUSH1 0xFF DUP4 PUSH1 0x8 SHR AND ISZERO ISZERO PUSH2 0x180 DUP3 ADD MSTORE PUSH2 0x1C0 PUSH1 0xFF PUSH2 0x1A0 DUP4 ADD SWAP5 DUP2 DUP2 PUSH1 0x10 SHR AND ISZERO ISZERO DUP7 MSTORE PUSH1 0x18 SHR AND ISZERO ISZERO SWAP2 ADD MSTORE MLOAD PUSH1 0x5 DUP2 LT ISZERO PUSH2 0x2AFA JUMPI PUSH1 0x1 EQ SWAP1 DUP2 ISZERO SWAP2 PUSH2 0x2AEF JUMPI JUMPDEST POP DUP1 ISZERO PUSH2 0x2AE6 JUMPI JUMPDEST PUSH2 0x2995 JUMPI MLOAD SWAP1 PUSH1 0x1E DUP3 ADD SWAP2 DUP3 DUP2 GT PUSH2 0x2AD2 JUMPI PUSH1 0x96 ADD DUP1 SWAP3 GT PUSH2 0x2981 JUMPI POP TIMESTAMP GT SWAP1 JUMP JUMPDEST PUSH4 0x4E487B71 PUSH1 0xE0 SHL DUP3 MSTORE PUSH1 0x11 PUSH1 0x4 MSTORE PUSH1 0x24 DUP3 REVERT JUMPDEST POP DUP1 MLOAD ISZERO PUSH2 0x2AB0 JUMP JUMPDEST SWAP1 POP MLOAD ISZERO ISZERO CODESIZE PUSH2 0x2AA8 JUMP JUMPDEST PUSH4 0x4E487B71 PUSH1 0xE0 SHL DUP5 MSTORE PUSH1 0x21 PUSH1 0x4 MSTORE PUSH1 0x24 DUP5 REVERT JUMPDEST PUSH1 0x0 SWAP1 DUP1 DUP3 MSTORE PUSH1 0x2 PUSH1 0x20 MSTORE PUSH1 0x40 DUP3 KECCAK256 SWAP1 PUSH1 0x40 MLOAD SWAP2 PUSH2 0x2B2B DUP4 PUSH2 0x2396 JUMP JUMPDEST DUP1 SLOAD DUP4 MSTORE PUSH1 0x1 DUP1 PUSH1 0xA0 SHL SUB DUP1 PUSH1 0x1 DUP4 ADD SLOAD AND PUSH1 0x20 DUP6 ADD MSTORE DUP1 PUSH1 0x2 DUP4 ADD SLOAD AND PUSH1 0x40 DUP6 ADD MSTORE PUSH1 0x3 DUP3 ADD SLOAD AND PUSH1 0x60 DUP5 ADD MSTORE PUSH1 0x4 DUP2 ADD SLOAD PUSH1 0x80 DUP5 ADD SWAP1 DUP2 MSTORE PUSH1 0x5 DUP3 ADD SLOAD SWAP4 PUSH1 0xA0 DUP2 ADD SWAP5 DUP6 MSTORE PUSH1 0x6 DUP4 ADD SLOAD SWAP3 PUSH1 0xC0 DUP3 ADD SWAP4 DUP5 MSTORE PUSH1 0xB PUSH1 0x7 DUP3 ADD SLOAD SWAP2 PUSH1 0xE0 DUP5 ADD SWAP3 DUP4 MSTORE PUSH1 0x8 DUP2 ADD SLOAD PUSH2 0x100 DUP6 ADD MSTORE PUSH1 0x9 DUP2 ADD SLOAD PUSH2 0x120 DUP6 ADD MSTORE PUSH1 0xA DUP2 ADD SLOAD PUSH2 0x140 DUP6 ADD MSTORE ADD SLOAD SWAP2 PUSH2 0x160 DUP2 ADD SWAP1 PUSH2 0x2BC5 PUSH1 0xFF DUP6 AND DUP4 PUSH2 0x23CF JUMP JUMPDEST PUSH1 0xFF DUP5 PUSH1 0x8 SHR AND ISZERO ISZERO PUSH2 0x180 DUP3 ADD MSTORE PUSH2 0x1C0 PUSH1 0xFF PUSH2 0x1A0 DUP4 ADD SWAP6 DUP2 DUP2 PUSH1 0x10 SHR AND ISZERO ISZERO DUP8 MSTORE PUSH1 0x18 SHR AND ISZERO ISZERO SWAP2 ADD MSTORE MLOAD PUSH1 0x5 DUP2 LT ISZERO PUSH2 0x2C64 JUMPI PUSH1 0x1 EQ SWAP2 DUP3 ISZERO SWAP3 PUSH2 0x2C59 JUMPI JUMPDEST POP DUP2 ISZERO PUSH2 0x2C4F JUMPI JUMPDEST POP PUSH2 0x2C48 JUMPI PUSH2 0x2C21 PUSH2 0x2C2B SWAP4 PUSH2 0x26FF JUMP JUMPDEST SWAP1 MLOAD SWAP2 MLOAD SWAP2 PUSH2 0x2689 JUMP JUMPDEST SWAP1 MLOAD SWAP1 DUP2 DUP2 GT ISZERO PUSH2 0x2C43 JUMPI PUSH2 0x2C40 SWAP3 POP PUSH2 0x250A JUMP JUMPDEST SWAP1 JUMP JUMPDEST POP POP SWAP1 JUMP JUMPDEST POP POP POP POP SWAP1 JUMP JUMPDEST SWAP1 POP MLOAD ISZERO CODESIZE PUSH2 0x2C10 JUMP JUMPDEST MLOAD ISZERO ISZERO SWAP2 POP CODESIZE PUSH2 0x2C08 JUMP JUMPDEST PUSH4 0x4E487B71 PUSH1 0xE0 SHL DUP9 MSTORE PUSH1 0x21 PUSH1 0x4 MSTORE PUSH1 0x24 DUP9 REVERT JUMPDEST ISZERO PUSH2 0x2C7F JUMPI JUMP JUMPDEST PUSH1 0x40 MLOAD PUSH3 0x461BCD PUSH1 0xE5 SHL DUP2 MSTORE PUSH1 0x20 PUSH1 0x4 DUP3 ADD MSTORE PUSH1 0xF PUSH1 0x24 DUP3 ADD MSTORE PUSH15 0x496E76616C69642061646472657373 PUSH1 0x88 SHL PUSH1 0x44 DUP3 ADD MSTORE PUSH1 0x64 SWAP1 REVERT INVALID LOG1 PUSH5 0x736F6C6343 STOP ADDMOD EQ STOP EXP "},"gasEstimates":{"creation":{"codeDepositCost":"2291800","executionCost":"infinite","totalCost":"infinite"},"external":{"":"1044","AUTO_RELEASE_DELAY()":"169","ETH_TOKEN()":"455","GRACE_PERIOD()":"873","HEARTBEAT_INTERVAL()":"301","PLATFORM_FEE_PERCENT()":"433","PROGRESSIVE_RELEASE_INTERVAL()":"323","addSupportedToken(address)":"27113","autoCompleteSession(bytes32)":"infinite","calculateMaxRelease(uint256,uint256,uint256)":"482","cancelSession(bytes32)":"infinite","completeSession(bytes32,uint256,string)":"infinite","createProgressiveSession(bytes32,address,address,uint256,uint256,uint256)":"infinite","emergencyRelease(bytes32,address,uint256,string)":"infinite","emergencyWithdrawETH(address,uint256)":"infinite","emergencyWithdrawToken(address,address,uint256)":"infinite","getAvailablePayment(bytes32)":"infinite","getEffectiveElapsedTime(bytes32)":"infinite","getSession(bytes32)":"infinite","getUserNonce(address)":"2775","isTokenSupported(address)":"2897","needsHeartbeat(bytes32)":"26488","owner()":"2899","pause()":"30285","pauseSession(bytes32)":"infinite","paused()":"2614","platformWallet()":"3128","releaseProgressivePayment(bytes32)":"infinite","removeSupportedToken(address)":"27173","renounceOwnership()":"28529","resumeSession(bytes32)":"125836","sessions(bytes32)":"26478","shouldAutoPause(bytes32)":"26672","startProgressiveSession(bytes32)":"121543","supportedTokens(address)":"2809","transferOwnership(address)":"29012","unpause()":"27806","updateHeartbeat(bytes32)":"infinite","updatePlatformWallet(address)":"27311","usedSessionIds(bytes32)":"2394","userNonces(address)":"2533"},"internal":{"_transferPayment(address,address,uint256)":"infinite"}},"methodIdentifiers":{"AUTO_RELEASE_DELAY()":"09499aa6","ETH_TOKEN()":"58bc8337","GRACE_PERIOD()":"c1a287e2","HEARTBEAT_INTERVAL()":"34d1c8fe","PLATFORM_FEE_PERCENT()":"560d52d4","PROGRESSIVE_RELEASE_INTERVAL()":"363ec298","addSupportedToken(address)":"6d69fcaf","autoCompleteSession(bytes32)":"2b8a5f3b","calculateMaxRelease(uint256,uint256,uint256)":"1ac6af03","cancelSession(bytes32)":"4d213982","completeSession(bytes32,uint256,string)":"3a17ba64","createProgressiveSession(bytes32,address,address,uint256,uint256,uint256)":"f400272b","emergencyRelease(bytes32,address,uint256,string)":"79d55e77","emergencyWithdrawETH(address,uint256)":"d79e8567","emergencyWithdrawToken(address,address,uint256)":"277327a5","getAvailablePayment(bytes32)":"e906826c","getEffectiveElapsedTime(bytes32)":"962db93b","getSession(bytes32)":"39b240bd","getUserNonce(address)":"6834e3a8","isTokenSupported(address)":"75151b63","needsHeartbeat(bytes32)":"590a2cc1","owner()":"8da5cb5b","pause()":"8456cb59","pauseSession(bytes32)":"7ac1b469","paused()":"5c975abb","platformWallet()":"fa2af9da","releaseProgressivePayment(bytes32)":"ccb868dd","removeSupportedToken(address)":"76319190","renounceOwnership()":"715018a6","resumeSession(bytes32)":"99173d6b","sessions(bytes32)":"7dbd2832","shouldAutoPause(bytes32)":"6baae9cc","startProgressiveSession(bytes32)":"b817be4c","supportedTokens(address)":"68c4ac26","transferOwnership(address)":"f2fde38b","unpause()":"3f4ba83a","updateHeartbeat(bytes32)":"02ceb406","updatePlatformWallet(address)":"ada4ef30","usedSessionIds(bytes32)":"1c8b14a0","userNonces(address)":"2f7801f4"}},"storageLayout":{"storage":[{"astId":928,"contract":"contracts/ProgressiveEscrowV4.sol:ProgressiveEscrowV4","label":"_status","offset":0,"slot":"0","type":"t_uint256"},{"astId":818,"contract":"contracts/ProgressiveEscrowV4.sol:ProgressiveEscrowV4","label":"_paused","offset":0,"slot":"1","type":"t_bool"},{"astId":8,"contract":"contracts/ProgressiveEscrowV4.sol:ProgressiveEscrowV4","label":"_owner","offset":1,"slot":"1","type":"t_address"},{"astId":1080,"contract":"contracts/ProgressiveEscrowV4.sol:ProgressiveEscrowV4","label":"sessions","offset":0,"slot":"2","type":"t_mapping(t_bytes32,t_struct(ProgressiveSession)1054_storage)"},{"astId":1084,"contract":"contracts/ProgressiveEscrowV4.sol:ProgressiveEscrowV4","label":"supportedTokens","offset":0,"slot":"3","type":"t_mapping(t_address,t_bool)"},{"astId":1086,"contract":"contracts/ProgressiveEscrowV4.sol:ProgressiveEscrowV4","label":"platformWallet","offset":0,"slot":"4","type":"t_address"},{"astId":1090,"contract":"contracts/ProgressiveEscrowV4.sol:ProgressiveEscrowV4","label":"userNonces","offset":0,"slot":"5","type":"t_mapping(t_address,t_uint256)"},{"astId":1094,"contract":"contracts/ProgressiveEscrowV4.sol:ProgressiveEscrowV4","label":"usedSessionIds","offset":0,"slot":"6","type":"t_mapping(t_bytes32,t_bool)"}],"types":{"t_address":{"encoding":"inplace","label":"address","numberOfBytes":"20"},"t_bool":{"encoding":"inplace","label":"bool","numberOfBytes":"1"},"t_bytes32":{"encoding":"inplace","label":"bytes32","numberOfBytes":"32"},"t_enum(SessionStatus)1022":{"encoding":"inplace","label":"enum ProgressiveEscrowV4.SessionStatus","numberOfBytes":"1"},"t_mapping(t_address,t_bool)":{"encoding":"mapping","key":"t_address","label":"mapping(address => bool)","numberOfBytes":"32","value":"t_bool"},"t_mapping(t_address,t_uint256)":{"encoding":"mapping","key":"t_address","label":"mapping(address => uint256)","numberOfBytes":"32","value":"t_uint256"},"t_mapping(t_bytes32,t_bool)":{"encoding":"mapping","key":"t_bytes32","label":"mapping(bytes32 => bool)","numberOfBytes":"32","value":"t_bool"},"t_mapping(t_bytes32,t_struct(ProgressiveSession)1054_storage)":{"encoding":"mapping","key":"t_bytes32","label":"mapping(bytes32 => struct ProgressiveEscrowV4.ProgressiveSession)","numberOfBytes":"32","value":"t_struct(ProgressiveSession)1054_storage"},"t_struct(ProgressiveSession)1054_storage":{"encoding":"inplace","label":"struct ProgressiveEscrowV4.ProgressiveSession","members":[{"astId":1024,"contract":"contracts/ProgressiveEscrowV4.sol:ProgressiveEscrowV4","label":"sessionId","offset":0,"slot":"0","type":"t_bytes32"},{"astId":1026,"contract":"contracts/ProgressiveEscrowV4.sol:ProgressiveEscrowV4","label":"student","offset":0,"slot":"1","type":"t_address"},{"astId":1028,"contract":"contracts/ProgressiveEscrowV4.sol:ProgressiveEscrowV4","label":"mentor","offset":0,"slot":"2","type":"t_address"},{"astId":1030,"contract":"contracts/ProgressiveEscrowV4.sol:ProgressiveEscrowV4","label":"paymentToken","offset":0,"slot":"3","type":"t_address"},{"astId":1032,"contract":"contracts/ProgressiveEscrowV4.sol:ProgressiveEscrowV4","label":"totalAmount","offset":0,"slot":"4","type":"t_uint256"},{"astId":1034,"contract":"contracts/ProgressiveEscrowV4.sol:ProgressiveEscrowV4","label":"releasedAmount","offset":0,"slot":"5","type":"t_uint256"},{"astId":1036,"contract":"contracts/ProgressiveEscrowV4.sol:ProgressiveEscrowV4","label":"sessionDuration","offset":0,"slot":"6","type":"t_uint256"},{"astId":1038,"contract":"contracts/ProgressiveEscrowV4.sol:ProgressiveEscrowV4","label":"startTime","offset":0,"slot":"7","type":"t_uint256"},{"astId":1040,"contract":"contracts/ProgressiveEscrowV4.sol:ProgressiveEscrowV4","label":"lastHeartbeat","offset":0,"slot":"8","type":"t_uint256"},{"astId":1042,"contract":"contracts/ProgressiveEscrowV4.sol:ProgressiveEscrowV4","label":"pausedTime","offset":0,"slot":"9","type":"t_uint256"},{"astId":1044,"contract":"contracts/ProgressiveEscrowV4.sol:ProgressiveEscrowV4","label":"createdAt","offset":0,"slot":"10","type":"t_uint256"},{"astId":1047,"contract":"contracts/ProgressiveEscrowV4.sol:ProgressiveEscrowV4","label":"status","offset":0,"slot":"11","type":"t_enum(SessionStatus)1022"},{"astId":1049,"contract":"contracts/ProgressiveEscrowV4.sol:ProgressiveEscrowV4","label":"isActive","offset":1,"slot":"11","type":"t_bool"},{"astId":1051,"contract":"contracts/ProgressiveEscrowV4.sol:ProgressiveEscrowV4","label":"isPaused","offset":2,"slot":"11","type":"t_bool"},{"astId":1053,"contract":"contracts/ProgressiveEscrowV4.sol:ProgressiveEscrowV4","label":"surveyCompleted","offset":3,"slot":"11","type":"t_bool"}],"numberOfBytes":"384"},"t_uint256":{"encoding":"inplace","label":"uint256","numberOfBytes":"32"}}},"userdoc":{"kind":"user","methods":{},"version":1}}}}