{"contracts/ProgressiveEscrowV4_Final.sol":{"ProgressiveEscrowV4_Final":{"abi":[{"inputs":[{"internalType":"address","name":"_platformWallet","type":"address"}],"stateMutability":"nonpayable","type":"constructor"},{"inputs":[],"name":"EnforcedPause","type":"error"},{"inputs":[],"name":"ExpectedPause","type":"error"},{"inputs":[{"internalType":"address","name":"owner","type":"address"}],"name":"OwnableInvalidOwner","type":"error"},{"inputs":[{"internalType":"address","name":"account","type":"address"}],"name":"OwnableUnauthorizedAccount","type":"error"},{"inputs":[],"name":"ReentrancyGuardReentrantCall","type":"error"},{"inputs":[{"internalType":"address","name":"token","type":"address"}],"name":"SafeERC20FailedOperation","type":"error"},{"anonymous":false,"inputs":[{"indexed":true,"internalType":"bytes32","name":"sessionId","type":"bytes32"},{"indexed":false,"internalType":"uint256","name":"timestamp","type":"uint256"}],"name":"HeartbeatReceived","type":"event"},{"anonymous":false,"inputs":[{"indexed":true,"internalType":"address","name":"previousOwner","type":"address"},{"indexed":true,"internalType":"address","name":"newOwner","type":"address"}],"name":"OwnershipTransferred","type":"event"},{"anonymous":false,"inputs":[{"indexed":false,"internalType":"address","name":"account","type":"address"}],"name":"Paused","type":"event"},{"anonymous":false,"inputs":[{"indexed":true,"internalType":"bytes32","name":"sessionId","type":"bytes32"},{"indexed":false,"internalType":"uint256","name":"amount","type":"uint256"},{"indexed":false,"internalType":"uint256","name":"totalReleased","type":"uint256"},{"indexed":false,"internalType":"uint256","name":"timestamp","type":"uint256"}],"name":"ProgressivePaymentReleased","type":"event"},{"anonymous":false,"inputs":[{"indexed":true,"internalType":"bytes32","name":"sessionId","type":"bytes32"},{"indexed":false,"internalType":"uint256","name":"mentorAmount","type":"uint256"},{"indexed":false,"internalType":"uint256","name":"platformFee","type":"uint256"},{"indexed":false,"internalType":"uint256","name":"completedAt","type":"uint256"}],"name":"SessionCompleted","type":"event"},{"anonymous":false,"inputs":[{"indexed":true,"internalType":"bytes32","name":"sessionId","type":"bytes32"},{"indexed":true,"internalType":"address","name":"student","type":"address"},{"indexed":true,"internalType":"address","name":"mentor","type":"address"},{"indexed":false,"internalType":"uint256","name":"amount","type":"uint256"},{"indexed":false,"internalType":"address","name":"token","type":"address"}],"name":"SessionCreated","type":"event"},{"anonymous":false,"inputs":[{"indexed":true,"internalType":"bytes32","name":"sessionId","type":"bytes32"},{"indexed":false,"internalType":"uint256","name":"pausedAt","type":"uint256"},{"indexed":false,"internalType":"string","name":"reason","type":"string"}],"name":"SessionPaused","type":"event"},{"anonymous":false,"inputs":[{"indexed":true,"internalType":"bytes32","name":"sessionId","type":"bytes32"},{"indexed":false,"internalType":"uint256","name":"resumedAt","type":"uint256"}],"name":"SessionResumed","type":"event"},{"anonymous":false,"inputs":[{"indexed":true,"internalType":"bytes32","name":"sessionId","type":"bytes32"},{"indexed":false,"internalType":"uint256","name":"startTime","type":"uint256"}],"name":"SessionStarted","type":"event"},{"anonymous":false,"inputs":[{"indexed":false,"internalType":"address","name":"token","type":"address"},{"indexed":false,"internalType":"bool","name":"supported","type":"bool"}],"name":"TokenSupportUpdated","type":"event"},{"anonymous":false,"inputs":[{"indexed":false,"internalType":"address","name":"account","type":"address"}],"name":"Unpaused","type":"event"},{"stateMutability":"payable","type":"fallback"},{"inputs":[],"name":"ETH_TOKEN","outputs":[{"internalType":"address","name":"","type":"address"}],"stateMutability":"view","type":"function"},{"inputs":[],"name":"GRACE_PERIOD","outputs":[{"internalType":"uint256","name":"","type":"uint256"}],"stateMutability":"view","type":"function"},{"inputs":[],"name":"HEARTBEAT_INTERVAL","outputs":[{"internalType":"uint256","name":"","type":"uint256"}],"stateMutability":"view","type":"function"},{"inputs":[],"name":"PLATFORM_FEE_PERCENT","outputs":[{"internalType":"uint256","name":"","type":"uint256"}],"stateMutability":"view","type":"function"},{"inputs":[],"name":"SESSION_START_TIMEOUT","outputs":[{"internalType":"uint256","name":"","type":"uint256"}],"stateMutability":"view","type":"function"},{"inputs":[{"internalType":"address","name":"token","type":"address"}],"name":"addSupportedToken","outputs":[],"stateMutability":"nonpayable","type":"function"},{"inputs":[{"internalType":"bytes32","name":"sessionId","type":"bytes32"}],"name":"cancelSession","outputs":[],"stateMutability":"nonpayable","type":"function"},{"inputs":[{"internalType":"bytes32","name":"sessionId","type":"bytes32"},{"internalType":"uint256","name":"rating","type":"uint256"},{"internalType":"string","name":"","type":"string"}],"name":"completeSession","outputs":[],"stateMutability":"nonpayable","type":"function"},{"inputs":[{"internalType":"bytes32","name":"sessionId","type":"bytes32"},{"internalType":"address","name":"mentor","type":"address"},{"internalType":"address","name":"paymentToken","type":"address"},{"internalType":"uint256","name":"amount","type":"uint256"},{"internalType":"uint256","name":"durationMinutes","type":"uint256"},{"internalType":"uint256","name":"nonce","type":"uint256"}],"name":"createProgressiveSession","outputs":[],"stateMutability":"payable","type":"function"},{"inputs":[{"internalType":"bytes32","name":"sessionId","type":"bytes32"}],"name":"getAvailablePayment","outputs":[{"internalType":"uint256","name":"","type":"uint256"}],"stateMutability":"view","type":"function"},{"inputs":[{"internalType":"bytes32","name":"sessionId","type":"bytes32"}],"name":"getSession","outputs":[{"components":[{"internalType":"bytes32","name":"sessionId","type":"bytes32"},{"internalType":"address","name":"student","type":"address"},{"internalType":"address","name":"mentor","type":"address"},{"internalType":"address","name":"paymentToken","type":"address"},{"internalType":"uint256","name":"totalAmount","type":"uint256"},{"internalType":"uint256","name":"releasedAmount","type":"uint256"},{"internalType":"uint256","name":"sessionDuration","type":"uint256"},{"internalType":"uint256","name":"startTime","type":"uint256"},{"internalType":"uint256","name":"lastHeartbeat","type":"uint256"},{"internalType":"uint256","name":"pausedTime","type":"uint256"},{"internalType":"uint256","name":"createdAt","type":"uint256"},{"internalType":"enum ProgressiveEscrowV4_Final.SessionStatus","name":"status","type":"uint8"},{"internalType":"bool","name":"isActive","type":"bool"},{"internalType":"bool","name":"isPaused","type":"bool"},{"internalType":"bool","name":"surveyCompleted","type":"bool"}],"internalType":"struct ProgressiveEscrowV4_Final.ProgressiveSession","name":"","type":"tuple"}],"stateMutability":"view","type":"function"},{"inputs":[{"internalType":"address","name":"user","type":"address"}],"name":"getUserNonce","outputs":[{"internalType":"uint256","name":"","type":"uint256"}],"stateMutability":"view","type":"function"},{"inputs":[{"internalType":"bytes32","name":"sessionId","type":"bytes32"}],"name":"needsHeartbeat","outputs":[{"internalType":"bool","name":"","type":"bool"}],"stateMutability":"view","type":"function"},{"inputs":[],"name":"owner","outputs":[{"internalType":"address","name":"","type":"address"}],"stateMutability":"view","type":"function"},{"inputs":[],"name":"pause","outputs":[],"stateMutability":"nonpayable","type":"function"},{"inputs":[{"internalType":"bytes32","name":"sessionId","type":"bytes32"}],"name":"pauseSession","outputs":[],"stateMutability":"nonpayable","type":"function"},{"inputs":[],"name":"paused","outputs":[{"internalType":"bool","name":"","type":"bool"}],"stateMutability":"view","type":"function"},{"inputs":[],"name":"platformWallet","outputs":[{"internalType":"address","name":"","type":"address"}],"stateMutability":"view","type":"function"},{"inputs":[{"internalType":"bytes32","name":"sessionId","type":"bytes32"}],"name":"releaseProgressivePayment","outputs":[],"stateMutability":"nonpayable","type":"function"},{"inputs":[],"name":"renounceOwnership","outputs":[],"stateMutability":"nonpayable","type":"function"},{"inputs":[{"internalType":"bytes32","name":"sessionId","type":"bytes32"}],"name":"resumeSession","outputs":[],"stateMutability":"nonpayable","type":"function"},{"inputs":[{"internalType":"bytes32","name":"","type":"bytes32"}],"name":"sessions","outputs":[{"internalType":"bytes32","name":"sessionId","type":"bytes32"},{"internalType":"address","name":"student","type":"address"},{"internalType":"address","name":"mentor","type":"address"},{"internalType":"address","name":"paymentToken","type":"address"},{"internalType":"uint256","name":"totalAmount","type":"uint256"},{"internalType":"uint256","name":"releasedAmount","type":"uint256"},{"internalType":"uint256","name":"sessionDuration","type":"uint256"},{"internalType":"uint256","name":"startTime","type":"uint256"},{"internalType":"uint256","name":"lastHeartbeat","type":"uint256"},{"internalType":"uint256","name":"pausedTime","type":"uint256"},{"internalType":"uint256","name":"createdAt","type":"uint256"},{"internalType":"enum ProgressiveEscrowV4_Final.SessionStatus","name":"status","type":"uint8"},{"internalType":"bool","name":"isActive","type":"bool"},{"internalType":"bool","name":"isPaused","type":"bool"},{"internalType":"bool","name":"surveyCompleted","type":"bool"}],"stateMutability":"view","type":"function"},{"inputs":[{"internalType":"bytes32","name":"sessionId","type":"bytes32"}],"name":"shouldAutoPause","outputs":[{"internalType":"bool","name":"","type":"bool"}],"stateMutability":"view","type":"function"},{"inputs":[{"internalType":"bytes32","name":"sessionId","type":"bytes32"}],"name":"startProgressiveSession","outputs":[],"stateMutability":"nonpayable","type":"function"},{"inputs":[{"internalType":"address","name":"","type":"address"}],"name":"supportedTokens","outputs":[{"internalType":"bool","name":"","type":"bool"}],"stateMutability":"view","type":"function"},{"inputs":[{"internalType":"address","name":"newOwner","type":"address"}],"name":"transferOwnership","outputs":[],"stateMutability":"nonpayable","type":"function"},{"inputs":[],"name":"unpause","outputs":[],"stateMutability":"nonpayable","type":"function"},{"inputs":[{"internalType":"bytes32","name":"sessionId","type":"bytes32"}],"name":"updateHeartbeat","outputs":[],"stateMutability":"nonpayable","type":"function"},{"inputs":[{"internalType":"address","name":"newWallet","type":"address"}],"name":"updatePlatformWallet","outputs":[],"stateMutability":"nonpayable","type":"function"},{"inputs":[{"internalType":"address","name":"","type":"address"}],"name":"userNonces","outputs":[{"internalType":"uint256","name":"","type":"uint256"}],"stateMutability":"view","type":"function"},{"stateMutability":"payable","type":"receive"}],"devdoc":{"errors":{"EnforcedPause()":[{"details":"The operation failed because the contract is paused."}],"ExpectedPause()":[{"details":"The operation failed because the contract is not paused."}],"OwnableInvalidOwner(address)":[{"details":"The owner is not a valid owner account. (eg. `address(0)`)"}],"OwnableUnauthorizedAccount(address)":[{"details":"The caller account is not authorized to perform an operation."}],"ReentrancyGuardReentrantCall()":[{"details":"Unauthorized reentrant call."}],"SafeERC20FailedOperation(address)":[{"details":"An operation with an ERC-20 token failed."}]},"events":{"Paused(address)":{"details":"Emitted when the pause is triggered by `account`."},"Unpaused(address)":{"details":"Emitted when the pause is lifted by `account`."}},"kind":"dev","methods":{"owner()":{"details":"Returns the address of the current owner."},"paused()":{"details":"Returns true if the contract is paused, and false otherwise."},"renounceOwnership()":{"details":"Leaves the contract without owner. It will not be possible to call `onlyOwner` functions. Can only be called by the current owner. NOTE: Renouncing ownership will leave the contract without an owner, thereby disabling any functionality that is only available to the owner."},"transferOwnership(address)":{"details":"Transfers ownership of the contract to a new account (`newOwner`). Can only be called by the current owner."}},"version":1},"evm":{"bytecode":{"linkReferences":{},"object":"608034620002c957601f620020de38819003918201601f1916830192916001600160401b03841183851017620002ce5780839260409586528339602092839181010312620002c957516001600160a01b03808216929091839003620002c9573315620002b157600092835460018060a01b031990338282161786558651943391167f8be0079c531659141344cd1fd0a4f28419497f9722a3daafe3b4186f6b6457e08780a360019384805582156200026f5750918593917fbbe72b7d9dcb594ee398a4a617885aba53d833e2aad601c813ce9df99fdeb49b959360025416176002558280526003815283832060ff1990838282541617905561a4b14614600014620001645773af88d065e77c8cc2239327c5edb3a432268e5831845260038252848420838282541617905573fd086bc7cd5c481dcc9c85ebe478a1c0b69fcbb9845282858520918254161790555b8351928352820152a151611df99081620002e58239f35b4661210503620001bc5773833589fcd6edb6e08f4c7c32d4f71b54bda02913845260038252848420838282541617905573fde4c96c8593536e31f229ea8f37b2ada2699bb2845282858520918254161790556200014d565b46600a036200021357730b2c639c533813f4aa9d7837caf62653d097ff8584526003825284842083828254161790557394b008aa00579c1307b0ef2c499ad98a8ce58e58845282858520918254161790556200014d565b6089461462000224575b506200014d565b732791bca1f2de4661ed88a30c99a7a9449aa841748452848420838282541617905573c2132d05d31c914a87c6611c10748aeb04b58e8f84528285852091825416179055386200021d565b62461bcd60e51b815260048101849052601760248201527f496e76616c696420706c6174666f726d2077616c6c65740000000000000000006044820152606490fd5b8351631e4fbdf760e01b815260006004820152602490fd5b600080fd5b634e487b7160e01b600052604160045260246000fdfe60806040526004361015610050575b361561004e5760405162461bcd60e51b8152602060048201526012602482015271119d5b98dd1a5bdb881b9bdd08199bdd5b9960721b6044820152606490fd5b005b60003560e01c806302ceb406146118635780632f7801f41461112657806334d1c8fe1461184757806339b240bd146116245780633a17ba64146113935780633f4ba83a146113215780634d21398214611234578063560d52d41461121857806358bc8337146111fc578063590a2cc1146111865780635c975abb146111605780636834e3a81461112657806368c4ac26146110e75780636baae9cc1461104e5780636d69fcaf14610fdb578063715018a614610f825780637ac1b46914610d515780637dbd283214610c685780638456cb5914610c065780638da5cb5b14610bdd57806399173d6b14610ab1578063ada4ef3014610a33578063b817be4c146108b9578063c1a287e21461089d578063ccb868dd146105d1578063e906826c146105ab578063f13430651461058e578063f2fde38b14610505578063f400272b146101cd5763fa2af9da0361000e57346101c85760003660031901126101c8576002546040516001600160a01b039091168152602090f35b600080fd5b60c03660031901126101c8576001600160a01b03602480358281169291600435918490036101c8576044928335918183168093036101c857606480359560843592610216611a4d565b61021e611a2c565b881515806104fb575b156104c957856000526020946003865260ff60406000205416806104c0575b806104b7575b1561048557876000526004865260016040600020015416158061046d575b1561042d5733600052600585526040600020805460001981146104185760010190558561037e5787340361034f575050505b8360005260048252604060002090600182016002830160038401906001600160601b0360a01b9187838254161790558982825416179055339082541617905584825560006007830155600682015560006005820155846004820155600b8101906000600883549242600a820155826009820155015563ffffffff191690556040519384528301527fa5d7a3cf3954591f1af3cd96f79210169bbaf7e3b3a3e60de11886bc773649e060403393a460018055005b8491600c6b08aa89040dad2e6dac2e8c6d60a31b926040519462461bcd60e51b86526004860152840152820152fd5b9091346103e557604051926323b872dd60e01b86850152338385015230908401528781840152825260a082019082821067ffffffffffffffff8311176103d157506040526103cc9084611abf565b61029c565b634e487b7160e01b60009081526041600452fd5b60405162461bcd60e51b8152600481018690526010818401526f04e6f2045544820666f722045524332360841b81850152fd5b82634e487b7160e01b60005260116004526000fd5b849160177f53657373696f6e20657869737473206f72206e6f6e6365000000000000000000926040519462461bcd60e51b86526004860152840152820152fd5b50336000526005855260406000205460a4351461026a565b508491600e6d496e76616c696420706172616d7360901b926040519462461bcd60e51b86526004860152840152820152fd5b5084151561024c565b50881515610246565b906d24b73b30b634b21036b2b73a37b960911b90600e6040519362461bcd60e51b855260206004860152840152820152fd5b5033891415610227565b346101c85760203660031901126101c85761051e6119dd565b610526611a00565b6001600160a01b0390811690811561057557600054826001600160601b0360a01b821617600055167f8be0079c531659141344cd1fd0a4f28419497f9722a3daafe3b4186f6b6457e0600080a3005b604051631e4fbdf760e01b815260006004820152602490fd5b346101c85760003660031901126101c85760206040516103848152f35b346101c85760203660031901126101c85760206105c9600435611c86565b604051908152f35b346101c8576020806003193601126101c8576004356105ee611a4d565b806000526004825260406000209160018060a01b03806001850154168015158061086d575b8061085c575b8061084a575b8061083d575b1561080657331480156107f7575b156107c057610646600785015442611b34565b90603c82018092116107aa57600485015491605a830292808404605a14901517156107aa57603c610678910483611b61565b6006860154906064820291808304606414901517156107aa5760649161069d91611b41565b92048083116107a2575b5060058501918254908181111561076657816106c291611b34565b93841561073557507ff2446e1f418253f1b6b8f9b8ebf603fd78b61d59024e68b0d687d1ecc22b8a409495610711926106fc868094611b27565b85556002816003840154169201541690611b74565b54604080519283526020830191909152429082015280606081015b0390a260018055005b6064906040519062461bcd60e51b82526004820152600a602482015269139bc81c185e5b595b9d60b21b6044820152fd5b60405162461bcd60e51b81526004810186905260146024820152734e6f207061796d656e7420617661696c61626c6560601b6044820152606490fd5b9150856106a7565b634e487b7160e01b600052601160045260246000fd5b60405162461bcd60e51b815260048101839052600f60248201526e139bdd081c185c9d1a58da5c185b9d608a1b6044820152606490fd5b50806002850154163314610633565b60405162461bcd60e51b815260048101849052600f60248201526e496e76616c69642072656c6561736560881b6044820152606490fd5b5060078501541515610625565b5060ff600b86015460101c161561061f565b5060ff600b86015460081c16610619565b5060ff600b86015416600681101561088757600114610613565b634e487b7160e01b600052602160045260246000fd5b346101c85760003660031901126101c8576020604051603c8152f35b346101c85760203660031901126101c8576004356108d5611a4d565b600081815260046020526040902060018101546001600160a01b0390811680151580610a1b575b156109d65733149081156109c6575b50806109ac575b1561096757610101600b82019182549042600882015560074291015562ffffff19161790557fd010adb8a640e9a6a134ce407a4e27deb32fab5b64ea5847c55101907d9c25786020604051428152a260018055005b60405162461bcd60e51b815260206004820152601a60248201527f4e6f74207061727469636970616e74206f722074696d656f75740000000000006044820152606490fd5b50600a81015461038481018091116107aa57421115610912565b905060028201541633148361090b565b60405162461bcd60e51b815260206004820152601a60248201527f53657373696f6e206d697373696e67206f7220737461727465640000000000006044820152606490fd5b5060ff600b84015416600681101561088757156108fc565b346101c85760203660031901126101c857610a4c6119dd565b610a54611a00565b6001600160a01b03168015610a7b576001600160601b0360a01b6002541617600255600080f35b60405162461bcd60e51b815260206004820152600e60248201526d125b9d985b1a59081dd85b1b195d60921b6044820152606490fd5b346101c85760203660031901126101c857600435610acd611a4d565b600081815260046020526040902060018101546001600160a01b03908116801515919082610bc1575b82610b9e575b505015610b6857600b6008820191610b15835442611b34565b610b2460098301918254611b27565b90550190429055600162ff00ff198254161790557f3dd443712f1bb154053901f56ef4a45320caeee475fc1b8f448abb8a5abd7ec16020604051428152a260018055005b60405162461bcd60e51b815260206004820152600e60248201526d496e76616c696420726573756d6560901b6044820152606490fd5b331491508115610bb1575b508380610afc565b9050600282015416331483610ba9565b915060ff600b8401541660068110156108875760021491610af6565b346101c85760003660031901126101c8576000546040516001600160a01b039091168152602090f35b346101c85760003660031901126101c857610c1f611a00565b610c27611a2c565b6000805460ff60a01b1916600160a01b1790556040513381527f62e78cea01bee320cd4e420270b5ea74000d11b0c9f74754ebdbfc544b05a25890602090a1005b346101c85760203660031901126101c85760043560005260046020526101e0604060002060ff81549160018060a01b03908160018201541691806002830154169060038301541660048301546005840154600685015490600786015492600887015494600988015496600b600a8a0154990154996040519c8d5260208d015260408c015260608b015260808a015260a089015260c088015260e0870152610100860152610120850152610140840152610d2761016084018383166119f3565b818160081c161515610180840152818160101c1615156101a084015260181c1615156101c0820152f35b346101c8576020806003193601126101c857600435610d6e611a4d565b6000818152600483526040902060018101546001600160a01b0390811680151580610f68575b80610f56575b15610f21573314908115610f11575b5060088201908154601e8101908181116107aa57605a018091116107aa57421192818215610f0a575b15610ed657600b01805462ff00ff19166201000217905580610ece575b610ec5575b5015610e9b57604051610e0681611aa3565b60118152701219585c9d1899585d081d1a5b595bdd5d607a1b83820152915b6040519042825260408183015283519384604084015260005b858110610e8757847fec452bb0b82c12deb4f139fa1dfc53d2e3606e8bf03ca6a3f007d0dd6fd53507856060818a6000838284010152601f80199101168101030190a260018055005b818101830151848201606001528201610e3e565b604051610ea781611aa3565b600c81526b4d616e75616c20706175736560a01b8382015291610e25565b42905583610df4565b508115610def565b60405162461bcd60e51b815260048101879052600c60248201526b155b985d5d1a1bdc9a5e995960a21b6044820152606490fd5b5083610dd2565b9050600282015416331484610da9565b60405162461bcd60e51b815260048101869052600d60248201526c496e76616c696420706175736560981b6044820152606490fd5b5060ff600b84015460101c1615610d9a565b5060ff600b84015416600681101561088757600114610d94565b346101c85760003660031901126101c857610f9b611a00565b600080546001600160a01b0319811682556001600160a01b03167f8be0079c531659141344cd1fd0a4f28419497f9722a3daafe3b4186f6b6457e08280a3005b346101c85760203660031901126101c8577fbbe72b7d9dcb594ee398a4a617885aba53d833e2aad601c813ce9df99fdeb49b60406110176119dd565b61101f611a00565b60018060a01b031680600052600360205281600020600160ff19825416179055815190815260016020820152a1005b346101c85760203660031901126101c85760043560005260046020526040600020600b8101549060ff821660068110156108875760011491826110d8575b50816110ca575b816110a6575b6020826040519015158152f35b60080154601e810191508181116107aa57605a018091116107aa5742116020611099565b600881015415159150611093565b60101c60ff161591508261108c565b346101c85760203660031901126101c8576001600160a01b036111086119dd565b166000526003602052602060ff604060002054166040519015158152f35b346101c85760203660031901126101c8576001600160a01b036111476119dd565b1660005260056020526020604060002054604051908152f35b346101c85760003660031901126101c857602060ff60005460a01c166040519015158152f35b346101c85760203660031901126101c8576004356000526004602052604060002060ff600b8201541660068110156108875760011490816111ee575b816111d4576020826040519015158152f35b600891500154601e81018091116107aa5742116020611099565b6008810154151591506111c2565b346101c85760003660031901126101c857602060405160008152f35b346101c85760003660031901126101c8576020604051600a8152f35b346101c85760203660031901126101c85761124d611a4d565b6004356000526004602052604060002060018060a01b03908160018201541680151580611309575b806112f1575b156112bb576112b592600b8301600460ff19825416179055600360048401549360058101946112ab865482611b34565b9555015416611b74565b60018055005b60405162461bcd60e51b815260206004820152600e60248201526d125b9d985b1a590818d85b98d95b60921b6044820152606490fd5b508033148061127b575082600283015416331461127b565b5060ff600b8301541660068110156108875715611275565b346101c85760003660031901126101c85761133a611a00565b60005460ff8160a01c16156113815760ff60a01b19166000556040513381527f5db9ee0a495bf2e6ff9c91a7834c1ba4fdd244a5e8aa4e537bd38aeae4b073aa90602090a1005b604051638dfc202b60e01b8152600490fd5b346101c85760603660031901126101c8576024600435813560443567ffffffffffffffff8082116101c857366023830112156101c85781600401359081116101c8573691018401116101c8576113e7611a4d565b600082815260046020526040902060018101546001600160a01b039290831680151591908261161a575b508161160e575b81611602575b50156115c957600b8101805460ff811660068110156115b457600181149081156115a9575b50156115795763010000039063ff00ffff1916179055600481018054916005810193611470855485611b34565b90600a820294828604600a14831517156115645761149560646114bb97048094611b34565b90875580611546575b5081611529575b5050505491546114b58184611b34565b92611b34565b90600a820291808304600a149015171561151457604080519182526064909204602082015242918101919091527f556195694fc082ad19415eaec58c1584ec20066f6e655be3034932c454d38a2390806060810161072c565b83634e487b7160e01b60005260116004526000fd5b80600361153e94015416906002541690611b74565b8580806114a5565b61155e90826003860154168360028701541690611b74565b8861149e565b88634e487b7160e01b60005260116004526000fd5b60405162461bcd60e51b815260206004820152600981880152684e6f7420726561647960b81b6044820152606490fd5b600291501487611443565b86634e487b7160e01b60005260216004526000fd5b60405162461bcd60e51b8152602060048201526012818601527124b73b30b634b21031b7b6b83632ba34b7b760711b6044820152606490fd5b6005915011158561141e565b60018110159150611418565b3314915086611411565b346101c85760203660031901126101c85760006101c060405161164681611a70565b8281528260208201528260408201528260608201528260808201528260a08201528260c08201528260e08201528261010082015282610120820152826101408201528261016082015282610180820152826101a0820152015260043560005260046020526040600020600b604051916116be83611a70565b8054835260018101546001600160a01b039081166020850152600282015481166040850152600382015416606084015260048101546080840152600581015460a084015260068082015460c0850152600782015460e085015260088201546101008501526009820154610120850152600a820154610140850152910154919060ff831610156108875760ff82816101e09416610160840152818160081c161515610180840152818160101c1615156101a084015260181c1615156101c08201526101c0604051918051835260018060a01b03602082015116602084015260018060a01b03604082015116604084015260018060a01b0360608201511660608401526080810151608084015260a081015160a084015260c081015160c084015260e081015160e084015261010081015161010084015261012081015161012084015261014081015161014084015261181f6101608201516101608501906119f3565b61018081015115156101808401526101a081015115156101a0840152015115156101c0820152f35b346101c85760003660031901126101c8576020604051601e8152f35b346101c85760203660031901126101c85760043561187f611a4d565b600081815260046020526040902060018101546001600160a01b039081168015159190826119c1575b8261199e575b50501561195957426008820155600b810190815460ff8160101c166118ff575b837f3cf0bf7708060bf073b6ddb921eef0485b3eb9da828e0ed751fa6582ef337f576020604051428152a260018055005b60019161191b60096119114242611b34565b9201918254611b27565b905562ff00ff1916179055807f3dd443712f1bb154053901f56ef4a45320caeee475fc1b8f448abb8a5abd7ec16020604051428152a28180806118ce565b60405162461bcd60e51b815260206004820152601e60248201527f496e76616c69642073657373696f6e206f72207061727469636970616e7400006044820152606490fd5b3314915081156119b1575b5083806118ae565b90506002820154163314836119a9565b915060ff600b84015416600681101561088757600114916118a8565b600435906001600160a01b03821682036101c857565b9060068210156108875752565b6000546001600160a01b03163303611a1457565b60405163118cdaa760e01b8152336004820152602490fd5b60ff60005460a01c16611a3b57565b60405163d93c066560e01b8152600490fd5b600260015414611a5e576002600155565b604051633ee5aeb560e01b8152600490fd5b6101e0810190811067ffffffffffffffff821117611a8d57604052565b634e487b7160e01b600052604160045260246000fd5b6040810190811067ffffffffffffffff821117611a8d57604052565b906000602091828151910182855af115611b1b576000513d611b1257506001600160a01b0381163b155b611af05750565b604051635274afe760e01b81526001600160a01b039091166004820152602490fd5b60011415611ae9565b6040513d6000823e3d90fd5b919082018092116107aa57565b919082039182116107aa57565b8115611b4b570490565b634e487b7160e01b600052601260045260246000fd5b818102929181159184041417156107aa57565b6001600160a01b039190821680611c3d5750600080809481948294165af1903d15611c375767ffffffffffffffff903d828111611c235760405192601f8201601f19908116603f0116840190811184821017611c0f57604052825260203d92013e5b15611bdd57565b60405162461bcd60e51b815260206004820152600a6024820152691155120819985a5b195960b21b6044820152606490fd5b634e487b7160e01b83526041600452602483fd5b634e487b7160e01b82526041600452602482fd5b50611bd6565b9290916040519263a9059cbb60e01b6020850152166024830152604482015260448152608081019181831067ffffffffffffffff841117611a8d57611c8492604052611abf565b565b600090815260048060205260408220611ca3600782015442611b34565b603c8101809111611dd957603c90049182158015611dab575b8015611d99575b8015611d88575b8015611d7c575b611d76578082015492605a840293808504605a1490151715611d6357611cf79084611b61565b600683015491606483029280840460641490151715611d505750606491611d1d91611b41565b9204808311611d47575b50600501549081811115611d4257611d3f9250611b34565b90565b505090565b91506005611d27565b634e487b7160e01b865260119052602485fd5b634e487b7160e01b855260118252602485fd5b50505090565b50600682015415611cd1565b5060ff600b83015460101c16611cca565b5060ff600b83015460081c1615611cc3565b5060ff600b830154166006811015611dc65760011415611cbc565b634e487b7160e01b855260218252602485fd5b634e487b7160e01b845260118352602484fdfea164736f6c6343000814000a","opcodes":"PUSH1 0x80 CALLVALUE PUSH3 0x2C9 JUMPI PUSH1 0x1F PUSH3 0x20DE CODESIZE DUP2 SWAP1 SUB SWAP2 DUP3 ADD PUSH1 0x1F NOT AND DUP4 ADD SWAP3 SWAP2 PUSH1 0x1 PUSH1 0x1 PUSH1 0x40 SHL SUB DUP5 GT DUP4 DUP6 LT OR PUSH3 0x2CE JUMPI DUP1 DUP4 SWAP3 PUSH1 0x40 SWAP6 DUP7 MSTORE DUP4 CODECOPY PUSH1 0x20 SWAP3 DUP4 SWAP2 DUP2 ADD SUB SLT PUSH3 0x2C9 JUMPI MLOAD PUSH1 0x1 PUSH1 0x1 PUSH1 0xA0 SHL SUB DUP1 DUP3 AND SWAP3 SWAP1 SWAP2 DUP4 SWAP1 SUB PUSH3 0x2C9 JUMPI CALLER ISZERO PUSH3 0x2B1 JUMPI PUSH1 0x0 SWAP3 DUP4 SLOAD PUSH1 0x1 DUP1 PUSH1 0xA0 SHL SUB NOT SWAP1 CALLER DUP3 DUP3 AND OR DUP7 SSTORE DUP7 MLOAD SWAP5 CALLER SWAP2 AND PUSH32 0x8BE0079C531659141344CD1FD0A4F28419497F9722A3DAAFE3B4186F6B6457E0 DUP8 DUP1 LOG3 PUSH1 0x1 SWAP4 DUP5 DUP1 SSTORE DUP3 ISZERO PUSH3 0x26F JUMPI POP SWAP2 DUP6 SWAP4 SWAP2 PUSH32 0xBBE72B7D9DCB594EE398A4A617885ABA53D833E2AAD601C813CE9DF99FDEB49B SWAP6 SWAP4 PUSH1 0x2 SLOAD AND OR PUSH1 0x2 SSTORE DUP3 DUP1 MSTORE PUSH1 0x3 DUP2 MSTORE DUP4 DUP4 KECCAK256 PUSH1 0xFF NOT SWAP1 DUP4 DUP3 DUP3 SLOAD AND OR SWAP1 SSTORE PUSH2 0xA4B1 CHAINID EQ PUSH1 0x0 EQ PUSH3 0x164 JUMPI PUSH20 0xAF88D065E77C8CC2239327C5EDB3A432268E5831 DUP5 MSTORE PUSH1 0x3 DUP3 MSTORE DUP5 DUP5 KECCAK256 DUP4 DUP3 DUP3 SLOAD AND OR SWAP1 SSTORE PUSH20 0xFD086BC7CD5C481DCC9C85EBE478A1C0B69FCBB9 DUP5 MSTORE DUP3 DUP6 DUP6 KECCAK256 SWAP2 DUP3 SLOAD AND OR SWAP1 SSTORE JUMPDEST DUP4 MLOAD SWAP3 DUP4 MSTORE DUP3 ADD MSTORE LOG1 MLOAD PUSH2 0x1DF9 SWAP1 DUP2 PUSH3 0x2E5 DUP3 CODECOPY RETURN JUMPDEST CHAINID PUSH2 0x2105 SUB PUSH3 0x1BC JUMPI PUSH20 0x833589FCD6EDB6E08F4C7C32D4F71B54BDA02913 DUP5 MSTORE PUSH1 0x3 DUP3 MSTORE DUP5 DUP5 KECCAK256 DUP4 DUP3 DUP3 SLOAD AND OR SWAP1 SSTORE PUSH20 0xFDE4C96C8593536E31F229EA8F37B2ADA2699BB2 DUP5 MSTORE DUP3 DUP6 DUP6 KECCAK256 SWAP2 DUP3 SLOAD AND OR SWAP1 SSTORE PUSH3 0x14D JUMP JUMPDEST CHAINID PUSH1 0xA SUB PUSH3 0x213 JUMPI PUSH20 0xB2C639C533813F4AA9D7837CAF62653D097FF85 DUP5 MSTORE PUSH1 0x3 DUP3 MSTORE DUP5 DUP5 KECCAK256 DUP4 DUP3 DUP3 SLOAD AND OR SWAP1 SSTORE PUSH20 0x94B008AA00579C1307B0EF2C499AD98A8CE58E58 DUP5 MSTORE DUP3 DUP6 DUP6 KECCAK256 SWAP2 DUP3 SLOAD AND OR SWAP1 SSTORE PUSH3 0x14D JUMP JUMPDEST PUSH1 0x89 CHAINID EQ PUSH3 0x224 JUMPI JUMPDEST POP PUSH3 0x14D JUMP JUMPDEST PUSH20 0x2791BCA1F2DE4661ED88A30C99A7A9449AA84174 DUP5 MSTORE DUP5 DUP5 KECCAK256 DUP4 DUP3 DUP3 SLOAD AND OR SWAP1 SSTORE PUSH20 0xC2132D05D31C914A87C6611C10748AEB04B58E8F DUP5 MSTORE DUP3 DUP6 DUP6 KECCAK256 SWAP2 DUP3 SLOAD AND OR SWAP1 SSTORE CODESIZE PUSH3 0x21D JUMP JUMPDEST PUSH3 0x461BCD PUSH1 0xE5 SHL DUP2 MSTORE PUSH1 0x4 DUP2 ADD DUP5 SWAP1 MSTORE PUSH1 0x17 PUSH1 0x24 DUP3 ADD MSTORE PUSH32 0x496E76616C696420706C6174666F726D2077616C6C6574000000000000000000 PUSH1 0x44 DUP3 ADD MSTORE PUSH1 0x64 SWAP1 REVERT JUMPDEST DUP4 MLOAD PUSH4 0x1E4FBDF7 PUSH1 0xE0 SHL DUP2 MSTORE PUSH1 0x0 PUSH1 0x4 DUP3 ADD MSTORE PUSH1 0x24 SWAP1 REVERT JUMPDEST PUSH1 0x0 DUP1 REVERT JUMPDEST PUSH4 0x4E487B71 PUSH1 0xE0 SHL PUSH1 0x0 MSTORE PUSH1 0x41 PUSH1 0x4 MSTORE PUSH1 0x24 PUSH1 0x0 REVERT INVALID PUSH1 0x80 PUSH1 0x40 MSTORE PUSH1 0x4 CALLDATASIZE LT ISZERO PUSH2 0x50 JUMPI JUMPDEST CALLDATASIZE ISZERO PUSH2 0x4E JUMPI PUSH1 0x40 MLOAD PUSH3 0x461BCD PUSH1 0xE5 SHL DUP2 MSTORE PUSH1 0x20 PUSH1 0x4 DUP3 ADD MSTORE PUSH1 0x12 PUSH1 0x24 DUP3 ADD MSTORE PUSH18 0x119D5B98DD1A5BDB881B9BDD08199BDD5B99 PUSH1 0x72 SHL PUSH1 0x44 DUP3 ADD MSTORE PUSH1 0x64 SWAP1 REVERT JUMPDEST STOP JUMPDEST PUSH1 0x0 CALLDATALOAD PUSH1 0xE0 SHR DUP1 PUSH4 0x2CEB406 EQ PUSH2 0x1863 JUMPI DUP1 PUSH4 0x2F7801F4 EQ PUSH2 0x1126 JUMPI DUP1 PUSH4 0x34D1C8FE EQ PUSH2 0x1847 JUMPI DUP1 PUSH4 0x39B240BD EQ PUSH2 0x1624 JUMPI DUP1 PUSH4 0x3A17BA64 EQ PUSH2 0x1393 JUMPI DUP1 PUSH4 0x3F4BA83A EQ PUSH2 0x1321 JUMPI DUP1 PUSH4 0x4D213982 EQ PUSH2 0x1234 JUMPI DUP1 PUSH4 0x560D52D4 EQ PUSH2 0x1218 JUMPI DUP1 PUSH4 0x58BC8337 EQ PUSH2 0x11FC JUMPI DUP1 PUSH4 0x590A2CC1 EQ PUSH2 0x1186 JUMPI DUP1 PUSH4 0x5C975ABB EQ PUSH2 0x1160 JUMPI DUP1 PUSH4 0x6834E3A8 EQ PUSH2 0x1126 JUMPI DUP1 PUSH4 0x68C4AC26 EQ PUSH2 0x10E7 JUMPI DUP1 PUSH4 0x6BAAE9CC EQ PUSH2 0x104E JUMPI DUP1 PUSH4 0x6D69FCAF EQ PUSH2 0xFDB JUMPI DUP1 PUSH4 0x715018A6 EQ PUSH2 0xF82 JUMPI DUP1 PUSH4 0x7AC1B469 EQ PUSH2 0xD51 JUMPI DUP1 PUSH4 0x7DBD2832 EQ PUSH2 0xC68 JUMPI DUP1 PUSH4 0x8456CB59 EQ PUSH2 0xC06 JUMPI DUP1 PUSH4 0x8DA5CB5B EQ PUSH2 0xBDD JUMPI DUP1 PUSH4 0x99173D6B EQ PUSH2 0xAB1 JUMPI DUP1 PUSH4 0xADA4EF30 EQ PUSH2 0xA33 JUMPI DUP1 PUSH4 0xB817BE4C EQ PUSH2 0x8B9 JUMPI DUP1 PUSH4 0xC1A287E2 EQ PUSH2 0x89D JUMPI DUP1 PUSH4 0xCCB868DD EQ PUSH2 0x5D1 JUMPI DUP1 PUSH4 0xE906826C EQ PUSH2 0x5AB JUMPI DUP1 PUSH4 0xF1343065 EQ PUSH2 0x58E JUMPI DUP1 PUSH4 0xF2FDE38B EQ PUSH2 0x505 JUMPI DUP1 PUSH4 0xF400272B EQ PUSH2 0x1CD JUMPI PUSH4 0xFA2AF9DA SUB PUSH2 0xE JUMPI CALLVALUE PUSH2 0x1C8 JUMPI PUSH1 0x0 CALLDATASIZE PUSH1 0x3 NOT ADD SLT PUSH2 0x1C8 JUMPI PUSH1 0x2 SLOAD PUSH1 0x40 MLOAD PUSH1 0x1 PUSH1 0x1 PUSH1 0xA0 SHL SUB SWAP1 SWAP2 AND DUP2 MSTORE PUSH1 0x20 SWAP1 RETURN JUMPDEST PUSH1 0x0 DUP1 REVERT JUMPDEST PUSH1 0xC0 CALLDATASIZE PUSH1 0x3 NOT ADD SLT PUSH2 0x1C8 JUMPI PUSH1 0x1 PUSH1 0x1 PUSH1 0xA0 SHL SUB PUSH1 0x24 DUP1 CALLDATALOAD DUP3 DUP2 AND SWAP3 SWAP2 PUSH1 0x4 CALLDATALOAD SWAP2 DUP5 SWAP1 SUB PUSH2 0x1C8 JUMPI PUSH1 0x44 SWAP3 DUP4 CALLDATALOAD SWAP2 DUP2 DUP4 AND DUP1 SWAP4 SUB PUSH2 0x1C8 JUMPI PUSH1 0x64 DUP1 CALLDATALOAD SWAP6 PUSH1 0x84 CALLDATALOAD SWAP3 PUSH2 0x216 PUSH2 0x1A4D JUMP JUMPDEST PUSH2 0x21E PUSH2 0x1A2C JUMP JUMPDEST DUP9 ISZERO ISZERO DUP1 PUSH2 0x4FB JUMPI JUMPDEST ISZERO PUSH2 0x4C9 JUMPI DUP6 PUSH1 0x0 MSTORE PUSH1 0x20 SWAP5 PUSH1 0x3 DUP7 MSTORE PUSH1 0xFF PUSH1 0x40 PUSH1 0x0 KECCAK256 SLOAD AND DUP1 PUSH2 0x4C0 JUMPI JUMPDEST DUP1 PUSH2 0x4B7 JUMPI JUMPDEST ISZERO PUSH2 0x485 JUMPI DUP8 PUSH1 0x0 MSTORE PUSH1 0x4 DUP7 MSTORE PUSH1 0x1 PUSH1 0x40 PUSH1 0x0 KECCAK256 ADD SLOAD AND ISZERO DUP1 PUSH2 0x46D JUMPI JUMPDEST ISZERO PUSH2 0x42D JUMPI CALLER PUSH1 0x0 MSTORE PUSH1 0x5 DUP6 MSTORE PUSH1 0x40 PUSH1 0x0 KECCAK256 DUP1 SLOAD PUSH1 0x0 NOT DUP2 EQ PUSH2 0x418 JUMPI PUSH1 0x1 ADD SWAP1 SSTORE DUP6 PUSH2 0x37E JUMPI DUP8 CALLVALUE SUB PUSH2 0x34F JUMPI POP POP POP JUMPDEST DUP4 PUSH1 0x0 MSTORE PUSH1 0x4 DUP3 MSTORE PUSH1 0x40 PUSH1 0x0 KECCAK256 SWAP1 PUSH1 0x1 DUP3 ADD PUSH1 0x2 DUP4 ADD PUSH1 0x3 DUP5 ADD SWAP1 PUSH1 0x1 PUSH1 0x1 PUSH1 0x60 SHL SUB PUSH1 0xA0 SHL SWAP2 DUP8 DUP4 DUP3 SLOAD AND OR SWAP1 SSTORE DUP10 DUP3 DUP3 SLOAD AND OR SWAP1 SSTORE CALLER SWAP1 DUP3 SLOAD AND OR SWAP1 SSTORE DUP5 DUP3 SSTORE PUSH1 0x0 PUSH1 0x7 DUP4 ADD SSTORE PUSH1 0x6 DUP3 ADD SSTORE PUSH1 0x0 PUSH1 0x5 DUP3 ADD SSTORE DUP5 PUSH1 0x4 DUP3 ADD SSTORE PUSH1 0xB DUP2 ADD SWAP1 PUSH1 0x0 PUSH1 0x8 DUP4 SLOAD SWAP3 TIMESTAMP PUSH1 0xA DUP3 ADD SSTORE DUP3 PUSH1 0x9 DUP3 ADD SSTORE ADD SSTORE PUSH4 0xFFFFFFFF NOT AND SWAP1 SSTORE PUSH1 0x40 MLOAD SWAP4 DUP5 MSTORE DUP4 ADD MSTORE PUSH32 0xA5D7A3CF3954591F1AF3CD96F79210169BBAF7E3B3A3E60DE11886BC773649E0 PUSH1 0x40 CALLER SWAP4 LOG4 PUSH1 0x1 DUP1 SSTORE STOP JUMPDEST DUP5 SWAP2 PUSH1 0xC PUSH12 0x8AA89040DAD2E6DAC2E8C6D PUSH1 0xA3 SHL SWAP3 PUSH1 0x40 MLOAD SWAP5 PUSH3 0x461BCD PUSH1 0xE5 SHL DUP7 MSTORE PUSH1 0x4 DUP7 ADD MSTORE DUP5 ADD MSTORE DUP3 ADD MSTORE REVERT JUMPDEST SWAP1 SWAP2 CALLVALUE PUSH2 0x3E5 JUMPI PUSH1 0x40 MLOAD SWAP3 PUSH4 0x23B872DD PUSH1 0xE0 SHL DUP7 DUP6 ADD MSTORE CALLER DUP4 DUP6 ADD MSTORE ADDRESS SWAP1 DUP5 ADD MSTORE DUP8 DUP2 DUP5 ADD MSTORE DUP3 MSTORE PUSH1 0xA0 DUP3 ADD SWAP1 DUP3 DUP3 LT PUSH8 0xFFFFFFFFFFFFFFFF DUP4 GT OR PUSH2 0x3D1 JUMPI POP PUSH1 0x40 MSTORE PUSH2 0x3CC SWAP1 DUP5 PUSH2 0x1ABF JUMP JUMPDEST PUSH2 0x29C JUMP JUMPDEST PUSH4 0x4E487B71 PUSH1 0xE0 SHL PUSH1 0x0 SWAP1 DUP2 MSTORE PUSH1 0x41 PUSH1 0x4 MSTORE REVERT JUMPDEST PUSH1 0x40 MLOAD PUSH3 0x461BCD PUSH1 0xE5 SHL DUP2 MSTORE PUSH1 0x4 DUP2 ADD DUP7 SWAP1 MSTORE PUSH1 0x10 DUP2 DUP5 ADD MSTORE PUSH16 0x4E6F2045544820666F7220455243323 PUSH1 0x84 SHL DUP2 DUP6 ADD MSTORE REVERT JUMPDEST DUP3 PUSH4 0x4E487B71 PUSH1 0xE0 SHL PUSH1 0x0 MSTORE PUSH1 0x11 PUSH1 0x4 MSTORE PUSH1 0x0 REVERT JUMPDEST DUP5 SWAP2 PUSH1 0x17 PUSH32 0x53657373696F6E20657869737473206F72206E6F6E6365000000000000000000 SWAP3 PUSH1 0x40 MLOAD SWAP5 PUSH3 0x461BCD PUSH1 0xE5 SHL DUP7 MSTORE PUSH1 0x4 DUP7 ADD MSTORE DUP5 ADD MSTORE DUP3 ADD MSTORE REVERT JUMPDEST POP CALLER PUSH1 0x0 MSTORE PUSH1 0x5 DUP6 MSTORE PUSH1 0x40 PUSH1 0x0 KECCAK256 SLOAD PUSH1 0xA4 CALLDATALOAD EQ PUSH2 0x26A JUMP JUMPDEST POP DUP5 SWAP2 PUSH1 0xE PUSH14 0x496E76616C696420706172616D73 PUSH1 0x90 SHL SWAP3 PUSH1 0x40 MLOAD SWAP5 PUSH3 0x461BCD PUSH1 0xE5 SHL DUP7 MSTORE PUSH1 0x4 DUP7 ADD MSTORE DUP5 ADD MSTORE DUP3 ADD MSTORE REVERT JUMPDEST POP DUP5 ISZERO ISZERO PUSH2 0x24C JUMP JUMPDEST POP DUP9 ISZERO ISZERO PUSH2 0x246 JUMP JUMPDEST SWAP1 PUSH14 0x24B73B30B634B21036B2B73A37B9 PUSH1 0x91 SHL SWAP1 PUSH1 0xE PUSH1 0x40 MLOAD SWAP4 PUSH3 0x461BCD PUSH1 0xE5 SHL DUP6 MSTORE PUSH1 0x20 PUSH1 0x4 DUP7 ADD MSTORE DUP5 ADD MSTORE DUP3 ADD MSTORE REVERT JUMPDEST POP CALLER DUP10 EQ ISZERO PUSH2 0x227 JUMP JUMPDEST CALLVALUE PUSH2 0x1C8 JUMPI PUSH1 0x20 CALLDATASIZE PUSH1 0x3 NOT ADD SLT PUSH2 0x1C8 JUMPI PUSH2 0x51E PUSH2 0x19DD JUMP JUMPDEST PUSH2 0x526 PUSH2 0x1A00 JUMP JUMPDEST PUSH1 0x1 PUSH1 0x1 PUSH1 0xA0 SHL SUB SWAP1 DUP2 AND SWAP1 DUP2 ISZERO PUSH2 0x575 JUMPI PUSH1 0x0 SLOAD DUP3 PUSH1 0x1 PUSH1 0x1 PUSH1 0x60 SHL SUB PUSH1 0xA0 SHL DUP3 AND OR PUSH1 0x0 SSTORE AND PUSH32 0x8BE0079C531659141344CD1FD0A4F28419497F9722A3DAAFE3B4186F6B6457E0 PUSH1 0x0 DUP1 LOG3 STOP JUMPDEST PUSH1 0x40 MLOAD PUSH4 0x1E4FBDF7 PUSH1 0xE0 SHL DUP2 MSTORE PUSH1 0x0 PUSH1 0x4 DUP3 ADD MSTORE PUSH1 0x24 SWAP1 REVERT JUMPDEST CALLVALUE PUSH2 0x1C8 JUMPI PUSH1 0x0 CALLDATASIZE PUSH1 0x3 NOT ADD SLT PUSH2 0x1C8 JUMPI PUSH1 0x20 PUSH1 0x40 MLOAD PUSH2 0x384 DUP2 MSTORE RETURN JUMPDEST CALLVALUE PUSH2 0x1C8 JUMPI PUSH1 0x20 CALLDATASIZE PUSH1 0x3 NOT ADD SLT PUSH2 0x1C8 JUMPI PUSH1 0x20 PUSH2 0x5C9 PUSH1 0x4 CALLDATALOAD PUSH2 0x1C86 JUMP JUMPDEST PUSH1 0x40 MLOAD SWAP1 DUP2 MSTORE RETURN JUMPDEST CALLVALUE PUSH2 0x1C8 JUMPI PUSH1 0x20 DUP1 PUSH1 0x3 NOT CALLDATASIZE ADD SLT PUSH2 0x1C8 JUMPI PUSH1 0x4 CALLDATALOAD PUSH2 0x5EE PUSH2 0x1A4D JUMP JUMPDEST DUP1 PUSH1 0x0 MSTORE PUSH1 0x4 DUP3 MSTORE PUSH1 0x40 PUSH1 0x0 KECCAK256 SWAP2 PUSH1 0x1 DUP1 PUSH1 0xA0 SHL SUB DUP1 PUSH1 0x1 DUP6 ADD SLOAD AND DUP1 ISZERO ISZERO DUP1 PUSH2 0x86D JUMPI JUMPDEST DUP1 PUSH2 0x85C JUMPI JUMPDEST DUP1 PUSH2 0x84A JUMPI JUMPDEST DUP1 PUSH2 0x83D JUMPI JUMPDEST ISZERO PUSH2 0x806 JUMPI CALLER EQ DUP1 ISZERO PUSH2 0x7F7 JUMPI JUMPDEST ISZERO PUSH2 0x7C0 JUMPI PUSH2 0x646 PUSH1 0x7 DUP6 ADD SLOAD TIMESTAMP PUSH2 0x1B34 JUMP JUMPDEST SWAP1 PUSH1 0x3C DUP3 ADD DUP1 SWAP3 GT PUSH2 0x7AA JUMPI PUSH1 0x4 DUP6 ADD SLOAD SWAP2 PUSH1 0x5A DUP4 MUL SWAP3 DUP1 DUP5 DIV PUSH1 0x5A EQ SWAP1 ISZERO OR ISZERO PUSH2 0x7AA JUMPI PUSH1 0x3C PUSH2 0x678 SWAP2 DIV DUP4 PUSH2 0x1B61 JUMP JUMPDEST PUSH1 0x6 DUP7 ADD SLOAD SWAP1 PUSH1 0x64 DUP3 MUL SWAP2 DUP1 DUP4 DIV PUSH1 0x64 EQ SWAP1 ISZERO OR ISZERO PUSH2 0x7AA JUMPI PUSH1 0x64 SWAP2 PUSH2 0x69D SWAP2 PUSH2 0x1B41 JUMP JUMPDEST SWAP3 DIV DUP1 DUP4 GT PUSH2 0x7A2 JUMPI JUMPDEST POP PUSH1 0x5 DUP6 ADD SWAP2 DUP3 SLOAD SWAP1 DUP2 DUP2 GT ISZERO PUSH2 0x766 JUMPI DUP2 PUSH2 0x6C2 SWAP2 PUSH2 0x1B34 JUMP JUMPDEST SWAP4 DUP5 ISZERO PUSH2 0x735 JUMPI POP PUSH32 0xF2446E1F418253F1B6B8F9B8EBF603FD78B61D59024E68B0D687D1ECC22B8A40 SWAP5 SWAP6 PUSH2 0x711 SWAP3 PUSH2 0x6FC DUP7 DUP1 SWAP5 PUSH2 0x1B27 JUMP JUMPDEST DUP6 SSTORE PUSH1 0x2 DUP2 PUSH1 0x3 DUP5 ADD SLOAD AND SWAP3 ADD SLOAD AND SWAP1 PUSH2 0x1B74 JUMP JUMPDEST SLOAD PUSH1 0x40 DUP1 MLOAD SWAP3 DUP4 MSTORE PUSH1 0x20 DUP4 ADD SWAP2 SWAP1 SWAP2 MSTORE TIMESTAMP SWAP1 DUP3 ADD MSTORE DUP1 PUSH1 0x60 DUP2 ADD JUMPDEST SUB SWAP1 LOG2 PUSH1 0x1 DUP1 SSTORE STOP JUMPDEST PUSH1 0x64 SWAP1 PUSH1 0x40 MLOAD SWAP1 PUSH3 0x461BCD PUSH1 0xE5 SHL DUP3 MSTORE PUSH1 0x4 DUP3 ADD MSTORE PUSH1 0xA PUSH1 0x24 DUP3 ADD MSTORE PUSH10 0x139BC81C185E5B595B9D PUSH1 0xB2 SHL PUSH1 0x44 DUP3 ADD MSTORE REVERT JUMPDEST PUSH1 0x40 MLOAD PUSH3 0x461BCD PUSH1 0xE5 SHL DUP2 MSTORE PUSH1 0x4 DUP2 ADD DUP7 SWAP1 MSTORE PUSH1 0x14 PUSH1 0x24 DUP3 ADD MSTORE PUSH20 0x4E6F207061796D656E7420617661696C61626C65 PUSH1 0x60 SHL PUSH1 0x44 DUP3 ADD MSTORE PUSH1 0x64 SWAP1 REVERT JUMPDEST SWAP2 POP DUP6 PUSH2 0x6A7 JUMP JUMPDEST PUSH4 0x4E487B71 PUSH1 0xE0 SHL PUSH1 0x0 MSTORE PUSH1 0x11 PUSH1 0x4 MSTORE PUSH1 0x24 PUSH1 0x0 REVERT JUMPDEST PUSH1 0x40 MLOAD PUSH3 0x461BCD PUSH1 0xE5 SHL DUP2 MSTORE PUSH1 0x4 DUP2 ADD DUP4 SWAP1 MSTORE PUSH1 0xF PUSH1 0x24 DUP3 ADD MSTORE PUSH15 0x139BDD081C185C9D1A58DA5C185B9D PUSH1 0x8A SHL PUSH1 0x44 DUP3 ADD MSTORE PUSH1 0x64 SWAP1 REVERT JUMPDEST POP DUP1 PUSH1 0x2 DUP6 ADD SLOAD AND CALLER EQ PUSH2 0x633 JUMP JUMPDEST PUSH1 0x40 MLOAD PUSH3 0x461BCD PUSH1 0xE5 SHL DUP2 MSTORE PUSH1 0x4 DUP2 ADD DUP5 SWAP1 MSTORE PUSH1 0xF PUSH1 0x24 DUP3 ADD MSTORE PUSH15 0x496E76616C69642072656C65617365 PUSH1 0x88 SHL PUSH1 0x44 DUP3 ADD MSTORE PUSH1 0x64 SWAP1 REVERT JUMPDEST POP PUSH1 0x7 DUP6 ADD SLOAD ISZERO ISZERO PUSH2 0x625 JUMP JUMPDEST POP PUSH1 0xFF PUSH1 0xB DUP7 ADD SLOAD PUSH1 0x10 SHR AND ISZERO PUSH2 0x61F JUMP JUMPDEST POP PUSH1 0xFF PUSH1 0xB DUP7 ADD SLOAD PUSH1 0x8 SHR AND PUSH2 0x619 JUMP JUMPDEST POP PUSH1 0xFF PUSH1 0xB DUP7 ADD SLOAD AND PUSH1 0x6 DUP2 LT ISZERO PUSH2 0x887 JUMPI PUSH1 0x1 EQ PUSH2 0x613 JUMP JUMPDEST PUSH4 0x4E487B71 PUSH1 0xE0 SHL PUSH1 0x0 MSTORE PUSH1 0x21 PUSH1 0x4 MSTORE PUSH1 0x24 PUSH1 0x0 REVERT JUMPDEST CALLVALUE PUSH2 0x1C8 JUMPI PUSH1 0x0 CALLDATASIZE PUSH1 0x3 NOT ADD SLT PUSH2 0x1C8 JUMPI PUSH1 0x20 PUSH1 0x40 MLOAD PUSH1 0x3C DUP2 MSTORE RETURN JUMPDEST CALLVALUE PUSH2 0x1C8 JUMPI PUSH1 0x20 CALLDATASIZE PUSH1 0x3 NOT ADD SLT PUSH2 0x1C8 JUMPI PUSH1 0x4 CALLDATALOAD PUSH2 0x8D5 PUSH2 0x1A4D JUMP JUMPDEST PUSH1 0x0 DUP2 DUP2 MSTORE PUSH1 0x4 PUSH1 0x20 MSTORE PUSH1 0x40 SWAP1 KECCAK256 PUSH1 0x1 DUP2 ADD SLOAD PUSH1 0x1 PUSH1 0x1 PUSH1 0xA0 SHL SUB SWAP1 DUP2 AND DUP1 ISZERO ISZERO DUP1 PUSH2 0xA1B JUMPI JUMPDEST ISZERO PUSH2 0x9D6 JUMPI CALLER EQ SWAP1 DUP2 ISZERO PUSH2 0x9C6 JUMPI JUMPDEST POP DUP1 PUSH2 0x9AC JUMPI JUMPDEST ISZERO PUSH2 0x967 JUMPI PUSH2 0x101 PUSH1 0xB DUP3 ADD SWAP2 DUP3 SLOAD SWAP1 TIMESTAMP PUSH1 0x8 DUP3 ADD SSTORE PUSH1 0x7 TIMESTAMP SWAP2 ADD SSTORE PUSH3 0xFFFFFF NOT AND OR SWAP1 SSTORE PUSH32 0xD010ADB8A640E9A6A134CE407A4E27DEB32FAB5B64EA5847C55101907D9C2578 PUSH1 0x20 PUSH1 0x40 MLOAD TIMESTAMP DUP2 MSTORE LOG2 PUSH1 0x1 DUP1 SSTORE STOP JUMPDEST PUSH1 0x40 MLOAD PUSH3 0x461BCD PUSH1 0xE5 SHL DUP2 MSTORE PUSH1 0x20 PUSH1 0x4 DUP3 ADD MSTORE PUSH1 0x1A PUSH1 0x24 DUP3 ADD MSTORE PUSH32 0x4E6F74207061727469636970616E74206F722074696D656F7574000000000000 PUSH1 0x44 DUP3 ADD MSTORE PUSH1 0x64 SWAP1 REVERT JUMPDEST POP PUSH1 0xA DUP2 ADD SLOAD PUSH2 0x384 DUP2 ADD DUP1 SWAP2 GT PUSH2 0x7AA JUMPI TIMESTAMP GT ISZERO PUSH2 0x912 JUMP JUMPDEST SWAP1 POP PUSH1 0x2 DUP3 ADD SLOAD AND CALLER EQ DUP4 PUSH2 0x90B JUMP JUMPDEST PUSH1 0x40 MLOAD PUSH3 0x461BCD PUSH1 0xE5 SHL DUP2 MSTORE PUSH1 0x20 PUSH1 0x4 DUP3 ADD MSTORE PUSH1 0x1A PUSH1 0x24 DUP3 ADD MSTORE PUSH32 0x53657373696F6E206D697373696E67206F722073746172746564000000000000 PUSH1 0x44 DUP3 ADD MSTORE PUSH1 0x64 SWAP1 REVERT JUMPDEST POP PUSH1 0xFF PUSH1 0xB DUP5 ADD SLOAD AND PUSH1 0x6 DUP2 LT ISZERO PUSH2 0x887 JUMPI ISZERO PUSH2 0x8FC JUMP JUMPDEST CALLVALUE PUSH2 0x1C8 JUMPI PUSH1 0x20 CALLDATASIZE PUSH1 0x3 NOT ADD SLT PUSH2 0x1C8 JUMPI PUSH2 0xA4C PUSH2 0x19DD JUMP JUMPDEST PUSH2 0xA54 PUSH2 0x1A00 JUMP JUMPDEST PUSH1 0x1 PUSH1 0x1 PUSH1 0xA0 SHL SUB AND DUP1 ISZERO PUSH2 0xA7B JUMPI PUSH1 0x1 PUSH1 0x1 PUSH1 0x60 SHL SUB PUSH1 0xA0 SHL PUSH1 0x2 SLOAD AND OR PUSH1 0x2 SSTORE PUSH1 0x0 DUP1 RETURN JUMPDEST PUSH1 0x40 MLOAD PUSH3 0x461BCD PUSH1 0xE5 SHL DUP2 MSTORE PUSH1 0x20 PUSH1 0x4 DUP3 ADD MSTORE PUSH1 0xE PUSH1 0x24 DUP3 ADD MSTORE PUSH14 0x125B9D985B1A59081DD85B1B195D PUSH1 0x92 SHL PUSH1 0x44 DUP3 ADD MSTORE PUSH1 0x64 SWAP1 REVERT JUMPDEST CALLVALUE PUSH2 0x1C8 JUMPI PUSH1 0x20 CALLDATASIZE PUSH1 0x3 NOT ADD SLT PUSH2 0x1C8 JUMPI PUSH1 0x4 CALLDATALOAD PUSH2 0xACD PUSH2 0x1A4D JUMP JUMPDEST PUSH1 0x0 DUP2 DUP2 MSTORE PUSH1 0x4 PUSH1 0x20 MSTORE PUSH1 0x40 SWAP1 KECCAK256 PUSH1 0x1 DUP2 ADD SLOAD PUSH1 0x1 PUSH1 0x1 PUSH1 0xA0 SHL SUB SWAP1 DUP2 AND DUP1 ISZERO ISZERO SWAP2 SWAP1 DUP3 PUSH2 0xBC1 JUMPI JUMPDEST DUP3 PUSH2 0xB9E JUMPI JUMPDEST POP POP ISZERO PUSH2 0xB68 JUMPI PUSH1 0xB PUSH1 0x8 DUP3 ADD SWAP2 PUSH2 0xB15 DUP4 SLOAD TIMESTAMP PUSH2 0x1B34 JUMP JUMPDEST PUSH2 0xB24 PUSH1 0x9 DUP4 ADD SWAP2 DUP3 SLOAD PUSH2 0x1B27 JUMP JUMPDEST SWAP1 SSTORE ADD SWAP1 TIMESTAMP SWAP1 SSTORE PUSH1 0x1 PUSH3 0xFF00FF NOT DUP3 SLOAD AND OR SWAP1 SSTORE PUSH32 0x3DD443712F1BB154053901F56EF4A45320CAEEE475FC1B8F448ABB8A5ABD7EC1 PUSH1 0x20 PUSH1 0x40 MLOAD TIMESTAMP DUP2 MSTORE LOG2 PUSH1 0x1 DUP1 SSTORE STOP JUMPDEST PUSH1 0x40 MLOAD PUSH3 0x461BCD PUSH1 0xE5 SHL DUP2 MSTORE PUSH1 0x20 PUSH1 0x4 DUP3 ADD MSTORE PUSH1 0xE PUSH1 0x24 DUP3 ADD MSTORE PUSH14 0x496E76616C696420726573756D65 PUSH1 0x90 SHL PUSH1 0x44 DUP3 ADD MSTORE PUSH1 0x64 SWAP1 REVERT JUMPDEST CALLER EQ SWAP2 POP DUP2 ISZERO PUSH2 0xBB1 JUMPI JUMPDEST POP DUP4 DUP1 PUSH2 0xAFC JUMP JUMPDEST SWAP1 POP PUSH1 0x2 DUP3 ADD SLOAD AND CALLER EQ DUP4 PUSH2 0xBA9 JUMP JUMPDEST SWAP2 POP PUSH1 0xFF PUSH1 0xB DUP5 ADD SLOAD AND PUSH1 0x6 DUP2 LT ISZERO PUSH2 0x887 JUMPI PUSH1 0x2 EQ SWAP2 PUSH2 0xAF6 JUMP JUMPDEST CALLVALUE PUSH2 0x1C8 JUMPI PUSH1 0x0 CALLDATASIZE PUSH1 0x3 NOT ADD SLT PUSH2 0x1C8 JUMPI PUSH1 0x0 SLOAD PUSH1 0x40 MLOAD PUSH1 0x1 PUSH1 0x1 PUSH1 0xA0 SHL SUB SWAP1 SWAP2 AND DUP2 MSTORE PUSH1 0x20 SWAP1 RETURN JUMPDEST CALLVALUE PUSH2 0x1C8 JUMPI PUSH1 0x0 CALLDATASIZE PUSH1 0x3 NOT ADD SLT PUSH2 0x1C8 JUMPI PUSH2 0xC1F PUSH2 0x1A00 JUMP JUMPDEST PUSH2 0xC27 PUSH2 0x1A2C JUMP JUMPDEST PUSH1 0x0 DUP1 SLOAD PUSH1 0xFF PUSH1 0xA0 SHL NOT AND PUSH1 0x1 PUSH1 0xA0 SHL OR SWAP1 SSTORE PUSH1 0x40 MLOAD CALLER DUP2 MSTORE PUSH32 0x62E78CEA01BEE320CD4E420270B5EA74000D11B0C9F74754EBDBFC544B05A258 SWAP1 PUSH1 0x20 SWAP1 LOG1 STOP JUMPDEST CALLVALUE PUSH2 0x1C8 JUMPI PUSH1 0x20 CALLDATASIZE PUSH1 0x3 NOT ADD SLT PUSH2 0x1C8 JUMPI PUSH1 0x4 CALLDATALOAD PUSH1 0x0 MSTORE PUSH1 0x4 PUSH1 0x20 MSTORE PUSH2 0x1E0 PUSH1 0x40 PUSH1 0x0 KECCAK256 PUSH1 0xFF DUP2 SLOAD SWAP2 PUSH1 0x1 DUP1 PUSH1 0xA0 SHL SUB SWAP1 DUP2 PUSH1 0x1 DUP3 ADD SLOAD AND SWAP2 DUP1 PUSH1 0x2 DUP4 ADD SLOAD AND SWAP1 PUSH1 0x3 DUP4 ADD SLOAD AND PUSH1 0x4 DUP4 ADD SLOAD PUSH1 0x5 DUP5 ADD SLOAD PUSH1 0x6 DUP6 ADD SLOAD SWAP1 PUSH1 0x7 DUP7 ADD SLOAD SWAP3 PUSH1 0x8 DUP8 ADD SLOAD SWAP5 PUSH1 0x9 DUP9 ADD SLOAD SWAP7 PUSH1 0xB PUSH1 0xA DUP11 ADD SLOAD SWAP10 ADD SLOAD SWAP10 PUSH1 0x40 MLOAD SWAP13 DUP14 MSTORE PUSH1 0x20 DUP14 ADD MSTORE PUSH1 0x40 DUP13 ADD MSTORE PUSH1 0x60 DUP12 ADD MSTORE PUSH1 0x80 DUP11 ADD MSTORE PUSH1 0xA0 DUP10 ADD MSTORE PUSH1 0xC0 DUP9 ADD MSTORE PUSH1 0xE0 DUP8 ADD MSTORE PUSH2 0x100 DUP7 ADD MSTORE PUSH2 0x120 DUP6 ADD MSTORE PUSH2 0x140 DUP5 ADD MSTORE PUSH2 0xD27 PUSH2 0x160 DUP5 ADD DUP4 DUP4 AND PUSH2 0x19F3 JUMP JUMPDEST DUP2 DUP2 PUSH1 0x8 SHR AND ISZERO ISZERO PUSH2 0x180 DUP5 ADD MSTORE DUP2 DUP2 PUSH1 0x10 SHR AND ISZERO ISZERO PUSH2 0x1A0 DUP5 ADD MSTORE PUSH1 0x18 SHR AND ISZERO ISZERO PUSH2 0x1C0 DUP3 ADD MSTORE RETURN JUMPDEST CALLVALUE PUSH2 0x1C8 JUMPI PUSH1 0x20 DUP1 PUSH1 0x3 NOT CALLDATASIZE ADD SLT PUSH2 0x1C8 JUMPI PUSH1 0x4 CALLDATALOAD PUSH2 0xD6E PUSH2 0x1A4D JUMP JUMPDEST PUSH1 0x0 DUP2 DUP2 MSTORE PUSH1 0x4 DUP4 MSTORE PUSH1 0x40 SWAP1 KECCAK256 PUSH1 0x1 DUP2 ADD SLOAD PUSH1 0x1 PUSH1 0x1 PUSH1 0xA0 SHL SUB SWAP1 DUP2 AND DUP1 ISZERO ISZERO DUP1 PUSH2 0xF68 JUMPI JUMPDEST DUP1 PUSH2 0xF56 JUMPI JUMPDEST ISZERO PUSH2 0xF21 JUMPI CALLER EQ SWAP1 DUP2 ISZERO PUSH2 0xF11 JUMPI JUMPDEST POP PUSH1 0x8 DUP3 ADD SWAP1 DUP2 SLOAD PUSH1 0x1E DUP2 ADD SWAP1 DUP2 DUP2 GT PUSH2 0x7AA JUMPI PUSH1 0x5A ADD DUP1 SWAP2 GT PUSH2 0x7AA JUMPI TIMESTAMP GT SWAP3 DUP2 DUP3 ISZERO PUSH2 0xF0A JUMPI JUMPDEST ISZERO PUSH2 0xED6 JUMPI PUSH1 0xB ADD DUP1 SLOAD PUSH3 0xFF00FF NOT AND PUSH3 0x10002 OR SWAP1 SSTORE DUP1 PUSH2 0xECE JUMPI JUMPDEST PUSH2 0xEC5 JUMPI JUMPDEST POP ISZERO PUSH2 0xE9B JUMPI PUSH1 0x40 MLOAD PUSH2 0xE06 DUP2 PUSH2 0x1AA3 JUMP JUMPDEST PUSH1 0x11 DUP2 MSTORE PUSH17 0x1219585C9D1899585D081D1A5B595BDD5D PUSH1 0x7A SHL DUP4 DUP3 ADD MSTORE SWAP2 JUMPDEST PUSH1 0x40 MLOAD SWAP1 TIMESTAMP DUP3 MSTORE PUSH1 0x40 DUP2 DUP4 ADD MSTORE DUP4 MLOAD SWAP4 DUP5 PUSH1 0x40 DUP5 ADD MSTORE PUSH1 0x0 JUMPDEST DUP6 DUP2 LT PUSH2 0xE87 JUMPI DUP5 PUSH32 0xEC452BB0B82C12DEB4F139FA1DFC53D2E3606E8BF03CA6A3F007D0DD6FD53507 DUP6 PUSH1 0x60 DUP2 DUP11 PUSH1 0x0 DUP4 DUP3 DUP5 ADD ADD MSTORE PUSH1 0x1F DUP1 NOT SWAP2 ADD AND DUP2 ADD SUB ADD SWAP1 LOG2 PUSH1 0x1 DUP1 SSTORE STOP JUMPDEST DUP2 DUP2 ADD DUP4 ADD MLOAD DUP5 DUP3 ADD PUSH1 0x60 ADD MSTORE DUP3 ADD PUSH2 0xE3E JUMP JUMPDEST PUSH1 0x40 MLOAD PUSH2 0xEA7 DUP2 PUSH2 0x1AA3 JUMP JUMPDEST PUSH1 0xC DUP2 MSTORE PUSH12 0x4D616E75616C207061757365 PUSH1 0xA0 SHL DUP4 DUP3 ADD MSTORE SWAP2 PUSH2 0xE25 JUMP JUMPDEST TIMESTAMP SWAP1 SSTORE DUP4 PUSH2 0xDF4 JUMP JUMPDEST POP DUP2 ISZERO PUSH2 0xDEF JUMP JUMPDEST PUSH1 0x40 MLOAD PUSH3 0x461BCD PUSH1 0xE5 SHL DUP2 MSTORE PUSH1 0x4 DUP2 ADD DUP8 SWAP1 MSTORE PUSH1 0xC PUSH1 0x24 DUP3 ADD MSTORE PUSH12 0x155B985D5D1A1BDC9A5E9959 PUSH1 0xA2 SHL PUSH1 0x44 DUP3 ADD MSTORE PUSH1 0x64 SWAP1 REVERT JUMPDEST POP DUP4 PUSH2 0xDD2 JUMP JUMPDEST SWAP1 POP PUSH1 0x2 DUP3 ADD SLOAD AND CALLER EQ DUP5 PUSH2 0xDA9 JUMP JUMPDEST PUSH1 0x40 MLOAD PUSH3 0x461BCD PUSH1 0xE5 SHL DUP2 MSTORE PUSH1 0x4 DUP2 ADD DUP7 SWAP1 MSTORE PUSH1 0xD PUSH1 0x24 DUP3 ADD MSTORE PUSH13 0x496E76616C6964207061757365 PUSH1 0x98 SHL PUSH1 0x44 DUP3 ADD MSTORE PUSH1 0x64 SWAP1 REVERT JUMPDEST POP PUSH1 0xFF PUSH1 0xB DUP5 ADD SLOAD PUSH1 0x10 SHR AND ISZERO PUSH2 0xD9A JUMP JUMPDEST POP PUSH1 0xFF PUSH1 0xB DUP5 ADD SLOAD AND PUSH1 0x6 DUP2 LT ISZERO PUSH2 0x887 JUMPI PUSH1 0x1 EQ PUSH2 0xD94 JUMP JUMPDEST CALLVALUE PUSH2 0x1C8 JUMPI PUSH1 0x0 CALLDATASIZE PUSH1 0x3 NOT ADD SLT PUSH2 0x1C8 JUMPI PUSH2 0xF9B PUSH2 0x1A00 JUMP JUMPDEST PUSH1 0x0 DUP1 SLOAD PUSH1 0x1 PUSH1 0x1 PUSH1 0xA0 SHL SUB NOT DUP2 AND DUP3 SSTORE PUSH1 0x1 PUSH1 0x1 PUSH1 0xA0 SHL SUB AND PUSH32 0x8BE0079C531659141344CD1FD0A4F28419497F9722A3DAAFE3B4186F6B6457E0 DUP3 DUP1 LOG3 STOP JUMPDEST CALLVALUE PUSH2 0x1C8 JUMPI PUSH1 0x20 CALLDATASIZE PUSH1 0x3 NOT ADD SLT PUSH2 0x1C8 JUMPI PUSH32 0xBBE72B7D9DCB594EE398A4A617885ABA53D833E2AAD601C813CE9DF99FDEB49B PUSH1 0x40 PUSH2 0x1017 PUSH2 0x19DD JUMP JUMPDEST PUSH2 0x101F PUSH2 0x1A00 JUMP JUMPDEST PUSH1 0x1 DUP1 PUSH1 0xA0 SHL SUB AND DUP1 PUSH1 0x0 MSTORE PUSH1 0x3 PUSH1 0x20 MSTORE DUP2 PUSH1 0x0 KECCAK256 PUSH1 0x1 PUSH1 0xFF NOT DUP3 SLOAD AND OR SWAP1 SSTORE DUP2 MLOAD SWAP1 DUP2 MSTORE PUSH1 0x1 PUSH1 0x20 DUP3 ADD MSTORE LOG1 STOP JUMPDEST CALLVALUE PUSH2 0x1C8 JUMPI PUSH1 0x20 CALLDATASIZE PUSH1 0x3 NOT ADD SLT PUSH2 0x1C8 JUMPI PUSH1 0x4 CALLDATALOAD PUSH1 0x0 MSTORE PUSH1 0x4 PUSH1 0x20 MSTORE PUSH1 0x40 PUSH1 0x0 KECCAK256 PUSH1 0xB DUP2 ADD SLOAD SWAP1 PUSH1 0xFF DUP3 AND PUSH1 0x6 DUP2 LT ISZERO PUSH2 0x887 JUMPI PUSH1 0x1 EQ SWAP2 DUP3 PUSH2 0x10D8 JUMPI JUMPDEST POP DUP2 PUSH2 0x10CA JUMPI JUMPDEST DUP2 PUSH2 0x10A6 JUMPI JUMPDEST PUSH1 0x20 DUP3 PUSH1 0x40 MLOAD SWAP1 ISZERO ISZERO DUP2 MSTORE RETURN JUMPDEST PUSH1 0x8 ADD SLOAD PUSH1 0x1E DUP2 ADD SWAP2 POP DUP2 DUP2 GT PUSH2 0x7AA JUMPI PUSH1 0x5A ADD DUP1 SWAP2 GT PUSH2 0x7AA JUMPI TIMESTAMP GT PUSH1 0x20 PUSH2 0x1099 JUMP JUMPDEST PUSH1 0x8 DUP2 ADD SLOAD ISZERO ISZERO SWAP2 POP PUSH2 0x1093 JUMP JUMPDEST PUSH1 0x10 SHR PUSH1 0xFF AND ISZERO SWAP2 POP DUP3 PUSH2 0x108C JUMP JUMPDEST CALLVALUE PUSH2 0x1C8 JUMPI PUSH1 0x20 CALLDATASIZE PUSH1 0x3 NOT ADD SLT PUSH2 0x1C8 JUMPI PUSH1 0x1 PUSH1 0x1 PUSH1 0xA0 SHL SUB PUSH2 0x1108 PUSH2 0x19DD JUMP JUMPDEST AND PUSH1 0x0 MSTORE PUSH1 0x3 PUSH1 0x20 MSTORE PUSH1 0x20 PUSH1 0xFF PUSH1 0x40 PUSH1 0x0 KECCAK256 SLOAD AND PUSH1 0x40 MLOAD SWAP1 ISZERO ISZERO DUP2 MSTORE RETURN JUMPDEST CALLVALUE PUSH2 0x1C8 JUMPI PUSH1 0x20 CALLDATASIZE PUSH1 0x3 NOT ADD SLT PUSH2 0x1C8 JUMPI PUSH1 0x1 PUSH1 0x1 PUSH1 0xA0 SHL SUB PUSH2 0x1147 PUSH2 0x19DD JUMP JUMPDEST AND PUSH1 0x0 MSTORE PUSH1 0x5 PUSH1 0x20 MSTORE PUSH1 0x20 PUSH1 0x40 PUSH1 0x0 KECCAK256 SLOAD PUSH1 0x40 MLOAD SWAP1 DUP2 MSTORE RETURN JUMPDEST CALLVALUE PUSH2 0x1C8 JUMPI PUSH1 0x0 CALLDATASIZE PUSH1 0x3 NOT ADD SLT PUSH2 0x1C8 JUMPI PUSH1 0x20 PUSH1 0xFF PUSH1 0x0 SLOAD PUSH1 0xA0 SHR AND PUSH1 0x40 MLOAD SWAP1 ISZERO ISZERO DUP2 MSTORE RETURN JUMPDEST CALLVALUE PUSH2 0x1C8 JUMPI PUSH1 0x20 CALLDATASIZE PUSH1 0x3 NOT ADD SLT PUSH2 0x1C8 JUMPI PUSH1 0x4 CALLDATALOAD PUSH1 0x0 MSTORE PUSH1 0x4 PUSH1 0x20 MSTORE PUSH1 0x40 PUSH1 0x0 KECCAK256 PUSH1 0xFF PUSH1 0xB DUP3 ADD SLOAD AND PUSH1 0x6 DUP2 LT ISZERO PUSH2 0x887 JUMPI PUSH1 0x1 EQ SWAP1 DUP2 PUSH2 0x11EE JUMPI JUMPDEST DUP2 PUSH2 0x11D4 JUMPI PUSH1 0x20 DUP3 PUSH1 0x40 MLOAD SWAP1 ISZERO ISZERO DUP2 MSTORE RETURN JUMPDEST PUSH1 0x8 SWAP2 POP ADD SLOAD PUSH1 0x1E DUP2 ADD DUP1 SWAP2 GT PUSH2 0x7AA JUMPI TIMESTAMP GT PUSH1 0x20 PUSH2 0x1099 JUMP JUMPDEST PUSH1 0x8 DUP2 ADD SLOAD ISZERO ISZERO SWAP2 POP PUSH2 0x11C2 JUMP JUMPDEST CALLVALUE PUSH2 0x1C8 JUMPI PUSH1 0x0 CALLDATASIZE PUSH1 0x3 NOT ADD SLT PUSH2 0x1C8 JUMPI PUSH1 0x20 PUSH1 0x40 MLOAD PUSH1 0x0 DUP2 MSTORE RETURN JUMPDEST CALLVALUE PUSH2 0x1C8 JUMPI PUSH1 0x0 CALLDATASIZE PUSH1 0x3 NOT ADD SLT PUSH2 0x1C8 JUMPI PUSH1 0x20 PUSH1 0x40 MLOAD PUSH1 0xA DUP2 MSTORE RETURN JUMPDEST CALLVALUE PUSH2 0x1C8 JUMPI PUSH1 0x20 CALLDATASIZE PUSH1 0x3 NOT ADD SLT PUSH2 0x1C8 JUMPI PUSH2 0x124D PUSH2 0x1A4D JUMP JUMPDEST PUSH1 0x4 CALLDATALOAD PUSH1 0x0 MSTORE PUSH1 0x4 PUSH1 0x20 MSTORE PUSH1 0x40 PUSH1 0x0 KECCAK256 PUSH1 0x1 DUP1 PUSH1 0xA0 SHL SUB SWAP1 DUP2 PUSH1 0x1 DUP3 ADD SLOAD AND DUP1 ISZERO ISZERO DUP1 PUSH2 0x1309 JUMPI JUMPDEST DUP1 PUSH2 0x12F1 JUMPI JUMPDEST ISZERO PUSH2 0x12BB JUMPI PUSH2 0x12B5 SWAP3 PUSH1 0xB DUP4 ADD PUSH1 0x4 PUSH1 0xFF NOT DUP3 SLOAD AND OR SWAP1 SSTORE PUSH1 0x3 PUSH1 0x4 DUP5 ADD SLOAD SWAP4 PUSH1 0x5 DUP2 ADD SWAP5 PUSH2 0x12AB DUP7 SLOAD DUP3 PUSH2 0x1B34 JUMP JUMPDEST SWAP6 SSTORE ADD SLOAD AND PUSH2 0x1B74 JUMP JUMPDEST PUSH1 0x1 DUP1 SSTORE STOP JUMPDEST PUSH1 0x40 MLOAD PUSH3 0x461BCD PUSH1 0xE5 SHL DUP2 MSTORE PUSH1 0x20 PUSH1 0x4 DUP3 ADD MSTORE PUSH1 0xE PUSH1 0x24 DUP3 ADD MSTORE PUSH14 0x125B9D985B1A590818D85B98D95B PUSH1 0x92 SHL PUSH1 0x44 DUP3 ADD MSTORE PUSH1 0x64 SWAP1 REVERT JUMPDEST POP DUP1 CALLER EQ DUP1 PUSH2 0x127B JUMPI POP DUP3 PUSH1 0x2 DUP4 ADD SLOAD AND CALLER EQ PUSH2 0x127B JUMP JUMPDEST POP PUSH1 0xFF PUSH1 0xB DUP4 ADD SLOAD AND PUSH1 0x6 DUP2 LT ISZERO PUSH2 0x887 JUMPI ISZERO PUSH2 0x1275 JUMP JUMPDEST CALLVALUE PUSH2 0x1C8 JUMPI PUSH1 0x0 CALLDATASIZE PUSH1 0x3 NOT ADD SLT PUSH2 0x1C8 JUMPI PUSH2 0x133A PUSH2 0x1A00 JUMP JUMPDEST PUSH1 0x0 SLOAD PUSH1 0xFF DUP2 PUSH1 0xA0 SHR AND ISZERO PUSH2 0x1381 JUMPI PUSH1 0xFF PUSH1 0xA0 SHL NOT AND PUSH1 0x0 SSTORE PUSH1 0x40 MLOAD CALLER DUP2 MSTORE PUSH32 0x5DB9EE0A495BF2E6FF9C91A7834C1BA4FDD244A5E8AA4E537BD38AEAE4B073AA SWAP1 PUSH1 0x20 SWAP1 LOG1 STOP JUMPDEST PUSH1 0x40 MLOAD PUSH4 0x8DFC202B PUSH1 0xE0 SHL DUP2 MSTORE PUSH1 0x4 SWAP1 REVERT JUMPDEST CALLVALUE PUSH2 0x1C8 JUMPI PUSH1 0x60 CALLDATASIZE PUSH1 0x3 NOT ADD SLT PUSH2 0x1C8 JUMPI PUSH1 0x24 PUSH1 0x4 CALLDATALOAD DUP2 CALLDATALOAD PUSH1 0x44 CALLDATALOAD PUSH8 0xFFFFFFFFFFFFFFFF DUP1 DUP3 GT PUSH2 0x1C8 JUMPI CALLDATASIZE PUSH1 0x23 DUP4 ADD SLT ISZERO PUSH2 0x1C8 JUMPI DUP2 PUSH1 0x4 ADD CALLDATALOAD SWAP1 DUP2 GT PUSH2 0x1C8 JUMPI CALLDATASIZE SWAP2 ADD DUP5 ADD GT PUSH2 0x1C8 JUMPI PUSH2 0x13E7 PUSH2 0x1A4D JUMP JUMPDEST PUSH1 0x0 DUP3 DUP2 MSTORE PUSH1 0x4 PUSH1 0x20 MSTORE PUSH1 0x40 SWAP1 KECCAK256 PUSH1 0x1 DUP2 ADD SLOAD PUSH1 0x1 PUSH1 0x1 PUSH1 0xA0 SHL SUB SWAP3 SWAP1 DUP4 AND DUP1 ISZERO ISZERO SWAP2 SWAP1 DUP3 PUSH2 0x161A JUMPI JUMPDEST POP DUP2 PUSH2 0x160E JUMPI JUMPDEST DUP2 PUSH2 0x1602 JUMPI JUMPDEST POP ISZERO PUSH2 0x15C9 JUMPI PUSH1 0xB DUP2 ADD DUP1 SLOAD PUSH1 0xFF DUP2 AND PUSH1 0x6 DUP2 LT ISZERO PUSH2 0x15B4 JUMPI PUSH1 0x1 DUP2 EQ SWAP1 DUP2 ISZERO PUSH2 0x15A9 JUMPI JUMPDEST POP ISZERO PUSH2 0x1579 JUMPI PUSH4 0x1000003 SWAP1 PUSH4 0xFF00FFFF NOT AND OR SWAP1 SSTORE PUSH1 0x4 DUP2 ADD DUP1 SLOAD SWAP2 PUSH1 0x5 DUP2 ADD SWAP4 PUSH2 0x1470 DUP6 SLOAD DUP6 PUSH2 0x1B34 JUMP JUMPDEST SWAP1 PUSH1 0xA DUP3 MUL SWAP5 DUP3 DUP7 DIV PUSH1 0xA EQ DUP4 ISZERO OR ISZERO PUSH2 0x1564 JUMPI PUSH2 0x1495 PUSH1 0x64 PUSH2 0x14BB SWAP8 DIV DUP1 SWAP5 PUSH2 0x1B34 JUMP JUMPDEST SWAP1 DUP8 SSTORE DUP1 PUSH2 0x1546 JUMPI JUMPDEST POP DUP2 PUSH2 0x1529 JUMPI JUMPDEST POP POP POP SLOAD SWAP2 SLOAD PUSH2 0x14B5 DUP2 DUP5 PUSH2 0x1B34 JUMP JUMPDEST SWAP3 PUSH2 0x1B34 JUMP JUMPDEST SWAP1 PUSH1 0xA DUP3 MUL SWAP2 DUP1 DUP4 DIV PUSH1 0xA EQ SWAP1 ISZERO OR ISZERO PUSH2 0x1514 JUMPI PUSH1 0x40 DUP1 MLOAD SWAP2 DUP3 MSTORE PUSH1 0x64 SWAP1 SWAP3 DIV PUSH1 0x20 DUP3 ADD MSTORE TIMESTAMP SWAP2 DUP2 ADD SWAP2 SWAP1 SWAP2 MSTORE PUSH32 0x556195694FC082AD19415EAEC58C1584EC20066F6E655BE3034932C454D38A23 SWAP1 DUP1 PUSH1 0x60 DUP2 ADD PUSH2 0x72C JUMP JUMPDEST DUP4 PUSH4 0x4E487B71 PUSH1 0xE0 SHL PUSH1 0x0 MSTORE PUSH1 0x11 PUSH1 0x4 MSTORE PUSH1 0x0 REVERT JUMPDEST DUP1 PUSH1 0x3 PUSH2 0x153E SWAP5 ADD SLOAD AND SWAP1 PUSH1 0x2 SLOAD AND SWAP1 PUSH2 0x1B74 JUMP JUMPDEST DUP6 DUP1 DUP1 PUSH2 0x14A5 JUMP JUMPDEST PUSH2 0x155E SWAP1 DUP3 PUSH1 0x3 DUP7 ADD SLOAD AND DUP4 PUSH1 0x2 DUP8 ADD SLOAD AND SWAP1 PUSH2 0x1B74 JUMP JUMPDEST DUP9 PUSH2 0x149E JUMP JUMPDEST DUP9 PUSH4 0x4E487B71 PUSH1 0xE0 SHL PUSH1 0x0 MSTORE PUSH1 0x11 PUSH1 0x4 MSTORE PUSH1 0x0 REVERT JUMPDEST PUSH1 0x40 MLOAD PUSH3 0x461BCD PUSH1 0xE5 SHL DUP2 MSTORE PUSH1 0x20 PUSH1 0x4 DUP3 ADD MSTORE PUSH1 0x9 DUP2 DUP9 ADD MSTORE PUSH9 0x4E6F74207265616479 PUSH1 0xB8 SHL PUSH1 0x44 DUP3 ADD MSTORE PUSH1 0x64 SWAP1 REVERT JUMPDEST PUSH1 0x2 SWAP2 POP EQ DUP8 PUSH2 0x1443 JUMP JUMPDEST DUP7 PUSH4 0x4E487B71 PUSH1 0xE0 SHL PUSH1 0x0 MSTORE PUSH1 0x21 PUSH1 0x4 MSTORE PUSH1 0x0 REVERT JUMPDEST PUSH1 0x40 MLOAD PUSH3 0x461BCD PUSH1 0xE5 SHL DUP2 MSTORE PUSH1 0x20 PUSH1 0x4 DUP3 ADD MSTORE PUSH1 0x12 DUP2 DUP7 ADD MSTORE PUSH18 0x24B73B30B634B21031B7B6B83632BA34B7B7 PUSH1 0x71 SHL PUSH1 0x44 DUP3 ADD MSTORE PUSH1 0x64 SWAP1 REVERT JUMPDEST PUSH1 0x5 SWAP2 POP GT ISZERO DUP6 PUSH2 0x141E JUMP JUMPDEST PUSH1 0x1 DUP2 LT ISZERO SWAP2 POP PUSH2 0x1418 JUMP JUMPDEST CALLER EQ SWAP2 POP DUP7 PUSH2 0x1411 JUMP JUMPDEST CALLVALUE PUSH2 0x1C8 JUMPI PUSH1 0x20 CALLDATASIZE PUSH1 0x3 NOT ADD SLT PUSH2 0x1C8 JUMPI PUSH1 0x0 PUSH2 0x1C0 PUSH1 0x40 MLOAD PUSH2 0x1646 DUP2 PUSH2 0x1A70 JUMP JUMPDEST DUP3 DUP2 MSTORE DUP3 PUSH1 0x20 DUP3 ADD MSTORE DUP3 PUSH1 0x40 DUP3 ADD MSTORE DUP3 PUSH1 0x60 DUP3 ADD MSTORE DUP3 PUSH1 0x80 DUP3 ADD MSTORE DUP3 PUSH1 0xA0 DUP3 ADD MSTORE DUP3 PUSH1 0xC0 DUP3 ADD MSTORE DUP3 PUSH1 0xE0 DUP3 ADD MSTORE DUP3 PUSH2 0x100 DUP3 ADD MSTORE DUP3 PUSH2 0x120 DUP3 ADD MSTORE DUP3 PUSH2 0x140 DUP3 ADD MSTORE DUP3 PUSH2 0x160 DUP3 ADD MSTORE DUP3 PUSH2 0x180 DUP3 ADD MSTORE DUP3 PUSH2 0x1A0 DUP3 ADD MSTORE ADD MSTORE PUSH1 0x4 CALLDATALOAD PUSH1 0x0 MSTORE PUSH1 0x4 PUSH1 0x20 MSTORE PUSH1 0x40 PUSH1 0x0 KECCAK256 PUSH1 0xB PUSH1 0x40 MLOAD SWAP2 PUSH2 0x16BE DUP4 PUSH2 0x1A70 JUMP JUMPDEST DUP1 SLOAD DUP4 MSTORE PUSH1 0x1 DUP2 ADD SLOAD PUSH1 0x1 PUSH1 0x1 PUSH1 0xA0 SHL SUB SWAP1 DUP2 AND PUSH1 0x20 DUP6 ADD MSTORE PUSH1 0x2 DUP3 ADD SLOAD DUP2 AND PUSH1 0x40 DUP6 ADD MSTORE PUSH1 0x3 DUP3 ADD SLOAD AND PUSH1 0x60 DUP5 ADD MSTORE PUSH1 0x4 DUP2 ADD SLOAD PUSH1 0x80 DUP5 ADD MSTORE PUSH1 0x5 DUP2 ADD SLOAD PUSH1 0xA0 DUP5 ADD MSTORE PUSH1 0x6 DUP1 DUP3 ADD SLOAD PUSH1 0xC0 DUP6 ADD MSTORE PUSH1 0x7 DUP3 ADD SLOAD PUSH1 0xE0 DUP6 ADD MSTORE PUSH1 0x8 DUP3 ADD SLOAD PUSH2 0x100 DUP6 ADD MSTORE PUSH1 0x9 DUP3 ADD SLOAD PUSH2 0x120 DUP6 ADD MSTORE PUSH1 0xA DUP3 ADD SLOAD PUSH2 0x140 DUP6 ADD MSTORE SWAP2 ADD SLOAD SWAP2 SWAP1 PUSH1 0xFF DUP4 AND LT ISZERO PUSH2 0x887 JUMPI PUSH1 0xFF DUP3 DUP2 PUSH2 0x1E0 SWAP5 AND PUSH2 0x160 DUP5 ADD MSTORE DUP2 DUP2 PUSH1 0x8 SHR AND ISZERO ISZERO PUSH2 0x180 DUP5 ADD MSTORE DUP2 DUP2 PUSH1 0x10 SHR AND ISZERO ISZERO PUSH2 0x1A0 DUP5 ADD MSTORE PUSH1 0x18 SHR AND ISZERO ISZERO PUSH2 0x1C0 DUP3 ADD MSTORE PUSH2 0x1C0 PUSH1 0x40 MLOAD SWAP2 DUP1 MLOAD DUP4 MSTORE PUSH1 0x1 DUP1 PUSH1 0xA0 SHL SUB PUSH1 0x20 DUP3 ADD MLOAD AND PUSH1 0x20 DUP5 ADD MSTORE PUSH1 0x1 DUP1 PUSH1 0xA0 SHL SUB PUSH1 0x40 DUP3 ADD MLOAD AND PUSH1 0x40 DUP5 ADD MSTORE PUSH1 0x1 DUP1 PUSH1 0xA0 SHL SUB PUSH1 0x60 DUP3 ADD MLOAD AND PUSH1 0x60 DUP5 ADD MSTORE PUSH1 0x80 DUP2 ADD MLOAD PUSH1 0x80 DUP5 ADD MSTORE PUSH1 0xA0 DUP2 ADD MLOAD PUSH1 0xA0 DUP5 ADD MSTORE PUSH1 0xC0 DUP2 ADD MLOAD PUSH1 0xC0 DUP5 ADD MSTORE PUSH1 0xE0 DUP2 ADD MLOAD PUSH1 0xE0 DUP5 ADD MSTORE PUSH2 0x100 DUP2 ADD MLOAD PUSH2 0x100 DUP5 ADD MSTORE PUSH2 0x120 DUP2 ADD MLOAD PUSH2 0x120 DUP5 ADD MSTORE PUSH2 0x140 DUP2 ADD MLOAD PUSH2 0x140 DUP5 ADD MSTORE PUSH2 0x181F PUSH2 0x160 DUP3 ADD MLOAD PUSH2 0x160 DUP6 ADD SWAP1 PUSH2 0x19F3 JUMP JUMPDEST PUSH2 0x180 DUP2 ADD MLOAD ISZERO ISZERO PUSH2 0x180 DUP5 ADD MSTORE PUSH2 0x1A0 DUP2 ADD MLOAD ISZERO ISZERO PUSH2 0x1A0 DUP5 ADD MSTORE ADD MLOAD ISZERO ISZERO PUSH2 0x1C0 DUP3 ADD MSTORE RETURN JUMPDEST CALLVALUE PUSH2 0x1C8 JUMPI PUSH1 0x0 CALLDATASIZE PUSH1 0x3 NOT ADD SLT PUSH2 0x1C8 JUMPI PUSH1 0x20 PUSH1 0x40 MLOAD PUSH1 0x1E DUP2 MSTORE RETURN JUMPDEST CALLVALUE PUSH2 0x1C8 JUMPI PUSH1 0x20 CALLDATASIZE PUSH1 0x3 NOT ADD SLT PUSH2 0x1C8 JUMPI PUSH1 0x4 CALLDATALOAD PUSH2 0x187F PUSH2 0x1A4D JUMP JUMPDEST PUSH1 0x0 DUP2 DUP2 MSTORE PUSH1 0x4 PUSH1 0x20 MSTORE PUSH1 0x40 SWAP1 KECCAK256 PUSH1 0x1 DUP2 ADD SLOAD PUSH1 0x1 PUSH1 0x1 PUSH1 0xA0 SHL SUB SWAP1 DUP2 AND DUP1 ISZERO ISZERO SWAP2 SWAP1 DUP3 PUSH2 0x19C1 JUMPI JUMPDEST DUP3 PUSH2 0x199E JUMPI JUMPDEST POP POP ISZERO PUSH2 0x1959 JUMPI TIMESTAMP PUSH1 0x8 DUP3 ADD SSTORE PUSH1 0xB DUP2 ADD SWAP1 DUP2 SLOAD PUSH1 0xFF DUP2 PUSH1 0x10 SHR AND PUSH2 0x18FF JUMPI JUMPDEST DUP4 PUSH32 0x3CF0BF7708060BF073B6DDB921EEF0485B3EB9DA828E0ED751FA6582EF337F57 PUSH1 0x20 PUSH1 0x40 MLOAD TIMESTAMP DUP2 MSTORE LOG2 PUSH1 0x1 DUP1 SSTORE STOP JUMPDEST PUSH1 0x1 SWAP2 PUSH2 0x191B PUSH1 0x9 PUSH2 0x1911 TIMESTAMP TIMESTAMP PUSH2 0x1B34 JUMP JUMPDEST SWAP3 ADD SWAP2 DUP3 SLOAD PUSH2 0x1B27 JUMP JUMPDEST SWAP1 SSTORE PUSH3 0xFF00FF NOT AND OR SWAP1 SSTORE DUP1 PUSH32 0x3DD443712F1BB154053901F56EF4A45320CAEEE475FC1B8F448ABB8A5ABD7EC1 PUSH1 0x20 PUSH1 0x40 MLOAD TIMESTAMP DUP2 MSTORE LOG2 DUP2 DUP1 DUP1 PUSH2 0x18CE JUMP JUMPDEST PUSH1 0x40 MLOAD PUSH3 0x461BCD PUSH1 0xE5 SHL DUP2 MSTORE PUSH1 0x20 PUSH1 0x4 DUP3 ADD MSTORE PUSH1 0x1E PUSH1 0x24 DUP3 ADD MSTORE PUSH32 0x496E76616C69642073657373696F6E206F72207061727469636970616E740000 PUSH1 0x44 DUP3 ADD MSTORE PUSH1 0x64 SWAP1 REVERT JUMPDEST CALLER EQ SWAP2 POP DUP2 ISZERO PUSH2 0x19B1 JUMPI JUMPDEST POP DUP4 DUP1 PUSH2 0x18AE JUMP JUMPDEST SWAP1 POP PUSH1 0x2 DUP3 ADD SLOAD AND CALLER EQ DUP4 PUSH2 0x19A9 JUMP JUMPDEST SWAP2 POP PUSH1 0xFF PUSH1 0xB DUP5 ADD SLOAD AND PUSH1 0x6 DUP2 LT ISZERO PUSH2 0x887 JUMPI PUSH1 0x1 EQ SWAP2 PUSH2 0x18A8 JUMP JUMPDEST PUSH1 0x4 CALLDATALOAD SWAP1 PUSH1 0x1 PUSH1 0x1 PUSH1 0xA0 SHL SUB DUP3 AND DUP3 SUB PUSH2 0x1C8 JUMPI JUMP JUMPDEST SWAP1 PUSH1 0x6 DUP3 LT ISZERO PUSH2 0x887 JUMPI MSTORE JUMP JUMPDEST PUSH1 0x0 SLOAD PUSH1 0x1 PUSH1 0x1 PUSH1 0xA0 SHL SUB AND CALLER SUB PUSH2 0x1A14 JUMPI JUMP JUMPDEST PUSH1 0x40 MLOAD PUSH4 0x118CDAA7 PUSH1 0xE0 SHL DUP2 MSTORE CALLER PUSH1 0x4 DUP3 ADD MSTORE PUSH1 0x24 SWAP1 REVERT JUMPDEST PUSH1 0xFF PUSH1 0x0 SLOAD PUSH1 0xA0 SHR AND PUSH2 0x1A3B JUMPI JUMP JUMPDEST PUSH1 0x40 MLOAD PUSH4 0xD93C0665 PUSH1 0xE0 SHL DUP2 MSTORE PUSH1 0x4 SWAP1 REVERT JUMPDEST PUSH1 0x2 PUSH1 0x1 SLOAD EQ PUSH2 0x1A5E JUMPI PUSH1 0x2 PUSH1 0x1 SSTORE JUMP JUMPDEST PUSH1 0x40 MLOAD PUSH4 0x3EE5AEB5 PUSH1 0xE0 SHL DUP2 MSTORE PUSH1 0x4 SWAP1 REVERT JUMPDEST PUSH2 0x1E0 DUP2 ADD SWAP1 DUP2 LT PUSH8 0xFFFFFFFFFFFFFFFF DUP3 GT OR PUSH2 0x1A8D JUMPI PUSH1 0x40 MSTORE JUMP JUMPDEST PUSH4 0x4E487B71 PUSH1 0xE0 SHL PUSH1 0x0 MSTORE PUSH1 0x41 PUSH1 0x4 MSTORE PUSH1 0x24 PUSH1 0x0 REVERT JUMPDEST PUSH1 0x40 DUP2 ADD SWAP1 DUP2 LT PUSH8 0xFFFFFFFFFFFFFFFF DUP3 GT OR PUSH2 0x1A8D JUMPI PUSH1 0x40 MSTORE JUMP JUMPDEST SWAP1 PUSH1 0x0 PUSH1 0x20 SWAP2 DUP3 DUP2 MLOAD SWAP2 ADD DUP3 DUP6 GAS CALL ISZERO PUSH2 0x1B1B JUMPI PUSH1 0x0 MLOAD RETURNDATASIZE PUSH2 0x1B12 JUMPI POP PUSH1 0x1 PUSH1 0x1 PUSH1 0xA0 SHL SUB DUP2 AND EXTCODESIZE ISZERO JUMPDEST PUSH2 0x1AF0 JUMPI POP JUMP JUMPDEST PUSH1 0x40 MLOAD PUSH4 0x5274AFE7 PUSH1 0xE0 SHL DUP2 MSTORE PUSH1 0x1 PUSH1 0x1 PUSH1 0xA0 SHL SUB SWAP1 SWAP2 AND PUSH1 0x4 DUP3 ADD MSTORE PUSH1 0x24 SWAP1 REVERT JUMPDEST PUSH1 0x1 EQ ISZERO PUSH2 0x1AE9 JUMP JUMPDEST PUSH1 0x40 MLOAD RETURNDATASIZE PUSH1 0x0 DUP3 RETURNDATACOPY RETURNDATASIZE SWAP1 REVERT JUMPDEST SWAP2 SWAP1 DUP3 ADD DUP1 SWAP3 GT PUSH2 0x7AA JUMPI JUMP JUMPDEST SWAP2 SWAP1 DUP3 SUB SWAP2 DUP3 GT PUSH2 0x7AA JUMPI JUMP JUMPDEST DUP2 ISZERO PUSH2 0x1B4B JUMPI DIV SWAP1 JUMP JUMPDEST PUSH4 0x4E487B71 PUSH1 0xE0 SHL PUSH1 0x0 MSTORE PUSH1 0x12 PUSH1 0x4 MSTORE PUSH1 0x24 PUSH1 0x0 REVERT JUMPDEST DUP2 DUP2 MUL SWAP3 SWAP2 DUP2 ISZERO SWAP2 DUP5 DIV EQ OR ISZERO PUSH2 0x7AA JUMPI JUMP JUMPDEST PUSH1 0x1 PUSH1 0x1 PUSH1 0xA0 SHL SUB SWAP2 SWAP1 DUP3 AND DUP1 PUSH2 0x1C3D JUMPI POP PUSH1 0x0 DUP1 DUP1 SWAP5 DUP2 SWAP5 DUP3 SWAP5 AND GAS CALL SWAP1 RETURNDATASIZE ISZERO PUSH2 0x1C37 JUMPI PUSH8 0xFFFFFFFFFFFFFFFF SWAP1 RETURNDATASIZE DUP3 DUP2 GT PUSH2 0x1C23 JUMPI PUSH1 0x40 MLOAD SWAP3 PUSH1 0x1F DUP3 ADD PUSH1 0x1F NOT SWAP1 DUP2 AND PUSH1 0x3F ADD AND DUP5 ADD SWAP1 DUP2 GT DUP5 DUP3 LT OR PUSH2 0x1C0F JUMPI PUSH1 0x40 MSTORE DUP3 MSTORE PUSH1 0x20 RETURNDATASIZE SWAP3 ADD RETURNDATACOPY JUMPDEST ISZERO PUSH2 0x1BDD JUMPI JUMP JUMPDEST PUSH1 0x40 MLOAD PUSH3 0x461BCD PUSH1 0xE5 SHL DUP2 MSTORE PUSH1 0x20 PUSH1 0x4 DUP3 ADD MSTORE PUSH1 0xA PUSH1 0x24 DUP3 ADD MSTORE PUSH10 0x1155120819985A5B1959 PUSH1 0xB2 SHL PUSH1 0x44 DUP3 ADD MSTORE PUSH1 0x64 SWAP1 REVERT JUMPDEST PUSH4 0x4E487B71 PUSH1 0xE0 SHL DUP4 MSTORE PUSH1 0x41 PUSH1 0x4 MSTORE PUSH1 0x24 DUP4 REVERT JUMPDEST PUSH4 0x4E487B71 PUSH1 0xE0 SHL DUP3 MSTORE PUSH1 0x41 PUSH1 0x4 MSTORE PUSH1 0x24 DUP3 REVERT JUMPDEST POP PUSH2 0x1BD6 JUMP JUMPDEST SWAP3 SWAP1 SWAP2 PUSH1 0x40 MLOAD SWAP3 PUSH4 0xA9059CBB PUSH1 0xE0 SHL PUSH1 0x20 DUP6 ADD MSTORE AND PUSH1 0x24 DUP4 ADD MSTORE PUSH1 0x44 DUP3 ADD MSTORE PUSH1 0x44 DUP2 MSTORE PUSH1 0x80 DUP2 ADD SWAP2 DUP2 DUP4 LT PUSH8 0xFFFFFFFFFFFFFFFF DUP5 GT OR PUSH2 0x1A8D JUMPI PUSH2 0x1C84 SWAP3 PUSH1 0x40 MSTORE PUSH2 0x1ABF JUMP JUMPDEST JUMP JUMPDEST PUSH1 0x0 SWAP1 DUP2 MSTORE PUSH1 0x4 DUP1 PUSH1 0x20 MSTORE PUSH1 0x40 DUP3 KECCAK256 PUSH2 0x1CA3 PUSH1 0x7 DUP3 ADD SLOAD TIMESTAMP PUSH2 0x1B34 JUMP JUMPDEST PUSH1 0x3C DUP2 ADD DUP1 SWAP2 GT PUSH2 0x1DD9 JUMPI PUSH1 0x3C SWAP1 DIV SWAP2 DUP3 ISZERO DUP1 ISZERO PUSH2 0x1DAB JUMPI JUMPDEST DUP1 ISZERO PUSH2 0x1D99 JUMPI JUMPDEST DUP1 ISZERO PUSH2 0x1D88 JUMPI JUMPDEST DUP1 ISZERO PUSH2 0x1D7C JUMPI JUMPDEST PUSH2 0x1D76 JUMPI DUP1 DUP3 ADD SLOAD SWAP3 PUSH1 0x5A DUP5 MUL SWAP4 DUP1 DUP6 DIV PUSH1 0x5A EQ SWAP1 ISZERO OR ISZERO PUSH2 0x1D63 JUMPI PUSH2 0x1CF7 SWAP1 DUP5 PUSH2 0x1B61 JUMP JUMPDEST PUSH1 0x6 DUP4 ADD SLOAD SWAP2 PUSH1 0x64 DUP4 MUL SWAP3 DUP1 DUP5 DIV PUSH1 0x64 EQ SWAP1 ISZERO OR ISZERO PUSH2 0x1D50 JUMPI POP PUSH1 0x64 SWAP2 PUSH2 0x1D1D SWAP2 PUSH2 0x1B41 JUMP JUMPDEST SWAP3 DIV DUP1 DUP4 GT PUSH2 0x1D47 JUMPI JUMPDEST POP PUSH1 0x5 ADD SLOAD SWAP1 DUP2 DUP2 GT ISZERO PUSH2 0x1D42 JUMPI PUSH2 0x1D3F SWAP3 POP PUSH2 0x1B34 JUMP JUMPDEST SWAP1 JUMP JUMPDEST POP POP SWAP1 JUMP JUMPDEST SWAP2 POP PUSH1 0x5 PUSH2 0x1D27 JUMP JUMPDEST PUSH4 0x4E487B71 PUSH1 0xE0 SHL DUP7 MSTORE PUSH1 0x11 SWAP1 MSTORE PUSH1 0x24 DUP6 REVERT JUMPDEST PUSH4 0x4E487B71 PUSH1 0xE0 SHL DUP6 MSTORE PUSH1 0x11 DUP3 MSTORE PUSH1 0x24 DUP6 REVERT JUMPDEST POP POP POP SWAP1 JUMP JUMPDEST POP PUSH1 0x6 DUP3 ADD SLOAD ISZERO PUSH2 0x1CD1 JUMP JUMPDEST POP PUSH1 0xFF PUSH1 0xB DUP4 ADD SLOAD PUSH1 0x10 SHR AND PUSH2 0x1CCA JUMP JUMPDEST POP PUSH1 0xFF PUSH1 0xB DUP4 ADD SLOAD PUSH1 0x8 SHR AND ISZERO PUSH2 0x1CC3 JUMP JUMPDEST POP PUSH1 0xFF PUSH1 0xB DUP4 ADD SLOAD AND PUSH1 0x6 DUP2 LT ISZERO PUSH2 0x1DC6 JUMPI PUSH1 0x1 EQ ISZERO PUSH2 0x1CBC JUMP JUMPDEST PUSH4 0x4E487B71 PUSH1 0xE0 SHL DUP6 MSTORE PUSH1 0x21 DUP3 MSTORE PUSH1 0x24 DUP6 REVERT JUMPDEST PUSH4 0x4E487B71 PUSH1 0xE0 SHL DUP5 MSTORE PUSH1 0x11 DUP4 MSTORE PUSH1 0x24 DUP5 REVERT INVALID LOG1 PUSH5 0x736F6C6343 STOP ADDMOD EQ STOP EXP "},"gasEstimates":{"creation":{"codeDepositCost":"1534600","executionCost":"infinite","totalCost":"infinite"},"external":{"":"824","ETH_TOKEN()":"323","GRACE_PERIOD()":"653","HEARTBEAT_INTERVAL()":"191","PLATFORM_FEE_PERCENT()":"301","SESSION_START_TIMEOUT()":"719","addSupportedToken(address)":"28279","cancelSession(bytes32)":"infinite","completeSession(bytes32,uint256,string)":"infinite","createProgressiveSession(bytes32,address,address,uint256,uint256,uint256)":"infinite","getAvailablePayment(bytes32)":"infinite","getSession(bytes32)":"infinite","getUserNonce(address)":"2643","needsHeartbeat(bytes32)":"6900","owner()":"2692","pause()":"30108","pauseSession(bytes32)":"infinite","paused()":"2488","platformWallet()":"2908","releaseProgressivePayment(bytes32)":"infinite","renounceOwnership()":"28376","resumeSession(bytes32)":"127744","sessions(bytes32)":"26280","shouldAutoPause(bytes32)":"7076","startProgressiveSession(bytes32)":"125599","supportedTokens(address)":"2677","transferOwnership(address)":"28750","unpause()":"27686","updateHeartbeat(bytes32)":"126660","updatePlatformWallet(address)":"27097","userNonces(address)":"2423"},"internal":{"_autoEnableTokens()":"infinite","_calculateReleaseAmount(struct ProgressiveEscrowV4_Final.ProgressiveSession storage pointer)":"infinite","_createSession(bytes32,address,address,uint256,uint256)":"infinite","_executeTransfer(address,address,uint256)":"infinite","_finalizeSession(struct ProgressiveEscrowV4_Final.ProgressiveSession storage pointer)":"infinite","_handlePayment(address,uint256)":"infinite","_validatePaymentRelease(struct ProgressiveEscrowV4_Final.ProgressiveSession storage pointer)":"infinite","_validateSessionCreation(bytes32,address,address,uint256,uint256,uint256)":"infinite"}},"methodIdentifiers":{"ETH_TOKEN()":"58bc8337","GRACE_PERIOD()":"c1a287e2","HEARTBEAT_INTERVAL()":"34d1c8fe","PLATFORM_FEE_PERCENT()":"560d52d4","SESSION_START_TIMEOUT()":"f1343065","addSupportedToken(address)":"6d69fcaf","cancelSession(bytes32)":"4d213982","completeSession(bytes32,uint256,string)":"3a17ba64","createProgressiveSession(bytes32,address,address,uint256,uint256,uint256)":"f400272b","getAvailablePayment(bytes32)":"e906826c","getSession(bytes32)":"39b240bd","getUserNonce(address)":"6834e3a8","needsHeartbeat(bytes32)":"590a2cc1","owner()":"8da5cb5b","pause()":"8456cb59","pauseSession(bytes32)":"7ac1b469","paused()":"5c975abb","platformWallet()":"fa2af9da","releaseProgressivePayment(bytes32)":"ccb868dd","renounceOwnership()":"715018a6","resumeSession(bytes32)":"99173d6b","sessions(bytes32)":"7dbd2832","shouldAutoPause(bytes32)":"6baae9cc","startProgressiveSession(bytes32)":"b817be4c","supportedTokens(address)":"68c4ac26","transferOwnership(address)":"f2fde38b","unpause()":"3f4ba83a","updateHeartbeat(bytes32)":"02ceb406","updatePlatformWallet(address)":"ada4ef30","userNonces(address)":"2f7801f4"}},"storageLayout":{"storage":[{"astId":8,"contract":"contracts/ProgressiveEscrowV4_Final.sol:ProgressiveEscrowV4_Final","label":"_owner","offset":0,"slot":"0","type":"t_address"},{"astId":818,"contract":"contracts/ProgressiveEscrowV4_Final.sol:ProgressiveEscrowV4_Final","label":"_paused","offset":20,"slot":"0","type":"t_bool"},{"astId":928,"contract":"contracts/ProgressiveEscrowV4_Final.sol:ProgressiveEscrowV4_Final","label":"_status","offset":0,"slot":"1","type":"t_uint256"},{"astId":1035,"contract":"contracts/ProgressiveEscrowV4_Final.sol:ProgressiveEscrowV4_Final","label":"platformWallet","offset":0,"slot":"2","type":"t_address"},{"astId":1039,"contract":"contracts/ProgressiveEscrowV4_Final.sol:ProgressiveEscrowV4_Final","label":"supportedTokens","offset":0,"slot":"3","type":"t_mapping(t_address,t_bool)"},{"astId":1044,"contract":"contracts/ProgressiveEscrowV4_Final.sol:ProgressiveEscrowV4_Final","label":"sessions","offset":0,"slot":"4","type":"t_mapping(t_bytes32,t_struct(ProgressiveSession)1087_storage)"},{"astId":1048,"contract":"contracts/ProgressiveEscrowV4_Final.sol:ProgressiveEscrowV4_Final","label":"userNonces","offset":0,"slot":"5","type":"t_mapping(t_address,t_uint256)"}],"types":{"t_address":{"encoding":"inplace","label":"address","numberOfBytes":"20"},"t_bool":{"encoding":"inplace","label":"bool","numberOfBytes":"1"},"t_bytes32":{"encoding":"inplace","label":"bytes32","numberOfBytes":"32"},"t_enum(SessionStatus)1055":{"encoding":"inplace","label":"enum ProgressiveEscrowV4_Final.SessionStatus","numberOfBytes":"1"},"t_mapping(t_address,t_bool)":{"encoding":"mapping","key":"t_address","label":"mapping(address => bool)","numberOfBytes":"32","value":"t_bool"},"t_mapping(t_address,t_uint256)":{"encoding":"mapping","key":"t_address","label":"mapping(address => uint256)","numberOfBytes":"32","value":"t_uint256"},"t_mapping(t_bytes32,t_struct(ProgressiveSession)1087_storage)":{"encoding":"mapping","key":"t_bytes32","label":"mapping(bytes32 => struct ProgressiveEscrowV4_Final.ProgressiveSession)","numberOfBytes":"32","value":"t_struct(ProgressiveSession)1087_storage"},"t_struct(ProgressiveSession)1087_storage":{"encoding":"inplace","label":"struct ProgressiveEscrowV4_Final.ProgressiveSession","members":[{"astId":1057,"contract":"contracts/ProgressiveEscrowV4_Final.sol:ProgressiveEscrowV4_Final","label":"sessionId","offset":0,"slot":"0","type":"t_bytes32"},{"astId":1059,"contract":"contracts/ProgressiveEscrowV4_Final.sol:ProgressiveEscrowV4_Final","label":"student","offset":0,"slot":"1","type":"t_address"},{"astId":1061,"contract":"contracts/ProgressiveEscrowV4_Final.sol:ProgressiveEscrowV4_Final","label":"mentor","offset":0,"slot":"2","type":"t_address"},{"astId":1063,"contract":"contracts/ProgressiveEscrowV4_Final.sol:ProgressiveEscrowV4_Final","label":"paymentToken","offset":0,"slot":"3","type":"t_address"},{"astId":1065,"contract":"contracts/ProgressiveEscrowV4_Final.sol:ProgressiveEscrowV4_Final","label":"totalAmount","offset":0,"slot":"4","type":"t_uint256"},{"astId":1067,"contract":"contracts/ProgressiveEscrowV4_Final.sol:ProgressiveEscrowV4_Final","label":"releasedAmount","offset":0,"slot":"5","type":"t_uint256"},{"astId":1069,"contract":"contracts/ProgressiveEscrowV4_Final.sol:ProgressiveEscrowV4_Final","label":"sessionDuration","offset":0,"slot":"6","type":"t_uint256"},{"astId":1071,"contract":"contracts/ProgressiveEscrowV4_Final.sol:ProgressiveEscrowV4_Final","label":"startTime","offset":0,"slot":"7","type":"t_uint256"},{"astId":1073,"contract":"contracts/ProgressiveEscrowV4_Final.sol:ProgressiveEscrowV4_Final","label":"lastHeartbeat","offset":0,"slot":"8","type":"t_uint256"},{"astId":1075,"contract":"contracts/ProgressiveEscrowV4_Final.sol:ProgressiveEscrowV4_Final","label":"pausedTime","offset":0,"slot":"9","type":"t_uint256"},{"astId":1077,"contract":"contracts/ProgressiveEscrowV4_Final.sol:ProgressiveEscrowV4_Final","label":"createdAt","offset":0,"slot":"10","type":"t_uint256"},{"astId":1080,"contract":"contracts/ProgressiveEscrowV4_Final.sol:ProgressiveEscrowV4_Final","label":"status","offset":0,"slot":"11","type":"t_enum(SessionStatus)1055"},{"astId":1082,"contract":"contracts/ProgressiveEscrowV4_Final.sol:ProgressiveEscrowV4_Final","label":"isActive","offset":1,"slot":"11","type":"t_bool"},{"astId":1084,"contract":"contracts/ProgressiveEscrowV4_Final.sol:ProgressiveEscrowV4_Final","label":"isPaused","offset":2,"slot":"11","type":"t_bool"},{"astId":1086,"contract":"contracts/ProgressiveEscrowV4_Final.sol:ProgressiveEscrowV4_Final","label":"surveyCompleted","offset":3,"slot":"11","type":"t_bool"}],"numberOfBytes":"384"},"t_uint256":{"encoding":"inplace","label":"uint256","numberOfBytes":"32"}}},"userdoc":{"kind":"user","methods":{},"version":1}}}}