{
  "_format": "hh-sol-artifact-1",
  "contractName": "ProgressiveEscrowV4_UltraOptimized",
  "sourceName": "contracts/ProgressiveEscrowV4_UltraOptimized.sol",
  "abi": [
    {
      "inputs": [
        {
          "internalType": "address",
          "name": "_platformWallet",
          "type": "address"
        }
      ],
      "stateMutability": "nonpayable",
      "type": "constructor"
    },
    {
      "inputs": [],
      "name": "EnforcedPause",
      "type": "error"
    },
    {
      "inputs": [],
      "name": "ExpectedPause",
      "type": "error"
    },
    {
      "inputs": [
        {
          "internalType": "address",
          "name": "owner",
          "type": "address"
        }
      ],
      "name": "OwnableInvalidOwner",
      "type": "error"
    },
    {
      "inputs": [
        {
          "internalType": "address",
          "name": "account",
          "type": "address"
        }
      ],
      "name": "OwnableUnauthorizedAccount",
      "type": "error"
    },
    {
      "inputs": [],
      "name": "ReentrancyGuardReentrantCall",
      "type": "error"
    },
    {
      "inputs": [
        {
          "internalType": "address",
          "name": "token",
          "type": "address"
        }
      ],
      "name": "SafeERC20FailedOperation",
      "type": "error"
    },
    {
      "anonymous": false,
      "inputs": [
        {
          "indexed": true,
          "internalType": "bytes32",
          "name": "sessionId",
          "type": "bytes32"
        },
        {
          "indexed": false,
          "internalType": "uint256",
          "name": "timestamp",
          "type": "uint256"
        }
      ],
      "name": "HeartbeatReceived",
      "type": "event"
    },
    {
      "anonymous": false,
      "inputs": [
        {
          "indexed": true,
          "internalType": "address",
          "name": "previousOwner",
          "type": "address"
        },
        {
          "indexed": true,
          "internalType": "address",
          "name": "newOwner",
          "type": "address"
        }
      ],
      "name": "OwnershipTransferred",
      "type": "event"
    },
    {
      "anonymous": false,
      "inputs": [
        {
          "indexed": false,
          "internalType": "address",
          "name": "account",
          "type": "address"
        }
      ],
      "name": "Paused",
      "type": "event"
    },
    {
      "anonymous": false,
      "inputs": [
        {
          "indexed": true,
          "internalType": "bytes32",
          "name": "sessionId",
          "type": "bytes32"
        },
        {
          "indexed": false,
          "internalType": "uint256",
          "name": "amount",
          "type": "uint256"
        },
        {
          "indexed": false,
          "internalType": "uint256",
          "name": "totalReleased",
          "type": "uint256"
        },
        {
          "indexed": false,
          "internalType": "uint256",
          "name": "timestamp",
          "type": "uint256"
        }
      ],
      "name": "ProgressivePaymentReleased",
      "type": "event"
    },
    {
      "anonymous": false,
      "inputs": [
        {
          "indexed": true,
          "internalType": "bytes32",
          "name": "sessionId",
          "type": "bytes32"
        },
        {
          "indexed": false,
          "internalType": "uint256",
          "name": "mentorAmount",
          "type": "uint256"
        },
        {
          "indexed": false,
          "internalType": "uint256",
          "name": "platformFee",
          "type": "uint256"
        },
        {
          "indexed": false,
          "internalType": "uint256",
          "name": "completedAt",
          "type": "uint256"
        }
      ],
      "name": "SessionCompleted",
      "type": "event"
    },
    {
      "anonymous": false,
      "inputs": [
        {
          "indexed": true,
          "internalType": "bytes32",
          "name": "sessionId",
          "type": "bytes32"
        },
        {
          "indexed": true,
          "internalType": "address",
          "name": "student",
          "type": "address"
        },
        {
          "indexed": true,
          "internalType": "address",
          "name": "mentor",
          "type": "address"
        },
        {
          "indexed": false,
          "internalType": "uint256",
          "name": "amount",
          "type": "uint256"
        },
        {
          "indexed": false,
          "internalType": "address",
          "name": "token",
          "type": "address"
        }
      ],
      "name": "SessionCreated",
      "type": "event"
    },
    {
      "anonymous": false,
      "inputs": [
        {
          "indexed": true,
          "internalType": "bytes32",
          "name": "sessionId",
          "type": "bytes32"
        },
        {
          "indexed": false,
          "internalType": "uint256",
          "name": "pausedAt",
          "type": "uint256"
        },
        {
          "indexed": false,
          "internalType": "string",
          "name": "reason",
          "type": "string"
        }
      ],
      "name": "SessionPaused",
      "type": "event"
    },
    {
      "anonymous": false,
      "inputs": [
        {
          "indexed": true,
          "internalType": "bytes32",
          "name": "sessionId",
          "type": "bytes32"
        },
        {
          "indexed": false,
          "internalType": "uint256",
          "name": "resumedAt",
          "type": "uint256"
        }
      ],
      "name": "SessionResumed",
      "type": "event"
    },
    {
      "anonymous": false,
      "inputs": [
        {
          "indexed": true,
          "internalType": "bytes32",
          "name": "sessionId",
          "type": "bytes32"
        },
        {
          "indexed": false,
          "internalType": "uint256",
          "name": "startTime",
          "type": "uint256"
        }
      ],
      "name": "SessionStarted",
      "type": "event"
    },
    {
      "anonymous": false,
      "inputs": [
        {
          "indexed": false,
          "internalType": "address",
          "name": "token",
          "type": "address"
        },
        {
          "indexed": false,
          "internalType": "bool",
          "name": "supported",
          "type": "bool"
        }
      ],
      "name": "TokenSupportUpdated",
      "type": "event"
    },
    {
      "anonymous": false,
      "inputs": [
        {
          "indexed": false,
          "internalType": "address",
          "name": "account",
          "type": "address"
        }
      ],
      "name": "Unpaused",
      "type": "event"
    },
    {
      "stateMutability": "payable",
      "type": "fallback"
    },
    {
      "inputs": [],
      "name": "ETH_TOKEN",
      "outputs": [
        {
          "internalType": "address",
          "name": "",
          "type": "address"
        }
      ],
      "stateMutability": "view",
      "type": "function"
    },
    {
      "inputs": [],
      "name": "GRACE_PERIOD",
      "outputs": [
        {
          "internalType": "uint256",
          "name": "",
          "type": "uint256"
        }
      ],
      "stateMutability": "view",
      "type": "function"
    },
    {
      "inputs": [],
      "name": "HEARTBEAT_INTERVAL",
      "outputs": [
        {
          "internalType": "uint256",
          "name": "",
          "type": "uint256"
        }
      ],
      "stateMutability": "view",
      "type": "function"
    },
    {
      "inputs": [],
      "name": "PLATFORM_FEE_PERCENT",
      "outputs": [
        {
          "internalType": "uint256",
          "name": "",
          "type": "uint256"
        }
      ],
      "stateMutability": "view",
      "type": "function"
    },
    {
      "inputs": [],
      "name": "SESSION_START_TIMEOUT",
      "outputs": [
        {
          "internalType": "uint256",
          "name": "",
          "type": "uint256"
        }
      ],
      "stateMutability": "view",
      "type": "function"
    },
    {
      "inputs": [
        {
          "internalType": "address",
          "name": "token",
          "type": "address"
        }
      ],
      "name": "addSupportedToken",
      "outputs": [],
      "stateMutability": "nonpayable",
      "type": "function"
    },
    {
      "inputs": [
        {
          "internalType": "bytes32",
          "name": "sessionId",
          "type": "bytes32"
        }
      ],
      "name": "cancelSession",
      "outputs": [],
      "stateMutability": "nonpayable",
      "type": "function"
    },
    {
      "inputs": [
        {
          "internalType": "bytes32",
          "name": "sessionId",
          "type": "bytes32"
        },
        {
          "internalType": "uint256",
          "name": "rating",
          "type": "uint256"
        },
        {
          "internalType": "string",
          "name": "",
          "type": "string"
        }
      ],
      "name": "completeSession",
      "outputs": [],
      "stateMutability": "nonpayable",
      "type": "function"
    },
    {
      "inputs": [
        {
          "internalType": "bytes32",
          "name": "sessionId",
          "type": "bytes32"
        },
        {
          "internalType": "address",
          "name": "mentor",
          "type": "address"
        },
        {
          "internalType": "address",
          "name": "paymentToken",
          "type": "address"
        },
        {
          "internalType": "uint256",
          "name": "amount",
          "type": "uint256"
        },
        {
          "internalType": "uint256",
          "name": "durationMinutes",
          "type": "uint256"
        },
        {
          "internalType": "uint256",
          "name": "nonce",
          "type": "uint256"
        }
      ],
      "name": "createProgressiveSession",
      "outputs": [],
      "stateMutability": "payable",
      "type": "function"
    },
    {
      "inputs": [
        {
          "internalType": "bytes32",
          "name": "sessionId",
          "type": "bytes32"
        }
      ],
      "name": "getAvailablePayment",
      "outputs": [
        {
          "internalType": "uint256",
          "name": "",
          "type": "uint256"
        }
      ],
      "stateMutability": "view",
      "type": "function"
    },
    {
      "inputs": [
        {
          "internalType": "bytes32",
          "name": "sessionId",
          "type": "bytes32"
        }
      ],
      "name": "getSession",
      "outputs": [
        {
          "components": [
            {
              "internalType": "bytes32",
              "name": "sessionId",
              "type": "bytes32"
            },
            {
              "internalType": "address",
              "name": "student",
              "type": "address"
            },
            {
              "internalType": "address",
              "name": "mentor",
              "type": "address"
            },
            {
              "internalType": "address",
              "name": "paymentToken",
              "type": "address"
            },
            {
              "internalType": "uint256",
              "name": "totalAmount",
              "type": "uint256"
            },
            {
              "internalType": "uint256",
              "name": "releasedAmount",
              "type": "uint256"
            },
            {
              "internalType": "uint256",
              "name": "sessionDuration",
              "type": "uint256"
            },
            {
              "internalType": "uint256",
              "name": "startTime",
              "type": "uint256"
            },
            {
              "internalType": "uint256",
              "name": "lastHeartbeat",
              "type": "uint256"
            },
            {
              "internalType": "uint256",
              "name": "pausedTime",
              "type": "uint256"
            },
            {
              "internalType": "uint256",
              "name": "createdAt",
              "type": "uint256"
            },
            {
              "internalType": "enum ProgressiveEscrowV4_UltraOptimized.SessionStatus",
              "name": "status",
              "type": "uint8"
            },
            {
              "internalType": "bool",
              "name": "isActive",
              "type": "bool"
            },
            {
              "internalType": "bool",
              "name": "isPaused",
              "type": "bool"
            },
            {
              "internalType": "bool",
              "name": "surveyCompleted",
              "type": "bool"
            }
          ],
          "internalType": "struct ProgressiveEscrowV4_UltraOptimized.ProgressiveSession",
          "name": "",
          "type": "tuple"
        }
      ],
      "stateMutability": "view",
      "type": "function"
    },
    {
      "inputs": [
        {
          "internalType": "address",
          "name": "user",
          "type": "address"
        }
      ],
      "name": "getUserNonce",
      "outputs": [
        {
          "internalType": "uint256",
          "name": "",
          "type": "uint256"
        }
      ],
      "stateMutability": "view",
      "type": "function"
    },
    {
      "inputs": [
        {
          "internalType": "bytes32",
          "name": "sessionId",
          "type": "bytes32"
        }
      ],
      "name": "needsHeartbeat",
      "outputs": [
        {
          "internalType": "bool",
          "name": "",
          "type": "bool"
        }
      ],
      "stateMutability": "view",
      "type": "function"
    },
    {
      "inputs": [],
      "name": "owner",
      "outputs": [
        {
          "internalType": "address",
          "name": "",
          "type": "address"
        }
      ],
      "stateMutability": "view",
      "type": "function"
    },
    {
      "inputs": [],
      "name": "pause",
      "outputs": [],
      "stateMutability": "nonpayable",
      "type": "function"
    },
    {
      "inputs": [
        {
          "internalType": "bytes32",
          "name": "sessionId",
          "type": "bytes32"
        }
      ],
      "name": "pauseSession",
      "outputs": [],
      "stateMutability": "nonpayable",
      "type": "function"
    },
    {
      "inputs": [],
      "name": "paused",
      "outputs": [
        {
          "internalType": "bool",
          "name": "",
          "type": "bool"
        }
      ],
      "stateMutability": "view",
      "type": "function"
    },
    {
      "inputs": [],
      "name": "platformWallet",
      "outputs": [
        {
          "internalType": "address",
          "name": "",
          "type": "address"
        }
      ],
      "stateMutability": "view",
      "type": "function"
    },
    {
      "inputs": [
        {
          "internalType": "bytes32",
          "name": "sessionId",
          "type": "bytes32"
        }
      ],
      "name": "releaseProgressivePayment",
      "outputs": [],
      "stateMutability": "nonpayable",
      "type": "function"
    },
    {
      "inputs": [],
      "name": "renounceOwnership",
      "outputs": [],
      "stateMutability": "nonpayable",
      "type": "function"
    },
    {
      "inputs": [
        {
          "internalType": "bytes32",
          "name": "sessionId",
          "type": "bytes32"
        }
      ],
      "name": "resumeSession",
      "outputs": [],
      "stateMutability": "nonpayable",
      "type": "function"
    },
    {
      "inputs": [
        {
          "internalType": "bytes32",
          "name": "",
          "type": "bytes32"
        }
      ],
      "name": "sessions",
      "outputs": [
        {
          "internalType": "bytes32",
          "name": "sessionId",
          "type": "bytes32"
        },
        {
          "internalType": "address",
          "name": "student",
          "type": "address"
        },
        {
          "internalType": "address",
          "name": "mentor",
          "type": "address"
        },
        {
          "internalType": "address",
          "name": "paymentToken",
          "type": "address"
        },
        {
          "internalType": "uint256",
          "name": "totalAmount",
          "type": "uint256"
        },
        {
          "internalType": "uint256",
          "name": "releasedAmount",
          "type": "uint256"
        },
        {
          "internalType": "uint256",
          "name": "sessionDuration",
          "type": "uint256"
        },
        {
          "internalType": "uint256",
          "name": "startTime",
          "type": "uint256"
        },
        {
          "internalType": "uint256",
          "name": "lastHeartbeat",
          "type": "uint256"
        },
        {
          "internalType": "uint256",
          "name": "pausedTime",
          "type": "uint256"
        },
        {
          "internalType": "uint256",
          "name": "createdAt",
          "type": "uint256"
        },
        {
          "internalType": "enum ProgressiveEscrowV4_UltraOptimized.SessionStatus",
          "name": "status",
          "type": "uint8"
        },
        {
          "internalType": "bool",
          "name": "isActive",
          "type": "bool"
        },
        {
          "internalType": "bool",
          "name": "isPaused",
          "type": "bool"
        },
        {
          "internalType": "bool",
          "name": "surveyCompleted",
          "type": "bool"
        }
      ],
      "stateMutability": "view",
      "type": "function"
    },
    {
      "inputs": [
        {
          "internalType": "bytes32",
          "name": "sessionId",
          "type": "bytes32"
        }
      ],
      "name": "shouldAutoPause",
      "outputs": [
        {
          "internalType": "bool",
          "name": "",
          "type": "bool"
        }
      ],
      "stateMutability": "view",
      "type": "function"
    },
    {
      "inputs": [
        {
          "internalType": "bytes32",
          "name": "sessionId",
          "type": "bytes32"
        }
      ],
      "name": "startProgressiveSession",
      "outputs": [],
      "stateMutability": "nonpayable",
      "type": "function"
    },
    {
      "inputs": [
        {
          "internalType": "address",
          "name": "",
          "type": "address"
        }
      ],
      "name": "supportedTokens",
      "outputs": [
        {
          "internalType": "bool",
          "name": "",
          "type": "bool"
        }
      ],
      "stateMutability": "view",
      "type": "function"
    },
    {
      "inputs": [
        {
          "internalType": "address",
          "name": "newOwner",
          "type": "address"
        }
      ],
      "name": "transferOwnership",
      "outputs": [],
      "stateMutability": "nonpayable",
      "type": "function"
    },
    {
      "inputs": [],
      "name": "unpause",
      "outputs": [],
      "stateMutability": "nonpayable",
      "type": "function"
    },
    {
      "inputs": [
        {
          "internalType": "bytes32",
          "name": "sessionId",
          "type": "bytes32"
        }
      ],
      "name": "updateHeartbeat",
      "outputs": [],
      "stateMutability": "nonpayable",
      "type": "function"
    },
    {
      "inputs": [
        {
          "internalType": "address",
          "name": "newWallet",
          "type": "address"
        }
      ],
      "name": "updatePlatformWallet",
      "outputs": [],
      "stateMutability": "nonpayable",
      "type": "function"
    },
    {
      "inputs": [
        {
          "internalType": "address",
          "name": "",
          "type": "address"
        }
      ],
      "name": "userNonces",
      "outputs": [
        {
          "internalType": "uint256",
          "name": "",
          "type": "uint256"
        }
      ],
      "stateMutability": "view",
      "type": "function"
    },
    {
      "stateMutability": "payable",
      "type": "receive"
    }
  ],
  "bytecode": "0x60803461039e57601f61218038819003918201601f19168301916001600160401b038311848410176103a35780849260209460405283398101031261039e57516001600160a01b0381169081900361039e5733156103885760008054336001600160a01b03198216811783556040519290916001600160a01b0316907f8be0079c531659141344cd1fd0a4f28419497f9722a3daafe3b4186f6b6457e09080a36001805581156103465750600280546001600160a01b0319169190911790556000805260036020527f3617319a054d772f909f7c479a2cebe5066e836a939412e32403c99029b92eff805460ff191660011790554661a4b1036101b55760036020527f01a6815bb93aaceaf6fcc060af4265023af0225b52d9323bd14a0b81ead724ff8054600160ff19918216811790925573fd086bc7cd5c481dcc9c85ebe478a1c0b69fcbb96000527f1c66039deeb42d6aff0a33e141a5b7fcb18319e34da8682e8447103253c6899d805490911690911790555b7fbbe72b7d9dcb594ee398a4a617885aba53d833e2aad601c813ce9df99fdeb49b604080516000815260016020820152a1604051611dc690816103ba8239f35b466121050361023c5760036020527f945846cd798efcc1aeaa663b24b9ae9271a3a7b7ca01fd424888a0e6962713858054600160ff19918216811790925573fde4c96c8593536e31f229ea8f37b2ada2699bb26000527f3b7e17b667027e08baed76d05ea1f0f93c5fc24a54b2cc6f575fe37a3c5e5a41805490911690911790555b610175565b46600a036102c15760036020527f4bb659fc66aed220d8c76d343bedc1c72812738a116159dea568e9051aa73fc78054600160ff1991821681179092557394b008aa00579c1307b0ef2c499ad98a8ce58e586000527f5bd25999661ae01fd7fc11b2893f789ec5453cf8724da048d0e5c350f4a1cdfc80549091169091179055610175565b608946036102375760036020527f0327f1365ac56c1f1e49b7693a6598d766722e77bea7cba8e65c8ee8d37fc45d8054600160ff19918216811790925573c2132d05d31c914a87c6611c10748aeb04b58e8f6000527f8074f9b31d5eea44f67a93802db877cc8595c0116fdb14f15f1ec6dc1e931a1c80549091169091179055610175565b62461bcd60e51b815260206004820152601760248201527f496e76616c696420706c6174666f726d2077616c6c65740000000000000000006044820152606490fd5b631e4fbdf760e01b600052600060045260246000fd5b600080fd5b634e487b7160e01b600052604160045260246000fdfe60806040526004361015610050575b361561004e5760405162461bcd60e51b8152602060048201526012602482015271119d5b98dd1a5bdb881b9bdd08199bdd5b9960721b6044820152606490fd5b005b60003560e01c806302ceb406146118d95780632f7801f41461114757806334d1c8fe146118bd57806339b240bd146116a25780633a17ba64146114055780633f4ba83a146113945780634d21398214611255578063560d52d41461123957806358bc83371461121d578063590a2cc1146111a75780635c975abb146111815780636834e3a81461114757806368c4ac26146111085780636baae9cc1461106f5780636d69fcaf14610ffc578063715018a614610fa35780637ac1b46914610d635780637dbd283214610c705780638456cb5914610c0e5780638da5cb5b14610be557806399173d6b14610ab6578063ada4ef3014610a3a578063b817be4c146108ba578063c1a287e21461089e578063ccb868dd146105a4578063e906826c1461057e578063f134306514610561578063f2fde38b146104d8578063f400272b146101cd5763fa2af9da0361000e57346101c85760003660031901126101c8576002546040516001600160a01b039091168152602090f35b600080fd5b60c03660031901126101c8576024356001600160a01b03811690600435908290036101c8576044356001600160a01b03811691908290036101c85760643591608435610217611ca5565b61021f611d32565b841515806104ce575b806104b6575b806104ad575b806104a4575b1561046e576000838152600460205260409020600101546001600160a01b03161580610455575b15610416573360005260056020526040600020805460001981146104005760010190558161038457833403610350575b60008381526004602081815260408084206003810180546001600160a01b0319908116891790915560028201805482168c1790556001820180543392168217905588825560078201869055600682019690965560058101859055928301889055600b8301805442600a8601556009850186905560089094019490945563ffffffff19909216909255805195865290850192909252927fa5d7a3cf3954591f1af3cd96f79210169bbaf7e3b3a3e60de11886bc773649e09190a460018055005b60405162461bcd60e51b815260206004820152600c60248201526b08aa89040dad2e6dac2e8c6d60a31b6044820152606490fd5b346103c8576103c36040516323b872dd60e01b6020820152336024820152306044820152856064820152606481526103bd608482611ac5565b83611d52565b610291565b60405162461bcd60e51b815260206004820152601060248201526f04e6f2045544820666f722045524332360841b6044820152606490fd5b634e487b7160e01b600052601160045260246000fd5b60405162461bcd60e51b815260206004820152601760248201527653657373696f6e20657869737473206f72206e6f6e636560481b6044820152606490fd5b5033600052600560205260406000205460a43514610261565b60405162461bcd60e51b815260206004820152600e60248201526d496e76616c696420706172616d7360901b6044820152606490fd5b5080151561023a565b50831515610234565b5081600052600360205260ff6040600020541661022e565b5033851415610228565b346101c85760203660031901126101c8576104f1611a55565b6104f9611d09565b6001600160a01b0316801561054b57600080546001600160a01b03198116831782556001600160a01b0316907f8be0079c531659141344cd1fd0a4f28419497f9722a3daafe3b4186f6b6457e09080a3005b631e4fbdf760e01b600052600060045260246000fd5b346101c85760003660031901126101c85760206040516103848152f35b346101c85760203660031901126101c857602061059c600435611b93565b604051908152f35b346101c85760203660031901126101c8576004356105c0611ca5565b600081815260046020526040902060018101546001600160a01b03168015158061086e575b8061085d575b8061084b575b8061083e575b1561080757331480156107f1575b156107ba57610618600782015442611a78565b90603c820180921161040057600481015491605a830292808404605a149015171561040057603c61064a910483611ae7565b6006820154906064820291808304606414901517156104005760649161066f91611afa565b92048083116107b2575b506005810180549283811115610776578361069391611a78565b918215610744576106c5837ff2446e1f418253f1b6b8f9b8ebf603fd78b61d59024e68b0d687d1ecc22b8a4095611a85565b8255600381015483906001600160a01b031680610728575060008080809361070495600260018060a01b03910154165af16106fe611b1a565b50611b5a565b54604080519283526020830191909152429082015280606081015b0390a260018055005b61073f92600260018060a01b039101541690611cc7565b610704565b60405162461bcd60e51b815260206004820152600a602482015269139bc81c185e5b595b9d60b21b6044820152606490fd5b60405162461bcd60e51b81526020600482015260146024820152734e6f207061796d656e7420617661696c61626c6560601b6044820152606490fd5b915083610679565b60405162461bcd60e51b815260206004820152600f60248201526e139bdd081c185c9d1a58da5c185b9d608a1b6044820152606490fd5b5060028101546001600160a01b03163314610605565b60405162461bcd60e51b815260206004820152600f60248201526e496e76616c69642072656c6561736560881b6044820152606490fd5b50600782015415156105f7565b5060ff600b83015460101c16156105f1565b5060ff600b83015460081c166105eb565b5060ff600b830154166006811015610888576001146105e5565b634e487b7160e01b600052602160045260246000fd5b346101c85760003660031901126101c8576020604051603c8152f35b346101c85760203660031901126101c8576004356108d6611ca5565b600081815260046020526040902060018101546001600160a01b031680151580610a22575b156109dd57331480156109c7575b806109ad575b1561096857600b810180544260088401819055600790930183905562ffffff19166101011790556040519081527fd010adb8a640e9a6a134ce407a4e27deb32fab5b64ea5847c55101907d9c257890602090a260018055005b60405162461bcd60e51b815260206004820152601a60248201527f4e6f74207061727469636970616e74206f722074696d656f75740000000000006044820152606490fd5b50600a81015461038481018091116104005742111561090f565b5060028101546001600160a01b03163314610909565b60405162461bcd60e51b815260206004820152601a60248201527f53657373696f6e206d697373696e67206f7220737461727465640000000000006044820152606490fd5b5060ff600b83015416600681101561088857156108fb565b346101c85760203660031901126101c857610a53611a55565b610a5b611d09565b6001600160a01b03168015610a8057600280546001600160a01b031916919091179055005b60405162461bcd60e51b815260206004820152600e60248201526d125b9d985b1a59081dd85b1b195d60921b6044820152606490fd5b346101c85760203660031901126101c857600435610ad2611ca5565b600081815260046020526040902060018101546001600160a01b03168015159081610bc9575b81610ba2575b5015610b6c57600b6008820191610b16835442611a78565b610b2560098301918254611a85565b9055429283905501805462ff00ff191660011790556040519081527f3dd443712f1bb154053901f56ef4a45320caeee475fc1b8f448abb8a5abd7ec190602090a260018055005b60405162461bcd60e51b815260206004820152600e60248201526d496e76616c696420726573756d6560901b6044820152606490fd5b905033148015610bb3575b83610afe565b5060028101546001600160a01b03163314610bad565b905060ff600b8301541660068110156108885760021490610af8565b346101c85760003660031901126101c8576000546040516001600160a01b039091168152602090f35b346101c85760003660031901126101c857610c27611d09565b610c2f611d32565b6000805460ff60a01b1916600160a01b1790556040513381527f62e78cea01bee320cd4e420270b5ea74000d11b0c9f74754ebdbfc544b05a25890602090a1005b346101c85760203660031901126101c85760043560005260046020526101e0604060002060ff81549160018060a01b036001820154169060018060a01b0360028201541660018060a01b0360038301541660048301546005840154600685015490600786015492600887015494600988015496600b600a8a0154990154996040519c8d5260208d015260408c015260608b015260808a015260a089015260c088015260e0870152610100860152610120850152610140840152610d396101608401838316611a6b565b818160081c161515610180840152818160101c1615156101a084015260181c1615156101c0820152f35b346101c85760203660031901126101c857600435610d7f611ca5565b600081815260046020526040902060018101546001600160a01b031680151580610f89575b80610f77575b15610f425733148015610f2c575b60088201908154601e81019081811161040057605a0180911161040057421192818215610f25575b15610ef157600b01805462ff00ff19166201000217905580610ee9575b610ee0575b5060009015610eb25750604051610e1a604082611ac5565b60118152701219585c9d1899585d081d1a5b595bdd5d607a1b6020820152905b6040514281526040602082015282519283604083015260005b848110610e9c57837fec452bb0b82c12deb4f139fa1dfc53d2e3606e8bf03ca6a3f007d0dd6fd5350784606081896000838284010152601f80199101168101030190a260018055005b8060208092840101516060828601015201610e53565b50604051610ec1604082611ac5565b600c81526b4d616e75616c20706175736560a01b602082015290610e3a565b42905582610e02565b508115610dfd565b60405162461bcd60e51b815260206004820152600c60248201526b155b985d5d1a1bdc9a5e995960a21b6044820152606490fd5b5083610de0565b5060028101546001600160a01b03163314610db8565b60405162461bcd60e51b815260206004820152600d60248201526c496e76616c696420706175736560981b6044820152606490fd5b5060ff600b83015460101c1615610daa565b5060ff600b83015416600681101561088857600114610da4565b346101c85760003660031901126101c857610fbc611d09565b600080546001600160a01b0319811682556001600160a01b03167f8be0079c531659141344cd1fd0a4f28419497f9722a3daafe3b4186f6b6457e08280a3005b346101c85760203660031901126101c8577fbbe72b7d9dcb594ee398a4a617885aba53d833e2aad601c813ce9df99fdeb49b6040611038611a55565b611040611d09565b60018060a01b031680600052600360205281600020600160ff19825416179055815190815260016020820152a1005b346101c85760203660031901126101c85760043560005260046020526040600020600b8101549060ff821660068110156108885760011491826110f9575b50816110eb575b816110c7575b6020826040519015158152f35b60080154601e8101915081811161040057605a0180911161040057421160206110ba565b6008810154151591506110b4565b60101c60ff16159150826110ad565b346101c85760203660031901126101c8576001600160a01b03611129611a55565b166000526003602052602060ff604060002054166040519015158152f35b346101c85760203660031901126101c8576001600160a01b03611168611a55565b1660005260056020526020604060002054604051908152f35b346101c85760003660031901126101c857602060ff60005460a01c166040519015158152f35b346101c85760203660031901126101c8576004356000526004602052604060002060ff600b82015416600681101561088857600114908161120f575b816111f5576020826040519015158152f35b600891500154601e810180911161040057421160206110ba565b6008810154151591506111e3565b346101c85760003660031901126101c857602060405160008152f35b346101c85760003660031901126101c8576020604051600a8152f35b346101c85760203660031901126101c85761126e611ca5565b60043560005260046020526040600020600181019060018060a01b03825416801515908161137a575b81611353575b501561131d57600b8101600460ff1982541617905560048101549060058101916112c8835482611a78565b9255600301546001600160a01b03168061130157506000808080936112fb9560018060a01b039054165af16106fe611b1a565b60018055005b9154611318926001600160a01b0390911690611cc7565b6112fb565b60405162461bcd60e51b815260206004820152600e60248201526d125b9d985b1a590818d85b98d95b60921b6044820152606490fd5b905033148015611364575b8361129d565b5060028101546001600160a01b0316331461135e565b905060ff600b830154166006811015610888571590611297565b346101c85760003660031901126101c8576113ad611d09565b60005460ff8160a01c16156113f45760ff60a01b19166000556040513381527f5db9ee0a495bf2e6ff9c91a7834c1ba4fdd244a5e8aa4e537bd38aeae4b073aa90602090a1005b638dfc202b60e01b60005260046000fd5b346101c85760603660031901126101c85760043560243560443567ffffffffffffffff81116101c857366023820112156101c857806004013567ffffffffffffffff81116101c857369101602401116101c857611460611ca5565b81600052600460205260406000209060018060a01b03600183015416908115159182611698575b508161168c575b81611680575b501561164657600b8101805460ff81166006811015610888576001811490811561163b575b501561160a5763ff00ffff191663010000031790556004810154600582018054919290916114e79084611a78565b90600a820293828504600a14831517156104005761152a60647f556195694fc082ad19415eaec58c1584ec20066f6e655be3034932c454d38a2396048094611a78565b9355826115b1575b81611557575b506040805192835260208301919091524290820152806060810161071f565b600301546001600160a01b031681816115945760025461158e92506000918291829182916001600160a01b03165af16106fe611b1a565b84611538565b6002546115ac926001600160a01b0390911690611cc7565b61158e565b60038101546001600160a01b031683816115f05760028301546115eb92506000918291829182916001600160a01b03165af16106fe611b1a565b611532565b60028301546115eb926001600160a01b0390911690611cc7565b60405162461bcd60e51b81526020600482015260096024820152684e6f7420726561647960b81b6044820152606490fd5b6002915014856114b9565b60405162461bcd60e51b815260206004820152601260248201527124b73b30b634b21031b7b6b83632ba34b7b760711b6044820152606490fd5b60059150111583611494565b6001811015915061148e565b3314915084611487565b346101c85760203660031901126101c85760006101c06040516116c481611a92565b8281528260208201528260408201528260608201528260808201528260a08201528260c08201528260e08201528261010082015282610120820152826101408201528261016082015282610180820152826101a08201520152600435600052600460205260406000206040519061173a82611a92565b8054825260018101546001600160a01b03908116602084019081526002830154821660408501908152600384015490921660608501908152600484015460808601908152600585015460a0870190815260068087015460c08901908152600788015460e08a0190815260088901546101008b0190815260098a01546101208c01908152600a8b01546101408d01908152600b909b0154989b989a6101608a019890979196929593949360ff8d16908110156108885789526101808a01998c60081c60ff1615158b526101a081019b8d60101c60ff1615158d526101c08201809e60181c60ff16151590526040519e8f92518352600160a01b600190039051166020830152600160a01b600190039051169060400152600160a01b6001900390511660608d01525160808c01525160a08b01525160c08a01525160e089015251610100880152516101208701525161014086015251610160850161189c91611a6b565b5115156101808401525115156101a08301525115156101c08201526101e090f35b346101c85760003660031901126101c8576020604051601e8152f35b346101c85760203660031901126101c8576004356118f5611ca5565b600081815260046020526040902060018101546001600160a01b03168015159081611a39575b81611a12575b50156119cd57426008820155600b81019060ff825460101c16611970575b827f3cf0bf7708060bf073b6ddb921eef0485b3eb9da828e0ed751fa6582ef337f576020604051428152a260018055005b611989600961197f4242611a78565b9201918254611a85565b9055805462ff00ff1916600117905560405142815281907f3dd443712f1bb154053901f56ef4a45320caeee475fc1b8f448abb8a5abd7ec190602090a2818061193f565b60405162461bcd60e51b815260206004820152601e60248201527f496e76616c69642073657373696f6e206f72207061727469636970616e7400006044820152606490fd5b905033148015611a23575b83611921565b5060028101546001600160a01b03163314611a1d565b905060ff600b830154166006811015610888576001149061191b565b600435906001600160a01b03821682036101c857565b9060068210156108885752565b9190820391821161040057565b9190820180921161040057565b6101e0810190811067ffffffffffffffff821117611aaf57604052565b634e487b7160e01b600052604160045260246000fd5b90601f8019910116810190811067ffffffffffffffff821117611aaf57604052565b8181029291811591840414171561040057565b8115611b04570490565b634e487b7160e01b600052601260045260246000fd5b3d15611b55573d9067ffffffffffffffff8211611aaf5760405191611b49601f8201601f191660200184611ac5565b82523d6000602084013e565b606090565b15611b6157565b60405162461bcd60e51b815260206004820152600a6024820152691155120819985a5b195960b21b6044820152606490fd5b60005260046020526040600020611bae600782015442611a78565b603c810180911161040057603c90049081158015611c8a575b8015611c78575b8015611c67575b8015611c5b575b611c4b57600481015491605a830292808404605a149015171561040057611c039083611ae7565b60068201549060648202918083046064149015171561040057606491611c2891611afa565b9204808311611c52575b506005015480821115611c4b57611c4891611a78565b90565b5050600090565b91506005611c32565b50600681015415611bdc565b5060ff600b82015460101c16611bd5565b5060ff600b82015460081c1615611bce565b5060ff600b8201541660068110156108885760011415611bc7565b600260015414611cb6576002600155565b633ee5aeb560e01b60005260046000fd5b60405163a9059cbb60e01b60208201526001600160a01b039092166024830152604480830193909352918152611d0791611d02606483611ac5565b611d52565b565b6000546001600160a01b03163303611d1d57565b63118cdaa760e01b6000523360045260246000fd5b60ff60005460a01c16611d4157565b63d93c066560e01b60005260046000fd5b906000602091828151910182855af115611dad576000513d611da457506001600160a01b0381163b155b611d835750565b635274afe760e01b60009081526001600160a01b0391909116600452602490fd5b60011415611d7c565b6040513d6000823e3d90fdfea164736f6c634300081e000a",
  "linkReferences": {},
  "deployedLinkReferences": {}
}