{
  "_format": "hh-sol-artifact-1",
  "contractName": "ProgressiveEscrowV5",
  "sourceName": "contracts/ProgressiveEscrowV5.sol",
  "abi": [
    {
      "inputs": [
        {
          "internalType": "address",
          "name": "_platformWallet",
          "type": "address"
        }
      ],
      "stateMutability": "nonpayable",
      "type": "constructor"
    },
    {
      "inputs": [],
      "name": "EnforcedPause",
      "type": "error"
    },
    {
      "inputs": [],
      "name": "ExpectedPause",
      "type": "error"
    },
    {
      "inputs": [
        {
          "internalType": "address",
          "name": "owner",
          "type": "address"
        }
      ],
      "name": "OwnableInvalidOwner",
      "type": "error"
    },
    {
      "inputs": [
        {
          "internalType": "address",
          "name": "account",
          "type": "address"
        }
      ],
      "name": "OwnableUnauthorizedAccount",
      "type": "error"
    },
    {
      "inputs": [],
      "name": "ReentrancyGuardReentrantCall",
      "type": "error"
    },
    {
      "inputs": [
        {
          "internalType": "address",
          "name": "token",
          "type": "address"
        }
      ],
      "name": "SafeERC20FailedOperation",
      "type": "error"
    },
    {
      "anonymous": false,
      "inputs": [
        {
          "indexed": true,
          "internalType": "bytes32",
          "name": "sessionId",
          "type": "bytes32"
        },
        {
          "indexed": false,
          "internalType": "uint256",
          "name": "amount",
          "type": "uint256"
        },
        {
          "indexed": false,
          "internalType": "string",
          "name": "reason",
          "type": "string"
        }
      ],
      "name": "EmergencyRelease",
      "type": "event"
    },
    {
      "anonymous": false,
      "inputs": [
        {
          "indexed": true,
          "internalType": "bytes32",
          "name": "sessionId",
          "type": "bytes32"
        },
        {
          "indexed": false,
          "internalType": "uint256",
          "name": "timestamp",
          "type": "uint256"
        }
      ],
      "name": "HeartbeatReceived",
      "type": "event"
    },
    {
      "anonymous": false,
      "inputs": [
        {
          "indexed": true,
          "internalType": "address",
          "name": "previousOwner",
          "type": "address"
        },
        {
          "indexed": true,
          "internalType": "address",
          "name": "newOwner",
          "type": "address"
        }
      ],
      "name": "OwnershipTransferred",
      "type": "event"
    },
    {
      "anonymous": false,
      "inputs": [
        {
          "indexed": false,
          "internalType": "address",
          "name": "account",
          "type": "address"
        }
      ],
      "name": "Paused",
      "type": "event"
    },
    {
      "anonymous": false,
      "inputs": [
        {
          "indexed": true,
          "internalType": "bytes32",
          "name": "sessionId",
          "type": "bytes32"
        },
        {
          "indexed": false,
          "internalType": "uint256",
          "name": "amount",
          "type": "uint256"
        },
        {
          "indexed": false,
          "internalType": "uint256",
          "name": "totalReleased",
          "type": "uint256"
        },
        {
          "indexed": false,
          "internalType": "uint256",
          "name": "timestamp",
          "type": "uint256"
        }
      ],
      "name": "ProgressivePaymentReleased",
      "type": "event"
    },
    {
      "anonymous": false,
      "inputs": [
        {
          "indexed": true,
          "internalType": "bytes32",
          "name": "sessionId",
          "type": "bytes32"
        },
        {
          "indexed": false,
          "internalType": "uint256",
          "name": "refundAmount",
          "type": "uint256"
        },
        {
          "indexed": false,
          "internalType": "uint256",
          "name": "cancelledAt",
          "type": "uint256"
        }
      ],
      "name": "SessionCancelled",
      "type": "event"
    },
    {
      "anonymous": false,
      "inputs": [
        {
          "indexed": true,
          "internalType": "bytes32",
          "name": "sessionId",
          "type": "bytes32"
        },
        {
          "indexed": false,
          "internalType": "uint256",
          "name": "mentorAmount",
          "type": "uint256"
        },
        {
          "indexed": false,
          "internalType": "uint256",
          "name": "platformFee",
          "type": "uint256"
        },
        {
          "indexed": false,
          "internalType": "uint256",
          "name": "completedAt",
          "type": "uint256"
        }
      ],
      "name": "SessionCompleted",
      "type": "event"
    },
    {
      "anonymous": false,
      "inputs": [
        {
          "indexed": true,
          "internalType": "bytes32",
          "name": "sessionId",
          "type": "bytes32"
        },
        {
          "indexed": true,
          "internalType": "address",
          "name": "student",
          "type": "address"
        },
        {
          "indexed": true,
          "internalType": "address",
          "name": "mentor",
          "type": "address"
        },
        {
          "indexed": false,
          "internalType": "uint256",
          "name": "amount",
          "type": "uint256"
        },
        {
          "indexed": false,
          "internalType": "address",
          "name": "token",
          "type": "address"
        }
      ],
      "name": "SessionCreated",
      "type": "event"
    },
    {
      "anonymous": false,
      "inputs": [
        {
          "indexed": true,
          "internalType": "bytes32",
          "name": "sessionId",
          "type": "bytes32"
        },
        {
          "indexed": false,
          "internalType": "uint256",
          "name": "refundAmount",
          "type": "uint256"
        }
      ],
      "name": "SessionExpired",
      "type": "event"
    },
    {
      "anonymous": false,
      "inputs": [
        {
          "indexed": true,
          "internalType": "bytes32",
          "name": "sessionId",
          "type": "bytes32"
        },
        {
          "indexed": false,
          "internalType": "uint256",
          "name": "pausedAt",
          "type": "uint256"
        },
        {
          "indexed": false,
          "internalType": "string",
          "name": "reason",
          "type": "string"
        }
      ],
      "name": "SessionPaused",
      "type": "event"
    },
    {
      "anonymous": false,
      "inputs": [
        {
          "indexed": true,
          "internalType": "bytes32",
          "name": "sessionId",
          "type": "bytes32"
        },
        {
          "indexed": false,
          "internalType": "uint256",
          "name": "resumedAt",
          "type": "uint256"
        }
      ],
      "name": "SessionResumed",
      "type": "event"
    },
    {
      "anonymous": false,
      "inputs": [
        {
          "indexed": true,
          "internalType": "bytes32",
          "name": "sessionId",
          "type": "bytes32"
        },
        {
          "indexed": false,
          "internalType": "uint256",
          "name": "startTime",
          "type": "uint256"
        }
      ],
      "name": "SessionStarted",
      "type": "event"
    },
    {
      "anonymous": false,
      "inputs": [
        {
          "indexed": false,
          "internalType": "address",
          "name": "token",
          "type": "address"
        },
        {
          "indexed": false,
          "internalType": "bool",
          "name": "supported",
          "type": "bool"
        }
      ],
      "name": "TokenSupportUpdated",
      "type": "event"
    },
    {
      "anonymous": false,
      "inputs": [
        {
          "indexed": false,
          "internalType": "address",
          "name": "account",
          "type": "address"
        }
      ],
      "name": "Unpaused",
      "type": "event"
    },
    {
      "stateMutability": "payable",
      "type": "fallback"
    },
    {
      "inputs": [],
      "name": "AUTO_RELEASE_DELAY",
      "outputs": [
        {
          "internalType": "uint256",
          "name": "",
          "type": "uint256"
        }
      ],
      "stateMutability": "view",
      "type": "function"
    },
    {
      "inputs": [],
      "name": "ETH_TOKEN",
      "outputs": [
        {
          "internalType": "address",
          "name": "",
          "type": "address"
        }
      ],
      "stateMutability": "view",
      "type": "function"
    },
    {
      "inputs": [],
      "name": "GRACE_PERIOD",
      "outputs": [
        {
          "internalType": "uint256",
          "name": "",
          "type": "uint256"
        }
      ],
      "stateMutability": "view",
      "type": "function"
    },
    {
      "inputs": [],
      "name": "HEARTBEAT_INTERVAL",
      "outputs": [
        {
          "internalType": "uint256",
          "name": "",
          "type": "uint256"
        }
      ],
      "stateMutability": "view",
      "type": "function"
    },
    {
      "inputs": [],
      "name": "PLATFORM_FEE_PERCENT",
      "outputs": [
        {
          "internalType": "uint256",
          "name": "",
          "type": "uint256"
        }
      ],
      "stateMutability": "view",
      "type": "function"
    },
    {
      "inputs": [],
      "name": "SESSION_START_TIMEOUT",
      "outputs": [
        {
          "internalType": "uint256",
          "name": "",
          "type": "uint256"
        }
      ],
      "stateMutability": "view",
      "type": "function"
    },
    {
      "inputs": [
        {
          "internalType": "address",
          "name": "token",
          "type": "address"
        }
      ],
      "name": "addSupportedToken",
      "outputs": [],
      "stateMutability": "nonpayable",
      "type": "function"
    },
    {
      "inputs": [
        {
          "internalType": "bytes32",
          "name": "sessionId",
          "type": "bytes32"
        }
      ],
      "name": "autoCompleteSession",
      "outputs": [],
      "stateMutability": "nonpayable",
      "type": "function"
    },
    {
      "inputs": [
        {
          "internalType": "uint256",
          "name": "totalAmount",
          "type": "uint256"
        },
        {
          "internalType": "uint256",
          "name": "elapsedMinutes",
          "type": "uint256"
        },
        {
          "internalType": "uint256",
          "name": "durationMinutes",
          "type": "uint256"
        }
      ],
      "name": "calculateMaxRelease",
      "outputs": [
        {
          "internalType": "uint256",
          "name": "",
          "type": "uint256"
        }
      ],
      "stateMutability": "pure",
      "type": "function"
    },
    {
      "inputs": [
        {
          "internalType": "bytes32",
          "name": "sessionId",
          "type": "bytes32"
        }
      ],
      "name": "cancelSession",
      "outputs": [],
      "stateMutability": "nonpayable",
      "type": "function"
    },
    {
      "inputs": [
        {
          "internalType": "bytes32",
          "name": "sessionId",
          "type": "bytes32"
        }
      ],
      "name": "checkAndExpireSession",
      "outputs": [],
      "stateMutability": "nonpayable",
      "type": "function"
    },
    {
      "inputs": [
        {
          "internalType": "bytes32",
          "name": "sessionId",
          "type": "bytes32"
        },
        {
          "internalType": "uint256",
          "name": "rating",
          "type": "uint256"
        },
        {
          "internalType": "string",
          "name": "feedback",
          "type": "string"
        }
      ],
      "name": "completeSession",
      "outputs": [],
      "stateMutability": "nonpayable",
      "type": "function"
    },
    {
      "inputs": [
        {
          "internalType": "bytes32",
          "name": "sessionId",
          "type": "bytes32"
        },
        {
          "internalType": "address",
          "name": "mentor",
          "type": "address"
        },
        {
          "internalType": "address",
          "name": "paymentToken",
          "type": "address"
        },
        {
          "internalType": "uint256",
          "name": "amount",
          "type": "uint256"
        },
        {
          "internalType": "uint256",
          "name": "durationMinutes",
          "type": "uint256"
        },
        {
          "internalType": "uint256",
          "name": "nonce",
          "type": "uint256"
        }
      ],
      "name": "createProgressiveSession",
      "outputs": [],
      "stateMutability": "payable",
      "type": "function"
    },
    {
      "inputs": [
        {
          "internalType": "bytes32",
          "name": "sessionId",
          "type": "bytes32"
        },
        {
          "internalType": "address",
          "name": "recipient",
          "type": "address"
        },
        {
          "internalType": "uint256",
          "name": "amount",
          "type": "uint256"
        },
        {
          "internalType": "string",
          "name": "reason",
          "type": "string"
        }
      ],
      "name": "emergencyRelease",
      "outputs": [],
      "stateMutability": "nonpayable",
      "type": "function"
    },
    {
      "inputs": [
        {
          "internalType": "address payable",
          "name": "to",
          "type": "address"
        },
        {
          "internalType": "uint256",
          "name": "amount",
          "type": "uint256"
        }
      ],
      "name": "emergencyWithdrawETH",
      "outputs": [],
      "stateMutability": "nonpayable",
      "type": "function"
    },
    {
      "inputs": [
        {
          "internalType": "address",
          "name": "token",
          "type": "address"
        },
        {
          "internalType": "address",
          "name": "to",
          "type": "address"
        },
        {
          "internalType": "uint256",
          "name": "amount",
          "type": "uint256"
        }
      ],
      "name": "emergencyWithdrawToken",
      "outputs": [],
      "stateMutability": "nonpayable",
      "type": "function"
    },
    {
      "inputs": [
        {
          "internalType": "bytes32",
          "name": "sessionId",
          "type": "bytes32"
        }
      ],
      "name": "getAvailablePayment",
      "outputs": [
        {
          "internalType": "uint256",
          "name": "",
          "type": "uint256"
        }
      ],
      "stateMutability": "view",
      "type": "function"
    },
    {
      "inputs": [
        {
          "internalType": "bytes32",
          "name": "sessionId",
          "type": "bytes32"
        }
      ],
      "name": "getEffectiveElapsedTime",
      "outputs": [
        {
          "internalType": "uint256",
          "name": "",
          "type": "uint256"
        }
      ],
      "stateMutability": "view",
      "type": "function"
    },
    {
      "inputs": [
        {
          "internalType": "bytes32",
          "name": "sessionId",
          "type": "bytes32"
        }
      ],
      "name": "getSession",
      "outputs": [
        {
          "components": [
            {
              "internalType": "bytes32",
              "name": "sessionId",
              "type": "bytes32"
            },
            {
              "internalType": "address",
              "name": "student",
              "type": "address"
            },
            {
              "internalType": "address",
              "name": "mentor",
              "type": "address"
            },
            {
              "internalType": "address",
              "name": "paymentToken",
              "type": "address"
            },
            {
              "internalType": "uint256",
              "name": "totalAmount",
              "type": "uint256"
            },
            {
              "internalType": "uint256",
              "name": "releasedAmount",
              "type": "uint256"
            },
            {
              "internalType": "uint256",
              "name": "sessionDuration",
              "type": "uint256"
            },
            {
              "internalType": "uint256",
              "name": "startTime",
              "type": "uint256"
            },
            {
              "internalType": "uint256",
              "name": "lastHeartbeat",
              "type": "uint256"
            },
            {
              "internalType": "uint256",
              "name": "pausedTime",
              "type": "uint256"
            },
            {
              "internalType": "uint256",
              "name": "createdAt",
              "type": "uint256"
            },
            {
              "internalType": "enum ProgressiveEscrowV5.SessionStatus",
              "name": "status",
              "type": "uint8"
            },
            {
              "internalType": "bool",
              "name": "isActive",
              "type": "bool"
            },
            {
              "internalType": "bool",
              "name": "isPaused",
              "type": "bool"
            },
            {
              "internalType": "bool",
              "name": "surveyCompleted",
              "type": "bool"
            }
          ],
          "internalType": "struct ProgressiveEscrowV5.ProgressiveSession",
          "name": "",
          "type": "tuple"
        }
      ],
      "stateMutability": "view",
      "type": "function"
    },
    {
      "inputs": [
        {
          "internalType": "address",
          "name": "user",
          "type": "address"
        }
      ],
      "name": "getUserNonce",
      "outputs": [
        {
          "internalType": "uint256",
          "name": "",
          "type": "uint256"
        }
      ],
      "stateMutability": "view",
      "type": "function"
    },
    {
      "inputs": [
        {
          "internalType": "address",
          "name": "token",
          "type": "address"
        }
      ],
      "name": "isTokenSupported",
      "outputs": [
        {
          "internalType": "bool",
          "name": "",
          "type": "bool"
        }
      ],
      "stateMutability": "view",
      "type": "function"
    },
    {
      "inputs": [
        {
          "internalType": "bytes32",
          "name": "sessionId",
          "type": "bytes32"
        }
      ],
      "name": "needsHeartbeat",
      "outputs": [
        {
          "internalType": "bool",
          "name": "",
          "type": "bool"
        }
      ],
      "stateMutability": "view",
      "type": "function"
    },
    {
      "inputs": [],
      "name": "owner",
      "outputs": [
        {
          "internalType": "address",
          "name": "",
          "type": "address"
        }
      ],
      "stateMutability": "view",
      "type": "function"
    },
    {
      "inputs": [],
      "name": "pause",
      "outputs": [],
      "stateMutability": "nonpayable",
      "type": "function"
    },
    {
      "inputs": [
        {
          "internalType": "bytes32",
          "name": "sessionId",
          "type": "bytes32"
        }
      ],
      "name": "pauseSession",
      "outputs": [],
      "stateMutability": "nonpayable",
      "type": "function"
    },
    {
      "inputs": [],
      "name": "paused",
      "outputs": [
        {
          "internalType": "bool",
          "name": "",
          "type": "bool"
        }
      ],
      "stateMutability": "view",
      "type": "function"
    },
    {
      "inputs": [],
      "name": "platformWallet",
      "outputs": [
        {
          "internalType": "address",
          "name": "",
          "type": "address"
        }
      ],
      "stateMutability": "view",
      "type": "function"
    },
    {
      "inputs": [
        {
          "internalType": "bytes32",
          "name": "sessionId",
          "type": "bytes32"
        }
      ],
      "name": "releaseProgressivePayment",
      "outputs": [],
      "stateMutability": "nonpayable",
      "type": "function"
    },
    {
      "inputs": [
        {
          "internalType": "address",
          "name": "token",
          "type": "address"
        }
      ],
      "name": "removeSupportedToken",
      "outputs": [],
      "stateMutability": "nonpayable",
      "type": "function"
    },
    {
      "inputs": [],
      "name": "renounceOwnership",
      "outputs": [],
      "stateMutability": "nonpayable",
      "type": "function"
    },
    {
      "inputs": [
        {
          "internalType": "bytes32",
          "name": "sessionId",
          "type": "bytes32"
        }
      ],
      "name": "resumeSession",
      "outputs": [],
      "stateMutability": "nonpayable",
      "type": "function"
    },
    {
      "inputs": [
        {
          "internalType": "bytes32",
          "name": "",
          "type": "bytes32"
        }
      ],
      "name": "sessions",
      "outputs": [
        {
          "internalType": "bytes32",
          "name": "sessionId",
          "type": "bytes32"
        },
        {
          "internalType": "address",
          "name": "student",
          "type": "address"
        },
        {
          "internalType": "address",
          "name": "mentor",
          "type": "address"
        },
        {
          "internalType": "address",
          "name": "paymentToken",
          "type": "address"
        },
        {
          "internalType": "uint256",
          "name": "totalAmount",
          "type": "uint256"
        },
        {
          "internalType": "uint256",
          "name": "releasedAmount",
          "type": "uint256"
        },
        {
          "internalType": "uint256",
          "name": "sessionDuration",
          "type": "uint256"
        },
        {
          "internalType": "uint256",
          "name": "startTime",
          "type": "uint256"
        },
        {
          "internalType": "uint256",
          "name": "lastHeartbeat",
          "type": "uint256"
        },
        {
          "internalType": "uint256",
          "name": "pausedTime",
          "type": "uint256"
        },
        {
          "internalType": "uint256",
          "name": "createdAt",
          "type": "uint256"
        },
        {
          "internalType": "enum ProgressiveEscrowV5.SessionStatus",
          "name": "status",
          "type": "uint8"
        },
        {
          "internalType": "bool",
          "name": "isActive",
          "type": "bool"
        },
        {
          "internalType": "bool",
          "name": "isPaused",
          "type": "bool"
        },
        {
          "internalType": "bool",
          "name": "surveyCompleted",
          "type": "bool"
        }
      ],
      "stateMutability": "view",
      "type": "function"
    },
    {
      "inputs": [
        {
          "internalType": "bytes32",
          "name": "sessionId",
          "type": "bytes32"
        }
      ],
      "name": "shouldAutoPause",
      "outputs": [
        {
          "internalType": "bool",
          "name": "",
          "type": "bool"
        }
      ],
      "stateMutability": "view",
      "type": "function"
    },
    {
      "inputs": [
        {
          "internalType": "bytes32",
          "name": "sessionId",
          "type": "bytes32"
        }
      ],
      "name": "startProgressiveSession",
      "outputs": [],
      "stateMutability": "nonpayable",
      "type": "function"
    },
    {
      "inputs": [
        {
          "internalType": "address",
          "name": "",
          "type": "address"
        }
      ],
      "name": "supportedTokens",
      "outputs": [
        {
          "internalType": "bool",
          "name": "",
          "type": "bool"
        }
      ],
      "stateMutability": "view",
      "type": "function"
    },
    {
      "inputs": [
        {
          "internalType": "address",
          "name": "newOwner",
          "type": "address"
        }
      ],
      "name": "transferOwnership",
      "outputs": [],
      "stateMutability": "nonpayable",
      "type": "function"
    },
    {
      "inputs": [],
      "name": "unpause",
      "outputs": [],
      "stateMutability": "nonpayable",
      "type": "function"
    },
    {
      "inputs": [
        {
          "internalType": "bytes32",
          "name": "sessionId",
          "type": "bytes32"
        }
      ],
      "name": "updateHeartbeat",
      "outputs": [],
      "stateMutability": "nonpayable",
      "type": "function"
    },
    {
      "inputs": [
        {
          "internalType": "address",
          "name": "newWallet",
          "type": "address"
        }
      ],
      "name": "updatePlatformWallet",
      "outputs": [],
      "stateMutability": "nonpayable",
      "type": "function"
    },
    {
      "inputs": [
        {
          "internalType": "bytes32",
          "name": "",
          "type": "bytes32"
        }
      ],
      "name": "usedSessionIds",
      "outputs": [
        {
          "internalType": "bool",
          "name": "",
          "type": "bool"
        }
      ],
      "stateMutability": "view",
      "type": "function"
    },
    {
      "inputs": [
        {
          "internalType": "address",
          "name": "",
          "type": "address"
        }
      ],
      "name": "userNonces",
      "outputs": [
        {
          "internalType": "uint256",
          "name": "",
          "type": "uint256"
        }
      ],
      "stateMutability": "view",
      "type": "function"
    },
    {
      "stateMutability": "payable",
      "type": "receive"
    }
  ],
  "bytecode": "0x6080346101e357601f612fe538819003918201601f19168301916001600160401b038311848410176101e8578084926020946040528339810103126101e357516001600160a01b038116908190036101e35733156101cd5760008054336001600160a01b03198216811783556040519290916001600160a01b0316907f8be0079c531659141344cd1fd0a4f28419497f9722a3daafe3b4186f6b6457e09080a360018055811561018b5750600280546001600160a01b031916919091178155600360209081527f3617319a054d772f909f7c479a2cebe5066e836a939412e32403c99029b92eff805460ff1990811660019081179092557fa15bc60c955c405d20d9149c709e2460f1c2d9a497496a7f46004d1772c3054c805482168317905560009384527fc3a24b0501bd2c13a7e57f2db4369ec4c223447539fc0724a9d55ac4a06ebd4d80549091168217905560408051938452918301527fbbe72b7d9dcb594ee398a4a617885aba53d833e2aad601c813ce9df99fdeb49b91a1604051612de690816101ff8239f35b62461bcd60e51b815260206004820152601760248201527f496e76616c696420706c6174666f726d2077616c6c65740000000000000000006044820152606490fd5b631e4fbdf760e01b600052600060045260246000fd5b600080fd5b634e487b7160e01b600052604160045260246000fdfe60806040526004361015610050575b361561004e5760405162461bcd60e51b8152602060048201526012602482015271119d5b98dd1a5bdb881b9bdd08199bdd5b9960721b6044820152606490fd5b005b60003560e01c806302ceb406146121c657806309499aa6146121a85780631ac6af03146121845780631c8b14a014612153578063277327a5146120c45780632b8a5f3b14611f7a5780632f7801f41461182e57806334d1c8fe14611f5e57806339b240bd14611d295780633a17ba6414611aa85780633f4ba83a14611a375780634d213982146118e4578063560d52d4146118c857806358bc8337146118ac578063590a2cc11461188e5780635c975abb146118685780636834e3a81461182e57806368c4ac26146116fb5780636baae9cc146118065780636d69fcaf14611793578063715018a61461173a57806375151b63146116fb578063763191901461168c57806379d55e77146115285780637ac1b469146112e55780637dbd2832146111f25780638456cb59146111905780638da5cb5b14611167578063962db93b1461114957806399173d6b14610fd8578063ada4ef3014610f54578063b817be4c14610d82578063b911862b14610c65578063c1a287e214610c49578063ccb868dd1461094a578063d79e8567146108b1578063e906826c1461088b578063f13430651461086e578063f2fde38b146107e5578063f400272b146102465763fa2af9da0361000e5734610241576000366003190112610241576002546040516001600160a01b039091168152602090f35b600080fd5b60c03660031901126102415760043561025d6123cd565b906044356001600160a01b0381169190829003610241576064359160843593610284612c74565b61028c612d52565b6001600160a01b03169384156107a7573385146107695781600052600360205260ff6040600020541615610728576102c5841515612c28565b80156106e3576000838152600460205260409020600101546001600160a01b03166106a55733600052600560205260406000205460a435036106705782600052600660205260ff604060002054166106315733600052600560205260406000208054600019811461061b5760010190558260005260066020526040600020600160ff1982541617905581156000146105865783340361054b575b8260405161036c81612572565b818152602081019033825260408101908882526060810194868652608082019089825260a08301906000825260c0840190815260e0840160008152610100850191600083526101208601936000855261014087019542875261016088019b60008d5261018089019960008b526101a08a019b60008d526101c08b019d60008f52600052600460205260406000209a518b55600160a01b6001900390511660018b0190600160a01b6001900316600160a01b6001900319825416179055600160a01b6001900390511660028a0190600160a01b6001900316600160a01b6001900319825416179055600160a01b600190039051166003890190600160a01b6001900316600160a01b600190031982541617905551600488015551600587015551600686015551600785015551600884015551600983015551600a820155600b019351600681101561053557845491519251935163ffffffff1990921660ff919091161791151560081b61ff00169190911791151560101b62ff0000169190911790151560181b63ff0000001617905560408051938452602084019190915233927fa5d7a3cf3954591f1af3cd96f79210169bbaf7e3b3a3e60de11886bc773649e09190a460018055005b634e487b7160e01b600052602160045260246000fd5b60405162461bcd60e51b815260206004820152601360248201527208aa89040c2dadeeadce840dad2e6dac2e8c6d606b1b6044820152606490fd5b346105ca576105c56040516323b872dd60e01b6020820152336024820152306044820152856064820152606481526105bf6084826125a5565b83612d72565b61035f565b60405162461bcd60e51b815260206004820152602360248201527f455448206e6f7420616363657074656420666f72204552433230207061796d656044820152626e747360e81b6064820152608490fd5b634e487b7160e01b600052601160045260246000fd5b60405162461bcd60e51b815260206004820152601760248201527614d95cdcda5bdb88125108185b1c9958591e481d5cd959604a1b6044820152606490fd5b60405162461bcd60e51b815260206004820152600d60248201526c496e76616c6964206e6f6e636560981b6044820152606490fd5b60405162461bcd60e51b815260206004820152601660248201527553657373696f6e20616c72656164792065786973747360501b6044820152606490fd5b60405162461bcd60e51b815260206004820152601f60248201527f4475726174696f6e206d7573742062652067726561746572207468616e2030006044820152606490fd5b60405162461bcd60e51b81526020600482015260196024820152782ab739bab83837b93a32b2103830bcb6b2b73a103a37b5b2b760391b6044820152606490fd5b60405162461bcd60e51b815260206004820152601660248201527521b0b73737ba1036b2b73a37b9103cb7bab939b2b63360511b6044820152606490fd5b60405162461bcd60e51b8152602060048201526016602482015275496e76616c6964206d656e746f72206164647265737360501b6044820152606490fd5b34610241576020366003190112610241576107fe6123b7565b610806612c96565b6001600160a01b0316801561085857600080546001600160a01b03198116831782556001600160a01b0316907f8be0079c531659141344cd1fd0a4f28419497f9722a3daafe3b4186f6b6457e09080a3005b631e4fbdf760e01b600052600060045260246000fd5b346102415760003660031901126102415760206040516103848152f35b346102415760203660031901126102415760206108a9600435612ad3565b604051908152f35b34610241576040366003190112610241576004356001600160a01b03811690819003610241576024356108e2612c96565b6108ed82151561251a565b47811161090e5760008080809361004e955af1610908612a51565b50612a91565b60405162461bcd60e51b8152602060048201526014602482015273496e73756666696369656e742062616c616e636560601b6044820152606490fd5b3461024157602036600319011261024157600435610966612c74565b600081815260046020526040902060018101546001600160a01b031661098d81151561241e565b600b82015460ff811660068110156105355760016109ab9114612463565b60ff8160081c169081610c3a575b5015610bff57600782015415610bba5733148015610ba4575b15610b49576109e0826128cb565b6109f5600483015491600684015490836124a4565b91600581019081549384811115610b055784610a1091612565565b92605a810290808204605a149015171561061b57606485910480610a348684612558565b11610af2575b50508215610ab55782610a9191610a72827ff2446e1f418253f1b6b8f9b8ebf603fd78b61d59024e68b0d687d1ecc22b8a4097612558565b845560038101546002909101546001600160a01b039081169116612d01565b54604080519283526020830191909152429082015280606081015b0390a260018055005b60405162461bcd60e51b81526020600482015260156024820152744e6f207061796d656e7420746f2072656c6561736560581b6044820152606490fd5b610afd929450612565565b918386610a3a565b606460405162461bcd60e51b815260206004820152602060248201527f4e6f207061796d656e7420617661696c61626c6520666f722072656c656173656044820152fd5b60405162461bcd60e51b815260206004820152602d60248201527f4f6e6c792073657373696f6e207061727469636970616e74732063616e20726560448201526c1b19585cd9481c185e5b595b9d609a1b6064820152608490fd5b5060028101546001600160a01b031633146109d2565b60405162461bcd60e51b815260206004820152601a60248201527f53657373696f6e2073746172742074696d65206e6f74207365740000000000006044820152606490fd5b60405162461bcd60e51b815260206004820152601360248201527253657373696f6e206e6f742072756e6e696e6760681b6044820152606490fd5b60ff915060101c1615846109b9565b34610241576000366003190112610241576020604051603c8152f35b3461024157602036600319011261024157600435610c81612c74565b6000818152600460205260409020600181018054610ca9906001600160a01b0316151561241e565b600b82019160ff835416600681101561053557610cc690156125d3565b600a810154610384810180911161061b57421115610d4357825460ff19166005179092556003820154905460049290920180547fc3bbbc97172715cbe5621e8ec00f5d81afaffc9d2ed9dc3fb688b96e603d344593602093610d3592916001600160a01b039081169116612d01565b54604051908152a260018055005b60405162461bcd60e51b815260206004820152601760248201527614d95cdcda5bdb881b9bdd081e595d08195e1c1a5c9959604a1b6044820152606490fd5b3461024157602036600319011261024157600435610d9e612c74565b600081815260046020526040902060018101546001600160a01b031690610dc682151561241e565b600b81019160ff835416600681101561053557610f035733148015610eed575b15610e9c57600a810154610384810180911161061b574211610e5757600160ff1983541617825542600782015560084291015561010062ffff00198254161790557fd010adb8a640e9a6a134ce407a4e27deb32fab5b64ea5847c55101907d9c25786020604051428152a260018055005b60405162461bcd60e51b815260206004820152601e60248201527f53657373696f6e2073746172742074696d656f757420657863656564656400006044820152606490fd5b60405162461bcd60e51b815260206004820152602360248201527f4f6e6c792073657373696f6e207061727469636970616e74732063616e207374604482015262185c9d60ea1b6064820152608490fd5b5060028101546001600160a01b03163314610de6565b60405162461bcd60e51b8152602060048201526024808201527f53657373696f6e20616c72656164792073746172746564206f7220636f6d706c604482015263195d195960e21b6064820152608490fd5b3461024157602036600319011261024157610f6d6123b7565b610f75612c96565b6001600160a01b03168015610f9a57600280546001600160a01b031916919091179055005b60405162461bcd60e51b8152602060048201526016602482015275496e76616c69642077616c6c6574206164647265737360501b6044820152606490fd5b3461024157602036600319011261024157600435610ff4612c74565b600081815260046020526040902060018101546001600160a01b031661101b81151561241e565b600b82019081549060ff821660068110156105355760020361110f57331480156110f9575b156110a8576008830192611064600961105a865442612565565b9201918254612558565b905562ff00ff1916600117905542908190556040519081527f3dd443712f1bb154053901f56ef4a45320caeee475fc1b8f448abb8a5abd7ec190602090a260018055005b60405162461bcd60e51b8152602060048201526024808201527f4f6e6c792073657373696f6e207061727469636970616e74732063616e20726560448201526373756d6560e01b6064820152608490fd5b5060028301546001600160a01b03163314611040565b60405162461bcd60e51b815260206004820152601260248201527114d95cdcda5bdb881b9bdd081c185d5cd95960721b6044820152606490fd5b346102415760203660031901126102415760206108a96004356128cb565b34610241576000366003190112610241576000546040516001600160a01b039091168152602090f35b34610241576000366003190112610241576111a9612c96565b6111b1612d52565b6000805460ff60a01b1916600160a01b1790556040513381527f62e78cea01bee320cd4e420270b5ea74000d11b0c9f74754ebdbfc544b05a25890602090a1005b346102415760203660031901126102415760043560005260046020526101e0604060002060ff81549160018060a01b036001820154169060018060a01b0360028201541660018060a01b0360038301541660048301546005840154600685015490600786015492600887015494600988015496600b600a8a0154990154996040519c8d5260208d015260408c015260608b015260808a015260a089015260c088015260e08701526101008601526101208501526101408401526112bb61016084018383166123e3565b818160081c161515610180840152818160101c1615156101a084015260181c1615156101c0820152f35b3461024157602036600319011261024157600435611301612c74565b600081815260046020526040902060018101546001600160a01b03169061132982151561241e565b600b81019081549260ff8416600681101561053557600161134a9114612463565b60ff8460101c166114ea5733149081156114d3575b600801918254601e81019081811161061b57605a0180911161061b574211938283156114cc575b156114925762ff00ff1916620100021790558061148a575b611481575b506000901561145357506040516113bb6040826125a5565b60118152701219585c9d1899585d081d1a5b595bdd5d607a1b6020820152905b6040514281526040602082015282519283604083015260005b84811061143d57837fec452bb0b82c12deb4f139fa1dfc53d2e3606e8bf03ca6a3f007d0dd6fd5350784606081896000838284010152601f80199101168101030190a260018055005b80602080928401015160608286010152016113f4565b506040516114626040826125a5565b600c81526b4d616e75616c20706175736560a01b6020820152906113db565b429055826113a3565b50811561139e565b60405162461bcd60e51b8152602060048201526012602482015271556e617574686f72697a656420706175736560701b6044820152606490fd5b5084611386565b60028101546001600160a01b03163314915061135f565b60405162461bcd60e51b815260206004820152601660248201527514d95cdcda5bdb88185b1c9958591e481c185d5cd95960521b6044820152606490fd5b34610241576080366003190112610241576004356115446123cd565b60443560643567ffffffffffffffff8111610241576115679036906004016123f0565b9091611571612c96565b611579612c74565b84600052600460205260406000209161159f60018060a01b03600185015416151561241e565b6115b36001600160a01b038616151561288b565b600483015460058401906115c982548092612565565b841161164c577f482a5548da3675089cf6763340cbd789090e2187c64b37c814c5340111636c479660609561161793611603878095612558565b9055600301546001600160a01b0316612d01565b80604051948593845260406020850152816040850152848401376000828201840152601f01601f19168101030190a260018055005b60405162461bcd60e51b8152602060048201526018602482015277416d6f756e74206578636565647320617661696c61626c6560401b6044820152606490fd5b34610241576020366003190112610241577fbbe72b7d9dcb594ee398a4a617885aba53d833e2aad601c813ce9df99fdeb49b60406116c86123b7565b6116d0612c96565b6001600160a01b0316600081815260036020908152838220805460ff191690558351928352820152a1005b34610241576020366003190112610241576001600160a01b0361171c6123b7565b166000526003602052602060ff604060002054166040519015158152f35b3461024157600036600319011261024157611753612c96565b600080546001600160a01b0319811682556001600160a01b03167f8be0079c531659141344cd1fd0a4f28419497f9722a3daafe3b4186f6b6457e08280a3005b34610241576020366003190112610241577fbbe72b7d9dcb594ee398a4a617885aba53d833e2aad601c813ce9df99fdeb49b60406117cf6123b7565b6117d7612c96565b60018060a01b031680600052600360205281600020600160ff19825416179055815190815260016020820152a1005b3461024157602036600319011261024157602061182460043561272b565b6040519015158152f35b34610241576020366003190112610241576001600160a01b0361184f6123b7565b1660005260056020526020604060002054604051908152f35b3461024157600036600319011261024157602060ff60005460a01c166040519015158152f35b34610241576020366003190112610241576020611824600435612619565b3461024157600036600319011261024157602060405160008152f35b34610241576000366003190112610241576020604051600a8152f35b3461024157602036600319011261024157600435611900612c74565b60008181526004602052604090206001810180546001600160a01b0316919061192a83151561241e565b600b82019260ff84541660068110156105355761194790156125d3565b33148015611a21575b156119d0576119be6040927f1d74c88fc8a136a8fb434db3561e44ecbc5b4577d1f1ea7e30d97250ead2cf2d94600460ff19825416179055600481015492600582019161199e835486612565565b94909255600390910154905483916001600160a01b039182169116612d01565b8151908152426020820152a260018055005b60405162461bcd60e51b8152602060048201526024808201527f4f6e6c792073657373696f6e207061727469636970616e74732063616e2063616044820152631b98d95b60e21b6064820152608490fd5b5060028201546001600160a01b03163314611950565b3461024157600036600319011261024157611a50612c96565b60005460ff8160a01c1615611a975760ff60a01b19166000556040513381527f5db9ee0a495bf2e6ff9c91a7834c1ba4fdd244a5e8aa4e537bd38aeae4b073aa90602090a1005b638dfc202b60e01b60005260046000fd5b346102415760603660031901126102415760043560243560443567ffffffffffffffff811161024157611adf9036906004016123f0565b5050611ae9612c74565b600082815260046020526040902060018101549091906001600160a01b0316611b1381151561241e565b3303611cda57600b82019060ff82541660068110156105355760018114908115611ccf575b5015611c8b5760018110159081611c7f575b5015611c3a57805463ff00ffff19166301000003179055600481015460058201805491929091611b7a9084612565565b90600a820293828504600a148315171561061b57611bbd60647f556195694fc082ad19415eaec58c1584ec20066f6e655be3034932c454d38a2396048094612565565b935582611c13575b8180611bec575b505060408051928352602083019190915242908201528060608101610aac565b600390910154600254611c0c92916001600160a01b039182169116612d01565b8481611bcc565b60038101546002820154611c359185916001600160a01b039081169116612d01565b611bc5565b60405162461bcd60e51b815260206004820152601e60248201527f526174696e67206d757374206265206265747765656e203120616e64203500006044820152606490fd5b60059150111584611b4a565b606460405162461bcd60e51b815260206004820152602060248201527f53657373696f6e206e6f7420726561647920666f7220636f6d706c6574696f6e6044820152fd5b600291501485611b38565b60405162461bcd60e51b815260206004820152602160248201527f4f6e6c792073747564656e742063616e20636f6d706c6574652073657373696f6044820152603760f91b6064820152608490fd5b3461024157602036600319011261024157604051611d4681612572565b60008152602081016000905260408101600090526060810160009052608081016000905260a081016000905260c081016000905260e08101600090526101008101600090526101208101600090526101408101600090526101608101600090526101808101600090526101a08101600090526101c001600090526004356000526004602052604060002060405190611ddd82612572565b8054825260018101546001600160a01b03908116602084019081526002830154821660408501908152600384015490921660608501908152600484015460808601908152600585015460a08701908152600686015460c08801908152600787015460e0890190815260088801546101008a0190815260098901546101208b01908152600a8a01546101408c01908152600b909a0154979a9799610160890197909691959294929190611e9260ff8d168a6125c7565b6101808a01998c60081c60ff1615158b526101a081019b8d60101c60ff1615158d526101c08201809e60181c60ff16151590526040519e8f92518352600160a01b600190039051166020830152600160a01b600190039051169060400152600160a01b6001900390511660608d01525160808c01525160a08b01525160c08a01525160e0890152516101008801525161012087015251610140860152516101608501611f3d916123e3565b5115156101808401525115156101a08301525115156101c08201526101e090f35b34610241576000366003190112610241576020604051601e8152f35b3461024157602036600319011261024157600435611f96612c74565b60008181526004602052604090206001810154611fbd906001600160a01b0316151561241e565b600b810160ff815416600681101561053557600181149081156120b9575b501561206357600a82015462093a80810180911161061b57421061201e57805461ffff19166003179055600481015460058201805491929091611b7a9084612565565b60405162461bcd60e51b815260206004820152601e60248201527f4175746f2d72656c656173652064656c6179206e6f74207265616368656400006044820152606490fd5b60405162461bcd60e51b815260206004820152602860248201527f53657373696f6e206e6f7420656c696769626c6520666f72206175746f2d636f60448201526736b83632ba34b7b760c11b6064820152608490fd5b600291501484611fdb565b34610241576060366003190112610241576120dd6123b7565b6120e56123cd565b906120ee612c96565b6121026001600160a01b038316151561251a565b6001600160a01b0316801561211e5761004e9160443591612cbf565b60405162461bcd60e51b815260206004820152600d60248201526c24b73b30b634b2103a37b5b2b760991b6044820152606490fd5b34610241576020366003190112610241576004356000526006602052602060ff604060002054166040519015158152f35b346102415760603660031901126102415760206108a96044356024356004356124a4565b3461024157600036600319011261024157602060405162093a808152f35b34610241576020366003190112610241576004356121e2612c74565b600081815260046020526040902060018101546001600160a01b031661220981151561241e565b600b8201549060ff821660068110156105355760016122289114612463565b331480156123a1575b156123455760ff9160084291015560101c16612278575b7f3cf0bf7708060bf073b6ddb921eef0485b3eb9da828e0ed751fa6582ef337f576020604051428152a260018055005b612280612c74565b600081815260046020526040902060018101546001600160a01b03166122a781151561241e565b600b82019081549060ff821660068110156105355760020361110f573314801561232f575b156110a85760088301926122e6600961105a865442612565565b905562ff00ff19166001179055429081905560405190815281907f3dd443712f1bb154053901f56ef4a45320caeee475fc1b8f448abb8a5abd7ec190602090a260018055612248565b5060028301546001600160a01b031633146122cc565b60405162461bcd60e51b815260206004820152602e60248201527f4f6e6c792073657373696f6e207061727469636970616e74732063616e20757060448201526d19185d19481a19585c9d1899585d60921b6064820152608490fd5b5060028201546001600160a01b03163314612231565b600435906001600160a01b038216820361024157565b602435906001600160a01b038216820361024157565b9060068210156105355752565b9181601f840112156102415782359167ffffffffffffffff8311610241576020838186019501011161024157565b1561242557565b60405162461bcd60e51b815260206004820152601660248201527514d95cdcda5bdb88191bd95cc81b9bdd08195e1a5cdd60521b6044820152606490fd5b1561246a57565b60405162461bcd60e51b815260206004820152601260248201527153657373696f6e206e6f742061637469766560701b6044820152606490fd5b91909182158015612512575b61250a57605a810290808204605a149015171561061b57606490049180830290838204148315171561061b5781156124f45704908082116124ef575090565b905090565b634e487b7160e01b600052601260045260246000fd5b505050600090565b5081156124b0565b1561252157565b60405162461bcd60e51b815260206004820152600f60248201526e496e76616c6964206164647265737360881b6044820152606490fd5b9190820180921161061b57565b9190820391821161061b57565b6101e0810190811067ffffffffffffffff82111761258f57604052565b634e487b7160e01b600052604160045260246000fd5b90601f8019910116810190811067ffffffffffffffff82111761258f57604052565b60068210156105355752565b156125da57565b60405162461bcd60e51b815260206004820152601760248201527614d95cdcda5bdb88185b1c9958591e481cdd185c9d1959604a1b6044820152606490fd5b6000526004602052604060002060405161263281612572565b8154815260018201546001600160a01b039081166020830152600283015481166040830152600383015416606082015260048201546080820152600582015460a0820152600682015460c0820152600782015460e0820152600882015461010082019081526009830154610120830152600a830154610140830152600b90920154610160820191906101c09060ff906126cd828216866125c7565b818160081c161515610180850152818160101c1615156101a085015260181c16151591015251600681101561053557600114801590612722575b61271c5751601e810180911161061b57421190565b50600090565b50805115612707565b600052600460205260406000206040519061274582612572565b8054825260018101546001600160a01b039081166020840152600282015481166040840152600382015416606083015260048101546080830152600581015460a0830152600681015460c0830152600781015460e0830152600881015461010083019081526009820154610120840152600a820154610140840152600b90910154916101608101906127da60ff8516836125c7565b60ff8460081c1615156101808201526101c060ff6101a0830195818160101c161515875260181c161515910152519160068310156105355760016000931490811591612880575b508015612877575b612873575190601e82019182811161285f57605a0180921161284b5750421190565b634e487b7160e01b81526011600452602490fd5b634e487b7160e01b82526011600452602482fd5b5090565b50805115612829565b905051151538612821565b1561289257565b60405162461bcd60e51b8152602060048201526011602482015270125b9d985b1a59081c9958da5c1a595b9d607a1b6044820152606490fd5b60005260046020526040600020604051906128e582612572565b8054825260018101546001600160a01b039081166020840152600282015481166040840152600382015416606083015260048101546080830152600581015460a0830152600681015460c0830152600781015460e083019081526008820154610100840190815260098301546101208501908152600a840154610140860152600b909301549390919061297f60ff861661016083016125c7565b60ff8560081c1615156101808201526101c060ff6101a0830196818160101c161515885260181c161515910152805115612a16576129be905142612565565b91519251151580612a0c575b6129ef575b50818111156129e857603c916129e491612565565b0490565b5050600090565b916129ff612a0592935142612565565b90612558565b90386129cf565b50805115156129ca565b60405162461bcd60e51b815260206004820152601360248201527214d95cdcda5bdb881b9bdd081cdd185c9d1959606a1b6044820152606490fd5b3d15612a8c573d9067ffffffffffffffff821161258f5760405191612a80601f8201601f1916602001846125a5565b82523d6000602084013e565b606090565b15612a9857565b60405162461bcd60e51b8152602060048201526013602482015272115512081d1c985b9cd9995c8819985a5b1959606a1b6044820152606490fd5b80600052600460205260406000209060405191612aef83612572565b8054835260018101546001600160a01b0390811660208501526002820154811660408501526003820154166060840152600481015460808401908152600582015460a08501908152600683015460c08601908152600784015460e0870190815260088501546101008801526009850154610120880152600a850154610140880152600b909401549195909390610160810190612b8e60ff8516836125c7565b60ff8460081c1615156101808201526101c060ff6101a0830195818160101c161515875260181c1615159101525160068110156105355760011491821592612c1d575b508115612c13575b50612c0a57612bea612bf4936128cb565b90519151916124a4565b9051808211156129e857612c0791612565565b90565b50505050600090565b9050511538612bd9565b511515915038612bd1565b15612c2f57565b60405162461bcd60e51b815260206004820152601d60248201527f416d6f756e74206d7573742062652067726561746572207468616e20300000006044820152606490fd5b600260015414612c85576002600155565b633ee5aeb560e01b60005260046000fd5b6000546001600160a01b03163303612caa57565b63118cdaa760e01b6000523360045260246000fd5b60405163a9059cbb60e01b60208201526001600160a01b039092166024830152604480830193909352918152612cff91612cfa6064836125a5565b612d72565b565b6001600160a01b038216929190612d1984151561288b565b612d24831515612c28565b6001600160a01b031680612d48575050600080808093612cff955af1610908612a51565b612cff9350612cbf565b60ff60005460a01c16612d6157565b63d93c066560e01b60005260046000fd5b906000602091828151910182855af115612dcd576000513d612dc457506001600160a01b0381163b155b612da35750565b635274afe760e01b60009081526001600160a01b0391909116600452602490fd5b60011415612d9c565b6040513d6000823e3d90fdfea164736f6c634300081e000a",
  "linkReferences": {},
  "deployedLinkReferences": {}
}