{
  "_format": "hh-sol-artifact-1",
  "contractName": "ProgressiveEscrowV4",
  "sourceName": "contracts/ProgressiveEscrowV4.sol",
  "abi": [
    {
      "inputs": [
        {
          "internalType": "address",
          "name": "_platformWallet",
          "type": "address"
        }
      ],
      "stateMutability": "nonpayable",
      "type": "constructor"
    },
    {
      "inputs": [],
      "name": "EnforcedPause",
      "type": "error"
    },
    {
      "inputs": [],
      "name": "ExpectedPause",
      "type": "error"
    },
    {
      "inputs": [
        {
          "internalType": "address",
          "name": "owner",
          "type": "address"
        }
      ],
      "name": "OwnableInvalidOwner",
      "type": "error"
    },
    {
      "inputs": [
        {
          "internalType": "address",
          "name": "account",
          "type": "address"
        }
      ],
      "name": "OwnableUnauthorizedAccount",
      "type": "error"
    },
    {
      "inputs": [],
      "name": "ReentrancyGuardReentrantCall",
      "type": "error"
    },
    {
      "inputs": [
        {
          "internalType": "address",
          "name": "token",
          "type": "address"
        }
      ],
      "name": "SafeERC20FailedOperation",
      "type": "error"
    },
    {
      "anonymous": false,
      "inputs": [
        {
          "indexed": true,
          "internalType": "bytes32",
          "name": "sessionId",
          "type": "bytes32"
        },
        {
          "indexed": false,
          "internalType": "uint256",
          "name": "amount",
          "type": "uint256"
        },
        {
          "indexed": false,
          "internalType": "string",
          "name": "reason",
          "type": "string"
        }
      ],
      "name": "EmergencyRelease",
      "type": "event"
    },
    {
      "anonymous": false,
      "inputs": [
        {
          "indexed": true,
          "internalType": "bytes32",
          "name": "sessionId",
          "type": "bytes32"
        },
        {
          "indexed": false,
          "internalType": "uint256",
          "name": "timestamp",
          "type": "uint256"
        }
      ],
      "name": "HeartbeatReceived",
      "type": "event"
    },
    {
      "anonymous": false,
      "inputs": [
        {
          "indexed": true,
          "internalType": "address",
          "name": "previousOwner",
          "type": "address"
        },
        {
          "indexed": true,
          "internalType": "address",
          "name": "newOwner",
          "type": "address"
        }
      ],
      "name": "OwnershipTransferred",
      "type": "event"
    },
    {
      "anonymous": false,
      "inputs": [
        {
          "indexed": false,
          "internalType": "address",
          "name": "account",
          "type": "address"
        }
      ],
      "name": "Paused",
      "type": "event"
    },
    {
      "anonymous": false,
      "inputs": [
        {
          "indexed": true,
          "internalType": "bytes32",
          "name": "sessionId",
          "type": "bytes32"
        },
        {
          "indexed": false,
          "internalType": "uint256",
          "name": "releasedAmount",
          "type": "uint256"
        },
        {
          "indexed": false,
          "internalType": "uint256",
          "name": "totalReleased",
          "type": "uint256"
        },
        {
          "indexed": false,
          "internalType": "uint256",
          "name": "timestamp",
          "type": "uint256"
        }
      ],
      "name": "ProgressivePaymentReleased",
      "type": "event"
    },
    {
      "anonymous": false,
      "inputs": [
        {
          "indexed": true,
          "internalType": "bytes32",
          "name": "sessionId",
          "type": "bytes32"
        },
        {
          "indexed": false,
          "internalType": "uint256",
          "name": "refundAmount",
          "type": "uint256"
        },
        {
          "indexed": false,
          "internalType": "uint256",
          "name": "timestamp",
          "type": "uint256"
        }
      ],
      "name": "SessionCancelled",
      "type": "event"
    },
    {
      "anonymous": false,
      "inputs": [
        {
          "indexed": true,
          "internalType": "bytes32",
          "name": "sessionId",
          "type": "bytes32"
        },
        {
          "indexed": false,
          "internalType": "uint256",
          "name": "finalAmount",
          "type": "uint256"
        },
        {
          "indexed": false,
          "internalType": "uint256",
          "name": "platformFee",
          "type": "uint256"
        },
        {
          "indexed": false,
          "internalType": "uint256",
          "name": "timestamp",
          "type": "uint256"
        }
      ],
      "name": "SessionCompleted",
      "type": "event"
    },
    {
      "anonymous": false,
      "inputs": [
        {
          "indexed": true,
          "internalType": "bytes32",
          "name": "sessionId",
          "type": "bytes32"
        },
        {
          "indexed": true,
          "internalType": "address",
          "name": "student",
          "type": "address"
        },
        {
          "indexed": true,
          "internalType": "address",
          "name": "mentor",
          "type": "address"
        },
        {
          "indexed": false,
          "internalType": "uint256",
          "name": "amount",
          "type": "uint256"
        },
        {
          "indexed": false,
          "internalType": "address",
          "name": "token",
          "type": "address"
        }
      ],
      "name": "SessionCreated",
      "type": "event"
    },
    {
      "anonymous": false,
      "inputs": [
        {
          "indexed": true,
          "internalType": "bytes32",
          "name": "sessionId",
          "type": "bytes32"
        },
        {
          "indexed": false,
          "internalType": "uint256",
          "name": "timestamp",
          "type": "uint256"
        },
        {
          "indexed": false,
          "internalType": "string",
          "name": "reason",
          "type": "string"
        }
      ],
      "name": "SessionPaused",
      "type": "event"
    },
    {
      "anonymous": false,
      "inputs": [
        {
          "indexed": true,
          "internalType": "bytes32",
          "name": "sessionId",
          "type": "bytes32"
        },
        {
          "indexed": false,
          "internalType": "uint256",
          "name": "timestamp",
          "type": "uint256"
        }
      ],
      "name": "SessionResumed",
      "type": "event"
    },
    {
      "anonymous": false,
      "inputs": [
        {
          "indexed": true,
          "internalType": "bytes32",
          "name": "sessionId",
          "type": "bytes32"
        },
        {
          "indexed": false,
          "internalType": "uint256",
          "name": "timestamp",
          "type": "uint256"
        }
      ],
      "name": "SessionStarted",
      "type": "event"
    },
    {
      "anonymous": false,
      "inputs": [
        {
          "indexed": false,
          "internalType": "address",
          "name": "account",
          "type": "address"
        }
      ],
      "name": "Unpaused",
      "type": "event"
    },
    {
      "stateMutability": "payable",
      "type": "fallback"
    },
    {
      "inputs": [],
      "name": "AUTO_RELEASE_DELAY",
      "outputs": [
        {
          "internalType": "uint256",
          "name": "",
          "type": "uint256"
        }
      ],
      "stateMutability": "view",
      "type": "function"
    },
    {
      "inputs": [],
      "name": "ETH_TOKEN",
      "outputs": [
        {
          "internalType": "address",
          "name": "",
          "type": "address"
        }
      ],
      "stateMutability": "view",
      "type": "function"
    },
    {
      "inputs": [],
      "name": "GRACE_PERIOD",
      "outputs": [
        {
          "internalType": "uint256",
          "name": "",
          "type": "uint256"
        }
      ],
      "stateMutability": "view",
      "type": "function"
    },
    {
      "inputs": [],
      "name": "HEARTBEAT_INTERVAL",
      "outputs": [
        {
          "internalType": "uint256",
          "name": "",
          "type": "uint256"
        }
      ],
      "stateMutability": "view",
      "type": "function"
    },
    {
      "inputs": [],
      "name": "PLATFORM_FEE_PERCENT",
      "outputs": [
        {
          "internalType": "uint256",
          "name": "",
          "type": "uint256"
        }
      ],
      "stateMutability": "view",
      "type": "function"
    },
    {
      "inputs": [],
      "name": "PROGRESSIVE_RELEASE_INTERVAL",
      "outputs": [
        {
          "internalType": "uint256",
          "name": "",
          "type": "uint256"
        }
      ],
      "stateMutability": "view",
      "type": "function"
    },
    {
      "inputs": [
        {
          "internalType": "address",
          "name": "token",
          "type": "address"
        }
      ],
      "name": "addSupportedToken",
      "outputs": [],
      "stateMutability": "nonpayable",
      "type": "function"
    },
    {
      "inputs": [
        {
          "internalType": "bytes32",
          "name": "sessionId",
          "type": "bytes32"
        }
      ],
      "name": "autoCompleteSession",
      "outputs": [],
      "stateMutability": "nonpayable",
      "type": "function"
    },
    {
      "inputs": [
        {
          "internalType": "uint256",
          "name": "totalAmount",
          "type": "uint256"
        },
        {
          "internalType": "uint256",
          "name": "elapsedMinutes",
          "type": "uint256"
        },
        {
          "internalType": "uint256",
          "name": "durationMinutes",
          "type": "uint256"
        }
      ],
      "name": "calculateMaxRelease",
      "outputs": [
        {
          "internalType": "uint256",
          "name": "",
          "type": "uint256"
        }
      ],
      "stateMutability": "pure",
      "type": "function"
    },
    {
      "inputs": [
        {
          "internalType": "bytes32",
          "name": "sessionId",
          "type": "bytes32"
        }
      ],
      "name": "cancelSession",
      "outputs": [],
      "stateMutability": "nonpayable",
      "type": "function"
    },
    {
      "inputs": [
        {
          "internalType": "bytes32",
          "name": "sessionId",
          "type": "bytes32"
        },
        {
          "internalType": "uint256",
          "name": "rating",
          "type": "uint256"
        },
        {
          "internalType": "string",
          "name": "feedback",
          "type": "string"
        }
      ],
      "name": "completeSession",
      "outputs": [],
      "stateMutability": "nonpayable",
      "type": "function"
    },
    {
      "inputs": [
        {
          "internalType": "bytes32",
          "name": "sessionId",
          "type": "bytes32"
        },
        {
          "internalType": "address",
          "name": "mentor",
          "type": "address"
        },
        {
          "internalType": "address",
          "name": "paymentToken",
          "type": "address"
        },
        {
          "internalType": "uint256",
          "name": "amount",
          "type": "uint256"
        },
        {
          "internalType": "uint256",
          "name": "durationMinutes",
          "type": "uint256"
        },
        {
          "internalType": "uint256",
          "name": "nonce",
          "type": "uint256"
        }
      ],
      "name": "createProgressiveSession",
      "outputs": [],
      "stateMutability": "payable",
      "type": "function"
    },
    {
      "inputs": [
        {
          "internalType": "bytes32",
          "name": "sessionId",
          "type": "bytes32"
        },
        {
          "internalType": "address",
          "name": "recipient",
          "type": "address"
        },
        {
          "internalType": "uint256",
          "name": "amount",
          "type": "uint256"
        },
        {
          "internalType": "string",
          "name": "reason",
          "type": "string"
        }
      ],
      "name": "emergencyRelease",
      "outputs": [],
      "stateMutability": "nonpayable",
      "type": "function"
    },
    {
      "inputs": [
        {
          "internalType": "address payable",
          "name": "to",
          "type": "address"
        },
        {
          "internalType": "uint256",
          "name": "amount",
          "type": "uint256"
        }
      ],
      "name": "emergencyWithdrawETH",
      "outputs": [],
      "stateMutability": "nonpayable",
      "type": "function"
    },
    {
      "inputs": [
        {
          "internalType": "address",
          "name": "token",
          "type": "address"
        },
        {
          "internalType": "address",
          "name": "to",
          "type": "address"
        },
        {
          "internalType": "uint256",
          "name": "amount",
          "type": "uint256"
        }
      ],
      "name": "emergencyWithdrawToken",
      "outputs": [],
      "stateMutability": "nonpayable",
      "type": "function"
    },
    {
      "inputs": [
        {
          "internalType": "bytes32",
          "name": "sessionId",
          "type": "bytes32"
        }
      ],
      "name": "getAvailablePayment",
      "outputs": [
        {
          "internalType": "uint256",
          "name": "",
          "type": "uint256"
        }
      ],
      "stateMutability": "view",
      "type": "function"
    },
    {
      "inputs": [
        {
          "internalType": "bytes32",
          "name": "sessionId",
          "type": "bytes32"
        }
      ],
      "name": "getEffectiveElapsedTime",
      "outputs": [
        {
          "internalType": "uint256",
          "name": "",
          "type": "uint256"
        }
      ],
      "stateMutability": "view",
      "type": "function"
    },
    {
      "inputs": [
        {
          "internalType": "bytes32",
          "name": "sessionId",
          "type": "bytes32"
        }
      ],
      "name": "getSession",
      "outputs": [
        {
          "components": [
            {
              "internalType": "bytes32",
              "name": "sessionId",
              "type": "bytes32"
            },
            {
              "internalType": "address",
              "name": "student",
              "type": "address"
            },
            {
              "internalType": "address",
              "name": "mentor",
              "type": "address"
            },
            {
              "internalType": "address",
              "name": "paymentToken",
              "type": "address"
            },
            {
              "internalType": "uint256",
              "name": "totalAmount",
              "type": "uint256"
            },
            {
              "internalType": "uint256",
              "name": "releasedAmount",
              "type": "uint256"
            },
            {
              "internalType": "uint256",
              "name": "sessionDuration",
              "type": "uint256"
            },
            {
              "internalType": "uint256",
              "name": "startTime",
              "type": "uint256"
            },
            {
              "internalType": "uint256",
              "name": "lastHeartbeat",
              "type": "uint256"
            },
            {
              "internalType": "uint256",
              "name": "pausedTime",
              "type": "uint256"
            },
            {
              "internalType": "uint256",
              "name": "createdAt",
              "type": "uint256"
            },
            {
              "internalType": "enum ProgressiveEscrowV4.SessionStatus",
              "name": "status",
              "type": "uint8"
            },
            {
              "internalType": "bool",
              "name": "isActive",
              "type": "bool"
            },
            {
              "internalType": "bool",
              "name": "isPaused",
              "type": "bool"
            },
            {
              "internalType": "bool",
              "name": "surveyCompleted",
              "type": "bool"
            }
          ],
          "internalType": "struct ProgressiveEscrowV4.ProgressiveSession",
          "name": "",
          "type": "tuple"
        }
      ],
      "stateMutability": "view",
      "type": "function"
    },
    {
      "inputs": [
        {
          "internalType": "address",
          "name": "user",
          "type": "address"
        }
      ],
      "name": "getUserNonce",
      "outputs": [
        {
          "internalType": "uint256",
          "name": "",
          "type": "uint256"
        }
      ],
      "stateMutability": "view",
      "type": "function"
    },
    {
      "inputs": [
        {
          "internalType": "address",
          "name": "token",
          "type": "address"
        }
      ],
      "name": "isTokenSupported",
      "outputs": [
        {
          "internalType": "bool",
          "name": "",
          "type": "bool"
        }
      ],
      "stateMutability": "view",
      "type": "function"
    },
    {
      "inputs": [
        {
          "internalType": "bytes32",
          "name": "sessionId",
          "type": "bytes32"
        }
      ],
      "name": "needsHeartbeat",
      "outputs": [
        {
          "internalType": "bool",
          "name": "",
          "type": "bool"
        }
      ],
      "stateMutability": "view",
      "type": "function"
    },
    {
      "inputs": [],
      "name": "owner",
      "outputs": [
        {
          "internalType": "address",
          "name": "",
          "type": "address"
        }
      ],
      "stateMutability": "view",
      "type": "function"
    },
    {
      "inputs": [],
      "name": "pause",
      "outputs": [],
      "stateMutability": "nonpayable",
      "type": "function"
    },
    {
      "inputs": [
        {
          "internalType": "bytes32",
          "name": "sessionId",
          "type": "bytes32"
        }
      ],
      "name": "pauseSession",
      "outputs": [],
      "stateMutability": "nonpayable",
      "type": "function"
    },
    {
      "inputs": [],
      "name": "paused",
      "outputs": [
        {
          "internalType": "bool",
          "name": "",
          "type": "bool"
        }
      ],
      "stateMutability": "view",
      "type": "function"
    },
    {
      "inputs": [],
      "name": "platformWallet",
      "outputs": [
        {
          "internalType": "address",
          "name": "",
          "type": "address"
        }
      ],
      "stateMutability": "view",
      "type": "function"
    },
    {
      "inputs": [
        {
          "internalType": "bytes32",
          "name": "sessionId",
          "type": "bytes32"
        }
      ],
      "name": "releaseProgressivePayment",
      "outputs": [],
      "stateMutability": "nonpayable",
      "type": "function"
    },
    {
      "inputs": [
        {
          "internalType": "address",
          "name": "token",
          "type": "address"
        }
      ],
      "name": "removeSupportedToken",
      "outputs": [],
      "stateMutability": "nonpayable",
      "type": "function"
    },
    {
      "inputs": [],
      "name": "renounceOwnership",
      "outputs": [],
      "stateMutability": "nonpayable",
      "type": "function"
    },
    {
      "inputs": [
        {
          "internalType": "bytes32",
          "name": "sessionId",
          "type": "bytes32"
        }
      ],
      "name": "resumeSession",
      "outputs": [],
      "stateMutability": "nonpayable",
      "type": "function"
    },
    {
      "inputs": [
        {
          "internalType": "bytes32",
          "name": "",
          "type": "bytes32"
        }
      ],
      "name": "sessions",
      "outputs": [
        {
          "internalType": "bytes32",
          "name": "sessionId",
          "type": "bytes32"
        },
        {
          "internalType": "address",
          "name": "student",
          "type": "address"
        },
        {
          "internalType": "address",
          "name": "mentor",
          "type": "address"
        },
        {
          "internalType": "address",
          "name": "paymentToken",
          "type": "address"
        },
        {
          "internalType": "uint256",
          "name": "totalAmount",
          "type": "uint256"
        },
        {
          "internalType": "uint256",
          "name": "releasedAmount",
          "type": "uint256"
        },
        {
          "internalType": "uint256",
          "name": "sessionDuration",
          "type": "uint256"
        },
        {
          "internalType": "uint256",
          "name": "startTime",
          "type": "uint256"
        },
        {
          "internalType": "uint256",
          "name": "lastHeartbeat",
          "type": "uint256"
        },
        {
          "internalType": "uint256",
          "name": "pausedTime",
          "type": "uint256"
        },
        {
          "internalType": "uint256",
          "name": "createdAt",
          "type": "uint256"
        },
        {
          "internalType": "enum ProgressiveEscrowV4.SessionStatus",
          "name": "status",
          "type": "uint8"
        },
        {
          "internalType": "bool",
          "name": "isActive",
          "type": "bool"
        },
        {
          "internalType": "bool",
          "name": "isPaused",
          "type": "bool"
        },
        {
          "internalType": "bool",
          "name": "surveyCompleted",
          "type": "bool"
        }
      ],
      "stateMutability": "view",
      "type": "function"
    },
    {
      "inputs": [
        {
          "internalType": "bytes32",
          "name": "sessionId",
          "type": "bytes32"
        }
      ],
      "name": "shouldAutoPause",
      "outputs": [
        {
          "internalType": "bool",
          "name": "",
          "type": "bool"
        }
      ],
      "stateMutability": "view",
      "type": "function"
    },
    {
      "inputs": [
        {
          "internalType": "bytes32",
          "name": "sessionId",
          "type": "bytes32"
        }
      ],
      "name": "startProgressiveSession",
      "outputs": [],
      "stateMutability": "nonpayable",
      "type": "function"
    },
    {
      "inputs": [
        {
          "internalType": "address",
          "name": "",
          "type": "address"
        }
      ],
      "name": "supportedTokens",
      "outputs": [
        {
          "internalType": "bool",
          "name": "",
          "type": "bool"
        }
      ],
      "stateMutability": "view",
      "type": "function"
    },
    {
      "inputs": [
        {
          "internalType": "address",
          "name": "newOwner",
          "type": "address"
        }
      ],
      "name": "transferOwnership",
      "outputs": [],
      "stateMutability": "nonpayable",
      "type": "function"
    },
    {
      "inputs": [],
      "name": "unpause",
      "outputs": [],
      "stateMutability": "nonpayable",
      "type": "function"
    },
    {
      "inputs": [
        {
          "internalType": "bytes32",
          "name": "sessionId",
          "type": "bytes32"
        }
      ],
      "name": "updateHeartbeat",
      "outputs": [],
      "stateMutability": "nonpayable",
      "type": "function"
    },
    {
      "inputs": [
        {
          "internalType": "address",
          "name": "newWallet",
          "type": "address"
        }
      ],
      "name": "updatePlatformWallet",
      "outputs": [],
      "stateMutability": "nonpayable",
      "type": "function"
    },
    {
      "inputs": [
        {
          "internalType": "bytes32",
          "name": "",
          "type": "bytes32"
        }
      ],
      "name": "usedSessionIds",
      "outputs": [
        {
          "internalType": "bool",
          "name": "",
          "type": "bool"
        }
      ],
      "stateMutability": "view",
      "type": "function"
    },
    {
      "inputs": [
        {
          "internalType": "address",
          "name": "",
          "type": "address"
        }
      ],
      "name": "userNonces",
      "outputs": [
        {
          "internalType": "uint256",
          "name": "",
          "type": "uint256"
        }
      ],
      "stateMutability": "view",
      "type": "function"
    },
    {
      "stateMutability": "payable",
      "type": "receive"
    }
  ],
  "bytecode": "0x60803461016f57601f612d9938819003918201601f19168301916001600160401b038311848410176101745780849260209460405283398101031261016f57516001600160a01b0381169081900361016f57600160005533156101595760018054610100600160a81b0319811633600881811b610100600160a81b0316929092179093556040519291901c6001600160a01b03167f8be0079c531659141344cd1fd0a4f28419497f9722a3daafe3b4186f6b6457e0600080a381156101175750600480546001600160a01b0319169190911790556000805260036020527f3617319a054d772f909f7c479a2cebe5066e836a939412e32403c99029b92eff805460ff19166001179055604051612c0e908161018b8239f35b62461bcd60e51b815260206004820152601760248201527f496e76616c696420706c6174666f726d2077616c6c65740000000000000000006044820152606490fd5b631e4fbdf760e01b600052600060045260246000fd5b600080fd5b634e487b7160e01b600052604160045260246000fdfe60806040526004361015610050575b361561004e5760405162461bcd60e51b8152602060048201526012602482015271119d5b98dd1a5bdb881b9bdd08199bdd5b9960721b6044820152606490fd5b005b60003560e01c806302ceb4061461203257806309499aa6146120145780631ac6af0314611ff05780631c8b14a014611fbf578063277327a514611f305780632b8a5f3b14611de65780632f7801f41461164f57806334d1c8fe14611dca578063363ec29814611dae57806339b240bd14611b795780633a17ba64146118f85780633f4ba83a1461188f5780634d21398214611702578063560d52d4146116e657806358bc8337146116ca578063590a2cc1146116ac5780635c975abb146116895780636834e3a81461164f57806368c4ac26146115425780636baae9cc146116275780636d69fcaf146115e2578063715018a61461158157806375151b6314611542578063763191901461150057806379d55e771461139b5780637ac1b469146111575780637dbd2832146110645780638456cb591461100b5780638da5cb5b14610fde578063962db93b14610fc057806399173d6b14610e4e578063ada4ef3014610dca578063b817be4c14610c53578063c1a287e214610c37578063ccb868dd14610937578063d79e85671461089e578063e906826c14610878578063f2fde38b146107db578063f400272b1461023b5763fa2af9da0361000e5734610236576000366003190112610236576004546040516001600160a01b039091168152602090f35b600080fd5b60c03660031901126102365760043561025261223b565b906044356001600160a01b0381169190829003610236576064359160843593610279612a9c565b610281612b7d565b6001600160a01b031693841561079d5733851461075f5781600052600360205260ff604060002054161561071e576102ba841515612a50565b80156106d9576000838152600260205260409020600101546001600160a01b031661069b5733600052600560205260406000205460a435036106665782600052600660205260ff60406000205416610627573360005260056020526040600020805460001981146106115760010190558260005260066020526040600020600160ff19825416179055811560001461057c57833403610541575b82604051610361816123e0565b818152602081019033825260408101908882526060810194868652608082019089825260a08301906000825260c0840190815260e0840160008152610100850191600083526101208601936000855261014087019542875261016088019b60008d5261018089019960008b526101a08a019b60008d526101c08b019d60008f52600052600260205260406000209a518b55600160a01b6001900390511660018b0190600160a01b6001900316600160a01b6001900319825416179055600160a01b6001900390511660028a0190600160a01b6001900316600160a01b6001900319825416179055600160a01b600190039051166003890190600160a01b6001900316600160a01b600190031982541617905551600488015551600587015551600686015551600785015551600884015551600983015551600a820155600b019351600581101561052b57845491519251935163ffffffff1990921660ff919091161791151560081b61ff00169190911791151560101b62ff0000169190911790151560181b63ff0000001617905560408051938452602084019190915233927fa5d7a3cf3954591f1af3cd96f79210169bbaf7e3b3a3e60de11886bc773649e09190a46001600055005b634e487b7160e01b600052602160045260246000fd5b60405162461bcd60e51b815260206004820152601360248201527208aa89040c2dadeeadce840dad2e6dac2e8c6d606b1b6044820152606490fd5b346105c0576105bb6040516323b872dd60e01b6020820152336024820152306044820152856064820152606481526105b5608482612413565b83612b9a565b610354565b60405162461bcd60e51b815260206004820152602360248201527f455448206e6f7420616363657074656420666f72204552433230207061796d656044820152626e747360e81b6064820152608490fd5b634e487b7160e01b600052601160045260246000fd5b60405162461bcd60e51b815260206004820152601760248201527614d95cdcda5bdb88125108185b1c9958591e481d5cd959604a1b6044820152606490fd5b60405162461bcd60e51b815260206004820152600d60248201526c496e76616c6964206e6f6e636560981b6044820152606490fd5b60405162461bcd60e51b815260206004820152601660248201527553657373696f6e20616c72656164792065786973747360501b6044820152606490fd5b60405162461bcd60e51b815260206004820152601f60248201527f4475726174696f6e206d7573742062652067726561746572207468616e2030006044820152606490fd5b60405162461bcd60e51b81526020600482015260196024820152782ab739bab83837b93a32b2103830bcb6b2b73a103a37b5b2b760391b6044820152606490fd5b60405162461bcd60e51b815260206004820152601660248201527521b0b73737ba1036b2b73a37b9103cb7bab939b2b63360511b6044820152606490fd5b60405162461bcd60e51b8152602060048201526016602482015275496e76616c6964206d656e746f72206164647265737360501b6044820152606490fd5b34610236576020366003190112610236576107f4612225565b6107fc612abe565b6001600160a01b0381169081156108625760018054610100600160a81b03198116600893841b610100600160a81b031617909155901c6001600160a01b03167f8be0079c531659141344cd1fd0a4f28419497f9722a3daafe3b4186f6b6457e0600080a3005b631e4fbdf760e01b600052600060045260246000fd5b346102365760203660031901126102365760206108966004356128fb565b604051908152f35b34610236576040366003190112610236576004356001600160a01b03811690819003610236576024356108cf612abe565b6108da821515612388565b4781116108fb5760008080809361004e955af16108f5612879565b506128b9565b60405162461bcd60e51b8152602060048201526014602482015273496e73756666696369656e742062616c616e636560601b6044820152606490fd5b3461023657602036600319011261023657600435610953612a9c565b600081815260026020526040902060018101546001600160a01b031661097a81151561228c565b600b82015460ff8116600581101561052b57600161099891146122d1565b60ff8160081c169081610c28575b5015610bed57600782015415610ba85733148015610b92575b15610b37576109cd826126f3565b6109e260048301549160068401549083612312565b91600581019081549384811115610af357846109fd916123d3565b92605a810290808204605a149015171561061157606485910480610a2186846123c6565b11610ae0575b50508215610aa35782610a7e91610a5f827ff2446e1f418253f1b6b8f9b8ebf603fd78b61d59024e68b0d687d1ecc22b8a40976123c6565b845560038101546002909101546001600160a01b039081169116612b2c565b54604080519283526020830191909152429082015280606081015b0390a26001600055005b60405162461bcd60e51b81526020600482015260156024820152744e6f207061796d656e7420746f2072656c6561736560581b6044820152606490fd5b610aeb9294506123d3565b918386610a27565b606460405162461bcd60e51b815260206004820152602060248201527f4e6f207061796d656e7420617661696c61626c6520666f722072656c656173656044820152fd5b60405162461bcd60e51b815260206004820152602d60248201527f4f6e6c792073657373696f6e207061727469636970616e74732063616e20726560448201526c1b19585cd9481c185e5b595b9d609a1b6064820152608490fd5b5060028101546001600160a01b031633146109bf565b60405162461bcd60e51b815260206004820152601a60248201527f53657373696f6e2073746172742074696d65206e6f74207365740000000000006044820152606490fd5b60405162461bcd60e51b815260206004820152601360248201527253657373696f6e206e6f742072756e6e696e6760681b6044820152606490fd5b60ff915060101c1615846109a6565b3461023657600036600319011261023657602060405160788152f35b3461023657602036600319011261023657600435610c6f612a9c565b600081815260026020526040902060018101546001600160a01b031690610c9782151561228c565b600b81019160ff835416600581101561052b57610d795733148015610d63575b15610d1257600160ff1983541617825542600782015560084291015561010062ffff00198254161790557fd010adb8a640e9a6a134ce407a4e27deb32fab5b64ea5847c55101907d9c25786020604051428152a26001600055005b60405162461bcd60e51b815260206004820152602360248201527f4f6e6c792073657373696f6e207061727469636970616e74732063616e207374604482015262185c9d60ea1b6064820152608490fd5b5060028101546001600160a01b03163314610cb7565b60405162461bcd60e51b8152602060048201526024808201527f53657373696f6e20616c72656164792073746172746564206f7220636f6d706c604482015263195d195960e21b6064820152608490fd5b3461023657602036600319011261023657610de3612225565b610deb612abe565b6001600160a01b03168015610e1057600480546001600160a01b031916919091179055005b60405162461bcd60e51b8152602060048201526016602482015275496e76616c69642077616c6c6574206164647265737360501b6044820152606490fd5b3461023657602036600319011261023657600435610e6a612a9c565b600081815260026020526040902060018101546001600160a01b0316610e9181151561228c565b600b82019081549060ff8216600581101561052b57600203610f865733148015610f70575b15610f1f576008830192610eda6009610ed08654426123d3565b92019182546123c6565b905562ff00ff1916600117905542908190556040519081527f3dd443712f1bb154053901f56ef4a45320caeee475fc1b8f448abb8a5abd7ec190602090a26001600055005b60405162461bcd60e51b8152602060048201526024808201527f4f6e6c792073657373696f6e207061727469636970616e74732063616e20726560448201526373756d6560e01b6064820152608490fd5b5060028301546001600160a01b03163314610eb6565b60405162461bcd60e51b815260206004820152601260248201527114d95cdcda5bdb881b9bdd081c185d5cd95960721b6044820152606490fd5b346102365760203660031901126102365760206108966004356126f3565b346102365760003660031901126102365760015460405160089190911c6001600160a01b03168152602090f35b3461023657600036600319011261023657611024612abe565b61102c612b7d565b600160ff19815416176001557f62e78cea01bee320cd4e420270b5ea74000d11b0c9f74754ebdbfc544b05a2586020604051338152a1005b346102365760203660031901126102365760043560005260026020526101e0604060002060ff81549160018060a01b036001820154169060018060a01b0360028201541660018060a01b0360038301541660048301546005840154600685015490600786015492600887015494600988015496600b600a8a0154990154996040519c8d5260208d015260408c015260608b015260808a015260a089015260c088015260e087015261010086015261012085015261014084015261112d6101608401838316612251565b818160081c161515610180840152818160101c1615156101a084015260181c1615156101c0820152f35b3461023657602036600319011261023657600435611173612a9c565b600081815260026020526040902060018101546001600160a01b03169061119b82151561228c565b600b81019081549260ff8416600581101561052b5760016111bc91146122d1565b60ff8460101c1661135d573314908115611346575b600801918254601e810190818111610611576096018091116106115742119382831561133f575b156113055762ff00ff191662010002179055806112fd575b6112f4575b50600090156112c6575060405161122d604082612413565b60118152701219585c9d1899585d081d1a5b595bdd5d607a1b6020820152905b6040514281526040602082015282519283604083015260005b8481106112b057837fec452bb0b82c12deb4f139fa1dfc53d2e3606e8bf03ca6a3f007d0dd6fd5350784606081896000838284010152601f80199101168101030190a26001600055005b8060208092840101516060828601015201611266565b506040516112d5604082612413565b600c81526b4d616e75616c20706175736560a01b60208201529061124d565b42905582611215565b508115611210565b60405162461bcd60e51b8152602060048201526012602482015271556e617574686f72697a656420706175736560701b6044820152606490fd5b50846111f8565b60028101546001600160a01b0316331491506111d1565b60405162461bcd60e51b815260206004820152601660248201527514d95cdcda5bdb88185b1c9958591e481c185d5cd95960521b6044820152606490fd5b34610236576080366003190112610236576004356113b761223b565b60443560643567ffffffffffffffff8111610236576113da90369060040161225e565b90916113e4612abe565b6113ec612a9c565b84600052600260205260406000209161141260018060a01b03600185015416151561228c565b6114266001600160a01b03861615156126b3565b6004830154600584019061143c825480926123d3565b84116114c0577f482a5548da3675089cf6763340cbd789090e2187c64b37c814c5340111636c479660609561148a936114768780956123c6565b9055600301546001600160a01b0316612b2c565b80604051948593845260406020850152816040850152848401376000828201840152601f01601f19168101030190a26001600055005b60405162461bcd60e51b8152602060048201526018602482015277416d6f756e74206578636565647320617661696c61626c6560401b6044820152606490fd5b3461023657602036600319011261023657611519612225565b611521612abe565b6001600160a01b03166000908152600360205260409020805460ff19169055005b34610236576020366003190112610236576001600160a01b03611563612225565b166000526003602052602060ff604060002054166040519015158152f35b346102365760003660031901126102365761159a612abe565b60018054610100600160a81b0319811690915560009060081c6001600160a01b03167f8be0079c531659141344cd1fd0a4f28419497f9722a3daafe3b4186f6b6457e08280a3005b34610236576020366003190112610236576115fb612225565b611603612abe565b6001600160a01b03166000908152600360205260409020805460ff19166001179055005b34610236576020366003190112610236576020611645600435612553565b6040519015158152f35b34610236576020366003190112610236576001600160a01b03611670612225565b1660005260056020526020604060002054604051908152f35b3461023657600036600319011261023657602060ff600154166040519015158152f35b34610236576020366003190112610236576020611645600435612441565b3461023657600036600319011261023657602060405160008152f35b34610236576000366003190112610236576020604051600a8152f35b346102365760203660031901126102365760043561171e612a9c565b60008181526002602052604090206001810180546001600160a01b0316919061174883151561228c565b600b82019260ff845416600581101561052b57611850573314801561183a575b156117e9576117d66040927f1d74c88fc8a136a8fb434db3561e44ecbc5b4577d1f1ea7e30d97250ead2cf2d94600460ff1982541617905560048101549260058201916117b68354866123d3565b94909255600390910154905483916001600160a01b039182169116612b2c565b8151908152426020820152a26001600055005b60405162461bcd60e51b8152602060048201526024808201527f4f6e6c792073657373696f6e207061727469636970616e74732063616e2063616044820152631b98d95b60e21b6064820152608490fd5b5060028201546001600160a01b03163314611768565b60405162461bcd60e51b815260206004820152601760248201527614d95cdcda5bdb88185b1c9958591e481cdd185c9d1959604a1b6044820152606490fd5b34610236576000366003190112610236576118a8612abe565b60015460ff8116156118e75760ff19166001557f5db9ee0a495bf2e6ff9c91a7834c1ba4fdd244a5e8aa4e537bd38aeae4b073aa6020604051338152a1005b638dfc202b60e01b60005260046000fd5b346102365760603660031901126102365760043560243560443567ffffffffffffffff81116102365761192f90369060040161225e565b5050611939612a9c565b600082815260026020526040902060018101549091906001600160a01b031661196381151561228c565b3303611b2a57600b82019060ff825416600581101561052b5760018114908115611b1f575b5015611adb5760018110159081611acf575b5015611a8a57805463ff00ffff191663010000031790556004810154600582018054919290916119ca90846123d3565b90600a820293828504600a148315171561061157611a0d60647f556195694fc082ad19415eaec58c1584ec20066f6e655be3034932c454d38a23960480946123d3565b935582611a63575b8180611a3c575b505060408051928352602083019190915242908201528060608101610a99565b600390910154600454611a5c92916001600160a01b039182169116612b2c565b8481611a1c565b60038101546002820154611a859185916001600160a01b039081169116612b2c565b611a15565b60405162461bcd60e51b815260206004820152601e60248201527f526174696e67206d757374206265206265747765656e203120616e64203500006044820152606490fd5b6005915011158461199a565b606460405162461bcd60e51b815260206004820152602060248201527f53657373696f6e206e6f7420726561647920666f7220636f6d706c6574696f6e6044820152fd5b600291501485611988565b60405162461bcd60e51b815260206004820152602160248201527f4f6e6c792073747564656e742063616e20636f6d706c6574652073657373696f6044820152603760f91b6064820152608490fd5b3461023657602036600319011261023657604051611b96816123e0565b60008152602081016000905260408101600090526060810160009052608081016000905260a081016000905260c081016000905260e08101600090526101008101600090526101208101600090526101408101600090526101608101600090526101808101600090526101a08101600090526101c001600090526004356000526002602052604060002060405190611c2d826123e0565b8054825260018101546001600160a01b03908116602084019081526002830154821660408501908152600384015490921660608501908152600484015460808601908152600585015460a08701908152600686015460c08801908152600787015460e0890190815260088801546101008a0190815260098901546101208b01908152600a8a01546101408c01908152600b909a0154979a9799610160890197909691959294929190611ce260ff8d168a612435565b6101808a01998c60081c60ff1615158b526101a081019b8d60101c60ff1615158d526101c08201809e60181c60ff16151590526040519e8f92518352600160a01b600190039051166020830152600160a01b600190039051169060400152600160a01b6001900390511660608d01525160808c01525160a08b01525160c08a01525160e0890152516101008801525161012087015251610140860152516101608501611d8d91612251565b5115156101808401525115156101a08301525115156101c08201526101e090f35b3461023657600036600319011261023657602060405160b48152f35b34610236576000366003190112610236576020604051601e8152f35b3461023657602036600319011261023657600435611e02612a9c565b60008181526002602052604090206001810154611e29906001600160a01b0316151561228c565b600b810160ff815416600581101561052b5760018114908115611f25575b5015611ecf57600a82015462093a808101809111610611574210611e8a57805461ffff191660031790556004810154600582018054919290916119ca90846123d3565b60405162461bcd60e51b815260206004820152601e60248201527f4175746f2d72656c656173652064656c6179206e6f74207265616368656400006044820152606490fd5b60405162461bcd60e51b815260206004820152602860248201527f53657373696f6e206e6f7420656c696769626c6520666f72206175746f2d636f60448201526736b83632ba34b7b760c11b6064820152608490fd5b600291501484611e47565b3461023657606036600319011261023657611f49612225565b611f5161223b565b90611f5a612abe565b611f6e6001600160a01b0383161515612388565b6001600160a01b03168015611f8a5761004e9160443591612aea565b60405162461bcd60e51b815260206004820152600d60248201526c24b73b30b634b2103a37b5b2b760991b6044820152606490fd5b34610236576020366003190112610236576004356000526006602052602060ff604060002054166040519015158152f35b34610236576060366003190112610236576020610896604435602435600435612312565b3461023657600036600319011261023657602060405162093a808152f35b346102365760203660031901126102365760043561204e612a9c565b600081815260026020526040902060018101546001600160a01b031661207581151561228c565b600b8201549060ff8216600581101561052b57600161209491146122d1565b3314801561220f575b156121b35760ff9160084291015560101c166120e5575b7f3cf0bf7708060bf073b6ddb921eef0485b3eb9da828e0ed751fa6582ef337f576020604051428152a26001600055005b6120ed612a9c565b600081815260026020526040902060018101546001600160a01b031661211481151561228c565b600b82019081549060ff8216600581101561052b57600203610f86573314801561219d575b15610f1f5760088301926121536009610ed08654426123d3565b905562ff00ff19166001179055429081905560405190815281907f3dd443712f1bb154053901f56ef4a45320caeee475fc1b8f448abb8a5abd7ec190602090a260016000556120b4565b5060028301546001600160a01b03163314612139565b60405162461bcd60e51b815260206004820152602e60248201527f4f6e6c792073657373696f6e207061727469636970616e74732063616e20757060448201526d19185d19481a19585c9d1899585d60921b6064820152608490fd5b5060028201546001600160a01b0316331461209d565b600435906001600160a01b038216820361023657565b602435906001600160a01b038216820361023657565b90600582101561052b5752565b9181601f840112156102365782359167ffffffffffffffff8311610236576020838186019501011161023657565b1561229357565b60405162461bcd60e51b815260206004820152601660248201527514d95cdcda5bdb88191bd95cc81b9bdd08195e1a5cdd60521b6044820152606490fd5b156122d857565b60405162461bcd60e51b815260206004820152601260248201527153657373696f6e206e6f742061637469766560701b6044820152606490fd5b91909182158015612380575b61237857605a810290808204605a149015171561061157606490049180830290838204148315171561061157811561236257049080821161235d575090565b905090565b634e487b7160e01b600052601260045260246000fd5b505050600090565b50811561231e565b1561238f57565b60405162461bcd60e51b815260206004820152600f60248201526e496e76616c6964206164647265737360881b6044820152606490fd5b9190820180921161061157565b9190820391821161061157565b6101e0810190811067ffffffffffffffff8211176123fd57604052565b634e487b7160e01b600052604160045260246000fd5b90601f8019910116810190811067ffffffffffffffff8211176123fd57604052565b600582101561052b5752565b6000526002602052604060002060405161245a816123e0565b8154815260018201546001600160a01b039081166020830152600283015481166040830152600383015416606082015260048201546080820152600582015460a0820152600682015460c0820152600782015460e0820152600882015461010082019081526009830154610120830152600a830154610140830152600b90920154610160820191906101c09060ff906124f582821686612435565b818160081c161515610180850152818160101c1615156101a085015260181c16151591015251600581101561052b5760011480159061254a575b6125445751601e810180911161061157421190565b50600090565b5080511561252f565b600052600260205260406000206040519061256d826123e0565b8054825260018101546001600160a01b039081166020840152600282015481166040840152600382015416606083015260048101546080830152600581015460a0830152600681015460c0830152600781015460e0830152600881015461010083019081526009820154610120840152600a820154610140840152600b909101549161016081019061260260ff851683612435565b60ff8460081c1615156101808201526101c060ff6101a0830195818160101c161515875260181c1615159101525191600583101561052b57600160009314908115916126a8575b50801561269f575b61269b575190601e820191828111612687576096018092116126735750421190565b634e487b7160e01b81526011600452602490fd5b634e487b7160e01b82526011600452602482fd5b5090565b50805115612651565b905051151538612649565b156126ba57565b60405162461bcd60e51b8152602060048201526011602482015270125b9d985b1a59081c9958da5c1a595b9d607a1b6044820152606490fd5b600052600260205260406000206040519061270d826123e0565b8054825260018101546001600160a01b039081166020840152600282015481166040840152600382015416606083015260048101546080830152600581015460a0830152600681015460c0830152600781015460e083019081526008820154610100840190815260098301546101208501908152600a840154610140860152600b90930154939091906127a760ff86166101608301612435565b60ff8560081c1615156101808201526101c060ff6101a0830196818160101c161515885260181c16151591015280511561283e576127e69051426123d3565b91519251151580612834575b612817575b508181111561281057603c9161280c916123d3565b0490565b5050600090565b9161282761282d929351426123d3565b906123c6565b90386127f7565b50805115156127f2565b60405162461bcd60e51b815260206004820152601360248201527214d95cdcda5bdb881b9bdd081cdd185c9d1959606a1b6044820152606490fd5b3d156128b4573d9067ffffffffffffffff82116123fd57604051916128a8601f8201601f191660200184612413565b82523d6000602084013e565b606090565b156128c057565b60405162461bcd60e51b8152602060048201526013602482015272115512081d1c985b9cd9995c8819985a5b1959606a1b6044820152606490fd5b80600052600260205260406000209060405191612917836123e0565b8054835260018101546001600160a01b0390811660208501526002820154811660408501526003820154166060840152600481015460808401908152600582015460a08501908152600683015460c08601908152600784015460e0870190815260088501546101008801526009850154610120880152600a850154610140880152600b9094015491959093906101608101906129b660ff851683612435565b60ff8460081c1615156101808201526101c060ff6101a0830195818160101c161515875260181c16151591015251600581101561052b5760011491821592612a45575b508115612a3b575b50612a3257612a12612a1c936126f3565b9051915191612312565b90518082111561281057612a2f916123d3565b90565b50505050600090565b9050511538612a01565b5115159150386129f9565b15612a5757565b60405162461bcd60e51b815260206004820152601d60248201527f416d6f756e74206d7573742062652067726561746572207468616e20300000006044820152606490fd5b600260005414612aad576002600055565b633ee5aeb560e01b60005260046000fd5b60015460081c6001600160a01b03163303612ad557565b63118cdaa760e01b6000523360045260246000fd5b60405163a9059cbb60e01b60208201526001600160a01b039092166024830152604480830193909352918152612b2a91612b25606483612413565b612b9a565b565b6001600160a01b038216929190612b448415156126b3565b612b4f831515612a50565b6001600160a01b031680612b73575050600080808093612b2a955af16108f5612879565b612b2a9350612aea565b60ff60015416612b8957565b63d93c066560e01b60005260046000fd5b906000602091828151910182855af115612bf5576000513d612bec57506001600160a01b0381163b155b612bcb5750565b635274afe760e01b60009081526001600160a01b0391909116600452602490fd5b60011415612bc4565b6040513d6000823e3d90fdfea164736f6c634300081e000a",
  "linkReferences": {},
  "deployedLinkReferences": {}
}