{
  "_format": "hh-sol-artifact-1",
  "contractName": "ProgressiveEscrowV4",
  "sourceName": "contracts/ProgressiveEscrowV4.sol",
  "abi": [
    {
      "inputs": [
        {
          "internalType": "address",
          "name": "_platformWallet",
          "type": "address"
        }
      ],
      "stateMutability": "nonpayable",
      "type": "constructor"
    },
    {
      "inputs": [],
      "name": "EnforcedPause",
      "type": "error"
    },
    {
      "inputs": [],
      "name": "ExpectedPause",
      "type": "error"
    },
    {
      "inputs": [
        {
          "internalType": "address",
          "name": "owner",
          "type": "address"
        }
      ],
      "name": "OwnableInvalidOwner",
      "type": "error"
    },
    {
      "inputs": [
        {
          "internalType": "address",
          "name": "account",
          "type": "address"
        }
      ],
      "name": "OwnableUnauthorizedAccount",
      "type": "error"
    },
    {
      "inputs": [],
      "name": "ReentrancyGuardReentrantCall",
      "type": "error"
    },
    {
      "inputs": [
        {
          "internalType": "address",
          "name": "token",
          "type": "address"
        }
      ],
      "name": "SafeERC20FailedOperation",
      "type": "error"
    },
    {
      "anonymous": false,
      "inputs": [
        {
          "indexed": true,
          "internalType": "bytes32",
          "name": "sessionId",
          "type": "bytes32"
        },
        {
          "indexed": false,
          "internalType": "uint256",
          "name": "amount",
          "type": "uint256"
        },
        {
          "indexed": false,
          "internalType": "string",
          "name": "reason",
          "type": "string"
        }
      ],
      "name": "EmergencyRelease",
      "type": "event"
    },
    {
      "anonymous": false,
      "inputs": [
        {
          "indexed": true,
          "internalType": "bytes32",
          "name": "sessionId",
          "type": "bytes32"
        },
        {
          "indexed": false,
          "internalType": "uint256",
          "name": "timestamp",
          "type": "uint256"
        }
      ],
      "name": "HeartbeatReceived",
      "type": "event"
    },
    {
      "anonymous": false,
      "inputs": [
        {
          "indexed": true,
          "internalType": "address",
          "name": "previousOwner",
          "type": "address"
        },
        {
          "indexed": true,
          "internalType": "address",
          "name": "newOwner",
          "type": "address"
        }
      ],
      "name": "OwnershipTransferred",
      "type": "event"
    },
    {
      "anonymous": false,
      "inputs": [
        {
          "indexed": false,
          "internalType": "address",
          "name": "account",
          "type": "address"
        }
      ],
      "name": "Paused",
      "type": "event"
    },
    {
      "anonymous": false,
      "inputs": [
        {
          "indexed": true,
          "internalType": "bytes32",
          "name": "sessionId",
          "type": "bytes32"
        },
        {
          "indexed": false,
          "internalType": "uint256",
          "name": "releasedAmount",
          "type": "uint256"
        },
        {
          "indexed": false,
          "internalType": "uint256",
          "name": "totalReleased",
          "type": "uint256"
        },
        {
          "indexed": false,
          "internalType": "uint256",
          "name": "timestamp",
          "type": "uint256"
        }
      ],
      "name": "ProgressivePaymentReleased",
      "type": "event"
    },
    {
      "anonymous": false,
      "inputs": [
        {
          "indexed": true,
          "internalType": "bytes32",
          "name": "sessionId",
          "type": "bytes32"
        },
        {
          "indexed": false,
          "internalType": "uint256",
          "name": "refundAmount",
          "type": "uint256"
        },
        {
          "indexed": false,
          "internalType": "uint256",
          "name": "timestamp",
          "type": "uint256"
        }
      ],
      "name": "SessionCancelled",
      "type": "event"
    },
    {
      "anonymous": false,
      "inputs": [
        {
          "indexed": true,
          "internalType": "bytes32",
          "name": "sessionId",
          "type": "bytes32"
        },
        {
          "indexed": false,
          "internalType": "uint256",
          "name": "finalAmount",
          "type": "uint256"
        },
        {
          "indexed": false,
          "internalType": "uint256",
          "name": "platformFee",
          "type": "uint256"
        },
        {
          "indexed": false,
          "internalType": "uint256",
          "name": "timestamp",
          "type": "uint256"
        }
      ],
      "name": "SessionCompleted",
      "type": "event"
    },
    {
      "anonymous": false,
      "inputs": [
        {
          "indexed": true,
          "internalType": "bytes32",
          "name": "sessionId",
          "type": "bytes32"
        },
        {
          "indexed": true,
          "internalType": "address",
          "name": "student",
          "type": "address"
        },
        {
          "indexed": true,
          "internalType": "address",
          "name": "mentor",
          "type": "address"
        },
        {
          "indexed": false,
          "internalType": "uint256",
          "name": "amount",
          "type": "uint256"
        },
        {
          "indexed": false,
          "internalType": "address",
          "name": "token",
          "type": "address"
        }
      ],
      "name": "SessionCreated",
      "type": "event"
    },
    {
      "anonymous": false,
      "inputs": [
        {
          "indexed": true,
          "internalType": "bytes32",
          "name": "sessionId",
          "type": "bytes32"
        },
        {
          "indexed": false,
          "internalType": "uint256",
          "name": "timestamp",
          "type": "uint256"
        },
        {
          "indexed": false,
          "internalType": "string",
          "name": "reason",
          "type": "string"
        }
      ],
      "name": "SessionPaused",
      "type": "event"
    },
    {
      "anonymous": false,
      "inputs": [
        {
          "indexed": true,
          "internalType": "bytes32",
          "name": "sessionId",
          "type": "bytes32"
        },
        {
          "indexed": false,
          "internalType": "uint256",
          "name": "timestamp",
          "type": "uint256"
        }
      ],
      "name": "SessionResumed",
      "type": "event"
    },
    {
      "anonymous": false,
      "inputs": [
        {
          "indexed": true,
          "internalType": "bytes32",
          "name": "sessionId",
          "type": "bytes32"
        },
        {
          "indexed": false,
          "internalType": "uint256",
          "name": "timestamp",
          "type": "uint256"
        }
      ],
      "name": "SessionStarted",
      "type": "event"
    },
    {
      "anonymous": false,
      "inputs": [
        {
          "indexed": false,
          "internalType": "address",
          "name": "account",
          "type": "address"
        }
      ],
      "name": "Unpaused",
      "type": "event"
    },
    {
      "stateMutability": "payable",
      "type": "fallback"
    },
    {
      "inputs": [],
      "name": "AUTO_RELEASE_DELAY",
      "outputs": [
        {
          "internalType": "uint256",
          "name": "",
          "type": "uint256"
        }
      ],
      "stateMutability": "view",
      "type": "function"
    },
    {
      "inputs": [],
      "name": "ETH_TOKEN",
      "outputs": [
        {
          "internalType": "address",
          "name": "",
          "type": "address"
        }
      ],
      "stateMutability": "view",
      "type": "function"
    },
    {
      "inputs": [],
      "name": "GRACE_PERIOD",
      "outputs": [
        {
          "internalType": "uint256",
          "name": "",
          "type": "uint256"
        }
      ],
      "stateMutability": "view",
      "type": "function"
    },
    {
      "inputs": [],
      "name": "HEARTBEAT_INTERVAL",
      "outputs": [
        {
          "internalType": "uint256",
          "name": "",
          "type": "uint256"
        }
      ],
      "stateMutability": "view",
      "type": "function"
    },
    {
      "inputs": [],
      "name": "PLATFORM_FEE_PERCENT",
      "outputs": [
        {
          "internalType": "uint256",
          "name": "",
          "type": "uint256"
        }
      ],
      "stateMutability": "view",
      "type": "function"
    },
    {
      "inputs": [],
      "name": "PROGRESSIVE_RELEASE_INTERVAL",
      "outputs": [
        {
          "internalType": "uint256",
          "name": "",
          "type": "uint256"
        }
      ],
      "stateMutability": "view",
      "type": "function"
    },
    {
      "inputs": [
        {
          "internalType": "address",
          "name": "token",
          "type": "address"
        }
      ],
      "name": "addSupportedToken",
      "outputs": [],
      "stateMutability": "nonpayable",
      "type": "function"
    },
    {
      "inputs": [
        {
          "internalType": "bytes32",
          "name": "sessionId",
          "type": "bytes32"
        }
      ],
      "name": "autoCompleteSession",
      "outputs": [],
      "stateMutability": "nonpayable",
      "type": "function"
    },
    {
      "inputs": [
        {
          "internalType": "uint256",
          "name": "totalAmount",
          "type": "uint256"
        },
        {
          "internalType": "uint256",
          "name": "elapsedMinutes",
          "type": "uint256"
        },
        {
          "internalType": "uint256",
          "name": "durationMinutes",
          "type": "uint256"
        }
      ],
      "name": "calculateMaxRelease",
      "outputs": [
        {
          "internalType": "uint256",
          "name": "",
          "type": "uint256"
        }
      ],
      "stateMutability": "pure",
      "type": "function"
    },
    {
      "inputs": [
        {
          "internalType": "bytes32",
          "name": "sessionId",
          "type": "bytes32"
        }
      ],
      "name": "cancelSession",
      "outputs": [],
      "stateMutability": "nonpayable",
      "type": "function"
    },
    {
      "inputs": [
        {
          "internalType": "bytes32",
          "name": "sessionId",
          "type": "bytes32"
        },
        {
          "internalType": "uint256",
          "name": "rating",
          "type": "uint256"
        },
        {
          "internalType": "string",
          "name": "feedback",
          "type": "string"
        }
      ],
      "name": "completeSession",
      "outputs": [],
      "stateMutability": "nonpayable",
      "type": "function"
    },
    {
      "inputs": [
        {
          "internalType": "bytes32",
          "name": "sessionId",
          "type": "bytes32"
        },
        {
          "internalType": "address",
          "name": "mentor",
          "type": "address"
        },
        {
          "internalType": "address",
          "name": "paymentToken",
          "type": "address"
        },
        {
          "internalType": "uint256",
          "name": "amount",
          "type": "uint256"
        },
        {
          "internalType": "uint256",
          "name": "durationMinutes",
          "type": "uint256"
        },
        {
          "internalType": "uint256",
          "name": "nonce",
          "type": "uint256"
        }
      ],
      "name": "createProgressiveSession",
      "outputs": [],
      "stateMutability": "payable",
      "type": "function"
    },
    {
      "inputs": [
        {
          "internalType": "bytes32",
          "name": "sessionId",
          "type": "bytes32"
        },
        {
          "internalType": "address",
          "name": "recipient",
          "type": "address"
        },
        {
          "internalType": "uint256",
          "name": "amount",
          "type": "uint256"
        },
        {
          "internalType": "string",
          "name": "reason",
          "type": "string"
        }
      ],
      "name": "emergencyRelease",
      "outputs": [],
      "stateMutability": "nonpayable",
      "type": "function"
    },
    {
      "inputs": [
        {
          "internalType": "address payable",
          "name": "to",
          "type": "address"
        },
        {
          "internalType": "uint256",
          "name": "amount",
          "type": "uint256"
        }
      ],
      "name": "emergencyWithdrawETH",
      "outputs": [],
      "stateMutability": "nonpayable",
      "type": "function"
    },
    {
      "inputs": [
        {
          "internalType": "address",
          "name": "token",
          "type": "address"
        },
        {
          "internalType": "address",
          "name": "to",
          "type": "address"
        },
        {
          "internalType": "uint256",
          "name": "amount",
          "type": "uint256"
        }
      ],
      "name": "emergencyWithdrawToken",
      "outputs": [],
      "stateMutability": "nonpayable",
      "type": "function"
    },
    {
      "inputs": [
        {
          "internalType": "bytes32",
          "name": "sessionId",
          "type": "bytes32"
        }
      ],
      "name": "getAvailablePayment",
      "outputs": [
        {
          "internalType": "uint256",
          "name": "",
          "type": "uint256"
        }
      ],
      "stateMutability": "view",
      "type": "function"
    },
    {
      "inputs": [
        {
          "internalType": "bytes32",
          "name": "sessionId",
          "type": "bytes32"
        }
      ],
      "name": "getEffectiveElapsedTime",
      "outputs": [
        {
          "internalType": "uint256",
          "name": "",
          "type": "uint256"
        }
      ],
      "stateMutability": "view",
      "type": "function"
    },
    {
      "inputs": [
        {
          "internalType": "bytes32",
          "name": "sessionId",
          "type": "bytes32"
        }
      ],
      "name": "getSession",
      "outputs": [
        {
          "components": [
            {
              "internalType": "bytes32",
              "name": "sessionId",
              "type": "bytes32"
            },
            {
              "internalType": "address",
              "name": "student",
              "type": "address"
            },
            {
              "internalType": "address",
              "name": "mentor",
              "type": "address"
            },
            {
              "internalType": "address",
              "name": "paymentToken",
              "type": "address"
            },
            {
              "internalType": "uint256",
              "name": "totalAmount",
              "type": "uint256"
            },
            {
              "internalType": "uint256",
              "name": "releasedAmount",
              "type": "uint256"
            },
            {
              "internalType": "uint256",
              "name": "sessionDuration",
              "type": "uint256"
            },
            {
              "internalType": "uint256",
              "name": "startTime",
              "type": "uint256"
            },
            {
              "internalType": "uint256",
              "name": "lastHeartbeat",
              "type": "uint256"
            },
            {
              "internalType": "uint256",
              "name": "pausedTime",
              "type": "uint256"
            },
            {
              "internalType": "uint256",
              "name": "createdAt",
              "type": "uint256"
            },
            {
              "internalType": "enum ProgressiveEscrowV4.SessionStatus",
              "name": "status",
              "type": "uint8"
            },
            {
              "internalType": "bool",
              "name": "isActive",
              "type": "bool"
            },
            {
              "internalType": "bool",
              "name": "isPaused",
              "type": "bool"
            },
            {
              "internalType": "bool",
              "name": "surveyCompleted",
              "type": "bool"
            }
          ],
          "internalType": "struct ProgressiveEscrowV4.ProgressiveSession",
          "name": "",
          "type": "tuple"
        }
      ],
      "stateMutability": "view",
      "type": "function"
    },
    {
      "inputs": [
        {
          "internalType": "address",
          "name": "user",
          "type": "address"
        }
      ],
      "name": "getUserNonce",
      "outputs": [
        {
          "internalType": "uint256",
          "name": "",
          "type": "uint256"
        }
      ],
      "stateMutability": "view",
      "type": "function"
    },
    {
      "inputs": [
        {
          "internalType": "address",
          "name": "token",
          "type": "address"
        }
      ],
      "name": "isTokenSupported",
      "outputs": [
        {
          "internalType": "bool",
          "name": "",
          "type": "bool"
        }
      ],
      "stateMutability": "view",
      "type": "function"
    },
    {
      "inputs": [
        {
          "internalType": "bytes32",
          "name": "sessionId",
          "type": "bytes32"
        }
      ],
      "name": "needsHeartbeat",
      "outputs": [
        {
          "internalType": "bool",
          "name": "",
          "type": "bool"
        }
      ],
      "stateMutability": "view",
      "type": "function"
    },
    {
      "inputs": [],
      "name": "owner",
      "outputs": [
        {
          "internalType": "address",
          "name": "",
          "type": "address"
        }
      ],
      "stateMutability": "view",
      "type": "function"
    },
    {
      "inputs": [],
      "name": "pause",
      "outputs": [],
      "stateMutability": "nonpayable",
      "type": "function"
    },
    {
      "inputs": [
        {
          "internalType": "bytes32",
          "name": "sessionId",
          "type": "bytes32"
        }
      ],
      "name": "pauseSession",
      "outputs": [],
      "stateMutability": "nonpayable",
      "type": "function"
    },
    {
      "inputs": [],
      "name": "paused",
      "outputs": [
        {
          "internalType": "bool",
          "name": "",
          "type": "bool"
        }
      ],
      "stateMutability": "view",
      "type": "function"
    },
    {
      "inputs": [],
      "name": "platformWallet",
      "outputs": [
        {
          "internalType": "address",
          "name": "",
          "type": "address"
        }
      ],
      "stateMutability": "view",
      "type": "function"
    },
    {
      "inputs": [
        {
          "internalType": "bytes32",
          "name": "sessionId",
          "type": "bytes32"
        }
      ],
      "name": "releaseProgressivePayment",
      "outputs": [],
      "stateMutability": "nonpayable",
      "type": "function"
    },
    {
      "inputs": [
        {
          "internalType": "address",
          "name": "token",
          "type": "address"
        }
      ],
      "name": "removeSupportedToken",
      "outputs": [],
      "stateMutability": "nonpayable",
      "type": "function"
    },
    {
      "inputs": [],
      "name": "renounceOwnership",
      "outputs": [],
      "stateMutability": "nonpayable",
      "type": "function"
    },
    {
      "inputs": [
        {
          "internalType": "bytes32",
          "name": "sessionId",
          "type": "bytes32"
        }
      ],
      "name": "resumeSession",
      "outputs": [],
      "stateMutability": "nonpayable",
      "type": "function"
    },
    {
      "inputs": [
        {
          "internalType": "bytes32",
          "name": "",
          "type": "bytes32"
        }
      ],
      "name": "sessions",
      "outputs": [
        {
          "internalType": "bytes32",
          "name": "sessionId",
          "type": "bytes32"
        },
        {
          "internalType": "address",
          "name": "student",
          "type": "address"
        },
        {
          "internalType": "address",
          "name": "mentor",
          "type": "address"
        },
        {
          "internalType": "address",
          "name": "paymentToken",
          "type": "address"
        },
        {
          "internalType": "uint256",
          "name": "totalAmount",
          "type": "uint256"
        },
        {
          "internalType": "uint256",
          "name": "releasedAmount",
          "type": "uint256"
        },
        {
          "internalType": "uint256",
          "name": "sessionDuration",
          "type": "uint256"
        },
        {
          "internalType": "uint256",
          "name": "startTime",
          "type": "uint256"
        },
        {
          "internalType": "uint256",
          "name": "lastHeartbeat",
          "type": "uint256"
        },
        {
          "internalType": "uint256",
          "name": "pausedTime",
          "type": "uint256"
        },
        {
          "internalType": "uint256",
          "name": "createdAt",
          "type": "uint256"
        },
        {
          "internalType": "enum ProgressiveEscrowV4.SessionStatus",
          "name": "status",
          "type": "uint8"
        },
        {
          "internalType": "bool",
          "name": "isActive",
          "type": "bool"
        },
        {
          "internalType": "bool",
          "name": "isPaused",
          "type": "bool"
        },
        {
          "internalType": "bool",
          "name": "surveyCompleted",
          "type": "bool"
        }
      ],
      "stateMutability": "view",
      "type": "function"
    },
    {
      "inputs": [
        {
          "internalType": "bytes32",
          "name": "sessionId",
          "type": "bytes32"
        }
      ],
      "name": "shouldAutoPause",
      "outputs": [
        {
          "internalType": "bool",
          "name": "",
          "type": "bool"
        }
      ],
      "stateMutability": "view",
      "type": "function"
    },
    {
      "inputs": [
        {
          "internalType": "bytes32",
          "name": "sessionId",
          "type": "bytes32"
        }
      ],
      "name": "startProgressiveSession",
      "outputs": [],
      "stateMutability": "nonpayable",
      "type": "function"
    },
    {
      "inputs": [
        {
          "internalType": "address",
          "name": "",
          "type": "address"
        }
      ],
      "name": "supportedTokens",
      "outputs": [
        {
          "internalType": "bool",
          "name": "",
          "type": "bool"
        }
      ],
      "stateMutability": "view",
      "type": "function"
    },
    {
      "inputs": [
        {
          "internalType": "address",
          "name": "newOwner",
          "type": "address"
        }
      ],
      "name": "transferOwnership",
      "outputs": [],
      "stateMutability": "nonpayable",
      "type": "function"
    },
    {
      "inputs": [],
      "name": "unpause",
      "outputs": [],
      "stateMutability": "nonpayable",
      "type": "function"
    },
    {
      "inputs": [
        {
          "internalType": "bytes32",
          "name": "sessionId",
          "type": "bytes32"
        }
      ],
      "name": "updateHeartbeat",
      "outputs": [],
      "stateMutability": "nonpayable",
      "type": "function"
    },
    {
      "inputs": [
        {
          "internalType": "address",
          "name": "newWallet",
          "type": "address"
        }
      ],
      "name": "updatePlatformWallet",
      "outputs": [],
      "stateMutability": "nonpayable",
      "type": "function"
    },
    {
      "inputs": [
        {
          "internalType": "bytes32",
          "name": "",
          "type": "bytes32"
        }
      ],
      "name": "usedSessionIds",
      "outputs": [
        {
          "internalType": "bool",
          "name": "",
          "type": "bool"
        }
      ],
      "stateMutability": "view",
      "type": "function"
    },
    {
      "inputs": [
        {
          "internalType": "address",
          "name": "",
          "type": "address"
        }
      ],
      "name": "userNonces",
      "outputs": [
        {
          "internalType": "uint256",
          "name": "",
          "type": "uint256"
        }
      ],
      "stateMutability": "view",
      "type": "function"
    },
    {
      "stateMutability": "payable",
      "type": "receive"
    }
  ],
  "bytecode": "0x6080346200015757601f62002e3638819003918201601f19168301916001600160401b038311848410176200015c578084926020946040528339810103126200015757516001600160a01b03908181169081900362000157576000906001825533156200013e5760018054610100600160a81b0319811633600881811b610100600160a81b0316929092179093556040519591901c167f8be0079c531659141344cd1fd0a4f28419497f9722a3daafe3b4186f6b6457e08480a38015620000fc57600480546001600160a01b0319169190911790558080526003602052604090819020805460ff1916600117905551612cc3915081620001738239f35b62461bcd60e51b835260206004840152601760248401527f496e76616c696420706c6174666f726d2077616c6c65740000000000000000006044840152606483fd5b604051631e4fbdf760e01b815260048101839052602490fd5b600080fd5b634e487b7160e01b600052604160045260246000fdfe60806040526004361015610050575b361561004e5760405162461bcd60e51b8152602060048201526012602482015271119d5b98dd1a5bdb881b9bdd08199bdd5b9960721b6044820152606490fd5b005b60003560e01c806302ceb4061461202957806309499aa61461200b5780631ac6af0314611fe75780631c8b14a014611fb6578063277327a514611f2d5780632b8a5f3b14611d9e5780632f7801f41461161657806334d1c8fe14611d82578063363ec29814611d6657806339b240bd14611b4b5780633a17ba64146118b05780633f4ba83a146118465780634d213982146116c9578063560d52d4146116ad57806358bc833714611691578063590a2cc1146116735780635c975abb146116505780636834e3a81461161657806368c4ac26146115095780636baae9cc146115ee5780636d69fcaf146115a9578063715018a61461154857806375151b631461150957806376319190146114c757806379d55e77146113655780637ac1b469146111305780637dbd2832146110475780638456cb5914610fee5780638da5cb5b14610fc1578063962db93b14610fa357806399173d6b14610e36578063ada4ef3014610dab578063b817be4c14610c40578063c1a287e214610c24578063ccb868dd14610932578063d79e856714610899578063e906826c14610873578063f2fde38b146107da578063f400272b1461023b5763fa2af9da0361000e5734610236576000366003190112610236576004546040516001600160a01b039091168152602090f35b600080fd5b60c03660031901126102365761024f6122ca565b60449081356001600160a01b038116908190036102365760649182359260843591610278612461565b610280612443565b6001600160a01b03169485156107a0573386146107665783600052600360205260ff6040600020541615610725576102b985151561234a565b82156106e4576004356000908152600260205260409020600101546001600160a01b03166106aa5733600052600560205260406000205460a4350361067957600435600052600660205260ff604060002054166106385733600052600560205260406000208054600019811461062257600101905560043560005260066020526040600020600160ff19825416179055831560001461056a578434036105335750505b6040519061036982612396565b6004358252336020830152846040830152826060830152836080830152600060a083015260c0820152600060e082015260006101008201526000610120820152426101408201526000610160820152600061018082015260006101a082015260006101c08201526004356000526002602052600b6040600020825181556001810160018060a01b03602085015116906bffffffffffffffffffffffff60a01b91828254161790556002820160018060a01b0360408601511682825416179055600382019060018060a01b03606086015116908254161790556080830151600482015560a0830151600582015560c0830151600682015560e0830151600782015561010083015160088201556101208301516009820155610140830151600a820155019061016081015190600582101561051d57825461ff00610180830151151560081b169060ff63ff0000006101c062ff00006101a0870151151560101b16950151151560181b1694169063ffffffff1916171717179055604051918252602082015233907fa5d7a3cf3954591f1af3cd96f79210169bbaf7e3b3a3e60de11886bc773649e0604060043592a46001600055005b634e487b7160e01b600052602160045260246000fd5b7208aa89040c2dadeeadce840dad2e6dac2e8c6d606b1b6040519162461bcd60e51b83526020600484015260136024840152820152fd5b90346105d357604051916323b872dd60e01b602084015233602484015230908301528481830152815260a081019080821067ffffffffffffffff8311176105bd576105b891604052836123db565b61035c565b634e487b7160e01b600052604160045260246000fd5b90626e747360e81b6084927f455448206e6f7420616363657074656420666f72204552433230207061796d656040519362461bcd60e51b85526020600486015260236024860152840152820152fd5b634e487b7160e01b600052601160045260246000fd5b7f53657373696f6e20494420616c726561647920757365640000000000000000006040519162461bcd60e51b83526020600484015260176024840152820152fd5b6c496e76616c6964206e6f6e636560981b6040519162461bcd60e51b835260206004840152600d6024840152820152fd5b7553657373696f6e20616c72656164792065786973747360501b6040519162461bcd60e51b83526020600484015260166024840152820152fd5b7f4475726174696f6e206d7573742062652067726561746572207468616e2030006040519162461bcd60e51b835260206004840152601f6024840152820152fd5b7f556e737570706f72746564207061796d656e7420746f6b656e000000000000006040519162461bcd60e51b83526020600484015260196024840152820152fd5b7521b0b73737ba1036b2b73a37b9103cb7bab939b2b63360511b6040519162461bcd60e51b83526020600484015260166024840152820152fd5b75496e76616c6964206d656e746f72206164647265737360501b6040519162461bcd60e51b83526020600484015260166024840152820152fd5b34610236576020366003190112610236576107f36122b4565b6107fb61231b565b6001600160a01b0381811691821561085a5760018054610100600160a81b03198116600893841b610100600160a81b031617909155901c167f8be0079c531659141344cd1fd0a4f28419497f9722a3daafe3b4186f6b6457e0600080a3005b604051631e4fbdf760e01b815260006004820152602490fd5b34610236576020366003190112610236576020610891600435612b0e565b604051908152f35b34610236576040366003190112610236576004356001600160a01b03811690819003610236576024356108ca61231b565b6108d5821515612c78565b4781116108f65760008080809361004e955af16108f0612564565b506125af565b60405162461bcd60e51b8152602060048201526014602482015273496e73756666696369656e742062616c616e636560601b6044820152606490fd5b34610236576020806003193601126102365760043561094f612461565b60008181526002835260409020600181015490926001600160a01b03918216610979811515612484565b600b85015460ff8116600581101561051d57600161099791146124c9565b60ff8160081c169081610c15575b5015610bda57600785015415610b955733148015610b86575b15610b2c576109cc836126ff565b916109e260048601549360068701549085612689565b600586019283549182811115610ae957826109fc9161250a565b94605a810290808204605a1490151715610622576064900480610a1f8785612517565b11610ad5575b508415610a9957507ff2446e1f418253f1b6b8f9b8ebf603fd78b61d59024e68b0d687d1ecc22b8a409495610a7492610a5f868094612517565b855560028160038401541692015416906125f1565b54604080519283526020830191909152429082015280606081015b0390a26001600055005b6064906040519062461bcd60e51b8252600482015260156024820152744e6f207061796d656e7420746f2072656c6561736560581b6044820152fd5b610ae2919550829061250a565b9387610a25565b6064826040519062461bcd60e51b825280600483015260248201527f4e6f207061796d656e7420617661696c61626c6520666f722072656c656173656044820152fd5b6084906040519062461bcd60e51b82526004820152602d60248201527f4f6e6c792073657373696f6e207061727469636970616e74732063616e20726560448201526c1b19585cd9481c185e5b595b9d609a1b6064820152fd5b508160028501541633146109be565b60405162461bcd60e51b815260048101839052601a60248201527f53657373696f6e2073746172742074696d65206e6f74207365740000000000006044820152606490fd5b60405162461bcd60e51b815260048101839052601360248201527253657373696f6e206e6f742072756e6e696e6760681b6044820152606490fd5b60ff915060101c1615866109a5565b3461023657600036600319011261023657602060405160788152f35b3461023657602036600319011261023657600435610c5c612461565b600081815260026020526040902060018101546001600160a01b0391908216610c86811515612484565b600b82019283549160ff8316600581101561051d57610d5a573314908115610d4a575b5015610cf9576101019142600782015560084291015562ffffff19161790557fd010adb8a640e9a6a134ce407a4e27deb32fab5b64ea5847c55101907d9c25786020604051428152a26001600055005b60405162461bcd60e51b815260206004820152602360248201527f4f6e6c792073657373696f6e207061727469636970616e74732063616e207374604482015262185c9d60ea1b6064820152608490fd5b9050600283015416331485610ca9565b60405162461bcd60e51b8152602060048201526024808201527f53657373696f6e20616c72656164792073746172746564206f7220636f6d706c604482015263195d195960e21b6064820152608490fd5b3461023657602036600319011261023657610dc46122b4565b610dcc61231b565b6001600160a01b03168015610df8576bffffffffffffffffffffffff60a01b6004541617600455600080f35b60405162461bcd60e51b8152602060048201526016602482015275496e76616c69642077616c6c6574206164647265737360501b6044820152606490fd5b3461023657602036600319011261023657600435610e52612461565b600081815260026020526040902060018101546001600160a01b03908116610e7b811515612484565b600b83019182549160ff8316600581101561051d57600203610f69573314908115610f59575b5015610f08576001906008840193610ec96009610ebf87544261250a565b9201918254612517565b905562ff00ff19161790554290557f3dd443712f1bb154053901f56ef4a45320caeee475fc1b8f448abb8a5abd7ec16020604051428152a26001600055005b60405162461bcd60e51b8152602060048201526024808201527f4f6e6c792073657373696f6e207061727469636970616e74732063616e20726560448201526373756d6560e01b6064820152608490fd5b9050600284015416331485610ea1565b60405162461bcd60e51b815260206004820152601260248201527114d95cdcda5bdb881b9bdd081c185d5cd95960721b6044820152606490fd5b346102365760203660031901126102365760206108916004356126ff565b346102365760003660031901126102365760015460405160089190911c6001600160a01b03168152602090f35b346102365760003660031901126102365761100761231b565b61100f612443565b600160ff19815416176001557f62e78cea01bee320cd4e420270b5ea74000d11b0c9f74754ebdbfc544b05a2586020604051338152a1005b346102365760203660031901126102365760043560005260026020526101e0604060002060ff81549160018060a01b03908160018201541691806002830154169060038301541660048301546005840154600685015490600786015492600887015494600988015496600b600a8a0154990154996040519c8d5260208d015260408c015260608b015260808a015260a089015260c088015260e087015261010086015261012085015261014084015261110661016084018383166122e0565b818160081c161515610180840152818160101c1615156101a084015260181c1615156101c0820152f35b34610236576020806003193601126102365760043561114d612461565b6000818152600283526040902060018101546001600160a01b039081169190611177831515612484565b600b82019182549360ff8516600581101561051d57600161119891146124c9565b60ff8560101c16611327573314918215611316575b50600801918254601e810190818111610622576096018091116106225742119382831561130f575b156112d55762ff00ff191662010002179055806112cd575b6112c4575b501561129a57604051611204816123b3565b60118152701219585c9d1899585d081d1a5b595bdd5d607a1b83820152915b6040519042825260408183015283519384604084015260005b85811061128657847fec452bb0b82c12deb4f139fa1dfc53d2e3606e8bf03ca6a3f007d0dd6fd53507856060818a6000838284010152601f80199101168101030190a26001600055005b81810183015184820160600152820161123c565b6040516112a6816123b3565b600c81526b4d616e75616c20706175736560a01b8382015291611223565b429055836111f2565b5081156111ed565b60405162461bcd60e51b8152600481018890526012602482015271556e617574686f72697a656420706175736560701b6044820152606490fd5b50846111d5565b6002820154163314915060086111ad565b60405162461bcd60e51b815260048101889052601660248201527514d95cdcda5bdb88185b1c9958591e481c185d5cd95960521b6044820152606490fd5b34610236576080366003190112610236576004356113816122ca565b60443560643567ffffffffffffffff8111610236576113a49036906004016122ed565b9290916113af61231b565b6113b7612461565b600085815260026020526040902060018101546001600160a01b039591906113e29087161515612484565b6113ef8685161515612524565b60048101549360058201906114068254809761250a565b8511611482577f482a5548da3675089cf6763340cbd789090e2187c64b37c814c5340111636c4797600361144c9487946114428660609b612517565b90550154166125f1565b80604051948593845260406020850152816040850152848401376000828201840152601f01601f19168101030190a26001600055005b60405162461bcd60e51b815260206004820152601860248201527f416d6f756e74206578636565647320617661696c61626c6500000000000000006044820152606490fd5b34610236576020366003190112610236576114e06122b4565b6114e861231b565b6001600160a01b03166000908152600360205260409020805460ff19169055005b34610236576020366003190112610236576001600160a01b0361152a6122b4565b166000526003602052602060ff604060002054166040519015158152f35b346102365760003660031901126102365761156161231b565b60018054610100600160a81b0319811690915560009060081c6001600160a01b03167f8be0079c531659141344cd1fd0a4f28419497f9722a3daafe3b4186f6b6457e08280a3005b34610236576020366003190112610236576115c26122b4565b6115ca61231b565b6001600160a01b03166000908152600360205260409020805460ff19166001179055005b3461023657602036600319011261023657602061160c6004356129b6565b6040519015158152f35b34610236576020366003190112610236576001600160a01b036116376122b4565b1660005260056020526020604060002054604051908152f35b3461023657600036600319011261023657602060ff600154166040519015158152f35b3461023657602036600319011261023657602061160c600435612880565b3461023657600036600319011261023657602060405160008152f35b34610236576000366003190112610236576020604051600a8152f35b34610236576020366003190112610236576004356116e5612461565b600081815260026020526040902060018101546001600160a01b039081169190611710831515612484565b600b82019182549060ff8216600581101561051d576118015784331480156117f2575b156117a1577f1d74c88fc8a136a8fb434db3561e44ecbc5b4577d1f1ea7e30d97250ead2cf2d94604094600461178e9460ff19161790556004820154936003600584019361178285548861250a565b968795550154166125f1565b8151908152426020820152a26001600055005b60405162461bcd60e51b8152602060048201526024808201527f4f6e6c792073657373696f6e207061727469636970616e74732063616e2063616044820152631b98d95b60e21b6064820152608490fd5b50826002820154163314611733565b60405162461bcd60e51b815260206004820152601760248201527f53657373696f6e20616c726561647920737461727465640000000000000000006044820152606490fd5b346102365760003660031901126102365761185f61231b565b60015460ff81161561189e5760ff19166001557f5db9ee0a495bf2e6ff9c91a7834c1ba4fdd244a5e8aa4e537bd38aeae4b073aa6020604051338152a1005b604051638dfc202b60e01b8152600490fd5b3461023657606036600319011261023657600435602480359060443567ffffffffffffffff8111610236576118e99036906004016122ed565b50506118f3612461565b82600052600260205260406000209060018060a01b03928360018401541661191c811515612484565b3303611afd57600b83019081549060ff82166005811015611ae85760018114908115611add575b5015611a995760018110159081611a8d575b5015611a495763010000039063ff00ffff1916179055600482015492600583019361198185548261250a565b92600a840290848204600a1485151715611a355750916119cc939160647f556195694fc082ad19415eaec58c1584ec20066f6e655be3034932c454d38a23979694049485809461250a565b955584611a18575b816119fb575b50506040805193845260208401929092525042908201528060608101610a8f565b806003611a10940154169060045416906125f1565b8481816119da565b611a30858260038601541683600287015416906125f1565b6119d4565b634e487b7160e01b60009081526011600452fd5b60405162461bcd60e51b815260206004820152601e818501527f526174696e67206d757374206265206265747765656e203120616e64203500006044820152606490fd5b60059150111587611955565b60405162461bcd60e51b8152602060048201819052818601527f53657373696f6e206e6f7420726561647920666f7220636f6d706c6574696f6e6044820152606490fd5b600291501488611943565b84634e487b7160e01b60005260216004526000fd5b60405162461bcd60e51b8152602060048201526021818401527f4f6e6c792073747564656e742063616e20636f6d706c6574652073657373696f6044820152603760f91b6064820152608490fd5b346102365760203660031901126102365760006101c0604051611b6d81612396565b8281528260208201528260408201528260608201528260808201528260a08201528260c08201528260e08201528261010082015282610120820152826101408201528261016082015282610180820152826101a0820152015260043560005260026020526101e0604060002060ff600b60405192611bea84612396565b8054845260018101546001600160a01b039081166020860152600282015481166040860152600382015416606085015260048101546080850152600581015460a0850152600681015460c0850152600781015460e085015260088101546101008501526009810154610120850152600a8101546101408501520154611c7582821661016085016123cf565b818160081c161515610180840152818160101c1615156101a084015260181c1615156101c08201526101c0604051918051835260018060a01b03602082015116602084015260018060a01b03604082015116604084015260018060a01b0360608201511660608401526080810151608084015260a081015160a084015260c081015160c084015260e081015160e0840152610100810151610100840152610120810151610120840152610140810151610140840152611d3e6101608201516101608501906122e0565b61018081015115156101808401526101a081015115156101a0840152015115156101c0820152f35b3461023657600036600319011261023657602060405160b48152f35b34610236576000366003190112610236576020604051601e8152f35b3461023657602036600319011261023657600435611dba612461565b600081815260026020526040902060018101546001600160a01b039190611de49083161515612484565b600b8101805460ff8116600581101561051d5760018114908115611f22575b5015611ecc57600a83015462093a808101809111610622574210611e875760039061ffff19161790556004810154916005820191611e4283548561250a565b600a810292818404600a1482151715610622577f556195694fc082ad19415eaec58c1584ec20066f6e655be3034932c454d38a239560646119cc95049485809461250a565b60405162461bcd60e51b815260206004820152601e60248201527f4175746f2d72656c656173652064656c6179206e6f74207265616368656400006044820152606490fd5b60405162461bcd60e51b815260206004820152602860248201527f53657373696f6e206e6f7420656c696769626c6520666f72206175746f2d636f60448201526736b83632ba34b7b760c11b6064820152608490fd5b600291501486611e03565b3461023657606036600319011261023657611f466122b4565b611f4e6122ca565b90611f5761231b565b6001600160a01b0390611f6d8383161515612c78565b168015611f815761004e9160443591612639565b60405162461bcd60e51b815260206004820152600d60248201526c24b73b30b634b2103a37b5b2b760991b6044820152606490fd5b34610236576020366003190112610236576004356000526006602052602060ff604060002054166040519015158152f35b34610236576060366003190112610236576020610891604435602435600435612689565b3461023657600036600319011261023657602060405162093a808152f35b346102365760208060031936011261023657600435612046612461565b6000818152600283526040902060018101546001600160a01b03939190841690612071821515612484565b600b8101549160ff8316600581101561051d57600161209091146124c9565b331480156122a5575b15612249574260089091015560101c60ff166120e0575b7f3cf0bf7708060bf073b6ddb921eef0485b3eb9da828e0ed751fa6582ef337f5790604051428152a26001600055005b6120e8612461565b816000526002815260406000208360018201541693612108851515612484565b600b82019081549560ff8716600581101561051d5760020361220f5733149081156121ff575b50156121ae5760017f3cf0bf7708060bf073b6ddb921eef0485b3eb9da828e0ed751fa6582ef337f579495600884019361216e6009610ebf87544261250a565b905562ff00ff1916179055429055827f3dd443712f1bb154053901f56ef4a45320caeee475fc1b8f448abb8a5abd7ec182604051428152a28291506120b0565b60405162461bcd60e51b8152600481018490526024808201527f4f6e6c792073657373696f6e207061727469636970616e74732063616e20726560448201526373756d6560e01b6064820152608490fd5b905060028301541633148661212e565b60405162461bcd60e51b815260048101869052601260248201527114d95cdcda5bdb881b9bdd081c185d5cd95960721b6044820152606490fd5b60405162461bcd60e51b815260048101849052602e60248201527f4f6e6c792073657373696f6e207061727469636970616e74732063616e20757060448201526d19185d19481a19585c9d1899585d60921b6064820152608490fd5b50846002820154163314612099565b600435906001600160a01b038216820361023657565b602435906001600160a01b038216820361023657565b90600582101561051d5752565b9181601f840112156102365782359167ffffffffffffffff8311610236576020838186019501011161023657565b60015460081c6001600160a01b0316330361233257565b60405163118cdaa760e01b8152336004820152602490fd5b1561235157565b60405162461bcd60e51b815260206004820152601d60248201527f416d6f756e74206d7573742062652067726561746572207468616e20300000006044820152606490fd5b6101e0810190811067ffffffffffffffff8211176105bd57604052565b6040810190811067ffffffffffffffff8211176105bd57604052565b600582101561051d5752565b906000602091828151910182855af115612437576000513d61242e57506001600160a01b0381163b155b61240c5750565b604051635274afe760e01b81526001600160a01b039091166004820152602490fd5b60011415612405565b6040513d6000823e3d90fd5b60ff6001541661244f57565b60405163d93c066560e01b8152600490fd5b600260005414612472576002600055565b604051633ee5aeb560e01b8152600490fd5b1561248b57565b60405162461bcd60e51b815260206004820152601660248201527514d95cdcda5bdb88191bd95cc81b9bdd08195e1a5cdd60521b6044820152606490fd5b156124d057565b60405162461bcd60e51b815260206004820152601260248201527153657373696f6e206e6f742061637469766560701b6044820152606490fd5b9190820391821161062257565b9190820180921161062257565b1561252b57565b60405162461bcd60e51b8152602060048201526011602482015270125b9d985b1a59081c9958da5c1a595b9d607a1b6044820152606490fd5b3d156125aa5767ffffffffffffffff903d8281116105bd5760405192601f8201601f19908116603f01168401908111848210176105bd5760405282523d6000602084013e565b606090565b156125b657565b60405162461bcd60e51b8152602060048201526013602482015272115512081d1c985b9cd9995c8819985a5b1959606a1b6044820152606490fd5b6001600160a01b0380831693929161260a851515612524565b61261584151561234a565b1680612633575050600080808093612631955af16108f0612564565b565b61263193505b60405163a9059cbb60e01b60208201526001600160a01b039092166024830152604480830193909352918152608081019167ffffffffffffffff8311828410176105bd57612631926040526123db565b919091821580156126f7575b6126ef57605a810290808204605a14901517156106225760649004918083029083820414831517156106225781156126d95704908082116126d4575090565b905090565b634e487b7160e01b600052601260045260246000fd5b505050600090565b508115612695565b600052600260205260406000206040519061271982612396565b8054825260018060a01b03806001830154166020840152806002830154166040840152600382015416606083015260048101546080830152600581015460a0830152600681015460c0830152600781015460e083019081526008820154906101008401918252600b6009840154936101208601948552600a8101546101408701520154936127ae60ff861661016083016123cf565b60ff8560081c1615156101808201526101c060ff6101a0830196818160101c161515885260181c161515910152805115612845576127ed90514261250a565b9151925115158061283b575b61281e575b508181111561281757603c916128139161250a565b0490565b5050600090565b9161282e6128349293514261250a565b90612517565b90386127fe565b50805115156127f9565b60405162461bcd60e51b815260206004820152601360248201527214d95cdcda5bdb881b9bdd081cdd185c9d1959606a1b6044820152606490fd5b600090815260026020526040812060405161289a81612396565b8154815260018060a01b03806001840154166020830152806002840154166040830152600383015416606082015260048201546080820152600582015460a0820152600682015460c0820152600782015460e0820152600b60088301549261010083019384526009810154610120840152600a8101546101408401520154906101c060ff610160830193612930828216866123cf565b818160081c161515610180850152818160101c1615156101a085015260181c1615159101525160058110156129a257600114801590612999575b612995575190601e82018092116129815750421190565b634e487b7160e01b81526011600452602490fd5b5090565b5080511561296a565b634e487b7160e01b83526021600452602483fd5b60009081526002602052604081206040516129d081612396565b8154815260018201546001600160a01b039081166020830152600283015481166040830152600383015416606082015260048201546080820152600582015460a0820152600682015460c0820152600782015460e0820152600882015461010082019081526009830154610120830152600a830154610140830152600b9092015490610160810190612a6560ff8416836123cf565b60ff8360081c1615156101808201526101c060ff6101a0830194818160101c161515865260181c161515910152516005811015612afa5760011490811591612aef575b508015612ae6575b612995575190601e820191828111612ad2576096018092116129815750421190565b634e487b7160e01b82526011600452602482fd5b50805115612ab0565b905051151538612aa8565b634e487b7160e01b84526021600452602484fd5b6000908082526002602052604082209060405191612b2b83612396565b8054835260018060a01b03806001830154166020850152806002830154166040850152600382015416606084015260048101546080840190815260058201549360a0810194855260068301549260c08201938452600b60078201549160e0840192835260088101546101008501526009810154610120850152600a810154610140850152015491610160810190612bc560ff8516836123cf565b60ff8460081c1615156101808201526101c060ff6101a0830195818160101c161515875260181c161515910152516005811015612c645760011491821592612c59575b508115612c4f575b50612c4857612c21612c2b936126ff565b9051915191612689565b90519081811115612c4357612c40925061250a565b90565b505090565b5050505090565b9050511538612c10565b511515915038612c08565b634e487b7160e01b88526021600452602488fd5b15612c7f57565b60405162461bcd60e51b815260206004820152600f60248201526e496e76616c6964206164647265737360881b6044820152606490fdfea164736f6c6343000814000a",
  "linkReferences": {},
  "deployedLinkReferences": {}
}