{
  "_format": "hh-sol-artifact-1",
  "contractName": "ProgressiveEscrowV5",
  "sourceName": "contracts/ProgressiveEscrowV5_Final.sol",
  "abi": [
    {
      "inputs": [
        {
          "internalType": "address",
          "name": "_platformWallet",
          "type": "address"
        }
      ],
      "stateMutability": "nonpayable",
      "type": "constructor"
    },
    {
      "inputs": [],
      "name": "EnforcedPause",
      "type": "error"
    },
    {
      "inputs": [],
      "name": "ExpectedPause",
      "type": "error"
    },
    {
      "inputs": [
        {
          "internalType": "address",
          "name": "owner",
          "type": "address"
        }
      ],
      "name": "OwnableInvalidOwner",
      "type": "error"
    },
    {
      "inputs": [
        {
          "internalType": "address",
          "name": "account",
          "type": "address"
        }
      ],
      "name": "OwnableUnauthorizedAccount",
      "type": "error"
    },
    {
      "inputs": [],
      "name": "ReentrancyGuardReentrantCall",
      "type": "error"
    },
    {
      "inputs": [
        {
          "internalType": "address",
          "name": "token",
          "type": "address"
        }
      ],
      "name": "SafeERC20FailedOperation",
      "type": "error"
    },
    {
      "anonymous": false,
      "inputs": [
        {
          "indexed": true,
          "internalType": "bytes32",
          "name": "sessionId",
          "type": "bytes32"
        },
        {
          "indexed": false,
          "internalType": "uint256",
          "name": "amount",
          "type": "uint256"
        },
        {
          "indexed": false,
          "internalType": "string",
          "name": "reason",
          "type": "string"
        }
      ],
      "name": "EmergencyRelease",
      "type": "event"
    },
    {
      "anonymous": false,
      "inputs": [
        {
          "indexed": true,
          "internalType": "bytes32",
          "name": "sessionId",
          "type": "bytes32"
        },
        {
          "indexed": false,
          "internalType": "uint256",
          "name": "timestamp",
          "type": "uint256"
        }
      ],
      "name": "HeartbeatReceived",
      "type": "event"
    },
    {
      "anonymous": false,
      "inputs": [
        {
          "indexed": true,
          "internalType": "address",
          "name": "previousOwner",
          "type": "address"
        },
        {
          "indexed": true,
          "internalType": "address",
          "name": "newOwner",
          "type": "address"
        }
      ],
      "name": "OwnershipTransferred",
      "type": "event"
    },
    {
      "anonymous": false,
      "inputs": [
        {
          "indexed": false,
          "internalType": "address",
          "name": "account",
          "type": "address"
        }
      ],
      "name": "Paused",
      "type": "event"
    },
    {
      "anonymous": false,
      "inputs": [
        {
          "indexed": true,
          "internalType": "bytes32",
          "name": "sessionId",
          "type": "bytes32"
        },
        {
          "indexed": false,
          "internalType": "uint256",
          "name": "amount",
          "type": "uint256"
        },
        {
          "indexed": false,
          "internalType": "uint256",
          "name": "totalReleased",
          "type": "uint256"
        },
        {
          "indexed": false,
          "internalType": "uint256",
          "name": "timestamp",
          "type": "uint256"
        }
      ],
      "name": "ProgressivePaymentReleased",
      "type": "event"
    },
    {
      "anonymous": false,
      "inputs": [
        {
          "indexed": true,
          "internalType": "bytes32",
          "name": "sessionId",
          "type": "bytes32"
        },
        {
          "indexed": false,
          "internalType": "uint256",
          "name": "refundAmount",
          "type": "uint256"
        },
        {
          "indexed": false,
          "internalType": "uint256",
          "name": "cancelledAt",
          "type": "uint256"
        }
      ],
      "name": "SessionCancelled",
      "type": "event"
    },
    {
      "anonymous": false,
      "inputs": [
        {
          "indexed": true,
          "internalType": "bytes32",
          "name": "sessionId",
          "type": "bytes32"
        },
        {
          "indexed": false,
          "internalType": "uint256",
          "name": "mentorAmount",
          "type": "uint256"
        },
        {
          "indexed": false,
          "internalType": "uint256",
          "name": "platformFee",
          "type": "uint256"
        },
        {
          "indexed": false,
          "internalType": "uint256",
          "name": "completedAt",
          "type": "uint256"
        }
      ],
      "name": "SessionCompleted",
      "type": "event"
    },
    {
      "anonymous": false,
      "inputs": [
        {
          "indexed": true,
          "internalType": "bytes32",
          "name": "sessionId",
          "type": "bytes32"
        },
        {
          "indexed": true,
          "internalType": "address",
          "name": "student",
          "type": "address"
        },
        {
          "indexed": true,
          "internalType": "address",
          "name": "mentor",
          "type": "address"
        },
        {
          "indexed": false,
          "internalType": "uint256",
          "name": "amount",
          "type": "uint256"
        },
        {
          "indexed": false,
          "internalType": "address",
          "name": "token",
          "type": "address"
        }
      ],
      "name": "SessionCreated",
      "type": "event"
    },
    {
      "anonymous": false,
      "inputs": [
        {
          "indexed": true,
          "internalType": "bytes32",
          "name": "sessionId",
          "type": "bytes32"
        },
        {
          "indexed": false,
          "internalType": "uint256",
          "name": "refundAmount",
          "type": "uint256"
        }
      ],
      "name": "SessionExpired",
      "type": "event"
    },
    {
      "anonymous": false,
      "inputs": [
        {
          "indexed": true,
          "internalType": "bytes32",
          "name": "sessionId",
          "type": "bytes32"
        },
        {
          "indexed": false,
          "internalType": "uint256",
          "name": "pausedAt",
          "type": "uint256"
        },
        {
          "indexed": false,
          "internalType": "string",
          "name": "reason",
          "type": "string"
        }
      ],
      "name": "SessionPaused",
      "type": "event"
    },
    {
      "anonymous": false,
      "inputs": [
        {
          "indexed": true,
          "internalType": "bytes32",
          "name": "sessionId",
          "type": "bytes32"
        },
        {
          "indexed": false,
          "internalType": "uint256",
          "name": "resumedAt",
          "type": "uint256"
        }
      ],
      "name": "SessionResumed",
      "type": "event"
    },
    {
      "anonymous": false,
      "inputs": [
        {
          "indexed": true,
          "internalType": "bytes32",
          "name": "sessionId",
          "type": "bytes32"
        },
        {
          "indexed": false,
          "internalType": "uint256",
          "name": "startTime",
          "type": "uint256"
        }
      ],
      "name": "SessionStarted",
      "type": "event"
    },
    {
      "anonymous": false,
      "inputs": [
        {
          "indexed": false,
          "internalType": "address",
          "name": "token",
          "type": "address"
        },
        {
          "indexed": false,
          "internalType": "bool",
          "name": "supported",
          "type": "bool"
        }
      ],
      "name": "TokenSupportUpdated",
      "type": "event"
    },
    {
      "anonymous": false,
      "inputs": [
        {
          "indexed": false,
          "internalType": "address",
          "name": "account",
          "type": "address"
        }
      ],
      "name": "Unpaused",
      "type": "event"
    },
    {
      "stateMutability": "payable",
      "type": "fallback"
    },
    {
      "inputs": [],
      "name": "AUTO_RELEASE_DELAY",
      "outputs": [
        {
          "internalType": "uint256",
          "name": "",
          "type": "uint256"
        }
      ],
      "stateMutability": "view",
      "type": "function"
    },
    {
      "inputs": [],
      "name": "ETH_TOKEN",
      "outputs": [
        {
          "internalType": "address",
          "name": "",
          "type": "address"
        }
      ],
      "stateMutability": "view",
      "type": "function"
    },
    {
      "inputs": [],
      "name": "GRACE_PERIOD",
      "outputs": [
        {
          "internalType": "uint256",
          "name": "",
          "type": "uint256"
        }
      ],
      "stateMutability": "view",
      "type": "function"
    },
    {
      "inputs": [],
      "name": "HEARTBEAT_INTERVAL",
      "outputs": [
        {
          "internalType": "uint256",
          "name": "",
          "type": "uint256"
        }
      ],
      "stateMutability": "view",
      "type": "function"
    },
    {
      "inputs": [],
      "name": "PLATFORM_FEE_PERCENT",
      "outputs": [
        {
          "internalType": "uint256",
          "name": "",
          "type": "uint256"
        }
      ],
      "stateMutability": "view",
      "type": "function"
    },
    {
      "inputs": [],
      "name": "SESSION_START_TIMEOUT",
      "outputs": [
        {
          "internalType": "uint256",
          "name": "",
          "type": "uint256"
        }
      ],
      "stateMutability": "view",
      "type": "function"
    },
    {
      "inputs": [
        {
          "internalType": "address",
          "name": "token",
          "type": "address"
        }
      ],
      "name": "addSupportedToken",
      "outputs": [],
      "stateMutability": "nonpayable",
      "type": "function"
    },
    {
      "inputs": [
        {
          "internalType": "bytes32",
          "name": "sessionId",
          "type": "bytes32"
        }
      ],
      "name": "autoCompleteSession",
      "outputs": [],
      "stateMutability": "nonpayable",
      "type": "function"
    },
    {
      "inputs": [
        {
          "internalType": "uint256",
          "name": "totalAmount",
          "type": "uint256"
        },
        {
          "internalType": "uint256",
          "name": "elapsedMinutes",
          "type": "uint256"
        },
        {
          "internalType": "uint256",
          "name": "durationMinutes",
          "type": "uint256"
        }
      ],
      "name": "calculateMaxRelease",
      "outputs": [
        {
          "internalType": "uint256",
          "name": "",
          "type": "uint256"
        }
      ],
      "stateMutability": "pure",
      "type": "function"
    },
    {
      "inputs": [
        {
          "internalType": "bytes32",
          "name": "sessionId",
          "type": "bytes32"
        }
      ],
      "name": "cancelSession",
      "outputs": [],
      "stateMutability": "nonpayable",
      "type": "function"
    },
    {
      "inputs": [
        {
          "internalType": "bytes32",
          "name": "sessionId",
          "type": "bytes32"
        }
      ],
      "name": "checkAndExpireSession",
      "outputs": [],
      "stateMutability": "nonpayable",
      "type": "function"
    },
    {
      "inputs": [
        {
          "internalType": "bytes32",
          "name": "sessionId",
          "type": "bytes32"
        },
        {
          "internalType": "uint256",
          "name": "rating",
          "type": "uint256"
        },
        {
          "internalType": "string",
          "name": "",
          "type": "string"
        }
      ],
      "name": "completeSession",
      "outputs": [],
      "stateMutability": "nonpayable",
      "type": "function"
    },
    {
      "inputs": [
        {
          "internalType": "bytes32",
          "name": "sessionId",
          "type": "bytes32"
        },
        {
          "internalType": "address",
          "name": "mentor",
          "type": "address"
        },
        {
          "internalType": "address",
          "name": "paymentToken",
          "type": "address"
        },
        {
          "internalType": "uint256",
          "name": "amount",
          "type": "uint256"
        },
        {
          "internalType": "uint256",
          "name": "durationMinutes",
          "type": "uint256"
        },
        {
          "internalType": "uint256",
          "name": "nonce",
          "type": "uint256"
        }
      ],
      "name": "createProgressiveSession",
      "outputs": [],
      "stateMutability": "payable",
      "type": "function"
    },
    {
      "inputs": [
        {
          "internalType": "bytes32",
          "name": "sessionId",
          "type": "bytes32"
        },
        {
          "internalType": "address",
          "name": "recipient",
          "type": "address"
        },
        {
          "internalType": "uint256",
          "name": "amount",
          "type": "uint256"
        },
        {
          "internalType": "string",
          "name": "reason",
          "type": "string"
        }
      ],
      "name": "emergencyRelease",
      "outputs": [],
      "stateMutability": "nonpayable",
      "type": "function"
    },
    {
      "inputs": [
        {
          "internalType": "address payable",
          "name": "to",
          "type": "address"
        },
        {
          "internalType": "uint256",
          "name": "amount",
          "type": "uint256"
        }
      ],
      "name": "emergencyWithdrawETH",
      "outputs": [],
      "stateMutability": "nonpayable",
      "type": "function"
    },
    {
      "inputs": [
        {
          "internalType": "address",
          "name": "token",
          "type": "address"
        },
        {
          "internalType": "address",
          "name": "to",
          "type": "address"
        },
        {
          "internalType": "uint256",
          "name": "amount",
          "type": "uint256"
        }
      ],
      "name": "emergencyWithdrawToken",
      "outputs": [],
      "stateMutability": "nonpayable",
      "type": "function"
    },
    {
      "inputs": [
        {
          "internalType": "bytes32",
          "name": "sessionId",
          "type": "bytes32"
        }
      ],
      "name": "getAvailablePayment",
      "outputs": [
        {
          "internalType": "uint256",
          "name": "",
          "type": "uint256"
        }
      ],
      "stateMutability": "view",
      "type": "function"
    },
    {
      "inputs": [
        {
          "internalType": "bytes32",
          "name": "sessionId",
          "type": "bytes32"
        }
      ],
      "name": "getEffectiveElapsedTime",
      "outputs": [
        {
          "internalType": "uint256",
          "name": "",
          "type": "uint256"
        }
      ],
      "stateMutability": "view",
      "type": "function"
    },
    {
      "inputs": [
        {
          "internalType": "bytes32",
          "name": "sessionId",
          "type": "bytes32"
        }
      ],
      "name": "getSession",
      "outputs": [
        {
          "components": [
            {
              "internalType": "bytes32",
              "name": "sessionId",
              "type": "bytes32"
            },
            {
              "internalType": "address",
              "name": "student",
              "type": "address"
            },
            {
              "internalType": "address",
              "name": "mentor",
              "type": "address"
            },
            {
              "internalType": "address",
              "name": "paymentToken",
              "type": "address"
            },
            {
              "internalType": "uint256",
              "name": "totalAmount",
              "type": "uint256"
            },
            {
              "internalType": "uint256",
              "name": "releasedAmount",
              "type": "uint256"
            },
            {
              "internalType": "uint256",
              "name": "sessionDuration",
              "type": "uint256"
            },
            {
              "internalType": "uint256",
              "name": "startTime",
              "type": "uint256"
            },
            {
              "internalType": "uint256",
              "name": "lastHeartbeat",
              "type": "uint256"
            },
            {
              "internalType": "uint256",
              "name": "pausedTime",
              "type": "uint256"
            },
            {
              "internalType": "uint256",
              "name": "createdAt",
              "type": "uint256"
            },
            {
              "internalType": "enum ProgressiveEscrowV5.SessionStatus",
              "name": "status",
              "type": "uint8"
            },
            {
              "internalType": "bool",
              "name": "isActive",
              "type": "bool"
            },
            {
              "internalType": "bool",
              "name": "isPaused",
              "type": "bool"
            },
            {
              "internalType": "bool",
              "name": "surveyCompleted",
              "type": "bool"
            }
          ],
          "internalType": "struct ProgressiveEscrowV5.ProgressiveSession",
          "name": "",
          "type": "tuple"
        }
      ],
      "stateMutability": "view",
      "type": "function"
    },
    {
      "inputs": [
        {
          "internalType": "address",
          "name": "user",
          "type": "address"
        }
      ],
      "name": "getUserNonce",
      "outputs": [
        {
          "internalType": "uint256",
          "name": "",
          "type": "uint256"
        }
      ],
      "stateMutability": "view",
      "type": "function"
    },
    {
      "inputs": [
        {
          "internalType": "address",
          "name": "token",
          "type": "address"
        }
      ],
      "name": "isTokenSupported",
      "outputs": [
        {
          "internalType": "bool",
          "name": "",
          "type": "bool"
        }
      ],
      "stateMutability": "view",
      "type": "function"
    },
    {
      "inputs": [
        {
          "internalType": "bytes32",
          "name": "sessionId",
          "type": "bytes32"
        }
      ],
      "name": "needsHeartbeat",
      "outputs": [
        {
          "internalType": "bool",
          "name": "",
          "type": "bool"
        }
      ],
      "stateMutability": "view",
      "type": "function"
    },
    {
      "inputs": [],
      "name": "owner",
      "outputs": [
        {
          "internalType": "address",
          "name": "",
          "type": "address"
        }
      ],
      "stateMutability": "view",
      "type": "function"
    },
    {
      "inputs": [],
      "name": "pause",
      "outputs": [],
      "stateMutability": "nonpayable",
      "type": "function"
    },
    {
      "inputs": [
        {
          "internalType": "bytes32",
          "name": "sessionId",
          "type": "bytes32"
        }
      ],
      "name": "pauseSession",
      "outputs": [],
      "stateMutability": "nonpayable",
      "type": "function"
    },
    {
      "inputs": [],
      "name": "paused",
      "outputs": [
        {
          "internalType": "bool",
          "name": "",
          "type": "bool"
        }
      ],
      "stateMutability": "view",
      "type": "function"
    },
    {
      "inputs": [],
      "name": "platformWallet",
      "outputs": [
        {
          "internalType": "address",
          "name": "",
          "type": "address"
        }
      ],
      "stateMutability": "view",
      "type": "function"
    },
    {
      "inputs": [
        {
          "internalType": "bytes32",
          "name": "sessionId",
          "type": "bytes32"
        }
      ],
      "name": "releaseProgressivePayment",
      "outputs": [],
      "stateMutability": "nonpayable",
      "type": "function"
    },
    {
      "inputs": [
        {
          "internalType": "address",
          "name": "token",
          "type": "address"
        }
      ],
      "name": "removeSupportedToken",
      "outputs": [],
      "stateMutability": "nonpayable",
      "type": "function"
    },
    {
      "inputs": [],
      "name": "renounceOwnership",
      "outputs": [],
      "stateMutability": "nonpayable",
      "type": "function"
    },
    {
      "inputs": [
        {
          "internalType": "bytes32",
          "name": "sessionId",
          "type": "bytes32"
        }
      ],
      "name": "resumeSession",
      "outputs": [],
      "stateMutability": "nonpayable",
      "type": "function"
    },
    {
      "inputs": [
        {
          "internalType": "bytes32",
          "name": "",
          "type": "bytes32"
        }
      ],
      "name": "sessions",
      "outputs": [
        {
          "internalType": "bytes32",
          "name": "sessionId",
          "type": "bytes32"
        },
        {
          "internalType": "address",
          "name": "student",
          "type": "address"
        },
        {
          "internalType": "address",
          "name": "mentor",
          "type": "address"
        },
        {
          "internalType": "address",
          "name": "paymentToken",
          "type": "address"
        },
        {
          "internalType": "uint256",
          "name": "totalAmount",
          "type": "uint256"
        },
        {
          "internalType": "uint256",
          "name": "releasedAmount",
          "type": "uint256"
        },
        {
          "internalType": "uint256",
          "name": "sessionDuration",
          "type": "uint256"
        },
        {
          "internalType": "uint256",
          "name": "startTime",
          "type": "uint256"
        },
        {
          "internalType": "uint256",
          "name": "lastHeartbeat",
          "type": "uint256"
        },
        {
          "internalType": "uint256",
          "name": "pausedTime",
          "type": "uint256"
        },
        {
          "internalType": "uint256",
          "name": "createdAt",
          "type": "uint256"
        },
        {
          "internalType": "enum ProgressiveEscrowV5.SessionStatus",
          "name": "status",
          "type": "uint8"
        },
        {
          "internalType": "bool",
          "name": "isActive",
          "type": "bool"
        },
        {
          "internalType": "bool",
          "name": "isPaused",
          "type": "bool"
        },
        {
          "internalType": "bool",
          "name": "surveyCompleted",
          "type": "bool"
        }
      ],
      "stateMutability": "view",
      "type": "function"
    },
    {
      "inputs": [
        {
          "internalType": "bytes32",
          "name": "sessionId",
          "type": "bytes32"
        }
      ],
      "name": "shouldAutoPause",
      "outputs": [
        {
          "internalType": "bool",
          "name": "",
          "type": "bool"
        }
      ],
      "stateMutability": "view",
      "type": "function"
    },
    {
      "inputs": [
        {
          "internalType": "bytes32",
          "name": "sessionId",
          "type": "bytes32"
        }
      ],
      "name": "startProgressiveSession",
      "outputs": [],
      "stateMutability": "nonpayable",
      "type": "function"
    },
    {
      "inputs": [
        {
          "internalType": "address",
          "name": "",
          "type": "address"
        }
      ],
      "name": "supportedTokens",
      "outputs": [
        {
          "internalType": "bool",
          "name": "",
          "type": "bool"
        }
      ],
      "stateMutability": "view",
      "type": "function"
    },
    {
      "inputs": [
        {
          "internalType": "address",
          "name": "newOwner",
          "type": "address"
        }
      ],
      "name": "transferOwnership",
      "outputs": [],
      "stateMutability": "nonpayable",
      "type": "function"
    },
    {
      "inputs": [],
      "name": "unpause",
      "outputs": [],
      "stateMutability": "nonpayable",
      "type": "function"
    },
    {
      "inputs": [
        {
          "internalType": "bytes32",
          "name": "sessionId",
          "type": "bytes32"
        }
      ],
      "name": "updateHeartbeat",
      "outputs": [],
      "stateMutability": "nonpayable",
      "type": "function"
    },
    {
      "inputs": [
        {
          "internalType": "address",
          "name": "newWallet",
          "type": "address"
        }
      ],
      "name": "updatePlatformWallet",
      "outputs": [],
      "stateMutability": "nonpayable",
      "type": "function"
    },
    {
      "inputs": [
        {
          "internalType": "bytes32",
          "name": "",
          "type": "bytes32"
        }
      ],
      "name": "usedSessionIds",
      "outputs": [
        {
          "internalType": "bool",
          "name": "",
          "type": "bool"
        }
      ],
      "stateMutability": "view",
      "type": "function"
    },
    {
      "inputs": [
        {
          "internalType": "address",
          "name": "",
          "type": "address"
        }
      ],
      "name": "userNonces",
      "outputs": [
        {
          "internalType": "uint256",
          "name": "",
          "type": "uint256"
        }
      ],
      "stateMutability": "view",
      "type": "function"
    },
    {
      "stateMutability": "payable",
      "type": "receive"
    }
  ],
  "bytecode": "0x60803461039e57601f612a0238819003918201601f19168301916001600160401b038311848410176103a35780849260209460405283398101031261039e57516001600160a01b0381169081900361039e5733156103885760008054336001600160a01b03198216811783556040519290916001600160a01b0316907f8be0079c531659141344cd1fd0a4f28419497f9722a3daafe3b4186f6b6457e09080a36001805581156103465750600280546001600160a01b0319169190911790556000805260036020527f3617319a054d772f909f7c479a2cebe5066e836a939412e32403c99029b92eff805460ff191660011790554661a4b1036101b55760036020527f01a6815bb93aaceaf6fcc060af4265023af0225b52d9323bd14a0b81ead724ff8054600160ff19918216811790925573fd086bc7cd5c481dcc9c85ebe478a1c0b69fcbb96000527f1c66039deeb42d6aff0a33e141a5b7fcb18319e34da8682e8447103253c6899d805490911690911790555b7fbbe72b7d9dcb594ee398a4a617885aba53d833e2aad601c813ce9df99fdeb49b604080516000815260016020820152a160405161264890816103ba8239f35b466121050361023c5760036020527f945846cd798efcc1aeaa663b24b9ae9271a3a7b7ca01fd424888a0e6962713858054600160ff19918216811790925573fde4c96c8593536e31f229ea8f37b2ada2699bb26000527f3b7e17b667027e08baed76d05ea1f0f93c5fc24a54b2cc6f575fe37a3c5e5a41805490911690911790555b610175565b46600a036102c15760036020527f4bb659fc66aed220d8c76d343bedc1c72812738a116159dea568e9051aa73fc78054600160ff1991821681179092557394b008aa00579c1307b0ef2c499ad98a8ce58e586000527f5bd25999661ae01fd7fc11b2893f789ec5453cf8724da048d0e5c350f4a1cdfc80549091169091179055610175565b608946036102375760036020527f0327f1365ac56c1f1e49b7693a6598d766722e77bea7cba8e65c8ee8d37fc45d8054600160ff19918216811790925573c2132d05d31c914a87c6611c10748aeb04b58e8f6000527f8074f9b31d5eea44f67a93802db877cc8595c0116fdb14f15f1ec6dc1e931a1c80549091169091179055610175565b62461bcd60e51b815260206004820152601760248201527f496e76616c696420706c6174666f726d2077616c6c65740000000000000000006044820152606490fd5b631e4fbdf760e01b600052600060045260246000fd5b600080fd5b634e487b7160e01b600052604160045260246000fdfe60806040526004361015610050575b361561004e5760405162461bcd60e51b8152602060048201526012602482015271119d5b98dd1a5bdb881b9bdd08199bdd5b9960721b6044820152606490fd5b005b60003560e01c806302ceb40614611d2957806309499aa614611d0b5780631ac6af0314611ce75780631c8b14a014611cb6578063277327a514611c4b5780632b8a5f3b14611b555780632f7801f41461153657806334d1c8fe14611b3957806339b240bd1461191e5780633a17ba64146117bb5780633f4ba83a1461174a5780634d21398214611644578063560d52d41461162857806358bc83371461160c578063590a2cc1146115965780635c975abb146115705780636834e3a81461153657806368c4ac26146113925780636baae9cc1461149d5780636d69fcaf1461142a578063715018a6146113d157806375151b6314611392578063763191901461132357806379d55e77146111925780637ac1b46914610f5d5780637dbd283214610e6a5780638456cb5914610e085780638da5cb5b14610ddf578063962db93b14610dc157806399173d6b14610cd2578063ada4ef3014610c56578063b817be4c14610b29578063b911862b14610a18578063c1a287e2146109fc578063ccb868dd14610799578063d79e856714610705578063e906826c146106df578063f1343065146106c2578063f2fde38b14610639578063f400272b146102465763fa2af9da0361000e5734610241576000366003190112610241576002546040516001600160a01b039091168152602090f35b600080fd5b60c03660031901126102415760043561025d611e6e565b906044356001600160a01b038116919082900361024157606435916084359361028461228e565b61028c6125b4565b6001600160a01b0316938415158061062f575b156105f95781600052600360205260ff60406000205416156105c057831515806105b7575b15610580576000838152600460205260409020600101546001600160a01b031661054a5733600052600560205260406000205460a435036105155782600052600660205260ff604060002054166104de573360005260056020526040600020805460001981146104c8576001019055816104495783340361041557600b905b6000848152600660208181526040808420805460ff1916600190811790915560048084528286208a815591820180546001600160a01b03199081163390811790925560028401805482168f1790556003840180549091168b1790559082018b905560058201869055938101959095556007850184905560088501849055600985019390935542600a85015593909201805463ffffffff1916905580519586529185019290925290927fa5d7a3cf3954591f1af3cd96f79210169bbaf7e3b3a3e60de11886bc773649e09190a460018055005b60405162461bcd60e51b815260206004820152600c60248201526b08aa89040dad2e6dac2e8c6d60a31b6044820152606490fd5b3461049057600b9061048b6040516323b872dd60e01b602082015233602482015230604482015286606482015260648152610485608482612030565b846125d4565b610343565b60405162461bcd60e51b815260206004820152601060248201526f04e6f2045544820666f722045524332360841b6044820152606490fd5b634e487b7160e01b600052601160045260246000fd5b60405162461bcd60e51b815260206004820152600f60248201526e14d95cdcda5bdb881251081d5cd959608a1b6044820152606490fd5b60405162461bcd60e51b815260206004820152600d60248201526c496e76616c6964206e6f6e636560981b6044820152606490fd5b60405162461bcd60e51b815260206004820152600e60248201526d53657373696f6e2065786973747360901b6044820152606490fd5b60405162461bcd60e51b815260206004820152600f60248201526e496e76616c696420616d6f756e747360881b6044820152606490fd5b508015156102c4565b60405162461bcd60e51b81526020600482015260116024820152702ab739bab83837b93a32b2103a37b5b2b760791b6044820152606490fd5b60405162461bcd60e51b815260206004820152600e60248201526d24b73b30b634b21036b2b73a37b960911b6044820152606490fd5b503385141561029f565b3461024157602036600319011261024157610652611e58565b61065a612317565b6001600160a01b031680156106ac57600080546001600160a01b03198116831782556001600160a01b0316907f8be0079c531659141344cd1fd0a4f28419497f9722a3daafe3b4186f6b6457e09080a3005b631e4fbdf760e01b600052600060045260246000fd5b346102415760003660031901126102415760206040516103848152f35b346102415760203660031901126102415760206106fd60043561213d565b604051908152f35b34610241576040366003190112610241576004356001600160a01b03811690819003610241576000808080936024359061073d612317565b8015158061078f575b61074f90611fc7565b5af16107596120fd565b501561076157005b60405162461bcd60e51b815260206004820152600660248201526511985a5b195960d21b6044820152606490fd5b5047821115610746565b34610241576020366003190112610241576004356107b561228e565b600081815260046020526040902060018101546001600160a01b03166107dc811515611ebf565b600b82015460ff811660068110156109e65760016107fa9114611efd565b60ff8160081c1690816109d7575b50156109a45761081d60078301541515612090565b3314801561098e575b61082f90611f36565b600481015490605a820291808304605a14901517156104c85761085a6108548461252c565b836120ca565b6006820154906064820291808304606414901517156104c85760649161087f916120dd565b9204808311610986575b50600581018054928381111561094a57836108a391611fad565b91821561091857826108f9916108da827ff2446e1f418253f1b6b8f9b8ebf603fd78b61d59024e68b0d687d1ecc22b8a4097611fba565b845560038101546002909101546001600160a01b03908116911661247c565b546040805192835260208301919091524290820152606090a260018055005b60405162461bcd60e51b815260206004820152600a602482015269139bc81c185e5b595b9d60b21b6044820152606490fd5b60405162461bcd60e51b81526020600482015260146024820152734e6f207061796d656e7420617661696c61626c6560601b6044820152606490fd5b915083610889565b5060028101546001600160a01b03163314610826565b60405162461bcd60e51b815260206004820152600b60248201526a4e6f742072756e6e696e6760a81b6044820152606490fd5b60ff915060101c161584610808565b634e487b7160e01b600052602160045260246000fd5b34610241576000366003190112610241576020604051603c8152f35b3461024157602036600319011261024157600435610a3461228e565b6000818152600460205260409020600181018054610a5c906001600160a01b03161515611ebf565b600b82019160ff83541660068110156109e657610a799015612052565b600a81015461038481018091116104c857421115610af657825460ff19166005179092556003820154905460049290920180547fc3bbbc97172715cbe5621e8ec00f5d81afaffc9d2ed9dc3fb688b96e603d344593602093610ae892916001600160a01b03908116911661247c565b54604051908152a260018055005b60405162461bcd60e51b815260206004820152600b60248201526a139bdd08195e1c1a5c995960aa1b6044820152606490fd5b3461024157602036600319011261024157600435610b4561228e565b600081815260046020526040902060018101546001600160a01b031690610b6d821515611ebf565b600b81019160ff83541660068110156109e657610b8a9015612052565b33148015610c40575b610b9c90611f36565b600a81015461038481018091116104c8574211610c0857600160ff1983541617825542600782015560084291015561010062ffff00198254161790557fd010adb8a640e9a6a134ce407a4e27deb32fab5b64ea5847c55101907d9c25786020604051428152a260018055005b60405162461bcd60e51b815260206004820152601060248201526f151a5b595bdd5d08195e18d95959195960821b6044820152606490fd5b5060028101546001600160a01b03163314610b93565b3461024157602036600319011261024157610c6f611e58565b610c77612317565b6001600160a01b03168015610c9c57600280546001600160a01b031916919091179055005b60405162461bcd60e51b815260206004820152600e60248201526d125b9d985b1a59081dd85b1b195d60921b6044820152606490fd5b3461024157602036600319011261024157600435610cee61228e565b600081815260046020526040902060018101546001600160a01b0316610d15811515611ebf565b600b82019081549060ff821660068110156109e6576002610d369114611f74565b33148015610dab575b610d4890611f36565b6008830192610d676009610d5d865442611fad565b9201918254611fba565b905562ff00ff1916600117905542908190556040519081527f3dd443712f1bb154053901f56ef4a45320caeee475fc1b8f448abb8a5abd7ec190602090a260018055005b5060028301546001600160a01b03163314610d3f565b346102415760203660031901126102415760206106fd60043561252c565b34610241576000366003190112610241576000546040516001600160a01b039091168152602090f35b3461024157600036600319011261024157610e21612317565b610e296125b4565b6000805460ff60a01b1916600160a01b1790556040513381527f62e78cea01bee320cd4e420270b5ea74000d11b0c9f74754ebdbfc544b05a25890602090a1005b346102415760203660031901126102415760043560005260046020526101e0604060002060ff81549160018060a01b036001820154169060018060a01b0360028201541660018060a01b0360038301541660048301546005840154600685015490600786015492600887015494600988015496600b600a8a0154990154996040519c8d5260208d015260408c015260608b015260808a015260a089015260c088015260e0870152610100860152610120850152610140840152610f336101608401838316611e84565b818160081c161515610180840152818160101c1615156101a084015260181c1615156101c0820152f35b3461024157602036600319011261024157600435610f7961228e565b600081815260046020526040902060018101546001600160a01b031690610fa1821515611ebf565b600b81019081549260ff841660068110156109e6576001610fc29114611efd565b60ff8460101c1661115c573314908115611145575b600801918254601e8101908181116104c857605a018091116104c85742119382831561113e575b1561110a5762ff00ff19166201000217905580611102575b6110f9575b50600090156110cb5750604051611033604082612030565b60118152701219585c9d1899585d081d1a5b595bdd5d607a1b6020820152905b6040514281526040602082015282519283604083015260005b8481106110b557837fec452bb0b82c12deb4f139fa1dfc53d2e3606e8bf03ca6a3f007d0dd6fd5350784606081896000838284010152601f80199101168101030190a260018055005b806020809284010151606082860101520161106c565b506040516110da604082612030565b600c81526b4d616e75616c20706175736560a01b602082015290611053565b4290558261101b565b508115611016565b60405162461bcd60e51b815260206004820152600c60248201526b155b985d5d1a1bdc9a5e995960a21b6044820152606490fd5b5084610ffe565b60028101546001600160a01b031633149150610fd7565b60405162461bcd60e51b815260206004820152600e60248201526d105b1c9958591e481c185d5cd95960921b6044820152606490fd5b34610241576080366003190112610241576004356111ae611e6e565b60443560643567ffffffffffffffff8111610241576111d1903690600401611e91565b90916111db612317565b6111e361228e565b84600052600460205260406000209161120960018060a01b036001850154161515611ebf565b6001600160a01b038516156112ea576004830154600584019061122e82548092611fad565b84116112b1577f482a5548da3675089cf6763340cbd789090e2187c64b37c814c5340111636c479660609561127c93611268878095611fba565b9055600301546001600160a01b031661247c565b80604051948593845260406020850152816040850152848401376000828201840152601f01601f19168101030190a260018055005b60405162461bcd60e51b81526020600482015260116024820152704578636565647320617661696c61626c6560781b6044820152606490fd5b60405162461bcd60e51b8152602060048201526011602482015270125b9d985b1a59081c9958da5c1a595b9d607a1b6044820152606490fd5b34610241576020366003190112610241577fbbe72b7d9dcb594ee398a4a617885aba53d833e2aad601c813ce9df99fdeb49b604061135f611e58565b611367612317565b6001600160a01b0316600081815260036020908152838220805460ff191690558351928352820152a1005b34610241576020366003190112610241576001600160a01b036113b3611e58565b166000526003602052602060ff604060002054166040519015158152f35b34610241576000366003190112610241576113ea612317565b600080546001600160a01b0319811682556001600160a01b03167f8be0079c531659141344cd1fd0a4f28419497f9722a3daafe3b4186f6b6457e08280a3005b34610241576020366003190112610241577fbbe72b7d9dcb594ee398a4a617885aba53d833e2aad601c813ce9df99fdeb49b6040611466611e58565b61146e612317565b60018060a01b031680600052600360205281600020600160ff19825416179055815190815260016020820152a1005b346102415760203660031901126102415760043560005260046020526040600020600b8101549060ff821660068110156109e6576001149182611527575b5081611519575b816114f5575b6020826040519015158152f35b60080154601e810191508181116104c857605a018091116104c857421160206114e8565b6008810154151591506114e2565b60101c60ff16159150826114db565b34610241576020366003190112610241576001600160a01b03611557611e58565b1660005260056020526020604060002054604051908152f35b3461024157600036600319011261024157602060ff60005460a01c166040519015158152f35b34610241576020366003190112610241576004356000526004602052604060002060ff600b8201541660068110156109e65760011490816115fe575b816115e4576020826040519015158152f35b600891500154601e81018091116104c857421160206114e8565b6008810154151591506115d2565b3461024157600036600319011261024157602060405160008152f35b34610241576000366003190112610241576020604051600a8152f35b346102415760203660031901126102415760043561166061228e565b60008181526004602052604090206001810180546001600160a01b031690611689821515611ebf565b600b83019260ff8454169060068210156109e6577f1d74c88fc8a136a8fb434db3561e44ecbc5b4577d1f1ea7e30d97250ead2cf2d946040946116cf6117229415612052565b33148015611734575b6116e190611f36565b600460ff198254161790556004810154926005820191611702835486611fad565b94909255600390910154905483916001600160a01b03918216911661247c565b8151908152426020820152a260018055005b5060028201546001600160a01b031633146116d8565b3461024157600036600319011261024157611763612317565b60005460ff8160a01c16156117aa5760ff60a01b19166000556040513381527f5db9ee0a495bf2e6ff9c91a7834c1ba4fdd244a5e8aa4e537bd38aeae4b073aa90602090a1005b638dfc202b60e01b60005260046000fd5b346102415760603660031901126102415760043560243560443567ffffffffffffffff8111610241576117f2903690600401611e91565b50506117fc61228e565b600082815260046020526040902060018101546001600160a01b0316611823811515611ebf565b33036118ea57600b015460ff1660068110156109e657600181149081156118df575b50156118ae57600181101590816118a2575b501561186c5761186690612382565b60018055005b60405162461bcd60e51b815260206004820152600e60248201526d496e76616c696420726174696e6760901b6044820152606490fd5b60059150111582611857565b60405162461bcd60e51b81526020600482015260096024820152684e6f7420726561647960b81b6044820152606490fd5b600291501483611845565b60405162461bcd60e51b815260206004820152600c60248201526b13db9b1e481cdd1d59195b9d60a21b6044820152606490fd5b346102415760203660031901126102415760006101c060405161194081611ffd565b8281528260208201528260408201528260608201528260808201528260a08201528260c08201528260e08201528261010082015282610120820152826101408201528261016082015282610180820152826101a0820152015260043560005260046020526040600020604051906119b682611ffd565b8054825260018101546001600160a01b03908116602084019081526002830154821660408501908152600384015490921660608501908152600484015460808601908152600585015460a0870190815260068087015460c08901908152600788015460e08a0190815260088901546101008b0190815260098a01546101208c01908152600a8b01546101408d01908152600b909b0154989b989a6101608a019890979196929593949360ff8d16908110156109e65789526101808a01998c60081c60ff1615158b526101a081019b8d60101c60ff1615158d526101c08201809e60181c60ff16151590526040519e8f92518352600160a01b600190039051166020830152600160a01b600190039051169060400152600160a01b6001900390511660608d01525160808c01525160a08b01525160c08a01525160e0890152516101008801525161012087015251610140860152516101608501611b1891611e84565b5115156101808401525115156101a08301525115156101c08201526101e090f35b34610241576000366003190112610241576020604051601e8152f35b3461024157602036600319011261024157600435611b7161228e565b60008181526004602052604090206001810154611b98906001600160a01b03161515611ebf565b60ff600b8201541660068110156109e65760018114908115611c40575b5015611c0c57600a015462093a8081018091116104c8574210611bdb5761186690612382565b60405162461bcd60e51b8152602060048201526009602482015268546f6f206561726c7960b81b6044820152606490fd5b60405162461bcd60e51b815260206004820152600c60248201526b4e6f7420656c696769626c6560a01b6044820152606490fd5b600291501483611bb5565b346102415760603660031901126102415761004e611c67611e58565b611c6f611e6e565b611c77612317565b6001600160a01b038116151580611ca4575b611c9290611fc7565b604435916001600160a01b0316612340565b506001600160a01b0382161515611c89565b34610241576020366003190112610241576004356000526006602052602060ff604060002054166040519015158152f35b346102415760603660031901126102415760206106fd6044356024356004356122b0565b3461024157600036600319011261024157602060405162093a808152f35b3461024157602036600319011261024157600435611d4561228e565b600081815260046020526040902060018101546001600160a01b0316611d6c811515611ebf565b600b82019182549160ff83169060068210156109e657611d8e60018314611efd565b33148015611e42575b611da090611f36565b42600883015560ff8360101c16611de3575b847f3cf0bf7708060bf073b6ddb921eef0485b3eb9da828e0ed751fa6582ef337f576020604051428152a260018055005b6002611def9114611f74565b611dfe6009610d5d4242611fad565b905562ff00ff1916600117905560405142815281907f3dd443712f1bb154053901f56ef4a45320caeee475fc1b8f448abb8a5abd7ec190602090a281808080611db2565b5060028201546001600160a01b03163314611d97565b600435906001600160a01b038216820361024157565b602435906001600160a01b038216820361024157565b9060068210156109e65752565b9181601f840112156102415782359167ffffffffffffffff8311610241576020838186019501011161024157565b15611ec657565b60405162461bcd60e51b815260206004820152600f60248201526e53657373696f6e206d697373696e6760881b6044820152606490fd5b15611f0457565b60405162461bcd60e51b815260206004820152600a6024820152694e6f742061637469766560b01b6044820152606490fd5b15611f3d57565b60405162461bcd60e51b815260206004820152600f60248201526e139bdd081c185c9d1a58da5c185b9d608a1b6044820152606490fd5b15611f7b57565b60405162461bcd60e51b815260206004820152600a602482015269139bdd081c185d5cd95960b21b6044820152606490fd5b919082039182116104c857565b919082018092116104c857565b15611fce57565b60405162461bcd60e51b8152602060048201526007602482015266125b9d985b1a5960ca1b6044820152606490fd5b6101e0810190811067ffffffffffffffff82111761201a57604052565b634e487b7160e01b600052604160045260246000fd5b90601f8019910116810190811067ffffffffffffffff82111761201a57604052565b1561205957565b60405162461bcd60e51b815260206004820152600f60248201526e105b1c9958591e481cdd185c9d1959608a1b6044820152606490fd5b1561209757565b60405162461bcd60e51b815260206004820152600b60248201526a139bdd081cdd185c9d195960aa1b6044820152606490fd5b818102929181159184041417156104c857565b81156120e7570490565b634e487b7160e01b600052601260045260246000fd5b3d15612138573d9067ffffffffffffffff821161201a576040519161212c601f8201601f191660200184612030565b82523d6000602084013e565b606090565b60005260046020526040600020600b81015460ff811660068110156109e657600114801590612281575b8015612275575b61222557612180600783015442611fad565b60ff60098401549260101c1680612268575b612249575b8181111561224157603c916121ab91611fad565b049081158015612235575b61222557600481015491605a830292808404605a14901517156104c8576121dd90836120ca565b6006820154906064820291808304606414901517156104c857606491612202916120dd565b920480831161222c575b5060050154808211156122255761222291611fad565b90565b5050600090565b9150600561220c565b506006810154156121b6565b505050600090565b906122629061225c600885015442611fad565b90611fba565b90612197565b5060088301541515612192565b5060078201541561216e565b5060ff8160101c16612167565b60026001541461229f576002600155565b633ee5aeb560e01b60005260046000fd5b91908015801561230f575b61224157605a830292808404605a14901517156104c8576122dc90836120ca565b6064820291808304606414901517156104c8576064916122fb916120dd565b9104908181111561230a575090565b905090565b5081156122bb565b6000546001600160a01b0316330361232b57565b63118cdaa760e01b6000523360045260246000fd5b60405163a9059cbb60e01b60208201526001600160a01b0390921660248301526044808301939093529181526123809161237b606483612030565b6125d4565b565b6000818152600460208190526040909120600b8101805463ff00ffff1916630100000317905590810154600582018054919290916123c09084611fad565b90600a820293828504600a14831517156104c85761240360647f556195694fc082ad19415eaec58c1584ec20066f6e655be3034932c454d38a2396048094611fad565b935582612455575b818061242e575b50506040805192835260208301919091524290820152606090a2565b60039091015460025461244e92916001600160a01b03918216911661247c565b3881612412565b600381015460028201546124779185916001600160a01b03908116911661247c565b61240b565b6001600160a01b038216919082156124f4576001600160a01b0316806124e9575050600080809381935af16124af6120fd565b50156124b757565b60405162461bcd60e51b815260206004820152600a6024820152691155120819985a5b195960b21b6044820152606490fd5b612380939250612340565b60405162461bcd60e51b815260206004820152601060248201526f24b73b30b634b2103a3930b739b332b960811b6044820152606490fd5b60005260046020526040600020612552600782015461254c811515612090565b42611fad565b60098201549160ff600b82015460101c16806125a7575b61258d575b5081811161257d575050600090565b603c9161258991611fad565b0490565b9161225c60086125a09394015442611fad565b903861256e565b5060088101541515612569565b60ff60005460a01c166125c357565b63d93c066560e01b60005260046000fd5b906000602091828151910182855af11561262f576000513d61262657506001600160a01b0381163b155b6126055750565b635274afe760e01b60009081526001600160a01b0391909116600452602490fd5b600114156125fe565b6040513d6000823e3d90fdfea164736f6c634300081e000a",
  "linkReferences": {},
  "deployedLinkReferences": {}
}